{
	"data": {
		"bytecode": {
			"linkReferences": {
				"Documents/GitHub/IndexTradingApplication/contract/contracts/utils/FixidityLib.sol": {
					"FixidityLib": [
						{
							"length": 20,
							"start": 13
						},
						{
							"length": 20,
							"start": 157
						},
						{
							"length": 20,
							"start": 3442
						},
						{
							"length": 20,
							"start": 5663
						},
						{
							"length": 20,
							"start": 6051
						},
						{
							"length": 20,
							"start": 6100
						},
						{
							"length": 20,
							"start": 6616
						},
						{
							"length": 20,
							"start": 6938
						},
						{
							"length": 20,
							"start": 7675
						},
						{
							"length": 20,
							"start": 7823
						},
						{
							"length": 20,
							"start": 11062
						},
						{
							"length": 20,
							"start": 12020
						},
						{
							"length": 20,
							"start": 12391
						},
						{
							"length": 20,
							"start": 12524
						},
						{
							"length": 20,
							"start": 12685
						},
						{
							"length": 20,
							"start": 12845
						},
						{
							"length": 20,
							"start": 13146
						},
						{
							"length": 20,
							"start": 13172
						},
						{
							"length": 20,
							"start": 13382
						},
						{
							"length": 20,
							"start": 13653
						},
						{
							"length": 20,
							"start": 13679
						},
						{
							"length": 20,
							"start": 13889
						}
					]
				}
			},
			"object": "60806040526000600f55606473__$b7900c218ed48355be6e05115185f8aa7c$__632179bb6c6040518163ffffffff1660e01b8152600401602060405180830381865af415801562000055573d6000803e3d6000fd5b505050506040513d601f19601f820116820180604052508101906200007b919062000370565b6005620000899190620003d1565b62000095919062000527565b6010556103e873__$b7900c218ed48355be6e05115185f8aa7c$__632179bb6c6040518163ffffffff1660e01b8152600401602060405180830381865af4158015620000e5573d6000803e3d6000fd5b505050506040513d601f19601f820116820180604052508101906200010b919062000370565b6005620001199190620003d1565b62000125919062000527565b6011553480156200013557600080fd5b5060405180604001604052806040518060400160405280600381526020017f515151000000000000000000000000000000000000000000000000000000000081525081526020016040518060400160405280600381526020017f53505900000000000000000000000000000000000000000000000000000000008152508152506001906002620001c792919062000243565b5060016003604051620001da90620005f6565b908152602001604051809103902060006101000a81548160ff0219169083151502179055506001600360405162000211906200065d565b908152602001604051809103902060006101000a81548160ff02191690831515021790555060008081905550620009d5565b82805482825590600052602060002090810192821562000290579160200282015b828111156200028f5782518290816200027e9190620008ee565b509160200191906001019062000264565b5b5090506200029f9190620002a3565b5090565b5b80821115620002c75760008181620002bd9190620002cb565b50600101620002a4565b5090565b508054620002d990620006dd565b6000825580601f10620002ed57506200030e565b601f0160209004906000526020600020908101906200030d919062000311565b5b50565b5b808211156200032c57600081600090555060010162000312565b5090565b600080fd5b6000819050919050565b6200034a8162000335565b81146200035657600080fd5b50565b6000815190506200036a816200033f565b92915050565b60006020828403121562000389576200038862000330565b5b6000620003998482850162000359565b91505092915050565b7f4e487b7100000000000000000000000000000000000000000000000000000000600052601160045260246000fd5b6000620003de8262000335565b9150620003eb8362000335565b9250827f7fffffffffffffffffffffffffffffffffffffffffffffffffffffffffffffff04821160008413600084131616156200042d576200042c620003a2565b5b817f800000000000000000000000000000000000000000000000000000000000000005831260008412600084131616156200046d576200046c620003a2565b5b827f80000000000000000000000000000000000000000000000000000000000000000582126000841360008412161615620004ad57620004ac620003a2565b5b827f7fffffffffffffffffffffffffffffffffffffffffffffffffffffffffffffff0582126000841260008412161615620004ed57620004ec620003a2565b5b828202905092915050565b7f4e487b7100000000000000000000000000000000000000000000000000000000600052601260045260246000fd5b6000620005348262000335565b9150620005418362000335565b925082620005545762000553620004f8565b5b600160000383147f80000000000000000000000000000000000000000000000000000000000000008314161562000590576200058f620003a2565b5b828205905092915050565b600081905092915050565b7f5151510000000000000000000000000000000000000000000000000000000000600082015250565b6000620005de6003836200059b565b9150620005eb82620005a6565b600382019050919050565b60006200060382620005cf565b9150819050919050565b7f5350590000000000000000000000000000000000000000000000000000000000600082015250565b6000620006456003836200059b565b915062000652826200060d565b600382019050919050565b60006200066a8262000636565b9150819050919050565b600081519050919050565b7f4e487b7100000000000000000000000000000000000000000000000000000000600052604160045260246000fd5b7f4e487b7100000000000000000000000000000000000000000000000000000000600052602260045260246000fd5b60006002820490506001821680620006f657607f821691505b6020821081036200070c576200070b620006ae565b5b50919050565b60008190508160005260206000209050919050565b60006020601f8301049050919050565b600082821b905092915050565b600060088302620007767fffffffffffffffffffffffffffffffffffffffffffffffffffffffffffffffff8262000737565b62000782868362000737565b95508019841693508086168417925050509392505050565b6000819050919050565b6000819050919050565b6000620007cf620007c9620007c3846200079a565b620007a4565b6200079a565b9050919050565b6000819050919050565b620007eb83620007ae565b62000803620007fa82620007d6565b84845462000744565b825550505050565b600090565b6200081a6200080b565b62000827818484620007e0565b505050565b5b818110156200084f576200084360008262000810565b6001810190506200082d565b5050565b601f8211156200089e57620008688162000712565b620008738462000727565b8101602085101562000883578190505b6200089b620008928562000727565b8301826200082c565b50505b505050565b600082821c905092915050565b6000620008c360001984600802620008a3565b1980831691505092915050565b6000620008de8383620008b0565b9150826002028217905092915050565b620008f98262000674565b67ffffffffffffffff8111156200091557620009146200067f565b5b620009218254620006dd565b6200092e82828562000853565b600060209050601f83116001811462000966576000841562000951578287015190505b6200095d8582620008d0565b865550620009cd565b601f198416620009768662000712565b60005b82811015620009a05784890151825560018201915060208501945060208101905062000979565b86831015620009c05784890151620009bc601f891682620008b0565b8355505b6001600288020188555050505b505050505050565b61495380620009e56000396000f3fe608060405234801561001057600080fd5b50600436106101005760003560e01c8063a444f5e911610097578063ceb224cf11610066578063ceb224cf146102c5578063d6171b70146102e1578063ea62e08114610316578063f2027c251461034857610100565b8063a444f5e91461023c578063a5f86e9b14610258578063c4f5a5a914610274578063c4fa8bcc146102a957610100565b806338f18f0b116100d357806338f18f0b146101b65780634395f558146101d25780634571236b146101ee5780634f8ac98d1461020c57610100565b806314ea6c19146101055780631eed50501461013557806322bc88f714610166578063384f4a6214610182575b600080fd5b61011f600480360381019061011a9190613729565b610381565b60405161012c91906138e2565b60405180910390f35b61014f600480360381019061014a9190613904565b61047a565b60405161015d929190613940565b60405180910390f35b610180600480360381019061017b9190613969565b6104c7565b005b61019c60048036038101906101979190613904565b610555565b6040516101ad959493929190613a0b565b60405180910390f35b6101d060048036038101906101cb9190613a5e565b6105dd565b005b6101ec60048036038101906101e79190613a9e565b610611565b005b6101f661068e565b6040516102039190613b75565b60405180910390f35b61022660048036038101906102219190613729565b610c2e565b60405161023391906138e2565b60405180910390f35b61025660048036038101906102519190613904565b610d27565b005b610272600480360381019061026d9190613729565b611772565b005b61028e60048036038101906102899190613b97565b611a2b565b6040516102a096959493929190613c02565b60405180910390f35b6102c360048036038101906102be9190613c71565b611bf4565b005b6102df60048036038101906102da9190613cc4565b611c3e565b005b6102fb60048036038101906102f69190613904565b611d3b565b60405161030d96959493929190613dd4565b60405180910390f35b610330600480360381019061032b9190613b97565b611dd6565b60405161033f93929190613e35565b60405180910390f35b610362600480360381019061035d9190613b97565b611edc565b6040516103789a99989796959493929190613e73565b60405180910390f35b610389613445565b600073__$b7900c218ed48355be6e05115185f8aa7c$__633c4308a886866040518363ffffffff1660e01b81526004016103c4929190613f25565b602060405180830381865af41580156103e1573d6000803e3d6000fd5b505050506040513d601f19601f820116820180604052508101906104059190613f63565b905060006040518060c001604052808881526020018581526020016040518060400160405280600481526020017f53656c6c0000000000000000000000000000000000000000000000000000000081525081526020018781526020018681526020018381525090508092505050949350505050565b6000806000600a6000858152602001908152602001600020604051806040016040529081600082015481526020016001820154815250509050806000015181602001519250925050915091565b60006040518060c0016040528088815260200187815260200186815260200185815260200184815260200183815250905080600c60008a8152602001908152602001600020600082015181600001556020820151816001015560408201518160020155606082015181600301556080820151816004015560a082015181600501559050505050505050505050565b600080600080600080600b60008881526020019081526020016000206040518060a001604052908160008201548152602001600182015481526020016002820154815260200160038201548152602001600482015481525050905080600001518160200151826040015183606001518460800151955095509550955095505091939590929450565b81600f8190555060028190806001815401808255809150506001900390600052602060002001600090919091909150555050565b60006040518060a0016040528087815260200186815260200185815260200184815260200183815250905080600b6000898152602001908152602001600020600082015181600001556020820151816001015560408201518160020155606082015181600301556080820151816004015590505050505050505050565b606060006040518060200160405280600081525090506000600280549050036106d1576040518060600160405280602b81526020016148ce602b91399050610c27565b60005b600180549050811015610886576003600182815481106106f7576106f6613f90565b5b9060005260206000200160405161070e91906140c2565b908152602001604051809103902060006101000a81549060ff021916905560046001828154811061074257610741613f90565b5b9060005260206000200160405161075991906140c2565b908152602001604051809103902060006101000a81549060ff021916905560056001828154811061078d5761078c613f90565b5b906000526020600020016040516107a491906140c2565b9081526020016040518091039020600090556006600182815481106107cc576107cb613f90565b5b906000526020600020016040516107e391906140c2565b90815260200160405180910390206000905560076001828154811061080b5761080a613f90565b5b9060005260206000200160405161082291906140c2565b90815260200160405180910390206000905560086001828154811061084a57610849613f90565b5b9060005260206000200160405161086191906140c2565b908152602001604051809103902060009055808061087e90614108565b9150506106d4565b5060005b600280549050811015610bf55760005b600180549050811015610ab95760096000600284815481106108bf576108be613f90565b5b90600052602060002001548152602001908152602001600020600182815481106108ec576108eb613f90565b5b9060005260206000200160405161090391906140c2565b908152602001604051809103902060008082016000610922919061347b565b600182016000905560028201600090555050600e60006002848154811061094c5761094b613f90565b5b906000526020600020015481526020019081526020016000206001828154811061097957610978613f90565b5b9060005260206000200160405161099091906140c2565b9081526020016040518091039020600080820160006109af919061347b565b6001820160009055600282016000905560038201600090556004820160009055600582016000905560068201600090556007820160009055600882016000905560098201600090555050600d600060028481548110610a1157610a10613f90565b5b9060005260206000200154815260200190815260200160002060018281548110610a3e57610a3d613f90565b5b90600052602060002001604051610a5591906140c2565b908152602001604051809103902060008082016000610a74919061347b565b6001820160009055600282016000610a8c919061347b565b60038201600090556004820160009055600582016000905550508080610ab190614108565b91505061089a565b50600a600060028381548110610ad257610ad1613f90565b5b9060005260206000200154815260200190815260200160002060008082016000905560018201600090555050600b600060028381548110610b1657610b15613f90565b5b9060005260206000200154815260200190815260200160002060008082016000905560018201600090556002820160009055600382016000905560048201600090555050600c600060028381548110610b7257610b71613f90565b5b90600052602060002001548152602001908152602001600020600080820160009055600182016000905560028201600090556003820160009055600482016000905560058201600090555050600060028281548110610bd457610bd3613f90565b5b90600052602060002001819055508080610bed90614108565b91505061088a565b506000808190555060016000610c0b91906134bb565b6040518060600160405280602581526020016148f96025913990505b8091505090565b610c36613445565b600073__$b7900c218ed48355be6e05115185f8aa7c$__633c4308a886866040518363ffffffff1660e01b8152600401610c71929190613f25565b602060405180830381865af4158015610c8e573d6000803e3d6000fd5b505050506040513d601f19601f82011682018060405250810190610cb29190613f63565b905060006040518060c001604052808881526020018581526020016040518060400160405280600381526020017f427579000000000000000000000000000000000000000000000000000000000081525081526020018781526020018681526020018381525090508092505050949350505050565b610d308161206e565b610d6f576040517f08c379a0000000000000000000000000000000000000000000000000000000008152600401610d66906141c2565b60405180910390fd5b6002819080600181540180825580915050600190039060005260206000200160009091909190915055600f6000815480929190610dab90614108565b91905055506000600f540361113157600073__$b7900c218ed48355be6e05115185f8aa7c$__63f5984236600c60008581526020019081526020016000206000015473__$b7900c218ed48355be6e05115185f8aa7c$__632179bb6c6040518163ffffffff1660e01b8152600401602060405180830381865af4158015610e36573d6000803e3d6000fd5b505050506040513d601f19601f82011682018060405250810190610e5a9190613f63565b600180549050610e6a91906141e2565b6040518363ffffffff1660e01b8152600401610e87929190613f25565b602060405180830381865af4158015610ea4573d6000803e3d6000fd5b505050506040513d601f19601f82011682018060405250810190610ec89190613f63565b905060005b60018054905081101561112a5760006009600085815260200190815260200160002060018381548110610f0357610f02613f90565b5b90600052602060002001604051610f1a91906140c2565b9081526020016040518091039020604051806060016040529081600082018054610f4390613fee565b80601f0160208091040260200160405190810160405280929190818152602001828054610f6f90613fee565b8015610fbc5780601f10610f9157610100808354040283529160200191610fbc565b820191906000526020600020905b815481529060010190602001808311610f9f57829003601f168201915b505050505081526020016001820154815260200160028201548152505090506000816000015190506000826040015190506000600373__$b7900c218ed48355be6e05115185f8aa7c$__63f59842368887604001516040518363ffffffff1660e01b815260040161102e929190613f25565b602060405180830381865af415801561104b573d6000803e3d6000fd5b505050506040513d601f19601f8201168201806040525081019061106f9190613f63565b61107991906141e2565b905060006110898483858b610c2e565b905080600d60008a8152602001908152602001600020856040516110ad919061432a565b908152602001604051809103902060008201518160000190816110d091906144d8565b506020820151816001015560408201518160020190816110f091906144d8565b50606082015181600301556080820151816004015560a082015181600501559050505050505050808061112290614108565b915050610ecd565b5050611753565b600073__$b7900c218ed48355be6e05115185f8aa7c$__633c4308a8601054600c6000868152602001908152602001600020600501546040518363ffffffff1660e01b8152600401611184929190613f25565b602060405180830381865af41580156111a1573d6000803e3d6000fd5b505050506040513d601f19601f820116820180604052508101906111c59190613f63565b905060005b6001805490508110156115e05760006009600085815260200190815260200160002060018381548110611200576111ff613f90565b5b9060005260206000200160405161121791906140c2565b908152602001604051809103902060020154905060006001838154811061124157611240613f90565b5b90600052602060002001805461125690613fee565b80601f016020809104026020016040519081016040528092919081815260200182805461128290613fee565b80156112cf5780601f106112a4576101008083540402835291602001916112cf565b820191906000526020600020905b8154815290600101906020018083116112b257829003601f168201915b505050505090506004600184815481106112ec576112eb613f90565b5b9060005260206000200160405161130391906140c2565b908152602001604051809103902060009054906101000a900460ff16156113d05761132e81836120d2565b156113cb57600061134082848861211a565b905080600d600088815260200190815260200160002083604051611364919061432a565b9081526020016040518091039020600082015181600001908161138791906144d8565b506020820151816001015560408201518160020190816113a791906144d8565b50606082015181600301556080820151816004015560a08201518160050155905050505b6115cb565b6113da8183612295565b156113f45760006113ec8284886122c0565b9050506115ca565b83600b60008781526020019081526020016000206001015413156115c957600073__$b7900c218ed48355be6e05115185f8aa7c$__63b93ea812600b600089815260200190815260200160002060010154876040518363ffffffff1660e01b8152600401611463929190613f25565b602060405180830381865af4158015611480573d6000803e3d6000fd5b505050506040513d601f19601f820116820180604052508101906114a49190613f63565b9050600073__$b7900c218ed48355be6e05115185f8aa7c$__63f598423683866040518363ffffffff1660e01b81526004016114e1929190613f25565b602060405180830381865af41580156114fe573d6000803e3d6000fd5b505050506040513d601f19601f820116820180604052508101906115229190613f63565b905060008113156115c657600061153b8483878b610c2e565b905080600d60008a81526020019081526020016000208560405161155f919061432a565b9081526020016040518091039020600082015181600001908161158291906144d8565b506020820151816001015560408201518160020190816115a291906144d8565b50606082015181600301556080820151816004015560a08201518160050155905050505b50505b5b5b505080806115d890614108565b9150506111ca565b5060005b600180549050811015611750576000600960008581526020019081526020016000206001838154811061161a57611619613f90565b5b9060005260206000200160405161163191906140c2565b908152602001604051809103902060020154905060006001838154811061165b5761165a613f90565b5b90600052602060002001805461167090613fee565b80601f016020809104026020016040519081016040528092919081815260200182805461169c90613fee565b80156116e95780601f106116be576101008083540402835291602001916116e9565b820191906000526020600020905b8154815290600101906020018083116116cc57829003601f168201915b50505050509050600481604051611700919061432a565b908152602001604051809103902060009054906101000a900460ff16156117305761172b818361267c565b61173b565b61173a8183612928565b5b5050808061174890614108565b9150506115e4565b50505b806000819055506001600f5461176991906145aa565b600f8190555050565b600060405180606001604052808681526020018581526020018481525090508060096000848152602001908152602001600020866040516117b3919061432a565b908152602001604051809103902060008201518160000190816117d691906144d8565b5060208201518160010155604082015181600201559050506000600f54036118c057600060048660405161180a919061432a565b908152602001604051809103902060006101000a81548160ff0219169083151502179055506000600586604051611841919061432a565b9081526020016040518091039020819055506000600686604051611865919061432a565b9081526020016040518091039020819055506000600786604051611889919061432a565b90815260200160405180910390208190555060006008866040516118ad919061432a565b9081526020016040518091039020819055505b6003856040516118d0919061432a565b908152602001604051809103902060009054906101000a900460ff16611a245760018590806001815401808255809150506001900390600052602060002001600090919091909150908161192491906144d8565b506001600386604051611937919061432a565b908152602001604051809103902060006101000a81548160ff021916908315150217905550600060048660405161196e919061432a565b908152602001604051809103902060006101000a81548160ff02191690831515021790555060006005866040516119a5919061432a565b90815260200160405180910390208190555060006006866040516119c9919061432a565b90815260200160405180910390208190555060006007866040516119ed919061432a565b9081526020016040518091039020819055506000600886604051611a11919061432a565b9081526020016040518091039020819055505b5050505050565b606060006060600080600080600d600089815260200190815260200160002089604051611a58919061432a565b90815260200160405180910390206040518060c0016040529081600082018054611a8190613fee565b80601f0160208091040260200160405190810160405280929190818152602001828054611aad90613fee565b8015611afa5780601f10611acf57610100808354040283529160200191611afa565b820191906000526020600020905b815481529060010190602001808311611add57829003601f168201915b5050505050815260200160018201548152602001600282018054611b1d90613fee565b80601f0160208091040260200160405190810160405280929190818152602001828054611b4990613fee565b8015611b965780601f10611b6b57610100808354040283529160200191611b96565b820191906000526020600020905b815481529060010190602001808311611b7957829003601f168201915b5050505050815260200160038201548152602001600482015481526020016005820154815250509050806000015181602001518260400151836060015184608001518560a00151965096509650965096509650509295509295509295565b6000604051806040016040528084815260200183815250905080600a6000868152602001908152602001600020600082015181600001556020820151816001015590505050505050565b60006040518061014001604052808c81526020018b81526020018a815260200189815260200188815260200187815260200186815260200185815260200184815260200183815250905080600e60008e81526020019081526020016000208c604051611caa919061432a565b90815260200160405180910390206000820151816000019081611ccd91906144d8565b506020820151816001015560408201518160020155606082015181600301556080820151816004015560a0820151816005015560c0820151816006015560e0820151816007015561010082015181600801556101208201518160090155905050505050505050505050505050565b6000806000806000806000600c60008981526020019081526020016000206040518060c001604052908160008201548152602001600182015481526020016002820154815260200160038201548152602001600482015481526020016005820154815250509050806000015181602001518260400151836060015184608001518560a001519650965096509650965096505091939550919395565b606060008060006009600086815260200190815260200160002086604051611dfe919061432a565b9081526020016040518091039020604051806060016040529081600082018054611e2790613fee565b80601f0160208091040260200160405190810160405280929190818152602001828054611e5390613fee565b8015611ea05780601f10611e7557610100808354040283529160200191611ea0565b820191906000526020600020905b815481529060010190602001808311611e8357829003601f168201915b50505050508152602001600182015481526020016002820154815250509050806000015181602001518260400151935093509350509250925092565b6060600080600080600080600080600080600e60008d81526020019081526020016000208d604051611f0e919061432a565b908152602001604051809103902060405180610140016040529081600082018054611f3890613fee565b80601f0160208091040260200160405190810160405280929190818152602001828054611f6490613fee565b8015611fb15780601f10611f8657610100808354040283529160200191611fb1565b820191906000526020600020905b815481529060010190602001808311611f9457829003601f168201915b5050505050815260200160018201548152602001600282015481526020016003820154815260200160048201548152602001600582015481526020016006820154815260200160078201548152602001600882015481526020016009820154815250509050806000015181602001518260400151836060015184608001518560a001518660c001518760e001518861010001518961012001519a509a509a509a509a509a509a509a509a509a50509295989b9194979a5092959850565b6000806000905060008060008060008061208789612d1f565b80965081975082985050505061209e600054612d1f565b8093508194508295505050508160ff168560ff16146120c35760019650886000819055505b86975050505050505050919050565b600080606560646005866040516120e9919061432a565b908152602001604051809103902054612102919061462f565b61210c91906141e2565b905080831391505092915050565b612122613445565b61212a613445565b600060068660405161213c919061432a565b9081526020016040518091039020549050600073__$b7900c218ed48355be6e05115185f8aa7c$__633c4308a883886040518363ffffffff1660e01b8152600401612188929190613f25565b602060405180830381865af41580156121a5573d6000803e3d6000fd5b505050506040513d601f19601f820116820180604052508101906121c99190613f63565b905080600b600087815260200190815260200160002060020154126121fb576121f487838888610c2e565b925061222e565b85600b60008781526020019081526020016000206002015461221d919061462f565b915061222b87838888610c2e565b92505b6000600488604051612240919061432a565b908152602001604051809103902060006101000a81548160ff02191690831515021790555085600788604051612276919061432a565b9081526020016040518091039020819055508293505050509392505050565b60006005836040516122a7919061432a565b9081526020016040518091039020548212905092915050565b6122c8613445565b6000600e6000848152602001908152602001600020856040516122eb919061432a565b90815260200160405180910390206040518061014001604052908160008201805461231590613fee565b80601f016020809104026020016040519081016040528092919081815260200182805461234190613fee565b801561238e5780601f106123635761010080835404028352916020019161238e565b820191906000526020600020905b81548152906001019060200180831161237157829003601f168201915b505050505081526020016001820154815260200160028201548152602001600382015481526020016004820154815260200160058201548152602001600682015481526020016007820154815260200160088201548152602001600982015481525050905060006009600085815260200190815260200160002086604051612416919061432a565b908152602001604051809103902060405180606001604052908160008201805461243f90613fee565b80601f016020809104026020016040519081016040528092919081815260200182805461246b90613fee565b80156124b85780601f1061248d576101008083540402835291602001916124b8565b820191906000526020600020905b81548152906001019060200180831161249b57829003601f168201915b505050505081526020016001820154815260200160028201548152505090506000826020015190506000600180549050600b600088815260200190815260200160002060040154612509919061462f565b9050600073__$b7900c218ed48355be6e05115185f8aa7c$__63f59842368386604001516040518363ffffffff1660e01b815260040161254a929190613f25565b602060405180830381865af4158015612567573d6000803e3d6000fd5b505050506040513d601f19601f8201168201806040525081019061258b9190613f63565b90506000600a600c8361259e91906141e2565b6125a8919061462f565b9050600081856125b89190614699565b905060006125c88c838d8d610381565b90508a60058d6040516125db919061432a565b9081526020016040518091039020819055508160068d6040516125fe919061432a565b9081526020016040518091039020819055508a60088d604051612621919061432a565b908152602001604051809103902081905550600160048d604051612645919061432a565b908152602001604051809103902060006101000a81548160ff02191690831515021790555080985050505050505050509392505050565b6000606473__$b7900c218ed48355be6e05115185f8aa7c$__632179bb6c6040518163ffffffff1660e01b8152600401602060405180830381865af41580156126c9573d6000803e3d6000fd5b505050506040513d601f19601f820116820180604052508101906126ed9190613f63565b60466126f991906141e2565b612703919061462f565b905073__$b7900c218ed48355be6e05115185f8aa7c$__633c4308a860058560405161272f919061432a565b908152602001604051809103902054836040518363ffffffff1660e01b815260040161275c929190613f25565b602060405180830381865af4158015612779573d6000803e3d6000fd5b505050506040513d601f19601f8201168201806040525081019061279d9190613f63565b82121561292357600073__$b7900c218ed48355be6e05115185f8aa7c$__63b93ea8126008866040516127d0919061432a565b908152602001604051809103902054856040518363ffffffff1660e01b81526004016127fd929190613f25565b602060405180830381865af415801561281a573d6000803e3d6000fd5b505050506040513d601f19601f8201168201806040525081019061283e9190613f63565b905060006064603273__$b7900c218ed48355be6e05115185f8aa7c$__63a5f3c23b87866040518363ffffffff1660e01b815260040161287f929190613f25565b602060405180830381865af415801561289c573d6000803e3d6000fd5b505050506040513d601f19601f820116820180604052508101906128c09190613f63565b6128ca91906141e2565b6128d4919061462f565b90506005856040516128e6919061432a565b908152602001604051809103902054811215612920578060058660405161290d919061432a565b9081526020016040518091039020819055505b50505b505050565b600060078360405161293a919061432a565b90815260200160405180910390205403612b23578060078360405161295f919061432a565b908152602001604051809103902081905550600073__$b7900c218ed48355be6e05115185f8aa7c$__63b93ea81273__$b7900c218ed48355be6e05115185f8aa7c$__632179bb6c6040518163ffffffff1660e01b8152600401602060405180830381865af41580156129d6573d6000803e3d6000fd5b505050506040513d601f19601f820116820180604052508101906129fa9190613f63565b6011546040518363ffffffff1660e01b8152600401612a1a929190613f25565b602060405180830381865af4158015612a37573d6000803e3d6000fd5b505050506040513d601f19601f82011682018060405250810190612a5b9190613f63565b9050600073__$b7900c218ed48355be6e05115185f8aa7c$__633c4308a8600786604051612a89919061432a565b908152602001604051809103902054846040518363ffffffff1660e01b8152600401612ab6929190613f25565b602060405180830381865af4158015612ad3573d6000803e3d6000fd5b505050506040513d601f19601f82011682018060405250810190612af79190613f63565b905080600585604051612b0a919061432a565b9081526020016040518091039020819055505050612d1b565b600782604051612b33919061432a565b908152602001604051809103902054811315612d1a5780600783604051612b5a919061432a565b908152602001604051809103902081905550600073__$b7900c218ed48355be6e05115185f8aa7c$__63b93ea81273__$b7900c218ed48355be6e05115185f8aa7c$__632179bb6c6040518163ffffffff1660e01b8152600401602060405180830381865af4158015612bd1573d6000803e3d6000fd5b505050506040513d601f19601f82011682018060405250810190612bf59190613f63565b6011546040518363ffffffff1660e01b8152600401612c15929190613f25565b602060405180830381865af4158015612c32573d6000803e3d6000fd5b505050506040513d601f19601f82011682018060405250810190612c569190613f63565b9050600073__$b7900c218ed48355be6e05115185f8aa7c$__633c4308a8600786604051612c84919061432a565b908152602001604051809103902054846040518363ffffffff1660e01b8152600401612cb1929190613f25565b602060405180830381865af4158015612cce573d6000803e3d6000fd5b505050506040513d601f19601f82011682018060405250810190612cf29190613f63565b905080600585604051612d05919061432a565b90815260200160405180910390208190555050505b5b5050565b600080600080849050612d3181612d64565b8095508192505050612d438185612fd3565b8094508192505050612d5481613359565b8093508192505050509193909250565b6000806000808493506107b292506301e133806002612d83919061472d565b841015612dcc576301e1338084612d9a9190614787565b91506301e1338082612dac919061472d565b84612db791906147b8565b93508183612dc591906147fa565b9250612fcc565b6301e133806002612ddd919061472d565b84612de891906147b8565b93506107b492506334aadc808410612efb576334aadc8084612e0a91906147b8565b9350601c83612e1991906147fa565b92506402f060598084612e2c9190614787565b91506402f060598082612e3f919061472d565b84612e4a91906147b8565b935061019082612e5a919061472d565b83612e6591906147fa565b9250612e70836133a3565b90508063ffffffff168410612ea3578063ffffffff1684612e9191906147b8565b9350600183612ea091906147fa565b92505b612eac836133da565b612efa5763bc17c20084612ec09190614787565b915063bc17c20082612ed2919061472d565b84612edd91906147b8565b9350606482612eec919061472d565b83612ef791906147fa565b92505b5b6307861f8084612f0b9190614787565b91506307861f8082612f1d919061472d565b84612f2891906147b8565b9350600482612f37919061472d565b83612f4291906147fa565b9250612f4d836133a3565b90508063ffffffff168410612f80578063ffffffff1684612f6e91906147b8565b9350600183612f7d91906147fa565b92505b612f89836133da565b612fcb576301e1338084612f9d9190614787565b91506301e1338082612faf919061472d565b84612fba91906147b8565b93508183612fc891906147fa565b92505b5b5050915091565b600080612fde6134dc565b612fe66134ff565b859350612ff2856133da565b1561315d57604051806101a00160405280600060ff168152602001601f60ff168152602001601d60ff168152602001601f60ff168152602001601e60ff168152602001601f60ff168152602001601e60ff168152602001601f60ff168152602001601f60ff168152602001601e60ff168152602001601f60ff168152602001601e60ff168152602001601f60ff168152509150604051806101a00160405280600063ffffffff1681526020016228de8063ffffffff168152602001624f1a0063ffffffff1681526020016277f88063ffffffff168152602001629f858063ffffffff16815260200162c8640063ffffffff16815260200162eff10063ffffffff168152602001630118cf8063ffffffff168152602001630141ae0063ffffffff1681526020016301693b0063ffffffff168152602001630192198063ffffffff1681526020016301b9a68063ffffffff1681526020016301e2850063ffffffff1681525090506132bf565b604051806101a00160405280600060ff168152602001601f60ff168152602001601c60ff168152602001601f60ff168152602001601e60ff168152602001601f60ff168152602001601e60ff168152602001601f60ff168152602001601f60ff168152602001601e60ff168152602001601f60ff168152602001601e60ff168152602001601f60ff168152509150604051806101a00160405280600063ffffffff1681526020016228de8063ffffffff168152602001624dc88063ffffffff1681526020016276a70063ffffffff168152602001629e340063ffffffff16815260200162c7128063ffffffff16815260200162ee9f8063ffffffff1681526020016301177e0063ffffffff1681526020016301405c8063ffffffff168152602001630167e98063ffffffff168152602001630190c80063ffffffff1681526020016301b8550063ffffffff1681526020016301e1338063ffffffff1681525090505b6000600190505b600d8160ff16101561334f57818160ff16600d81106132e8576132e7613f90565b5b602002015163ffffffff1685101561333c578093508160018261330b919061483f565b60ff16600d811061331f5761331e613f90565b5b602002015163ffffffff168561333591906147b8565b945061334f565b808061334790614873565b9150506132c6565b5050509250929050565b600080600083925062015180836133709190614787565b90506201518081613381919061472d565b8361338c91906147b8565b925060018161339b91906145aa565b915050915091565b60006133ae826133da565b156133cd57620151806301e133806133c691906145aa565b90506133d5565b6301e1338090505b919050565b6000806004836133ea919061489c565b61ffff16146133fc5760009050613440565b60006101908361340c919061489c565b61ffff16148061342d57506000606483613426919061489c565b61ffff1614155b1561343b5760019050613440565b600090505b919050565b6040518060c001604052806060815260200160008152602001606081526020016000815260200160008152602001600081525090565b50805461348790613fee565b6000825580601f1061349957506134b8565b601f0160209004906000526020600020908101906134b79190613522565b5b50565b50805460008255906000526020600020908101906134d9919061353f565b50565b604051806101a00160405280600d90602082028036833780820191505090505090565b604051806101a00160405280600d90602082028036833780820191505090505090565b5b8082111561353b576000816000905550600101613523565b5090565b5b8082111561355f5760008181613556919061347b565b50600101613540565b5090565b6000604051905090565b600080fd5b600080fd5b600080fd5b600080fd5b6000601f19601f8301169050919050565b7f4e487b7100000000000000000000000000000000000000000000000000000000600052604160045260246000fd5b6135ca82613581565b810181811067ffffffffffffffff821117156135e9576135e8613592565b5b80604052505050565b60006135fc613563565b905061360882826135c1565b919050565b600067ffffffffffffffff82111561362857613627613592565b5b61363182613581565b9050602081019050919050565b82818337600083830152505050565b600061366061365b8461360d565b6135f2565b90508281526020810184848401111561367c5761367b61357c565b5b61368784828561363e565b509392505050565b600082601f8301126136a4576136a3613577565b5b81356136b484826020860161364d565b91505092915050565b6000819050919050565b6136d0816136bd565b81146136db57600080fd5b50565b6000813590506136ed816136c7565b92915050565b6000819050919050565b613706816136f3565b811461371157600080fd5b50565b600081359050613723816136fd565b92915050565b600080600080608085870312156137435761374261356d565b5b600085013567ffffffffffffffff81111561376157613760613572565b5b61376d8782880161368f565b945050602061377e878288016136de565b935050604061378f878288016136de565b92505060606137a087828801613714565b91505092959194509250565b600081519050919050565b600082825260208201905092915050565b60005b838110156137e65780820151818401526020810190506137cb565b838111156137f5576000848401525b50505050565b6000613806826137ac565b61381081856137b7565b93506138208185602086016137c8565b61382981613581565b840191505092915050565b61383d816136f3565b82525050565b61384c816136bd565b82525050565b600060c083016000830151848203600086015261386f82826137fb565b91505060208301516138846020860182613834565b506040830151848203604086015261389c82826137fb565b91505060608301516138b16060860182613843565b5060808301516138c46080860182613843565b5060a08301516138d760a0860182613843565b508091505092915050565b600060208201905081810360008301526138fc8184613852565b905092915050565b60006020828403121561391a5761391961356d565b5b600061392884828501613714565b91505092915050565b61393a816136bd565b82525050565b60006040820190506139556000830185613931565b6139626020830184613931565b9392505050565b600080600080600080600060e0888a0312156139885761398761356d565b5b60006139968a828b01613714565b97505060206139a78a828b016136de565b96505060406139b88a828b016136de565b95505060606139c98a828b016136de565b94505060806139da8a828b016136de565b93505060a06139eb8a828b016136de565b92505060c06139fc8a828b016136de565b91505092959891949750929550565b600060a082019050613a206000830188613931565b613a2d6020830187613931565b613a3a6040830186613931565b613a476060830185613931565b613a546080830184613931565b9695505050505050565b60008060408385031215613a7557613a7461356d565b5b6000613a8385828601613714565b9250506020613a9485828601613714565b9150509250929050565b60008060008060008060c08789031215613abb57613aba61356d565b5b6000613ac989828a01613714565b9650506020613ada89828a016136de565b9550506040613aeb89828a016136de565b9450506060613afc89828a016136de565b9350506080613b0d89828a016136de565b92505060a0613b1e89828a016136de565b9150509295509295509295565b600082825260208201905092915050565b6000613b47826137ac565b613b518185613b2b565b9350613b618185602086016137c8565b613b6a81613581565b840191505092915050565b60006020820190508181036000830152613b8f8184613b3c565b905092915050565b60008060408385031215613bae57613bad61356d565b5b600083013567ffffffffffffffff811115613bcc57613bcb613572565b5b613bd88582860161368f565b9250506020613be985828601613714565b9150509250929050565b613bfc816136f3565b82525050565b600060c0820190508181036000830152613c1c8189613b3c565b9050613c2b6020830188613bf3565b8181036040830152613c3d8187613b3c565b9050613c4c6060830186613931565b613c596080830185613931565b613c6660a0830184613931565b979650505050505050565b600080600060608486031215613c8a57613c8961356d565b5b6000613c9886828701613714565b9350506020613ca9868287016136de565b9250506040613cba868287016136de565b9150509250925092565b60008060008060008060008060008060006101608c8e031215613cea57613ce961356d565b5b6000613cf88e828f01613714565b9b505060208c013567ffffffffffffffff811115613d1957613d18613572565b5b613d258e828f0161368f565b9a50506040613d368e828f016136de565b9950506060613d478e828f016136de565b9850506080613d588e828f016136de565b97505060a0613d698e828f016136de565b96505060c0613d7a8e828f016136de565b95505060e0613d8b8e828f016136de565b945050610100613d9d8e828f016136de565b935050610120613daf8e828f016136de565b925050610140613dc18e828f016136de565b9150509295989b509295989b9093969950565b600060c082019050613de96000830189613931565b613df66020830188613931565b613e036040830187613931565b613e106060830186613931565b613e1d6080830185613931565b613e2a60a0830184613931565b979650505050505050565b60006060820190508181036000830152613e4f8186613b3c565b9050613e5e6020830185613931565b613e6b6040830184613931565b949350505050565b6000610140820190508181036000830152613e8e818d613b3c565b9050613e9d602083018c613931565b613eaa604083018b613931565b613eb7606083018a613931565b613ec46080830189613931565b613ed160a0830188613931565b613ede60c0830187613931565b613eeb60e0830186613931565b613ef9610100830185613931565b613f07610120830184613931565b9b9a5050505050505050505050565b613f1f816136bd565b82525050565b6000604082019050613f3a6000830185613f16565b613f476020830184613f16565b9392505050565b600081519050613f5d816136c7565b92915050565b600060208284031215613f7957613f7861356d565b5b6000613f8784828501613f4e565b91505092915050565b7f4e487b7100000000000000000000000000000000000000000000000000000000600052603260045260246000fd5b7f4e487b7100000000000000000000000000000000000000000000000000000000600052602260045260246000fd5b6000600282049050600182168061400657607f821691505b60208210810361401957614018613fbf565b5b50919050565b600081905092915050565b60008190508160005260206000209050919050565b6000815461404c81613fee565b614056818661401f565b945060018216600081146140715760018114614086576140b9565b60ff19831686528115158202860193506140b9565b61408f8561402a565b60005b838110156140b157815481890152600182019150602081019050614092565b838801955050505b50505092915050565b60006140ce828461403f565b915081905092915050565b7f4e487b7100000000000000000000000000000000000000000000000000000000600052601160045260246000fd5b6000614113826136f3565b91507fffffffffffffffffffffffffffffffffffffffffffffffffffffffffffffffff8203614145576141446140d9565b5b600182019050919050565b7f53616d65206d6f6e74682e202054696d65206e6f74207965742072656163686560008201527f6400000000000000000000000000000000000000000000000000000000000000602082015250565b60006141ac602183613b2b565b91506141b782614150565b604082019050919050565b600060208201905081810360008301526141db8161419f565b9050919050565b60006141ed826136bd565b91506141f8836136bd565b9250827f7fffffffffffffffffffffffffffffffffffffffffffffffffffffffffffffff0482116000841360008413161615614237576142366140d9565b5b817f80000000000000000000000000000000000000000000000000000000000000000583126000841260008413161615614274576142736140d9565b5b827f800000000000000000000000000000000000000000000000000000000000000005821260008413600084121616156142b1576142b06140d9565b5b827f7fffffffffffffffffffffffffffffffffffffffffffffffffffffffffffffff05821260008412600084121616156142ee576142ed6140d9565b5b828202905092915050565b6000614304826137ac565b61430e818561401f565b935061431e8185602086016137c8565b80840191505092915050565b600061433682846142f9565b915081905092915050565b60006020601f8301049050919050565b600082821b905092915050565b60006008830261438e7fffffffffffffffffffffffffffffffffffffffffffffffffffffffffffffffff82614351565b6143988683614351565b95508019841693508086168417925050509392505050565b6000819050919050565b60006143d56143d06143cb846136f3565b6143b0565b6136f3565b9050919050565b6000819050919050565b6143ef836143ba565b6144036143fb826143dc565b84845461435e565b825550505050565b600090565b61441861440b565b6144238184846143e6565b505050565b5b818110156144475761443c600082614410565b600181019050614429565b5050565b601f82111561448c5761445d8161402a565b61446684614341565b81016020851015614475578190505b61448961448185614341565b830182614428565b50505b505050565b600082821c905092915050565b60006144af60001984600802614491565b1980831691505092915050565b60006144c8838361449e565b9150826002028217905092915050565b6144e1826137ac565b67ffffffffffffffff8111156144fa576144f9613592565b5b6145048254613fee565b61450f82828561444b565b600060209050601f8311600181146145425760008415614530578287015190505b61453a85826144bc565b8655506145a2565b601f1984166145508661402a565b60005b8281101561457857848901518255600182019150602085019450602081019050614553565b868310156145955784890151614591601f89168261449e565b8355505b6001600288020188555050505b505050505050565b60006145b5826136f3565b91506145c0836136f3565b9250827fffffffffffffffffffffffffffffffffffffffffffffffffffffffffffffffff038211156145f5576145f46140d9565b5b828201905092915050565b7f4e487b7100000000000000000000000000000000000000000000000000000000600052601260045260246000fd5b600061463a826136bd565b9150614645836136bd565b92508261465557614654614600565b5b600160000383147f80000000000000000000000000000000000000000000000000000000000000008314161561468e5761468d6140d9565b5b828205905092915050565b60006146a4826136bd565b91506146af836136bd565b9250827f8000000000000000000000000000000000000000000000000000000000000000018212600084121516156146ea576146e96140d9565b5b827f7fffffffffffffffffffffffffffffffffffffffffffffffffffffffffffffff018213600084121615614722576147216140d9565b5b828203905092915050565b6000614738826136f3565b9150614743836136f3565b9250817fffffffffffffffffffffffffffffffffffffffffffffffffffffffffffffffff048311821515161561477c5761477b6140d9565b5b828202905092915050565b6000614792826136f3565b915061479d836136f3565b9250826147ad576147ac614600565b5b828204905092915050565b60006147c3826136f3565b91506147ce836136f3565b9250828210156147e1576147e06140d9565b5b828203905092915050565b600061ffff82169050919050565b6000614805826147ec565b9150614810836147ec565b92508261ffff03821115614827576148266140d9565b5b828201905092915050565b600060ff82169050919050565b600061484a82614832565b915061485583614832565b925082821015614868576148676140d9565b5b828203905092915050565b600061487e82614832565b915060ff8203614891576148906140d9565b5b600182019050919050565b60006148a7826147ec565b91506148b2836147ec565b9250826148c2576148c1614600565b5b82820690509291505056fe436f6e747261637420737461746520686173206e6f74206265656e20696e697469616c697a656420796574436f6e747261637420737461746520686173206265656e207265696e697469616c697a6564a2646970667358221220acbfc4b8470ec9caefff72d68d8d75df41d4bfc7ecf23dfb5bb61c04c8435d1a64736f6c634300080f0033",
			"opcodes": "PUSH1 0x80 PUSH1 0x40 MSTORE PUSH1 0x0 PUSH1 0xF SSTORE PUSH1 0x64 PUSH20 0x0 PUSH4 0x2179BB6C PUSH1 0x40 MLOAD DUP2 PUSH4 0xFFFFFFFF AND PUSH1 0xE0 SHL DUP2 MSTORE PUSH1 0x4 ADD PUSH1 0x20 PUSH1 0x40 MLOAD DUP1 DUP4 SUB DUP2 DUP7 GAS DELEGATECALL ISZERO DUP1 ISZERO PUSH3 0x55 JUMPI RETURNDATASIZE PUSH1 0x0 DUP1 RETURNDATACOPY RETURNDATASIZE PUSH1 0x0 REVERT JUMPDEST POP POP POP POP PUSH1 0x40 MLOAD RETURNDATASIZE PUSH1 0x1F NOT PUSH1 0x1F DUP3 ADD AND DUP3 ADD DUP1 PUSH1 0x40 MSTORE POP DUP2 ADD SWAP1 PUSH3 0x7B SWAP2 SWAP1 PUSH3 0x370 JUMP JUMPDEST PUSH1 0x5 PUSH3 0x89 SWAP2 SWAP1 PUSH3 0x3D1 JUMP JUMPDEST PUSH3 0x95 SWAP2 SWAP1 PUSH3 0x527 JUMP JUMPDEST PUSH1 0x10 SSTORE PUSH2 0x3E8 PUSH20 0x0 PUSH4 0x2179BB6C PUSH1 0x40 MLOAD DUP2 PUSH4 0xFFFFFFFF AND PUSH1 0xE0 SHL DUP2 MSTORE PUSH1 0x4 ADD PUSH1 0x20 PUSH1 0x40 MLOAD DUP1 DUP4 SUB DUP2 DUP7 GAS DELEGATECALL ISZERO DUP1 ISZERO PUSH3 0xE5 JUMPI RETURNDATASIZE PUSH1 0x0 DUP1 RETURNDATACOPY RETURNDATASIZE PUSH1 0x0 REVERT JUMPDEST POP POP POP POP PUSH1 0x40 MLOAD RETURNDATASIZE PUSH1 0x1F NOT PUSH1 0x1F DUP3 ADD AND DUP3 ADD DUP1 PUSH1 0x40 MSTORE POP DUP2 ADD SWAP1 PUSH3 0x10B SWAP2 SWAP1 PUSH3 0x370 JUMP JUMPDEST PUSH1 0x5 PUSH3 0x119 SWAP2 SWAP1 PUSH3 0x3D1 JUMP JUMPDEST PUSH3 0x125 SWAP2 SWAP1 PUSH3 0x527 JUMP JUMPDEST PUSH1 0x11 SSTORE CALLVALUE DUP1 ISZERO PUSH3 0x135 JUMPI PUSH1 0x0 DUP1 REVERT JUMPDEST POP PUSH1 0x40 MLOAD DUP1 PUSH1 0x40 ADD PUSH1 0x40 MSTORE DUP1 PUSH1 0x40 MLOAD DUP1 PUSH1 0x40 ADD PUSH1 0x40 MSTORE DUP1 PUSH1 0x3 DUP2 MSTORE PUSH1 0x20 ADD PUSH32 0x5151510000000000000000000000000000000000000000000000000000000000 DUP2 MSTORE POP DUP2 MSTORE PUSH1 0x20 ADD PUSH1 0x40 MLOAD DUP1 PUSH1 0x40 ADD PUSH1 0x40 MSTORE DUP1 PUSH1 0x3 DUP2 MSTORE PUSH1 0x20 ADD PUSH32 0x5350590000000000000000000000000000000000000000000000000000000000 DUP2 MSTORE POP DUP2 MSTORE POP PUSH1 0x1 SWAP1 PUSH1 0x2 PUSH3 0x1C7 SWAP3 SWAP2 SWAP1 PUSH3 0x243 JUMP JUMPDEST POP PUSH1 0x1 PUSH1 0x3 PUSH1 0x40 MLOAD PUSH3 0x1DA SWAP1 PUSH3 0x5F6 JUMP JUMPDEST SWAP1 DUP2 MSTORE PUSH1 0x20 ADD PUSH1 0x40 MLOAD DUP1 SWAP2 SUB SWAP1 KECCAK256 PUSH1 0x0 PUSH2 0x100 EXP DUP2 SLOAD DUP2 PUSH1 0xFF MUL NOT AND SWAP1 DUP4 ISZERO ISZERO MUL OR SWAP1 SSTORE POP PUSH1 0x1 PUSH1 0x3 PUSH1 0x40 MLOAD PUSH3 0x211 SWAP1 PUSH3 0x65D JUMP JUMPDEST SWAP1 DUP2 MSTORE PUSH1 0x20 ADD PUSH1 0x40 MLOAD DUP1 SWAP2 SUB SWAP1 KECCAK256 PUSH1 0x0 PUSH2 0x100 EXP DUP2 SLOAD DUP2 PUSH1 0xFF MUL NOT AND SWAP1 DUP4 ISZERO ISZERO MUL OR SWAP1 SSTORE POP PUSH1 0x0 DUP1 DUP2 SWAP1 SSTORE POP PUSH3 0x9D5 JUMP JUMPDEST DUP3 DUP1 SLOAD DUP3 DUP3 SSTORE SWAP1 PUSH1 0x0 MSTORE PUSH1 0x20 PUSH1 0x0 KECCAK256 SWAP1 DUP2 ADD SWAP3 DUP3 ISZERO PUSH3 0x290 JUMPI SWAP2 PUSH1 0x20 MUL DUP3 ADD JUMPDEST DUP3 DUP2 GT ISZERO PUSH3 0x28F JUMPI DUP3 MLOAD DUP3 SWAP1 DUP2 PUSH3 0x27E SWAP2 SWAP1 PUSH3 0x8EE JUMP JUMPDEST POP SWAP2 PUSH1 0x20 ADD SWAP2 SWAP1 PUSH1 0x1 ADD SWAP1 PUSH3 0x264 JUMP JUMPDEST JUMPDEST POP SWAP1 POP PUSH3 0x29F SWAP2 SWAP1 PUSH3 0x2A3 JUMP JUMPDEST POP SWAP1 JUMP JUMPDEST JUMPDEST DUP1 DUP3 GT ISZERO PUSH3 0x2C7 JUMPI PUSH1 0x0 DUP2 DUP2 PUSH3 0x2BD SWAP2 SWAP1 PUSH3 0x2CB JUMP JUMPDEST POP PUSH1 0x1 ADD PUSH3 0x2A4 JUMP JUMPDEST POP SWAP1 JUMP JUMPDEST POP DUP1 SLOAD PUSH3 0x2D9 SWAP1 PUSH3 0x6DD JUMP JUMPDEST PUSH1 0x0 DUP3 SSTORE DUP1 PUSH1 0x1F LT PUSH3 0x2ED JUMPI POP PUSH3 0x30E JUMP JUMPDEST PUSH1 0x1F ADD PUSH1 0x20 SWAP1 DIV SWAP1 PUSH1 0x0 MSTORE PUSH1 0x20 PUSH1 0x0 KECCAK256 SWAP1 DUP2 ADD SWAP1 PUSH3 0x30D SWAP2 SWAP1 PUSH3 0x311 JUMP JUMPDEST JUMPDEST POP JUMP JUMPDEST JUMPDEST DUP1 DUP3 GT ISZERO PUSH3 0x32C JUMPI PUSH1 0x0 DUP2 PUSH1 0x0 SWAP1 SSTORE POP PUSH1 0x1 ADD PUSH3 0x312 JUMP JUMPDEST POP SWAP1 JUMP JUMPDEST PUSH1 0x0 DUP1 REVERT JUMPDEST PUSH1 0x0 DUP2 SWAP1 POP SWAP2 SWAP1 POP JUMP JUMPDEST PUSH3 0x34A DUP2 PUSH3 0x335 JUMP JUMPDEST DUP2 EQ PUSH3 0x356 JUMPI PUSH1 0x0 DUP1 REVERT JUMPDEST POP JUMP JUMPDEST PUSH1 0x0 DUP2 MLOAD SWAP1 POP PUSH3 0x36A DUP2 PUSH3 0x33F JUMP JUMPDEST SWAP3 SWAP2 POP POP JUMP JUMPDEST PUSH1 0x0 PUSH1 0x20 DUP3 DUP5 SUB SLT ISZERO PUSH3 0x389 JUMPI PUSH3 0x388 PUSH3 0x330 JUMP JUMPDEST JUMPDEST PUSH1 0x0 PUSH3 0x399 DUP5 DUP3 DUP6 ADD PUSH3 0x359 JUMP JUMPDEST SWAP2 POP POP SWAP3 SWAP2 POP POP JUMP JUMPDEST PUSH32 0x4E487B7100000000000000000000000000000000000000000000000000000000 PUSH1 0x0 MSTORE PUSH1 0x11 PUSH1 0x4 MSTORE PUSH1 0x24 PUSH1 0x0 REVERT JUMPDEST PUSH1 0x0 PUSH3 0x3DE DUP3 PUSH3 0x335 JUMP JUMPDEST SWAP2 POP PUSH3 0x3EB DUP4 PUSH3 0x335 JUMP JUMPDEST SWAP3 POP DUP3 PUSH32 0x7FFFFFFFFFFFFFFFFFFFFFFFFFFFFFFFFFFFFFFFFFFFFFFFFFFFFFFFFFFFFFFF DIV DUP3 GT PUSH1 0x0 DUP5 SGT PUSH1 0x0 DUP5 SGT AND AND ISZERO PUSH3 0x42D JUMPI PUSH3 0x42C PUSH3 0x3A2 JUMP JUMPDEST JUMPDEST DUP2 PUSH32 0x8000000000000000000000000000000000000000000000000000000000000000 SDIV DUP4 SLT PUSH1 0x0 DUP5 SLT PUSH1 0x0 DUP5 SGT AND AND ISZERO PUSH3 0x46D JUMPI PUSH3 0x46C PUSH3 0x3A2 JUMP JUMPDEST JUMPDEST DUP3 PUSH32 0x8000000000000000000000000000000000000000000000000000000000000000 SDIV DUP3 SLT PUSH1 0x0 DUP5 SGT PUSH1 0x0 DUP5 SLT AND AND ISZERO PUSH3 0x4AD JUMPI PUSH3 0x4AC PUSH3 0x3A2 JUMP JUMPDEST JUMPDEST DUP3 PUSH32 0x7FFFFFFFFFFFFFFFFFFFFFFFFFFFFFFFFFFFFFFFFFFFFFFFFFFFFFFFFFFFFFFF SDIV DUP3 SLT PUSH1 0x0 DUP5 SLT PUSH1 0x0 DUP5 SLT AND AND ISZERO PUSH3 0x4ED JUMPI PUSH3 0x4EC PUSH3 0x3A2 JUMP JUMPDEST JUMPDEST DUP3 DUP3 MUL SWAP1 POP SWAP3 SWAP2 POP POP JUMP JUMPDEST PUSH32 0x4E487B7100000000000000000000000000000000000000000000000000000000 PUSH1 0x0 MSTORE PUSH1 0x12 PUSH1 0x4 MSTORE PUSH1 0x24 PUSH1 0x0 REVERT JUMPDEST PUSH1 0x0 PUSH3 0x534 DUP3 PUSH3 0x335 JUMP JUMPDEST SWAP2 POP PUSH3 0x541 DUP4 PUSH3 0x335 JUMP JUMPDEST SWAP3 POP DUP3 PUSH3 0x554 JUMPI PUSH3 0x553 PUSH3 0x4F8 JUMP JUMPDEST JUMPDEST PUSH1 0x1 PUSH1 0x0 SUB DUP4 EQ PUSH32 0x8000000000000000000000000000000000000000000000000000000000000000 DUP4 EQ AND ISZERO PUSH3 0x590 JUMPI PUSH3 0x58F PUSH3 0x3A2 JUMP JUMPDEST JUMPDEST DUP3 DUP3 SDIV SWAP1 POP SWAP3 SWAP2 POP POP JUMP JUMPDEST PUSH1 0x0 DUP2 SWAP1 POP SWAP3 SWAP2 POP POP JUMP JUMPDEST PUSH32 0x5151510000000000000000000000000000000000000000000000000000000000 PUSH1 0x0 DUP3 ADD MSTORE POP JUMP JUMPDEST PUSH1 0x0 PUSH3 0x5DE PUSH1 0x3 DUP4 PUSH3 0x59B JUMP JUMPDEST SWAP2 POP PUSH3 0x5EB DUP3 PUSH3 0x5A6 JUMP JUMPDEST PUSH1 0x3 DUP3 ADD SWAP1 POP SWAP2 SWAP1 POP JUMP JUMPDEST PUSH1 0x0 PUSH3 0x603 DUP3 PUSH3 0x5CF JUMP JUMPDEST SWAP2 POP DUP2 SWAP1 POP SWAP2 SWAP1 POP JUMP JUMPDEST PUSH32 0x5350590000000000000000000000000000000000000000000000000000000000 PUSH1 0x0 DUP3 ADD MSTORE POP JUMP JUMPDEST PUSH1 0x0 PUSH3 0x645 PUSH1 0x3 DUP4 PUSH3 0x59B JUMP JUMPDEST SWAP2 POP PUSH3 0x652 DUP3 PUSH3 0x60D JUMP JUMPDEST PUSH1 0x3 DUP3 ADD SWAP1 POP SWAP2 SWAP1 POP JUMP JUMPDEST PUSH1 0x0 PUSH3 0x66A DUP3 PUSH3 0x636 JUMP JUMPDEST SWAP2 POP DUP2 SWAP1 POP SWAP2 SWAP1 POP JUMP JUMPDEST PUSH1 0x0 DUP2 MLOAD SWAP1 POP SWAP2 SWAP1 POP JUMP JUMPDEST PUSH32 0x4E487B7100000000000000000000000000000000000000000000000000000000 PUSH1 0x0 MSTORE PUSH1 0x41 PUSH1 0x4 MSTORE PUSH1 0x24 PUSH1 0x0 REVERT JUMPDEST PUSH32 0x4E487B7100000000000000000000000000000000000000000000000000000000 PUSH1 0x0 MSTORE PUSH1 0x22 PUSH1 0x4 MSTORE PUSH1 0x24 PUSH1 0x0 REVERT JUMPDEST PUSH1 0x0 PUSH1 0x2 DUP3 DIV SWAP1 POP PUSH1 0x1 DUP3 AND DUP1 PUSH3 0x6F6 JUMPI PUSH1 0x7F DUP3 AND SWAP2 POP JUMPDEST PUSH1 0x20 DUP3 LT DUP2 SUB PUSH3 0x70C JUMPI PUSH3 0x70B PUSH3 0x6AE JUMP JUMPDEST JUMPDEST POP SWAP2 SWAP1 POP JUMP JUMPDEST PUSH1 0x0 DUP2 SWAP1 POP DUP2 PUSH1 0x0 MSTORE PUSH1 0x20 PUSH1 0x0 KECCAK256 SWAP1 POP SWAP2 SWAP1 POP JUMP JUMPDEST PUSH1 0x0 PUSH1 0x20 PUSH1 0x1F DUP4 ADD DIV SWAP1 POP SWAP2 SWAP1 POP JUMP JUMPDEST PUSH1 0x0 DUP3 DUP3 SHL SWAP1 POP SWAP3 SWAP2 POP POP JUMP JUMPDEST PUSH1 0x0 PUSH1 0x8 DUP4 MUL PUSH3 0x776 PUSH32 0xFFFFFFFFFFFFFFFFFFFFFFFFFFFFFFFFFFFFFFFFFFFFFFFFFFFFFFFFFFFFFFFF DUP3 PUSH3 0x737 JUMP JUMPDEST PUSH3 0x782 DUP7 DUP4 PUSH3 0x737 JUMP JUMPDEST SWAP6 POP DUP1 NOT DUP5 AND SWAP4 POP DUP1 DUP7 AND DUP5 OR SWAP3 POP POP POP SWAP4 SWAP3 POP POP POP JUMP JUMPDEST PUSH1 0x0 DUP2 SWAP1 POP SWAP2 SWAP1 POP JUMP JUMPDEST PUSH1 0x0 DUP2 SWAP1 POP SWAP2 SWAP1 POP JUMP JUMPDEST PUSH1 0x0 PUSH3 0x7CF PUSH3 0x7C9 PUSH3 0x7C3 DUP5 PUSH3 0x79A JUMP JUMPDEST PUSH3 0x7A4 JUMP JUMPDEST PUSH3 0x79A JUMP JUMPDEST SWAP1 POP SWAP2 SWAP1 POP JUMP JUMPDEST PUSH1 0x0 DUP2 SWAP1 POP SWAP2 SWAP1 POP JUMP JUMPDEST PUSH3 0x7EB DUP4 PUSH3 0x7AE JUMP JUMPDEST PUSH3 0x803 PUSH3 0x7FA DUP3 PUSH3 0x7D6 JUMP JUMPDEST DUP5 DUP5 SLOAD PUSH3 0x744 JUMP JUMPDEST DUP3 SSTORE POP POP POP POP JUMP JUMPDEST PUSH1 0x0 SWAP1 JUMP JUMPDEST PUSH3 0x81A PUSH3 0x80B JUMP JUMPDEST PUSH3 0x827 DUP2 DUP5 DUP5 PUSH3 0x7E0 JUMP JUMPDEST POP POP POP JUMP JUMPDEST JUMPDEST DUP2 DUP2 LT ISZERO PUSH3 0x84F JUMPI PUSH3 0x843 PUSH1 0x0 DUP3 PUSH3 0x810 JUMP JUMPDEST PUSH1 0x1 DUP2 ADD SWAP1 POP PUSH3 0x82D JUMP JUMPDEST POP POP JUMP JUMPDEST PUSH1 0x1F DUP3 GT ISZERO PUSH3 0x89E JUMPI PUSH3 0x868 DUP2 PUSH3 0x712 JUMP JUMPDEST PUSH3 0x873 DUP5 PUSH3 0x727 JUMP JUMPDEST DUP2 ADD PUSH1 0x20 DUP6 LT ISZERO PUSH3 0x883 JUMPI DUP2 SWAP1 POP JUMPDEST PUSH3 0x89B PUSH3 0x892 DUP6 PUSH3 0x727 JUMP JUMPDEST DUP4 ADD DUP3 PUSH3 0x82C JUMP JUMPDEST POP POP JUMPDEST POP POP POP JUMP JUMPDEST PUSH1 0x0 DUP3 DUP3 SHR SWAP1 POP SWAP3 SWAP2 POP POP JUMP JUMPDEST PUSH1 0x0 PUSH3 0x8C3 PUSH1 0x0 NOT DUP5 PUSH1 0x8 MUL PUSH3 0x8A3 JUMP JUMPDEST NOT DUP1 DUP4 AND SWAP2 POP POP SWAP3 SWAP2 POP POP JUMP JUMPDEST PUSH1 0x0 PUSH3 0x8DE DUP4 DUP4 PUSH3 0x8B0 JUMP JUMPDEST SWAP2 POP DUP3 PUSH1 0x2 MUL DUP3 OR SWAP1 POP SWAP3 SWAP2 POP POP JUMP JUMPDEST PUSH3 0x8F9 DUP3 PUSH3 0x674 JUMP JUMPDEST PUSH8 0xFFFFFFFFFFFFFFFF DUP2 GT ISZERO PUSH3 0x915 JUMPI PUSH3 0x914 PUSH3 0x67F JUMP JUMPDEST JUMPDEST PUSH3 0x921 DUP3 SLOAD PUSH3 0x6DD JUMP JUMPDEST PUSH3 0x92E DUP3 DUP3 DUP6 PUSH3 0x853 JUMP JUMPDEST PUSH1 0x0 PUSH1 0x20 SWAP1 POP PUSH1 0x1F DUP4 GT PUSH1 0x1 DUP2 EQ PUSH3 0x966 JUMPI PUSH1 0x0 DUP5 ISZERO PUSH3 0x951 JUMPI DUP3 DUP8 ADD MLOAD SWAP1 POP JUMPDEST PUSH3 0x95D DUP6 DUP3 PUSH3 0x8D0 JUMP JUMPDEST DUP7 SSTORE POP PUSH3 0x9CD JUMP JUMPDEST PUSH1 0x1F NOT DUP5 AND PUSH3 0x976 DUP7 PUSH3 0x712 JUMP JUMPDEST PUSH1 0x0 JUMPDEST DUP3 DUP2 LT ISZERO PUSH3 0x9A0 JUMPI DUP5 DUP10 ADD MLOAD DUP3 SSTORE PUSH1 0x1 DUP3 ADD SWAP2 POP PUSH1 0x20 DUP6 ADD SWAP5 POP PUSH1 0x20 DUP2 ADD SWAP1 POP PUSH3 0x979 JUMP JUMPDEST DUP7 DUP4 LT ISZERO PUSH3 0x9C0 JUMPI DUP5 DUP10 ADD MLOAD PUSH3 0x9BC PUSH1 0x1F DUP10 AND DUP3 PUSH3 0x8B0 JUMP JUMPDEST DUP4 SSTORE POP JUMPDEST PUSH1 0x1 PUSH1 0x2 DUP9 MUL ADD DUP9 SSTORE POP POP POP JUMPDEST POP POP POP POP POP POP JUMP JUMPDEST PUSH2 0x4953 DUP1 PUSH3 0x9E5 PUSH1 0x0 CODECOPY PUSH1 0x0 RETURN INVALID PUSH1 0x80 PUSH1 0x40 MSTORE CALLVALUE DUP1 ISZERO PUSH2 0x10 JUMPI PUSH1 0x0 DUP1 REVERT JUMPDEST POP PUSH1 0x4 CALLDATASIZE LT PUSH2 0x100 JUMPI PUSH1 0x0 CALLDATALOAD PUSH1 0xE0 SHR DUP1 PUSH4 0xA444F5E9 GT PUSH2 0x97 JUMPI DUP1 PUSH4 0xCEB224CF GT PUSH2 0x66 JUMPI DUP1 PUSH4 0xCEB224CF EQ PUSH2 0x2C5 JUMPI DUP1 PUSH4 0xD6171B70 EQ PUSH2 0x2E1 JUMPI DUP1 PUSH4 0xEA62E081 EQ PUSH2 0x316 JUMPI DUP1 PUSH4 0xF2027C25 EQ PUSH2 0x348 JUMPI PUSH2 0x100 JUMP JUMPDEST DUP1 PUSH4 0xA444F5E9 EQ PUSH2 0x23C JUMPI DUP1 PUSH4 0xA5F86E9B EQ PUSH2 0x258 JUMPI DUP1 PUSH4 0xC4F5A5A9 EQ PUSH2 0x274 JUMPI DUP1 PUSH4 0xC4FA8BCC EQ PUSH2 0x2A9 JUMPI PUSH2 0x100 JUMP JUMPDEST DUP1 PUSH4 0x38F18F0B GT PUSH2 0xD3 JUMPI DUP1 PUSH4 0x38F18F0B EQ PUSH2 0x1B6 JUMPI DUP1 PUSH4 0x4395F558 EQ PUSH2 0x1D2 JUMPI DUP1 PUSH4 0x4571236B EQ PUSH2 0x1EE JUMPI DUP1 PUSH4 0x4F8AC98D EQ PUSH2 0x20C JUMPI PUSH2 0x100 JUMP JUMPDEST DUP1 PUSH4 0x14EA6C19 EQ PUSH2 0x105 JUMPI DUP1 PUSH4 0x1EED5050 EQ PUSH2 0x135 JUMPI DUP1 PUSH4 0x22BC88F7 EQ PUSH2 0x166 JUMPI DUP1 PUSH4 0x384F4A62 EQ PUSH2 0x182 JUMPI JUMPDEST PUSH1 0x0 DUP1 REVERT JUMPDEST PUSH2 0x11F PUSH1 0x4 DUP1 CALLDATASIZE SUB DUP2 ADD SWAP1 PUSH2 0x11A SWAP2 SWAP1 PUSH2 0x3729 JUMP JUMPDEST PUSH2 0x381 JUMP JUMPDEST PUSH1 0x40 MLOAD PUSH2 0x12C SWAP2 SWAP1 PUSH2 0x38E2 JUMP JUMPDEST PUSH1 0x40 MLOAD DUP1 SWAP2 SUB SWAP1 RETURN JUMPDEST PUSH2 0x14F PUSH1 0x4 DUP1 CALLDATASIZE SUB DUP2 ADD SWAP1 PUSH2 0x14A SWAP2 SWAP1 PUSH2 0x3904 JUMP JUMPDEST PUSH2 0x47A JUMP JUMPDEST PUSH1 0x40 MLOAD PUSH2 0x15D SWAP3 SWAP2 SWAP1 PUSH2 0x3940 JUMP JUMPDEST PUSH1 0x40 MLOAD DUP1 SWAP2 SUB SWAP1 RETURN JUMPDEST PUSH2 0x180 PUSH1 0x4 DUP1 CALLDATASIZE SUB DUP2 ADD SWAP1 PUSH2 0x17B SWAP2 SWAP1 PUSH2 0x3969 JUMP JUMPDEST PUSH2 0x4C7 JUMP JUMPDEST STOP JUMPDEST PUSH2 0x19C PUSH1 0x4 DUP1 CALLDATASIZE SUB DUP2 ADD SWAP1 PUSH2 0x197 SWAP2 SWAP1 PUSH2 0x3904 JUMP JUMPDEST PUSH2 0x555 JUMP JUMPDEST PUSH1 0x40 MLOAD PUSH2 0x1AD SWAP6 SWAP5 SWAP4 SWAP3 SWAP2 SWAP1 PUSH2 0x3A0B JUMP JUMPDEST PUSH1 0x40 MLOAD DUP1 SWAP2 SUB SWAP1 RETURN JUMPDEST PUSH2 0x1D0 PUSH1 0x4 DUP1 CALLDATASIZE SUB DUP2 ADD SWAP1 PUSH2 0x1CB SWAP2 SWAP1 PUSH2 0x3A5E JUMP JUMPDEST PUSH2 0x5DD JUMP JUMPDEST STOP JUMPDEST PUSH2 0x1EC PUSH1 0x4 DUP1 CALLDATASIZE SUB DUP2 ADD SWAP1 PUSH2 0x1E7 SWAP2 SWAP1 PUSH2 0x3A9E JUMP JUMPDEST PUSH2 0x611 JUMP JUMPDEST STOP JUMPDEST PUSH2 0x1F6 PUSH2 0x68E JUMP JUMPDEST PUSH1 0x40 MLOAD PUSH2 0x203 SWAP2 SWAP1 PUSH2 0x3B75 JUMP JUMPDEST PUSH1 0x40 MLOAD DUP1 SWAP2 SUB SWAP1 RETURN JUMPDEST PUSH2 0x226 PUSH1 0x4 DUP1 CALLDATASIZE SUB DUP2 ADD SWAP1 PUSH2 0x221 SWAP2 SWAP1 PUSH2 0x3729 JUMP JUMPDEST PUSH2 0xC2E JUMP JUMPDEST PUSH1 0x40 MLOAD PUSH2 0x233 SWAP2 SWAP1 PUSH2 0x38E2 JUMP JUMPDEST PUSH1 0x40 MLOAD DUP1 SWAP2 SUB SWAP1 RETURN JUMPDEST PUSH2 0x256 PUSH1 0x4 DUP1 CALLDATASIZE SUB DUP2 ADD SWAP1 PUSH2 0x251 SWAP2 SWAP1 PUSH2 0x3904 JUMP JUMPDEST PUSH2 0xD27 JUMP JUMPDEST STOP JUMPDEST PUSH2 0x272 PUSH1 0x4 DUP1 CALLDATASIZE SUB DUP2 ADD SWAP1 PUSH2 0x26D SWAP2 SWAP1 PUSH2 0x3729 JUMP JUMPDEST PUSH2 0x1772 JUMP JUMPDEST STOP JUMPDEST PUSH2 0x28E PUSH1 0x4 DUP1 CALLDATASIZE SUB DUP2 ADD SWAP1 PUSH2 0x289 SWAP2 SWAP1 PUSH2 0x3B97 JUMP JUMPDEST PUSH2 0x1A2B JUMP JUMPDEST PUSH1 0x40 MLOAD PUSH2 0x2A0 SWAP7 SWAP6 SWAP5 SWAP4 SWAP3 SWAP2 SWAP1 PUSH2 0x3C02 JUMP JUMPDEST PUSH1 0x40 MLOAD DUP1 SWAP2 SUB SWAP1 RETURN JUMPDEST PUSH2 0x2C3 PUSH1 0x4 DUP1 CALLDATASIZE SUB DUP2 ADD SWAP1 PUSH2 0x2BE SWAP2 SWAP1 PUSH2 0x3C71 JUMP JUMPDEST PUSH2 0x1BF4 JUMP JUMPDEST STOP JUMPDEST PUSH2 0x2DF PUSH1 0x4 DUP1 CALLDATASIZE SUB DUP2 ADD SWAP1 PUSH2 0x2DA SWAP2 SWAP1 PUSH2 0x3CC4 JUMP JUMPDEST PUSH2 0x1C3E JUMP JUMPDEST STOP JUMPDEST PUSH2 0x2FB PUSH1 0x4 DUP1 CALLDATASIZE SUB DUP2 ADD SWAP1 PUSH2 0x2F6 SWAP2 SWAP1 PUSH2 0x3904 JUMP JUMPDEST PUSH2 0x1D3B JUMP JUMPDEST PUSH1 0x40 MLOAD PUSH2 0x30D SWAP7 SWAP6 SWAP5 SWAP4 SWAP3 SWAP2 SWAP1 PUSH2 0x3DD4 JUMP JUMPDEST PUSH1 0x40 MLOAD DUP1 SWAP2 SUB SWAP1 RETURN JUMPDEST PUSH2 0x330 PUSH1 0x4 DUP1 CALLDATASIZE SUB DUP2 ADD SWAP1 PUSH2 0x32B SWAP2 SWAP1 PUSH2 0x3B97 JUMP JUMPDEST PUSH2 0x1DD6 JUMP JUMPDEST PUSH1 0x40 MLOAD PUSH2 0x33F SWAP4 SWAP3 SWAP2 SWAP1 PUSH2 0x3E35 JUMP JUMPDEST PUSH1 0x40 MLOAD DUP1 SWAP2 SUB SWAP1 RETURN JUMPDEST PUSH2 0x362 PUSH1 0x4 DUP1 CALLDATASIZE SUB DUP2 ADD SWAP1 PUSH2 0x35D SWAP2 SWAP1 PUSH2 0x3B97 JUMP JUMPDEST PUSH2 0x1EDC JUMP JUMPDEST PUSH1 0x40 MLOAD PUSH2 0x378 SWAP11 SWAP10 SWAP9 SWAP8 SWAP7 SWAP6 SWAP5 SWAP4 SWAP3 SWAP2 SWAP1 PUSH2 0x3E73 JUMP JUMPDEST PUSH1 0x40 MLOAD DUP1 SWAP2 SUB SWAP1 RETURN JUMPDEST PUSH2 0x389 PUSH2 0x3445 JUMP JUMPDEST PUSH1 0x0 PUSH20 0x0 PUSH4 0x3C4308A8 DUP7 DUP7 PUSH1 0x40 MLOAD DUP4 PUSH4 0xFFFFFFFF AND PUSH1 0xE0 SHL DUP2 MSTORE PUSH1 0x4 ADD PUSH2 0x3C4 SWAP3 SWAP2 SWAP1 PUSH2 0x3F25 JUMP JUMPDEST PUSH1 0x20 PUSH1 0x40 MLOAD DUP1 DUP4 SUB DUP2 DUP7 GAS DELEGATECALL ISZERO DUP1 ISZERO PUSH2 0x3E1 JUMPI RETURNDATASIZE PUSH1 0x0 DUP1 RETURNDATACOPY RETURNDATASIZE PUSH1 0x0 REVERT JUMPDEST POP POP POP POP PUSH1 0x40 MLOAD RETURNDATASIZE PUSH1 0x1F NOT PUSH1 0x1F DUP3 ADD AND DUP3 ADD DUP1 PUSH1 0x40 MSTORE POP DUP2 ADD SWAP1 PUSH2 0x405 SWAP2 SWAP1 PUSH2 0x3F63 JUMP JUMPDEST SWAP1 POP PUSH1 0x0 PUSH1 0x40 MLOAD DUP1 PUSH1 0xC0 ADD PUSH1 0x40 MSTORE DUP1 DUP9 DUP2 MSTORE PUSH1 0x20 ADD DUP6 DUP2 MSTORE PUSH1 0x20 ADD PUSH1 0x40 MLOAD DUP1 PUSH1 0x40 ADD PUSH1 0x40 MSTORE DUP1 PUSH1 0x4 DUP2 MSTORE PUSH1 0x20 ADD PUSH32 0x53656C6C00000000000000000000000000000000000000000000000000000000 DUP2 MSTORE POP DUP2 MSTORE PUSH1 0x20 ADD DUP8 DUP2 MSTORE PUSH1 0x20 ADD DUP7 DUP2 MSTORE PUSH1 0x20 ADD DUP4 DUP2 MSTORE POP SWAP1 POP DUP1 SWAP3 POP POP POP SWAP5 SWAP4 POP POP POP POP JUMP JUMPDEST PUSH1 0x0 DUP1 PUSH1 0x0 PUSH1 0xA PUSH1 0x0 DUP6 DUP2 MSTORE PUSH1 0x20 ADD SWAP1 DUP2 MSTORE PUSH1 0x20 ADD PUSH1 0x0 KECCAK256 PUSH1 0x40 MLOAD DUP1 PUSH1 0x40 ADD PUSH1 0x40 MSTORE SWAP1 DUP2 PUSH1 0x0 DUP3 ADD SLOAD DUP2 MSTORE PUSH1 0x20 ADD PUSH1 0x1 DUP3 ADD SLOAD DUP2 MSTORE POP POP SWAP1 POP DUP1 PUSH1 0x0 ADD MLOAD DUP2 PUSH1 0x20 ADD MLOAD SWAP3 POP SWAP3 POP POP SWAP2 POP SWAP2 JUMP JUMPDEST PUSH1 0x0 PUSH1 0x40 MLOAD DUP1 PUSH1 0xC0 ADD PUSH1 0x40 MSTORE DUP1 DUP9 DUP2 MSTORE PUSH1 0x20 ADD DUP8 DUP2 MSTORE PUSH1 0x20 ADD DUP7 DUP2 MSTORE PUSH1 0x20 ADD DUP6 DUP2 MSTORE PUSH1 0x20 ADD DUP5 DUP2 MSTORE PUSH1 0x20 ADD DUP4 DUP2 MSTORE POP SWAP1 POP DUP1 PUSH1 0xC PUSH1 0x0 DUP11 DUP2 MSTORE PUSH1 0x20 ADD SWAP1 DUP2 MSTORE PUSH1 0x20 ADD PUSH1 0x0 KECCAK256 PUSH1 0x0 DUP3 ADD MLOAD DUP2 PUSH1 0x0 ADD SSTORE PUSH1 0x20 DUP3 ADD MLOAD DUP2 PUSH1 0x1 ADD SSTORE PUSH1 0x40 DUP3 ADD MLOAD DUP2 PUSH1 0x2 ADD SSTORE PUSH1 0x60 DUP3 ADD MLOAD DUP2 PUSH1 0x3 ADD SSTORE PUSH1 0x80 DUP3 ADD MLOAD DUP2 PUSH1 0x4 ADD SSTORE PUSH1 0xA0 DUP3 ADD MLOAD DUP2 PUSH1 0x5 ADD SSTORE SWAP1 POP POP POP POP POP POP POP POP POP POP JUMP JUMPDEST PUSH1 0x0 DUP1 PUSH1 0x0 DUP1 PUSH1 0x0 DUP1 PUSH1 0xB PUSH1 0x0 DUP9 DUP2 MSTORE PUSH1 0x20 ADD SWAP1 DUP2 MSTORE PUSH1 0x20 ADD PUSH1 0x0 KECCAK256 PUSH1 0x40 MLOAD DUP1 PUSH1 0xA0 ADD PUSH1 0x40 MSTORE SWAP1 DUP2 PUSH1 0x0 DUP3 ADD SLOAD DUP2 MSTORE PUSH1 0x20 ADD PUSH1 0x1 DUP3 ADD SLOAD DUP2 MSTORE PUSH1 0x20 ADD PUSH1 0x2 DUP3 ADD SLOAD DUP2 MSTORE PUSH1 0x20 ADD PUSH1 0x3 DUP3 ADD SLOAD DUP2 MSTORE PUSH1 0x20 ADD PUSH1 0x4 DUP3 ADD SLOAD DUP2 MSTORE POP POP SWAP1 POP DUP1 PUSH1 0x0 ADD MLOAD DUP2 PUSH1 0x20 ADD MLOAD DUP3 PUSH1 0x40 ADD MLOAD DUP4 PUSH1 0x60 ADD MLOAD DUP5 PUSH1 0x80 ADD MLOAD SWAP6 POP SWAP6 POP SWAP6 POP SWAP6 POP SWAP6 POP POP SWAP2 SWAP4 SWAP6 SWAP1 SWAP3 SWAP5 POP JUMP JUMPDEST DUP2 PUSH1 0xF DUP2 SWAP1 SSTORE POP PUSH1 0x2 DUP2 SWAP1 DUP1 PUSH1 0x1 DUP2 SLOAD ADD DUP1 DUP3 SSTORE DUP1 SWAP2 POP POP PUSH1 0x1 SWAP1 SUB SWAP1 PUSH1 0x0 MSTORE PUSH1 0x20 PUSH1 0x0 KECCAK256 ADD PUSH1 0x0 SWAP1 SWAP2 SWAP1 SWAP2 SWAP1 SWAP2 POP SSTORE POP POP JUMP JUMPDEST PUSH1 0x0 PUSH1 0x40 MLOAD DUP1 PUSH1 0xA0 ADD PUSH1 0x40 MSTORE DUP1 DUP8 DUP2 MSTORE PUSH1 0x20 ADD DUP7 DUP2 MSTORE PUSH1 0x20 ADD DUP6 DUP2 MSTORE PUSH1 0x20 ADD DUP5 DUP2 MSTORE PUSH1 0x20 ADD DUP4 DUP2 MSTORE POP SWAP1 POP DUP1 PUSH1 0xB PUSH1 0x0 DUP10 DUP2 MSTORE PUSH1 0x20 ADD SWAP1 DUP2 MSTORE PUSH1 0x20 ADD PUSH1 0x0 KECCAK256 PUSH1 0x0 DUP3 ADD MLOAD DUP2 PUSH1 0x0 ADD SSTORE PUSH1 0x20 DUP3 ADD MLOAD DUP2 PUSH1 0x1 ADD SSTORE PUSH1 0x40 DUP3 ADD MLOAD DUP2 PUSH1 0x2 ADD SSTORE PUSH1 0x60 DUP3 ADD MLOAD DUP2 PUSH1 0x3 ADD SSTORE PUSH1 0x80 DUP3 ADD MLOAD DUP2 PUSH1 0x4 ADD SSTORE SWAP1 POP POP POP POP POP POP POP POP POP JUMP JUMPDEST PUSH1 0x60 PUSH1 0x0 PUSH1 0x40 MLOAD DUP1 PUSH1 0x20 ADD PUSH1 0x40 MSTORE DUP1 PUSH1 0x0 DUP2 MSTORE POP SWAP1 POP PUSH1 0x0 PUSH1 0x2 DUP1 SLOAD SWAP1 POP SUB PUSH2 0x6D1 JUMPI PUSH1 0x40 MLOAD DUP1 PUSH1 0x60 ADD PUSH1 0x40 MSTORE DUP1 PUSH1 0x2B DUP2 MSTORE PUSH1 0x20 ADD PUSH2 0x48CE PUSH1 0x2B SWAP2 CODECOPY SWAP1 POP PUSH2 0xC27 JUMP JUMPDEST PUSH1 0x0 JUMPDEST PUSH1 0x1 DUP1 SLOAD SWAP1 POP DUP2 LT ISZERO PUSH2 0x886 JUMPI PUSH1 0x3 PUSH1 0x1 DUP3 DUP2 SLOAD DUP2 LT PUSH2 0x6F7 JUMPI PUSH2 0x6F6 PUSH2 0x3F90 JUMP JUMPDEST JUMPDEST SWAP1 PUSH1 0x0 MSTORE PUSH1 0x20 PUSH1 0x0 KECCAK256 ADD PUSH1 0x40 MLOAD PUSH2 0x70E SWAP2 SWAP1 PUSH2 0x40C2 JUMP JUMPDEST SWAP1 DUP2 MSTORE PUSH1 0x20 ADD PUSH1 0x40 MLOAD DUP1 SWAP2 SUB SWAP1 KECCAK256 PUSH1 0x0 PUSH2 0x100 EXP DUP2 SLOAD SWAP1 PUSH1 0xFF MUL NOT AND SWAP1 SSTORE PUSH1 0x4 PUSH1 0x1 DUP3 DUP2 SLOAD DUP2 LT PUSH2 0x742 JUMPI PUSH2 0x741 PUSH2 0x3F90 JUMP JUMPDEST JUMPDEST SWAP1 PUSH1 0x0 MSTORE PUSH1 0x20 PUSH1 0x0 KECCAK256 ADD PUSH1 0x40 MLOAD PUSH2 0x759 SWAP2 SWAP1 PUSH2 0x40C2 JUMP JUMPDEST SWAP1 DUP2 MSTORE PUSH1 0x20 ADD PUSH1 0x40 MLOAD DUP1 SWAP2 SUB SWAP1 KECCAK256 PUSH1 0x0 PUSH2 0x100 EXP DUP2 SLOAD SWAP1 PUSH1 0xFF MUL NOT AND SWAP1 SSTORE PUSH1 0x5 PUSH1 0x1 DUP3 DUP2 SLOAD DUP2 LT PUSH2 0x78D JUMPI PUSH2 0x78C PUSH2 0x3F90 JUMP JUMPDEST JUMPDEST SWAP1 PUSH1 0x0 MSTORE PUSH1 0x20 PUSH1 0x0 KECCAK256 ADD PUSH1 0x40 MLOAD PUSH2 0x7A4 SWAP2 SWAP1 PUSH2 0x40C2 JUMP JUMPDEST SWAP1 DUP2 MSTORE PUSH1 0x20 ADD PUSH1 0x40 MLOAD DUP1 SWAP2 SUB SWAP1 KECCAK256 PUSH1 0x0 SWAP1 SSTORE PUSH1 0x6 PUSH1 0x1 DUP3 DUP2 SLOAD DUP2 LT PUSH2 0x7CC JUMPI PUSH2 0x7CB PUSH2 0x3F90 JUMP JUMPDEST JUMPDEST SWAP1 PUSH1 0x0 MSTORE PUSH1 0x20 PUSH1 0x0 KECCAK256 ADD PUSH1 0x40 MLOAD PUSH2 0x7E3 SWAP2 SWAP1 PUSH2 0x40C2 JUMP JUMPDEST SWAP1 DUP2 MSTORE PUSH1 0x20 ADD PUSH1 0x40 MLOAD DUP1 SWAP2 SUB SWAP1 KECCAK256 PUSH1 0x0 SWAP1 SSTORE PUSH1 0x7 PUSH1 0x1 DUP3 DUP2 SLOAD DUP2 LT PUSH2 0x80B JUMPI PUSH2 0x80A PUSH2 0x3F90 JUMP JUMPDEST JUMPDEST SWAP1 PUSH1 0x0 MSTORE PUSH1 0x20 PUSH1 0x0 KECCAK256 ADD PUSH1 0x40 MLOAD PUSH2 0x822 SWAP2 SWAP1 PUSH2 0x40C2 JUMP JUMPDEST SWAP1 DUP2 MSTORE PUSH1 0x20 ADD PUSH1 0x40 MLOAD DUP1 SWAP2 SUB SWAP1 KECCAK256 PUSH1 0x0 SWAP1 SSTORE PUSH1 0x8 PUSH1 0x1 DUP3 DUP2 SLOAD DUP2 LT PUSH2 0x84A JUMPI PUSH2 0x849 PUSH2 0x3F90 JUMP JUMPDEST JUMPDEST SWAP1 PUSH1 0x0 MSTORE PUSH1 0x20 PUSH1 0x0 KECCAK256 ADD PUSH1 0x40 MLOAD PUSH2 0x861 SWAP2 SWAP1 PUSH2 0x40C2 JUMP JUMPDEST SWAP1 DUP2 MSTORE PUSH1 0x20 ADD PUSH1 0x40 MLOAD DUP1 SWAP2 SUB SWAP1 KECCAK256 PUSH1 0x0 SWAP1 SSTORE DUP1 DUP1 PUSH2 0x87E SWAP1 PUSH2 0x4108 JUMP JUMPDEST SWAP2 POP POP PUSH2 0x6D4 JUMP JUMPDEST POP PUSH1 0x0 JUMPDEST PUSH1 0x2 DUP1 SLOAD SWAP1 POP DUP2 LT ISZERO PUSH2 0xBF5 JUMPI PUSH1 0x0 JUMPDEST PUSH1 0x1 DUP1 SLOAD SWAP1 POP DUP2 LT ISZERO PUSH2 0xAB9 JUMPI PUSH1 0x9 PUSH1 0x0 PUSH1 0x2 DUP5 DUP2 SLOAD DUP2 LT PUSH2 0x8BF JUMPI PUSH2 0x8BE PUSH2 0x3F90 JUMP JUMPDEST JUMPDEST SWAP1 PUSH1 0x0 MSTORE PUSH1 0x20 PUSH1 0x0 KECCAK256 ADD SLOAD DUP2 MSTORE PUSH1 0x20 ADD SWAP1 DUP2 MSTORE PUSH1 0x20 ADD PUSH1 0x0 KECCAK256 PUSH1 0x1 DUP3 DUP2 SLOAD DUP2 LT PUSH2 0x8EC JUMPI PUSH2 0x8EB PUSH2 0x3F90 JUMP JUMPDEST JUMPDEST SWAP1 PUSH1 0x0 MSTORE PUSH1 0x20 PUSH1 0x0 KECCAK256 ADD PUSH1 0x40 MLOAD PUSH2 0x903 SWAP2 SWAP1 PUSH2 0x40C2 JUMP JUMPDEST SWAP1 DUP2 MSTORE PUSH1 0x20 ADD PUSH1 0x40 MLOAD DUP1 SWAP2 SUB SWAP1 KECCAK256 PUSH1 0x0 DUP1 DUP3 ADD PUSH1 0x0 PUSH2 0x922 SWAP2 SWAP1 PUSH2 0x347B JUMP JUMPDEST PUSH1 0x1 DUP3 ADD PUSH1 0x0 SWAP1 SSTORE PUSH1 0x2 DUP3 ADD PUSH1 0x0 SWAP1 SSTORE POP POP PUSH1 0xE PUSH1 0x0 PUSH1 0x2 DUP5 DUP2 SLOAD DUP2 LT PUSH2 0x94C JUMPI PUSH2 0x94B PUSH2 0x3F90 JUMP JUMPDEST JUMPDEST SWAP1 PUSH1 0x0 MSTORE PUSH1 0x20 PUSH1 0x0 KECCAK256 ADD SLOAD DUP2 MSTORE PUSH1 0x20 ADD SWAP1 DUP2 MSTORE PUSH1 0x20 ADD PUSH1 0x0 KECCAK256 PUSH1 0x1 DUP3 DUP2 SLOAD DUP2 LT PUSH2 0x979 JUMPI PUSH2 0x978 PUSH2 0x3F90 JUMP JUMPDEST JUMPDEST SWAP1 PUSH1 0x0 MSTORE PUSH1 0x20 PUSH1 0x0 KECCAK256 ADD PUSH1 0x40 MLOAD PUSH2 0x990 SWAP2 SWAP1 PUSH2 0x40C2 JUMP JUMPDEST SWAP1 DUP2 MSTORE PUSH1 0x20 ADD PUSH1 0x40 MLOAD DUP1 SWAP2 SUB SWAP1 KECCAK256 PUSH1 0x0 DUP1 DUP3 ADD PUSH1 0x0 PUSH2 0x9AF SWAP2 SWAP1 PUSH2 0x347B JUMP JUMPDEST PUSH1 0x1 DUP3 ADD PUSH1 0x0 SWAP1 SSTORE PUSH1 0x2 DUP3 ADD PUSH1 0x0 SWAP1 SSTORE PUSH1 0x3 DUP3 ADD PUSH1 0x0 SWAP1 SSTORE PUSH1 0x4 DUP3 ADD PUSH1 0x0 SWAP1 SSTORE PUSH1 0x5 DUP3 ADD PUSH1 0x0 SWAP1 SSTORE PUSH1 0x6 DUP3 ADD PUSH1 0x0 SWAP1 SSTORE PUSH1 0x7 DUP3 ADD PUSH1 0x0 SWAP1 SSTORE PUSH1 0x8 DUP3 ADD PUSH1 0x0 SWAP1 SSTORE PUSH1 0x9 DUP3 ADD PUSH1 0x0 SWAP1 SSTORE POP POP PUSH1 0xD PUSH1 0x0 PUSH1 0x2 DUP5 DUP2 SLOAD DUP2 LT PUSH2 0xA11 JUMPI PUSH2 0xA10 PUSH2 0x3F90 JUMP JUMPDEST JUMPDEST SWAP1 PUSH1 0x0 MSTORE PUSH1 0x20 PUSH1 0x0 KECCAK256 ADD SLOAD DUP2 MSTORE PUSH1 0x20 ADD SWAP1 DUP2 MSTORE PUSH1 0x20 ADD PUSH1 0x0 KECCAK256 PUSH1 0x1 DUP3 DUP2 SLOAD DUP2 LT PUSH2 0xA3E JUMPI PUSH2 0xA3D PUSH2 0x3F90 JUMP JUMPDEST JUMPDEST SWAP1 PUSH1 0x0 MSTORE PUSH1 0x20 PUSH1 0x0 KECCAK256 ADD PUSH1 0x40 MLOAD PUSH2 0xA55 SWAP2 SWAP1 PUSH2 0x40C2 JUMP JUMPDEST SWAP1 DUP2 MSTORE PUSH1 0x20 ADD PUSH1 0x40 MLOAD DUP1 SWAP2 SUB SWAP1 KECCAK256 PUSH1 0x0 DUP1 DUP3 ADD PUSH1 0x0 PUSH2 0xA74 SWAP2 SWAP1 PUSH2 0x347B JUMP JUMPDEST PUSH1 0x1 DUP3 ADD PUSH1 0x0 SWAP1 SSTORE PUSH1 0x2 DUP3 ADD PUSH1 0x0 PUSH2 0xA8C SWAP2 SWAP1 PUSH2 0x347B JUMP JUMPDEST PUSH1 0x3 DUP3 ADD PUSH1 0x0 SWAP1 SSTORE PUSH1 0x4 DUP3 ADD PUSH1 0x0 SWAP1 SSTORE PUSH1 0x5 DUP3 ADD PUSH1 0x0 SWAP1 SSTORE POP POP DUP1 DUP1 PUSH2 0xAB1 SWAP1 PUSH2 0x4108 JUMP JUMPDEST SWAP2 POP POP PUSH2 0x89A JUMP JUMPDEST POP PUSH1 0xA PUSH1 0x0 PUSH1 0x2 DUP4 DUP2 SLOAD DUP2 LT PUSH2 0xAD2 JUMPI PUSH2 0xAD1 PUSH2 0x3F90 JUMP JUMPDEST JUMPDEST SWAP1 PUSH1 0x0 MSTORE PUSH1 0x20 PUSH1 0x0 KECCAK256 ADD SLOAD DUP2 MSTORE PUSH1 0x20 ADD SWAP1 DUP2 MSTORE PUSH1 0x20 ADD PUSH1 0x0 KECCAK256 PUSH1 0x0 DUP1 DUP3 ADD PUSH1 0x0 SWAP1 SSTORE PUSH1 0x1 DUP3 ADD PUSH1 0x0 SWAP1 SSTORE POP POP PUSH1 0xB PUSH1 0x0 PUSH1 0x2 DUP4 DUP2 SLOAD DUP2 LT PUSH2 0xB16 JUMPI PUSH2 0xB15 PUSH2 0x3F90 JUMP JUMPDEST JUMPDEST SWAP1 PUSH1 0x0 MSTORE PUSH1 0x20 PUSH1 0x0 KECCAK256 ADD SLOAD DUP2 MSTORE PUSH1 0x20 ADD SWAP1 DUP2 MSTORE PUSH1 0x20 ADD PUSH1 0x0 KECCAK256 PUSH1 0x0 DUP1 DUP3 ADD PUSH1 0x0 SWAP1 SSTORE PUSH1 0x1 DUP3 ADD PUSH1 0x0 SWAP1 SSTORE PUSH1 0x2 DUP3 ADD PUSH1 0x0 SWAP1 SSTORE PUSH1 0x3 DUP3 ADD PUSH1 0x0 SWAP1 SSTORE PUSH1 0x4 DUP3 ADD PUSH1 0x0 SWAP1 SSTORE POP POP PUSH1 0xC PUSH1 0x0 PUSH1 0x2 DUP4 DUP2 SLOAD DUP2 LT PUSH2 0xB72 JUMPI PUSH2 0xB71 PUSH2 0x3F90 JUMP JUMPDEST JUMPDEST SWAP1 PUSH1 0x0 MSTORE PUSH1 0x20 PUSH1 0x0 KECCAK256 ADD SLOAD DUP2 MSTORE PUSH1 0x20 ADD SWAP1 DUP2 MSTORE PUSH1 0x20 ADD PUSH1 0x0 KECCAK256 PUSH1 0x0 DUP1 DUP3 ADD PUSH1 0x0 SWAP1 SSTORE PUSH1 0x1 DUP3 ADD PUSH1 0x0 SWAP1 SSTORE PUSH1 0x2 DUP3 ADD PUSH1 0x0 SWAP1 SSTORE PUSH1 0x3 DUP3 ADD PUSH1 0x0 SWAP1 SSTORE PUSH1 0x4 DUP3 ADD PUSH1 0x0 SWAP1 SSTORE PUSH1 0x5 DUP3 ADD PUSH1 0x0 SWAP1 SSTORE POP POP PUSH1 0x0 PUSH1 0x2 DUP3 DUP2 SLOAD DUP2 LT PUSH2 0xBD4 JUMPI PUSH2 0xBD3 PUSH2 0x3F90 JUMP JUMPDEST JUMPDEST SWAP1 PUSH1 0x0 MSTORE PUSH1 0x20 PUSH1 0x0 KECCAK256 ADD DUP2 SWAP1 SSTORE POP DUP1 DUP1 PUSH2 0xBED SWAP1 PUSH2 0x4108 JUMP JUMPDEST SWAP2 POP POP PUSH2 0x88A JUMP JUMPDEST POP PUSH1 0x0 DUP1 DUP2 SWAP1 SSTORE POP PUSH1 0x1 PUSH1 0x0 PUSH2 0xC0B SWAP2 SWAP1 PUSH2 0x34BB JUMP JUMPDEST PUSH1 0x40 MLOAD DUP1 PUSH1 0x60 ADD PUSH1 0x40 MSTORE DUP1 PUSH1 0x25 DUP2 MSTORE PUSH1 0x20 ADD PUSH2 0x48F9 PUSH1 0x25 SWAP2 CODECOPY SWAP1 POP JUMPDEST DUP1 SWAP2 POP POP SWAP1 JUMP JUMPDEST PUSH2 0xC36 PUSH2 0x3445 JUMP JUMPDEST PUSH1 0x0 PUSH20 0x0 PUSH4 0x3C4308A8 DUP7 DUP7 PUSH1 0x40 MLOAD DUP4 PUSH4 0xFFFFFFFF AND PUSH1 0xE0 SHL DUP2 MSTORE PUSH1 0x4 ADD PUSH2 0xC71 SWAP3 SWAP2 SWAP1 PUSH2 0x3F25 JUMP JUMPDEST PUSH1 0x20 PUSH1 0x40 MLOAD DUP1 DUP4 SUB DUP2 DUP7 GAS DELEGATECALL ISZERO DUP1 ISZERO PUSH2 0xC8E JUMPI RETURNDATASIZE PUSH1 0x0 DUP1 RETURNDATACOPY RETURNDATASIZE PUSH1 0x0 REVERT JUMPDEST POP POP POP POP PUSH1 0x40 MLOAD RETURNDATASIZE PUSH1 0x1F NOT PUSH1 0x1F DUP3 ADD AND DUP3 ADD DUP1 PUSH1 0x40 MSTORE POP DUP2 ADD SWAP1 PUSH2 0xCB2 SWAP2 SWAP1 PUSH2 0x3F63 JUMP JUMPDEST SWAP1 POP PUSH1 0x0 PUSH1 0x40 MLOAD DUP1 PUSH1 0xC0 ADD PUSH1 0x40 MSTORE DUP1 DUP9 DUP2 MSTORE PUSH1 0x20 ADD DUP6 DUP2 MSTORE PUSH1 0x20 ADD PUSH1 0x40 MLOAD DUP1 PUSH1 0x40 ADD PUSH1 0x40 MSTORE DUP1 PUSH1 0x3 DUP2 MSTORE PUSH1 0x20 ADD PUSH32 0x4275790000000000000000000000000000000000000000000000000000000000 DUP2 MSTORE POP DUP2 MSTORE PUSH1 0x20 ADD DUP8 DUP2 MSTORE PUSH1 0x20 ADD DUP7 DUP2 MSTORE PUSH1 0x20 ADD DUP4 DUP2 MSTORE POP SWAP1 POP DUP1 SWAP3 POP POP POP SWAP5 SWAP4 POP POP POP POP JUMP JUMPDEST PUSH2 0xD30 DUP2 PUSH2 0x206E JUMP JUMPDEST PUSH2 0xD6F JUMPI PUSH1 0x40 MLOAD PUSH32 0x8C379A000000000000000000000000000000000000000000000000000000000 DUP2 MSTORE PUSH1 0x4 ADD PUSH2 0xD66 SWAP1 PUSH2 0x41C2 JUMP JUMPDEST PUSH1 0x40 MLOAD DUP1 SWAP2 SUB SWAP1 REVERT JUMPDEST PUSH1 0x2 DUP2 SWAP1 DUP1 PUSH1 0x1 DUP2 SLOAD ADD DUP1 DUP3 SSTORE DUP1 SWAP2 POP POP PUSH1 0x1 SWAP1 SUB SWAP1 PUSH1 0x0 MSTORE PUSH1 0x20 PUSH1 0x0 KECCAK256 ADD PUSH1 0x0 SWAP1 SWAP2 SWAP1 SWAP2 SWAP1 SWAP2 POP SSTORE PUSH1 0xF PUSH1 0x0 DUP2 SLOAD DUP1 SWAP3 SWAP2 SWAP1 PUSH2 0xDAB SWAP1 PUSH2 0x4108 JUMP JUMPDEST SWAP2 SWAP1 POP SSTORE POP PUSH1 0x0 PUSH1 0xF SLOAD SUB PUSH2 0x1131 JUMPI PUSH1 0x0 PUSH20 0x0 PUSH4 0xF5984236 PUSH1 0xC PUSH1 0x0 DUP6 DUP2 MSTORE PUSH1 0x20 ADD SWAP1 DUP2 MSTORE PUSH1 0x20 ADD PUSH1 0x0 KECCAK256 PUSH1 0x0 ADD SLOAD PUSH20 0x0 PUSH4 0x2179BB6C PUSH1 0x40 MLOAD DUP2 PUSH4 0xFFFFFFFF AND PUSH1 0xE0 SHL DUP2 MSTORE PUSH1 0x4 ADD PUSH1 0x20 PUSH1 0x40 MLOAD DUP1 DUP4 SUB DUP2 DUP7 GAS DELEGATECALL ISZERO DUP1 ISZERO PUSH2 0xE36 JUMPI RETURNDATASIZE PUSH1 0x0 DUP1 RETURNDATACOPY RETURNDATASIZE PUSH1 0x0 REVERT JUMPDEST POP POP POP POP PUSH1 0x40 MLOAD RETURNDATASIZE PUSH1 0x1F NOT PUSH1 0x1F DUP3 ADD AND DUP3 ADD DUP1 PUSH1 0x40 MSTORE POP DUP2 ADD SWAP1 PUSH2 0xE5A SWAP2 SWAP1 PUSH2 0x3F63 JUMP JUMPDEST PUSH1 0x1 DUP1 SLOAD SWAP1 POP PUSH2 0xE6A SWAP2 SWAP1 PUSH2 0x41E2 JUMP JUMPDEST PUSH1 0x40 MLOAD DUP4 PUSH4 0xFFFFFFFF AND PUSH1 0xE0 SHL DUP2 MSTORE PUSH1 0x4 ADD PUSH2 0xE87 SWAP3 SWAP2 SWAP1 PUSH2 0x3F25 JUMP JUMPDEST PUSH1 0x20 PUSH1 0x40 MLOAD DUP1 DUP4 SUB DUP2 DUP7 GAS DELEGATECALL ISZERO DUP1 ISZERO PUSH2 0xEA4 JUMPI RETURNDATASIZE PUSH1 0x0 DUP1 RETURNDATACOPY RETURNDATASIZE PUSH1 0x0 REVERT JUMPDEST POP POP POP POP PUSH1 0x40 MLOAD RETURNDATASIZE PUSH1 0x1F NOT PUSH1 0x1F DUP3 ADD AND DUP3 ADD DUP1 PUSH1 0x40 MSTORE POP DUP2 ADD SWAP1 PUSH2 0xEC8 SWAP2 SWAP1 PUSH2 0x3F63 JUMP JUMPDEST SWAP1 POP PUSH1 0x0 JUMPDEST PUSH1 0x1 DUP1 SLOAD SWAP1 POP DUP2 LT ISZERO PUSH2 0x112A JUMPI PUSH1 0x0 PUSH1 0x9 PUSH1 0x0 DUP6 DUP2 MSTORE PUSH1 0x20 ADD SWAP1 DUP2 MSTORE PUSH1 0x20 ADD PUSH1 0x0 KECCAK256 PUSH1 0x1 DUP4 DUP2 SLOAD DUP2 LT PUSH2 0xF03 JUMPI PUSH2 0xF02 PUSH2 0x3F90 JUMP JUMPDEST JUMPDEST SWAP1 PUSH1 0x0 MSTORE PUSH1 0x20 PUSH1 0x0 KECCAK256 ADD PUSH1 0x40 MLOAD PUSH2 0xF1A SWAP2 SWAP1 PUSH2 0x40C2 JUMP JUMPDEST SWAP1 DUP2 MSTORE PUSH1 0x20 ADD PUSH1 0x40 MLOAD DUP1 SWAP2 SUB SWAP1 KECCAK256 PUSH1 0x40 MLOAD DUP1 PUSH1 0x60 ADD PUSH1 0x40 MSTORE SWAP1 DUP2 PUSH1 0x0 DUP3 ADD DUP1 SLOAD PUSH2 0xF43 SWAP1 PUSH2 0x3FEE JUMP JUMPDEST DUP1 PUSH1 0x1F ADD PUSH1 0x20 DUP1 SWAP2 DIV MUL PUSH1 0x20 ADD PUSH1 0x40 MLOAD SWAP1 DUP2 ADD PUSH1 0x40 MSTORE DUP1 SWAP3 SWAP2 SWAP1 DUP2 DUP2 MSTORE PUSH1 0x20 ADD DUP3 DUP1 SLOAD PUSH2 0xF6F SWAP1 PUSH2 0x3FEE JUMP JUMPDEST DUP1 ISZERO PUSH2 0xFBC JUMPI DUP1 PUSH1 0x1F LT PUSH2 0xF91 JUMPI PUSH2 0x100 DUP1 DUP4 SLOAD DIV MUL DUP4 MSTORE SWAP2 PUSH1 0x20 ADD SWAP2 PUSH2 0xFBC JUMP JUMPDEST DUP3 ADD SWAP2 SWAP1 PUSH1 0x0 MSTORE PUSH1 0x20 PUSH1 0x0 KECCAK256 SWAP1 JUMPDEST DUP2 SLOAD DUP2 MSTORE SWAP1 PUSH1 0x1 ADD SWAP1 PUSH1 0x20 ADD DUP1 DUP4 GT PUSH2 0xF9F JUMPI DUP3 SWAP1 SUB PUSH1 0x1F AND DUP3 ADD SWAP2 JUMPDEST POP POP POP POP POP DUP2 MSTORE PUSH1 0x20 ADD PUSH1 0x1 DUP3 ADD SLOAD DUP2 MSTORE PUSH1 0x20 ADD PUSH1 0x2 DUP3 ADD SLOAD DUP2 MSTORE POP POP SWAP1 POP PUSH1 0x0 DUP2 PUSH1 0x0 ADD MLOAD SWAP1 POP PUSH1 0x0 DUP3 PUSH1 0x40 ADD MLOAD SWAP1 POP PUSH1 0x0 PUSH1 0x3 PUSH20 0x0 PUSH4 0xF5984236 DUP9 DUP8 PUSH1 0x40 ADD MLOAD PUSH1 0x40 MLOAD DUP4 PUSH4 0xFFFFFFFF AND PUSH1 0xE0 SHL DUP2 MSTORE PUSH1 0x4 ADD PUSH2 0x102E SWAP3 SWAP2 SWAP1 PUSH2 0x3F25 JUMP JUMPDEST PUSH1 0x20 PUSH1 0x40 MLOAD DUP1 DUP4 SUB DUP2 DUP7 GAS DELEGATECALL ISZERO DUP1 ISZERO PUSH2 0x104B JUMPI RETURNDATASIZE PUSH1 0x0 DUP1 RETURNDATACOPY RETURNDATASIZE PUSH1 0x0 REVERT JUMPDEST POP POP POP POP PUSH1 0x40 MLOAD RETURNDATASIZE PUSH1 0x1F NOT PUSH1 0x1F DUP3 ADD AND DUP3 ADD DUP1 PUSH1 0x40 MSTORE POP DUP2 ADD SWAP1 PUSH2 0x106F SWAP2 SWAP1 PUSH2 0x3F63 JUMP JUMPDEST PUSH2 0x1079 SWAP2 SWAP1 PUSH2 0x41E2 JUMP JUMPDEST SWAP1 POP PUSH1 0x0 PUSH2 0x1089 DUP5 DUP4 DUP6 DUP12 PUSH2 0xC2E JUMP JUMPDEST SWAP1 POP DUP1 PUSH1 0xD PUSH1 0x0 DUP11 DUP2 MSTORE PUSH1 0x20 ADD SWAP1 DUP2 MSTORE PUSH1 0x20 ADD PUSH1 0x0 KECCAK256 DUP6 PUSH1 0x40 MLOAD PUSH2 0x10AD SWAP2 SWAP1 PUSH2 0x432A JUMP JUMPDEST SWAP1 DUP2 MSTORE PUSH1 0x20 ADD PUSH1 0x40 MLOAD DUP1 SWAP2 SUB SWAP1 KECCAK256 PUSH1 0x0 DUP3 ADD MLOAD DUP2 PUSH1 0x0 ADD SWAP1 DUP2 PUSH2 0x10D0 SWAP2 SWAP1 PUSH2 0x44D8 JUMP JUMPDEST POP PUSH1 0x20 DUP3 ADD MLOAD DUP2 PUSH1 0x1 ADD SSTORE PUSH1 0x40 DUP3 ADD MLOAD DUP2 PUSH1 0x2 ADD SWAP1 DUP2 PUSH2 0x10F0 SWAP2 SWAP1 PUSH2 0x44D8 JUMP JUMPDEST POP PUSH1 0x60 DUP3 ADD MLOAD DUP2 PUSH1 0x3 ADD SSTORE PUSH1 0x80 DUP3 ADD MLOAD DUP2 PUSH1 0x4 ADD SSTORE PUSH1 0xA0 DUP3 ADD MLOAD DUP2 PUSH1 0x5 ADD SSTORE SWAP1 POP POP POP POP POP POP POP DUP1 DUP1 PUSH2 0x1122 SWAP1 PUSH2 0x4108 JUMP JUMPDEST SWAP2 POP POP PUSH2 0xECD JUMP JUMPDEST POP POP PUSH2 0x1753 JUMP JUMPDEST PUSH1 0x0 PUSH20 0x0 PUSH4 0x3C4308A8 PUSH1 0x10 SLOAD PUSH1 0xC PUSH1 0x0 DUP7 DUP2 MSTORE PUSH1 0x20 ADD SWAP1 DUP2 MSTORE PUSH1 0x20 ADD PUSH1 0x0 KECCAK256 PUSH1 0x5 ADD SLOAD PUSH1 0x40 MLOAD DUP4 PUSH4 0xFFFFFFFF AND PUSH1 0xE0 SHL DUP2 MSTORE PUSH1 0x4 ADD PUSH2 0x1184 SWAP3 SWAP2 SWAP1 PUSH2 0x3F25 JUMP JUMPDEST PUSH1 0x20 PUSH1 0x40 MLOAD DUP1 DUP4 SUB DUP2 DUP7 GAS DELEGATECALL ISZERO DUP1 ISZERO PUSH2 0x11A1 JUMPI RETURNDATASIZE PUSH1 0x0 DUP1 RETURNDATACOPY RETURNDATASIZE PUSH1 0x0 REVERT JUMPDEST POP POP POP POP PUSH1 0x40 MLOAD RETURNDATASIZE PUSH1 0x1F NOT PUSH1 0x1F DUP3 ADD AND DUP3 ADD DUP1 PUSH1 0x40 MSTORE POP DUP2 ADD SWAP1 PUSH2 0x11C5 SWAP2 SWAP1 PUSH2 0x3F63 JUMP JUMPDEST SWAP1 POP PUSH1 0x0 JUMPDEST PUSH1 0x1 DUP1 SLOAD SWAP1 POP DUP2 LT ISZERO PUSH2 0x15E0 JUMPI PUSH1 0x0 PUSH1 0x9 PUSH1 0x0 DUP6 DUP2 MSTORE PUSH1 0x20 ADD SWAP1 DUP2 MSTORE PUSH1 0x20 ADD PUSH1 0x0 KECCAK256 PUSH1 0x1 DUP4 DUP2 SLOAD DUP2 LT PUSH2 0x1200 JUMPI PUSH2 0x11FF PUSH2 0x3F90 JUMP JUMPDEST JUMPDEST SWAP1 PUSH1 0x0 MSTORE PUSH1 0x20 PUSH1 0x0 KECCAK256 ADD PUSH1 0x40 MLOAD PUSH2 0x1217 SWAP2 SWAP1 PUSH2 0x40C2 JUMP JUMPDEST SWAP1 DUP2 MSTORE PUSH1 0x20 ADD PUSH1 0x40 MLOAD DUP1 SWAP2 SUB SWAP1 KECCAK256 PUSH1 0x2 ADD SLOAD SWAP1 POP PUSH1 0x0 PUSH1 0x1 DUP4 DUP2 SLOAD DUP2 LT PUSH2 0x1241 JUMPI PUSH2 0x1240 PUSH2 0x3F90 JUMP JUMPDEST JUMPDEST SWAP1 PUSH1 0x0 MSTORE PUSH1 0x20 PUSH1 0x0 KECCAK256 ADD DUP1 SLOAD PUSH2 0x1256 SWAP1 PUSH2 0x3FEE JUMP JUMPDEST DUP1 PUSH1 0x1F ADD PUSH1 0x20 DUP1 SWAP2 DIV MUL PUSH1 0x20 ADD PUSH1 0x40 MLOAD SWAP1 DUP2 ADD PUSH1 0x40 MSTORE DUP1 SWAP3 SWAP2 SWAP1 DUP2 DUP2 MSTORE PUSH1 0x20 ADD DUP3 DUP1 SLOAD PUSH2 0x1282 SWAP1 PUSH2 0x3FEE JUMP JUMPDEST DUP1 ISZERO PUSH2 0x12CF JUMPI DUP1 PUSH1 0x1F LT PUSH2 0x12A4 JUMPI PUSH2 0x100 DUP1 DUP4 SLOAD DIV MUL DUP4 MSTORE SWAP2 PUSH1 0x20 ADD SWAP2 PUSH2 0x12CF JUMP JUMPDEST DUP3 ADD SWAP2 SWAP1 PUSH1 0x0 MSTORE PUSH1 0x20 PUSH1 0x0 KECCAK256 SWAP1 JUMPDEST DUP2 SLOAD DUP2 MSTORE SWAP1 PUSH1 0x1 ADD SWAP1 PUSH1 0x20 ADD DUP1 DUP4 GT PUSH2 0x12B2 JUMPI DUP3 SWAP1 SUB PUSH1 0x1F AND DUP3 ADD SWAP2 JUMPDEST POP POP POP POP POP SWAP1 POP PUSH1 0x4 PUSH1 0x1 DUP5 DUP2 SLOAD DUP2 LT PUSH2 0x12EC JUMPI PUSH2 0x12EB PUSH2 0x3F90 JUMP JUMPDEST JUMPDEST SWAP1 PUSH1 0x0 MSTORE PUSH1 0x20 PUSH1 0x0 KECCAK256 ADD PUSH1 0x40 MLOAD PUSH2 0x1303 SWAP2 SWAP1 PUSH2 0x40C2 JUMP JUMPDEST SWAP1 DUP2 MSTORE PUSH1 0x20 ADD PUSH1 0x40 MLOAD DUP1 SWAP2 SUB SWAP1 KECCAK256 PUSH1 0x0 SWAP1 SLOAD SWAP1 PUSH2 0x100 EXP SWAP1 DIV PUSH1 0xFF AND ISZERO PUSH2 0x13D0 JUMPI PUSH2 0x132E DUP2 DUP4 PUSH2 0x20D2 JUMP JUMPDEST ISZERO PUSH2 0x13CB JUMPI PUSH1 0x0 PUSH2 0x1340 DUP3 DUP5 DUP9 PUSH2 0x211A JUMP JUMPDEST SWAP1 POP DUP1 PUSH1 0xD PUSH1 0x0 DUP9 DUP2 MSTORE PUSH1 0x20 ADD SWAP1 DUP2 MSTORE PUSH1 0x20 ADD PUSH1 0x0 KECCAK256 DUP4 PUSH1 0x40 MLOAD PUSH2 0x1364 SWAP2 SWAP1 PUSH2 0x432A JUMP JUMPDEST SWAP1 DUP2 MSTORE PUSH1 0x20 ADD PUSH1 0x40 MLOAD DUP1 SWAP2 SUB SWAP1 KECCAK256 PUSH1 0x0 DUP3 ADD MLOAD DUP2 PUSH1 0x0 ADD SWAP1 DUP2 PUSH2 0x1387 SWAP2 SWAP1 PUSH2 0x44D8 JUMP JUMPDEST POP PUSH1 0x20 DUP3 ADD MLOAD DUP2 PUSH1 0x1 ADD SSTORE PUSH1 0x40 DUP3 ADD MLOAD DUP2 PUSH1 0x2 ADD SWAP1 DUP2 PUSH2 0x13A7 SWAP2 SWAP1 PUSH2 0x44D8 JUMP JUMPDEST POP PUSH1 0x60 DUP3 ADD MLOAD DUP2 PUSH1 0x3 ADD SSTORE PUSH1 0x80 DUP3 ADD MLOAD DUP2 PUSH1 0x4 ADD SSTORE PUSH1 0xA0 DUP3 ADD MLOAD DUP2 PUSH1 0x5 ADD SSTORE SWAP1 POP POP POP JUMPDEST PUSH2 0x15CB JUMP JUMPDEST PUSH2 0x13DA DUP2 DUP4 PUSH2 0x2295 JUMP JUMPDEST ISZERO PUSH2 0x13F4 JUMPI PUSH1 0x0 PUSH2 0x13EC DUP3 DUP5 DUP9 PUSH2 0x22C0 JUMP JUMPDEST SWAP1 POP POP PUSH2 0x15CA JUMP JUMPDEST DUP4 PUSH1 0xB PUSH1 0x0 DUP8 DUP2 MSTORE PUSH1 0x20 ADD SWAP1 DUP2 MSTORE PUSH1 0x20 ADD PUSH1 0x0 KECCAK256 PUSH1 0x1 ADD SLOAD SGT ISZERO PUSH2 0x15C9 JUMPI PUSH1 0x0 PUSH20 0x0 PUSH4 0xB93EA812 PUSH1 0xB PUSH1 0x0 DUP10 DUP2 MSTORE PUSH1 0x20 ADD SWAP1 DUP2 MSTORE PUSH1 0x20 ADD PUSH1 0x0 KECCAK256 PUSH1 0x1 ADD SLOAD DUP8 PUSH1 0x40 MLOAD DUP4 PUSH4 0xFFFFFFFF AND PUSH1 0xE0 SHL DUP2 MSTORE PUSH1 0x4 ADD PUSH2 0x1463 SWAP3 SWAP2 SWAP1 PUSH2 0x3F25 JUMP JUMPDEST PUSH1 0x20 PUSH1 0x40 MLOAD DUP1 DUP4 SUB DUP2 DUP7 GAS DELEGATECALL ISZERO DUP1 ISZERO PUSH2 0x1480 JUMPI RETURNDATASIZE PUSH1 0x0 DUP1 RETURNDATACOPY RETURNDATASIZE PUSH1 0x0 REVERT JUMPDEST POP POP POP POP PUSH1 0x40 MLOAD RETURNDATASIZE PUSH1 0x1F NOT PUSH1 0x1F DUP3 ADD AND DUP3 ADD DUP1 PUSH1 0x40 MSTORE POP DUP2 ADD SWAP1 PUSH2 0x14A4 SWAP2 SWAP1 PUSH2 0x3F63 JUMP JUMPDEST SWAP1 POP PUSH1 0x0 PUSH20 0x0 PUSH4 0xF5984236 DUP4 DUP7 PUSH1 0x40 MLOAD DUP4 PUSH4 0xFFFFFFFF AND PUSH1 0xE0 SHL DUP2 MSTORE PUSH1 0x4 ADD PUSH2 0x14E1 SWAP3 SWAP2 SWAP1 PUSH2 0x3F25 JUMP JUMPDEST PUSH1 0x20 PUSH1 0x40 MLOAD DUP1 DUP4 SUB DUP2 DUP7 GAS DELEGATECALL ISZERO DUP1 ISZERO PUSH2 0x14FE JUMPI RETURNDATASIZE PUSH1 0x0 DUP1 RETURNDATACOPY RETURNDATASIZE PUSH1 0x0 REVERT JUMPDEST POP POP POP POP PUSH1 0x40 MLOAD RETURNDATASIZE PUSH1 0x1F NOT PUSH1 0x1F DUP3 ADD AND DUP3 ADD DUP1 PUSH1 0x40 MSTORE POP DUP2 ADD SWAP1 PUSH2 0x1522 SWAP2 SWAP1 PUSH2 0x3F63 JUMP JUMPDEST SWAP1 POP PUSH1 0x0 DUP2 SGT ISZERO PUSH2 0x15C6 JUMPI PUSH1 0x0 PUSH2 0x153B DUP5 DUP4 DUP8 DUP12 PUSH2 0xC2E JUMP JUMPDEST SWAP1 POP DUP1 PUSH1 0xD PUSH1 0x0 DUP11 DUP2 MSTORE PUSH1 0x20 ADD SWAP1 DUP2 MSTORE PUSH1 0x20 ADD PUSH1 0x0 KECCAK256 DUP6 PUSH1 0x40 MLOAD PUSH2 0x155F SWAP2 SWAP1 PUSH2 0x432A JUMP JUMPDEST SWAP1 DUP2 MSTORE PUSH1 0x20 ADD PUSH1 0x40 MLOAD DUP1 SWAP2 SUB SWAP1 KECCAK256 PUSH1 0x0 DUP3 ADD MLOAD DUP2 PUSH1 0x0 ADD SWAP1 DUP2 PUSH2 0x1582 SWAP2 SWAP1 PUSH2 0x44D8 JUMP JUMPDEST POP PUSH1 0x20 DUP3 ADD MLOAD DUP2 PUSH1 0x1 ADD SSTORE PUSH1 0x40 DUP3 ADD MLOAD DUP2 PUSH1 0x2 ADD SWAP1 DUP2 PUSH2 0x15A2 SWAP2 SWAP1 PUSH2 0x44D8 JUMP JUMPDEST POP PUSH1 0x60 DUP3 ADD MLOAD DUP2 PUSH1 0x3 ADD SSTORE PUSH1 0x80 DUP3 ADD MLOAD DUP2 PUSH1 0x4 ADD SSTORE PUSH1 0xA0 DUP3 ADD MLOAD DUP2 PUSH1 0x5 ADD SSTORE SWAP1 POP POP POP JUMPDEST POP POP JUMPDEST JUMPDEST JUMPDEST POP POP DUP1 DUP1 PUSH2 0x15D8 SWAP1 PUSH2 0x4108 JUMP JUMPDEST SWAP2 POP POP PUSH2 0x11CA JUMP JUMPDEST POP PUSH1 0x0 JUMPDEST PUSH1 0x1 DUP1 SLOAD SWAP1 POP DUP2 LT ISZERO PUSH2 0x1750 JUMPI PUSH1 0x0 PUSH1 0x9 PUSH1 0x0 DUP6 DUP2 MSTORE PUSH1 0x20 ADD SWAP1 DUP2 MSTORE PUSH1 0x20 ADD PUSH1 0x0 KECCAK256 PUSH1 0x1 DUP4 DUP2 SLOAD DUP2 LT PUSH2 0x161A JUMPI PUSH2 0x1619 PUSH2 0x3F90 JUMP JUMPDEST JUMPDEST SWAP1 PUSH1 0x0 MSTORE PUSH1 0x20 PUSH1 0x0 KECCAK256 ADD PUSH1 0x40 MLOAD PUSH2 0x1631 SWAP2 SWAP1 PUSH2 0x40C2 JUMP JUMPDEST SWAP1 DUP2 MSTORE PUSH1 0x20 ADD PUSH1 0x40 MLOAD DUP1 SWAP2 SUB SWAP1 KECCAK256 PUSH1 0x2 ADD SLOAD SWAP1 POP PUSH1 0x0 PUSH1 0x1 DUP4 DUP2 SLOAD DUP2 LT PUSH2 0x165B JUMPI PUSH2 0x165A PUSH2 0x3F90 JUMP JUMPDEST JUMPDEST SWAP1 PUSH1 0x0 MSTORE PUSH1 0x20 PUSH1 0x0 KECCAK256 ADD DUP1 SLOAD PUSH2 0x1670 SWAP1 PUSH2 0x3FEE JUMP JUMPDEST DUP1 PUSH1 0x1F ADD PUSH1 0x20 DUP1 SWAP2 DIV MUL PUSH1 0x20 ADD PUSH1 0x40 MLOAD SWAP1 DUP2 ADD PUSH1 0x40 MSTORE DUP1 SWAP3 SWAP2 SWAP1 DUP2 DUP2 MSTORE PUSH1 0x20 ADD DUP3 DUP1 SLOAD PUSH2 0x169C SWAP1 PUSH2 0x3FEE JUMP JUMPDEST DUP1 ISZERO PUSH2 0x16E9 JUMPI DUP1 PUSH1 0x1F LT PUSH2 0x16BE JUMPI PUSH2 0x100 DUP1 DUP4 SLOAD DIV MUL DUP4 MSTORE SWAP2 PUSH1 0x20 ADD SWAP2 PUSH2 0x16E9 JUMP JUMPDEST DUP3 ADD SWAP2 SWAP1 PUSH1 0x0 MSTORE PUSH1 0x20 PUSH1 0x0 KECCAK256 SWAP1 JUMPDEST DUP2 SLOAD DUP2 MSTORE SWAP1 PUSH1 0x1 ADD SWAP1 PUSH1 0x20 ADD DUP1 DUP4 GT PUSH2 0x16CC JUMPI DUP3 SWAP1 SUB PUSH1 0x1F AND DUP3 ADD SWAP2 JUMPDEST POP POP POP POP POP SWAP1 POP PUSH1 0x4 DUP2 PUSH1 0x40 MLOAD PUSH2 0x1700 SWAP2 SWAP1 PUSH2 0x432A JUMP JUMPDEST SWAP1 DUP2 MSTORE PUSH1 0x20 ADD PUSH1 0x40 MLOAD DUP1 SWAP2 SUB SWAP1 KECCAK256 PUSH1 0x0 SWAP1 SLOAD SWAP1 PUSH2 0x100 EXP SWAP1 DIV PUSH1 0xFF AND ISZERO PUSH2 0x1730 JUMPI PUSH2 0x172B DUP2 DUP4 PUSH2 0x267C JUMP JUMPDEST PUSH2 0x173B JUMP JUMPDEST PUSH2 0x173A DUP2 DUP4 PUSH2 0x2928 JUMP JUMPDEST JUMPDEST POP POP DUP1 DUP1 PUSH2 0x1748 SWAP1 PUSH2 0x4108 JUMP JUMPDEST SWAP2 POP POP PUSH2 0x15E4 JUMP JUMPDEST POP POP JUMPDEST DUP1 PUSH1 0x0 DUP2 SWAP1 SSTORE POP PUSH1 0x1 PUSH1 0xF SLOAD PUSH2 0x1769 SWAP2 SWAP1 PUSH2 0x45AA JUMP JUMPDEST PUSH1 0xF DUP2 SWAP1 SSTORE POP POP JUMP JUMPDEST PUSH1 0x0 PUSH1 0x40 MLOAD DUP1 PUSH1 0x60 ADD PUSH1 0x40 MSTORE DUP1 DUP7 DUP2 MSTORE PUSH1 0x20 ADD DUP6 DUP2 MSTORE PUSH1 0x20 ADD DUP5 DUP2 MSTORE POP SWAP1 POP DUP1 PUSH1 0x9 PUSH1 0x0 DUP5 DUP2 MSTORE PUSH1 0x20 ADD SWAP1 DUP2 MSTORE PUSH1 0x20 ADD PUSH1 0x0 KECCAK256 DUP7 PUSH1 0x40 MLOAD PUSH2 0x17B3 SWAP2 SWAP1 PUSH2 0x432A JUMP JUMPDEST SWAP1 DUP2 MSTORE PUSH1 0x20 ADD PUSH1 0x40 MLOAD DUP1 SWAP2 SUB SWAP1 KECCAK256 PUSH1 0x0 DUP3 ADD MLOAD DUP2 PUSH1 0x0 ADD SWAP1 DUP2 PUSH2 0x17D6 SWAP2 SWAP1 PUSH2 0x44D8 JUMP JUMPDEST POP PUSH1 0x20 DUP3 ADD MLOAD DUP2 PUSH1 0x1 ADD SSTORE PUSH1 0x40 DUP3 ADD MLOAD DUP2 PUSH1 0x2 ADD SSTORE SWAP1 POP POP PUSH1 0x0 PUSH1 0xF SLOAD SUB PUSH2 0x18C0 JUMPI PUSH1 0x0 PUSH1 0x4 DUP7 PUSH1 0x40 MLOAD PUSH2 0x180A SWAP2 SWAP1 PUSH2 0x432A JUMP JUMPDEST SWAP1 DUP2 MSTORE PUSH1 0x20 ADD PUSH1 0x40 MLOAD DUP1 SWAP2 SUB SWAP1 KECCAK256 PUSH1 0x0 PUSH2 0x100 EXP DUP2 SLOAD DUP2 PUSH1 0xFF MUL NOT AND SWAP1 DUP4 ISZERO ISZERO MUL OR SWAP1 SSTORE POP PUSH1 0x0 PUSH1 0x5 DUP7 PUSH1 0x40 MLOAD PUSH2 0x1841 SWAP2 SWAP1 PUSH2 0x432A JUMP JUMPDEST SWAP1 DUP2 MSTORE PUSH1 0x20 ADD PUSH1 0x40 MLOAD DUP1 SWAP2 SUB SWAP1 KECCAK256 DUP2 SWAP1 SSTORE POP PUSH1 0x0 PUSH1 0x6 DUP7 PUSH1 0x40 MLOAD PUSH2 0x1865 SWAP2 SWAP1 PUSH2 0x432A JUMP JUMPDEST SWAP1 DUP2 MSTORE PUSH1 0x20 ADD PUSH1 0x40 MLOAD DUP1 SWAP2 SUB SWAP1 KECCAK256 DUP2 SWAP1 SSTORE POP PUSH1 0x0 PUSH1 0x7 DUP7 PUSH1 0x40 MLOAD PUSH2 0x1889 SWAP2 SWAP1 PUSH2 0x432A JUMP JUMPDEST SWAP1 DUP2 MSTORE PUSH1 0x20 ADD PUSH1 0x40 MLOAD DUP1 SWAP2 SUB SWAP1 KECCAK256 DUP2 SWAP1 SSTORE POP PUSH1 0x0 PUSH1 0x8 DUP7 PUSH1 0x40 MLOAD PUSH2 0x18AD SWAP2 SWAP1 PUSH2 0x432A JUMP JUMPDEST SWAP1 DUP2 MSTORE PUSH1 0x20 ADD PUSH1 0x40 MLOAD DUP1 SWAP2 SUB SWAP1 KECCAK256 DUP2 SWAP1 SSTORE POP JUMPDEST PUSH1 0x3 DUP6 PUSH1 0x40 MLOAD PUSH2 0x18D0 SWAP2 SWAP1 PUSH2 0x432A JUMP JUMPDEST SWAP1 DUP2 MSTORE PUSH1 0x20 ADD PUSH1 0x40 MLOAD DUP1 SWAP2 SUB SWAP1 KECCAK256 PUSH1 0x0 SWAP1 SLOAD SWAP1 PUSH2 0x100 EXP SWAP1 DIV PUSH1 0xFF AND PUSH2 0x1A24 JUMPI PUSH1 0x1 DUP6 SWAP1 DUP1 PUSH1 0x1 DUP2 SLOAD ADD DUP1 DUP3 SSTORE DUP1 SWAP2 POP POP PUSH1 0x1 SWAP1 SUB SWAP1 PUSH1 0x0 MSTORE PUSH1 0x20 PUSH1 0x0 KECCAK256 ADD PUSH1 0x0 SWAP1 SWAP2 SWAP1 SWAP2 SWAP1 SWAP2 POP SWAP1 DUP2 PUSH2 0x1924 SWAP2 SWAP1 PUSH2 0x44D8 JUMP JUMPDEST POP PUSH1 0x1 PUSH1 0x3 DUP7 PUSH1 0x40 MLOAD PUSH2 0x1937 SWAP2 SWAP1 PUSH2 0x432A JUMP JUMPDEST SWAP1 DUP2 MSTORE PUSH1 0x20 ADD PUSH1 0x40 MLOAD DUP1 SWAP2 SUB SWAP1 KECCAK256 PUSH1 0x0 PUSH2 0x100 EXP DUP2 SLOAD DUP2 PUSH1 0xFF MUL NOT AND SWAP1 DUP4 ISZERO ISZERO MUL OR SWAP1 SSTORE POP PUSH1 0x0 PUSH1 0x4 DUP7 PUSH1 0x40 MLOAD PUSH2 0x196E SWAP2 SWAP1 PUSH2 0x432A JUMP JUMPDEST SWAP1 DUP2 MSTORE PUSH1 0x20 ADD PUSH1 0x40 MLOAD DUP1 SWAP2 SUB SWAP1 KECCAK256 PUSH1 0x0 PUSH2 0x100 EXP DUP2 SLOAD DUP2 PUSH1 0xFF MUL NOT AND SWAP1 DUP4 ISZERO ISZERO MUL OR SWAP1 SSTORE POP PUSH1 0x0 PUSH1 0x5 DUP7 PUSH1 0x40 MLOAD PUSH2 0x19A5 SWAP2 SWAP1 PUSH2 0x432A JUMP JUMPDEST SWAP1 DUP2 MSTORE PUSH1 0x20 ADD PUSH1 0x40 MLOAD DUP1 SWAP2 SUB SWAP1 KECCAK256 DUP2 SWAP1 SSTORE POP PUSH1 0x0 PUSH1 0x6 DUP7 PUSH1 0x40 MLOAD PUSH2 0x19C9 SWAP2 SWAP1 PUSH2 0x432A JUMP JUMPDEST SWAP1 DUP2 MSTORE PUSH1 0x20 ADD PUSH1 0x40 MLOAD DUP1 SWAP2 SUB SWAP1 KECCAK256 DUP2 SWAP1 SSTORE POP PUSH1 0x0 PUSH1 0x7 DUP7 PUSH1 0x40 MLOAD PUSH2 0x19ED SWAP2 SWAP1 PUSH2 0x432A JUMP JUMPDEST SWAP1 DUP2 MSTORE PUSH1 0x20 ADD PUSH1 0x40 MLOAD DUP1 SWAP2 SUB SWAP1 KECCAK256 DUP2 SWAP1 SSTORE POP PUSH1 0x0 PUSH1 0x8 DUP7 PUSH1 0x40 MLOAD PUSH2 0x1A11 SWAP2 SWAP1 PUSH2 0x432A JUMP JUMPDEST SWAP1 DUP2 MSTORE PUSH1 0x20 ADD PUSH1 0x40 MLOAD DUP1 SWAP2 SUB SWAP1 KECCAK256 DUP2 SWAP1 SSTORE POP JUMPDEST POP POP POP POP POP JUMP JUMPDEST PUSH1 0x60 PUSH1 0x0 PUSH1 0x60 PUSH1 0x0 DUP1 PUSH1 0x0 DUP1 PUSH1 0xD PUSH1 0x0 DUP10 DUP2 MSTORE PUSH1 0x20 ADD SWAP1 DUP2 MSTORE PUSH1 0x20 ADD PUSH1 0x0 KECCAK256 DUP10 PUSH1 0x40 MLOAD PUSH2 0x1A58 SWAP2 SWAP1 PUSH2 0x432A JUMP JUMPDEST SWAP1 DUP2 MSTORE PUSH1 0x20 ADD PUSH1 0x40 MLOAD DUP1 SWAP2 SUB SWAP1 KECCAK256 PUSH1 0x40 MLOAD DUP1 PUSH1 0xC0 ADD PUSH1 0x40 MSTORE SWAP1 DUP2 PUSH1 0x0 DUP3 ADD DUP1 SLOAD PUSH2 0x1A81 SWAP1 PUSH2 0x3FEE JUMP JUMPDEST DUP1 PUSH1 0x1F ADD PUSH1 0x20 DUP1 SWAP2 DIV MUL PUSH1 0x20 ADD PUSH1 0x40 MLOAD SWAP1 DUP2 ADD PUSH1 0x40 MSTORE DUP1 SWAP3 SWAP2 SWAP1 DUP2 DUP2 MSTORE PUSH1 0x20 ADD DUP3 DUP1 SLOAD PUSH2 0x1AAD SWAP1 PUSH2 0x3FEE JUMP JUMPDEST DUP1 ISZERO PUSH2 0x1AFA JUMPI DUP1 PUSH1 0x1F LT PUSH2 0x1ACF JUMPI PUSH2 0x100 DUP1 DUP4 SLOAD DIV MUL DUP4 MSTORE SWAP2 PUSH1 0x20 ADD SWAP2 PUSH2 0x1AFA JUMP JUMPDEST DUP3 ADD SWAP2 SWAP1 PUSH1 0x0 MSTORE PUSH1 0x20 PUSH1 0x0 KECCAK256 SWAP1 JUMPDEST DUP2 SLOAD DUP2 MSTORE SWAP1 PUSH1 0x1 ADD SWAP1 PUSH1 0x20 ADD DUP1 DUP4 GT PUSH2 0x1ADD JUMPI DUP3 SWAP1 SUB PUSH1 0x1F AND DUP3 ADD SWAP2 JUMPDEST POP POP POP POP POP DUP2 MSTORE PUSH1 0x20 ADD PUSH1 0x1 DUP3 ADD SLOAD DUP2 MSTORE PUSH1 0x20 ADD PUSH1 0x2 DUP3 ADD DUP1 SLOAD PUSH2 0x1B1D SWAP1 PUSH2 0x3FEE JUMP JUMPDEST DUP1 PUSH1 0x1F ADD PUSH1 0x20 DUP1 SWAP2 DIV MUL PUSH1 0x20 ADD PUSH1 0x40 MLOAD SWAP1 DUP2 ADD PUSH1 0x40 MSTORE DUP1 SWAP3 SWAP2 SWAP1 DUP2 DUP2 MSTORE PUSH1 0x20 ADD DUP3 DUP1 SLOAD PUSH2 0x1B49 SWAP1 PUSH2 0x3FEE JUMP JUMPDEST DUP1 ISZERO PUSH2 0x1B96 JUMPI DUP1 PUSH1 0x1F LT PUSH2 0x1B6B JUMPI PUSH2 0x100 DUP1 DUP4 SLOAD DIV MUL DUP4 MSTORE SWAP2 PUSH1 0x20 ADD SWAP2 PUSH2 0x1B96 JUMP JUMPDEST DUP3 ADD SWAP2 SWAP1 PUSH1 0x0 MSTORE PUSH1 0x20 PUSH1 0x0 KECCAK256 SWAP1 JUMPDEST DUP2 SLOAD DUP2 MSTORE SWAP1 PUSH1 0x1 ADD SWAP1 PUSH1 0x20 ADD DUP1 DUP4 GT PUSH2 0x1B79 JUMPI DUP3 SWAP1 SUB PUSH1 0x1F AND DUP3 ADD SWAP2 JUMPDEST POP POP POP POP POP DUP2 MSTORE PUSH1 0x20 ADD PUSH1 0x3 DUP3 ADD SLOAD DUP2 MSTORE PUSH1 0x20 ADD PUSH1 0x4 DUP3 ADD SLOAD DUP2 MSTORE PUSH1 0x20 ADD PUSH1 0x5 DUP3 ADD SLOAD DUP2 MSTORE POP POP SWAP1 POP DUP1 PUSH1 0x0 ADD MLOAD DUP2 PUSH1 0x20 ADD MLOAD DUP3 PUSH1 0x40 ADD MLOAD DUP4 PUSH1 0x60 ADD MLOAD DUP5 PUSH1 0x80 ADD MLOAD DUP6 PUSH1 0xA0 ADD MLOAD SWAP7 POP SWAP7 POP SWAP7 POP SWAP7 POP SWAP7 POP SWAP7 POP POP SWAP3 SWAP6 POP SWAP3 SWAP6 POP SWAP3 SWAP6 JUMP JUMPDEST PUSH1 0x0 PUSH1 0x40 MLOAD DUP1 PUSH1 0x40 ADD PUSH1 0x40 MSTORE DUP1 DUP5 DUP2 MSTORE PUSH1 0x20 ADD DUP4 DUP2 MSTORE POP SWAP1 POP DUP1 PUSH1 0xA PUSH1 0x0 DUP7 DUP2 MSTORE PUSH1 0x20 ADD SWAP1 DUP2 MSTORE PUSH1 0x20 ADD PUSH1 0x0 KECCAK256 PUSH1 0x0 DUP3 ADD MLOAD DUP2 PUSH1 0x0 ADD SSTORE PUSH1 0x20 DUP3 ADD MLOAD DUP2 PUSH1 0x1 ADD SSTORE SWAP1 POP POP POP POP POP POP JUMP JUMPDEST PUSH1 0x0 PUSH1 0x40 MLOAD DUP1 PUSH2 0x140 ADD PUSH1 0x40 MSTORE DUP1 DUP13 DUP2 MSTORE PUSH1 0x20 ADD DUP12 DUP2 MSTORE PUSH1 0x20 ADD DUP11 DUP2 MSTORE PUSH1 0x20 ADD DUP10 DUP2 MSTORE PUSH1 0x20 ADD DUP9 DUP2 MSTORE PUSH1 0x20 ADD DUP8 DUP2 MSTORE PUSH1 0x20 ADD DUP7 DUP2 MSTORE PUSH1 0x20 ADD DUP6 DUP2 MSTORE PUSH1 0x20 ADD DUP5 DUP2 MSTORE PUSH1 0x20 ADD DUP4 DUP2 MSTORE POP SWAP1 POP DUP1 PUSH1 0xE PUSH1 0x0 DUP15 DUP2 MSTORE PUSH1 0x20 ADD SWAP1 DUP2 MSTORE PUSH1 0x20 ADD PUSH1 0x0 KECCAK256 DUP13 PUSH1 0x40 MLOAD PUSH2 0x1CAA SWAP2 SWAP1 PUSH2 0x432A JUMP JUMPDEST SWAP1 DUP2 MSTORE PUSH1 0x20 ADD PUSH1 0x40 MLOAD DUP1 SWAP2 SUB SWAP1 KECCAK256 PUSH1 0x0 DUP3 ADD MLOAD DUP2 PUSH1 0x0 ADD SWAP1 DUP2 PUSH2 0x1CCD SWAP2 SWAP1 PUSH2 0x44D8 JUMP JUMPDEST POP PUSH1 0x20 DUP3 ADD MLOAD DUP2 PUSH1 0x1 ADD SSTORE PUSH1 0x40 DUP3 ADD MLOAD DUP2 PUSH1 0x2 ADD SSTORE PUSH1 0x60 DUP3 ADD MLOAD DUP2 PUSH1 0x3 ADD SSTORE PUSH1 0x80 DUP3 ADD MLOAD DUP2 PUSH1 0x4 ADD SSTORE PUSH1 0xA0 DUP3 ADD MLOAD DUP2 PUSH1 0x5 ADD SSTORE PUSH1 0xC0 DUP3 ADD MLOAD DUP2 PUSH1 0x6 ADD SSTORE PUSH1 0xE0 DUP3 ADD MLOAD DUP2 PUSH1 0x7 ADD SSTORE PUSH2 0x100 DUP3 ADD MLOAD DUP2 PUSH1 0x8 ADD SSTORE PUSH2 0x120 DUP3 ADD MLOAD DUP2 PUSH1 0x9 ADD SSTORE SWAP1 POP POP POP POP POP POP POP POP POP POP POP POP POP POP JUMP JUMPDEST PUSH1 0x0 DUP1 PUSH1 0x0 DUP1 PUSH1 0x0 DUP1 PUSH1 0x0 PUSH1 0xC PUSH1 0x0 DUP10 DUP2 MSTORE PUSH1 0x20 ADD SWAP1 DUP2 MSTORE PUSH1 0x20 ADD PUSH1 0x0 KECCAK256 PUSH1 0x40 MLOAD DUP1 PUSH1 0xC0 ADD PUSH1 0x40 MSTORE SWAP1 DUP2 PUSH1 0x0 DUP3 ADD SLOAD DUP2 MSTORE PUSH1 0x20 ADD PUSH1 0x1 DUP3 ADD SLOAD DUP2 MSTORE PUSH1 0x20 ADD PUSH1 0x2 DUP3 ADD SLOAD DUP2 MSTORE PUSH1 0x20 ADD PUSH1 0x3 DUP3 ADD SLOAD DUP2 MSTORE PUSH1 0x20 ADD PUSH1 0x4 DUP3 ADD SLOAD DUP2 MSTORE PUSH1 0x20 ADD PUSH1 0x5 DUP3 ADD SLOAD DUP2 MSTORE POP POP SWAP1 POP DUP1 PUSH1 0x0 ADD MLOAD DUP2 PUSH1 0x20 ADD MLOAD DUP3 PUSH1 0x40 ADD MLOAD DUP4 PUSH1 0x60 ADD MLOAD DUP5 PUSH1 0x80 ADD MLOAD DUP6 PUSH1 0xA0 ADD MLOAD SWAP7 POP SWAP7 POP SWAP7 POP SWAP7 POP SWAP7 POP SWAP7 POP POP SWAP2 SWAP4 SWAP6 POP SWAP2 SWAP4 SWAP6 JUMP JUMPDEST PUSH1 0x60 PUSH1 0x0 DUP1 PUSH1 0x0 PUSH1 0x9 PUSH1 0x0 DUP7 DUP2 MSTORE PUSH1 0x20 ADD SWAP1 DUP2 MSTORE PUSH1 0x20 ADD PUSH1 0x0 KECCAK256 DUP7 PUSH1 0x40 MLOAD PUSH2 0x1DFE SWAP2 SWAP1 PUSH2 0x432A JUMP JUMPDEST SWAP1 DUP2 MSTORE PUSH1 0x20 ADD PUSH1 0x40 MLOAD DUP1 SWAP2 SUB SWAP1 KECCAK256 PUSH1 0x40 MLOAD DUP1 PUSH1 0x60 ADD PUSH1 0x40 MSTORE SWAP1 DUP2 PUSH1 0x0 DUP3 ADD DUP1 SLOAD PUSH2 0x1E27 SWAP1 PUSH2 0x3FEE JUMP JUMPDEST DUP1 PUSH1 0x1F ADD PUSH1 0x20 DUP1 SWAP2 DIV MUL PUSH1 0x20 ADD PUSH1 0x40 MLOAD SWAP1 DUP2 ADD PUSH1 0x40 MSTORE DUP1 SWAP3 SWAP2 SWAP1 DUP2 DUP2 MSTORE PUSH1 0x20 ADD DUP3 DUP1 SLOAD PUSH2 0x1E53 SWAP1 PUSH2 0x3FEE JUMP JUMPDEST DUP1 ISZERO PUSH2 0x1EA0 JUMPI DUP1 PUSH1 0x1F LT PUSH2 0x1E75 JUMPI PUSH2 0x100 DUP1 DUP4 SLOAD DIV MUL DUP4 MSTORE SWAP2 PUSH1 0x20 ADD SWAP2 PUSH2 0x1EA0 JUMP JUMPDEST DUP3 ADD SWAP2 SWAP1 PUSH1 0x0 MSTORE PUSH1 0x20 PUSH1 0x0 KECCAK256 SWAP1 JUMPDEST DUP2 SLOAD DUP2 MSTORE SWAP1 PUSH1 0x1 ADD SWAP1 PUSH1 0x20 ADD DUP1 DUP4 GT PUSH2 0x1E83 JUMPI DUP3 SWAP1 SUB PUSH1 0x1F AND DUP3 ADD SWAP2 JUMPDEST POP POP POP POP POP DUP2 MSTORE PUSH1 0x20 ADD PUSH1 0x1 DUP3 ADD SLOAD DUP2 MSTORE PUSH1 0x20 ADD PUSH1 0x2 DUP3 ADD SLOAD DUP2 MSTORE POP POP SWAP1 POP DUP1 PUSH1 0x0 ADD MLOAD DUP2 PUSH1 0x20 ADD MLOAD DUP3 PUSH1 0x40 ADD MLOAD SWAP4 POP SWAP4 POP SWAP4 POP POP SWAP3 POP SWAP3 POP SWAP3 JUMP JUMPDEST PUSH1 0x60 PUSH1 0x0 DUP1 PUSH1 0x0 DUP1 PUSH1 0x0 DUP1 PUSH1 0x0 DUP1 PUSH1 0x0 DUP1 PUSH1 0xE PUSH1 0x0 DUP14 DUP2 MSTORE PUSH1 0x20 ADD SWAP1 DUP2 MSTORE PUSH1 0x20 ADD PUSH1 0x0 KECCAK256 DUP14 PUSH1 0x40 MLOAD PUSH2 0x1F0E SWAP2 SWAP1 PUSH2 0x432A JUMP JUMPDEST SWAP1 DUP2 MSTORE PUSH1 0x20 ADD PUSH1 0x40 MLOAD DUP1 SWAP2 SUB SWAP1 KECCAK256 PUSH1 0x40 MLOAD DUP1 PUSH2 0x140 ADD PUSH1 0x40 MSTORE SWAP1 DUP2 PUSH1 0x0 DUP3 ADD DUP1 SLOAD PUSH2 0x1F38 SWAP1 PUSH2 0x3FEE JUMP JUMPDEST DUP1 PUSH1 0x1F ADD PUSH1 0x20 DUP1 SWAP2 DIV MUL PUSH1 0x20 ADD PUSH1 0x40 MLOAD SWAP1 DUP2 ADD PUSH1 0x40 MSTORE DUP1 SWAP3 SWAP2 SWAP1 DUP2 DUP2 MSTORE PUSH1 0x20 ADD DUP3 DUP1 SLOAD PUSH2 0x1F64 SWAP1 PUSH2 0x3FEE JUMP JUMPDEST DUP1 ISZERO PUSH2 0x1FB1 JUMPI DUP1 PUSH1 0x1F LT PUSH2 0x1F86 JUMPI PUSH2 0x100 DUP1 DUP4 SLOAD DIV MUL DUP4 MSTORE SWAP2 PUSH1 0x20 ADD SWAP2 PUSH2 0x1FB1 JUMP JUMPDEST DUP3 ADD SWAP2 SWAP1 PUSH1 0x0 MSTORE PUSH1 0x20 PUSH1 0x0 KECCAK256 SWAP1 JUMPDEST DUP2 SLOAD DUP2 MSTORE SWAP1 PUSH1 0x1 ADD SWAP1 PUSH1 0x20 ADD DUP1 DUP4 GT PUSH2 0x1F94 JUMPI DUP3 SWAP1 SUB PUSH1 0x1F AND DUP3 ADD SWAP2 JUMPDEST POP POP POP POP POP DUP2 MSTORE PUSH1 0x20 ADD PUSH1 0x1 DUP3 ADD SLOAD DUP2 MSTORE PUSH1 0x20 ADD PUSH1 0x2 DUP3 ADD SLOAD DUP2 MSTORE PUSH1 0x20 ADD PUSH1 0x3 DUP3 ADD SLOAD DUP2 MSTORE PUSH1 0x20 ADD PUSH1 0x4 DUP3 ADD SLOAD DUP2 MSTORE PUSH1 0x20 ADD PUSH1 0x5 DUP3 ADD SLOAD DUP2 MSTORE PUSH1 0x20 ADD PUSH1 0x6 DUP3 ADD SLOAD DUP2 MSTORE PUSH1 0x20 ADD PUSH1 0x7 DUP3 ADD SLOAD DUP2 MSTORE PUSH1 0x20 ADD PUSH1 0x8 DUP3 ADD SLOAD DUP2 MSTORE PUSH1 0x20 ADD PUSH1 0x9 DUP3 ADD SLOAD DUP2 MSTORE POP POP SWAP1 POP DUP1 PUSH1 0x0 ADD MLOAD DUP2 PUSH1 0x20 ADD MLOAD DUP3 PUSH1 0x40 ADD MLOAD DUP4 PUSH1 0x60 ADD MLOAD DUP5 PUSH1 0x80 ADD MLOAD DUP6 PUSH1 0xA0 ADD MLOAD DUP7 PUSH1 0xC0 ADD MLOAD DUP8 PUSH1 0xE0 ADD MLOAD DUP9 PUSH2 0x100 ADD MLOAD DUP10 PUSH2 0x120 ADD MLOAD SWAP11 POP SWAP11 POP SWAP11 POP SWAP11 POP SWAP11 POP SWAP11 POP SWAP11 POP SWAP11 POP SWAP11 POP SWAP11 POP POP SWAP3 SWAP6 SWAP9 SWAP12 SWAP2 SWAP5 SWAP8 SWAP11 POP SWAP3 SWAP6 SWAP9 POP JUMP JUMPDEST PUSH1 0x0 DUP1 PUSH1 0x0 SWAP1 POP PUSH1 0x0 DUP1 PUSH1 0x0 DUP1 PUSH1 0x0 DUP1 PUSH2 0x2087 DUP10 PUSH2 0x2D1F JUMP JUMPDEST DUP1 SWAP7 POP DUP2 SWAP8 POP DUP3 SWAP9 POP POP POP POP PUSH2 0x209E PUSH1 0x0 SLOAD PUSH2 0x2D1F JUMP JUMPDEST DUP1 SWAP4 POP DUP2 SWAP5 POP DUP3 SWAP6 POP POP POP POP DUP2 PUSH1 0xFF AND DUP6 PUSH1 0xFF AND EQ PUSH2 0x20C3 JUMPI PUSH1 0x1 SWAP7 POP DUP9 PUSH1 0x0 DUP2 SWAP1 SSTORE POP JUMPDEST DUP7 SWAP8 POP POP POP POP POP POP POP POP SWAP2 SWAP1 POP JUMP JUMPDEST PUSH1 0x0 DUP1 PUSH1 0x65 PUSH1 0x64 PUSH1 0x5 DUP7 PUSH1 0x40 MLOAD PUSH2 0x20E9 SWAP2 SWAP1 PUSH2 0x432A JUMP JUMPDEST SWAP1 DUP2 MSTORE PUSH1 0x20 ADD PUSH1 0x40 MLOAD DUP1 SWAP2 SUB SWAP1 KECCAK256 SLOAD PUSH2 0x2102 SWAP2 SWAP1 PUSH2 0x462F JUMP JUMPDEST PUSH2 0x210C SWAP2 SWAP1 PUSH2 0x41E2 JUMP JUMPDEST SWAP1 POP DUP1 DUP4 SGT SWAP2 POP POP SWAP3 SWAP2 POP POP JUMP JUMPDEST PUSH2 0x2122 PUSH2 0x3445 JUMP JUMPDEST PUSH2 0x212A PUSH2 0x3445 JUMP JUMPDEST PUSH1 0x0 PUSH1 0x6 DUP7 PUSH1 0x40 MLOAD PUSH2 0x213C SWAP2 SWAP1 PUSH2 0x432A JUMP JUMPDEST SWAP1 DUP2 MSTORE PUSH1 0x20 ADD PUSH1 0x40 MLOAD DUP1 SWAP2 SUB SWAP1 KECCAK256 SLOAD SWAP1 POP PUSH1 0x0 PUSH20 0x0 PUSH4 0x3C4308A8 DUP4 DUP9 PUSH1 0x40 MLOAD DUP4 PUSH4 0xFFFFFFFF AND PUSH1 0xE0 SHL DUP2 MSTORE PUSH1 0x4 ADD PUSH2 0x2188 SWAP3 SWAP2 SWAP1 PUSH2 0x3F25 JUMP JUMPDEST PUSH1 0x20 PUSH1 0x40 MLOAD DUP1 DUP4 SUB DUP2 DUP7 GAS DELEGATECALL ISZERO DUP1 ISZERO PUSH2 0x21A5 JUMPI RETURNDATASIZE PUSH1 0x0 DUP1 RETURNDATACOPY RETURNDATASIZE PUSH1 0x0 REVERT JUMPDEST POP POP POP POP PUSH1 0x40 MLOAD RETURNDATASIZE PUSH1 0x1F NOT PUSH1 0x1F DUP3 ADD AND DUP3 ADD DUP1 PUSH1 0x40 MSTORE POP DUP2 ADD SWAP1 PUSH2 0x21C9 SWAP2 SWAP1 PUSH2 0x3F63 JUMP JUMPDEST SWAP1 POP DUP1 PUSH1 0xB PUSH1 0x0 DUP8 DUP2 MSTORE PUSH1 0x20 ADD SWAP1 DUP2 MSTORE PUSH1 0x20 ADD PUSH1 0x0 KECCAK256 PUSH1 0x2 ADD SLOAD SLT PUSH2 0x21FB JUMPI PUSH2 0x21F4 DUP8 DUP4 DUP9 DUP9 PUSH2 0xC2E JUMP JUMPDEST SWAP3 POP PUSH2 0x222E JUMP JUMPDEST DUP6 PUSH1 0xB PUSH1 0x0 DUP8 DUP2 MSTORE PUSH1 0x20 ADD SWAP1 DUP2 MSTORE PUSH1 0x20 ADD PUSH1 0x0 KECCAK256 PUSH1 0x2 ADD SLOAD PUSH2 0x221D SWAP2 SWAP1 PUSH2 0x462F JUMP JUMPDEST SWAP2 POP PUSH2 0x222B DUP8 DUP4 DUP9 DUP9 PUSH2 0xC2E JUMP JUMPDEST SWAP3 POP JUMPDEST PUSH1 0x0 PUSH1 0x4 DUP9 PUSH1 0x40 MLOAD PUSH2 0x2240 SWAP2 SWAP1 PUSH2 0x432A JUMP JUMPDEST SWAP1 DUP2 MSTORE PUSH1 0x20 ADD PUSH1 0x40 MLOAD DUP1 SWAP2 SUB SWAP1 KECCAK256 PUSH1 0x0 PUSH2 0x100 EXP DUP2 SLOAD DUP2 PUSH1 0xFF MUL NOT AND SWAP1 DUP4 ISZERO ISZERO MUL OR SWAP1 SSTORE POP DUP6 PUSH1 0x7 DUP9 PUSH1 0x40 MLOAD PUSH2 0x2276 SWAP2 SWAP1 PUSH2 0x432A JUMP JUMPDEST SWAP1 DUP2 MSTORE PUSH1 0x20 ADD PUSH1 0x40 MLOAD DUP1 SWAP2 SUB SWAP1 KECCAK256 DUP2 SWAP1 SSTORE POP DUP3 SWAP4 POP POP POP POP SWAP4 SWAP3 POP POP POP JUMP JUMPDEST PUSH1 0x0 PUSH1 0x5 DUP4 PUSH1 0x40 MLOAD PUSH2 0x22A7 SWAP2 SWAP1 PUSH2 0x432A JUMP JUMPDEST SWAP1 DUP2 MSTORE PUSH1 0x20 ADD PUSH1 0x40 MLOAD DUP1 SWAP2 SUB SWAP1 KECCAK256 SLOAD DUP3 SLT SWAP1 POP SWAP3 SWAP2 POP POP JUMP JUMPDEST PUSH2 0x22C8 PUSH2 0x3445 JUMP JUMPDEST PUSH1 0x0 PUSH1 0xE PUSH1 0x0 DUP5 DUP2 MSTORE PUSH1 0x20 ADD SWAP1 DUP2 MSTORE PUSH1 0x20 ADD PUSH1 0x0 KECCAK256 DUP6 PUSH1 0x40 MLOAD PUSH2 0x22EB SWAP2 SWAP1 PUSH2 0x432A JUMP JUMPDEST SWAP1 DUP2 MSTORE PUSH1 0x20 ADD PUSH1 0x40 MLOAD DUP1 SWAP2 SUB SWAP1 KECCAK256 PUSH1 0x40 MLOAD DUP1 PUSH2 0x140 ADD PUSH1 0x40 MSTORE SWAP1 DUP2 PUSH1 0x0 DUP3 ADD DUP1 SLOAD PUSH2 0x2315 SWAP1 PUSH2 0x3FEE JUMP JUMPDEST DUP1 PUSH1 0x1F ADD PUSH1 0x20 DUP1 SWAP2 DIV MUL PUSH1 0x20 ADD PUSH1 0x40 MLOAD SWAP1 DUP2 ADD PUSH1 0x40 MSTORE DUP1 SWAP3 SWAP2 SWAP1 DUP2 DUP2 MSTORE PUSH1 0x20 ADD DUP3 DUP1 SLOAD PUSH2 0x2341 SWAP1 PUSH2 0x3FEE JUMP JUMPDEST DUP1 ISZERO PUSH2 0x238E JUMPI DUP1 PUSH1 0x1F LT PUSH2 0x2363 JUMPI PUSH2 0x100 DUP1 DUP4 SLOAD DIV MUL DUP4 MSTORE SWAP2 PUSH1 0x20 ADD SWAP2 PUSH2 0x238E JUMP JUMPDEST DUP3 ADD SWAP2 SWAP1 PUSH1 0x0 MSTORE PUSH1 0x20 PUSH1 0x0 KECCAK256 SWAP1 JUMPDEST DUP2 SLOAD DUP2 MSTORE SWAP1 PUSH1 0x1 ADD SWAP1 PUSH1 0x20 ADD DUP1 DUP4 GT PUSH2 0x2371 JUMPI DUP3 SWAP1 SUB PUSH1 0x1F AND DUP3 ADD SWAP2 JUMPDEST POP POP POP POP POP DUP2 MSTORE PUSH1 0x20 ADD PUSH1 0x1 DUP3 ADD SLOAD DUP2 MSTORE PUSH1 0x20 ADD PUSH1 0x2 DUP3 ADD SLOAD DUP2 MSTORE PUSH1 0x20 ADD PUSH1 0x3 DUP3 ADD SLOAD DUP2 MSTORE PUSH1 0x20 ADD PUSH1 0x4 DUP3 ADD SLOAD DUP2 MSTORE PUSH1 0x20 ADD PUSH1 0x5 DUP3 ADD SLOAD DUP2 MSTORE PUSH1 0x20 ADD PUSH1 0x6 DUP3 ADD SLOAD DUP2 MSTORE PUSH1 0x20 ADD PUSH1 0x7 DUP3 ADD SLOAD DUP2 MSTORE PUSH1 0x20 ADD PUSH1 0x8 DUP3 ADD SLOAD DUP2 MSTORE PUSH1 0x20 ADD PUSH1 0x9 DUP3 ADD SLOAD DUP2 MSTORE POP POP SWAP1 POP PUSH1 0x0 PUSH1 0x9 PUSH1 0x0 DUP6 DUP2 MSTORE PUSH1 0x20 ADD SWAP1 DUP2 MSTORE PUSH1 0x20 ADD PUSH1 0x0 KECCAK256 DUP7 PUSH1 0x40 MLOAD PUSH2 0x2416 SWAP2 SWAP1 PUSH2 0x432A JUMP JUMPDEST SWAP1 DUP2 MSTORE PUSH1 0x20 ADD PUSH1 0x40 MLOAD DUP1 SWAP2 SUB SWAP1 KECCAK256 PUSH1 0x40 MLOAD DUP1 PUSH1 0x60 ADD PUSH1 0x40 MSTORE SWAP1 DUP2 PUSH1 0x0 DUP3 ADD DUP1 SLOAD PUSH2 0x243F SWAP1 PUSH2 0x3FEE JUMP JUMPDEST DUP1 PUSH1 0x1F ADD PUSH1 0x20 DUP1 SWAP2 DIV MUL PUSH1 0x20 ADD PUSH1 0x40 MLOAD SWAP1 DUP2 ADD PUSH1 0x40 MSTORE DUP1 SWAP3 SWAP2 SWAP1 DUP2 DUP2 MSTORE PUSH1 0x20 ADD DUP3 DUP1 SLOAD PUSH2 0x246B SWAP1 PUSH2 0x3FEE JUMP JUMPDEST DUP1 ISZERO PUSH2 0x24B8 JUMPI DUP1 PUSH1 0x1F LT PUSH2 0x248D JUMPI PUSH2 0x100 DUP1 DUP4 SLOAD DIV MUL DUP4 MSTORE SWAP2 PUSH1 0x20 ADD SWAP2 PUSH2 0x24B8 JUMP JUMPDEST DUP3 ADD SWAP2 SWAP1 PUSH1 0x0 MSTORE PUSH1 0x20 PUSH1 0x0 KECCAK256 SWAP1 JUMPDEST DUP2 SLOAD DUP2 MSTORE SWAP1 PUSH1 0x1 ADD SWAP1 PUSH1 0x20 ADD DUP1 DUP4 GT PUSH2 0x249B JUMPI DUP3 SWAP1 SUB PUSH1 0x1F AND DUP3 ADD SWAP2 JUMPDEST POP POP POP POP POP DUP2 MSTORE PUSH1 0x20 ADD PUSH1 0x1 DUP3 ADD SLOAD DUP2 MSTORE PUSH1 0x20 ADD PUSH1 0x2 DUP3 ADD SLOAD DUP2 MSTORE POP POP SWAP1 POP PUSH1 0x0 DUP3 PUSH1 0x20 ADD MLOAD SWAP1 POP PUSH1 0x0 PUSH1 0x1 DUP1 SLOAD SWAP1 POP PUSH1 0xB PUSH1 0x0 DUP9 DUP2 MSTORE PUSH1 0x20 ADD SWAP1 DUP2 MSTORE PUSH1 0x20 ADD PUSH1 0x0 KECCAK256 PUSH1 0x4 ADD SLOAD PUSH2 0x2509 SWAP2 SWAP1 PUSH2 0x462F JUMP JUMPDEST SWAP1 POP PUSH1 0x0 PUSH20 0x0 PUSH4 0xF5984236 DUP4 DUP7 PUSH1 0x40 ADD MLOAD PUSH1 0x40 MLOAD DUP4 PUSH4 0xFFFFFFFF AND PUSH1 0xE0 SHL DUP2 MSTORE PUSH1 0x4 ADD PUSH2 0x254A SWAP3 SWAP2 SWAP1 PUSH2 0x3F25 JUMP JUMPDEST PUSH1 0x20 PUSH1 0x40 MLOAD DUP1 DUP4 SUB DUP2 DUP7 GAS DELEGATECALL ISZERO DUP1 ISZERO PUSH2 0x2567 JUMPI RETURNDATASIZE PUSH1 0x0 DUP1 RETURNDATACOPY RETURNDATASIZE PUSH1 0x0 REVERT JUMPDEST POP POP POP POP PUSH1 0x40 MLOAD RETURNDATASIZE PUSH1 0x1F NOT PUSH1 0x1F DUP3 ADD AND DUP3 ADD DUP1 PUSH1 0x40 MSTORE POP DUP2 ADD SWAP1 PUSH2 0x258B SWAP2 SWAP1 PUSH2 0x3F63 JUMP JUMPDEST SWAP1 POP PUSH1 0x0 PUSH1 0xA PUSH1 0xC DUP4 PUSH2 0x259E SWAP2 SWAP1 PUSH2 0x41E2 JUMP JUMPDEST PUSH2 0x25A8 SWAP2 SWAP1 PUSH2 0x462F JUMP JUMPDEST SWAP1 POP PUSH1 0x0 DUP2 DUP6 PUSH2 0x25B8 SWAP2 SWAP1 PUSH2 0x4699 JUMP JUMPDEST SWAP1 POP PUSH1 0x0 PUSH2 0x25C8 DUP13 DUP4 DUP14 DUP14 PUSH2 0x381 JUMP JUMPDEST SWAP1 POP DUP11 PUSH1 0x5 DUP14 PUSH1 0x40 MLOAD PUSH2 0x25DB SWAP2 SWAP1 PUSH2 0x432A JUMP JUMPDEST SWAP1 DUP2 MSTORE PUSH1 0x20 ADD PUSH1 0x40 MLOAD DUP1 SWAP2 SUB SWAP1 KECCAK256 DUP2 SWAP1 SSTORE POP DUP2 PUSH1 0x6 DUP14 PUSH1 0x40 MLOAD PUSH2 0x25FE SWAP2 SWAP1 PUSH2 0x432A JUMP JUMPDEST SWAP1 DUP2 MSTORE PUSH1 0x20 ADD PUSH1 0x40 MLOAD DUP1 SWAP2 SUB SWAP1 KECCAK256 DUP2 SWAP1 SSTORE POP DUP11 PUSH1 0x8 DUP14 PUSH1 0x40 MLOAD PUSH2 0x2621 SWAP2 SWAP1 PUSH2 0x432A JUMP JUMPDEST SWAP1 DUP2 MSTORE PUSH1 0x20 ADD PUSH1 0x40 MLOAD DUP1 SWAP2 SUB SWAP1 KECCAK256 DUP2 SWAP1 SSTORE POP PUSH1 0x1 PUSH1 0x4 DUP14 PUSH1 0x40 MLOAD PUSH2 0x2645 SWAP2 SWAP1 PUSH2 0x432A JUMP JUMPDEST SWAP1 DUP2 MSTORE PUSH1 0x20 ADD PUSH1 0x40 MLOAD DUP1 SWAP2 SUB SWAP1 KECCAK256 PUSH1 0x0 PUSH2 0x100 EXP DUP2 SLOAD DUP2 PUSH1 0xFF MUL NOT AND SWAP1 DUP4 ISZERO ISZERO MUL OR SWAP1 SSTORE POP DUP1 SWAP9 POP POP POP POP POP POP POP POP POP SWAP4 SWAP3 POP POP POP JUMP JUMPDEST PUSH1 0x0 PUSH1 0x64 PUSH20 0x0 PUSH4 0x2179BB6C PUSH1 0x40 MLOAD DUP2 PUSH4 0xFFFFFFFF AND PUSH1 0xE0 SHL DUP2 MSTORE PUSH1 0x4 ADD PUSH1 0x20 PUSH1 0x40 MLOAD DUP1 DUP4 SUB DUP2 DUP7 GAS DELEGATECALL ISZERO DUP1 ISZERO PUSH2 0x26C9 JUMPI RETURNDATASIZE PUSH1 0x0 DUP1 RETURNDATACOPY RETURNDATASIZE PUSH1 0x0 REVERT JUMPDEST POP POP POP POP PUSH1 0x40 MLOAD RETURNDATASIZE PUSH1 0x1F NOT PUSH1 0x1F DUP3 ADD AND DUP3 ADD DUP1 PUSH1 0x40 MSTORE POP DUP2 ADD SWAP1 PUSH2 0x26ED SWAP2 SWAP1 PUSH2 0x3F63 JUMP JUMPDEST PUSH1 0x46 PUSH2 0x26F9 SWAP2 SWAP1 PUSH2 0x41E2 JUMP JUMPDEST PUSH2 0x2703 SWAP2 SWAP1 PUSH2 0x462F JUMP JUMPDEST SWAP1 POP PUSH20 0x0 PUSH4 0x3C4308A8 PUSH1 0x5 DUP6 PUSH1 0x40 MLOAD PUSH2 0x272F SWAP2 SWAP1 PUSH2 0x432A JUMP JUMPDEST SWAP1 DUP2 MSTORE PUSH1 0x20 ADD PUSH1 0x40 MLOAD DUP1 SWAP2 SUB SWAP1 KECCAK256 SLOAD DUP4 PUSH1 0x40 MLOAD DUP4 PUSH4 0xFFFFFFFF AND PUSH1 0xE0 SHL DUP2 MSTORE PUSH1 0x4 ADD PUSH2 0x275C SWAP3 SWAP2 SWAP1 PUSH2 0x3F25 JUMP JUMPDEST PUSH1 0x20 PUSH1 0x40 MLOAD DUP1 DUP4 SUB DUP2 DUP7 GAS DELEGATECALL ISZERO DUP1 ISZERO PUSH2 0x2779 JUMPI RETURNDATASIZE PUSH1 0x0 DUP1 RETURNDATACOPY RETURNDATASIZE PUSH1 0x0 REVERT JUMPDEST POP POP POP POP PUSH1 0x40 MLOAD RETURNDATASIZE PUSH1 0x1F NOT PUSH1 0x1F DUP3 ADD AND DUP3 ADD DUP1 PUSH1 0x40 MSTORE POP DUP2 ADD SWAP1 PUSH2 0x279D SWAP2 SWAP1 PUSH2 0x3F63 JUMP JUMPDEST DUP3 SLT ISZERO PUSH2 0x2923 JUMPI PUSH1 0x0 PUSH20 0x0 PUSH4 0xB93EA812 PUSH1 0x8 DUP7 PUSH1 0x40 MLOAD PUSH2 0x27D0 SWAP2 SWAP1 PUSH2 0x432A JUMP JUMPDEST SWAP1 DUP2 MSTORE PUSH1 0x20 ADD PUSH1 0x40 MLOAD DUP1 SWAP2 SUB SWAP1 KECCAK256 SLOAD DUP6 PUSH1 0x40 MLOAD DUP4 PUSH4 0xFFFFFFFF AND PUSH1 0xE0 SHL DUP2 MSTORE PUSH1 0x4 ADD PUSH2 0x27FD SWAP3 SWAP2 SWAP1 PUSH2 0x3F25 JUMP JUMPDEST PUSH1 0x20 PUSH1 0x40 MLOAD DUP1 DUP4 SUB DUP2 DUP7 GAS DELEGATECALL ISZERO DUP1 ISZERO PUSH2 0x281A JUMPI RETURNDATASIZE PUSH1 0x0 DUP1 RETURNDATACOPY RETURNDATASIZE PUSH1 0x0 REVERT JUMPDEST POP POP POP POP PUSH1 0x40 MLOAD RETURNDATASIZE PUSH1 0x1F NOT PUSH1 0x1F DUP3 ADD AND DUP3 ADD DUP1 PUSH1 0x40 MSTORE POP DUP2 ADD SWAP1 PUSH2 0x283E SWAP2 SWAP1 PUSH2 0x3F63 JUMP JUMPDEST SWAP1 POP PUSH1 0x0 PUSH1 0x64 PUSH1 0x32 PUSH20 0x0 PUSH4 0xA5F3C23B DUP8 DUP7 PUSH1 0x40 MLOAD DUP4 PUSH4 0xFFFFFFFF AND PUSH1 0xE0 SHL DUP2 MSTORE PUSH1 0x4 ADD PUSH2 0x287F SWAP3 SWAP2 SWAP1 PUSH2 0x3F25 JUMP JUMPDEST PUSH1 0x20 PUSH1 0x40 MLOAD DUP1 DUP4 SUB DUP2 DUP7 GAS DELEGATECALL ISZERO DUP1 ISZERO PUSH2 0x289C JUMPI RETURNDATASIZE PUSH1 0x0 DUP1 RETURNDATACOPY RETURNDATASIZE PUSH1 0x0 REVERT JUMPDEST POP POP POP POP PUSH1 0x40 MLOAD RETURNDATASIZE PUSH1 0x1F NOT PUSH1 0x1F DUP3 ADD AND DUP3 ADD DUP1 PUSH1 0x40 MSTORE POP DUP2 ADD SWAP1 PUSH2 0x28C0 SWAP2 SWAP1 PUSH2 0x3F63 JUMP JUMPDEST PUSH2 0x28CA SWAP2 SWAP1 PUSH2 0x41E2 JUMP JUMPDEST PUSH2 0x28D4 SWAP2 SWAP1 PUSH2 0x462F JUMP JUMPDEST SWAP1 POP PUSH1 0x5 DUP6 PUSH1 0x40 MLOAD PUSH2 0x28E6 SWAP2 SWAP1 PUSH2 0x432A JUMP JUMPDEST SWAP1 DUP2 MSTORE PUSH1 0x20 ADD PUSH1 0x40 MLOAD DUP1 SWAP2 SUB SWAP1 KECCAK256 SLOAD DUP2 SLT ISZERO PUSH2 0x2920 JUMPI DUP1 PUSH1 0x5 DUP7 PUSH1 0x40 MLOAD PUSH2 0x290D SWAP2 SWAP1 PUSH2 0x432A JUMP JUMPDEST SWAP1 DUP2 MSTORE PUSH1 0x20 ADD PUSH1 0x40 MLOAD DUP1 SWAP2 SUB SWAP1 KECCAK256 DUP2 SWAP1 SSTORE POP JUMPDEST POP POP JUMPDEST POP POP POP JUMP JUMPDEST PUSH1 0x0 PUSH1 0x7 DUP4 PUSH1 0x40 MLOAD PUSH2 0x293A SWAP2 SWAP1 PUSH2 0x432A JUMP JUMPDEST SWAP1 DUP2 MSTORE PUSH1 0x20 ADD PUSH1 0x40 MLOAD DUP1 SWAP2 SUB SWAP1 KECCAK256 SLOAD SUB PUSH2 0x2B23 JUMPI DUP1 PUSH1 0x7 DUP4 PUSH1 0x40 MLOAD PUSH2 0x295F SWAP2 SWAP1 PUSH2 0x432A JUMP JUMPDEST SWAP1 DUP2 MSTORE PUSH1 0x20 ADD PUSH1 0x40 MLOAD DUP1 SWAP2 SUB SWAP1 KECCAK256 DUP2 SWAP1 SSTORE POP PUSH1 0x0 PUSH20 0x0 PUSH4 0xB93EA812 PUSH20 0x0 PUSH4 0x2179BB6C PUSH1 0x40 MLOAD DUP2 PUSH4 0xFFFFFFFF AND PUSH1 0xE0 SHL DUP2 MSTORE PUSH1 0x4 ADD PUSH1 0x20 PUSH1 0x40 MLOAD DUP1 DUP4 SUB DUP2 DUP7 GAS DELEGATECALL ISZERO DUP1 ISZERO PUSH2 0x29D6 JUMPI RETURNDATASIZE PUSH1 0x0 DUP1 RETURNDATACOPY RETURNDATASIZE PUSH1 0x0 REVERT JUMPDEST POP POP POP POP PUSH1 0x40 MLOAD RETURNDATASIZE PUSH1 0x1F NOT PUSH1 0x1F DUP3 ADD AND DUP3 ADD DUP1 PUSH1 0x40 MSTORE POP DUP2 ADD SWAP1 PUSH2 0x29FA SWAP2 SWAP1 PUSH2 0x3F63 JUMP JUMPDEST PUSH1 0x11 SLOAD PUSH1 0x40 MLOAD DUP4 PUSH4 0xFFFFFFFF AND PUSH1 0xE0 SHL DUP2 MSTORE PUSH1 0x4 ADD PUSH2 0x2A1A SWAP3 SWAP2 SWAP1 PUSH2 0x3F25 JUMP JUMPDEST PUSH1 0x20 PUSH1 0x40 MLOAD DUP1 DUP4 SUB DUP2 DUP7 GAS DELEGATECALL ISZERO DUP1 ISZERO PUSH2 0x2A37 JUMPI RETURNDATASIZE PUSH1 0x0 DUP1 RETURNDATACOPY RETURNDATASIZE PUSH1 0x0 REVERT JUMPDEST POP POP POP POP PUSH1 0x40 MLOAD RETURNDATASIZE PUSH1 0x1F NOT PUSH1 0x1F DUP3 ADD AND DUP3 ADD DUP1 PUSH1 0x40 MSTORE POP DUP2 ADD SWAP1 PUSH2 0x2A5B SWAP2 SWAP1 PUSH2 0x3F63 JUMP JUMPDEST SWAP1 POP PUSH1 0x0 PUSH20 0x0 PUSH4 0x3C4308A8 PUSH1 0x7 DUP7 PUSH1 0x40 MLOAD PUSH2 0x2A89 SWAP2 SWAP1 PUSH2 0x432A JUMP JUMPDEST SWAP1 DUP2 MSTORE PUSH1 0x20 ADD PUSH1 0x40 MLOAD DUP1 SWAP2 SUB SWAP1 KECCAK256 SLOAD DUP5 PUSH1 0x40 MLOAD DUP4 PUSH4 0xFFFFFFFF AND PUSH1 0xE0 SHL DUP2 MSTORE PUSH1 0x4 ADD PUSH2 0x2AB6 SWAP3 SWAP2 SWAP1 PUSH2 0x3F25 JUMP JUMPDEST PUSH1 0x20 PUSH1 0x40 MLOAD DUP1 DUP4 SUB DUP2 DUP7 GAS DELEGATECALL ISZERO DUP1 ISZERO PUSH2 0x2AD3 JUMPI RETURNDATASIZE PUSH1 0x0 DUP1 RETURNDATACOPY RETURNDATASIZE PUSH1 0x0 REVERT JUMPDEST POP POP POP POP PUSH1 0x40 MLOAD RETURNDATASIZE PUSH1 0x1F NOT PUSH1 0x1F DUP3 ADD AND DUP3 ADD DUP1 PUSH1 0x40 MSTORE POP DUP2 ADD SWAP1 PUSH2 0x2AF7 SWAP2 SWAP1 PUSH2 0x3F63 JUMP JUMPDEST SWAP1 POP DUP1 PUSH1 0x5 DUP6 PUSH1 0x40 MLOAD PUSH2 0x2B0A SWAP2 SWAP1 PUSH2 0x432A JUMP JUMPDEST SWAP1 DUP2 MSTORE PUSH1 0x20 ADD PUSH1 0x40 MLOAD DUP1 SWAP2 SUB SWAP1 KECCAK256 DUP2 SWAP1 SSTORE POP POP POP PUSH2 0x2D1B JUMP JUMPDEST PUSH1 0x7 DUP3 PUSH1 0x40 MLOAD PUSH2 0x2B33 SWAP2 SWAP1 PUSH2 0x432A JUMP JUMPDEST SWAP1 DUP2 MSTORE PUSH1 0x20 ADD PUSH1 0x40 MLOAD DUP1 SWAP2 SUB SWAP1 KECCAK256 SLOAD DUP2 SGT ISZERO PUSH2 0x2D1A JUMPI DUP1 PUSH1 0x7 DUP4 PUSH1 0x40 MLOAD PUSH2 0x2B5A SWAP2 SWAP1 PUSH2 0x432A JUMP JUMPDEST SWAP1 DUP2 MSTORE PUSH1 0x20 ADD PUSH1 0x40 MLOAD DUP1 SWAP2 SUB SWAP1 KECCAK256 DUP2 SWAP1 SSTORE POP PUSH1 0x0 PUSH20 0x0 PUSH4 0xB93EA812 PUSH20 0x0 PUSH4 0x2179BB6C PUSH1 0x40 MLOAD DUP2 PUSH4 0xFFFFFFFF AND PUSH1 0xE0 SHL DUP2 MSTORE PUSH1 0x4 ADD PUSH1 0x20 PUSH1 0x40 MLOAD DUP1 DUP4 SUB DUP2 DUP7 GAS DELEGATECALL ISZERO DUP1 ISZERO PUSH2 0x2BD1 JUMPI RETURNDATASIZE PUSH1 0x0 DUP1 RETURNDATACOPY RETURNDATASIZE PUSH1 0x0 REVERT JUMPDEST POP POP POP POP PUSH1 0x40 MLOAD RETURNDATASIZE PUSH1 0x1F NOT PUSH1 0x1F DUP3 ADD AND DUP3 ADD DUP1 PUSH1 0x40 MSTORE POP DUP2 ADD SWAP1 PUSH2 0x2BF5 SWAP2 SWAP1 PUSH2 0x3F63 JUMP JUMPDEST PUSH1 0x11 SLOAD PUSH1 0x40 MLOAD DUP4 PUSH4 0xFFFFFFFF AND PUSH1 0xE0 SHL DUP2 MSTORE PUSH1 0x4 ADD PUSH2 0x2C15 SWAP3 SWAP2 SWAP1 PUSH2 0x3F25 JUMP JUMPDEST PUSH1 0x20 PUSH1 0x40 MLOAD DUP1 DUP4 SUB DUP2 DUP7 GAS DELEGATECALL ISZERO DUP1 ISZERO PUSH2 0x2C32 JUMPI RETURNDATASIZE PUSH1 0x0 DUP1 RETURNDATACOPY RETURNDATASIZE PUSH1 0x0 REVERT JUMPDEST POP POP POP POP PUSH1 0x40 MLOAD RETURNDATASIZE PUSH1 0x1F NOT PUSH1 0x1F DUP3 ADD AND DUP3 ADD DUP1 PUSH1 0x40 MSTORE POP DUP2 ADD SWAP1 PUSH2 0x2C56 SWAP2 SWAP1 PUSH2 0x3F63 JUMP JUMPDEST SWAP1 POP PUSH1 0x0 PUSH20 0x0 PUSH4 0x3C4308A8 PUSH1 0x7 DUP7 PUSH1 0x40 MLOAD PUSH2 0x2C84 SWAP2 SWAP1 PUSH2 0x432A JUMP JUMPDEST SWAP1 DUP2 MSTORE PUSH1 0x20 ADD PUSH1 0x40 MLOAD DUP1 SWAP2 SUB SWAP1 KECCAK256 SLOAD DUP5 PUSH1 0x40 MLOAD DUP4 PUSH4 0xFFFFFFFF AND PUSH1 0xE0 SHL DUP2 MSTORE PUSH1 0x4 ADD PUSH2 0x2CB1 SWAP3 SWAP2 SWAP1 PUSH2 0x3F25 JUMP JUMPDEST PUSH1 0x20 PUSH1 0x40 MLOAD DUP1 DUP4 SUB DUP2 DUP7 GAS DELEGATECALL ISZERO DUP1 ISZERO PUSH2 0x2CCE JUMPI RETURNDATASIZE PUSH1 0x0 DUP1 RETURNDATACOPY RETURNDATASIZE PUSH1 0x0 REVERT JUMPDEST POP POP POP POP PUSH1 0x40 MLOAD RETURNDATASIZE PUSH1 0x1F NOT PUSH1 0x1F DUP3 ADD AND DUP3 ADD DUP1 PUSH1 0x40 MSTORE POP DUP2 ADD SWAP1 PUSH2 0x2CF2 SWAP2 SWAP1 PUSH2 0x3F63 JUMP JUMPDEST SWAP1 POP DUP1 PUSH1 0x5 DUP6 PUSH1 0x40 MLOAD PUSH2 0x2D05 SWAP2 SWAP1 PUSH2 0x432A JUMP JUMPDEST SWAP1 DUP2 MSTORE PUSH1 0x20 ADD PUSH1 0x40 MLOAD DUP1 SWAP2 SUB SWAP1 KECCAK256 DUP2 SWAP1 SSTORE POP POP POP JUMPDEST JUMPDEST POP POP JUMP JUMPDEST PUSH1 0x0 DUP1 PUSH1 0x0 DUP1 DUP5 SWAP1 POP PUSH2 0x2D31 DUP2 PUSH2 0x2D64 JUMP JUMPDEST DUP1 SWAP6 POP DUP2 SWAP3 POP POP POP PUSH2 0x2D43 DUP2 DUP6 PUSH2 0x2FD3 JUMP JUMPDEST DUP1 SWAP5 POP DUP2 SWAP3 POP POP POP PUSH2 0x2D54 DUP2 PUSH2 0x3359 JUMP JUMPDEST DUP1 SWAP4 POP DUP2 SWAP3 POP POP POP POP SWAP2 SWAP4 SWAP1 SWAP3 POP JUMP JUMPDEST PUSH1 0x0 DUP1 PUSH1 0x0 DUP1 DUP5 SWAP4 POP PUSH2 0x7B2 SWAP3 POP PUSH4 0x1E13380 PUSH1 0x2 PUSH2 0x2D83 SWAP2 SWAP1 PUSH2 0x472D JUMP JUMPDEST DUP5 LT ISZERO PUSH2 0x2DCC JUMPI PUSH4 0x1E13380 DUP5 PUSH2 0x2D9A SWAP2 SWAP1 PUSH2 0x4787 JUMP JUMPDEST SWAP2 POP PUSH4 0x1E13380 DUP3 PUSH2 0x2DAC SWAP2 SWAP1 PUSH2 0x472D JUMP JUMPDEST DUP5 PUSH2 0x2DB7 SWAP2 SWAP1 PUSH2 0x47B8 JUMP JUMPDEST SWAP4 POP DUP2 DUP4 PUSH2 0x2DC5 SWAP2 SWAP1 PUSH2 0x47FA JUMP JUMPDEST SWAP3 POP PUSH2 0x2FCC JUMP JUMPDEST PUSH4 0x1E13380 PUSH1 0x2 PUSH2 0x2DDD SWAP2 SWAP1 PUSH2 0x472D JUMP JUMPDEST DUP5 PUSH2 0x2DE8 SWAP2 SWAP1 PUSH2 0x47B8 JUMP JUMPDEST SWAP4 POP PUSH2 0x7B4 SWAP3 POP PUSH4 0x34AADC80 DUP5 LT PUSH2 0x2EFB JUMPI PUSH4 0x34AADC80 DUP5 PUSH2 0x2E0A SWAP2 SWAP1 PUSH2 0x47B8 JUMP JUMPDEST SWAP4 POP PUSH1 0x1C DUP4 PUSH2 0x2E19 SWAP2 SWAP1 PUSH2 0x47FA JUMP JUMPDEST SWAP3 POP PUSH5 0x2F0605980 DUP5 PUSH2 0x2E2C SWAP2 SWAP1 PUSH2 0x4787 JUMP JUMPDEST SWAP2 POP PUSH5 0x2F0605980 DUP3 PUSH2 0x2E3F SWAP2 SWAP1 PUSH2 0x472D JUMP JUMPDEST DUP5 PUSH2 0x2E4A SWAP2 SWAP1 PUSH2 0x47B8 JUMP JUMPDEST SWAP4 POP PUSH2 0x190 DUP3 PUSH2 0x2E5A SWAP2 SWAP1 PUSH2 0x472D JUMP JUMPDEST DUP4 PUSH2 0x2E65 SWAP2 SWAP1 PUSH2 0x47FA JUMP JUMPDEST SWAP3 POP PUSH2 0x2E70 DUP4 PUSH2 0x33A3 JUMP JUMPDEST SWAP1 POP DUP1 PUSH4 0xFFFFFFFF AND DUP5 LT PUSH2 0x2EA3 JUMPI DUP1 PUSH4 0xFFFFFFFF AND DUP5 PUSH2 0x2E91 SWAP2 SWAP1 PUSH2 0x47B8 JUMP JUMPDEST SWAP4 POP PUSH1 0x1 DUP4 PUSH2 0x2EA0 SWAP2 SWAP1 PUSH2 0x47FA JUMP JUMPDEST SWAP3 POP JUMPDEST PUSH2 0x2EAC DUP4 PUSH2 0x33DA JUMP JUMPDEST PUSH2 0x2EFA JUMPI PUSH4 0xBC17C200 DUP5 PUSH2 0x2EC0 SWAP2 SWAP1 PUSH2 0x4787 JUMP JUMPDEST SWAP2 POP PUSH4 0xBC17C200 DUP3 PUSH2 0x2ED2 SWAP2 SWAP1 PUSH2 0x472D JUMP JUMPDEST DUP5 PUSH2 0x2EDD SWAP2 SWAP1 PUSH2 0x47B8 JUMP JUMPDEST SWAP4 POP PUSH1 0x64 DUP3 PUSH2 0x2EEC SWAP2 SWAP1 PUSH2 0x472D JUMP JUMPDEST DUP4 PUSH2 0x2EF7 SWAP2 SWAP1 PUSH2 0x47FA JUMP JUMPDEST SWAP3 POP JUMPDEST JUMPDEST PUSH4 0x7861F80 DUP5 PUSH2 0x2F0B SWAP2 SWAP1 PUSH2 0x4787 JUMP JUMPDEST SWAP2 POP PUSH4 0x7861F80 DUP3 PUSH2 0x2F1D SWAP2 SWAP1 PUSH2 0x472D JUMP JUMPDEST DUP5 PUSH2 0x2F28 SWAP2 SWAP1 PUSH2 0x47B8 JUMP JUMPDEST SWAP4 POP PUSH1 0x4 DUP3 PUSH2 0x2F37 SWAP2 SWAP1 PUSH2 0x472D JUMP JUMPDEST DUP4 PUSH2 0x2F42 SWAP2 SWAP1 PUSH2 0x47FA JUMP JUMPDEST SWAP3 POP PUSH2 0x2F4D DUP4 PUSH2 0x33A3 JUMP JUMPDEST SWAP1 POP DUP1 PUSH4 0xFFFFFFFF AND DUP5 LT PUSH2 0x2F80 JUMPI DUP1 PUSH4 0xFFFFFFFF AND DUP5 PUSH2 0x2F6E SWAP2 SWAP1 PUSH2 0x47B8 JUMP JUMPDEST SWAP4 POP PUSH1 0x1 DUP4 PUSH2 0x2F7D SWAP2 SWAP1 PUSH2 0x47FA JUMP JUMPDEST SWAP3 POP JUMPDEST PUSH2 0x2F89 DUP4 PUSH2 0x33DA JUMP JUMPDEST PUSH2 0x2FCB JUMPI PUSH4 0x1E13380 DUP5 PUSH2 0x2F9D SWAP2 SWAP1 PUSH2 0x4787 JUMP JUMPDEST SWAP2 POP PUSH4 0x1E13380 DUP3 PUSH2 0x2FAF SWAP2 SWAP1 PUSH2 0x472D JUMP JUMPDEST DUP5 PUSH2 0x2FBA SWAP2 SWAP1 PUSH2 0x47B8 JUMP JUMPDEST SWAP4 POP DUP2 DUP4 PUSH2 0x2FC8 SWAP2 SWAP1 PUSH2 0x47FA JUMP JUMPDEST SWAP3 POP JUMPDEST JUMPDEST POP POP SWAP2 POP SWAP2 JUMP JUMPDEST PUSH1 0x0 DUP1 PUSH2 0x2FDE PUSH2 0x34DC JUMP JUMPDEST PUSH2 0x2FE6 PUSH2 0x34FF JUMP JUMPDEST DUP6 SWAP4 POP PUSH2 0x2FF2 DUP6 PUSH2 0x33DA JUMP JUMPDEST ISZERO PUSH2 0x315D JUMPI PUSH1 0x40 MLOAD DUP1 PUSH2 0x1A0 ADD PUSH1 0x40 MSTORE DUP1 PUSH1 0x0 PUSH1 0xFF AND DUP2 MSTORE PUSH1 0x20 ADD PUSH1 0x1F PUSH1 0xFF AND DUP2 MSTORE PUSH1 0x20 ADD PUSH1 0x1D PUSH1 0xFF AND DUP2 MSTORE PUSH1 0x20 ADD PUSH1 0x1F PUSH1 0xFF AND DUP2 MSTORE PUSH1 0x20 ADD PUSH1 0x1E PUSH1 0xFF AND DUP2 MSTORE PUSH1 0x20 ADD PUSH1 0x1F PUSH1 0xFF AND DUP2 MSTORE PUSH1 0x20 ADD PUSH1 0x1E PUSH1 0xFF AND DUP2 MSTORE PUSH1 0x20 ADD PUSH1 0x1F PUSH1 0xFF AND DUP2 MSTORE PUSH1 0x20 ADD PUSH1 0x1F PUSH1 0xFF AND DUP2 MSTORE PUSH1 0x20 ADD PUSH1 0x1E PUSH1 0xFF AND DUP2 MSTORE PUSH1 0x20 ADD PUSH1 0x1F PUSH1 0xFF AND DUP2 MSTORE PUSH1 0x20 ADD PUSH1 0x1E PUSH1 0xFF AND DUP2 MSTORE PUSH1 0x20 ADD PUSH1 0x1F PUSH1 0xFF AND DUP2 MSTORE POP SWAP2 POP PUSH1 0x40 MLOAD DUP1 PUSH2 0x1A0 ADD PUSH1 0x40 MSTORE DUP1 PUSH1 0x0 PUSH4 0xFFFFFFFF AND DUP2 MSTORE PUSH1 0x20 ADD PUSH3 0x28DE80 PUSH4 0xFFFFFFFF AND DUP2 MSTORE PUSH1 0x20 ADD PUSH3 0x4F1A00 PUSH4 0xFFFFFFFF AND DUP2 MSTORE PUSH1 0x20 ADD PUSH3 0x77F880 PUSH4 0xFFFFFFFF AND DUP2 MSTORE PUSH1 0x20 ADD PUSH3 0x9F8580 PUSH4 0xFFFFFFFF AND DUP2 MSTORE PUSH1 0x20 ADD PUSH3 0xC86400 PUSH4 0xFFFFFFFF AND DUP2 MSTORE PUSH1 0x20 ADD PUSH3 0xEFF100 PUSH4 0xFFFFFFFF AND DUP2 MSTORE PUSH1 0x20 ADD PUSH4 0x118CF80 PUSH4 0xFFFFFFFF AND DUP2 MSTORE PUSH1 0x20 ADD PUSH4 0x141AE00 PUSH4 0xFFFFFFFF AND DUP2 MSTORE PUSH1 0x20 ADD PUSH4 0x1693B00 PUSH4 0xFFFFFFFF AND DUP2 MSTORE PUSH1 0x20 ADD PUSH4 0x1921980 PUSH4 0xFFFFFFFF AND DUP2 MSTORE PUSH1 0x20 ADD PUSH4 0x1B9A680 PUSH4 0xFFFFFFFF AND DUP2 MSTORE PUSH1 0x20 ADD PUSH4 0x1E28500 PUSH4 0xFFFFFFFF AND DUP2 MSTORE POP SWAP1 POP PUSH2 0x32BF JUMP JUMPDEST PUSH1 0x40 MLOAD DUP1 PUSH2 0x1A0 ADD PUSH1 0x40 MSTORE DUP1 PUSH1 0x0 PUSH1 0xFF AND DUP2 MSTORE PUSH1 0x20 ADD PUSH1 0x1F PUSH1 0xFF AND DUP2 MSTORE PUSH1 0x20 ADD PUSH1 0x1C PUSH1 0xFF AND DUP2 MSTORE PUSH1 0x20 ADD PUSH1 0x1F PUSH1 0xFF AND DUP2 MSTORE PUSH1 0x20 ADD PUSH1 0x1E PUSH1 0xFF AND DUP2 MSTORE PUSH1 0x20 ADD PUSH1 0x1F PUSH1 0xFF AND DUP2 MSTORE PUSH1 0x20 ADD PUSH1 0x1E PUSH1 0xFF AND DUP2 MSTORE PUSH1 0x20 ADD PUSH1 0x1F PUSH1 0xFF AND DUP2 MSTORE PUSH1 0x20 ADD PUSH1 0x1F PUSH1 0xFF AND DUP2 MSTORE PUSH1 0x20 ADD PUSH1 0x1E PUSH1 0xFF AND DUP2 MSTORE PUSH1 0x20 ADD PUSH1 0x1F PUSH1 0xFF AND DUP2 MSTORE PUSH1 0x20 ADD PUSH1 0x1E PUSH1 0xFF AND DUP2 MSTORE PUSH1 0x20 ADD PUSH1 0x1F PUSH1 0xFF AND DUP2 MSTORE POP SWAP2 POP PUSH1 0x40 MLOAD DUP1 PUSH2 0x1A0 ADD PUSH1 0x40 MSTORE DUP1 PUSH1 0x0 PUSH4 0xFFFFFFFF AND DUP2 MSTORE PUSH1 0x20 ADD PUSH3 0x28DE80 PUSH4 0xFFFFFFFF AND DUP2 MSTORE PUSH1 0x20 ADD PUSH3 0x4DC880 PUSH4 0xFFFFFFFF AND DUP2 MSTORE PUSH1 0x20 ADD PUSH3 0x76A700 PUSH4 0xFFFFFFFF AND DUP2 MSTORE PUSH1 0x20 ADD PUSH3 0x9E3400 PUSH4 0xFFFFFFFF AND DUP2 MSTORE PUSH1 0x20 ADD PUSH3 0xC71280 PUSH4 0xFFFFFFFF AND DUP2 MSTORE PUSH1 0x20 ADD PUSH3 0xEE9F80 PUSH4 0xFFFFFFFF AND DUP2 MSTORE PUSH1 0x20 ADD PUSH4 0x1177E00 PUSH4 0xFFFFFFFF AND DUP2 MSTORE PUSH1 0x20 ADD PUSH4 0x1405C80 PUSH4 0xFFFFFFFF AND DUP2 MSTORE PUSH1 0x20 ADD PUSH4 0x167E980 PUSH4 0xFFFFFFFF AND DUP2 MSTORE PUSH1 0x20 ADD PUSH4 0x190C800 PUSH4 0xFFFFFFFF AND DUP2 MSTORE PUSH1 0x20 ADD PUSH4 0x1B85500 PUSH4 0xFFFFFFFF AND DUP2 MSTORE PUSH1 0x20 ADD PUSH4 0x1E13380 PUSH4 0xFFFFFFFF AND DUP2 MSTORE POP SWAP1 POP JUMPDEST PUSH1 0x0 PUSH1 0x1 SWAP1 POP JUMPDEST PUSH1 0xD DUP2 PUSH1 0xFF AND LT ISZERO PUSH2 0x334F JUMPI DUP2 DUP2 PUSH1 0xFF AND PUSH1 0xD DUP2 LT PUSH2 0x32E8 JUMPI PUSH2 0x32E7 PUSH2 0x3F90 JUMP JUMPDEST JUMPDEST PUSH1 0x20 MUL ADD MLOAD PUSH4 0xFFFFFFFF AND DUP6 LT ISZERO PUSH2 0x333C JUMPI DUP1 SWAP4 POP DUP2 PUSH1 0x1 DUP3 PUSH2 0x330B SWAP2 SWAP1 PUSH2 0x483F JUMP JUMPDEST PUSH1 0xFF AND PUSH1 0xD DUP2 LT PUSH2 0x331F JUMPI PUSH2 0x331E PUSH2 0x3F90 JUMP JUMPDEST JUMPDEST PUSH1 0x20 MUL ADD MLOAD PUSH4 0xFFFFFFFF AND DUP6 PUSH2 0x3335 SWAP2 SWAP1 PUSH2 0x47B8 JUMP JUMPDEST SWAP5 POP PUSH2 0x334F JUMP JUMPDEST DUP1 DUP1 PUSH2 0x3347 SWAP1 PUSH2 0x4873 JUMP JUMPDEST SWAP2 POP POP PUSH2 0x32C6 JUMP JUMPDEST POP POP POP SWAP3 POP SWAP3 SWAP1 POP JUMP JUMPDEST PUSH1 0x0 DUP1 PUSH1 0x0 DUP4 SWAP3 POP PUSH3 0x15180 DUP4 PUSH2 0x3370 SWAP2 SWAP1 PUSH2 0x4787 JUMP JUMPDEST SWAP1 POP PUSH3 0x15180 DUP2 PUSH2 0x3381 SWAP2 SWAP1 PUSH2 0x472D JUMP JUMPDEST DUP4 PUSH2 0x338C SWAP2 SWAP1 PUSH2 0x47B8 JUMP JUMPDEST SWAP3 POP PUSH1 0x1 DUP2 PUSH2 0x339B SWAP2 SWAP1 PUSH2 0x45AA JUMP JUMPDEST SWAP2 POP POP SWAP2 POP SWAP2 JUMP JUMPDEST PUSH1 0x0 PUSH2 0x33AE DUP3 PUSH2 0x33DA JUMP JUMPDEST ISZERO PUSH2 0x33CD JUMPI PUSH3 0x15180 PUSH4 0x1E13380 PUSH2 0x33C6 SWAP2 SWAP1 PUSH2 0x45AA JUMP JUMPDEST SWAP1 POP PUSH2 0x33D5 JUMP JUMPDEST PUSH4 0x1E13380 SWAP1 POP JUMPDEST SWAP2 SWAP1 POP JUMP JUMPDEST PUSH1 0x0 DUP1 PUSH1 0x4 DUP4 PUSH2 0x33EA SWAP2 SWAP1 PUSH2 0x489C JUMP JUMPDEST PUSH2 0xFFFF AND EQ PUSH2 0x33FC JUMPI PUSH1 0x0 SWAP1 POP PUSH2 0x3440 JUMP JUMPDEST PUSH1 0x0 PUSH2 0x190 DUP4 PUSH2 0x340C SWAP2 SWAP1 PUSH2 0x489C JUMP JUMPDEST PUSH2 0xFFFF AND EQ DUP1 PUSH2 0x342D JUMPI POP PUSH1 0x0 PUSH1 0x64 DUP4 PUSH2 0x3426 SWAP2 SWAP1 PUSH2 0x489C JUMP JUMPDEST PUSH2 0xFFFF AND EQ ISZERO JUMPDEST ISZERO PUSH2 0x343B JUMPI PUSH1 0x1 SWAP1 POP PUSH2 0x3440 JUMP JUMPDEST PUSH1 0x0 SWAP1 POP JUMPDEST SWAP2 SWAP1 POP JUMP JUMPDEST PUSH1 0x40 MLOAD DUP1 PUSH1 0xC0 ADD PUSH1 0x40 MSTORE DUP1 PUSH1 0x60 DUP2 MSTORE PUSH1 0x20 ADD PUSH1 0x0 DUP2 MSTORE PUSH1 0x20 ADD PUSH1 0x60 DUP2 MSTORE PUSH1 0x20 ADD PUSH1 0x0 DUP2 MSTORE PUSH1 0x20 ADD PUSH1 0x0 DUP2 MSTORE PUSH1 0x20 ADD PUSH1 0x0 DUP2 MSTORE POP SWAP1 JUMP JUMPDEST POP DUP1 SLOAD PUSH2 0x3487 SWAP1 PUSH2 0x3FEE JUMP JUMPDEST PUSH1 0x0 DUP3 SSTORE DUP1 PUSH1 0x1F LT PUSH2 0x3499 JUMPI POP PUSH2 0x34B8 JUMP JUMPDEST PUSH1 0x1F ADD PUSH1 0x20 SWAP1 DIV SWAP1 PUSH1 0x0 MSTORE PUSH1 0x20 PUSH1 0x0 KECCAK256 SWAP1 DUP2 ADD SWAP1 PUSH2 0x34B7 SWAP2 SWAP1 PUSH2 0x3522 JUMP JUMPDEST JUMPDEST POP JUMP JUMPDEST POP DUP1 SLOAD PUSH1 0x0 DUP3 SSTORE SWAP1 PUSH1 0x0 MSTORE PUSH1 0x20 PUSH1 0x0 KECCAK256 SWAP1 DUP2 ADD SWAP1 PUSH2 0x34D9 SWAP2 SWAP1 PUSH2 0x353F JUMP JUMPDEST POP JUMP JUMPDEST PUSH1 0x40 MLOAD DUP1 PUSH2 0x1A0 ADD PUSH1 0x40 MSTORE DUP1 PUSH1 0xD SWAP1 PUSH1 0x20 DUP3 MUL DUP1 CALLDATASIZE DUP4 CALLDATACOPY DUP1 DUP3 ADD SWAP2 POP POP SWAP1 POP POP SWAP1 JUMP JUMPDEST PUSH1 0x40 MLOAD DUP1 PUSH2 0x1A0 ADD PUSH1 0x40 MSTORE DUP1 PUSH1 0xD SWAP1 PUSH1 0x20 DUP3 MUL DUP1 CALLDATASIZE DUP4 CALLDATACOPY DUP1 DUP3 ADD SWAP2 POP POP SWAP1 POP POP SWAP1 JUMP JUMPDEST JUMPDEST DUP1 DUP3 GT ISZERO PUSH2 0x353B JUMPI PUSH1 0x0 DUP2 PUSH1 0x0 SWAP1 SSTORE POP PUSH1 0x1 ADD PUSH2 0x3523 JUMP JUMPDEST POP SWAP1 JUMP JUMPDEST JUMPDEST DUP1 DUP3 GT ISZERO PUSH2 0x355F JUMPI PUSH1 0x0 DUP2 DUP2 PUSH2 0x3556 SWAP2 SWAP1 PUSH2 0x347B JUMP JUMPDEST POP PUSH1 0x1 ADD PUSH2 0x3540 JUMP JUMPDEST POP SWAP1 JUMP JUMPDEST PUSH1 0x0 PUSH1 0x40 MLOAD SWAP1 POP SWAP1 JUMP JUMPDEST PUSH1 0x0 DUP1 REVERT JUMPDEST PUSH1 0x0 DUP1 REVERT JUMPDEST PUSH1 0x0 DUP1 REVERT JUMPDEST PUSH1 0x0 DUP1 REVERT JUMPDEST PUSH1 0x0 PUSH1 0x1F NOT PUSH1 0x1F DUP4 ADD AND SWAP1 POP SWAP2 SWAP1 POP JUMP JUMPDEST PUSH32 0x4E487B7100000000000000000000000000000000000000000000000000000000 PUSH1 0x0 MSTORE PUSH1 0x41 PUSH1 0x4 MSTORE PUSH1 0x24 PUSH1 0x0 REVERT JUMPDEST PUSH2 0x35CA DUP3 PUSH2 0x3581 JUMP JUMPDEST DUP2 ADD DUP2 DUP2 LT PUSH8 0xFFFFFFFFFFFFFFFF DUP3 GT OR ISZERO PUSH2 0x35E9 JUMPI PUSH2 0x35E8 PUSH2 0x3592 JUMP JUMPDEST JUMPDEST DUP1 PUSH1 0x40 MSTORE POP POP POP JUMP JUMPDEST PUSH1 0x0 PUSH2 0x35FC PUSH2 0x3563 JUMP JUMPDEST SWAP1 POP PUSH2 0x3608 DUP3 DUP3 PUSH2 0x35C1 JUMP JUMPDEST SWAP2 SWAP1 POP JUMP JUMPDEST PUSH1 0x0 PUSH8 0xFFFFFFFFFFFFFFFF DUP3 GT ISZERO PUSH2 0x3628 JUMPI PUSH2 0x3627 PUSH2 0x3592 JUMP JUMPDEST JUMPDEST PUSH2 0x3631 DUP3 PUSH2 0x3581 JUMP JUMPDEST SWAP1 POP PUSH1 0x20 DUP2 ADD SWAP1 POP SWAP2 SWAP1 POP JUMP JUMPDEST DUP3 DUP2 DUP4 CALLDATACOPY PUSH1 0x0 DUP4 DUP4 ADD MSTORE POP POP POP JUMP JUMPDEST PUSH1 0x0 PUSH2 0x3660 PUSH2 0x365B DUP5 PUSH2 0x360D JUMP JUMPDEST PUSH2 0x35F2 JUMP JUMPDEST SWAP1 POP DUP3 DUP2 MSTORE PUSH1 0x20 DUP2 ADD DUP5 DUP5 DUP5 ADD GT ISZERO PUSH2 0x367C JUMPI PUSH2 0x367B PUSH2 0x357C JUMP JUMPDEST JUMPDEST PUSH2 0x3687 DUP5 DUP3 DUP6 PUSH2 0x363E JUMP JUMPDEST POP SWAP4 SWAP3 POP POP POP JUMP JUMPDEST PUSH1 0x0 DUP3 PUSH1 0x1F DUP4 ADD SLT PUSH2 0x36A4 JUMPI PUSH2 0x36A3 PUSH2 0x3577 JUMP JUMPDEST JUMPDEST DUP2 CALLDATALOAD PUSH2 0x36B4 DUP5 DUP3 PUSH1 0x20 DUP7 ADD PUSH2 0x364D JUMP JUMPDEST SWAP2 POP POP SWAP3 SWAP2 POP POP JUMP JUMPDEST PUSH1 0x0 DUP2 SWAP1 POP SWAP2 SWAP1 POP JUMP JUMPDEST PUSH2 0x36D0 DUP2 PUSH2 0x36BD JUMP JUMPDEST DUP2 EQ PUSH2 0x36DB JUMPI PUSH1 0x0 DUP1 REVERT JUMPDEST POP JUMP JUMPDEST PUSH1 0x0 DUP2 CALLDATALOAD SWAP1 POP PUSH2 0x36ED DUP2 PUSH2 0x36C7 JUMP JUMPDEST SWAP3 SWAP2 POP POP JUMP JUMPDEST PUSH1 0x0 DUP2 SWAP1 POP SWAP2 SWAP1 POP JUMP JUMPDEST PUSH2 0x3706 DUP2 PUSH2 0x36F3 JUMP JUMPDEST DUP2 EQ PUSH2 0x3711 JUMPI PUSH1 0x0 DUP1 REVERT JUMPDEST POP JUMP JUMPDEST PUSH1 0x0 DUP2 CALLDATALOAD SWAP1 POP PUSH2 0x3723 DUP2 PUSH2 0x36FD JUMP JUMPDEST SWAP3 SWAP2 POP POP JUMP JUMPDEST PUSH1 0x0 DUP1 PUSH1 0x0 DUP1 PUSH1 0x80 DUP6 DUP8 SUB SLT ISZERO PUSH2 0x3743 JUMPI PUSH2 0x3742 PUSH2 0x356D JUMP JUMPDEST JUMPDEST PUSH1 0x0 DUP6 ADD CALLDATALOAD PUSH8 0xFFFFFFFFFFFFFFFF DUP2 GT ISZERO PUSH2 0x3761 JUMPI PUSH2 0x3760 PUSH2 0x3572 JUMP JUMPDEST JUMPDEST PUSH2 0x376D DUP8 DUP3 DUP9 ADD PUSH2 0x368F JUMP JUMPDEST SWAP5 POP POP PUSH1 0x20 PUSH2 0x377E DUP8 DUP3 DUP9 ADD PUSH2 0x36DE JUMP JUMPDEST SWAP4 POP POP PUSH1 0x40 PUSH2 0x378F DUP8 DUP3 DUP9 ADD PUSH2 0x36DE JUMP JUMPDEST SWAP3 POP POP PUSH1 0x60 PUSH2 0x37A0 DUP8 DUP3 DUP9 ADD PUSH2 0x3714 JUMP JUMPDEST SWAP2 POP POP SWAP3 SWAP6 SWAP2 SWAP5 POP SWAP3 POP JUMP JUMPDEST PUSH1 0x0 DUP2 MLOAD SWAP1 POP SWAP2 SWAP1 POP JUMP JUMPDEST PUSH1 0x0 DUP3 DUP3 MSTORE PUSH1 0x20 DUP3 ADD SWAP1 POP SWAP3 SWAP2 POP POP JUMP JUMPDEST PUSH1 0x0 JUMPDEST DUP4 DUP2 LT ISZERO PUSH2 0x37E6 JUMPI DUP1 DUP3 ADD MLOAD DUP2 DUP5 ADD MSTORE PUSH1 0x20 DUP2 ADD SWAP1 POP PUSH2 0x37CB JUMP JUMPDEST DUP4 DUP2 GT ISZERO PUSH2 0x37F5 JUMPI PUSH1 0x0 DUP5 DUP5 ADD MSTORE JUMPDEST POP POP POP POP JUMP JUMPDEST PUSH1 0x0 PUSH2 0x3806 DUP3 PUSH2 0x37AC JUMP JUMPDEST PUSH2 0x3810 DUP2 DUP6 PUSH2 0x37B7 JUMP JUMPDEST SWAP4 POP PUSH2 0x3820 DUP2 DUP6 PUSH1 0x20 DUP7 ADD PUSH2 0x37C8 JUMP JUMPDEST PUSH2 0x3829 DUP2 PUSH2 0x3581 JUMP JUMPDEST DUP5 ADD SWAP2 POP POP SWAP3 SWAP2 POP POP JUMP JUMPDEST PUSH2 0x383D DUP2 PUSH2 0x36F3 JUMP JUMPDEST DUP3 MSTORE POP POP JUMP JUMPDEST PUSH2 0x384C DUP2 PUSH2 0x36BD JUMP JUMPDEST DUP3 MSTORE POP POP JUMP JUMPDEST PUSH1 0x0 PUSH1 0xC0 DUP4 ADD PUSH1 0x0 DUP4 ADD MLOAD DUP5 DUP3 SUB PUSH1 0x0 DUP7 ADD MSTORE PUSH2 0x386F DUP3 DUP3 PUSH2 0x37FB JUMP JUMPDEST SWAP2 POP POP PUSH1 0x20 DUP4 ADD MLOAD PUSH2 0x3884 PUSH1 0x20 DUP7 ADD DUP3 PUSH2 0x3834 JUMP JUMPDEST POP PUSH1 0x40 DUP4 ADD MLOAD DUP5 DUP3 SUB PUSH1 0x40 DUP7 ADD MSTORE PUSH2 0x389C DUP3 DUP3 PUSH2 0x37FB JUMP JUMPDEST SWAP2 POP POP PUSH1 0x60 DUP4 ADD MLOAD PUSH2 0x38B1 PUSH1 0x60 DUP7 ADD DUP3 PUSH2 0x3843 JUMP JUMPDEST POP PUSH1 0x80 DUP4 ADD MLOAD PUSH2 0x38C4 PUSH1 0x80 DUP7 ADD DUP3 PUSH2 0x3843 JUMP JUMPDEST POP PUSH1 0xA0 DUP4 ADD MLOAD PUSH2 0x38D7 PUSH1 0xA0 DUP7 ADD DUP3 PUSH2 0x3843 JUMP JUMPDEST POP DUP1 SWAP2 POP POP SWAP3 SWAP2 POP POP JUMP JUMPDEST PUSH1 0x0 PUSH1 0x20 DUP3 ADD SWAP1 POP DUP2 DUP2 SUB PUSH1 0x0 DUP4 ADD MSTORE PUSH2 0x38FC DUP2 DUP5 PUSH2 0x3852 JUMP JUMPDEST SWAP1 POP SWAP3 SWAP2 POP POP JUMP JUMPDEST PUSH1 0x0 PUSH1 0x20 DUP3 DUP5 SUB SLT ISZERO PUSH2 0x391A JUMPI PUSH2 0x3919 PUSH2 0x356D JUMP JUMPDEST JUMPDEST PUSH1 0x0 PUSH2 0x3928 DUP5 DUP3 DUP6 ADD PUSH2 0x3714 JUMP JUMPDEST SWAP2 POP POP SWAP3 SWAP2 POP POP JUMP JUMPDEST PUSH2 0x393A DUP2 PUSH2 0x36BD JUMP JUMPDEST DUP3 MSTORE POP POP JUMP JUMPDEST PUSH1 0x0 PUSH1 0x40 DUP3 ADD SWAP1 POP PUSH2 0x3955 PUSH1 0x0 DUP4 ADD DUP6 PUSH2 0x3931 JUMP JUMPDEST PUSH2 0x3962 PUSH1 0x20 DUP4 ADD DUP5 PUSH2 0x3931 JUMP JUMPDEST SWAP4 SWAP3 POP POP POP JUMP JUMPDEST PUSH1 0x0 DUP1 PUSH1 0x0 DUP1 PUSH1 0x0 DUP1 PUSH1 0x0 PUSH1 0xE0 DUP9 DUP11 SUB SLT ISZERO PUSH2 0x3988 JUMPI PUSH2 0x3987 PUSH2 0x356D JUMP JUMPDEST JUMPDEST PUSH1 0x0 PUSH2 0x3996 DUP11 DUP3 DUP12 ADD PUSH2 0x3714 JUMP JUMPDEST SWAP8 POP POP PUSH1 0x20 PUSH2 0x39A7 DUP11 DUP3 DUP12 ADD PUSH2 0x36DE JUMP JUMPDEST SWAP7 POP POP PUSH1 0x40 PUSH2 0x39B8 DUP11 DUP3 DUP12 ADD PUSH2 0x36DE JUMP JUMPDEST SWAP6 POP POP PUSH1 0x60 PUSH2 0x39C9 DUP11 DUP3 DUP12 ADD PUSH2 0x36DE JUMP JUMPDEST SWAP5 POP POP PUSH1 0x80 PUSH2 0x39DA DUP11 DUP3 DUP12 ADD PUSH2 0x36DE JUMP JUMPDEST SWAP4 POP POP PUSH1 0xA0 PUSH2 0x39EB DUP11 DUP3 DUP12 ADD PUSH2 0x36DE JUMP JUMPDEST SWAP3 POP POP PUSH1 0xC0 PUSH2 0x39FC DUP11 DUP3 DUP12 ADD PUSH2 0x36DE JUMP JUMPDEST SWAP2 POP POP SWAP3 SWAP6 SWAP9 SWAP2 SWAP5 SWAP8 POP SWAP3 SWAP6 POP JUMP JUMPDEST PUSH1 0x0 PUSH1 0xA0 DUP3 ADD SWAP1 POP PUSH2 0x3A20 PUSH1 0x0 DUP4 ADD DUP9 PUSH2 0x3931 JUMP JUMPDEST PUSH2 0x3A2D PUSH1 0x20 DUP4 ADD DUP8 PUSH2 0x3931 JUMP JUMPDEST PUSH2 0x3A3A PUSH1 0x40 DUP4 ADD DUP7 PUSH2 0x3931 JUMP JUMPDEST PUSH2 0x3A47 PUSH1 0x60 DUP4 ADD DUP6 PUSH2 0x3931 JUMP JUMPDEST PUSH2 0x3A54 PUSH1 0x80 DUP4 ADD DUP5 PUSH2 0x3931 JUMP JUMPDEST SWAP7 SWAP6 POP POP POP POP POP POP JUMP JUMPDEST PUSH1 0x0 DUP1 PUSH1 0x40 DUP4 DUP6 SUB SLT ISZERO PUSH2 0x3A75 JUMPI PUSH2 0x3A74 PUSH2 0x356D JUMP JUMPDEST JUMPDEST PUSH1 0x0 PUSH2 0x3A83 DUP6 DUP3 DUP7 ADD PUSH2 0x3714 JUMP JUMPDEST SWAP3 POP POP PUSH1 0x20 PUSH2 0x3A94 DUP6 DUP3 DUP7 ADD PUSH2 0x3714 JUMP JUMPDEST SWAP2 POP POP SWAP3 POP SWAP3 SWAP1 POP JUMP JUMPDEST PUSH1 0x0 DUP1 PUSH1 0x0 DUP1 PUSH1 0x0 DUP1 PUSH1 0xC0 DUP8 DUP10 SUB SLT ISZERO PUSH2 0x3ABB JUMPI PUSH2 0x3ABA PUSH2 0x356D JUMP JUMPDEST JUMPDEST PUSH1 0x0 PUSH2 0x3AC9 DUP10 DUP3 DUP11 ADD PUSH2 0x3714 JUMP JUMPDEST SWAP7 POP POP PUSH1 0x20 PUSH2 0x3ADA DUP10 DUP3 DUP11 ADD PUSH2 0x36DE JUMP JUMPDEST SWAP6 POP POP PUSH1 0x40 PUSH2 0x3AEB DUP10 DUP3 DUP11 ADD PUSH2 0x36DE JUMP JUMPDEST SWAP5 POP POP PUSH1 0x60 PUSH2 0x3AFC DUP10 DUP3 DUP11 ADD PUSH2 0x36DE JUMP JUMPDEST SWAP4 POP POP PUSH1 0x80 PUSH2 0x3B0D DUP10 DUP3 DUP11 ADD PUSH2 0x36DE JUMP JUMPDEST SWAP3 POP POP PUSH1 0xA0 PUSH2 0x3B1E DUP10 DUP3 DUP11 ADD PUSH2 0x36DE JUMP JUMPDEST SWAP2 POP POP SWAP3 SWAP6 POP SWAP3 SWAP6 POP SWAP3 SWAP6 JUMP JUMPDEST PUSH1 0x0 DUP3 DUP3 MSTORE PUSH1 0x20 DUP3 ADD SWAP1 POP SWAP3 SWAP2 POP POP JUMP JUMPDEST PUSH1 0x0 PUSH2 0x3B47 DUP3 PUSH2 0x37AC JUMP JUMPDEST PUSH2 0x3B51 DUP2 DUP6 PUSH2 0x3B2B JUMP JUMPDEST SWAP4 POP PUSH2 0x3B61 DUP2 DUP6 PUSH1 0x20 DUP7 ADD PUSH2 0x37C8 JUMP JUMPDEST PUSH2 0x3B6A DUP2 PUSH2 0x3581 JUMP JUMPDEST DUP5 ADD SWAP2 POP POP SWAP3 SWAP2 POP POP JUMP JUMPDEST PUSH1 0x0 PUSH1 0x20 DUP3 ADD SWAP1 POP DUP2 DUP2 SUB PUSH1 0x0 DUP4 ADD MSTORE PUSH2 0x3B8F DUP2 DUP5 PUSH2 0x3B3C JUMP JUMPDEST SWAP1 POP SWAP3 SWAP2 POP POP JUMP JUMPDEST PUSH1 0x0 DUP1 PUSH1 0x40 DUP4 DUP6 SUB SLT ISZERO PUSH2 0x3BAE JUMPI PUSH2 0x3BAD PUSH2 0x356D JUMP JUMPDEST JUMPDEST PUSH1 0x0 DUP4 ADD CALLDATALOAD PUSH8 0xFFFFFFFFFFFFFFFF DUP2 GT ISZERO PUSH2 0x3BCC JUMPI PUSH2 0x3BCB PUSH2 0x3572 JUMP JUMPDEST JUMPDEST PUSH2 0x3BD8 DUP6 DUP3 DUP7 ADD PUSH2 0x368F JUMP JUMPDEST SWAP3 POP POP PUSH1 0x20 PUSH2 0x3BE9 DUP6 DUP3 DUP7 ADD PUSH2 0x3714 JUMP JUMPDEST SWAP2 POP POP SWAP3 POP SWAP3 SWAP1 POP JUMP JUMPDEST PUSH2 0x3BFC DUP2 PUSH2 0x36F3 JUMP JUMPDEST DUP3 MSTORE POP POP JUMP JUMPDEST PUSH1 0x0 PUSH1 0xC0 DUP3 ADD SWAP1 POP DUP2 DUP2 SUB PUSH1 0x0 DUP4 ADD MSTORE PUSH2 0x3C1C DUP2 DUP10 PUSH2 0x3B3C JUMP JUMPDEST SWAP1 POP PUSH2 0x3C2B PUSH1 0x20 DUP4 ADD DUP9 PUSH2 0x3BF3 JUMP JUMPDEST DUP2 DUP2 SUB PUSH1 0x40 DUP4 ADD MSTORE PUSH2 0x3C3D DUP2 DUP8 PUSH2 0x3B3C JUMP JUMPDEST SWAP1 POP PUSH2 0x3C4C PUSH1 0x60 DUP4 ADD DUP7 PUSH2 0x3931 JUMP JUMPDEST PUSH2 0x3C59 PUSH1 0x80 DUP4 ADD DUP6 PUSH2 0x3931 JUMP JUMPDEST PUSH2 0x3C66 PUSH1 0xA0 DUP4 ADD DUP5 PUSH2 0x3931 JUMP JUMPDEST SWAP8 SWAP7 POP POP POP POP POP POP POP JUMP JUMPDEST PUSH1 0x0 DUP1 PUSH1 0x0 PUSH1 0x60 DUP5 DUP7 SUB SLT ISZERO PUSH2 0x3C8A JUMPI PUSH2 0x3C89 PUSH2 0x356D JUMP JUMPDEST JUMPDEST PUSH1 0x0 PUSH2 0x3C98 DUP7 DUP3 DUP8 ADD PUSH2 0x3714 JUMP JUMPDEST SWAP4 POP POP PUSH1 0x20 PUSH2 0x3CA9 DUP7 DUP3 DUP8 ADD PUSH2 0x36DE JUMP JUMPDEST SWAP3 POP POP PUSH1 0x40 PUSH2 0x3CBA DUP7 DUP3 DUP8 ADD PUSH2 0x36DE JUMP JUMPDEST SWAP2 POP POP SWAP3 POP SWAP3 POP SWAP3 JUMP JUMPDEST PUSH1 0x0 DUP1 PUSH1 0x0 DUP1 PUSH1 0x0 DUP1 PUSH1 0x0 DUP1 PUSH1 0x0 DUP1 PUSH1 0x0 PUSH2 0x160 DUP13 DUP15 SUB SLT ISZERO PUSH2 0x3CEA JUMPI PUSH2 0x3CE9 PUSH2 0x356D JUMP JUMPDEST JUMPDEST PUSH1 0x0 PUSH2 0x3CF8 DUP15 DUP3 DUP16 ADD PUSH2 0x3714 JUMP JUMPDEST SWAP12 POP POP PUSH1 0x20 DUP13 ADD CALLDATALOAD PUSH8 0xFFFFFFFFFFFFFFFF DUP2 GT ISZERO PUSH2 0x3D19 JUMPI PUSH2 0x3D18 PUSH2 0x3572 JUMP JUMPDEST JUMPDEST PUSH2 0x3D25 DUP15 DUP3 DUP16 ADD PUSH2 0x368F JUMP JUMPDEST SWAP11 POP POP PUSH1 0x40 PUSH2 0x3D36 DUP15 DUP3 DUP16 ADD PUSH2 0x36DE JUMP JUMPDEST SWAP10 POP POP PUSH1 0x60 PUSH2 0x3D47 DUP15 DUP3 DUP16 ADD PUSH2 0x36DE JUMP JUMPDEST SWAP9 POP POP PUSH1 0x80 PUSH2 0x3D58 DUP15 DUP3 DUP16 ADD PUSH2 0x36DE JUMP JUMPDEST SWAP8 POP POP PUSH1 0xA0 PUSH2 0x3D69 DUP15 DUP3 DUP16 ADD PUSH2 0x36DE JUMP JUMPDEST SWAP7 POP POP PUSH1 0xC0 PUSH2 0x3D7A DUP15 DUP3 DUP16 ADD PUSH2 0x36DE JUMP JUMPDEST SWAP6 POP POP PUSH1 0xE0 PUSH2 0x3D8B DUP15 DUP3 DUP16 ADD PUSH2 0x36DE JUMP JUMPDEST SWAP5 POP POP PUSH2 0x100 PUSH2 0x3D9D DUP15 DUP3 DUP16 ADD PUSH2 0x36DE JUMP JUMPDEST SWAP4 POP POP PUSH2 0x120 PUSH2 0x3DAF DUP15 DUP3 DUP16 ADD PUSH2 0x36DE JUMP JUMPDEST SWAP3 POP POP PUSH2 0x140 PUSH2 0x3DC1 DUP15 DUP3 DUP16 ADD PUSH2 0x36DE JUMP JUMPDEST SWAP2 POP POP SWAP3 SWAP6 SWAP9 SWAP12 POP SWAP3 SWAP6 SWAP9 SWAP12 SWAP1 SWAP4 SWAP7 SWAP10 POP JUMP JUMPDEST PUSH1 0x0 PUSH1 0xC0 DUP3 ADD SWAP1 POP PUSH2 0x3DE9 PUSH1 0x0 DUP4 ADD DUP10 PUSH2 0x3931 JUMP JUMPDEST PUSH2 0x3DF6 PUSH1 0x20 DUP4 ADD DUP9 PUSH2 0x3931 JUMP JUMPDEST PUSH2 0x3E03 PUSH1 0x40 DUP4 ADD DUP8 PUSH2 0x3931 JUMP JUMPDEST PUSH2 0x3E10 PUSH1 0x60 DUP4 ADD DUP7 PUSH2 0x3931 JUMP JUMPDEST PUSH2 0x3E1D PUSH1 0x80 DUP4 ADD DUP6 PUSH2 0x3931 JUMP JUMPDEST PUSH2 0x3E2A PUSH1 0xA0 DUP4 ADD DUP5 PUSH2 0x3931 JUMP JUMPDEST SWAP8 SWAP7 POP POP POP POP POP POP POP JUMP JUMPDEST PUSH1 0x0 PUSH1 0x60 DUP3 ADD SWAP1 POP DUP2 DUP2 SUB PUSH1 0x0 DUP4 ADD MSTORE PUSH2 0x3E4F DUP2 DUP7 PUSH2 0x3B3C JUMP JUMPDEST SWAP1 POP PUSH2 0x3E5E PUSH1 0x20 DUP4 ADD DUP6 PUSH2 0x3931 JUMP JUMPDEST PUSH2 0x3E6B PUSH1 0x40 DUP4 ADD DUP5 PUSH2 0x3931 JUMP JUMPDEST SWAP5 SWAP4 POP POP POP POP JUMP JUMPDEST PUSH1 0x0 PUSH2 0x140 DUP3 ADD SWAP1 POP DUP2 DUP2 SUB PUSH1 0x0 DUP4 ADD MSTORE PUSH2 0x3E8E DUP2 DUP14 PUSH2 0x3B3C JUMP JUMPDEST SWAP1 POP PUSH2 0x3E9D PUSH1 0x20 DUP4 ADD DUP13 PUSH2 0x3931 JUMP JUMPDEST PUSH2 0x3EAA PUSH1 0x40 DUP4 ADD DUP12 PUSH2 0x3931 JUMP JUMPDEST PUSH2 0x3EB7 PUSH1 0x60 DUP4 ADD DUP11 PUSH2 0x3931 JUMP JUMPDEST PUSH2 0x3EC4 PUSH1 0x80 DUP4 ADD DUP10 PUSH2 0x3931 JUMP JUMPDEST PUSH2 0x3ED1 PUSH1 0xA0 DUP4 ADD DUP9 PUSH2 0x3931 JUMP JUMPDEST PUSH2 0x3EDE PUSH1 0xC0 DUP4 ADD DUP8 PUSH2 0x3931 JUMP JUMPDEST PUSH2 0x3EEB PUSH1 0xE0 DUP4 ADD DUP7 PUSH2 0x3931 JUMP JUMPDEST PUSH2 0x3EF9 PUSH2 0x100 DUP4 ADD DUP6 PUSH2 0x3931 JUMP JUMPDEST PUSH2 0x3F07 PUSH2 0x120 DUP4 ADD DUP5 PUSH2 0x3931 JUMP JUMPDEST SWAP12 SWAP11 POP POP POP POP POP POP POP POP POP POP POP JUMP JUMPDEST PUSH2 0x3F1F DUP2 PUSH2 0x36BD JUMP JUMPDEST DUP3 MSTORE POP POP JUMP JUMPDEST PUSH1 0x0 PUSH1 0x40 DUP3 ADD SWAP1 POP PUSH2 0x3F3A PUSH1 0x0 DUP4 ADD DUP6 PUSH2 0x3F16 JUMP JUMPDEST PUSH2 0x3F47 PUSH1 0x20 DUP4 ADD DUP5 PUSH2 0x3F16 JUMP JUMPDEST SWAP4 SWAP3 POP POP POP JUMP JUMPDEST PUSH1 0x0 DUP2 MLOAD SWAP1 POP PUSH2 0x3F5D DUP2 PUSH2 0x36C7 JUMP JUMPDEST SWAP3 SWAP2 POP POP JUMP JUMPDEST PUSH1 0x0 PUSH1 0x20 DUP3 DUP5 SUB SLT ISZERO PUSH2 0x3F79 JUMPI PUSH2 0x3F78 PUSH2 0x356D JUMP JUMPDEST JUMPDEST PUSH1 0x0 PUSH2 0x3F87 DUP5 DUP3 DUP6 ADD PUSH2 0x3F4E JUMP JUMPDEST SWAP2 POP POP SWAP3 SWAP2 POP POP JUMP JUMPDEST PUSH32 0x4E487B7100000000000000000000000000000000000000000000000000000000 PUSH1 0x0 MSTORE PUSH1 0x32 PUSH1 0x4 MSTORE PUSH1 0x24 PUSH1 0x0 REVERT JUMPDEST PUSH32 0x4E487B7100000000000000000000000000000000000000000000000000000000 PUSH1 0x0 MSTORE PUSH1 0x22 PUSH1 0x4 MSTORE PUSH1 0x24 PUSH1 0x0 REVERT JUMPDEST PUSH1 0x0 PUSH1 0x2 DUP3 DIV SWAP1 POP PUSH1 0x1 DUP3 AND DUP1 PUSH2 0x4006 JUMPI PUSH1 0x7F DUP3 AND SWAP2 POP JUMPDEST PUSH1 0x20 DUP3 LT DUP2 SUB PUSH2 0x4019 JUMPI PUSH2 0x4018 PUSH2 0x3FBF JUMP JUMPDEST JUMPDEST POP SWAP2 SWAP1 POP JUMP JUMPDEST PUSH1 0x0 DUP2 SWAP1 POP SWAP3 SWAP2 POP POP JUMP JUMPDEST PUSH1 0x0 DUP2 SWAP1 POP DUP2 PUSH1 0x0 MSTORE PUSH1 0x20 PUSH1 0x0 KECCAK256 SWAP1 POP SWAP2 SWAP1 POP JUMP JUMPDEST PUSH1 0x0 DUP2 SLOAD PUSH2 0x404C DUP2 PUSH2 0x3FEE JUMP JUMPDEST PUSH2 0x4056 DUP2 DUP7 PUSH2 0x401F JUMP JUMPDEST SWAP5 POP PUSH1 0x1 DUP3 AND PUSH1 0x0 DUP2 EQ PUSH2 0x4071 JUMPI PUSH1 0x1 DUP2 EQ PUSH2 0x4086 JUMPI PUSH2 0x40B9 JUMP JUMPDEST PUSH1 0xFF NOT DUP4 AND DUP7 MSTORE DUP2 ISZERO ISZERO DUP3 MUL DUP7 ADD SWAP4 POP PUSH2 0x40B9 JUMP JUMPDEST PUSH2 0x408F DUP6 PUSH2 0x402A JUMP JUMPDEST PUSH1 0x0 JUMPDEST DUP4 DUP2 LT ISZERO PUSH2 0x40B1 JUMPI DUP2 SLOAD DUP2 DUP10 ADD MSTORE PUSH1 0x1 DUP3 ADD SWAP2 POP PUSH1 0x20 DUP2 ADD SWAP1 POP PUSH2 0x4092 JUMP JUMPDEST DUP4 DUP9 ADD SWAP6 POP POP POP JUMPDEST POP POP POP SWAP3 SWAP2 POP POP JUMP JUMPDEST PUSH1 0x0 PUSH2 0x40CE DUP3 DUP5 PUSH2 0x403F JUMP JUMPDEST SWAP2 POP DUP2 SWAP1 POP SWAP3 SWAP2 POP POP JUMP JUMPDEST PUSH32 0x4E487B7100000000000000000000000000000000000000000000000000000000 PUSH1 0x0 MSTORE PUSH1 0x11 PUSH1 0x4 MSTORE PUSH1 0x24 PUSH1 0x0 REVERT JUMPDEST PUSH1 0x0 PUSH2 0x4113 DUP3 PUSH2 0x36F3 JUMP JUMPDEST SWAP2 POP PUSH32 0xFFFFFFFFFFFFFFFFFFFFFFFFFFFFFFFFFFFFFFFFFFFFFFFFFFFFFFFFFFFFFFFF DUP3 SUB PUSH2 0x4145 JUMPI PUSH2 0x4144 PUSH2 0x40D9 JUMP JUMPDEST JUMPDEST PUSH1 0x1 DUP3 ADD SWAP1 POP SWAP2 SWAP1 POP JUMP JUMPDEST PUSH32 0x53616D65206D6F6E74682E202054696D65206E6F742079657420726561636865 PUSH1 0x0 DUP3 ADD MSTORE PUSH32 0x6400000000000000000000000000000000000000000000000000000000000000 PUSH1 0x20 DUP3 ADD MSTORE POP JUMP JUMPDEST PUSH1 0x0 PUSH2 0x41AC PUSH1 0x21 DUP4 PUSH2 0x3B2B JUMP JUMPDEST SWAP2 POP PUSH2 0x41B7 DUP3 PUSH2 0x4150 JUMP JUMPDEST PUSH1 0x40 DUP3 ADD SWAP1 POP SWAP2 SWAP1 POP JUMP JUMPDEST PUSH1 0x0 PUSH1 0x20 DUP3 ADD SWAP1 POP DUP2 DUP2 SUB PUSH1 0x0 DUP4 ADD MSTORE PUSH2 0x41DB DUP2 PUSH2 0x419F JUMP JUMPDEST SWAP1 POP SWAP2 SWAP1 POP JUMP JUMPDEST PUSH1 0x0 PUSH2 0x41ED DUP3 PUSH2 0x36BD JUMP JUMPDEST SWAP2 POP PUSH2 0x41F8 DUP4 PUSH2 0x36BD JUMP JUMPDEST SWAP3 POP DUP3 PUSH32 0x7FFFFFFFFFFFFFFFFFFFFFFFFFFFFFFFFFFFFFFFFFFFFFFFFFFFFFFFFFFFFFFF DIV DUP3 GT PUSH1 0x0 DUP5 SGT PUSH1 0x0 DUP5 SGT AND AND ISZERO PUSH2 0x4237 JUMPI PUSH2 0x4236 PUSH2 0x40D9 JUMP JUMPDEST JUMPDEST DUP2 PUSH32 0x8000000000000000000000000000000000000000000000000000000000000000 SDIV DUP4 SLT PUSH1 0x0 DUP5 SLT PUSH1 0x0 DUP5 SGT AND AND ISZERO PUSH2 0x4274 JUMPI PUSH2 0x4273 PUSH2 0x40D9 JUMP JUMPDEST JUMPDEST DUP3 PUSH32 0x8000000000000000000000000000000000000000000000000000000000000000 SDIV DUP3 SLT PUSH1 0x0 DUP5 SGT PUSH1 0x0 DUP5 SLT AND AND ISZERO PUSH2 0x42B1 JUMPI PUSH2 0x42B0 PUSH2 0x40D9 JUMP JUMPDEST JUMPDEST DUP3 PUSH32 0x7FFFFFFFFFFFFFFFFFFFFFFFFFFFFFFFFFFFFFFFFFFFFFFFFFFFFFFFFFFFFFFF SDIV DUP3 SLT PUSH1 0x0 DUP5 SLT PUSH1 0x0 DUP5 SLT AND AND ISZERO PUSH2 0x42EE JUMPI PUSH2 0x42ED PUSH2 0x40D9 JUMP JUMPDEST JUMPDEST DUP3 DUP3 MUL SWAP1 POP SWAP3 SWAP2 POP POP JUMP JUMPDEST PUSH1 0x0 PUSH2 0x4304 DUP3 PUSH2 0x37AC JUMP JUMPDEST PUSH2 0x430E DUP2 DUP6 PUSH2 0x401F JUMP JUMPDEST SWAP4 POP PUSH2 0x431E DUP2 DUP6 PUSH1 0x20 DUP7 ADD PUSH2 0x37C8 JUMP JUMPDEST DUP1 DUP5 ADD SWAP2 POP POP SWAP3 SWAP2 POP POP JUMP JUMPDEST PUSH1 0x0 PUSH2 0x4336 DUP3 DUP5 PUSH2 0x42F9 JUMP JUMPDEST SWAP2 POP DUP2 SWAP1 POP SWAP3 SWAP2 POP POP JUMP JUMPDEST PUSH1 0x0 PUSH1 0x20 PUSH1 0x1F DUP4 ADD DIV SWAP1 POP SWAP2 SWAP1 POP JUMP JUMPDEST PUSH1 0x0 DUP3 DUP3 SHL SWAP1 POP SWAP3 SWAP2 POP POP JUMP JUMPDEST PUSH1 0x0 PUSH1 0x8 DUP4 MUL PUSH2 0x438E PUSH32 0xFFFFFFFFFFFFFFFFFFFFFFFFFFFFFFFFFFFFFFFFFFFFFFFFFFFFFFFFFFFFFFFF DUP3 PUSH2 0x4351 JUMP JUMPDEST PUSH2 0x4398 DUP7 DUP4 PUSH2 0x4351 JUMP JUMPDEST SWAP6 POP DUP1 NOT DUP5 AND SWAP4 POP DUP1 DUP7 AND DUP5 OR SWAP3 POP POP POP SWAP4 SWAP3 POP POP POP JUMP JUMPDEST PUSH1 0x0 DUP2 SWAP1 POP SWAP2 SWAP1 POP JUMP JUMPDEST PUSH1 0x0 PUSH2 0x43D5 PUSH2 0x43D0 PUSH2 0x43CB DUP5 PUSH2 0x36F3 JUMP JUMPDEST PUSH2 0x43B0 JUMP JUMPDEST PUSH2 0x36F3 JUMP JUMPDEST SWAP1 POP SWAP2 SWAP1 POP JUMP JUMPDEST PUSH1 0x0 DUP2 SWAP1 POP SWAP2 SWAP1 POP JUMP JUMPDEST PUSH2 0x43EF DUP4 PUSH2 0x43BA JUMP JUMPDEST PUSH2 0x4403 PUSH2 0x43FB DUP3 PUSH2 0x43DC JUMP JUMPDEST DUP5 DUP5 SLOAD PUSH2 0x435E JUMP JUMPDEST DUP3 SSTORE POP POP POP POP JUMP JUMPDEST PUSH1 0x0 SWAP1 JUMP JUMPDEST PUSH2 0x4418 PUSH2 0x440B JUMP JUMPDEST PUSH2 0x4423 DUP2 DUP5 DUP5 PUSH2 0x43E6 JUMP JUMPDEST POP POP POP JUMP JUMPDEST JUMPDEST DUP2 DUP2 LT ISZERO PUSH2 0x4447 JUMPI PUSH2 0x443C PUSH1 0x0 DUP3 PUSH2 0x4410 JUMP JUMPDEST PUSH1 0x1 DUP2 ADD SWAP1 POP PUSH2 0x4429 JUMP JUMPDEST POP POP JUMP JUMPDEST PUSH1 0x1F DUP3 GT ISZERO PUSH2 0x448C JUMPI PUSH2 0x445D DUP2 PUSH2 0x402A JUMP JUMPDEST PUSH2 0x4466 DUP5 PUSH2 0x4341 JUMP JUMPDEST DUP2 ADD PUSH1 0x20 DUP6 LT ISZERO PUSH2 0x4475 JUMPI DUP2 SWAP1 POP JUMPDEST PUSH2 0x4489 PUSH2 0x4481 DUP6 PUSH2 0x4341 JUMP JUMPDEST DUP4 ADD DUP3 PUSH2 0x4428 JUMP JUMPDEST POP POP JUMPDEST POP POP POP JUMP JUMPDEST PUSH1 0x0 DUP3 DUP3 SHR SWAP1 POP SWAP3 SWAP2 POP POP JUMP JUMPDEST PUSH1 0x0 PUSH2 0x44AF PUSH1 0x0 NOT DUP5 PUSH1 0x8 MUL PUSH2 0x4491 JUMP JUMPDEST NOT DUP1 DUP4 AND SWAP2 POP POP SWAP3 SWAP2 POP POP JUMP JUMPDEST PUSH1 0x0 PUSH2 0x44C8 DUP4 DUP4 PUSH2 0x449E JUMP JUMPDEST SWAP2 POP DUP3 PUSH1 0x2 MUL DUP3 OR SWAP1 POP SWAP3 SWAP2 POP POP JUMP JUMPDEST PUSH2 0x44E1 DUP3 PUSH2 0x37AC JUMP JUMPDEST PUSH8 0xFFFFFFFFFFFFFFFF DUP2 GT ISZERO PUSH2 0x44FA JUMPI PUSH2 0x44F9 PUSH2 0x3592 JUMP JUMPDEST JUMPDEST PUSH2 0x4504 DUP3 SLOAD PUSH2 0x3FEE JUMP JUMPDEST PUSH2 0x450F DUP3 DUP3 DUP6 PUSH2 0x444B JUMP JUMPDEST PUSH1 0x0 PUSH1 0x20 SWAP1 POP PUSH1 0x1F DUP4 GT PUSH1 0x1 DUP2 EQ PUSH2 0x4542 JUMPI PUSH1 0x0 DUP5 ISZERO PUSH2 0x4530 JUMPI DUP3 DUP8 ADD MLOAD SWAP1 POP JUMPDEST PUSH2 0x453A DUP6 DUP3 PUSH2 0x44BC JUMP JUMPDEST DUP7 SSTORE POP PUSH2 0x45A2 JUMP JUMPDEST PUSH1 0x1F NOT DUP5 AND PUSH2 0x4550 DUP7 PUSH2 0x402A JUMP JUMPDEST PUSH1 0x0 JUMPDEST DUP3 DUP2 LT ISZERO PUSH2 0x4578 JUMPI DUP5 DUP10 ADD MLOAD DUP3 SSTORE PUSH1 0x1 DUP3 ADD SWAP2 POP PUSH1 0x20 DUP6 ADD SWAP5 POP PUSH1 0x20 DUP2 ADD SWAP1 POP PUSH2 0x4553 JUMP JUMPDEST DUP7 DUP4 LT ISZERO PUSH2 0x4595 JUMPI DUP5 DUP10 ADD MLOAD PUSH2 0x4591 PUSH1 0x1F DUP10 AND DUP3 PUSH2 0x449E JUMP JUMPDEST DUP4 SSTORE POP JUMPDEST PUSH1 0x1 PUSH1 0x2 DUP9 MUL ADD DUP9 SSTORE POP POP POP JUMPDEST POP POP POP POP POP POP JUMP JUMPDEST PUSH1 0x0 PUSH2 0x45B5 DUP3 PUSH2 0x36F3 JUMP JUMPDEST SWAP2 POP PUSH2 0x45C0 DUP4 PUSH2 0x36F3 JUMP JUMPDEST SWAP3 POP DUP3 PUSH32 0xFFFFFFFFFFFFFFFFFFFFFFFFFFFFFFFFFFFFFFFFFFFFFFFFFFFFFFFFFFFFFFFF SUB DUP3 GT ISZERO PUSH2 0x45F5 JUMPI PUSH2 0x45F4 PUSH2 0x40D9 JUMP JUMPDEST JUMPDEST DUP3 DUP3 ADD SWAP1 POP SWAP3 SWAP2 POP POP JUMP JUMPDEST PUSH32 0x4E487B7100000000000000000000000000000000000000000000000000000000 PUSH1 0x0 MSTORE PUSH1 0x12 PUSH1 0x4 MSTORE PUSH1 0x24 PUSH1 0x0 REVERT JUMPDEST PUSH1 0x0 PUSH2 0x463A DUP3 PUSH2 0x36BD JUMP JUMPDEST SWAP2 POP PUSH2 0x4645 DUP4 PUSH2 0x36BD JUMP JUMPDEST SWAP3 POP DUP3 PUSH2 0x4655 JUMPI PUSH2 0x4654 PUSH2 0x4600 JUMP JUMPDEST JUMPDEST PUSH1 0x1 PUSH1 0x0 SUB DUP4 EQ PUSH32 0x8000000000000000000000000000000000000000000000000000000000000000 DUP4 EQ AND ISZERO PUSH2 0x468E JUMPI PUSH2 0x468D PUSH2 0x40D9 JUMP JUMPDEST JUMPDEST DUP3 DUP3 SDIV SWAP1 POP SWAP3 SWAP2 POP POP JUMP JUMPDEST PUSH1 0x0 PUSH2 0x46A4 DUP3 PUSH2 0x36BD JUMP JUMPDEST SWAP2 POP PUSH2 0x46AF DUP4 PUSH2 0x36BD JUMP JUMPDEST SWAP3 POP DUP3 PUSH32 0x8000000000000000000000000000000000000000000000000000000000000000 ADD DUP3 SLT PUSH1 0x0 DUP5 SLT ISZERO AND ISZERO PUSH2 0x46EA JUMPI PUSH2 0x46E9 PUSH2 0x40D9 JUMP JUMPDEST JUMPDEST DUP3 PUSH32 0x7FFFFFFFFFFFFFFFFFFFFFFFFFFFFFFFFFFFFFFFFFFFFFFFFFFFFFFFFFFFFFFF ADD DUP3 SGT PUSH1 0x0 DUP5 SLT AND ISZERO PUSH2 0x4722 JUMPI PUSH2 0x4721 PUSH2 0x40D9 JUMP JUMPDEST JUMPDEST DUP3 DUP3 SUB SWAP1 POP SWAP3 SWAP2 POP POP JUMP JUMPDEST PUSH1 0x0 PUSH2 0x4738 DUP3 PUSH2 0x36F3 JUMP JUMPDEST SWAP2 POP PUSH2 0x4743 DUP4 PUSH2 0x36F3 JUMP JUMPDEST SWAP3 POP DUP2 PUSH32 0xFFFFFFFFFFFFFFFFFFFFFFFFFFFFFFFFFFFFFFFFFFFFFFFFFFFFFFFFFFFFFFFF DIV DUP4 GT DUP3 ISZERO ISZERO AND ISZERO PUSH2 0x477C JUMPI PUSH2 0x477B PUSH2 0x40D9 JUMP JUMPDEST JUMPDEST DUP3 DUP3 MUL SWAP1 POP SWAP3 SWAP2 POP POP JUMP JUMPDEST PUSH1 0x0 PUSH2 0x4792 DUP3 PUSH2 0x36F3 JUMP JUMPDEST SWAP2 POP PUSH2 0x479D DUP4 PUSH2 0x36F3 JUMP JUMPDEST SWAP3 POP DUP3 PUSH2 0x47AD JUMPI PUSH2 0x47AC PUSH2 0x4600 JUMP JUMPDEST JUMPDEST DUP3 DUP3 DIV SWAP1 POP SWAP3 SWAP2 POP POP JUMP JUMPDEST PUSH1 0x0 PUSH2 0x47C3 DUP3 PUSH2 0x36F3 JUMP JUMPDEST SWAP2 POP PUSH2 0x47CE DUP4 PUSH2 0x36F3 JUMP JUMPDEST SWAP3 POP DUP3 DUP3 LT ISZERO PUSH2 0x47E1 JUMPI PUSH2 0x47E0 PUSH2 0x40D9 JUMP JUMPDEST JUMPDEST DUP3 DUP3 SUB SWAP1 POP SWAP3 SWAP2 POP POP JUMP JUMPDEST PUSH1 0x0 PUSH2 0xFFFF DUP3 AND SWAP1 POP SWAP2 SWAP1 POP JUMP JUMPDEST PUSH1 0x0 PUSH2 0x4805 DUP3 PUSH2 0x47EC JUMP JUMPDEST SWAP2 POP PUSH2 0x4810 DUP4 PUSH2 0x47EC JUMP JUMPDEST SWAP3 POP DUP3 PUSH2 0xFFFF SUB DUP3 GT ISZERO PUSH2 0x4827 JUMPI PUSH2 0x4826 PUSH2 0x40D9 JUMP JUMPDEST JUMPDEST DUP3 DUP3 ADD SWAP1 POP SWAP3 SWAP2 POP POP JUMP JUMPDEST PUSH1 0x0 PUSH1 0xFF DUP3 AND SWAP1 POP SWAP2 SWAP1 POP JUMP JUMPDEST PUSH1 0x0 PUSH2 0x484A DUP3 PUSH2 0x4832 JUMP JUMPDEST SWAP2 POP PUSH2 0x4855 DUP4 PUSH2 0x4832 JUMP JUMPDEST SWAP3 POP DUP3 DUP3 LT ISZERO PUSH2 0x4868 JUMPI PUSH2 0x4867 PUSH2 0x40D9 JUMP JUMPDEST JUMPDEST DUP3 DUP3 SUB SWAP1 POP SWAP3 SWAP2 POP POP JUMP JUMPDEST PUSH1 0x0 PUSH2 0x487E DUP3 PUSH2 0x4832 JUMP JUMPDEST SWAP2 POP PUSH1 0xFF DUP3 SUB PUSH2 0x4891 JUMPI PUSH2 0x4890 PUSH2 0x40D9 JUMP JUMPDEST JUMPDEST PUSH1 0x1 DUP3 ADD SWAP1 POP SWAP2 SWAP1 POP JUMP JUMPDEST PUSH1 0x0 PUSH2 0x48A7 DUP3 PUSH2 0x47EC JUMP JUMPDEST SWAP2 POP PUSH2 0x48B2 DUP4 PUSH2 0x47EC JUMP JUMPDEST SWAP3 POP DUP3 PUSH2 0x48C2 JUMPI PUSH2 0x48C1 PUSH2 0x4600 JUMP JUMPDEST JUMPDEST DUP3 DUP3 MOD SWAP1 POP SWAP3 SWAP2 POP POP JUMP INVALID NUMBER PUSH16 0x6E747261637420737461746520686173 KECCAK256 PUSH15 0x6F74206265656E20696E697469616C PUSH10 0x7A656420796574436F6E PUSH21 0x7261637420737461746520686173206265656E2072 PUSH6 0x696E69746961 PUSH13 0x697A6564A26469706673582212 KECCAK256 0xAC 0xBF 0xC4 0xB8 SELFBALANCE 0xE 0xC9 0xCA 0xEF SELFDESTRUCT PUSH19 0xD68D8D75DF41D4BFC7ECF23DFB5BB61C04C843 0x5D BYTE PUSH5 0x736F6C6343 STOP ADDMOD 0xF STOP CALLER "
		},
		"gasEstimates": {
			"creation": {
				"codeDepositCost": "3754200",
				"executionCost": "infinite",
				"totalCost": "infinite"
			},
			"external": {
				"getMarginAccount(uint256)": "infinite",
				"getMktValue(uint256)": "infinite",
				"getPortfolioHolding(string,uint256)": "infinite",
				"getRealTimeTickerData(string,uint256)": "infinite",
				"getTickerActionMsg(string,uint256)": "infinite",
				"getTradingFunds(uint256)": "infinite",
				"inputLoopWithTimestamps(uint256,uint256)": "infinite",
				"inputMarginAccount(uint256,int256,int256)": "infinite",
				"inputMktValue(uint256,int256,int256,int256,int256,int256,int256)": "infinite",
				"inputRealTimeTickerData(string,int256,int256,uint256)": "infinite",
				"inputTradingFunds(uint256,int256,int256,int256,int256,int256)": "infinite",
				"placeBuyStockLimitOrderMsg(string,int256,int256,uint256)": "infinite",
				"placeSellStockLimitOrderMsg(string,int256,int256,uint256)": "infinite",
				"reinitializeContractState()": "infinite",
				"run(uint256)": "infinite",
				"updatePortfolioHoldingsData(uint256,string,int256,int256,int256,int256,int256,int256,int256,int256,int256)": "infinite"
			},
			"internal": {
				"buyBackPosition(string memory,int256,uint256)": "infinite",
				"checkBuyBack(string memory,int256)": "infinite",
				"checkExecution(uint256)": "infinite",
				"checkMaxDrawdownDodge(string memory,int256)": "infinite",
				"liquidateTickerPosition(string memory,int256,uint256)": "infinite",
				"updateBenchmarkDrawdownPriceAfterDodge(string memory,int256)": "infinite",
				"updateBenchmarkDrawdownPriceBeforeDodge(string memory,int256)": "infinite"
			}
		},
		"methodIdentifiers": {
			"getMarginAccount(uint256)": "1eed5050",
			"getMktValue(uint256)": "d6171b70",
			"getPortfolioHolding(string,uint256)": "f2027c25",
			"getRealTimeTickerData(string,uint256)": "ea62e081",
			"getTickerActionMsg(string,uint256)": "c4f5a5a9",
			"getTradingFunds(uint256)": "384f4a62",
			"inputLoopWithTimestamps(uint256,uint256)": "38f18f0b",
			"inputMarginAccount(uint256,int256,int256)": "c4fa8bcc",
			"inputMktValue(uint256,int256,int256,int256,int256,int256,int256)": "22bc88f7",
			"inputRealTimeTickerData(string,int256,int256,uint256)": "a5f86e9b",
			"inputTradingFunds(uint256,int256,int256,int256,int256,int256)": "4395f558",
			"placeBuyStockLimitOrderMsg(string,int256,int256,uint256)": "4f8ac98d",
			"placeSellStockLimitOrderMsg(string,int256,int256,uint256)": "14ea6c19",
			"reinitializeContractState()": "4571236b",
			"run(uint256)": "a444f5e9",
			"updatePortfolioHoldingsData(uint256,string,int256,int256,int256,int256,int256,int256,int256,int256,int256)": "ceb224cf"
		}
	},
	"abi": [
		{
			"inputs": [],
			"stateMutability": "nonpayable",
			"type": "constructor"
		},
		{
			"anonymous": false,
			"inputs": [
				{
					"indexed": false,
					"internalType": "string",
					"name": "actionMsgs",
					"type": "string"
				}
			],
			"name": "LogActionMsg",
			"type": "event"
		},
		{
			"inputs": [
				{
					"internalType": "uint256",
					"name": "timestamp",
					"type": "uint256"
				}
			],
			"name": "getMarginAccount",
			"outputs": [
				{
					"internalType": "int256",
					"name": "",
					"type": "int256"
				},
				{
					"internalType": "int256",
					"name": "",
					"type": "int256"
				}
			],
			"stateMutability": "view",
			"type": "function"
		},
		{
			"inputs": [
				{
					"internalType": "uint256",
					"name": "_timestamp",
					"type": "uint256"
				}
			],
			"name": "getMktValue",
			"outputs": [
				{
					"internalType": "int256",
					"name": "",
					"type": "int256"
				},
				{
					"internalType": "int256",
					"name": "",
					"type": "int256"
				},
				{
					"internalType": "int256",
					"name": "",
					"type": "int256"
				},
				{
					"internalType": "int256",
					"name": "",
					"type": "int256"
				},
				{
					"internalType": "int256",
					"name": "",
					"type": "int256"
				},
				{
					"internalType": "int256",
					"name": "",
					"type": "int256"
				}
			],
			"stateMutability": "view",
			"type": "function"
		},
		{
			"inputs": [
				{
					"internalType": "string",
					"name": "_tickerName",
					"type": "string"
				},
				{
					"internalType": "uint256",
					"name": "_timestamp",
					"type": "uint256"
				}
			],
			"name": "getPortfolioHolding",
			"outputs": [
				{
					"internalType": "string",
					"name": "",
					"type": "string"
				},
				{
					"internalType": "int256",
					"name": "",
					"type": "int256"
				},
				{
					"internalType": "int256",
					"name": "",
					"type": "int256"
				},
				{
					"internalType": "int256",
					"name": "",
					"type": "int256"
				},
				{
					"internalType": "int256",
					"name": "",
					"type": "int256"
				},
				{
					"internalType": "int256",
					"name": "",
					"type": "int256"
				},
				{
					"internalType": "int256",
					"name": "",
					"type": "int256"
				},
				{
					"internalType": "int256",
					"name": "",
					"type": "int256"
				},
				{
					"internalType": "int256",
					"name": "",
					"type": "int256"
				},
				{
					"internalType": "int256",
					"name": "",
					"type": "int256"
				}
			],
			"stateMutability": "nonpayable",
			"type": "function"
		},
		{
			"inputs": [
				{
					"internalType": "string",
					"name": "_tickerName",
					"type": "string"
				},
				{
					"internalType": "uint256",
					"name": "_timeStamp",
					"type": "uint256"
				}
			],
			"name": "getRealTimeTickerData",
			"outputs": [
				{
					"internalType": "string",
					"name": "",
					"type": "string"
				},
				{
					"internalType": "int256",
					"name": "",
					"type": "int256"
				},
				{
					"internalType": "int256",
					"name": "",
					"type": "int256"
				}
			],
			"stateMutability": "nonpayable",
			"type": "function"
		},
		{
			"inputs": [
				{
					"internalType": "string",
					"name": "tickerName",
					"type": "string"
				},
				{
					"internalType": "uint256",
					"name": "_timestamp",
					"type": "uint256"
				}
			],
			"name": "getTickerActionMsg",
			"outputs": [
				{
					"internalType": "string",
					"name": "",
					"type": "string"
				},
				{
					"internalType": "uint256",
					"name": "",
					"type": "uint256"
				},
				{
					"internalType": "string",
					"name": "",
					"type": "string"
				},
				{
					"internalType": "int256",
					"name": "",
					"type": "int256"
				},
				{
					"internalType": "int256",
					"name": "",
					"type": "int256"
				},
				{
					"internalType": "int256",
					"name": "",
					"type": "int256"
				}
			],
			"stateMutability": "nonpayable",
			"type": "function"
		},
		{
			"inputs": [
				{
					"internalType": "uint256",
					"name": "timestamp",
					"type": "uint256"
				}
			],
			"name": "getTradingFunds",
			"outputs": [
				{
					"internalType": "int256",
					"name": "",
					"type": "int256"
				},
				{
					"internalType": "int256",
					"name": "",
					"type": "int256"
				},
				{
					"internalType": "int256",
					"name": "",
					"type": "int256"
				},
				{
					"internalType": "int256",
					"name": "",
					"type": "int256"
				},
				{
					"internalType": "int256",
					"name": "",
					"type": "int256"
				}
			],
			"stateMutability": "view",
			"type": "function"
		},
		{
			"inputs": [
				{
					"internalType": "uint256",
					"name": "_loop",
					"type": "uint256"
				},
				{
					"internalType": "uint256",
					"name": "_lastExecutedTimestamp",
					"type": "uint256"
				}
			],
			"name": "inputLoopWithTimestamps",
			"outputs": [],
			"stateMutability": "nonpayable",
			"type": "function"
		},
		{
			"inputs": [
				{
					"internalType": "uint256",
					"name": "_timestamp",
					"type": "uint256"
				},
				{
					"internalType": "int256",
					"name": "FullInitMarginReq",
					"type": "int256"
				},
				{
					"internalType": "int256",
					"name": "FullMainMarginReq",
					"type": "int256"
				}
			],
			"name": "inputMarginAccount",
			"outputs": [],
			"stateMutability": "nonpayable",
			"type": "function"
		},
		{
			"inputs": [
				{
					"internalType": "uint256",
					"name": "_timestamp",
					"type": "uint256"
				},
				{
					"internalType": "int256",
					"name": "TotalCashValue",
					"type": "int256"
				},
				{
					"internalType": "int256",
					"name": "NetDividend",
					"type": "int256"
				},
				{
					"internalType": "int256",
					"name": "NetLiquidation",
					"type": "int256"
				},
				{
					"internalType": "int256",
					"name": "UnrealizedPnL",
					"type": "int256"
				},
				{
					"internalType": "int256",
					"name": "RealizedPnL",
					"type": "int256"
				},
				{
					"internalType": "int256",
					"name": "GrossPositionValue",
					"type": "int256"
				}
			],
			"name": "inputMktValue",
			"outputs": [],
			"stateMutability": "nonpayable",
			"type": "function"
		},
		{
			"inputs": [
				{
					"internalType": "string",
					"name": "_tickerName",
					"type": "string"
				},
				{
					"internalType": "int256",
					"name": "bidPrice",
					"type": "int256"
				},
				{
					"internalType": "int256",
					"name": "last",
					"type": "int256"
				},
				{
					"internalType": "uint256",
					"name": "_timestamp",
					"type": "uint256"
				}
			],
			"name": "inputRealTimeTickerData",
			"outputs": [],
			"stateMutability": "nonpayable",
			"type": "function"
		},
		{
			"inputs": [
				{
					"internalType": "uint256",
					"name": "_timestamp",
					"type": "uint256"
				},
				{
					"internalType": "int256",
					"name": "AvailableFunds",
					"type": "int256"
				},
				{
					"internalType": "int256",
					"name": "ExcessLiquidity",
					"type": "int256"
				},
				{
					"internalType": "int256",
					"name": "BuyingPower",
					"type": "int256"
				},
				{
					"internalType": "int256",
					"name": "Leverage",
					"type": "int256"
				},
				{
					"internalType": "int256",
					"name": "EquityWithLoanValue",
					"type": "int256"
				}
			],
			"name": "inputTradingFunds",
			"outputs": [],
			"stateMutability": "nonpayable",
			"type": "function"
		},
		{
			"inputs": [
				{
					"internalType": "string",
					"name": "_tickerName",
					"type": "string"
				},
				{
					"internalType": "int256",
					"name": "_targetSharePurchase",
					"type": "int256"
				},
				{
					"internalType": "int256",
					"name": "_transactionTickerPrice",
					"type": "int256"
				},
				{
					"internalType": "uint256",
					"name": "_timestamp",
					"type": "uint256"
				}
			],
			"name": "placeBuyStockLimitOrderMsg",
			"outputs": [
				{
					"components": [
						{
							"internalType": "string",
							"name": "tickerName",
							"type": "string"
						},
						{
							"internalType": "uint256",
							"name": "timestamp",
							"type": "uint256"
						},
						{
							"internalType": "string",
							"name": "transactionType",
							"type": "string"
						},
						{
							"internalType": "int256",
							"name": "positionAction",
							"type": "int256"
						},
						{
							"internalType": "int256",
							"name": "transactionTickerPrice",
							"type": "int256"
						},
						{
							"internalType": "int256",
							"name": "transactionAmount",
							"type": "int256"
						}
					],
					"internalType": "struct Object.ActionMsg",
					"name": "",
					"type": "tuple"
				}
			],
			"stateMutability": "nonpayable",
			"type": "function"
		},
		{
			"inputs": [
				{
					"internalType": "string",
					"name": "_tickerName",
					"type": "string"
				},
				{
					"internalType": "int256",
					"name": "_targetShareSell",
					"type": "int256"
				},
				{
					"internalType": "int256",
					"name": "_transactionTickerPrice",
					"type": "int256"
				},
				{
					"internalType": "uint256",
					"name": "_timestamp",
					"type": "uint256"
				}
			],
			"name": "placeSellStockLimitOrderMsg",
			"outputs": [
				{
					"components": [
						{
							"internalType": "string",
							"name": "tickerName",
							"type": "string"
						},
						{
							"internalType": "uint256",
							"name": "timestamp",
							"type": "uint256"
						},
						{
							"internalType": "string",
							"name": "transactionType",
							"type": "string"
						},
						{
							"internalType": "int256",
							"name": "positionAction",
							"type": "int256"
						},
						{
							"internalType": "int256",
							"name": "transactionTickerPrice",
							"type": "int256"
						},
						{
							"internalType": "int256",
							"name": "transactionAmount",
							"type": "int256"
						}
					],
					"internalType": "struct Object.ActionMsg",
					"name": "",
					"type": "tuple"
				}
			],
			"stateMutability": "nonpayable",
			"type": "function"
		},
		{
			"inputs": [],
			"name": "reinitializeContractState",
			"outputs": [
				{
					"internalType": "string",
					"name": "",
					"type": "string"
				}
			],
			"stateMutability": "nonpayable",
			"type": "function"
		},
		{
			"inputs": [
				{
					"internalType": "uint256",
					"name": "_timestamp",
					"type": "uint256"
				}
			],
			"name": "run",
			"outputs": [],
			"stateMutability": "nonpayable",
			"type": "function"
		},
		{
			"inputs": [
				{
					"internalType": "uint256",
					"name": "timestamp",
					"type": "uint256"
				},
				{
					"internalType": "string",
					"name": "_tickerName",
					"type": "string"
				},
				{
					"internalType": "int256",
					"name": "position",
					"type": "int256"
				},
				{
					"internalType": "int256",
					"name": "marketPrice",
					"type": "int256"
				},
				{
					"internalType": "int256",
					"name": "averageCost",
					"type": "int256"
				},
				{
					"internalType": "int256",
					"name": "marketValue",
					"type": "int256"
				},
				{
					"internalType": "int256",
					"name": "realizedPNL",
					"type": "int256"
				},
				{
					"internalType": "int256",
					"name": "unrealizedPNL",
					"type": "int256"
				},
				{
					"internalType": "int256",
					"name": "initMarginReq",
					"type": "int256"
				},
				{
					"internalType": "int256",
					"name": "maintMarginReq",
					"type": "int256"
				},
				{
					"internalType": "int256",
					"name": "costBasis",
					"type": "int256"
				}
			],
			"name": "updatePortfolioHoldingsData",
			"outputs": [],
			"stateMutability": "nonpayable",
			"type": "function"
		}
	]
}