{
  "contractName": "Date",
  "abi": [
    {
      "inputs": [
        {
          "internalType": "uint16",
          "name": "_year",
          "type": "uint16"
        },
        {
          "internalType": "uint8",
          "name": "_month",
          "type": "uint8"
        },
        {
          "internalType": "uint8",
          "name": "_day",
          "type": "uint8"
        }
      ],
      "stateMutability": "nonpayable",
      "type": "constructor"
    },
    {
      "inputs": [],
      "name": "day",
      "outputs": [
        {
          "internalType": "uint8",
          "name": "",
          "type": "uint8"
        }
      ],
      "stateMutability": "view",
      "type": "function"
    },
    {
      "inputs": [],
      "name": "dt",
      "outputs": [
        {
          "internalType": "uint16",
          "name": "year",
          "type": "uint16"
        },
        {
          "internalType": "uint8",
          "name": "month",
          "type": "uint8"
        },
        {
          "internalType": "uint8",
          "name": "day",
          "type": "uint8"
        },
        {
          "internalType": "string",
          "name": "weekday",
          "type": "string"
        }
      ],
      "stateMutability": "view",
      "type": "function"
    },
    {
      "inputs": [],
      "name": "dtTime",
      "outputs": [
        {
          "internalType": "uint16",
          "name": "year",
          "type": "uint16"
        },
        {
          "internalType": "uint8",
          "name": "month",
          "type": "uint8"
        },
        {
          "internalType": "uint8",
          "name": "day",
          "type": "uint8"
        },
        {
          "internalType": "uint8",
          "name": "hour",
          "type": "uint8"
        },
        {
          "internalType": "uint8",
          "name": "minute",
          "type": "uint8"
        },
        {
          "internalType": "uint8",
          "name": "second",
          "type": "uint8"
        },
        {
          "internalType": "string",
          "name": "weekday",
          "type": "string"
        }
      ],
      "stateMutability": "view",
      "type": "function"
    },
    {
      "inputs": [],
      "name": "hour",
      "outputs": [
        {
          "internalType": "uint8",
          "name": "",
          "type": "uint8"
        }
      ],
      "stateMutability": "view",
      "type": "function"
    },
    {
      "inputs": [],
      "name": "isoDate",
      "outputs": [
        {
          "internalType": "string",
          "name": "",
          "type": "string"
        }
      ],
      "stateMutability": "view",
      "type": "function"
    },
    {
      "inputs": [],
      "name": "isoDateTime",
      "outputs": [
        {
          "internalType": "string",
          "name": "",
          "type": "string"
        }
      ],
      "stateMutability": "view",
      "type": "function"
    },
    {
      "inputs": [],
      "name": "minute",
      "outputs": [
        {
          "internalType": "uint8",
          "name": "",
          "type": "uint8"
        }
      ],
      "stateMutability": "view",
      "type": "function"
    },
    {
      "inputs": [],
      "name": "month",
      "outputs": [
        {
          "internalType": "uint8",
          "name": "",
          "type": "uint8"
        }
      ],
      "stateMutability": "view",
      "type": "function"
    },
    {
      "inputs": [],
      "name": "owner",
      "outputs": [
        {
          "internalType": "address",
          "name": "",
          "type": "address"
        }
      ],
      "stateMutability": "view",
      "type": "function"
    },
    {
      "inputs": [],
      "name": "second",
      "outputs": [
        {
          "internalType": "uint8",
          "name": "",
          "type": "uint8"
        }
      ],
      "stateMutability": "view",
      "type": "function"
    },
    {
      "inputs": [],
      "name": "timestampDate",
      "outputs": [
        {
          "internalType": "uint256",
          "name": "",
          "type": "uint256"
        }
      ],
      "stateMutability": "view",
      "type": "function"
    },
    {
      "inputs": [],
      "name": "weekday",
      "outputs": [
        {
          "internalType": "string",
          "name": "",
          "type": "string"
        }
      ],
      "stateMutability": "view",
      "type": "function"
    },
    {
      "inputs": [],
      "name": "year",
      "outputs": [
        {
          "internalType": "uint16",
          "name": "",
          "type": "uint16"
        }
      ],
      "stateMutability": "view",
      "type": "function"
    },
    {
      "inputs": [
        {
          "internalType": "string",
          "name": "_dt",
          "type": "string"
        }
      ],
      "name": "setDateFromString",
      "outputs": [],
      "stateMutability": "nonpayable",
      "type": "function"
    },
    {
      "inputs": [
        {
          "internalType": "string",
          "name": "_dt",
          "type": "string"
        }
      ],
      "name": "setDateTimeFromString",
      "outputs": [],
      "stateMutability": "nonpayable",
      "type": "function"
    },
    {
      "inputs": [
        {
          "internalType": "uint256",
          "name": "_timestamp",
          "type": "uint256"
        }
      ],
      "name": "setDateFromTimestamp",
      "outputs": [],
      "stateMutability": "nonpayable",
      "type": "function"
    },
    {
      "inputs": [
        {
          "internalType": "uint256",
          "name": "_timestamp",
          "type": "uint256"
        }
      ],
      "name": "setDateTimeFromTimestamp",
      "outputs": [],
      "stateMutability": "nonpayable",
      "type": "function"
    },
    {
      "inputs": [
        {
          "internalType": "uint16",
          "name": "_year",
          "type": "uint16"
        },
        {
          "internalType": "uint8",
          "name": "_month",
          "type": "uint8"
        },
        {
          "internalType": "uint8",
          "name": "_day",
          "type": "uint8"
        }
      ],
      "name": "setDateFromYMD",
      "outputs": [],
      "stateMutability": "nonpayable",
      "type": "function"
    },
    {
      "inputs": [
        {
          "internalType": "uint16",
          "name": "_year",
          "type": "uint16"
        },
        {
          "internalType": "uint8",
          "name": "_month",
          "type": "uint8"
        },
        {
          "internalType": "uint8",
          "name": "_day",
          "type": "uint8"
        },
        {
          "internalType": "uint8",
          "name": "_hour",
          "type": "uint8"
        },
        {
          "internalType": "uint8",
          "name": "_minute",
          "type": "uint8"
        },
        {
          "internalType": "uint8",
          "name": "_second",
          "type": "uint8"
        }
      ],
      "name": "setDateTimeFromYMDHMS",
      "outputs": [],
      "stateMutability": "nonpayable",
      "type": "function"
    },
    {
      "inputs": [],
      "name": "getDateString",
      "outputs": [
        {
          "internalType": "string",
          "name": "",
          "type": "string"
        }
      ],
      "stateMutability": "view",
      "type": "function"
    },
    {
      "inputs": [],
      "name": "getDateTimeString",
      "outputs": [
        {
          "internalType": "string",
          "name": "",
          "type": "string"
        }
      ],
      "stateMutability": "view",
      "type": "function"
    },
    {
      "inputs": [],
      "name": "getTimestamp",
      "outputs": [
        {
          "internalType": "uint256",
          "name": "",
          "type": "uint256"
        }
      ],
      "stateMutability": "view",
      "type": "function"
    },
    {
      "inputs": [],
      "name": "terminate",
      "outputs": [],
      "stateMutability": "nonpayable",
      "type": "function"
    }
  ],
  "bytecode": "0x60806040526040518060e001604052806040518060400160405280600681526020017f53756e646179000000000000000000000000000000000000000000000000000081525081526020016040518060400160405280600681526020017f4d6f6e646179000000000000000000000000000000000000000000000000000081525081526020016040518060400160405280600781526020017f547565736461790000000000000000000000000000000000000000000000000081525081526020016040518060400160405280600981526020017f5765646e6573646179000000000000000000000000000000000000000000000081525081526020016040518060400160405280600881526020017f546875727364617900000000000000000000000000000000000000000000000081525081526020016040518060400160405280600681526020017f467269646179000000000000000000000000000000000000000000000000000081525081526020016040518060400160405280600881526020017f53617475726461790000000000000000000000000000000000000000000000008152508152506000906007620001bc92919062001d79565b50348015620001ca57600080fd5b50604051620079e0380380620079e08339818101604052810190620001f0919062002048565b620002088383836200053160201b620013fc1760201c565b6200021257600080fd5b33600760006101000a81548173ffffffffffffffffffffffffffffffffffffffff021916908373ffffffffffffffffffffffffffffffffffffffff16021790555082600f60006101000a81548161ffff021916908361ffff16021790555081600f60026101000a81548160ff021916908360ff16021790555080600f60036101000a81548160ff021916908360ff1602179055506000600f60046101000a81548160ff021916908360ff1602179055506000600f60056101000a81548160ff021916908360ff1602179055506000600f60066101000a81548160ff021916908360ff16021790555062000312838383620005a160201b6200144e1760201c565b600d90805190602001906200032992919062001dd3565b506200034783838360008060006200077860201b620015c41760201c565b600e90805190602001906200035e92919062001dd3565b506200037783838362000bf360201b6200194f1760201c565b600c81905550600062000397600c5462000c8560201b620019c01760201c565b60ff1660078110620003ae57620003ad620020a4565b5b016010908054620003bf9062002102565b620003cc92919062001e64565b5082600860000160006101000a81548161ffff021916908361ffff16021790555081600860000160026101000a81548160ff021916908360ff16021790555080600860000160036101000a81548160ff021916908360ff160217905550601060086001019080546200043e9062002102565b6200044b92919062001e64565b5082600a60000160006101000a81548161ffff021916908361ffff16021790555081600a60000160026101000a81548160ff021916908360ff16021790555080600a60000160036101000a81548160ff021916908360ff1602179055506000600a60000160046101000a81548160ff021916908360ff1602179055506000600a60000160056101000a81548160ff021916908360ff1602179055506000600a60000160066101000a81548160ff021916908360ff1602179055506010600a6001019080546200051a9062002102565b6200052792919062001e64565b5050505062002717565b6000620005448462000cbb60201b60201c565b6200055357600090506200059a565b620005648362000cf160201b60201c565b6200057357600090506200059a565b6200058684848462000d2360201b60201c565b6200059557600090506200059a565b600190505b9392505050565b6060620005b68484846200053160201b60201c565b620005c057600080fd5b60006200060d6040518060400160405280600181526020017f2d0000000000000000000000000000000000000000000000000000000000000081525062000e4f60201b620019f01760201c565b905060006200065c6040518060400160405280600181526020017f300000000000000000000000000000000000000000000000000000000000000081525062000e4f60201b620019f01760201c565b905060006200067387878762000e7f60201b60201c565b90506000600190505b60038160ff16101562000751576001620006c1838360ff1681518110620006a857620006a7620020a4565b5b60200260200101516200111260201b62001a1e1760201c565b036200073b576200071662000705838360ff1681518110620006e857620006e7620020a4565b5b6020026020010151856200123f60201b62001b2d1790919060201c565b62000e4f60201b620019f01760201c565b828260ff16815181106200072f576200072e620020a4565b5b60200260200101819052505b8080620007489062002166565b9150506200067c565b506200076c81846200130560201b62001bdb1790919060201c565b93505050509392505050565b606062000790878787878787620014ff60201b60201c565b6200079a57600080fd5b6000620007af88888862000e7f60201b60201c565b90506000620007c98660ff16868662000e7f60201b60201c565b90506000600267ffffffffffffffff811115620007eb57620007ea62002194565b5b6040519080825280602002602001820160405280156200082857816020015b6200081462001efc565b8152602001906001900390816200080a5790505b50905060005b60038160ff16101562000a4957600162000873858360ff16815181106200085a5762000859620020a4565b5b60200260200101516200111260201b62001a1e1760201c565b0362000937576200091262000901858360ff16815181106200089a5762000899620020a4565b5b6020026020010151620008ed6040518060400160405280600181526020017f300000000000000000000000000000000000000000000000000000000000000081525062000e4f60201b620019f01760201c565b6200123f60201b62001b2d1790919060201c565b62000e4f60201b620019f01760201c565b848260ff16815181106200092b576200092a620020a4565b5b60200260200101819052505b60016200096f848360ff1681518110620009565762000955620020a4565b5b60200260200101516200111260201b62001a1e1760201c565b0362000a335762000a0e620009fd848360ff1681518110620009965762000995620020a4565b5b6020026020010151620009e96040518060400160405280600181526020017f300000000000000000000000000000000000000000000000000000000000000081525062000e4f60201b620019f01760201c565b6200123f60201b62001b2d1790919060201c565b62000e4f60201b620019f01760201c565b838260ff168151811062000a275762000a26620020a4565b5b60200260200101819052505b808062000a409062002166565b9150506200082e565b5062000ac362000ab28462000a9e6040518060400160405280600181526020017f2d0000000000000000000000000000000000000000000000000000000000000081525062000e4f60201b620019f01760201c565b6200130560201b62001bdb1790919060201c565b62000e4f60201b620019f01760201c565b8160008151811062000ada5762000ad9620020a4565b5b602002602001018190525062000b5e62000b4d8362000b396040518060400160405280600181526020017f3a0000000000000000000000000000000000000000000000000000000000000081525062000e4f60201b620019f01760201c565b6200130560201b62001bdb1790919060201c565b62000e4f60201b620019f01760201c565b8160018151811062000b755762000b74620020a4565b5b602002602001018190525062000be48162000bd06040518060400160405280600181526020017f200000000000000000000000000000000000000000000000000000000000000081525062000e4f60201b620019f01760201c565b6200130560201b62001bdb1790919060201c565b93505050509695505050505050565b600062000c088484846200053160201b60201c565b62000c1257600080fd5b600062000c268186620015d260201b60201c565b905062000c3a85856200173e60201b60201c565b8162000c479190620021cd565b90506201518060018462000c5c91906200222a565b60ff1662000c6b919062002265565b8162000c789190620021cd565b9050809150509392505050565b600060076004620151808462000c9c9190620022f5565b62000ca89190620021cd565b62000cb491906200232d565b9050919050565b60006107b28261ffff16108062000cd7575061270f8261ffff16115b1562000ce7576000905062000cec565b600190505b919050565b600060018260ff16108062000d095750600c8260ff16115b1562000d19576000905062000d1e565b600190505b919050565b600080604051806101a00160405280600060ff168152602001601f60ff168152602001601c60ff168152602001601f60ff168152602001601e60ff168152602001601f60ff168152602001601e60ff168152602001601f60ff168152602001601f60ff168152602001601e60ff168152602001601f60ff168152602001601e60ff168152602001601f60ff1681525090506000808460ff160362000dcd5760009250505062000e48565b60028560ff160362000e055762000dea866200194960201b60201c565b1562000dfa57601d905062000dff565b601c90505b62000e26565b818560ff16600d811062000e1e5762000e1d620020a4565b5b602002015190505b8060ff168460ff16111562000e415760009250505062000e48565b6001925050505b9392505050565b62000e5962001efc565b600060208301905060405180604001604052808451815260200182815250915050919050565b60606000600367ffffffffffffffff81111562000ea15762000ea062002194565b5b60405190808252806020026020018201604052801562000ede57816020015b62000eca62001efc565b81526020019060019003908162000ec05790505b50905062000f7773__StringUtils___________________________6394e8767d8761ffff166040518263ffffffff1660e01b815260040162000f22919062002376565b602060405180830381865af415801562000f40573d6000803e3d6000fd5b505050506040513d601f19601f8201168201806040525081019062000f669190620023ce565b620019bf60201b62001d9e1760201c565b8160008151811062000f8e5762000f8d620020a4565b5b60200260200101819052506200102e73__StringUtils___________________________6394e8767d8660ff166040518263ffffffff1660e01b815260040162000fd9919062002376565b602060405180830381865af415801562000ff7573d6000803e3d6000fd5b505050506040513d601f19601f820116820180604052508101906200101d9190620023ce565b620019bf60201b62001d9e1760201c565b81600181518110620010455762001044620020a4565b5b6020026020010181905250620010e573__StringUtils___________________________6394e8767d8560ff166040518263ffffffff1660e01b815260040162001090919062002376565b602060405180830381865af4158015620010ae573d6000803e3d6000fd5b505050506040513d601f19601f82011682018060405250810190620010d49190620023ce565b620019bf60201b62001d9e1760201c565b81600281518110620010fc57620010fb620020a4565b5b6020026020010181905250809150509392505050565b600080601f836020015162001128919062002400565b905060008360000151826200113e9190620021cd565b9050600092505b808210156200123857600060ff835116905060808160ff1610156200117b57600183620011739190620021cd565b925062001221565b60e08160ff1610156200119f57600283620011979190620021cd565b925062001220565b60f08160ff161015620011c357600383620011bb9190620021cd565b92506200121f565b60f88160ff161015620011e757600483620011df9190620021cd565b92506200121e565b60fc8160ff1610156200120b57600583620012039190620021cd565b92506200121d565b6006836200121a9190620021cd565b92505b5b5b5b5b5082806200122f906200243b565b93505062001145565b5050919050565b6060600082600001518460000151620012599190620021cd565b67ffffffffffffffff81111562001275576200127462002194565b5b6040519080825280601f01601f191660200182016040528015620012a85781602001600182028036833780820191505090505b5090506000602082019050620012ce8186602001518760000151620019fc60201b60201c565b620012fa856000015182620012e49190620021cd565b85602001518660000151620019fc60201b60201c565b819250505092915050565b606060008251036200132957604051806020016040528060008152509050620014f9565b6000600183516200133b919062002400565b84600001516200134c919062002265565b905060005b8351811015620013a257838181518110620013715762001370620020a4565b5b602002602001015160000151826200138a9190620021cd565b9150808062001399906200243b565b91505062001351565b5060008167ffffffffffffffff811115620013c257620013c162002194565b5b6040519080825280601f01601f191660200182016040528015620013f55781602001600182028036833780820191505090505b509050600060208201905060005b8551811015620014f1576200146282878381518110620014285762001427620020a4565b5b6020026020010151602001518884815181106200144a5762001449620020a4565b5b602002602001015160000151620019fc60201b60201c565b858181518110620014785762001477620020a4565b5b60200260200101516000015182620014919190620021cd565b915060018651620014a3919062002400565b811015620014db57620014c68288602001518960000151620019fc60201b60201c565b866000015182620014d89190620021cd565b91505b8080620014e8906200243b565b91505062001403565b508193505050505b92915050565b6000620015128762000cbb60201b60201c565b620015215760009050620015c8565b620015328662000cf160201b60201c565b620015415760009050620015c8565b6200155487878762000d2360201b60201c565b620015635760009050620015c8565b620015748462001ab760201b60201c565b620015835760009050620015c8565b620015948362001ada60201b60201c565b620015a35760009050620015c8565b620015b48262001afd60201b60201c565b620015c35760009050620015c8565b600190505b9695505050505050565b60008060008490506107b48461ffff16101562001623576301e133806107b285620015fe919062002488565b61ffff166200160e919062002265565b816200161b9190620021cd565b905062001733565b6301e13380600262001636919062002265565b81620016439190620021cd565b90506107b491506107d08461ffff1610620016d3576334aadc80816200166a9190620021cd565b90506107d091506200168d8483836101906402f060598062001b2060201b60201c565b8092508193505050620016a884838362001b9360201b60201c565b8092508193505050620016ca848383606463bc17c20062001b2060201b60201c565b80925081935050505b620016ed84838360046307861f8062001b2060201b60201c565b80925081935050506200170884838362001b9360201b60201c565b80925081935050506200172a84838360016301e1338062001b2060201b60201c565b80925081935050505b809250505092915050565b60006200174a62001f16565b6200175b846200194960201b60201c565b156200183a57604051806101a00160405280600063ffffffff1681526020016228de8063ffffffff168152602001624f1a0063ffffffff1681526020016277f88063ffffffff168152602001629f858063ffffffff16815260200162c8640063ffffffff16815260200162eff10063ffffffff168152602001630118cf8063ffffffff168152602001630141ae0063ffffffff1681526020016301693b0063ffffffff168152602001630192198063ffffffff1681526020016301b9a68063ffffffff1681526020016301e2850063ffffffff1681525090506200190e565b604051806101a00160405280600063ffffffff1681526020016228de8063ffffffff168152602001624dc88063ffffffff1681526020016276a70063ffffffff168152602001629e340063ffffffff16815260200162c7128063ffffffff16815260200162ee9f8063ffffffff1681526020016301177e0063ffffffff1681526020016301405c8063ffffffff168152602001630167e98063ffffffff168152602001630190c80063ffffffff1681526020016301b8550063ffffffff1681526020016301e1338063ffffffff1681525090505b806001846200191e91906200222a565b60ff16600d8110620019355762001934620020a4565b5b602002015163ffffffff1691505092915050565b6000806004836200195b9190620024c3565b61ffff16146200196f5760009050620019ba565b600061019083620019819190620024c3565b61ffff161480620019a5575060006064836200199e9190620024c3565b61ffff1614155b15620019b55760019050620019ba565b600090505b919050565b620019c962001efc565b6040516020810160405282815280602083015250620019ee8262001c0560201b60201c565b816000018181525050919050565b5b6020811062001a43578151835260208362001a199190620021cd565b925060208262001a2a9190620021cd565b915060208162001a3b919062002400565b9050620019fd565b60007fffffffffffffffffffffffffffffffffffffffffffffffffffffffffffffffff9050600082111562001aa157600182602062001a83919062002400565b61010062001a9291906200264f565b62001a9e919062002400565b90505b8019835116818551168181178652505050505050565b600060178260ff16111562001ad0576000905062001ad5565b600190505b919050565b6000603b8260ff16111562001af3576000905062001af8565b600190505b919050565b6000603b8260ff16111562001b16576000905062001b1b565b600190505b919050565b600080600084878962001b34919062002488565b62001b409190620026a0565b61ffff1690508461ffff168162001b58919062002265565b8761ffff1662001b699190620021cd565b9250838162001b79919062002265565b8662001b869190620021cd565b9150509550959350505050565b6000808391508290508461ffff168261ffff1610801562001bc1575062001bc0826200194960201b60201c565b5b1562001bfd5760018262001bd69190620026d8565b9150620151806301e1338062001bed9190620021cd565b8162001bfa9190620021cd565b90505b935093915050565b6000806000801b830362001c1e57600091505062001d74565b60006fffffffffffffffffffffffffffffffff80168460001c160362001c775760108162001c4d9190620021cd565b90507001000000000000000000000000000000008360001c62001c719190620022f5565b60001b92505b600067ffffffffffffffff80168460001c160362001cc05760088162001c9e9190620021cd565b9050680100000000000000008360001c62001cba9190620022f5565b60001b92505b600063ffffffff80168460001c160362001d015760048162001ce39190620021cd565b90506401000000008360001c62001cfb9190620022f5565b60001b92505b600061ffff80168460001c160362001d3e5760028162001d229190620021cd565b9050620100008360001c62001d389190620022f5565b60001b92505b600060ff80168460001c160362001d615760018162001d5e9190620021cd565b90505b80602062001d70919062002400565b9150505b919050565b826007810192821562001dc0579160200282015b8281111562001dbf57825182908051906020019062001dae92919062001dd3565b509160200191906001019062001d8d565b5b50905062001dcf919062001f39565b5090565b82805462001de19062002102565b90600052602060002090601f01602090048101928262001e05576000855562001e51565b82601f1062001e2057805160ff191683800117855562001e51565b8280016001018555821562001e51579182015b8281111562001e5057825182559160200191906001019062001e33565b5b50905062001e60919062001f61565b5090565b82805462001e729062002102565b90600052602060002090601f01602090048101928262001e96576000855562001ee9565b82601f1062001ea9578054855562001ee9565b8280016001018555821562001ee957600052602060002091601f016020900482015b8281111562001ee857825482559160010191906001019062001ecb565b5b50905062001ef8919062001f61565b5090565b604051806040016040528060008152602001600081525090565b604051806101a00160405280600d90602082028036833780820191505090505090565b5b8082111562001f5d576000818162001f53919062001f80565b5060010162001f3a565b5090565b5b8082111562001f7c57600081600090555060010162001f62565b5090565b50805462001f8e9062002102565b6000825580601f1062001fa2575062001fc3565b601f01602090049060005260206000209081019062001fc2919062001f61565b5b50565b600080fd5b600061ffff82169050919050565b62001fe48162001fcb565b811462001ff057600080fd5b50565b600081519050620020048162001fd9565b92915050565b600060ff82169050919050565b62002022816200200a565b81146200202e57600080fd5b50565b600081519050620020428162002017565b92915050565b60008060006060848603121562002064576200206362001fc6565b5b6000620020748682870162001ff3565b9350506020620020878682870162002031565b92505060406200209a8682870162002031565b9150509250925092565b7f4e487b7100000000000000000000000000000000000000000000000000000000600052603260045260246000fd5b7f4e487b7100000000000000000000000000000000000000000000000000000000600052602260045260246000fd5b600060028204905060018216806200211b57607f821691505b602082108103620021315762002130620020d3565b5b50919050565b7f4e487b7100000000000000000000000000000000000000000000000000000000600052601160045260246000fd5b600062002173826200200a565b915060ff820362002189576200218862002137565b5b600182019050919050565b7f4e487b7100000000000000000000000000000000000000000000000000000000600052604160045260246000fd5b6000819050919050565b6000620021da82620021c3565b9150620021e783620021c3565b9250827fffffffffffffffffffffffffffffffffffffffffffffffffffffffffffffffff038211156200221f576200221e62002137565b5b828201905092915050565b600062002237826200200a565b915062002244836200200a565b9250828210156200225a576200225962002137565b5b828203905092915050565b60006200227282620021c3565b91506200227f83620021c3565b9250817fffffffffffffffffffffffffffffffffffffffffffffffffffffffffffffffff0483118215151615620022bb57620022ba62002137565b5b828202905092915050565b7f4e487b7100000000000000000000000000000000000000000000000000000000600052601260045260246000fd5b60006200230282620021c3565b91506200230f83620021c3565b925082620023225762002321620022c6565b5b828204905092915050565b60006200233a82620021c3565b91506200234783620021c3565b9250826200235a5762002359620022c6565b5b828206905092915050565b6200237081620021c3565b82525050565b60006020820190506200238d600083018462002365565b92915050565b6000819050919050565b620023a88162002393565b8114620023b457600080fd5b50565b600081519050620023c8816200239d565b92915050565b600060208284031215620023e757620023e662001fc6565b5b6000620023f784828501620023b7565b91505092915050565b60006200240d82620021c3565b91506200241a83620021c3565b92508282101562002430576200242f62002137565b5b828203905092915050565b60006200244882620021c3565b91507fffffffffffffffffffffffffffffffffffffffffffffffffffffffffffffffff82036200247d576200247c62002137565b5b600182019050919050565b6000620024958262001fcb565b9150620024a28362001fcb565b925082821015620024b857620024b762002137565b5b828203905092915050565b6000620024d08262001fcb565b9150620024dd8362001fcb565b925082620024f057620024ef620022c6565b5b828206905092915050565b60008160011c9050919050565b6000808291508390505b60018511156200255a5780860481111562002532576200253162002137565b5b6001851615620025425780820291505b80810290506200255285620024fb565b945062002512565b94509492505050565b60008262002575576001905062002648565b8162002585576000905062002648565b81600181146200259e5760028114620025a957620025df565b600191505062002648565b60ff841115620025be57620025bd62002137565b5b8360020a915084821115620025d857620025d762002137565b5b5062002648565b5060208310610133831016604e8410600b8410161715620026195782820a90508381111562002613576200261262002137565b5b62002648565b62002628848484600162002508565b9250905081840481111562002642576200264162002137565b5b81810290505b9392505050565b60006200265c82620021c3565b91506200266983620021c3565b9250620026987fffffffffffffffffffffffffffffffffffffffffffffffffffffffffffffffff848462002563565b905092915050565b6000620026ad8262001fcb565b9150620026ba8362001fcb565b925082620026cd57620026cc620022c6565b5b828204905092915050565b6000620026e58262001fcb565b9150620026f28362001fcb565b92508261ffff038211156200270c576200270b62002137565b5b828201905092915050565b6152b980620027276000396000f3fe608060405234801561001057600080fd5b506004361061014d5760003560e01c8063702921f5116100c3578063c85c2d381161007c578063c85c2d3814610335578063ce449b7b14610351578063d048af9e14610375578063dffe378514610393578063e89b7222146103b1578063f3269716146103cf5761014d565b8063702921f514610285578063793a8343146102a35780637b76ac91146102c15780638da5cb5b146102df578063a2c00e4f146102fd578063c1bec381146103195761014d565b8063305069c211610115578063305069c2146101d257806338846850146101ee5780633c30b7811461020c5780633fada22b1461022a5780633fdb8cbd146102465780635a8ac02d146102675761014d565b80630c08bf8814610152578063131dab3d1461015c578063188ec3561461017857806323e5f1c51461019657806325e54ae7146101b4575b600080fd5b61015a6103ed565b005b610176600480360381019061017191906146e2565b61045d565b005b61018061062a565b60405161018d919061474e565b60405180910390f35b61019e610634565b6040516101ab9190614778565b60405180910390f35b6101bc610647565b6040516101c9919061482c565b60405180910390f35b6101ec60048036038101906101e7919061484e565b6106d5565b005b6101f66108b3565b604051610203919061474e565b60405180910390f35b6102146108b9565b604051610221919061482c565b60405180910390f35b610244600480360381019061023f9190614a10565b610947565b005b61024e610af6565b60405161025e9493929190614a68565b60405180910390f35b61026f610bc4565b60405161027c9190614778565b60405180910390f35b61028d610bd7565b60405161029a9190614778565b60405180910390f35b6102ab610bea565b6040516102b8919061482c565b60405180910390f35b6102c9610c7c565b6040516102d69190614778565b60405180910390f35b6102e7610c8f565b6040516102f49190614af5565b60405180910390f35b61031760048036038101906103129190614a10565b610cb5565b005b610333600480360381019061032e9190614b3c565b610e2c565b005b61034f600480360381019061034a9190614b3c565b610ff1565b005b6103596111ae565b60405161036c9796959493929190614b69565b60405180910390f35b61037d6112b5565b60405161038a919061482c565b60405180910390f35b61039b611347565b6040516103a8919061482c565b60405180910390f35b6103b96113d5565b6040516103c69190614778565b60405180910390f35b6103d76113e8565b6040516103e49190614bdf565b60405180910390f35b600760009054906101000a900473ffffffffffffffffffffffffffffffffffffffff1673ffffffffffffffffffffffffffffffffffffffff163373ffffffffffffffffffffffffffffffffffffffff160361045b573373ffffffffffffffffffffffffffffffffffffffff16ff5b565b61046883838361144e565b600d908051906020019061047d92919061449e565b506105606104bf6040518060400160405280600981526020017f2030303a30303a303000000000000000000000000000000000000000000000008152506119f0565b610552600d80546104cf90614c29565b80601f01602080910402602001604051908101604052809291908181526020018280546104fb90614c29565b80156105485780601f1061051d57610100808354040283529160200191610548565b820191906000526020600020905b81548152906001019060200180831161052b57829003601f168201915b50505050506119f0565b611b2d90919063ffffffff16565b600e908051906020019061057592919061449e565b50610609600d805461058690614c29565b80601f01602080910402602001604051908101604052809291908181526020018280546105b290614c29565b80156105ff5780601f106105d4576101008083540402835291602001916105ff565b820191906000526020600020905b8154815290600101906020018083116105e257829003601f168201915b5050505050611dd1565b61061483838361194f565b600c81905550610625600c54611ffe565b505050565b6000600c54905090565b600f60049054906101000a900460ff1681565b600d805461065490614c29565b80601f016020809104026020016040519081016040528092919081815260200182805461068090614c29565b80156106cd5780601f106106a2576101008083540402835291602001916106cd565b820191906000526020600020905b8154815290600101906020018083116106b057829003601f168201915b505050505081565b6106e38686868686866115c4565b600e90805190602001906106f892919061449e565b506107e36107de61073d6040518060400160405280600181526020017f20000000000000000000000000000000000000000000000000000000000000008152506119f0565b6107d0600e805461074d90614c29565b80601f016020809104026020016040519081016040528092919081815260200182805461077990614c29565b80156107c65780601f1061079b576101008083540402835291602001916107c6565b820191906000526020600020905b8154815290600101906020018083116107a957829003601f168201915b50505050506119f0565b61207990919063ffffffff16565b612093565b600d90805190602001906107f892919061449e565b5061088c600e805461080990614c29565b80601f016020809104026020016040519081016040528092919081815260200182805461083590614c29565b80156108825780601f1061085757610100808354040283529160200191610882565b820191906000526020600020905b81548152906001019060200180831161086557829003601f168201915b505050505061210f565b61089a8686868686866123fa565b600c819055506108ab600c54611ffe565b505050505050565b600c5481565b600e80546108c690614c29565b80601f01602080910402602001604051908101604052809291908181526020018280546108f290614c29565b801561093f5780601f106109145761010080835404028352916020019161093f565b820191906000526020600020905b81548152906001019060200180831161092257829003601f168201915b505050505081565b610950816124bd565b61095957600080fd5b6109b96109b461099d6040518060400160405280600181526020017f20000000000000000000000000000000000000000000000000000000000000008152506119f0565b6109a6846119f0565b61207990919063ffffffff16565b612093565b600d90805190602001906109ce92919061449e565b5080600e90805190602001906109e592919061449e565b50610a79600e80546109f690614c29565b80601f0160208091040260200160405190810160405280929190818152602001828054610a2290614c29565b8015610a6f5780601f10610a4457610100808354040283529160200191610a6f565b820191906000526020600020905b815481529060010190602001808311610a5257829003601f168201915b505050505061210f565b610ae2600f60009054906101000a900461ffff16600f60029054906101000a900460ff16600f60039054906101000a900460ff16600f60049054906101000a900460ff16600f60059054906101000a900460ff16600f60069054906101000a900460ff166123fa565b600c81905550610af3600c54611ffe565b50565b60088060000160009054906101000a900461ffff16908060000160029054906101000a900460ff16908060000160039054906101000a900460ff1690806001018054610b4190614c29565b80601f0160208091040260200160405190810160405280929190818152602001828054610b6d90614c29565b8015610bba5780601f10610b8f57610100808354040283529160200191610bba565b820191906000526020600020905b815481529060010190602001808311610b9d57829003601f168201915b5050505050905084565b600f60069054906101000a900460ff1681565b600f60029054906101000a900460ff1681565b6060600d8054610bf990614c29565b80601f0160208091040260200160405190810160405280929190818152602001828054610c2590614c29565b8015610c725780601f10610c4757610100808354040283529160200191610c72565b820191906000526020600020905b815481529060010190602001808311610c5557829003601f168201915b5050505050905090565b600f60039054906101000a900460ff1681565b600760009054906101000a900473ffffffffffffffffffffffffffffffffffffffff1681565b610cbe81612595565b610cc757600080fd5b80600d9080519060200190610cdd92919061449e565b50610d36610d1f6040518060400160405280600981526020017f2030303a30303a303000000000000000000000000000000000000000000000008152506119f0565b610d28836119f0565b611b2d90919063ffffffff16565b600e9080519060200190610d4b92919061449e565b50610ddf600d8054610d5c90614c29565b80601f0160208091040260200160405190810160405280929190818152602001828054610d8890614c29565b8015610dd55780601f10610daa57610100808354040283529160200191610dd5565b820191906000526020600020905b815481529060010190602001808311610db857829003601f168201915b5050505050611dd1565b610e18600f60009054906101000a900461ffff16600f60029054906101000a900460ff16600f60039054906101000a900460ff1661194f565b600c81905550610e29600c54611ffe565b50565b610e3581612785565b600e9080519060200190610e4a92919061449e565b50610f35610f30610e8f6040518060400160405280600181526020017f20000000000000000000000000000000000000000000000000000000000000008152506119f0565b610f22600e8054610e9f90614c29565b80601f0160208091040260200160405190810160405280929190818152602001828054610ecb90614c29565b8015610f185780601f10610eed57610100808354040283529160200191610f18565b820191906000526020600020905b815481529060010190602001808311610efb57829003601f168201915b50505050506119f0565b61207990919063ffffffff16565b612093565b600d9080519060200190610f4a92919061449e565b50610fde600e8054610f5b90614c29565b80601f0160208091040260200160405190810160405280929190818152602001828054610f8790614c29565b8015610fd45780601f10610fa957610100808354040283529160200191610fd4565b820191906000526020600020905b815481529060010190602001808311610fb757829003601f168201915b505050505061210f565b80600c81905550610fee81611ffe565b50565b610ffa816127cc565b600d908051906020019061100f92919061449e565b506110f26110516040518060400160405280600981526020017f2030303a30303a303000000000000000000000000000000000000000000000008152506119f0565b6110e4600d805461106190614c29565b80601f016020809104026020016040519081016040528092919081815260200182805461108d90614c29565b80156110da5780601f106110af576101008083540402835291602001916110da565b820191906000526020600020905b8154815290600101906020018083116110bd57829003601f168201915b50505050506119f0565b611b2d90919063ffffffff16565b600e908051906020019061110792919061449e565b5061119b600d805461111890614c29565b80601f016020809104026020016040519081016040528092919081815260200182805461114490614c29565b80156111915780601f1061116657610100808354040283529160200191611191565b820191906000526020600020905b81548152906001019060200180831161117457829003601f168201915b5050505050611dd1565b80600c819055506111ab81611ffe565b50565b600a8060000160009054906101000a900461ffff16908060000160029054906101000a900460ff16908060000160039054906101000a900460ff16908060000160049054906101000a900460ff16908060000160059054906101000a900460ff16908060000160069054906101000a900460ff169080600101805461123290614c29565b80601f016020809104026020016040519081016040528092919081815260200182805461125e90614c29565b80156112ab5780601f10611280576101008083540402835291602001916112ab565b820191906000526020600020905b81548152906001019060200180831161128e57829003601f168201915b5050505050905087565b6060600e80546112c490614c29565b80601f01602080910402602001604051908101604052809291908181526020018280546112f090614c29565b801561133d5780601f106113125761010080835404028352916020019161133d565b820191906000526020600020905b81548152906001019060200180831161132057829003601f168201915b5050505050905090565b6010805461135490614c29565b80601f016020809104026020016040519081016040528092919081815260200182805461138090614c29565b80156113cd5780601f106113a2576101008083540402835291602001916113cd565b820191906000526020600020905b8154815290600101906020018083116113b057829003601f168201915b505050505081565b600f60059054906101000a900460ff1681565b600f60009054906101000a900461ffff1681565b6000611407846127fd565b6114145760009050611447565b61141d83612830565b61142a5760009050611447565b61143584848461285f565b6114425760009050611447565b600190505b9392505050565b606061145b8484846113fc565b61146457600080fd5b60006114a46040518060400160405280600181526020017f2d000000000000000000000000000000000000000000000000000000000000008152506119f0565b905060006114e66040518060400160405280600181526020017f30000000000000000000000000000000000000000000000000000000000000008152506119f0565b905060006114f5878787612978565b90506000600190505b60038160ff1610156115a4576001611532838360ff168151811061152557611524614c5a565b5b6020026020010151611a1e565b036115915761156f61156a838360ff168151811061155357611552614c5a565b5b602002602001015185611b2d90919063ffffffff16565b6119f0565b828260ff168151811061158557611584614c5a565b5b60200260200101819052505b808061159c90614cb8565b9150506114fe565b506115b88184611bdb90919063ffffffff16565b93505050509392505050565b60606115d4878787878787612bc5565b6115dd57600080fd5b60006115ea888888612978565b905060006115fc8660ff168686612978565b90506000600267ffffffffffffffff81111561161b5761161a6148e5565b5b60405190808252806020026020018201604052801561165457816020015b611641614524565b8152602001906001900390816116395790505b50905060005b60038160ff16101561180157600161168e858360ff168151811061168157611680614c5a565b5b6020026020010151611a1e565b0361172a57611708611703858360ff16815181106116af576116ae614c5a565b5b60200260200101516116f56040518060400160405280600181526020017f30000000000000000000000000000000000000000000000000000000000000008152506119f0565b611b2d90919063ffffffff16565b6119f0565b848260ff168151811061171e5761171d614c5a565b5b60200260200101819052505b6001611752848360ff168151811061174557611744614c5a565b5b6020026020010151611a1e565b036117ee576117cc6117c7848360ff168151811061177357611772614c5a565b5b60200260200101516117b96040518060400160405280600181526020017f30000000000000000000000000000000000000000000000000000000000000008152506119f0565b611b2d90919063ffffffff16565b6119f0565b838260ff16815181106117e2576117e1614c5a565b5b60200260200101819052505b80806117f990614cb8565b91505061165a565b5061185a611855846118476040518060400160405280600181526020017f2d000000000000000000000000000000000000000000000000000000000000008152506119f0565b611bdb90919063ffffffff16565b6119f0565b8160008151811061186e5761186d614c5a565b5b60200260200101819052506118d16118cc836118be6040518060400160405280600181526020017f3a000000000000000000000000000000000000000000000000000000000000008152506119f0565b611bdb90919063ffffffff16565b6119f0565b816001815181106118e5576118e4614c5a565b5b6020026020010181905250611940816119326040518060400160405280600181526020017f20000000000000000000000000000000000000000000000000000000000000008152506119f0565b611bdb90919063ffffffff16565b93505050509695505050505050565b600061195c8484846113fc565b61196557600080fd5b60006119718186612c5c565b905061197d8585612d89565b816119889190614ce1565b90506201518060018461199b9190614d37565b60ff166119a89190614d6b565b816119b39190614ce1565b9050809150509392505050565b60006007600462015180846119d59190614df4565b6119df9190614ce1565b6119e99190614e25565b9050919050565b6119f8614524565b600060208301905060405180604001604052808451815260200182815250915050919050565b600080601f8360200151611a329190614e56565b90506000836000015182611a469190614ce1565b9050600092505b80821015611b2657600060ff835116905060808160ff161015611a7e57600183611a779190614ce1565b9250611b12565b60e08160ff161015611a9e57600283611a979190614ce1565b9250611b11565b60f08160ff161015611abe57600383611ab79190614ce1565b9250611b10565b60f88160ff161015611ade57600483611ad79190614ce1565b9250611b0f565b60fc8160ff161015611afe57600583611af79190614ce1565b9250611b0e565b600683611b0b9190614ce1565b92505b5b5b5b5b508280611b1e90614e8a565b935050611a4d565b5050919050565b6060600082600001518460000151611b459190614ce1565b67ffffffffffffffff811115611b5e57611b5d6148e5565b5b6040519080825280601f01601f191660200182016040528015611b905781602001600182028036833780820191505090505b5090506000602082019050611bae8186602001518760000151612f83565b611bd0856000015182611bc19190614ce1565b85602001518660000151612f83565b819250505092915050565b60606000825103611bfd57604051806020016040528060008152509050611d98565b600060018351611c0d9190614e56565b8460000151611c1c9190614d6b565b905060005b8351811015611c6957838181518110611c3d57611c3c614c5a565b5b60200260200101516000015182611c549190614ce1565b91508080611c6190614e8a565b915050611c21565b5060008167ffffffffffffffff811115611c8657611c856148e5565b5b6040519080825280601f01601f191660200182016040528015611cb85781602001600182028036833780820191505090505b509050600060208201905060005b8551811015611d9057611d1682878381518110611ce657611ce5614c5a565b5b602002602001015160200151888481518110611d0557611d04614c5a565b5b602002602001015160000151612f83565b858181518110611d2957611d28614c5a565b5b60200260200101516000015182611d409190614ce1565b915060018651611d509190614e56565b811015611d7d57611d6a8288602001518960000151612f83565b866000015182611d7a9190614ce1565b91505b8080611d8890614e8a565b915050611cc6565b508193505050505b92915050565b611da6614524565b6040516020810160405282815280602083015250611dc38261302f565b816000018181525050919050565b611dda81613188565b600f6000600f6002600f60038691906101000a81548160ff021916908360ff1602179055508591906101000a81548160ff021916908360ff1602179055508491906101000a81548161ffff021916908361ffff1602179055505050506000600f60046101000a81548160ff021916908360ff1602179055506000600f60056101000a81548160ff021916908360ff1602179055506000600f60066101000a81548160ff021916908360ff160217905550600f60009054906101000a900461ffff16600860000160006101000a81548161ffff021916908361ffff160217905550600f60029054906101000a900460ff16600860000160026101000a81548160ff021916908360ff160217905550600f60039054906101000a900460ff16600860000160036101000a81548160ff021916908360ff160217905550600f60009054906101000a900461ffff16600a60000160006101000a81548161ffff021916908361ffff160217905550600f60029054906101000a900460ff16600a60000160026101000a81548160ff021916908360ff160217905550600f60039054906101000a900460ff16600a60000160036101000a81548160ff021916908360ff1602179055506000600a60000160046101000a81548160ff021916908360ff1602179055506000600a60000160056101000a81548160ff021916908360ff1602179055506000600a60000160066101000a81548160ff021916908360ff16021790555050565b6000612009826119c0565b60ff166007811061201d5761201c614c5a565b5b01601090805461202c90614c29565b61203792919061453e565b506010600860010190805461204b90614c29565b61205692919061453e565b506010600a60010190805461206a90614c29565b61207592919061453e565b5050565b612081614524565b61208c83838361322f565b5092915050565b60606000826000015167ffffffffffffffff8111156120b5576120b46148e5565b5b6040519080825280601f01601f1916602001820160405280156120e75781602001600182028036833780820191505090505b50905060006020820190506121058185602001518660000151612f83565b8192505050919050565b600061211a826119f0565b9050612124614524565b61212c614524565b61217c61216d6040518060400160405280600181526020017f20000000000000000000000000000000000000000000000000000000000000008152506119f0565b8461207990919063ffffffff16565b915082905061219261218d83612093565b613188565b600f6000600f6002600f60038691906101000a81548160ff021916908360ff1602179055508591906101000a81548160ff021916908360ff1602179055508491906101000a81548161ffff021916908361ffff1602179055505050506121ff6121fa82612093565b6132f9565b600f6004600f6005600f60068691906101000a81548160ff021916908360ff1602179055508591906101000a81548160ff021916908360ff1602179055508491906101000a81548160ff021916908360ff160217905550505050600f60009054906101000a900461ffff16600860000160006101000a81548161ffff021916908361ffff160217905550600f60029054906101000a900460ff16600860000160026101000a81548160ff021916908360ff160217905550600f60039054906101000a900460ff16600860000160036101000a81548160ff021916908360ff160217905550600f60009054906101000a900461ffff16600a60000160006101000a81548161ffff021916908361ffff160217905550600f60029054906101000a900460ff16600a60000160026101000a81548160ff021916908360ff160217905550600f60039054906101000a900460ff16600a60000160036101000a81548160ff021916908360ff160217905550600f60049054906101000a900460ff16600a60000160046101000a81548160ff021916908360ff160217905550600f60059054906101000a900460ff16600a60000160056101000a81548160ff021916908360ff160217905550600f60069054906101000a900460ff16600a60000160066101000a81548160ff021916908360ff16021790555050505050565b600061240a878787878787612bc5565b61241357600080fd5b600061241f8189612c5c565b905061242b8888612d89565b816124369190614ce1565b9050620151806001876124499190614d37565b60ff166124569190614d6b565b816124619190614ce1565b9050610e108560ff166124749190614d6b565b8161247f9190614ce1565b9050603c8460ff166124919190614d6b565b8161249c9190614ce1565b90508260ff16816124ad9190614ce1565b9050809150509695505050505050565b6000806124c9836119f0565b9050600061250b6040518060400160405280600181526020017f20000000000000000000000000000000000000000000000000000000000000008152506119f0565b9050612515614524565b601361252084611a1e565b146125315760009350505050612590565b612544828461207990919063ffffffff16565b905061255761255282612093565b612595565b6125675760009350505050612590565b61257861257384612093565b6133a0565b6125885760009350505050612590565b600193505050505b919050565b6000806125a1836119f0565b905060006125e36040518060400160405280600181526020017f2d000000000000000000000000000000000000000000000000000000000000008152506119f0565b90506125ed614524565b6125f5614524565b6125fd614524565b6126056145cb565b6000806000600a6126158a611a1e565b1461262c5760009950505050505050505050612780565b60026126388a8a6135ad565b1461264f5760009950505050505050505050612780565b6126588b613655565b93508360006003811061266e5761266d614c5a565b5b602002015196508360016003811061268957612688614c5a565b5b60200201519550836002600381106126a4576126a3614c5a565b5b6020020151945060046126b688611a1e565b146126cd5760009950505050505050505050612780565b6126d68761373a565b925060026126e387611a1e565b146126fa5760009950505050505050505050612780565b6127038661383f565b915061270e82612830565b6127245760009950505050505050505050612780565b600261272f86611a1e565b146127465760009950505050505050505050612780565b61274f8561383f565b905061275c83838361285f565b6127725760009950505050505050505050612780565b600199505050505050505050505b919050565b606060008060008060008061279988613944565b809650819750829850839950849a50859b505050505050506127bf8686868686866115c4565b9650505050505050919050565b606060008060006127dc856139b5565b8093508194508295505050506127f383838361144e565b9350505050919050565b60006107b28261ffff161080612818575061270f8261ffff16115b15612826576000905061282b565b600190505b919050565b600060018260ff1610806128475750600c8260ff16115b15612855576000905061285a565b600190505b919050565b600080604051806101a00160405280600060ff168152602001601f60ff168152602001601c60ff168152602001601f60ff168152602001601e60ff168152602001601f60ff168152602001601e60ff168152602001601f60ff168152602001601f60ff168152602001601e60ff168152602001601f60ff168152602001601e60ff168152602001601f60ff1681525090506000808460ff160361290757600092505050612971565b60028560ff16036129335761291b866139fa565b1561292957601d905061292e565b601c90505b612951565b818560ff16600d811061294957612948614c5a565b5b602002015190505b8060ff168460ff16111561296a57600092505050612971565b6001925050505b9392505050565b60606000600367ffffffffffffffff811115612997576129966148e5565b5b6040519080825280602002602001820160405280156129d057816020015b6129bd614524565b8152602001906001900390816129b55790505b509050612a5773__StringUtils___________________________6394e8767d8761ffff166040518263ffffffff1660e01b8152600401612a119190614ee1565b602060405180830381865af4158015612a2e573d6000803e3d6000fd5b505050506040513d601f19601f82011682018060405250810190612a529190614f32565b611d9e565b81600081518110612a6b57612a6a614c5a565b5b6020026020010181905250612af973__StringUtils___________________________6394e8767d8660ff166040518263ffffffff1660e01b8152600401612ab39190614ee1565b602060405180830381865af4158015612ad0573d6000803e3d6000fd5b505050506040513d601f19601f82011682018060405250810190612af49190614f32565b611d9e565b81600181518110612b0d57612b0c614c5a565b5b6020026020010181905250612b9b73__StringUtils___________________________6394e8767d8560ff166040518263ffffffff1660e01b8152600401612b559190614ee1565b602060405180830381865af4158015612b72573d6000803e3d6000fd5b505050506040513d601f19601f82011682018060405250810190612b969190614f32565b611d9e565b81600281518110612baf57612bae614c5a565b5b6020026020010181905250809150509392505050565b6000612bd0876127fd565b612bdd5760009050612c52565b612be686612830565b612bf35760009050612c52565b612bfe87878761285f565b612c0b5760009050612c52565b612c1484613a65565b612c215760009050612c52565b612c2a83613a86565b612c375760009050612c52565b612c4082613aa7565b612c4d5760009050612c52565b600190505b9695505050505050565b60008060008490506107b48461ffff161015612ca5576301e133806107b285612c859190614f5f565b61ffff16612c939190614d6b565b81612c9e9190614ce1565b9050612d7e565b6301e133806002612cb69190614d6b565b81612cc19190614ce1565b90506107b491506107d08461ffff1610612d36576334aadc8081612ce59190614ce1565b90506107d09150612d008483836101906402f0605980613ac8565b8092508193505050612d13848383613b2f565b8092508193505050612d2d848383606463bc17c200613ac8565b80925081935050505b612d4884838360046307861f80613ac8565b8092508193505050612d5b848383613b2f565b8092508193505050612d7584838360016301e13380613ac8565b80925081935050505b809250505092915050565b6000612d936145f8565b612d9c846139fa565b15612e7957604051806101a00160405280600063ffffffff1681526020016228de8063ffffffff168152602001624f1a0063ffffffff1681526020016277f88063ffffffff168152602001629f858063ffffffff16815260200162c8640063ffffffff16815260200162eff10063ffffffff168152602001630118cf8063ffffffff168152602001630141ae0063ffffffff1681526020016301693b0063ffffffff168152602001630192198063ffffffff1681526020016301b9a68063ffffffff1681526020016301e2850063ffffffff168152509050612f4d565b604051806101a00160405280600063ffffffff1681526020016228de8063ffffffff168152602001624dc88063ffffffff1681526020016276a70063ffffffff168152602001629e340063ffffffff16815260200162c7128063ffffffff16815260200162ee9f8063ffffffff1681526020016301177e0063ffffffff1681526020016301405c8063ffffffff168152602001630167e98063ffffffff168152602001630190c80063ffffffff1681526020016301b8550063ffffffff1681526020016301e1338063ffffffff1681525090505b80600184612f5b9190614d37565b60ff16600d8110612f6f57612f6e614c5a565b5b602002015163ffffffff1691505092915050565b5b60208110612fc25781518352602083612f9d9190614ce1565b9250602082612fac9190614ce1565b9150602081612fbb9190614e56565b9050612f84565b60007fffffffffffffffffffffffffffffffffffffffffffffffffffffffffffffffff90506000821115613019576001826020612fff9190614e56565b61010061300c91906150c6565b6130169190614e56565b90505b8019835116818551168181178652505050505050565b6000806000801b8303613046576000915050613183565b60006fffffffffffffffffffffffffffffffff80168460001c160361309a576010816130729190614ce1565b90507001000000000000000000000000000000008360001c6130949190614df4565b60001b92505b600067ffffffffffffffff80168460001c16036130de576008816130be9190614ce1565b9050680100000000000000008360001c6130d89190614df4565b60001b92505b600063ffffffff80168460001c160361311a576004816130fe9190614ce1565b90506401000000008360001c6131149190614df4565b60001b92505b600061ffff80168460001c1603613152576002816131389190614ce1565b9050620100008360001c61314c9190614df4565b60001b92505b600060ff80168460001c16036131725760018161316f9190614ce1565b90505b80602061317f9190614e56565b9150505b919050565b600080600061319684612595565b61319f57600080fd5b60006131aa85613655565b90506000816000600381106131c2576131c1614c5a565b5b602002015190506000826001600381106131df576131de614c5a565b5b602002015190506000836002600381106131fc576131fb614c5a565b5b6020020151905061320c8361373a565b96506132178261383f565b95506132228161383f565b9450505050509193909250565b613237614524565b60006132558560000151866020015186600001518760200151613b91565b905084602001518360200181815250508460200151816132759190614e56565b836000018181525050846000015185602001516132929190614ce1565b81036132a85760008560000181815250506132ee565b836000015183600001516132bc9190614ce1565b856000018181516132cd9190614e56565b915081815250508360000151816132e49190614ce1565b8560200181815250505b829150509392505050565b6000806000613307846133a0565b61331057600080fd5b600061331b85613cda565b905060008160006003811061333357613332614c5a565b5b602002015190506000826001600381106133505761334f614c5a565b5b6020020151905060008360026003811061336d5761336c614c5a565b5b6020020151905061337d8361383f565b96506133888261383f565b95506133938161383f565b9450505050509193909250565b6000806133ac836119f0565b905060006133ee6040518060400160405280600181526020017f3a000000000000000000000000000000000000000000000000000000000000008152506119f0565b90506133f8614524565b613400614524565b613408614524565b6134106145cb565b600080600060086134208a611a1e565b1461343757600099505050505050505050506135a8565b60026134438a8a6135ad565b1461345a57600099505050505050505050506135a8565b6134638b613cda565b93508360006003811061347957613478614c5a565b5b602002015196508360016003811061349457613493614c5a565b5b60200201519550836002600381106134af576134ae614c5a565b5b6020020151945060026134c188611a1e565b146134d857600099505050505050505050506135a8565b6134e18761383f565b92506134ec83613a65565b61350257600099505050505050505050506135a8565b600261350d87611a1e565b1461352457600099505050505050505050506135a8565b61352d8661383f565b915061353882613a86565b61354e57600099505050505050505050506135a8565b600261355986611a1e565b1461357057600099505050505050505050506135a8565b6135798561383f565b905061358481613aa7565b61359a57600099505050505050505050506135a8565b600199505050505050505050505b919050565b60008082600001516135d18560000151866020015186600001518760200151613b91565b6135db9190614ce1565b90505b836000015184602001516135f29190614ce1565b811161364e57818061360390614e8a565b925050826000015161363d85602001518361361e9190614e56565b866000015161362d9190614e56565b8386600001518760200151613b91565b6136479190614ce1565b90506135de565b5092915050565b61365d6145cb565b6136656145cb565b6000613670846119f0565b905060006136b26040518060400160405280600181526020017f2d000000000000000000000000000000000000000000000000000000000000008152506119f0565b90506136c7818361207990919063ffffffff16565b836000600381106136db576136da614c5a565b5b60200201819052506136f6818361207990919063ffffffff16565b8360016003811061370a57613709614c5a565b5b6020020181905250818360026003811061372757613726614c5a565b5b6020020181905250829350505050919050565b60008073__StringUtils___________________________63cfb5192861376085612093565b6040518263ffffffff1660e01b815260040161377c919061515b565b602060405180830381865af4158015613799573d6000803e3d6000fd5b505050506040513d601f19601f820116820180604052508101906137bd9190614f32565b905073__StringUtils___________________________6381a33a6f826040518263ffffffff1660e01b81526004016137f6919061518c565b602060405180830381865af4158015613813573d6000803e3d6000fd5b505050506040513d601f19601f8201168201806040525081019061383791906151bc565b915050919050565b60008073__StringUtils___________________________63cfb5192861386585612093565b6040518263ffffffff1660e01b8152600401613881919061515b565b602060405180830381865af415801561389e573d6000803e3d6000fd5b505050506040513d601f19601f820116820180604052508101906138c29190614f32565b905073__StringUtils___________________________6381a33a6f826040518263ffffffff1660e01b81526004016138fb919061518c565b602060405180830381865af4158015613918573d6000803e3d6000fd5b505050506040513d601f19601f8201168201806040525081019061393c91906151bc565b915050919050565b600080600080600080600087905061395b81613dbf565b809850819250505061396d818861402e565b809750819250505061397e816143b4565b809650819250505061398f816143fe565b80955081925050506139a081614416565b80945081925050508091505091939550919395565b6000806000808490506139c781613dbf565b80955081925050506139d9818561402e565b80945081925050506139ea816143b4565b8093508192505050509193909250565b600080600483613a0a91906151e9565b61ffff1614613a1c5760009050613a60565b600061019083613a2c91906151e9565b61ffff161480613a4d57506000606483613a4691906151e9565b61ffff1614155b15613a5b5760019050613a60565b600090505b919050565b600060178260ff161115613a7c5760009050613a81565b600190505b919050565b6000603b8260ff161115613a9d5760009050613aa2565b600190505b919050565b6000603b8260ff161115613abe5760009050613ac3565b600190505b919050565b6000806000848789613ada9190614f5f565b613ae4919061521a565b61ffff1690508461ffff1681613afa9190614d6b565b8761ffff16613b099190614ce1565b92508381613b179190614d6b565b86613b229190614ce1565b9150509550959350505050565b6000808391508290508461ffff168261ffff16108015613b545750613b53826139fa565b5b15613b8957600182613b66919061524b565b9150620151806301e13380613b7b9190614ce1565b81613b869190614ce1565b90505b935093915050565b6000808490506000868511613cc15760208511613c6457600080861115613bea576001866020613bc19190614e56565b6008613bcd9190614d6b565b6002613bd991906150c6565b613be39190614e56565b1960001b90505b60008186511690506000878a8a613c019190614ce1565b613c0b9190614e56565b905060008386511690505b828114613c5657818610613c3d578a8a613c309190614ce1565b9650505050505050613cd2565b8580613c4890614e8a565b965050838651169050613c16565b859650505050505050613cd2565b60008585209050600091505b8588613c7c9190614e56565b8211613cbf5760008684209050808203613c9c5783945050505050613cd2565b600184613ca99190614ce1565b9350508180613cb790614e8a565b925050613c70565b505b8686613ccd9190614ce1565b925050505b949350505050565b613ce26145cb565b613cea6145cb565b6000613cf5846119f0565b90506000613d376040518060400160405280600181526020017f3a000000000000000000000000000000000000000000000000000000000000008152506119f0565b9050613d4c818361207990919063ffffffff16565b83600060038110613d6057613d5f614c5a565b5b6020020181905250613d7b818361207990919063ffffffff16565b83600160038110613d8f57613d8e614c5a565b5b60200201819052508183600260038110613dac57613dab614c5a565b5b6020020181905250829350505050919050565b6000806000808493506107b292506301e133806002613dde9190614d6b565b841015613e27576301e1338084613df59190614df4565b91506301e1338082613e079190614d6b565b84613e129190614e56565b93508183613e20919061524b565b9250614027565b6301e133806002613e389190614d6b565b84613e439190614e56565b93506107b492506334aadc808410613f56576334aadc8084613e659190614e56565b9350601c83613e74919061524b565b92506402f060598084613e879190614df4565b91506402f060598082613e9a9190614d6b565b84613ea59190614e56565b935061019082613eb59190614d6b565b83613ec0919061524b565b9250613ecb8361442d565b90508063ffffffff168410613efe578063ffffffff1684613eec9190614e56565b9350600183613efb919061524b565b92505b613f07836139fa565b613f555763bc17c20084613f1b9190614df4565b915063bc17c20082613f2d9190614d6b565b84613f389190614e56565b9350606482613f479190614d6b565b83613f52919061524b565b92505b5b6307861f8084613f669190614df4565b91506307861f8082613f789190614d6b565b84613f839190614e56565b9350600482613f929190614d6b565b83613f9d919061524b565b9250613fa88361442d565b90508063ffffffff168410613fdb578063ffffffff1684613fc99190614e56565b9350600183613fd8919061524b565b92505b613fe4836139fa565b614026576301e1338084613ff89190614df4565b91506301e133808261400a9190614d6b565b846140159190614e56565b93508183614023919061524b565b92505b5b5050915091565b60008061403961461b565b6140416145f8565b85935061404d856139fa565b156141b857604051806101a00160405280600060ff168152602001601f60ff168152602001601d60ff168152602001601f60ff168152602001601e60ff168152602001601f60ff168152602001601e60ff168152602001601f60ff168152602001601f60ff168152602001601e60ff168152602001601f60ff168152602001601e60ff168152602001601f60ff168152509150604051806101a00160405280600063ffffffff1681526020016228de8063ffffffff168152602001624f1a0063ffffffff1681526020016277f88063ffffffff168152602001629f858063ffffffff16815260200162c8640063ffffffff16815260200162eff10063ffffffff168152602001630118cf8063ffffffff168152602001630141ae0063ffffffff1681526020016301693b0063ffffffff168152602001630192198063ffffffff1681526020016301b9a68063ffffffff1681526020016301e2850063ffffffff16815250905061431a565b604051806101a00160405280600060ff168152602001601f60ff168152602001601c60ff168152602001601f60ff168152602001601e60ff168152602001601f60ff168152602001601e60ff168152602001601f60ff168152602001601f60ff168152602001601e60ff168152602001601f60ff168152602001601e60ff168152602001601f60ff168152509150604051806101a00160405280600063ffffffff1681526020016228de8063ffffffff168152602001624dc88063ffffffff1681526020016276a70063ffffffff168152602001629e340063ffffffff16815260200162c7128063ffffffff16815260200162ee9f8063ffffffff1681526020016301177e0063ffffffff1681526020016301405c8063ffffffff168152602001630167e98063ffffffff168152602001630190c80063ffffffff1681526020016301b8550063ffffffff1681526020016301e1338063ffffffff1681525090505b6000600190505b600d8160ff1610156143aa57818160ff16600d811061434357614342614c5a565b5b602002015163ffffffff1685101561439757809350816001826143669190614d37565b60ff16600d811061437a57614379614c5a565b5b602002015163ffffffff16856143909190614e56565b94506143aa565b80806143a290614cb8565b915050614321565b5050509250929050565b600080600083925062015180836143cb9190614df4565b905062015180816143dc9190614d6b565b836143e79190614e56565b92506001816143f69190614ce1565b915050915091565b60008061440d83610e10614464565b91509150915091565b60008061442483603c614464565b91509150915091565b6000614438826139fa565b1561445757620151806301e133806144509190614ce1565b905061445f565b6301e1338090505b919050565b600080600084925083836144789190614df4565b905083816144869190614d6b565b836144919190614e56565b9250809150509250929050565b8280546144aa90614c29565b90600052602060002090601f0160209004810192826144cc5760008555614513565b82601f106144e557805160ff1916838001178555614513565b82800160010185558215614513579182015b828111156145125782518255916020019190600101906144f7565b5b509050614520919061463e565b5090565b604051806040016040528060008152602001600081525090565b82805461454a90614c29565b90600052602060002090601f01602090048101928261456c57600085556145ba565b82601f1061457d57805485556145ba565b828001600101855582156145ba57600052602060002091601f016020900482015b828111156145b957825482559160010191906001019061459e565b5b5090506145c7919061463e565b5090565b60405180606001604052806003905b6145e2614524565b8152602001906001900390816145da5790505090565b604051806101a00160405280600d90602082028036833780820191505090505090565b604051806101a00160405280600d90602082028036833780820191505090505090565b5b8082111561465757600081600090555060010161463f565b5090565b6000604051905090565b600080fd5b600080fd5b600061ffff82169050919050565b6146868161466f565b811461469157600080fd5b50565b6000813590506146a38161467d565b92915050565b600060ff82169050919050565b6146bf816146a9565b81146146ca57600080fd5b50565b6000813590506146dc816146b6565b92915050565b6000806000606084860312156146fb576146fa614665565b5b600061470986828701614694565b935050602061471a868287016146cd565b925050604061472b868287016146cd565b9150509250925092565b6000819050919050565b61474881614735565b82525050565b6000602082019050614763600083018461473f565b92915050565b614772816146a9565b82525050565b600060208201905061478d6000830184614769565b92915050565b600081519050919050565b600082825260208201905092915050565b60005b838110156147cd5780820151818401526020810190506147b2565b838111156147dc576000848401525b50505050565b6000601f19601f8301169050919050565b60006147fe82614793565b614808818561479e565b93506148188185602086016147af565b614821816147e2565b840191505092915050565b6000602082019050818103600083015261484681846147f3565b905092915050565b60008060008060008060c0878903121561486b5761486a614665565b5b600061487989828a01614694565b965050602061488a89828a016146cd565b955050604061489b89828a016146cd565b94505060606148ac89828a016146cd565b93505060806148bd89828a016146cd565b92505060a06148ce89828a016146cd565b9150509295509295509295565b600080fd5b600080fd5b7f4e487b7100000000000000000000000000000000000000000000000000000000600052604160045260246000fd5b61491d826147e2565b810181811067ffffffffffffffff8211171561493c5761493b6148e5565b5b80604052505050565b600061494f61465b565b905061495b8282614914565b919050565b600067ffffffffffffffff82111561497b5761497a6148e5565b5b614984826147e2565b9050602081019050919050565b82818337600083830152505050565b60006149b36149ae84614960565b614945565b9050828152602081018484840111156149cf576149ce6148e0565b5b6149da848285614991565b509392505050565b600082601f8301126149f7576149f66148db565b5b8135614a078482602086016149a0565b91505092915050565b600060208284031215614a2657614a25614665565b5b600082013567ffffffffffffffff811115614a4457614a4361466a565b5b614a50848285016149e2565b91505092915050565b614a628161466f565b82525050565b6000608082019050614a7d6000830187614a59565b614a8a6020830186614769565b614a976040830185614769565b8181036060830152614aa981846147f3565b905095945050505050565b600073ffffffffffffffffffffffffffffffffffffffff82169050919050565b6000614adf82614ab4565b9050919050565b614aef81614ad4565b82525050565b6000602082019050614b0a6000830184614ae6565b92915050565b614b1981614735565b8114614b2457600080fd5b50565b600081359050614b3681614b10565b92915050565b600060208284031215614b5257614b51614665565b5b6000614b6084828501614b27565b91505092915050565b600060e082019050614b7e600083018a614a59565b614b8b6020830189614769565b614b986040830188614769565b614ba56060830187614769565b614bb26080830186614769565b614bbf60a0830185614769565b81810360c0830152614bd181846147f3565b905098975050505050505050565b6000602082019050614bf46000830184614a59565b92915050565b7f4e487b7100000000000000000000000000000000000000000000000000000000600052602260045260246000fd5b60006002820490506001821680614c4157607f821691505b602082108103614c5457614c53614bfa565b5b50919050565b7f4e487b7100000000000000000000000000000000000000000000000000000000600052603260045260246000fd5b7f4e487b7100000000000000000000000000000000000000000000000000000000600052601160045260246000fd5b6000614cc3826146a9565b915060ff8203614cd657614cd5614c89565b5b600182019050919050565b6000614cec82614735565b9150614cf783614735565b9250827fffffffffffffffffffffffffffffffffffffffffffffffffffffffffffffffff03821115614d2c57614d2b614c89565b5b828201905092915050565b6000614d42826146a9565b9150614d4d836146a9565b925082821015614d6057614d5f614c89565b5b828203905092915050565b6000614d7682614735565b9150614d8183614735565b9250817fffffffffffffffffffffffffffffffffffffffffffffffffffffffffffffffff0483118215151615614dba57614db9614c89565b5b828202905092915050565b7f4e487b7100000000000000000000000000000000000000000000000000000000600052601260045260246000fd5b6000614dff82614735565b9150614e0a83614735565b925082614e1a57614e19614dc5565b5b828204905092915050565b6000614e3082614735565b9150614e3b83614735565b925082614e4b57614e4a614dc5565b5b828206905092915050565b6000614e6182614735565b9150614e6c83614735565b925082821015614e7f57614e7e614c89565b5b828203905092915050565b6000614e9582614735565b91507fffffffffffffffffffffffffffffffffffffffffffffffffffffffffffffffff8203614ec757614ec6614c89565b5b600182019050919050565b614edb81614735565b82525050565b6000602082019050614ef66000830184614ed2565b92915050565b6000819050919050565b614f0f81614efc565b8114614f1a57600080fd5b50565b600081519050614f2c81614f06565b92915050565b600060208284031215614f4857614f47614665565b5b6000614f5684828501614f1d565b91505092915050565b6000614f6a8261466f565b9150614f758361466f565b925082821015614f8857614f87614c89565b5b828203905092915050565b60008160011c9050919050565b6000808291508390505b6001851115614fea57808604811115614fc657614fc5614c89565b5b6001851615614fd55780820291505b8081029050614fe385614f93565b9450614faa565b94509492505050565b60008261500357600190506150bf565b8161501157600090506150bf565b8160018114615027576002811461503157615060565b60019150506150bf565b60ff84111561504357615042614c89565b5b8360020a91508482111561505a57615059614c89565b5b506150bf565b5060208310610133831016604e8410600b84101617156150955782820a9050838111156150905761508f614c89565b5b6150bf565b6150a28484846001614fa0565b925090508184048111156150b9576150b8614c89565b5b81810290505b9392505050565b60006150d182614735565b91506150dc83614735565b92506151097fffffffffffffffffffffffffffffffffffffffffffffffffffffffffffffffff8484614ff3565b905092915050565b600082825260208201905092915050565b600061512d82614793565b6151378185615111565b93506151478185602086016147af565b615150816147e2565b840191505092915050565b600060208201905081810360008301526151758184615122565b905092915050565b61518681614efc565b82525050565b60006020820190506151a1600083018461517d565b92915050565b6000815190506151b681614b10565b92915050565b6000602082840312156151d2576151d1614665565b5b60006151e0848285016151a7565b91505092915050565b60006151f48261466f565b91506151ff8361466f565b92508261520f5761520e614dc5565b5b828206905092915050565b60006152258261466f565b91506152308361466f565b9250826152405761523f614dc5565b5b828204905092915050565b60006152568261466f565b91506152618361466f565b92508261ffff0382111561527857615277614c89565b5b82820190509291505056fea26469706673582212204db50214d5fd9ef4ec777b15c28f5b179729454945b4e3b80dd444aaea3ff4cb64736f6c634300080d0033",
  "immutableReferences": {},
  "source": "pragma solidity ^0.8.13;\r\n\r\nimport \"./strings.sol\";\r\nimport \"./DateUtils.sol\";\r\n\r\n/**\r\n @title Date object Solidity contract\r\n @author Skeleton Codeworks, LLC <skeleton.codeworks@gmail.com>\r\n\r\n @dev This contract provides multi-purpose storage for date objects in\r\n      six different formats, stored as public members.  The formats are:\r\n      1) \"yyyy-mm-dd\" date string format (also known as ISO),\r\n      2) \"yyyy-mm-dd hh:mm:ss\" date and time string format,\r\n      3) Unix timestamp format,\r\n      4) Dt struct format, a struct with year, month, day, and\r\n         weekday attributes,\r\n      5) DtTime struct format, a struct with year, month, day, hour,\r\n         minute, second and weekday attributes,\r\n      6) year, month, day, hour, minute, second, and weekday members on\r\n         the contract itself.\r\n\r\n      Whenever the contract is set using one of the several available\r\n      set functions, including at initialization, then all six of the above\r\n      formats are set to the same date and time, so that all members of the\r\n      contract will always be in agreement.  The contract can be reset\r\n      with a new date any number times.\r\n*/\r\n\r\ncontract Date {\r\n\r\n   using strings for *;\r\n   using DateUtils for *;\r\n\r\n   struct Dt {\r\n     uint16 year;\r\n     uint8 month;\r\n     uint8 day;\r\n     string weekday;\r\n   }\r\n\r\n   struct DtTime {\r\n     uint16 year;\r\n     uint8 month;\r\n     uint8 day;\r\n     uint8 hour;\r\n     uint8 minute;\r\n     uint8 second;\r\n     string weekday;\r\n   }\r\n\r\n   string[7] private weekdayMap = [\"Sunday\", \"Monday\", \"Tuesday\", \"Wednesday\", \"Thursday\", \"Friday\", \"Saturday\"];\r\n   address public owner;\r\n   Dt public dt;\r\n   DtTime public dtTime;\r\n   uint256 public timestampDate;\r\n   string public isoDate; // \"yyyy-mm-dd\" format\r\n   string public isoDateTime; // \"yyyymm-dd hh:mm:ss\" format\r\n   uint16 public year;\r\n   uint8 public month;\r\n   uint8 public day;\r\n   uint8 public hour;\r\n   uint8 public minute;\r\n   uint8 public second;\r\n   string public weekday;\r\n\r\n   modifier restricted() {\r\n     if (msg.sender == owner) _;\r\n   }\r\n\r\n   // must be initialized with year, month, day - all time members are set to 0\r\n   constructor(uint16 _year,\r\n               uint8 _month,\r\n               uint8 _day)\r\n               public {\r\n\r\n     require(DateUtils.isValidYMD(_year, _month, _day));\r\n\r\n     owner = msg.sender;\r\n\r\n     year = _year;\r\n     month = _month;\r\n     day = _day;\r\n     hour = 0;\r\n     minute = 0;\r\n     second = 0;\r\n\r\n     isoDate = DateUtils.convertYMDtoDateString(_year, _month, _day);\r\n     isoDateTime = DateUtils.convertYMDHMStoDateTimeString(_year, _month, _day, 0, 0, 0);\r\n\r\n     timestampDate = DateUtils.convertYMDtoTimestamp(_year, _month, _day);\r\n     weekday = weekdayMap[DateUtils.getWeekday(timestampDate)];\r\n\r\n     dt.year = _year;\r\n     dt.month = _month;\r\n     dt.day = _day;\r\n     dt.weekday = weekday;\r\n\r\n     dtTime.year = _year;\r\n     dtTime.month = _month;\r\n     dtTime.day = _day;\r\n     dtTime.hour = 0;\r\n     dtTime.minute = 0;\r\n     dtTime.second = 0;\r\n     dtTime.weekday = weekday;\r\n   }\r\n\r\n   // function to set YMDHMS members, dt struct, and dtTime struct\r\n   // with ISO date string\r\n   function setYMDwithISO(string memory _isoDate) private {\r\n\r\n     (year, month, day) = DateUtils.convertDateStringToYMD(_isoDate);\r\n     hour = 0;\r\n     minute = 0;\r\n     second = 0;\r\n\r\n     dt.year = year;\r\n     dt.month = month;\r\n     dt.day = day;\r\n\r\n     dtTime.year = year;\r\n     dtTime.month = month;\r\n     dtTime.day = day;\r\n     dtTime.hour = 0;\r\n     dtTime.minute = 0;\r\n     dtTime.second = 0;\r\n   }\r\n\r\n   // function to set YMDHMS members, dt struct, and dtTime struct\r\n   // with date and time string\r\n   function setYMDHMSwithISOtime(string memory _isoDateTime) private {\r\n\r\n     strings.slice memory sISOdateTime = _isoDateTime.toSlice();\r\n     strings.slice memory sISOdate;\r\n     strings.slice memory sISOtime;\r\n\r\n     sISOdate = sISOdateTime.split(\" \".toSlice());\r\n     sISOtime = sISOdateTime;\r\n\r\n     (year, month, day) = DateUtils.convertDateStringToYMD(sISOdate.toString());\r\n     (hour, minute, second) = DateUtils.splitTimeInt(sISOtime.toString());\r\n\r\n     dt.year = year;\r\n     dt.month = month;\r\n     dt.day = day;\r\n\r\n     dtTime.year = year;\r\n     dtTime.month = month;\r\n     dtTime.day = day;\r\n     dtTime.hour = hour;\r\n     dtTime.minute = minute;\r\n     dtTime.second = second;\r\n   }\r\n\r\n   // function to set weekday from timestamp\r\n   function setWeekday(uint256 _timestamp) private {\r\n\r\n    weekday = weekdayMap[DateUtils.getWeekday(_timestamp)];\r\n    dt.weekday = weekday;\r\n    dtTime.weekday = weekday;\r\n   }\r\n\r\n   /**\r\n    @dev Set date from date string\r\n    @param _dt Date as ISO date string (\"yyyy-mm-dd\")\r\n   */\r\n   function setDateFromString(string memory _dt) public {\r\n\r\n     require(DateUtils.isISOformat(_dt));\r\n\r\n     isoDate = _dt;\r\n     isoDateTime = _dt.toSlice().concat(\" 00:00:00\".toSlice());\r\n     setYMDwithISO(isoDate);\r\n     timestampDate = DateUtils.convertYMDtoTimestamp(year, month, day);\r\n     setWeekday(timestampDate);\r\n   }\r\n\r\n   /**\r\n    @dev Set date and time from date and time string\r\n    @param _dt Date as date and time string (\"yyyy-mm-dd hh:mm:ss\")\r\n   */\r\n   function setDateTimeFromString(string memory _dt) public {\r\n\r\n     require(DateUtils.isISOtimeFormat(_dt));\r\n\r\n     isoDate = _dt.toSlice().split(\" \".toSlice()).toString();\r\n     isoDateTime = _dt;\r\n     setYMDHMSwithISOtime(isoDateTime);\r\n     timestampDate = DateUtils.convertYMDHMStoTimestamp(year, month, day, hour, minute, second);\r\n     setWeekday(timestampDate);\r\n   }\r\n\r\n   /**\r\n    @dev Set date from timestamp\r\n    @param _timestamp Date as timestamp integer\r\n   */\r\n   function setDateFromTimestamp(uint256 _timestamp) public {\r\n\r\n     isoDate = DateUtils.convertTimestampToDateString(_timestamp);\r\n     isoDateTime = isoDate.toSlice().concat(\" 00:00:00\".toSlice());\r\n     setYMDwithISO(isoDate);\r\n     timestampDate = _timestamp;\r\n     setWeekday(_timestamp);\r\n   }\r\n\r\n   /**\r\n    @dev Set date and time from timestamp\r\n    @param _timestamp Date as timestamp integer\r\n   */\r\n   function setDateTimeFromTimestamp(uint256 _timestamp) public {\r\n\r\n     isoDateTime = DateUtils.convertTimestampToDateTimeString(_timestamp);\r\n     isoDate = isoDateTime.toSlice().split(\" \".toSlice()).toString();\r\n     setYMDHMSwithISOtime(isoDateTime);\r\n     timestampDate = _timestamp;\r\n     setWeekday(_timestamp);\r\n   }\r\n\r\n   /**\r\n    @dev Set date from year, month, day\r\n    @param _year Year as integer\r\n    @param _month Month as integer\r\n    @param _day Day as integer\r\n   */\r\n   function setDateFromYMD(uint16 _year,\r\n                           uint8 _month,\r\n                           uint8 _day)\r\n                           public {\r\n\r\n    isoDate = DateUtils.convertYMDtoDateString(_year, _month, _day);\r\n    isoDateTime = isoDate.toSlice().concat(\" 00:00:00\".toSlice());\r\n    setYMDwithISO(isoDate);\r\n    timestampDate = DateUtils.convertYMDtoTimestamp(_year, _month, _day);\r\n    setWeekday(timestampDate);\r\n   }\r\n\r\n   /**\r\n    @dev Set date and time from year, month, day, hour, minute, second\r\n    @param _year Year as integer\r\n    @param _month Month as integer\r\n    @param _day Day as integer\r\n    @param _hour Hour as integer\r\n    @param _minute Minute as integer\r\n    @param _second Second as integer\r\n   */\r\n   function setDateTimeFromYMDHMS(uint16 _year,\r\n                                  uint8 _month,\r\n                                  uint8 _day,\r\n                                  uint8 _hour,\r\n                                  uint8 _minute,\r\n                                  uint8 _second)\r\n                                  public {\r\n\r\n    isoDateTime = DateUtils.convertYMDHMStoDateTimeString(_year, _month, _day, _hour, _minute, _second);\r\n    isoDate = isoDateTime.toSlice().split(\" \".toSlice()).toString();\r\n    setYMDHMSwithISOtime(isoDateTime);\r\n    timestampDate = DateUtils.convertYMDHMStoTimestamp(_year, _month, _day, _hour, _minute, _second);\r\n    setWeekday(timestampDate);\r\n   }\r\n\r\n   /**\r\n    @dev Get date string\r\n    @return {\r\n      \"\": \"Returns date string as \\\"yyyy-mm-dd\\\"\"\r\n    }\r\n   */\r\n   function getDateString() public view returns (string memory) {\r\n     return isoDate;\r\n   }\r\n\r\n   /**\r\n    @dev Get date and time string\r\n    @return {\r\n      \"\" : \"Returns date and time string as \\\"yyyy-mm-dd hh:mm:ss\\\"\"\r\n    }\r\n   */\r\n   function getDateTimeString() public view returns (string memory) {\r\n     return isoDateTime;\r\n   }\r\n\r\n   /**\r\n    @dev Get date as timestamp\r\n    @return {\r\n      \"\": \"Returns timestamp as `uint256`\"\r\n    }\r\n   */\r\n   function getTimestamp() public view returns (uint256) {\r\n     return timestampDate;\r\n   }\r\n\r\n   /**\r\n    @dev Terminate contract - must be owner\r\n   */\r\n   function terminate() external restricted {\r\n     selfdestruct(payable(msg.sender));\r\n   }\r\n}\r\n",
  "sourcePath": "C:\\Users\\lam\\Documents\\GitHub\\IndexTradingApplication\\contract\\contracts\\utils\\Date.sol",
  "compiler": {
    "name": "solc",
    "version": "0.8.13+commit.abaa5c0e.Emscripten.clang"
  },
  "schemaVersion": "3.4.7",
  "updatedAt": "2022-07-24T04:34:06.954Z",
  "devdoc": {
    "author": "Skeleton Codeworks, LLC <skeleton.codeworks@gmail.com>",
    "details": "This contract provides multi-purpose storage for date objects in six different formats, stored as public members.  The formats are: 1) \"yyyy-mm-dd\" date string format (also known as ISO), 2) \"yyyy-mm-dd hh:mm:ss\" date and time string format, 3) Unix timestamp format, 4) Dt struct format, a struct with year, month, day, and weekday attributes, 5) DtTime struct format, a struct with year, month, day, hour, minute, second and weekday attributes, 6) year, month, day, hour, minute, second, and weekday members on the contract itself. Whenever the contract is set using one of the several available set functions, including at initialization, then all six of the above formats are set to the same date and time, so that all members of the contract will always be in agreement.  The contract can be reset with a new date any number times.",
    "kind": "dev",
    "methods": {
      "getDateString()": {
        "details": "Get date string",
        "returns": {
          "_0": "{ \"\": \"Returns date string as \\\"yyyy-mm-dd\\\"\" }"
        }
      },
      "getDateTimeString()": {
        "details": "Get date and time string",
        "returns": {
          "_0": "{ \"\" : \"Returns date and time string as \\\"yyyy-mm-dd hh:mm:ss\\\"\" }"
        }
      },
      "getTimestamp()": {
        "details": "Get date as timestamp",
        "returns": {
          "_0": "{ \"\": \"Returns timestamp as `uint256`\" }"
        }
      },
      "setDateFromString(string)": {
        "details": "Set date from date string",
        "params": {
          "_dt": "Date as ISO date string (\"yyyy-mm-dd\")"
        }
      },
      "setDateFromTimestamp(uint256)": {
        "details": "Set date from timestamp",
        "params": {
          "_timestamp": "Date as timestamp integer"
        }
      },
      "setDateFromYMD(uint16,uint8,uint8)": {
        "details": "Set date from year, month, day",
        "params": {
          "_day": "Day as integer",
          "_month": "Month as integer",
          "_year": "Year as integer"
        }
      },
      "setDateTimeFromString(string)": {
        "details": "Set date and time from date and time string",
        "params": {
          "_dt": "Date as date and time string (\"yyyy-mm-dd hh:mm:ss\")"
        }
      },
      "setDateTimeFromTimestamp(uint256)": {
        "details": "Set date and time from timestamp",
        "params": {
          "_timestamp": "Date as timestamp integer"
        }
      },
      "setDateTimeFromYMDHMS(uint16,uint8,uint8,uint8,uint8,uint8)": {
        "details": "Set date and time from year, month, day, hour, minute, second",
        "params": {
          "_day": "Day as integer",
          "_hour": "Hour as integer",
          "_minute": "Minute as integer",
          "_month": "Month as integer",
          "_second": "Second as integer",
          "_year": "Year as integer"
        }
      },
      "terminate()": {
        "details": "Terminate contract - must be owner"
      }
    },
    "title": "Date object Solidity contract",
    "version": 1
  },
  "userdoc": {
    "kind": "user",
    "methods": {},
    "version": 1
  }
}