{
  "contractName": "FixidityLib",
  "abi": [
    {
      "inputs": [],
      "name": "digits",
      "outputs": [
        {
          "internalType": "uint8",
          "name": "",
          "type": "uint8"
        }
      ],
      "stateMutability": "pure",
      "type": "function",
      "constant": true
    },
    {
      "inputs": [],
      "name": "fixed1",
      "outputs": [
        {
          "internalType": "int256",
          "name": "",
          "type": "int256"
        }
      ],
      "stateMutability": "pure",
      "type": "function",
      "constant": true
    },
    {
      "inputs": [],
      "name": "mulPrecision",
      "outputs": [
        {
          "internalType": "int256",
          "name": "",
          "type": "int256"
        }
      ],
      "stateMutability": "pure",
      "type": "function",
      "constant": true
    },
    {
      "inputs": [],
      "name": "maxInt256",
      "outputs": [
        {
          "internalType": "int256",
          "name": "",
          "type": "int256"
        }
      ],
      "stateMutability": "pure",
      "type": "function",
      "constant": true
    },
    {
      "inputs": [],
      "name": "minInt256",
      "outputs": [
        {
          "internalType": "int256",
          "name": "",
          "type": "int256"
        }
      ],
      "stateMutability": "pure",
      "type": "function",
      "constant": true
    },
    {
      "inputs": [],
      "name": "maxNewFixed",
      "outputs": [
        {
          "internalType": "int256",
          "name": "",
          "type": "int256"
        }
      ],
      "stateMutability": "pure",
      "type": "function",
      "constant": true
    },
    {
      "inputs": [],
      "name": "minNewFixed",
      "outputs": [
        {
          "internalType": "int256",
          "name": "",
          "type": "int256"
        }
      ],
      "stateMutability": "pure",
      "type": "function",
      "constant": true
    },
    {
      "inputs": [],
      "name": "maxFixedAdd",
      "outputs": [
        {
          "internalType": "int256",
          "name": "",
          "type": "int256"
        }
      ],
      "stateMutability": "pure",
      "type": "function",
      "constant": true
    },
    {
      "inputs": [],
      "name": "maxFixedSub",
      "outputs": [
        {
          "internalType": "int256",
          "name": "",
          "type": "int256"
        }
      ],
      "stateMutability": "pure",
      "type": "function",
      "constant": true
    },
    {
      "inputs": [],
      "name": "maxFixedMul",
      "outputs": [
        {
          "internalType": "int256",
          "name": "",
          "type": "int256"
        }
      ],
      "stateMutability": "pure",
      "type": "function",
      "constant": true
    },
    {
      "inputs": [],
      "name": "maxFixedDiv",
      "outputs": [
        {
          "internalType": "int256",
          "name": "",
          "type": "int256"
        }
      ],
      "stateMutability": "pure",
      "type": "function",
      "constant": true
    },
    {
      "inputs": [],
      "name": "maxFixedDivisor",
      "outputs": [
        {
          "internalType": "int256",
          "name": "",
          "type": "int256"
        }
      ],
      "stateMutability": "pure",
      "type": "function",
      "constant": true
    },
    {
      "inputs": [
        {
          "internalType": "int256",
          "name": "x",
          "type": "int256"
        },
        {
          "internalType": "uint8",
          "name": "_originDigits",
          "type": "uint8"
        },
        {
          "internalType": "uint8",
          "name": "_destinationDigits",
          "type": "uint8"
        }
      ],
      "name": "convertFixed",
      "outputs": [
        {
          "internalType": "int256",
          "name": "",
          "type": "int256"
        }
      ],
      "stateMutability": "pure",
      "type": "function",
      "constant": true
    },
    {
      "inputs": [
        {
          "internalType": "int256",
          "name": "x",
          "type": "int256"
        }
      ],
      "name": "newFixed",
      "outputs": [
        {
          "internalType": "int256",
          "name": "",
          "type": "int256"
        }
      ],
      "stateMutability": "pure",
      "type": "function",
      "constant": true
    },
    {
      "inputs": [
        {
          "internalType": "int256",
          "name": "x",
          "type": "int256"
        },
        {
          "internalType": "uint8",
          "name": "_originDigits",
          "type": "uint8"
        }
      ],
      "name": "newFixed",
      "outputs": [
        {
          "internalType": "int256",
          "name": "",
          "type": "int256"
        }
      ],
      "stateMutability": "pure",
      "type": "function",
      "constant": true
    },
    {
      "inputs": [
        {
          "internalType": "int256",
          "name": "x",
          "type": "int256"
        }
      ],
      "name": "fromFixed",
      "outputs": [
        {
          "internalType": "int256",
          "name": "",
          "type": "int256"
        }
      ],
      "stateMutability": "pure",
      "type": "function",
      "constant": true
    },
    {
      "inputs": [
        {
          "internalType": "int256",
          "name": "x",
          "type": "int256"
        },
        {
          "internalType": "uint8",
          "name": "_destinationDigits",
          "type": "uint8"
        }
      ],
      "name": "fromFixed",
      "outputs": [
        {
          "internalType": "int256",
          "name": "",
          "type": "int256"
        }
      ],
      "stateMutability": "pure",
      "type": "function",
      "constant": true
    },
    {
      "inputs": [
        {
          "internalType": "int256",
          "name": "numerator",
          "type": "int256"
        },
        {
          "internalType": "int256",
          "name": "denominator",
          "type": "int256"
        }
      ],
      "name": "newFixedFraction",
      "outputs": [
        {
          "internalType": "int256",
          "name": "",
          "type": "int256"
        }
      ],
      "stateMutability": "pure",
      "type": "function",
      "constant": true
    },
    {
      "inputs": [
        {
          "internalType": "int256",
          "name": "x",
          "type": "int256"
        }
      ],
      "name": "integer",
      "outputs": [
        {
          "internalType": "int256",
          "name": "",
          "type": "int256"
        }
      ],
      "stateMutability": "pure",
      "type": "function",
      "constant": true
    },
    {
      "inputs": [
        {
          "internalType": "int256",
          "name": "x",
          "type": "int256"
        }
      ],
      "name": "fractional",
      "outputs": [
        {
          "internalType": "int256",
          "name": "",
          "type": "int256"
        }
      ],
      "stateMutability": "pure",
      "type": "function",
      "constant": true
    },
    {
      "inputs": [
        {
          "internalType": "int256",
          "name": "x",
          "type": "int256"
        }
      ],
      "name": "abs",
      "outputs": [
        {
          "internalType": "int256",
          "name": "",
          "type": "int256"
        }
      ],
      "stateMutability": "pure",
      "type": "function",
      "constant": true
    },
    {
      "inputs": [
        {
          "internalType": "int256",
          "name": "x",
          "type": "int256"
        },
        {
          "internalType": "int256",
          "name": "y",
          "type": "int256"
        }
      ],
      "name": "add",
      "outputs": [
        {
          "internalType": "int256",
          "name": "",
          "type": "int256"
        }
      ],
      "stateMutability": "pure",
      "type": "function",
      "constant": true
    },
    {
      "inputs": [
        {
          "internalType": "int256",
          "name": "x",
          "type": "int256"
        },
        {
          "internalType": "int256",
          "name": "y",
          "type": "int256"
        }
      ],
      "name": "subtract",
      "outputs": [
        {
          "internalType": "int256",
          "name": "",
          "type": "int256"
        }
      ],
      "stateMutability": "pure",
      "type": "function",
      "constant": true
    },
    {
      "inputs": [
        {
          "internalType": "int256",
          "name": "x",
          "type": "int256"
        },
        {
          "internalType": "int256",
          "name": "y",
          "type": "int256"
        }
      ],
      "name": "multiply",
      "outputs": [
        {
          "internalType": "int256",
          "name": "",
          "type": "int256"
        }
      ],
      "stateMutability": "pure",
      "type": "function",
      "constant": true
    },
    {
      "inputs": [
        {
          "internalType": "int256",
          "name": "x",
          "type": "int256"
        }
      ],
      "name": "reciprocal",
      "outputs": [
        {
          "internalType": "int256",
          "name": "",
          "type": "int256"
        }
      ],
      "stateMutability": "pure",
      "type": "function",
      "constant": true
    },
    {
      "inputs": [
        {
          "internalType": "int256",
          "name": "x",
          "type": "int256"
        },
        {
          "internalType": "int256",
          "name": "y",
          "type": "int256"
        }
      ],
      "name": "divide",
      "outputs": [
        {
          "internalType": "int256",
          "name": "",
          "type": "int256"
        }
      ],
      "stateMutability": "pure",
      "type": "function",
      "constant": true
    }
  ],
  "bytecode": "0x6114a7610053600b82828239805160001a607314610046577f4e487b7100000000000000000000000000000000000000000000000000000000600052600060045260246000fd5b30600052607381538281f3fe73000000000000000000000000000000000000000030146080604052600436106101985760003560e01c806395ac72cf116100e8578063b93ea812116100a1578063d6c1528b1161007b578063d6c1528b146104f7578063e179f25214610527578063f598423614610557578063f800d6721461058757610198565b8063b93ea81214610467578063bd5cbd6214610497578063cf94513a146104c757610198565b806395ac72cf1461037d5780639c15bca4146103ad5780639ca7eb76146103dd5780639e20437c146103fb578063a0601be714610419578063a5f3c23b1461043757610198565b80633c4308a8116101555780637bc140ea1161012f5780637bc140ea146103055780637c1bd7c814610323578063925d6dfd1461034157806393b027b41461035f57610198565b80633c4308a8146102875780634daaea53146102b7578063718db30a146102e757610198565b80630e9989931461019d5780631b5ac4b5146101cd5780632179bb6c146101fd578063239909ea1461021b5780632fd81f4614610239578063393ca44614610257575b600080fd5b6101b760048036038101906101b29190610da8565b6105a5565b6040516101c49190610de4565b60405180910390f35b6101e760048036038101906101e29190610da8565b6105c1565b6040516101f49190610de4565b60405180910390f35b6102056105fb565b6040516102129190610de4565b60405180910390f35b61022361060d565b6040516102309190610de4565b60405180910390f35b610241610629565b60405161024e9190610de4565b60405180910390f35b610271600480360381019061026c9190610e38565b610646565b60405161027e9190610de4565b60405180910390f35b6102a1600480360381019061029c9190610e78565b610662565b6040516102ae9190610de4565b60405180910390f35b6102d160048036038101906102cc9190610eb8565b610880565b6040516102de9190610de4565b60405180910390f35b6102ef6109df565b6040516102fc9190610de4565b60405180910390f35b61030d610a07565b60405161031a9190610de4565b60405180910390f35b61032b610a25565b6040516103389190610de4565b60405180910390f35b610349610a4d565b6040516103569190610de4565b60405180910390f35b610367610a75565b6040516103749190610de4565b60405180910390f35b61039760048036038101906103929190610e78565b610a9d565b6040516103a49190610de4565b60405180910390f35b6103c760048036038101906103c29190610da8565b610b0e565b6040516103d49190610de4565b60405180910390f35b6103e5610b4c565b6040516103f29190610de4565b60405180910390f35b610403610b59565b6040516104109190610f1a565b60405180910390f35b610421610b62565b60405161042e9190610de4565b60405180910390f35b610451600480360381019061044c9190610e78565b610b8a565b60405161045e9190610de4565b60405180910390f35b610481600480360381019061047c9190610e78565b610c07565b60405161048e9190610de4565b60405180910390f35b6104b160048036038101906104ac9190610da8565b610c24565b6040516104be9190610de4565b60405180910390f35b6104e160048036038101906104dc9190610da8565b610c70565b6040516104ee9190610de4565b60405180910390f35b610511600480360381019061050c9190610e38565b610ca9565b60405161051e9190610de4565b60405180910390f35b610541600480360381019061053c9190610da8565b610cc5565b60405161054e9190610de4565b60405180910390f35b610571600480360381019061056c9190610e78565b610cf3565b60405161057e9190610de4565b60405180910390f35b61058f610d4f565b60405161059c9190610de4565b60405180910390f35b60006105af6105fb565b826105ba9190610f93565b9050919050565b60008082126105d2578190506105f6565b6000826105de90610ffd565b9050600081136105f1576105f0611045565b5b809150505b919050565b600069d3c21bcecceda1000000905090565b600073af298d050e4395d69670b12b7f41000000000000905090565b600074a4a2d938028c280000000000000000000000000000905090565b600061065a83610654610b59565b84610880565b905092915050565b6000808314806106725750600082145b15610680576000905061087a565b6106886105fb565b82036106965782905061087a565b61069e6105fb565b83036106ac5781905061087a565b60006106b66105fb565b6106bf85610cc5565b6106c99190610f93565b905060006106d685610c70565b905060006106e26105fb565b6106eb86610cc5565b6106f59190610f93565b9050600061070286610c70565b9050600082856107129190611074565b905060008514610738578285826107299190610f93565b1461073757610736611045565b5b5b60006107426105fb565b8261074d9190611074565b90506000821461077a5761075f6105fb565b828261076b9190610f93565b1461077957610778611045565b5b5b8091506000848661078b9190611074565b9050600086146107b1578486826107a29190610f93565b146107b0576107af611045565b5b5b600084886107bf9190611074565b9050600088146107e5578488826107d69190610f93565b146107e4576107e3611045565b5b5b6107ed610b4c565b876107f89190610f93565b9650610802610b4c565b8561080d9190610f93565b94506000858861081d9190611074565b905060008814610843578588826108349190610f93565b1461084257610841611045565b5b5b60008590506108528185610b8a565b905061085e8184610b8a565b905061086a8183610b8a565b9050809a50505050505050505050505b92915050565b600060268360ff161115801561089a575060268260ff1611155b6108a7576108a6611045565b5b60008260ff168460ff1611156108fa5782846108c3919061118b565b90508060ff16600a6108d5919061130e565b6fffffffffffffffffffffffffffffffff16856108f29190610f93565b9150506109d8565b8260ff168460ff1610156109d3578383610914919061118b565b90508060ff16600a610926919061130e565b6fffffffffffffffffffffffffffffffff16610940610a75565b61094a9190610f93565b85131561095a57610959611045565b5b8060ff16600a61096a919061130e565b6fffffffffffffffffffffffffffffffff16610984610a25565b61098e9190610f93565b85121561099e5761099d611045565b5b8060ff16600a6109ae919061130e565b6fffffffffffffffffffffffffffffffff16856109cb9190611074565b9150506109d8565b849150505b9392505050565b60007fffffffffffffffffffff6541eb32bb8ac4ad3b6d95698d86cabd2873c9ea30c6905090565b6000759abe14cd44753b52c4926a9672793542d78c3615cf3a905090565b60007f8000000000000000000000000000000000000000000000000000000000000000905090565b60007f3fffffffffffffffffffffffffffffffffffffffffffffffffffffffffffffff905090565b60007f7fffffffffffffffffffffffffffffffffffffffffffffffffffffffffffffff905090565b6000610aa7610d4f565b831315610ab757610ab6611045565b5b610abf610d4f565b821315610acf57610ace611045565b5b60008203610ae057610adf611045565b5b6000610aeb84610c24565b90506000610af884610c24565b9050610b048282610cf3565b9250505092915050565b6000808203610b2057610b1f611045565b5b81610b296105fb565b610b316105fb565b610b3b9190611074565b610b459190610f93565b9050919050565b600064e8d4a51000905090565b60006018905090565b60007fc000000000000000000000000000000000000000000000000000000000000000905090565b6000808284610b999190611349565b9050600084138015610bab5750600083135b15610bcc578381138015610bbe57508281135b610bcb57610bca611045565b5b5b600084128015610bdc5750600083125b15610bfd578381128015610bef57508281125b610bfc57610bfb611045565b5b5b8091505092915050565b6000610c1c8383610c1790610ffd565b610b8a565b905092915050565b6000610c2e610d4f565b821315610c3e57610c3d611045565b5b610c466109df565b821215610c5657610c55611045565b5b610c5e6105fb565b82610c699190611074565b9050919050565b6000610c7a6105fb565b610c826105fb565b83610c8d9190610f93565b610c979190611074565b82610ca291906113dd565b9050919050565b6000610cbd8383610cb8610b59565b610880565b905092915050565b6000610ccf6105fb565b610cd76105fb565b83610ce29190610f93565b610cec9190611074565b9050919050565b6000610cfd6105fb565b8203610d0b57829050610d49565b60008203610d1c57610d1b611045565b5b610d2461060d565b821315610d3457610d33611045565b5b610d4683610d4184610b0e565b610662565b90505b92915050565b6000759abe14cd44753b52c4926a9672793542d78c3615cf3a905090565b600080fd5b6000819050919050565b610d8581610d72565b8114610d9057600080fd5b50565b600081359050610da281610d7c565b92915050565b600060208284031215610dbe57610dbd610d6d565b5b6000610dcc84828501610d93565b91505092915050565b610dde81610d72565b82525050565b6000602082019050610df96000830184610dd5565b92915050565b600060ff82169050919050565b610e1581610dff565b8114610e2057600080fd5b50565b600081359050610e3281610e0c565b92915050565b60008060408385031215610e4f57610e4e610d6d565b5b6000610e5d85828601610d93565b9250506020610e6e85828601610e23565b9150509250929050565b60008060408385031215610e8f57610e8e610d6d565b5b6000610e9d85828601610d93565b9250506020610eae85828601610d93565b9150509250929050565b600080600060608486031215610ed157610ed0610d6d565b5b6000610edf86828701610d93565b9350506020610ef086828701610e23565b9250506040610f0186828701610e23565b9150509250925092565b610f1481610dff565b82525050565b6000602082019050610f2f6000830184610f0b565b92915050565b7f4e487b7100000000000000000000000000000000000000000000000000000000600052601260045260246000fd5b7f4e487b7100000000000000000000000000000000000000000000000000000000600052601160045260246000fd5b6000610f9e82610d72565b9150610fa983610d72565b925082610fb957610fb8610f35565b5b600160000383147f800000000000000000000000000000000000000000000000000000000000000083141615610ff257610ff1610f64565b5b828205905092915050565b600061100882610d72565b91507f8000000000000000000000000000000000000000000000000000000000000000820361103a57611039610f64565b5b816000039050919050565b7f4e487b7100000000000000000000000000000000000000000000000000000000600052600160045260246000fd5b600061107f82610d72565b915061108a83610d72565b9250827f7fffffffffffffffffffffffffffffffffffffffffffffffffffffffffffffff04821160008413600084131616156110c9576110c8610f64565b5b817f8000000000000000000000000000000000000000000000000000000000000000058312600084126000841316161561110657611105610f64565b5b827f8000000000000000000000000000000000000000000000000000000000000000058212600084136000841216161561114357611142610f64565b5b827f7fffffffffffffffffffffffffffffffffffffffffffffffffffffffffffffff05821260008412600084121616156111805761117f610f64565b5b828202905092915050565b600061119682610dff565b91506111a183610dff565b9250828210156111b4576111b3610f64565b5b828203905092915050565b60008160011c9050919050565b6000808291508390505b6001851115611216578086048111156111f2576111f1610f64565b5b60018516156112015780820291505b808102905061120f856111bf565b94506111d6565b94509492505050565b60008261122f57600190506112eb565b8161123d57600090506112eb565b8160018114611253576002811461125d5761128c565b60019150506112eb565b60ff84111561126f5761126e610f64565b5b8360020a91508482111561128657611285610f64565b5b506112eb565b5060208310610133831016604e8410600b84101617156112c15782820a9050838111156112bc576112bb610f64565b5b6112eb565b6112ce84848460016111cc565b925090508184048111156112e5576112e4610f64565b5b81810290505b9392505050565b60006fffffffffffffffffffffffffffffffff82169050919050565b6000611319826112f2565b9150611324836112f2565b92506113416fffffffffffffffffffffffffffffffff848461121f565b905092915050565b600061135482610d72565b915061135f83610d72565b9250817f7fffffffffffffffffffffffffffffffffffffffffffffffffffffffffffffff0383136000831215161561139a57611399610f64565b5b817f80000000000000000000000000000000000000000000000000000000000000000383126000831216156113d2576113d1610f64565b5b828201905092915050565b60006113e882610d72565b91506113f383610d72565b9250827f80000000000000000000000000000000000000000000000000000000000000000182126000841215161561142e5761142d610f64565b5b827f7fffffffffffffffffffffffffffffffffffffffffffffffffffffffffffffff01821360008412161561146657611465610f64565b5b82820390509291505056fea264697066735822122088ce98c65aabd956f5db024bf67e9490a5405015c3905f4082a0c094e67e102264736f6c634300080d0033",
  "immutableReferences": {},
  "source": "pragma solidity ^0.8.13;\r\n\r\n\r\n/**\r\n * @title FixidityLib\r\n * @author Gadi Guy, Alberto Cuesta Canada\r\n * @notice This library provides fixed point arithmetic with protection against\r\n * overflow.\r\n * All operations are done with int256 and the operands must have been created\r\n * with any of the newFrom* functions, which shift the comma digits() to the\r\n * right and check for limits.\r\n * When using this library be sure of using maxNewFixed() as the upper limit for\r\n * creation of fixed point numbers. Use maxFixedMul(), maxFixedDiv() and\r\n * maxFixedAdd() if you want to be certain that those operations don't\r\n * overflow.\r\n */\r\nlibrary FixidityLib {\r\n\r\n    /**\r\n     * @notice Number of positions that the comma is shifted to the right.\r\n     */\r\n    function digits() public pure returns(uint8) {\r\n        return 24;\r\n    }\r\n\r\n    /**\r\n     * @notice This is 1 in the fixed point units used in this library.\r\n     * @dev Test fixed1() equals 10^digits()\r\n     * Hardcoded to 24 digits.\r\n     */\r\n    function fixed1() public pure returns(int256) {\r\n        return 1000000000000000000000000;\r\n    }\r\n\r\n    /**\r\n     * @notice The amount of decimals lost on each multiplication operand.\r\n     * @dev Test mulPrecision() equals sqrt(fixed1)\r\n     * Hardcoded to 24 digits.\r\n     */\r\n    function mulPrecision() public pure returns(int256) {\r\n        return 1000000000000;\r\n    }\r\n\r\n    /**\r\n     * @notice Maximum value that can be represented in an int256\r\n     * @dev Test maxInt256() equals 2^255 -1\r\n     */\r\n    function maxInt256() public pure returns(int256) {\r\n        return 57896044618658097711785492504343953926634992332820282019728792003956564819967;\r\n    }\r\n\r\n    /**\r\n     * @notice Minimum value that can be represented in an int256\r\n     * @dev Test minInt256 equals (2^255) * (-1)\r\n     */\r\n    function minInt256() public pure returns(int256) {\r\n        return -57896044618658097711785492504343953926634992332820282019728792003956564819968;\r\n    }\r\n\r\n    /**\r\n     * @notice Maximum value that can be converted to fixed point. Optimize for\r\n     * @dev deployment.\r\n     * Test maxNewFixed() equals maxInt256() / fixed1()\r\n     * Hardcoded to 24 digits.\r\n     */\r\n    function maxNewFixed() public pure returns(int256) {\r\n        return 57896044618658097711785492504343953926634992332820282;\r\n    }\r\n\r\n    /**\r\n     * @notice Maximum value that can be converted to fixed point. Optimize for\r\n     * deployment.\r\n     * @dev Test minNewFixed() equals -(maxInt256()) / fixed1()\r\n     * Hardcoded to 24 digits.\r\n     */\r\n    function minNewFixed() public pure returns(int256) {\r\n        return -57896044618658097711785492504343953926634992332820282;\r\n    }\r\n\r\n    /**\r\n     * @notice Maximum value that can be safely used as an addition operator.\r\n     * @dev Test maxFixedAdd() equals maxInt256()-1 / 2\r\n     * Test add(maxFixedAdd(),maxFixedAdd()) equals maxFixedAdd() + maxFixedAdd()\r\n     * Test add(maxFixedAdd()+1,maxFixedAdd()) throws\r\n     * Test add(-maxFixedAdd(),-maxFixedAdd()) equals -maxFixedAdd() - maxFixedAdd()\r\n     * Test add(-maxFixedAdd(),-maxFixedAdd()-1) throws\r\n     */\r\n    function maxFixedAdd() public pure returns(int256) {\r\n        return 28948022309329048855892746252171976963317496166410141009864396001978282409983;\r\n    }\r\n\r\n    /**\r\n     * @notice Maximum negative value that can be safely in a subtraction.\r\n     * @dev Test maxFixedSub() equals minInt256() / 2\r\n     */\r\n    function maxFixedSub() public pure returns(int256) {\r\n        return -28948022309329048855892746252171976963317496166410141009864396001978282409984;\r\n    }\r\n\r\n    /**\r\n     * @notice Maximum value that can be safely used as a multiplication operator.\r\n     * @dev Calculated as sqrt(maxInt256()*fixed1()).\r\n     * Be careful with your sqrt() implementation. I couldn't find a calculator\r\n     * that would give the exact square root of maxInt256*fixed1 so this number\r\n     * is below the real number by no more than 3*10**28. It is safe to use as\r\n     * a limit for your multiplications, although powers of two of numbers over\r\n     * this value might still work.\r\n     * Test multiply(maxFixedMul(),maxFixedMul()) equals maxFixedMul() * maxFixedMul()\r\n     * Test multiply(maxFixedMul(),maxFixedMul()+1) throws\r\n     * Test multiply(-maxFixedMul(),maxFixedMul()) equals -maxFixedMul() * maxFixedMul()\r\n     * Test multiply(-maxFixedMul(),maxFixedMul()+1) throws\r\n     * Hardcoded to 24 digits.\r\n     */\r\n    function maxFixedMul() public pure returns(int256) {\r\n        return 240615969168004498257251713877715648331380787511296;\r\n    }\r\n\r\n    /**\r\n     * @notice Maximum value that can be safely used as a dividend.\r\n     * @dev divide(maxFixedDiv,newFixedFraction(1,fixed1())) = maxInt256().\r\n     * Test maxFixedDiv() equals maxInt256()/fixed1()\r\n     * Test divide(maxFixedDiv(),multiply(mulPrecision(),mulPrecision())) = maxFixedDiv()*(10^digits())\r\n     * Test divide(maxFixedDiv()+1,multiply(mulPrecision(),mulPrecision())) throws\r\n     * Hardcoded to 24 digits.\r\n     */\r\n    function maxFixedDiv() public pure returns(int256) {\r\n        return 57896044618658097711785492504343953926634992332820282;\r\n    }\r\n\r\n    /**\r\n     * @notice Maximum value that can be safely used as a divisor.\r\n     * @dev Test maxFixedDivisor() equals fixed1()*fixed1() - Or 10**(digits()*2)\r\n     * Test divide(10**(digits()*2 + 1),10**(digits()*2)) = returns 10*fixed1()\r\n     * Test divide(10**(digits()*2 + 1),10**(digits()*2 + 1)) = throws\r\n     * Hardcoded to 24 digits.\r\n     */\r\n    function maxFixedDivisor() public pure returns(int256) {\r\n        return 1000000000000000000000000000000000000000000000000;\r\n    }\r\n\r\n    /**\r\n     * @notice Converts an int256 to fixed point units, equivalent to multiplying\r\n     * by 10^digits().\r\n     * @dev Test newFixed(0) returns 0\r\n     * Test newFixed(1) returns fixed1()\r\n     * Test newFixed(maxNewFixed()) returns maxNewFixed() * fixed1()\r\n     * Test newFixed(maxNewFixed()+1) fails\r\n     */\r\n    function newFixed(int256 x)\r\n        public\r\n        pure\r\n        returns (int256)\r\n    {\r\n        assert(x <= maxNewFixed());\r\n        assert(x >= minNewFixed());\r\n        return x * fixed1();\r\n    }\r\n\r\n    /**\r\n     * @notice Converts an int256 in the fixed point representation of this\r\n     * library to a non decimal. All decimal digits will be truncated.\r\n     */\r\n    function fromFixed(int256 x)\r\n        public\r\n        pure\r\n        returns (int256)\r\n    {\r\n        return x / fixed1();\r\n    }\r\n\r\n    /**\r\n     * @notice Converts an int256 which is already in some fixed point\r\n     * representation to a different fixed precision representation.\r\n     * Both the origin and destination precisions must be 38 or less digits.\r\n     * Origin values with a precision higher than the destination precision\r\n     * will be truncated accordingly.\r\n     * @dev\r\n     * Test convertFixed(1,0,0) returns 1;\r\n     * Test convertFixed(1,1,1) returns 1;\r\n     * Test convertFixed(1,1,0) returns 0;\r\n     * Test convertFixed(1,0,1) returns 10;\r\n     * Test convertFixed(10,1,0) returns 1;\r\n     * Test convertFixed(10,0,1) returns 100;\r\n     * Test convertFixed(100,1,0) returns 10;\r\n     * Test convertFixed(100,0,1) returns 1000;\r\n     * Test convertFixed(1000,2,0) returns 10;\r\n     * Test convertFixed(1000,0,2) returns 100000;\r\n     * Test convertFixed(1000,2,1) returns 100;\r\n     * Test convertFixed(1000,1,2) returns 10000;\r\n     * Test convertFixed(maxInt256,1,0) returns maxInt256/10;\r\n     * Test convertFixed(maxInt256,0,1) throws\r\n     * Test convertFixed(maxInt256,38,0) returns maxInt256/(10**38);\r\n     * Test convertFixed(1,0,38) returns 10**38;\r\n     * Test convertFixed(maxInt256,39,0) throws\r\n     * Test convertFixed(1,0,39) throws\r\n     */\r\n    function convertFixed(int256 x, uint8 _originDigits, uint8 _destinationDigits) public pure returns (int256){\r\n        assert(_originDigits <= 38 && _destinationDigits <= 38);\r\n\r\n        uint8 decimalDifference;\r\n        if ( _originDigits > _destinationDigits ){\r\n            decimalDifference = _originDigits - _destinationDigits;\r\n            //amended by gary\r\n            return x/int256(uint256((uint128(10)**uint128(decimalDifference))));\r\n        }\r\n        else if ( _originDigits < _destinationDigits ){\r\n            decimalDifference = _destinationDigits - _originDigits;\r\n            // Cast uint8 -> uint128 is safe\r\n            // Exponentiation is safe:\r\n            //     _originDigits and _destinationDigits limited to 38 or less\r\n            //     decimalDifference = abs(_destinationDigits - _originDigits)\r\n            //     decimalDifference < 38\r\n            //     10**38 < 2**128-1\r\n            //amended by gary\r\n            assert(x <= maxInt256()/int256(uint256(uint128(10)**uint128(decimalDifference))));\r\n            assert(x >= minInt256()/int256(uint256(uint128(10)**uint128(decimalDifference))));\r\n            //amended by gary\r\n            return x*int256(uint256((uint128(10)**uint128(decimalDifference))));\r\n        }\r\n        // _originDigits == digits())\r\n        return x;\r\n    }\r\n\r\n    /**\r\n     * @notice Converts an int256 which is already in some fixed point\r\n     * representation to that of this library. The _originDigits parameter is the\r\n     * precision of x. Values with a precision higher than FixidityLib.digits()\r\n     * will be truncated accordingly.\r\n     */\r\n    function newFixed(int256 x, uint8 _originDigits)\r\n        public\r\n        pure\r\n        returns (int256)\r\n    {\r\n        return convertFixed(x, _originDigits, digits());\r\n    }\r\n\r\n    /**\r\n     * @notice Converts an int256 in the fixed point representation of this\r\n     * library to a different representation. The _destinationDigits parameter is the\r\n     * precision of the output x. Values with a precision below than\r\n     * FixidityLib.digits() will be truncated accordingly.\r\n     */\r\n    function fromFixed(int256 x, uint8 _destinationDigits)\r\n        public\r\n        pure\r\n        returns (int256)\r\n    {\r\n        return convertFixed(x, digits(), _destinationDigits);\r\n    }\r\n\r\n    /**\r\n     * @notice Converts two int256 representing a fraction to fixed point units,\r\n     * equivalent to multiplying dividend and divisor by 10^digits().\r\n     * @dev\r\n     * Test newFixedFraction(maxFixedDiv()+1,1) fails\r\n     * Test newFixedFraction(1,maxFixedDiv()+1) fails\r\n     * Test newFixedFraction(1,0) fails\r\n     * Test newFixedFraction(0,1) returns 0\r\n     * Test newFixedFraction(1,1) returns fixed1()\r\n     * Test newFixedFraction(maxFixedDiv(),1) returns maxFixedDiv()*fixed1()\r\n     * Test newFixedFraction(1,fixed1()) returns 1\r\n     * Test newFixedFraction(1,fixed1()-1) returns 0\r\n     */\r\n    function newFixedFraction(\r\n        int256 numerator,\r\n        int256 denominator\r\n        )\r\n        public\r\n        pure\r\n        returns (int256)\r\n    {\r\n        assert(numerator <= maxNewFixed());\r\n        assert(denominator <= maxNewFixed());\r\n        assert(denominator != 0);\r\n        int256 convertedNumerator = newFixed(numerator);\r\n        int256 convertedDenominator = newFixed(denominator);\r\n        return divide(convertedNumerator, convertedDenominator);\r\n    }\r\n\r\n    /**\r\n     * @notice Returns the integer part of a fixed point number.\r\n     * @dev\r\n     * Test integer(0) returns 0\r\n     * Test integer(fixed1()) returns fixed1()\r\n     * Test integer(newFixed(maxNewFixed())) returns maxNewFixed()*fixed1()\r\n     * Test integer(-fixed1()) returns -fixed1()\r\n     * Test integer(newFixed(-maxNewFixed())) returns -maxNewFixed()*fixed1()\r\n     */\r\n    function integer(int256 x) public pure returns (int256) {\r\n        return (x / fixed1()) * fixed1(); // Can't overflow\r\n    }\r\n\r\n    /**\r\n     * @notice Returns the fractional part of a fixed point number.\r\n     * In the case of a negative number the fractional is also negative.\r\n     * @dev\r\n     * Test fractional(0) returns 0\r\n     * Test fractional(fixed1()) returns 0\r\n     * Test fractional(fixed1()-1) returns 10^24-1\r\n     * Test fractional(-fixed1()) returns 0\r\n     * Test fractional(-fixed1()+1) returns -10^24-1\r\n     */\r\n    function fractional(int256 x) public pure returns (int256) {\r\n        return x - (x / fixed1()) * fixed1(); // Can't overflow\r\n    }\r\n\r\n    /**\r\n     * @notice Converts to positive if negative.\r\n     * Due to int256 having one more negative number than positive numbers\r\n     * abs(minInt256) reverts.\r\n     * @dev\r\n     * Test abs(0) returns 0\r\n     * Test abs(fixed1()) returns -fixed1()\r\n     * Test abs(-fixed1()) returns fixed1()\r\n     * Test abs(newFixed(maxNewFixed())) returns maxNewFixed()*fixed1()\r\n     * Test abs(newFixed(minNewFixed())) returns -minNewFixed()*fixed1()\r\n     */\r\n    function abs(int256 x) public pure returns (int256) {\r\n        if (x >= 0) {\r\n            return x;\r\n        } else {\r\n            int256 result = -x;\r\n            assert (result > 0);\r\n            return result;\r\n        }\r\n    }\r\n\r\n    /**\r\n     * @notice x+y. If any operator is higher than maxFixedAdd() it\r\n     * might overflow.\r\n     * In solidity maxInt256 + 1 = minInt256 and viceversa.\r\n     * @dev\r\n     * Test add(maxFixedAdd(),maxFixedAdd()) returns maxInt256()-1\r\n     * Test add(maxFixedAdd()+1,maxFixedAdd()+1) fails\r\n     * Test add(-maxFixedSub(),-maxFixedSub()) returns minInt256()\r\n     * Test add(-maxFixedSub()-1,-maxFixedSub()-1) fails\r\n     * Test add(maxInt256(),maxInt256()) fails\r\n     * Test add(minInt256(),minInt256()) fails\r\n     */\r\n    function add(int256 x, int256 y) public pure returns (int256) {\r\n        int256 z = x + y;\r\n        if (x > 0 && y > 0) assert(z > x && z > y);\r\n        if (x < 0 && y < 0) assert(z < x && z < y);\r\n        return z;\r\n    }\r\n\r\n    /**\r\n     * @notice x-y. You can use add(x,-y) instead.\r\n     * @dev Tests covered by add(x,y)\r\n     */\r\n    function subtract(int256 x, int256 y) public pure returns (int256) {\r\n        return add(x,-y);\r\n    }\r\n\r\n    /**\r\n     * @notice x*y. If any of the operators is higher than maxFixedMul() it\r\n     * might overflow.\r\n     * @dev\r\n     * Test multiply(0,0) returns 0\r\n     * Test multiply(maxFixedMul(),0) returns 0\r\n     * Test multiply(0,maxFixedMul()) returns 0\r\n     * Test multiply(maxFixedMul(),fixed1()) returns maxFixedMul()\r\n     * Test multiply(fixed1(),maxFixedMul()) returns maxFixedMul()\r\n     * Test all combinations of (2,-2), (2, 2.5), (2, -2.5) and (0.5, -0.5)\r\n     * Test multiply(fixed1()/mulPrecision(),fixed1()*mulPrecision())\r\n     * Test multiply(maxFixedMul()-1,maxFixedMul()) equals multiply(maxFixedMul(),maxFixedMul()-1)\r\n     * Test multiply(maxFixedMul(),maxFixedMul()) returns maxInt256() // Probably not to the last digits\r\n     * Test multiply(maxFixedMul()+1,maxFixedMul()) fails\r\n     * Test multiply(maxFixedMul(),maxFixedMul()+1) fails\r\n     */\r\n    function multiply(int256 x, int256 y) public pure returns (int256) {\r\n        if (x == 0 || y == 0) return 0;\r\n        if (y == fixed1()) return x;\r\n        if (x == fixed1()) return y;\r\n\r\n        // Separate into integer and fractional parts\r\n        // x = x1 + x2, y = y1 + y2\r\n        int256 x1 = integer(x) / fixed1();\r\n        int256 x2 = fractional(x);\r\n        int256 y1 = integer(y) / fixed1();\r\n        int256 y2 = fractional(y);\r\n\r\n        // (x1 + x2) * (y1 + y2) = (x1 * y1) + (x1 * y2) + (x2 * y1) + (x2 * y2)\r\n        int256 x1y1 = x1 * y1;\r\n        if (x1 != 0) assert(x1y1 / x1 == y1); // Overflow x1y1\r\n\r\n        // x1y1 needs to be multiplied back by fixed1\r\n        // solium-disable-next-line mixedcase\r\n        int256 fixed_x1y1 = x1y1 * fixed1();\r\n        if (x1y1 != 0) assert(fixed_x1y1 / x1y1 == fixed1()); // Overflow x1y1 * fixed1\r\n        x1y1 = fixed_x1y1;\r\n\r\n        int256 x2y1 = x2 * y1;\r\n        if (x2 != 0) assert(x2y1 / x2 == y1); // Overflow x2y1\r\n\r\n        int256 x1y2 = x1 * y2;\r\n        if (x1 != 0) assert(x1y2 / x1 == y2); // Overflow x1y2\r\n\r\n        x2 = x2 / mulPrecision();\r\n        y2 = y2 / mulPrecision();\r\n        int256 x2y2 = x2 * y2;\r\n        if (x2 != 0) assert(x2y2 / x2 == y2); // Overflow x2y2\r\n\r\n        // result = fixed1() * x1 * y1 + x1 * y2 + x2 * y1 + x2 * y2 / fixed1();\r\n        int256 result = x1y1;\r\n        result = add(result, x2y1); // Add checks for overflow\r\n        result = add(result, x1y2); // Add checks for overflow\r\n        result = add(result, x2y2); // Add checks for overflow\r\n        return result;\r\n    }\r\n\r\n    /**\r\n     * @notice 1/x\r\n     * @dev\r\n     * Test reciprocal(0) fails\r\n     * Test reciprocal(fixed1()) returns fixed1()\r\n     * Test reciprocal(fixed1()*fixed1()) returns 1 // Testing how the fractional is truncated\r\n     * Test reciprocal(2*fixed1()*fixed1()) returns 0 // Testing how the fractional is truncated\r\n     */\r\n    function reciprocal(int256 x) public pure returns (int256) {\r\n        assert(x != 0);\r\n        return (fixed1()*fixed1()) / x; // Can't overflow\r\n    }\r\n\r\n    /**\r\n     * @notice x/y. If the dividend is higher than maxFixedDiv() it\r\n     * might overflow. You can use multiply(x,reciprocal(y)) instead.\r\n     * There is a loss of precision on division for the lower mulPrecision() decimals.\r\n     * @dev\r\n     * Test divide(fixed1(),0) fails\r\n     * Test divide(maxFixedDiv(),1) = maxFixedDiv()*(10^digits())\r\n     * Test divide(maxFixedDiv()+1,1) throws\r\n     * Test divide(maxFixedDiv(),maxFixedDiv()) returns fixed1()\r\n     */\r\n    function divide(int256 x, int256 y) public pure returns (int256) {\r\n        if (y == fixed1()) return x;\r\n        assert(y != 0);\r\n        assert(y <= maxFixedDivisor());\r\n        return multiply(x, reciprocal(y));\r\n    }\r\n}",
  "sourcePath": "C:\\Users\\lam\\Documents\\GitHub\\IndexTradingApplication\\contract\\contracts\\utils\\FixidityLib.sol",
  "compiler": {
    "name": "solc",
    "version": "0.8.13+commit.abaa5c0e.Emscripten.clang"
  },
  "schemaVersion": "3.4.7",
  "updatedAt": "2022-07-24T04:34:25.467Z",
  "networkType": "ethereum",
  "devdoc": {
    "author": "Gadi Guy, Alberto Cuesta Canada",
    "kind": "dev",
    "methods": {
      "abs(int256)": {
        "details": "Test abs(0) returns 0 Test abs(fixed1()) returns -fixed1() Test abs(-fixed1()) returns fixed1() Test abs(newFixed(maxNewFixed())) returns maxNewFixed()*fixed1() Test abs(newFixed(minNewFixed())) returns -minNewFixed()*fixed1()"
      },
      "add(int256,int256)": {
        "details": "Test add(maxFixedAdd(),maxFixedAdd()) returns maxInt256()-1 Test add(maxFixedAdd()+1,maxFixedAdd()+1) fails Test add(-maxFixedSub(),-maxFixedSub()) returns minInt256() Test add(-maxFixedSub()-1,-maxFixedSub()-1) fails Test add(maxInt256(),maxInt256()) fails Test add(minInt256(),minInt256()) fails"
      },
      "convertFixed(int256,uint8,uint8)": {
        "details": "Test convertFixed(1,0,0) returns 1; Test convertFixed(1,1,1) returns 1; Test convertFixed(1,1,0) returns 0; Test convertFixed(1,0,1) returns 10; Test convertFixed(10,1,0) returns 1; Test convertFixed(10,0,1) returns 100; Test convertFixed(100,1,0) returns 10; Test convertFixed(100,0,1) returns 1000; Test convertFixed(1000,2,0) returns 10; Test convertFixed(1000,0,2) returns 100000; Test convertFixed(1000,2,1) returns 100; Test convertFixed(1000,1,2) returns 10000; Test convertFixed(maxInt256,1,0) returns maxInt256/10; Test convertFixed(maxInt256,0,1) throws Test convertFixed(maxInt256,38,0) returns maxInt256/(10**38); Test convertFixed(1,0,38) returns 10**38; Test convertFixed(maxInt256,39,0) throws Test convertFixed(1,0,39) throws"
      },
      "divide(int256,int256)": {
        "details": "Test divide(fixed1(),0) fails Test divide(maxFixedDiv(),1) = maxFixedDiv()*(10^digits()) Test divide(maxFixedDiv()+1,1) throws Test divide(maxFixedDiv(),maxFixedDiv()) returns fixed1()"
      },
      "fixed1()": {
        "details": "Test fixed1() equals 10^digits() Hardcoded to 24 digits."
      },
      "fractional(int256)": {
        "details": "Test fractional(0) returns 0 Test fractional(fixed1()) returns 0 Test fractional(fixed1()-1) returns 10^24-1 Test fractional(-fixed1()) returns 0 Test fractional(-fixed1()+1) returns -10^24-1"
      },
      "integer(int256)": {
        "details": "Test integer(0) returns 0 Test integer(fixed1()) returns fixed1() Test integer(newFixed(maxNewFixed())) returns maxNewFixed()*fixed1() Test integer(-fixed1()) returns -fixed1() Test integer(newFixed(-maxNewFixed())) returns -maxNewFixed()*fixed1()"
      },
      "maxFixedAdd()": {
        "details": "Test maxFixedAdd() equals maxInt256()-1 / 2 Test add(maxFixedAdd(),maxFixedAdd()) equals maxFixedAdd() + maxFixedAdd() Test add(maxFixedAdd()+1,maxFixedAdd()) throws Test add(-maxFixedAdd(),-maxFixedAdd()) equals -maxFixedAdd() - maxFixedAdd() Test add(-maxFixedAdd(),-maxFixedAdd()-1) throws"
      },
      "maxFixedDiv()": {
        "details": "divide(maxFixedDiv,newFixedFraction(1,fixed1())) = maxInt256(). Test maxFixedDiv() equals maxInt256()/fixed1() Test divide(maxFixedDiv(),multiply(mulPrecision(),mulPrecision())) = maxFixedDiv()*(10^digits()) Test divide(maxFixedDiv()+1,multiply(mulPrecision(),mulPrecision())) throws Hardcoded to 24 digits."
      },
      "maxFixedDivisor()": {
        "details": "Test maxFixedDivisor() equals fixed1()*fixed1() - Or 10**(digits()*2) Test divide(10**(digits()*2 + 1),10**(digits()*2)) = returns 10*fixed1() Test divide(10**(digits()*2 + 1),10**(digits()*2 + 1)) = throws Hardcoded to 24 digits."
      },
      "maxFixedMul()": {
        "details": "Calculated as sqrt(maxInt256()*fixed1()). Be careful with your sqrt() implementation. I couldn't find a calculator that would give the exact square root of maxInt256*fixed1 so this number is below the real number by no more than 3*10**28. It is safe to use as a limit for your multiplications, although powers of two of numbers over this value might still work. Test multiply(maxFixedMul(),maxFixedMul()) equals maxFixedMul() * maxFixedMul() Test multiply(maxFixedMul(),maxFixedMul()+1) throws Test multiply(-maxFixedMul(),maxFixedMul()) equals -maxFixedMul() * maxFixedMul() Test multiply(-maxFixedMul(),maxFixedMul()+1) throws Hardcoded to 24 digits."
      },
      "maxFixedSub()": {
        "details": "Test maxFixedSub() equals minInt256() / 2"
      },
      "maxInt256()": {
        "details": "Test maxInt256() equals 2^255 -1"
      },
      "maxNewFixed()": {
        "details": "deployment. Test maxNewFixed() equals maxInt256() / fixed1() Hardcoded to 24 digits."
      },
      "minInt256()": {
        "details": "Test minInt256 equals (2^255) * (-1)"
      },
      "minNewFixed()": {
        "details": "Test minNewFixed() equals -(maxInt256()) / fixed1() Hardcoded to 24 digits."
      },
      "mulPrecision()": {
        "details": "Test mulPrecision() equals sqrt(fixed1) Hardcoded to 24 digits."
      },
      "multiply(int256,int256)": {
        "details": "Test multiply(0,0) returns 0 Test multiply(maxFixedMul(),0) returns 0 Test multiply(0,maxFixedMul()) returns 0 Test multiply(maxFixedMul(),fixed1()) returns maxFixedMul() Test multiply(fixed1(),maxFixedMul()) returns maxFixedMul() Test all combinations of (2,-2), (2, 2.5), (2, -2.5) and (0.5, -0.5) Test multiply(fixed1()/mulPrecision(),fixed1()*mulPrecision()) Test multiply(maxFixedMul()-1,maxFixedMul()) equals multiply(maxFixedMul(),maxFixedMul()-1) Test multiply(maxFixedMul(),maxFixedMul()) returns maxInt256() // Probably not to the last digits Test multiply(maxFixedMul()+1,maxFixedMul()) fails Test multiply(maxFixedMul(),maxFixedMul()+1) fails"
      },
      "newFixed(int256)": {
        "details": "Test newFixed(0) returns 0 Test newFixed(1) returns fixed1() Test newFixed(maxNewFixed()) returns maxNewFixed() * fixed1() Test newFixed(maxNewFixed()+1) fails"
      },
      "newFixedFraction(int256,int256)": {
        "details": "Test newFixedFraction(maxFixedDiv()+1,1) fails Test newFixedFraction(1,maxFixedDiv()+1) fails Test newFixedFraction(1,0) fails Test newFixedFraction(0,1) returns 0 Test newFixedFraction(1,1) returns fixed1() Test newFixedFraction(maxFixedDiv(),1) returns maxFixedDiv()*fixed1() Test newFixedFraction(1,fixed1()) returns 1 Test newFixedFraction(1,fixed1()-1) returns 0"
      },
      "reciprocal(int256)": {
        "details": "Test reciprocal(0) fails Test reciprocal(fixed1()) returns fixed1() Test reciprocal(fixed1()*fixed1()) returns 1 // Testing how the fractional is truncated Test reciprocal(2*fixed1()*fixed1()) returns 0 // Testing how the fractional is truncated"
      },
      "subtract(int256,int256)": {
        "details": "Tests covered by add(x,y)"
      }
    },
    "title": "FixidityLib",
    "version": 1
  },
  "userdoc": {
    "kind": "user",
    "methods": {
      "abs(int256)": {
        "notice": "Converts to positive if negative. Due to int256 having one more negative number than positive numbers abs(minInt256) reverts."
      },
      "add(int256,int256)": {
        "notice": "x+y. If any operator is higher than maxFixedAdd() it might overflow. In solidity maxInt256 + 1 = minInt256 and viceversa."
      },
      "convertFixed(int256,uint8,uint8)": {
        "notice": "Converts an int256 which is already in some fixed point representation to a different fixed precision representation. Both the origin and destination precisions must be 38 or less digits. Origin values with a precision higher than the destination precision will be truncated accordingly."
      },
      "digits()": {
        "notice": "Number of positions that the comma is shifted to the right."
      },
      "divide(int256,int256)": {
        "notice": "x/y. If the dividend is higher than maxFixedDiv() it might overflow. You can use multiply(x,reciprocal(y)) instead. There is a loss of precision on division for the lower mulPrecision() decimals."
      },
      "fixed1()": {
        "notice": "This is 1 in the fixed point units used in this library."
      },
      "fractional(int256)": {
        "notice": "Returns the fractional part of a fixed point number. In the case of a negative number the fractional is also negative."
      },
      "fromFixed(int256)": {
        "notice": "Converts an int256 in the fixed point representation of this library to a non decimal. All decimal digits will be truncated."
      },
      "fromFixed(int256,uint8)": {
        "notice": "Converts an int256 in the fixed point representation of this library to a different representation. The _destinationDigits parameter is the precision of the output x. Values with a precision below than FixidityLib.digits() will be truncated accordingly."
      },
      "integer(int256)": {
        "notice": "Returns the integer part of a fixed point number."
      },
      "maxFixedAdd()": {
        "notice": "Maximum value that can be safely used as an addition operator."
      },
      "maxFixedDiv()": {
        "notice": "Maximum value that can be safely used as a dividend."
      },
      "maxFixedDivisor()": {
        "notice": "Maximum value that can be safely used as a divisor."
      },
      "maxFixedMul()": {
        "notice": "Maximum value that can be safely used as a multiplication operator."
      },
      "maxFixedSub()": {
        "notice": "Maximum negative value that can be safely in a subtraction."
      },
      "maxInt256()": {
        "notice": "Maximum value that can be represented in an int256"
      },
      "maxNewFixed()": {
        "notice": "Maximum value that can be converted to fixed point. Optimize for"
      },
      "minInt256()": {
        "notice": "Minimum value that can be represented in an int256"
      },
      "minNewFixed()": {
        "notice": "Maximum value that can be converted to fixed point. Optimize for deployment."
      },
      "mulPrecision()": {
        "notice": "The amount of decimals lost on each multiplication operand."
      },
      "multiply(int256,int256)": {
        "notice": "x*y. If any of the operators is higher than maxFixedMul() it might overflow."
      },
      "newFixed(int256)": {
        "notice": "Converts an int256 to fixed point units, equivalent to multiplying by 10^digits()."
      },
      "newFixed(int256,uint8)": {
        "notice": "Converts an int256 which is already in some fixed point representation to that of this library. The _originDigits parameter is the precision of x. Values with a precision higher than FixidityLib.digits() will be truncated accordingly."
      },
      "newFixedFraction(int256,int256)": {
        "notice": "Converts two int256 representing a fraction to fixed point units, equivalent to multiplying dividend and divisor by 10^digits()."
      },
      "reciprocal(int256)": {
        "notice": "1/x"
      },
      "subtract(int256,int256)": {
        "notice": "x-y. You can use add(x,-y) instead."
      }
    },
    "notice": "This library provides fixed point arithmetic with protection against overflow. All operations are done with int256 and the operands must have been created with any of the newFrom* functions, which shift the comma digits() to the right and check for limits. When using this library be sure of using maxNewFixed() as the upper limit for creation of fixed point numbers. Use maxFixedMul(), maxFixedDiv() and maxFixedAdd() if you want to be certain that those operations don't overflow.",
    "version": 1
  }
}