{
  "contractName": "RebalanceMarginWifMaxDrawdownControl",
  "abi": [
    {
      "inputs": [],
      "stateMutability": "nonpayable",
      "type": "constructor"
    },
    {
      "anonymous": false,
      "inputs": [
        {
          "indexed": false,
          "internalType": "string",
          "name": "actionMsgs",
          "type": "string"
        }
      ],
      "name": "LogActionMsg",
      "type": "event"
    },
    {
      "inputs": [
        {
          "internalType": "string",
          "name": "_tickerName",
          "type": "string"
        },
        {
          "internalType": "int256",
          "name": "_targetSharePurchase",
          "type": "int256"
        },
        {
          "internalType": "int256",
          "name": "_transactionTickerPrice",
          "type": "int256"
        },
        {
          "internalType": "uint256",
          "name": "_timestamp",
          "type": "uint256"
        }
      ],
      "name": "placeBuyStockLimitOrderMsg",
      "outputs": [
        {
          "components": [
            {
              "internalType": "string",
              "name": "tickerName",
              "type": "string"
            },
            {
              "internalType": "uint256",
              "name": "timestamp",
              "type": "uint256"
            },
            {
              "internalType": "string",
              "name": "transactionType",
              "type": "string"
            },
            {
              "internalType": "int256",
              "name": "positionAction",
              "type": "int256"
            },
            {
              "internalType": "int256",
              "name": "transactionTickerPrice",
              "type": "int256"
            },
            {
              "internalType": "int256",
              "name": "transactionAmount",
              "type": "int256"
            }
          ],
          "internalType": "struct Object.ActionMsg",
          "name": "",
          "type": "tuple"
        }
      ],
      "stateMutability": "nonpayable",
      "type": "function"
    },
    {
      "inputs": [
        {
          "internalType": "string",
          "name": "_tickerName",
          "type": "string"
        },
        {
          "internalType": "int256",
          "name": "_targetShareSell",
          "type": "int256"
        },
        {
          "internalType": "int256",
          "name": "_transactionTickerPrice",
          "type": "int256"
        },
        {
          "internalType": "uint256",
          "name": "_timestamp",
          "type": "uint256"
        }
      ],
      "name": "placeSellStockLimitOrderMsg",
      "outputs": [
        {
          "components": [
            {
              "internalType": "string",
              "name": "tickerName",
              "type": "string"
            },
            {
              "internalType": "uint256",
              "name": "timestamp",
              "type": "uint256"
            },
            {
              "internalType": "string",
              "name": "transactionType",
              "type": "string"
            },
            {
              "internalType": "int256",
              "name": "positionAction",
              "type": "int256"
            },
            {
              "internalType": "int256",
              "name": "transactionTickerPrice",
              "type": "int256"
            },
            {
              "internalType": "int256",
              "name": "transactionAmount",
              "type": "int256"
            }
          ],
          "internalType": "struct Object.ActionMsg",
          "name": "",
          "type": "tuple"
        }
      ],
      "stateMutability": "nonpayable",
      "type": "function"
    },
    {
      "inputs": [
        {
          "internalType": "string",
          "name": "tickerName",
          "type": "string"
        },
        {
          "internalType": "int256",
          "name": "bidPrice",
          "type": "int256"
        },
        {
          "internalType": "int256",
          "name": "last",
          "type": "int256"
        },
        {
          "internalType": "uint256",
          "name": "timestamp",
          "type": "uint256"
        }
      ],
      "name": "inputRealTimeTickerData",
      "outputs": [],
      "stateMutability": "nonpayable",
      "type": "function"
    },
    {
      "inputs": [
        {
          "components": [
            {
              "internalType": "int256",
              "name": "FullInitMarginReq",
              "type": "int256"
            },
            {
              "internalType": "int256",
              "name": "FullMainMarginReq",
              "type": "int256"
            }
          ],
          "internalType": "struct Object.MarginAccount",
          "name": "marginAcc",
          "type": "tuple"
        },
        {
          "components": [
            {
              "internalType": "int256",
              "name": "AvailableFunds",
              "type": "int256"
            },
            {
              "internalType": "int256",
              "name": "ExcessLiquidity",
              "type": "int256"
            },
            {
              "internalType": "int256",
              "name": "BuyingPower",
              "type": "int256"
            },
            {
              "internalType": "int256",
              "name": "Leverage",
              "type": "int256"
            },
            {
              "internalType": "int256",
              "name": "EquityWithLoanValue",
              "type": "int256"
            }
          ],
          "internalType": "struct Object.TradingFunds",
          "name": "tradingFunds",
          "type": "tuple"
        },
        {
          "components": [
            {
              "internalType": "int256",
              "name": "TotalCashValue",
              "type": "int256"
            },
            {
              "internalType": "int256",
              "name": "NetDividend",
              "type": "int256"
            },
            {
              "internalType": "int256",
              "name": "NetLiquidation",
              "type": "int256"
            },
            {
              "internalType": "int256",
              "name": "UnrealizedPnL",
              "type": "int256"
            },
            {
              "internalType": "int256",
              "name": "RealizedPnL",
              "type": "int256"
            },
            {
              "internalType": "int256",
              "name": "GrossPositionValue",
              "type": "int256"
            }
          ],
          "internalType": "struct Object.MktValue",
          "name": "mktValue",
          "type": "tuple"
        }
      ],
      "name": "updatePortfolioData",
      "outputs": [],
      "stateMutability": "nonpayable",
      "type": "function"
    },
    {
      "inputs": [
        {
          "internalType": "int256",
          "name": "FullInitMarginReq",
          "type": "int256"
        },
        {
          "internalType": "int256",
          "name": "FullMainMarginReq",
          "type": "int256"
        }
      ],
      "name": "inputMarginAccount",
      "outputs": [],
      "stateMutability": "nonpayable",
      "type": "function"
    },
    {
      "inputs": [
        {
          "internalType": "int256",
          "name": "AvailableFunds",
          "type": "int256"
        },
        {
          "internalType": "int256",
          "name": "ExcessLiquidity",
          "type": "int256"
        },
        {
          "internalType": "int256",
          "name": "BuyingPower",
          "type": "int256"
        },
        {
          "internalType": "int256",
          "name": "Leverage",
          "type": "int256"
        },
        {
          "internalType": "int256",
          "name": "EquityWithLoanValue",
          "type": "int256"
        }
      ],
      "name": "inputTradingFunds",
      "outputs": [],
      "stateMutability": "nonpayable",
      "type": "function"
    },
    {
      "inputs": [
        {
          "internalType": "int256",
          "name": "TotalCashValue",
          "type": "int256"
        },
        {
          "internalType": "int256",
          "name": "NetDividend",
          "type": "int256"
        },
        {
          "internalType": "int256",
          "name": "NetLiquidation",
          "type": "int256"
        },
        {
          "internalType": "int256",
          "name": "UnrealizedPnL",
          "type": "int256"
        },
        {
          "internalType": "int256",
          "name": "RealizedPnL",
          "type": "int256"
        },
        {
          "internalType": "int256",
          "name": "GrossPositionValue",
          "type": "int256"
        }
      ],
      "name": "inputMktValue",
      "outputs": [],
      "stateMutability": "nonpayable",
      "type": "function"
    },
    {
      "inputs": [
        {
          "internalType": "string",
          "name": "tickerName",
          "type": "string"
        },
        {
          "internalType": "int256",
          "name": "position",
          "type": "int256"
        },
        {
          "internalType": "int256",
          "name": "marketPrice",
          "type": "int256"
        },
        {
          "internalType": "int256",
          "name": "averageCost",
          "type": "int256"
        },
        {
          "internalType": "int256",
          "name": "marketValue",
          "type": "int256"
        },
        {
          "internalType": "int256",
          "name": "realizedPNL",
          "type": "int256"
        },
        {
          "internalType": "int256",
          "name": "unrealizedPNL",
          "type": "int256"
        },
        {
          "internalType": "int256",
          "name": "initMarginReq",
          "type": "int256"
        },
        {
          "internalType": "int256",
          "name": "maintMarginReq",
          "type": "int256"
        },
        {
          "internalType": "int256",
          "name": "costBasis",
          "type": "int256"
        }
      ],
      "name": "updatePortfolioHoldingsData",
      "outputs": [],
      "stateMutability": "nonpayable",
      "type": "function"
    },
    {
      "inputs": [
        {
          "internalType": "string",
          "name": "tickerName",
          "type": "string"
        },
        {
          "internalType": "uint256",
          "name": "timestamp",
          "type": "uint256"
        }
      ],
      "name": "getTickerActionMsg",
      "outputs": [
        {
          "internalType": "string",
          "name": "",
          "type": "string"
        },
        {
          "internalType": "uint256",
          "name": "",
          "type": "uint256"
        },
        {
          "internalType": "string",
          "name": "",
          "type": "string"
        },
        {
          "internalType": "int256",
          "name": "",
          "type": "int256"
        },
        {
          "internalType": "int256",
          "name": "",
          "type": "int256"
        },
        {
          "internalType": "int256",
          "name": "",
          "type": "int256"
        }
      ],
      "stateMutability": "nonpayable",
      "type": "function"
    },
    {
      "inputs": [
        {
          "internalType": "uint256",
          "name": "_timeStamp",
          "type": "uint256"
        }
      ],
      "name": "run",
      "outputs": [],
      "stateMutability": "nonpayable",
      "type": "function"
    }
  ],
  "bytecode": "0x60806040526000600d55606473__FixidityLib___________________________632179bb6c6040518163ffffffff1660e01b8152600401602060405180830381865af415801562000055573d6000803e3d6000fd5b505050506040513d601f19601f820116820180604052508101906200007b919062000401565b600562000089919062000462565b620000959190620005b8565b600e556103e873__FixidityLib___________________________632179bb6c6040518163ffffffff1660e01b8152600401602060405180830381865af4158015620000e5573d6000803e3d6000fd5b505050506040513d601f19601f820116820180604052508101906200010b919062000401565b600562000119919062000462565b620001259190620005b8565b600f553480156200013557600080fd5b5060405180604001604052806040518060400160405280600381526020017f515151000000000000000000000000000000000000000000000000000000000081525081526020016040518060400160405280600381526020017f53505900000000000000000000000000000000000000000000000000000000008152508152506002906002620001c79291906200023c565b5060016003604051620001da9062000687565b908152602001604051809103902060006101000a81548160ff021916908315150217905550600160036040516200021190620006ee565b908152602001604051809103902060006101000a81548160ff02191690831515021790555062000769565b82805482825590600052602060002090810192821562000290579160200282015b828111156200028f5782518290805190602001906200027e929190620002a3565b50916020019190600101906200025d565b5b5090506200029f919062000334565b5090565b828054620002b19062000734565b90600052602060002090601f016020900481019282620002d5576000855562000321565b82601f10620002f057805160ff191683800117855562000321565b8280016001018555821562000321579182015b828111156200032057825182559160200191906001019062000303565b5b5090506200033091906200035c565b5090565b5b808211156200035857600081816200034e91906200037b565b5060010162000335565b5090565b5b80821115620003775760008160009055506001016200035d565b5090565b508054620003899062000734565b6000825580601f106200039d5750620003be565b601f016020900490600052602060002090810190620003bd91906200035c565b5b50565b600080fd5b6000819050919050565b620003db81620003c6565b8114620003e757600080fd5b50565b600081519050620003fb81620003d0565b92915050565b6000602082840312156200041a5762000419620003c1565b5b60006200042a84828501620003ea565b91505092915050565b7f4e487b7100000000000000000000000000000000000000000000000000000000600052601160045260246000fd5b60006200046f82620003c6565b91506200047c83620003c6565b9250827f7fffffffffffffffffffffffffffffffffffffffffffffffffffffffffffffff0482116000841360008413161615620004be57620004bd62000433565b5b817f80000000000000000000000000000000000000000000000000000000000000000583126000841260008413161615620004fe57620004fd62000433565b5b827f800000000000000000000000000000000000000000000000000000000000000005821260008413600084121616156200053e576200053d62000433565b5b827f7fffffffffffffffffffffffffffffffffffffffffffffffffffffffffffffff05821260008412600084121616156200057e576200057d62000433565b5b828202905092915050565b7f4e487b7100000000000000000000000000000000000000000000000000000000600052601260045260246000fd5b6000620005c582620003c6565b9150620005d283620003c6565b925082620005e557620005e462000589565b5b600160000383147f80000000000000000000000000000000000000000000000000000000000000008314161562000621576200062062000433565b5b828205905092915050565b600081905092915050565b7f5151510000000000000000000000000000000000000000000000000000000000600082015250565b60006200066f6003836200062c565b91506200067c8262000637565b600382019050919050565b6000620006948262000660565b9150819050919050565b7f5350590000000000000000000000000000000000000000000000000000000000600082015250565b6000620006d66003836200062c565b9150620006e3826200069e565b600382019050919050565b6000620006fb82620006c7565b9150819050919050565b7f4e487b7100000000000000000000000000000000000000000000000000000000600052602260045260246000fd5b600060028204905060018216806200074d57607f821691505b60208210810362000763576200076262000705565b5b50919050565b613a9580620007796000396000f3fe608060405234801561001057600080fd5b506004361061009e5760003560e01c8063a444f5e911610066578063a444f5e914610157578063a5f86e9b14610173578063c4f5a5a91461018f578063e8f15a6d146101c4578063f903f8b3146101e05761009e565b80630262ae25146100a35780630b609796146100bf57806314ea6c19146100db5780633bc9ef791461010b5780634f8ac98d14610127575b600080fd5b6100bd60048036038101906100b89190612c1e565b6101fc565b005b6100d960048036038101906100d49190612d19565b610301565b005b6100f560048036038101906100f09190612ddc565b61033b565b6040516101029190612f95565b60405180910390f35b61012560048036038101906101209190612fb7565b610434565b005b610141600480360381019061013c9190612ddc565b610467565b60405161014e9190612f95565b60405180910390f35b610171600480360381019061016c9190613032565b610560565b005b61018d60048036038101906101889190612ddc565b610f66565b005b6101a960048036038101906101a4919061305f565b61122d565b6040516101bb96959493929190613123565b60405180910390f35b6101de60048036038101906101d99190613313565b6113f6565b005b6101fa60048036038101906101f59190613367565b61157a565b005b60006040518061014001604052808c81526020018b81526020018a815260200189815260200188815260200187815260200186815260200185815260200184815260200183815250905080600c600060015481526020019081526020016000208c60405161026a91906133e3565b9081526020016040518091039020600082015181600001908051906020019061029492919061296f565b506020820151816001015560408201518160020155606082015181600301556080820151816004015560a0820151816005015560c0820151816006015560e08201518160070155610100820151816008015561012082015181600901559050505050505050505050505050565b60006040518060c0016040528088815260200187815260200186815260200185815260200184815260200183815250905050505050505050565b6103436129f5565b600073__FixidityLib___________________________633c4308a886866040518363ffffffff1660e01b815260040161037e929190613409565b602060405180830381865af415801561039b573d6000803e3d6000fd5b505050506040513d601f19601f820116820180604052508101906103bf9190613447565b905060006040518060c001604052808881526020018581526020016040518060400160405280600481526020017f53656c6c0000000000000000000000000000000000000000000000000000000081525081526020018781526020018681526020018381525090508092505050949350505050565b60006040518060a00160405280878152602001868152602001858152602001848152602001838152509050505050505050565b61046f6129f5565b600073__FixidityLib___________________________633c4308a886866040518363ffffffff1660e01b81526004016104aa929190613409565b602060405180830381865af41580156104c7573d6000803e3d6000fd5b505050506040513d601f19601f820116820180604052508101906104eb9190613447565b905060006040518060c001604052808881526020018581526020016040518060400160405280600381526020017f427579000000000000000000000000000000000000000000000000000000000081525081526020018781526020018681526020018381525090508092505050949350505050565b61056b600154611598565b61057457600080fd5b6000600d540361090557600073__FixidityLib___________________________63f5984236600a60008581526020019081526020016000206007015473__FixidityLib___________________________632179bb6c6040518163ffffffff1660e01b8152600401602060405180830381865af41580156105fa573d6000803e3d6000fd5b505050506040513d601f19601f8201168201806040525081019061061e9190613447565b60028054905061062e91906134a3565b6040518363ffffffff1660e01b815260040161064b929190613409565b602060405180830381865af4158015610668573d6000803e3d6000fd5b505050506040513d601f19601f8201168201806040525081019061068c9190613447565b905060005b6002805490508110156108fe57600060096000858152602001908152602001600020600283815481106106c7576106c66135ba565b5b906000526020600020016040516106de91906136dd565b908152602001604051809103902060405180606001604052908160008201805461070790613618565b80601f016020809104026020016040519081016040528092919081815260200182805461073390613618565b80156107805780601f1061075557610100808354040283529160200191610780565b820191906000526020600020905b81548152906001019060200180831161076357829003601f168201915b505050505081526020016001820154815260200160028201548152505090506000816000015190506000826040015190506000600373__FixidityLib___________________________63f59842368887604001516040518363ffffffff1660e01b81526004016107f2929190613409565b602060405180830381865af415801561080f573d6000803e3d6000fd5b505050506040513d601f19601f820116820180604052508101906108339190613447565b61083d91906134a3565b9050600061084d8483858b610467565b905080600b600060015481526020019081526020016000208560405161087391906133e3565b9081526020016040518091039020600082015181600001908051906020019061089d92919061296f565b506020820151816001015560408201518160020190805190602001906108c492919061296f565b50606082015181600301556080820151816004015560a08201518160050155905050505050505080806108f6906136f4565b915050610691565b5050610f47565b600073__FixidityLib___________________________633c4308a8600e54600a6000868152602001908152602001600020600c01546040518363ffffffff1660e01b8152600401610958929190613409565b602060405180830381865af4158015610975573d6000803e3d6000fd5b505050506040513d601f19601f820116820180604052508101906109999190613447565b905060005b600280549050811015610dd457600060096000858152602001908152602001600020600283815481106109d4576109d36135ba565b5b906000526020600020016040516109eb91906136dd565b9081526020016040518091039020600201549050600060028381548110610a1557610a146135ba565b5b906000526020600020018054610a2a90613618565b80601f0160208091040260200160405190810160405280929190818152602001828054610a5690613618565b8015610aa35780601f10610a7857610100808354040283529160200191610aa3565b820191906000526020600020905b815481529060010190602001808311610a8657829003601f168201915b50505050509050600460028481548110610ac057610abf6135ba565b5b90600052602060002001604051610ad791906136dd565b908152602001604051809103902060009054906101000a900460ff1615610bb457610b0281836115fc565b15610baf576000610b14828488611644565b905080600b6000600154815260200190815260200160002083604051610b3a91906133e3565b90815260200160405180910390206000820151816000019080519060200190610b6492919061296f565b50602082015181600101556040820151816002019080519060200190610b8b92919061296f565b50606082015181600301556080820151816004015560a08201518160050155905050505b610dbf565b610bbe81836117bf565b15610bd8576000610bd08284886117ea565b905050610dbe565b83600a6000878152602001908152602001600020600301541315610dbd57600073__FixidityLib___________________________63b93ea812600a600089815260200190815260200160002060030154876040518363ffffffff1660e01b8152600401610c47929190613409565b602060405180830381865af4158015610c64573d6000803e3d6000fd5b505050506040513d601f19601f82011682018060405250810190610c889190613447565b9050600073__FixidityLib___________________________63f598423683866040518363ffffffff1660e01b8152600401610cc5929190613409565b602060405180830381865af4158015610ce2573d6000803e3d6000fd5b505050506040513d601f19601f82011682018060405250810190610d069190613447565b90506000811315610dba576000610d1f8483878b610467565b905080600b6000600154815260200190815260200160002085604051610d4591906133e3565b90815260200160405180910390206000820151816000019080519060200190610d6f92919061296f565b50602082015181600101556040820151816002019080519060200190610d9692919061296f565b50606082015181600301556080820151816004015560a08201518160050155905050505b50505b5b5b50508080610dcc906136f4565b91505061099e565b5060005b600280549050811015610f445760006009600085815260200190815260200160002060028381548110610e0e57610e0d6135ba565b5b90600052602060002001604051610e2591906136dd565b9081526020016040518091039020600201549050600060028381548110610e4f57610e4e6135ba565b5b906000526020600020018054610e6490613618565b80601f0160208091040260200160405190810160405280929190818152602001828054610e9090613618565b8015610edd5780601f10610eb257610100808354040283529160200191610edd565b820191906000526020600020905b815481529060010190602001808311610ec057829003601f168201915b50505050509050600481604051610ef491906133e3565b908152602001604051809103902060009054906101000a900460ff1615610f2457610f1f8183611ba6565b610f2f565b610f2e8183611e52565b5b50508080610f3c906136f4565b915050610dd8565b50505b806000819055506001600d54610f5d919061373c565b600d8190555050565b60006040518060600160405280868152602001858152602001848152509050806009600084815260200190815260200160002086604051610fa791906133e3565b90815260200160405180910390206000820151816000019080519060200190610fd192919061296f565b5060208201518160010155604082015181600201559050506000600d54036110bb57600060048660405161100591906133e3565b908152602001604051809103902060006101000a81548160ff021916908315150217905550600060058660405161103c91906133e3565b908152602001604051809103902081905550600060068660405161106091906133e3565b908152602001604051809103902081905550600060078660405161108491906133e3565b90815260200160405180910390208190555060006008866040516110a891906133e3565b9081526020016040518091039020819055505b6003856040516110cb91906133e3565b908152602001604051809103902060009054906101000a900460ff166112265760028590806001815401808255809150506001900390600052602060002001600090919091909150908051906020019061112692919061296f565b50600160038660405161113991906133e3565b908152602001604051809103902060006101000a81548160ff021916908315150217905550600060048660405161117091906133e3565b908152602001604051809103902060006101000a81548160ff02191690831515021790555060006005866040516111a791906133e3565b90815260200160405180910390208190555060006006866040516111cb91906133e3565b90815260200160405180910390208190555060006007866040516111ef91906133e3565b908152602001604051809103902081905550600060088660405161121391906133e3565b9081526020016040518091039020819055505b5050505050565b606060006060600080600080600b60008981526020019081526020016000208960405161125a91906133e3565b90815260200160405180910390206040518060c001604052908160008201805461128390613618565b80601f01602080910402602001604051908101604052809291908181526020018280546112af90613618565b80156112fc5780601f106112d1576101008083540402835291602001916112fc565b820191906000526020600020905b8154815290600101906020018083116112df57829003601f168201915b505050505081526020016001820154815260200160028201805461131f90613618565b80601f016020809104026020016040519081016040528092919081815260200182805461134b90613618565b80156113985780601f1061136d57610100808354040283529160200191611398565b820191906000526020600020905b81548152906001019060200180831161137b57829003601f168201915b5050505050815260200160038201548152602001600482015481526020016005820154815250509050806000015181602001518260400151836060015184608001518560a00151965096509650965096509650509295509295509295565b60008360000151905060008460200151905060008460000151905060008560200151905060008660400151905060008760600151905060008860800151905060008860000151905060008960200151905060008a60400151905060008b60600151905060008c60800151905060008d60a0015190506000604051806101a001604052808f81526020018e81526020018d81526020018c81526020018b81526020018a815260200189815260200188815260200187815260200186815260200185815260200184815260200183815250905080600a60006001548152602001908152602001600020600082015181600001556020820151816001015560408201518160020155606082015181600301556080820151816004015560a0820151816005015560c0820151816006015560e082015181600701556101008201518160080155610120820151816009015561014082015181600a015561016082015181600b015561018082015181600c01559050505050505050505050505050505050505050565b60006040518060400160405280848152602001838152509050505050565b600080600090506000806000806000806115b189612249565b8096508197508298505050506115c8600054612249565b8093508194508295505050508160ff168560ff16146115ed5760019650886000819055505b86975050505050505050919050565b6000806065606460058660405161161391906133e3565b90815260200160405180910390205461162c91906137c1565b61163691906134a3565b905080831391505092915050565b61164c6129f5565b6116546129f5565b600060068660405161166691906133e3565b9081526020016040518091039020549050600073__FixidityLib___________________________633c4308a883886040518363ffffffff1660e01b81526004016116b2929190613409565b602060405180830381865af41580156116cf573d6000803e3d6000fd5b505050506040513d601f19601f820116820180604052508101906116f39190613447565b905080600a600087815260200190815260200160002060040154126117255761171e87838888610467565b9250611758565b85600a60008781526020019081526020016000206004015461174791906137c1565b915061175587838888610467565b92505b600060048860405161176a91906133e3565b908152602001604051809103902060006101000a81548160ff021916908315150217905550856007886040516117a091906133e3565b9081526020016040518091039020819055508293505050509392505050565b60006005836040516117d191906133e3565b9081526020016040518091039020548212905092915050565b6117f26129f5565b6000600c60008481526020019081526020016000208560405161181591906133e3565b90815260200160405180910390206040518061014001604052908160008201805461183f90613618565b80601f016020809104026020016040519081016040528092919081815260200182805461186b90613618565b80156118b85780601f1061188d576101008083540402835291602001916118b8565b820191906000526020600020905b81548152906001019060200180831161189b57829003601f168201915b50505050508152602001600182015481526020016002820154815260200160038201548152602001600482015481526020016005820154815260200160068201548152602001600782015481526020016008820154815260200160098201548152505090506000600960008581526020019081526020016000208660405161194091906133e3565b908152602001604051809103902060405180606001604052908160008201805461196990613618565b80601f016020809104026020016040519081016040528092919081815260200182805461199590613618565b80156119e25780601f106119b7576101008083540402835291602001916119e2565b820191906000526020600020905b8154815290600101906020018083116119c557829003601f168201915b505050505081526020016001820154815260200160028201548152505090506000826020015190506000600280549050600a600088815260200190815260200160002060060154611a3391906137c1565b9050600073__FixidityLib___________________________63f59842368386604001516040518363ffffffff1660e01b8152600401611a74929190613409565b602060405180830381865af4158015611a91573d6000803e3d6000fd5b505050506040513d601f19601f82011682018060405250810190611ab59190613447565b90506000600a600c83611ac891906134a3565b611ad291906137c1565b905060008185611ae2919061382b565b90506000611af28c838d8d61033b565b90508a60058d604051611b0591906133e3565b9081526020016040518091039020819055508160068d604051611b2891906133e3565b9081526020016040518091039020819055508a60088d604051611b4b91906133e3565b908152602001604051809103902081905550600160048d604051611b6f91906133e3565b908152602001604051809103902060006101000a81548160ff02191690831515021790555080985050505050505050509392505050565b6000606473__FixidityLib___________________________632179bb6c6040518163ffffffff1660e01b8152600401602060405180830381865af4158015611bf3573d6000803e3d6000fd5b505050506040513d601f19601f82011682018060405250810190611c179190613447565b6046611c2391906134a3565b611c2d91906137c1565b905073__FixidityLib___________________________633c4308a8600585604051611c5991906133e3565b908152602001604051809103902054836040518363ffffffff1660e01b8152600401611c86929190613409565b602060405180830381865af4158015611ca3573d6000803e3d6000fd5b505050506040513d601f19601f82011682018060405250810190611cc79190613447565b821215611e4d57600073__FixidityLib___________________________63b93ea812600886604051611cfa91906133e3565b908152602001604051809103902054856040518363ffffffff1660e01b8152600401611d27929190613409565b602060405180830381865af4158015611d44573d6000803e3d6000fd5b505050506040513d601f19601f82011682018060405250810190611d689190613447565b905060006064603273__FixidityLib___________________________63a5f3c23b87866040518363ffffffff1660e01b8152600401611da9929190613409565b602060405180830381865af4158015611dc6573d6000803e3d6000fd5b505050506040513d601f19601f82011682018060405250810190611dea9190613447565b611df491906134a3565b611dfe91906137c1565b9050600585604051611e1091906133e3565b908152602001604051809103902054811215611e4a5780600586604051611e3791906133e3565b9081526020016040518091039020819055505b50505b505050565b6000600783604051611e6491906133e3565b9081526020016040518091039020540361204d5780600783604051611e8991906133e3565b908152602001604051809103902081905550600073__FixidityLib___________________________63b93ea81273__FixidityLib___________________________632179bb6c6040518163ffffffff1660e01b8152600401602060405180830381865af4158015611f00573d6000803e3d6000fd5b505050506040513d601f19601f82011682018060405250810190611f249190613447565b600f546040518363ffffffff1660e01b8152600401611f44929190613409565b602060405180830381865af4158015611f61573d6000803e3d6000fd5b505050506040513d601f19601f82011682018060405250810190611f859190613447565b9050600073__FixidityLib___________________________633c4308a8600786604051611fb391906133e3565b908152602001604051809103902054846040518363ffffffff1660e01b8152600401611fe0929190613409565b602060405180830381865af4158015611ffd573d6000803e3d6000fd5b505050506040513d601f19601f820116820180604052508101906120219190613447565b90508060058560405161203491906133e3565b9081526020016040518091039020819055505050612245565b60078260405161205d91906133e3565b908152602001604051809103902054811315612244578060078360405161208491906133e3565b908152602001604051809103902081905550600073__FixidityLib___________________________63b93ea81273__FixidityLib___________________________632179bb6c6040518163ffffffff1660e01b8152600401602060405180830381865af41580156120fb573d6000803e3d6000fd5b505050506040513d601f19601f8201168201806040525081019061211f9190613447565b600f546040518363ffffffff1660e01b815260040161213f929190613409565b602060405180830381865af415801561215c573d6000803e3d6000fd5b505050506040513d601f19601f820116820180604052508101906121809190613447565b9050600073__FixidityLib___________________________633c4308a86007866040516121ae91906133e3565b908152602001604051809103902054846040518363ffffffff1660e01b81526004016121db929190613409565b602060405180830381865af41580156121f8573d6000803e3d6000fd5b505050506040513d601f19601f8201168201806040525081019061221c9190613447565b90508060058560405161222f91906133e3565b90815260200160405180910390208190555050505b5b5050565b60008060008084905061225b8161228e565b809550819250505061226d81856124fd565b809450819250505061227e81612883565b8093508192505050509193909250565b6000806000808493506107b292506301e1338060026122ad91906138bf565b8410156122f6576301e13380846122c49190613919565b91506301e13380826122d691906138bf565b846122e1919061394a565b935081836122ef919061398c565b92506124f6565b6301e13380600261230791906138bf565b84612312919061394a565b93506107b492506334aadc808410612425576334aadc8084612334919061394a565b9350601c83612343919061398c565b92506402f0605980846123569190613919565b91506402f06059808261236991906138bf565b84612374919061394a565b93506101908261238491906138bf565b8361238f919061398c565b925061239a836128cd565b90508063ffffffff1684106123cd578063ffffffff16846123bb919061394a565b93506001836123ca919061398c565b92505b6123d683612904565b6124245763bc17c200846123ea9190613919565b915063bc17c200826123fc91906138bf565b84612407919061394a565b935060648261241691906138bf565b83612421919061398c565b92505b5b6307861f80846124359190613919565b91506307861f808261244791906138bf565b84612452919061394a565b935060048261246191906138bf565b8361246c919061398c565b9250612477836128cd565b90508063ffffffff1684106124aa578063ffffffff1684612498919061394a565b93506001836124a7919061398c565b92505b6124b383612904565b6124f5576301e13380846124c79190613919565b91506301e13380826124d991906138bf565b846124e4919061394a565b935081836124f2919061398c565b92505b5b5050915091565b600080612508612a2b565b612510612a4e565b85935061251c85612904565b1561268757604051806101a00160405280600060ff168152602001601f60ff168152602001601d60ff168152602001601f60ff168152602001601e60ff168152602001601f60ff168152602001601e60ff168152602001601f60ff168152602001601f60ff168152602001601e60ff168152602001601f60ff168152602001601e60ff168152602001601f60ff168152509150604051806101a00160405280600063ffffffff1681526020016228de8063ffffffff168152602001624f1a0063ffffffff1681526020016277f88063ffffffff168152602001629f858063ffffffff16815260200162c8640063ffffffff16815260200162eff10063ffffffff168152602001630118cf8063ffffffff168152602001630141ae0063ffffffff1681526020016301693b0063ffffffff168152602001630192198063ffffffff1681526020016301b9a68063ffffffff1681526020016301e2850063ffffffff1681525090506127e9565b604051806101a00160405280600060ff168152602001601f60ff168152602001601c60ff168152602001601f60ff168152602001601e60ff168152602001601f60ff168152602001601e60ff168152602001601f60ff168152602001601f60ff168152602001601e60ff168152602001601f60ff168152602001601e60ff168152602001601f60ff168152509150604051806101a00160405280600063ffffffff1681526020016228de8063ffffffff168152602001624dc88063ffffffff1681526020016276a70063ffffffff168152602001629e340063ffffffff16815260200162c7128063ffffffff16815260200162ee9f8063ffffffff1681526020016301177e0063ffffffff1681526020016301405c8063ffffffff168152602001630167e98063ffffffff168152602001630190c80063ffffffff1681526020016301b8550063ffffffff1681526020016301e1338063ffffffff1681525090505b6000600190505b600d8160ff16101561287957818160ff16600d8110612812576128116135ba565b5b602002015163ffffffff16851015612866578093508160018261283591906139d1565b60ff16600d8110612849576128486135ba565b5b602002015163ffffffff168561285f919061394a565b9450612879565b808061287190613a05565b9150506127f0565b5050509250929050565b6000806000839250620151808361289a9190613919565b905062015180816128ab91906138bf565b836128b6919061394a565b92506001816128c5919061373c565b915050915091565b60006128d882612904565b156128f757620151806301e133806128f0919061373c565b90506128ff565b6301e1338090505b919050565b6000806004836129149190613a2e565b61ffff1614612926576000905061296a565b6000610190836129369190613a2e565b61ffff161480612957575060006064836129509190613a2e565b61ffff1614155b15612965576001905061296a565b600090505b919050565b82805461297b90613618565b90600052602060002090601f01602090048101928261299d57600085556129e4565b82601f106129b657805160ff19168380011785556129e4565b828001600101855582156129e4579182015b828111156129e35782518255916020019190600101906129c8565b5b5090506129f19190612a71565b5090565b6040518060c001604052806060815260200160008152602001606081526020016000815260200160008152602001600081525090565b604051806101a00160405280600d90602082028036833780820191505090505090565b604051806101a00160405280600d90602082028036833780820191505090505090565b5b80821115612a8a576000816000905550600101612a72565b5090565b6000604051905090565b600080fd5b600080fd5b600080fd5b600080fd5b6000601f19601f8301169050919050565b7f4e487b7100000000000000000000000000000000000000000000000000000000600052604160045260246000fd5b612af582612aac565b810181811067ffffffffffffffff82111715612b1457612b13612abd565b5b80604052505050565b6000612b27612a8e565b9050612b338282612aec565b919050565b600067ffffffffffffffff821115612b5357612b52612abd565b5b612b5c82612aac565b9050602081019050919050565b82818337600083830152505050565b6000612b8b612b8684612b38565b612b1d565b905082815260208101848484011115612ba757612ba6612aa7565b5b612bb2848285612b69565b509392505050565b600082601f830112612bcf57612bce612aa2565b5b8135612bdf848260208601612b78565b91505092915050565b6000819050919050565b612bfb81612be8565b8114612c0657600080fd5b50565b600081359050612c1881612bf2565b92915050565b6000806000806000806000806000806101408b8d031215612c4257612c41612a98565b5b60008b013567ffffffffffffffff811115612c6057612c5f612a9d565b5b612c6c8d828e01612bba565b9a50506020612c7d8d828e01612c09565b9950506040612c8e8d828e01612c09565b9850506060612c9f8d828e01612c09565b9750506080612cb08d828e01612c09565b96505060a0612cc18d828e01612c09565b95505060c0612cd28d828e01612c09565b94505060e0612ce38d828e01612c09565b935050610100612cf58d828e01612c09565b925050610120612d078d828e01612c09565b9150509295989b9194979a5092959850565b60008060008060008060c08789031215612d3657612d35612a98565b5b6000612d4489828a01612c09565b9650506020612d5589828a01612c09565b9550506040612d6689828a01612c09565b9450506060612d7789828a01612c09565b9350506080612d8889828a01612c09565b92505060a0612d9989828a01612c09565b9150509295509295509295565b6000819050919050565b612db981612da6565b8114612dc457600080fd5b50565b600081359050612dd681612db0565b92915050565b60008060008060808587031215612df657612df5612a98565b5b600085013567ffffffffffffffff811115612e1457612e13612a9d565b5b612e2087828801612bba565b9450506020612e3187828801612c09565b9350506040612e4287828801612c09565b9250506060612e5387828801612dc7565b91505092959194509250565b600081519050919050565b600082825260208201905092915050565b60005b83811015612e99578082015181840152602081019050612e7e565b83811115612ea8576000848401525b50505050565b6000612eb982612e5f565b612ec38185612e6a565b9350612ed3818560208601612e7b565b612edc81612aac565b840191505092915050565b612ef081612da6565b82525050565b612eff81612be8565b82525050565b600060c0830160008301518482036000860152612f228282612eae565b9150506020830151612f376020860182612ee7565b5060408301518482036040860152612f4f8282612eae565b9150506060830151612f646060860182612ef6565b506080830151612f776080860182612ef6565b5060a0830151612f8a60a0860182612ef6565b508091505092915050565b60006020820190508181036000830152612faf8184612f05565b905092915050565b600080600080600060a08688031215612fd357612fd2612a98565b5b6000612fe188828901612c09565b9550506020612ff288828901612c09565b945050604061300388828901612c09565b935050606061301488828901612c09565b925050608061302588828901612c09565b9150509295509295909350565b60006020828403121561304857613047612a98565b5b600061305684828501612dc7565b91505092915050565b6000806040838503121561307657613075612a98565b5b600083013567ffffffffffffffff81111561309457613093612a9d565b5b6130a085828601612bba565b92505060206130b185828601612dc7565b9150509250929050565b600082825260208201905092915050565b60006130d782612e5f565b6130e181856130bb565b93506130f1818560208601612e7b565b6130fa81612aac565b840191505092915050565b61310e81612da6565b82525050565b61311d81612be8565b82525050565b600060c082019050818103600083015261313d81896130cc565b905061314c6020830188613105565b818103604083015261315e81876130cc565b905061316d6060830186613114565b61317a6080830185613114565b61318760a0830184613114565b979650505050505050565b600080fd5b6000604082840312156131ad576131ac613192565b5b6131b76040612b1d565b905060006131c784828501612c09565b60008301525060206131db84828501612c09565b60208301525092915050565b600060a082840312156131fd576131fc613192565b5b61320760a0612b1d565b9050600061321784828501612c09565b600083015250602061322b84828501612c09565b602083015250604061323f84828501612c09565b604083015250606061325384828501612c09565b606083015250608061326784828501612c09565b60808301525092915050565b600060c0828403121561328957613288613192565b5b61329360c0612b1d565b905060006132a384828501612c09565b60008301525060206132b784828501612c09565b60208301525060406132cb84828501612c09565b60408301525060606132df84828501612c09565b60608301525060806132f384828501612c09565b60808301525060a061330784828501612c09565b60a08301525092915050565b60008060006101a0848603121561332d5761332c612a98565b5b600061333b86828701613197565b935050604061334c868287016131e7565b92505060e061335d86828701613273565b9150509250925092565b6000806040838503121561337e5761337d612a98565b5b600061338c85828601612c09565b925050602061339d85828601612c09565b9150509250929050565b600081905092915050565b60006133bd82612e5f565b6133c781856133a7565b93506133d7818560208601612e7b565b80840191505092915050565b60006133ef82846133b2565b915081905092915050565b61340381612be8565b82525050565b600060408201905061341e60008301856133fa565b61342b60208301846133fa565b9392505050565b60008151905061344181612bf2565b92915050565b60006020828403121561345d5761345c612a98565b5b600061346b84828501613432565b91505092915050565b7f4e487b7100000000000000000000000000000000000000000000000000000000600052601160045260246000fd5b60006134ae82612be8565b91506134b983612be8565b9250827f7fffffffffffffffffffffffffffffffffffffffffffffffffffffffffffffff04821160008413600084131616156134f8576134f7613474565b5b817f8000000000000000000000000000000000000000000000000000000000000000058312600084126000841316161561353557613534613474565b5b827f8000000000000000000000000000000000000000000000000000000000000000058212600084136000841216161561357257613571613474565b5b827f7fffffffffffffffffffffffffffffffffffffffffffffffffffffffffffffff05821260008412600084121616156135af576135ae613474565b5b828202905092915050565b7f4e487b7100000000000000000000000000000000000000000000000000000000600052603260045260246000fd5b7f4e487b7100000000000000000000000000000000000000000000000000000000600052602260045260246000fd5b6000600282049050600182168061363057607f821691505b602082108103613643576136426135e9565b5b50919050565b60008190508160005260206000209050919050565b6000815461366b81613618565b61367581866133a7565b9450600182166000811461369057600181146136a1576136d4565b60ff198316865281860193506136d4565b6136aa85613649565b60005b838110156136cc578154818901526001820191506020810190506136ad565b838801955050505b50505092915050565b60006136e9828461365e565b915081905092915050565b60006136ff82612da6565b91507fffffffffffffffffffffffffffffffffffffffffffffffffffffffffffffffff820361373157613730613474565b5b600182019050919050565b600061374782612da6565b915061375283612da6565b9250827fffffffffffffffffffffffffffffffffffffffffffffffffffffffffffffffff0382111561378757613786613474565b5b828201905092915050565b7f4e487b7100000000000000000000000000000000000000000000000000000000600052601260045260246000fd5b60006137cc82612be8565b91506137d783612be8565b9250826137e7576137e6613792565b5b600160000383147f8000000000000000000000000000000000000000000000000000000000000000831416156138205761381f613474565b5b828205905092915050565b600061383682612be8565b915061384183612be8565b9250827f80000000000000000000000000000000000000000000000000000000000000000182126000841215161561387c5761387b613474565b5b827f7fffffffffffffffffffffffffffffffffffffffffffffffffffffffffffffff0182136000841216156138b4576138b3613474565b5b828203905092915050565b60006138ca82612da6565b91506138d583612da6565b9250817fffffffffffffffffffffffffffffffffffffffffffffffffffffffffffffffff048311821515161561390e5761390d613474565b5b828202905092915050565b600061392482612da6565b915061392f83612da6565b92508261393f5761393e613792565b5b828204905092915050565b600061395582612da6565b915061396083612da6565b92508282101561397357613972613474565b5b828203905092915050565b600061ffff82169050919050565b60006139978261397e565b91506139a28361397e565b92508261ffff038211156139b9576139b8613474565b5b828201905092915050565b600060ff82169050919050565b60006139dc826139c4565b91506139e7836139c4565b9250828210156139fa576139f9613474565b5b828203905092915050565b6000613a10826139c4565b915060ff8203613a2357613a22613474565b5b600182019050919050565b6000613a398261397e565b9150613a448361397e565b925082613a5457613a53613792565b5b82820690509291505056fea26469706673582212204c6a6221d6a1bc0ff658dc8df692ebfafad4974026fef05a895872ec4497744464736f6c634300080d0033",
  "deployedBytecode": "0x608060405234801561001057600080fd5b506004361061009e5760003560e01c8063a444f5e911610066578063a444f5e914610157578063a5f86e9b14610173578063c4f5a5a91461018f578063e8f15a6d146101c4578063f903f8b3146101e05761009e565b80630262ae25146100a35780630b609796146100bf57806314ea6c19146100db5780633bc9ef791461010b5780634f8ac98d14610127575b600080fd5b6100bd60048036038101906100b89190612c1e565b6101fc565b005b6100d960048036038101906100d49190612d19565b610301565b005b6100f560048036038101906100f09190612ddc565b61033b565b6040516101029190612f95565b60405180910390f35b61012560048036038101906101209190612fb7565b610434565b005b610141600480360381019061013c9190612ddc565b610467565b60405161014e9190612f95565b60405180910390f35b610171600480360381019061016c9190613032565b610560565b005b61018d60048036038101906101889190612ddc565b610f66565b005b6101a960048036038101906101a4919061305f565b61122d565b6040516101bb96959493929190613123565b60405180910390f35b6101de60048036038101906101d99190613313565b6113f6565b005b6101fa60048036038101906101f59190613367565b61157a565b005b60006040518061014001604052808c81526020018b81526020018a815260200189815260200188815260200187815260200186815260200185815260200184815260200183815250905080600c600060015481526020019081526020016000208c60405161026a91906133e3565b9081526020016040518091039020600082015181600001908051906020019061029492919061296f565b506020820151816001015560408201518160020155606082015181600301556080820151816004015560a0820151816005015560c0820151816006015560e08201518160070155610100820151816008015561012082015181600901559050505050505050505050505050565b60006040518060c0016040528088815260200187815260200186815260200185815260200184815260200183815250905050505050505050565b6103436129f5565b600073__FixidityLib___________________________633c4308a886866040518363ffffffff1660e01b815260040161037e929190613409565b602060405180830381865af415801561039b573d6000803e3d6000fd5b505050506040513d601f19601f820116820180604052508101906103bf9190613447565b905060006040518060c001604052808881526020018581526020016040518060400160405280600481526020017f53656c6c0000000000000000000000000000000000000000000000000000000081525081526020018781526020018681526020018381525090508092505050949350505050565b60006040518060a00160405280878152602001868152602001858152602001848152602001838152509050505050505050565b61046f6129f5565b600073__FixidityLib___________________________633c4308a886866040518363ffffffff1660e01b81526004016104aa929190613409565b602060405180830381865af41580156104c7573d6000803e3d6000fd5b505050506040513d601f19601f820116820180604052508101906104eb9190613447565b905060006040518060c001604052808881526020018581526020016040518060400160405280600381526020017f427579000000000000000000000000000000000000000000000000000000000081525081526020018781526020018681526020018381525090508092505050949350505050565b61056b600154611598565b61057457600080fd5b6000600d540361090557600073__FixidityLib___________________________63f5984236600a60008581526020019081526020016000206007015473__FixidityLib___________________________632179bb6c6040518163ffffffff1660e01b8152600401602060405180830381865af41580156105fa573d6000803e3d6000fd5b505050506040513d601f19601f8201168201806040525081019061061e9190613447565b60028054905061062e91906134a3565b6040518363ffffffff1660e01b815260040161064b929190613409565b602060405180830381865af4158015610668573d6000803e3d6000fd5b505050506040513d601f19601f8201168201806040525081019061068c9190613447565b905060005b6002805490508110156108fe57600060096000858152602001908152602001600020600283815481106106c7576106c66135ba565b5b906000526020600020016040516106de91906136dd565b908152602001604051809103902060405180606001604052908160008201805461070790613618565b80601f016020809104026020016040519081016040528092919081815260200182805461073390613618565b80156107805780601f1061075557610100808354040283529160200191610780565b820191906000526020600020905b81548152906001019060200180831161076357829003601f168201915b505050505081526020016001820154815260200160028201548152505090506000816000015190506000826040015190506000600373__FixidityLib___________________________63f59842368887604001516040518363ffffffff1660e01b81526004016107f2929190613409565b602060405180830381865af415801561080f573d6000803e3d6000fd5b505050506040513d601f19601f820116820180604052508101906108339190613447565b61083d91906134a3565b9050600061084d8483858b610467565b905080600b600060015481526020019081526020016000208560405161087391906133e3565b9081526020016040518091039020600082015181600001908051906020019061089d92919061296f565b506020820151816001015560408201518160020190805190602001906108c492919061296f565b50606082015181600301556080820151816004015560a08201518160050155905050505050505080806108f6906136f4565b915050610691565b5050610f47565b600073__FixidityLib___________________________633c4308a8600e54600a6000868152602001908152602001600020600c01546040518363ffffffff1660e01b8152600401610958929190613409565b602060405180830381865af4158015610975573d6000803e3d6000fd5b505050506040513d601f19601f820116820180604052508101906109999190613447565b905060005b600280549050811015610dd457600060096000858152602001908152602001600020600283815481106109d4576109d36135ba565b5b906000526020600020016040516109eb91906136dd565b9081526020016040518091039020600201549050600060028381548110610a1557610a146135ba565b5b906000526020600020018054610a2a90613618565b80601f0160208091040260200160405190810160405280929190818152602001828054610a5690613618565b8015610aa35780601f10610a7857610100808354040283529160200191610aa3565b820191906000526020600020905b815481529060010190602001808311610a8657829003601f168201915b50505050509050600460028481548110610ac057610abf6135ba565b5b90600052602060002001604051610ad791906136dd565b908152602001604051809103902060009054906101000a900460ff1615610bb457610b0281836115fc565b15610baf576000610b14828488611644565b905080600b6000600154815260200190815260200160002083604051610b3a91906133e3565b90815260200160405180910390206000820151816000019080519060200190610b6492919061296f565b50602082015181600101556040820151816002019080519060200190610b8b92919061296f565b50606082015181600301556080820151816004015560a08201518160050155905050505b610dbf565b610bbe81836117bf565b15610bd8576000610bd08284886117ea565b905050610dbe565b83600a6000878152602001908152602001600020600301541315610dbd57600073__FixidityLib___________________________63b93ea812600a600089815260200190815260200160002060030154876040518363ffffffff1660e01b8152600401610c47929190613409565b602060405180830381865af4158015610c64573d6000803e3d6000fd5b505050506040513d601f19601f82011682018060405250810190610c889190613447565b9050600073__FixidityLib___________________________63f598423683866040518363ffffffff1660e01b8152600401610cc5929190613409565b602060405180830381865af4158015610ce2573d6000803e3d6000fd5b505050506040513d601f19601f82011682018060405250810190610d069190613447565b90506000811315610dba576000610d1f8483878b610467565b905080600b6000600154815260200190815260200160002085604051610d4591906133e3565b90815260200160405180910390206000820151816000019080519060200190610d6f92919061296f565b50602082015181600101556040820151816002019080519060200190610d9692919061296f565b50606082015181600301556080820151816004015560a08201518160050155905050505b50505b5b5b50508080610dcc906136f4565b91505061099e565b5060005b600280549050811015610f445760006009600085815260200190815260200160002060028381548110610e0e57610e0d6135ba565b5b90600052602060002001604051610e2591906136dd565b9081526020016040518091039020600201549050600060028381548110610e4f57610e4e6135ba565b5b906000526020600020018054610e6490613618565b80601f0160208091040260200160405190810160405280929190818152602001828054610e9090613618565b8015610edd5780601f10610eb257610100808354040283529160200191610edd565b820191906000526020600020905b815481529060010190602001808311610ec057829003601f168201915b50505050509050600481604051610ef491906133e3565b908152602001604051809103902060009054906101000a900460ff1615610f2457610f1f8183611ba6565b610f2f565b610f2e8183611e52565b5b50508080610f3c906136f4565b915050610dd8565b50505b806000819055506001600d54610f5d919061373c565b600d8190555050565b60006040518060600160405280868152602001858152602001848152509050806009600084815260200190815260200160002086604051610fa791906133e3565b90815260200160405180910390206000820151816000019080519060200190610fd192919061296f565b5060208201518160010155604082015181600201559050506000600d54036110bb57600060048660405161100591906133e3565b908152602001604051809103902060006101000a81548160ff021916908315150217905550600060058660405161103c91906133e3565b908152602001604051809103902081905550600060068660405161106091906133e3565b908152602001604051809103902081905550600060078660405161108491906133e3565b90815260200160405180910390208190555060006008866040516110a891906133e3565b9081526020016040518091039020819055505b6003856040516110cb91906133e3565b908152602001604051809103902060009054906101000a900460ff166112265760028590806001815401808255809150506001900390600052602060002001600090919091909150908051906020019061112692919061296f565b50600160038660405161113991906133e3565b908152602001604051809103902060006101000a81548160ff021916908315150217905550600060048660405161117091906133e3565b908152602001604051809103902060006101000a81548160ff02191690831515021790555060006005866040516111a791906133e3565b90815260200160405180910390208190555060006006866040516111cb91906133e3565b90815260200160405180910390208190555060006007866040516111ef91906133e3565b908152602001604051809103902081905550600060088660405161121391906133e3565b9081526020016040518091039020819055505b5050505050565b606060006060600080600080600b60008981526020019081526020016000208960405161125a91906133e3565b90815260200160405180910390206040518060c001604052908160008201805461128390613618565b80601f01602080910402602001604051908101604052809291908181526020018280546112af90613618565b80156112fc5780601f106112d1576101008083540402835291602001916112fc565b820191906000526020600020905b8154815290600101906020018083116112df57829003601f168201915b505050505081526020016001820154815260200160028201805461131f90613618565b80601f016020809104026020016040519081016040528092919081815260200182805461134b90613618565b80156113985780601f1061136d57610100808354040283529160200191611398565b820191906000526020600020905b81548152906001019060200180831161137b57829003601f168201915b5050505050815260200160038201548152602001600482015481526020016005820154815250509050806000015181602001518260400151836060015184608001518560a00151965096509650965096509650509295509295509295565b60008360000151905060008460200151905060008460000151905060008560200151905060008660400151905060008760600151905060008860800151905060008860000151905060008960200151905060008a60400151905060008b60600151905060008c60800151905060008d60a0015190506000604051806101a001604052808f81526020018e81526020018d81526020018c81526020018b81526020018a815260200189815260200188815260200187815260200186815260200185815260200184815260200183815250905080600a60006001548152602001908152602001600020600082015181600001556020820151816001015560408201518160020155606082015181600301556080820151816004015560a0820151816005015560c0820151816006015560e082015181600701556101008201518160080155610120820151816009015561014082015181600a015561016082015181600b015561018082015181600c01559050505050505050505050505050505050505050565b60006040518060400160405280848152602001838152509050505050565b600080600090506000806000806000806115b189612249565b8096508197508298505050506115c8600054612249565b8093508194508295505050508160ff168560ff16146115ed5760019650886000819055505b86975050505050505050919050565b6000806065606460058660405161161391906133e3565b90815260200160405180910390205461162c91906137c1565b61163691906134a3565b905080831391505092915050565b61164c6129f5565b6116546129f5565b600060068660405161166691906133e3565b9081526020016040518091039020549050600073__FixidityLib___________________________633c4308a883886040518363ffffffff1660e01b81526004016116b2929190613409565b602060405180830381865af41580156116cf573d6000803e3d6000fd5b505050506040513d601f19601f820116820180604052508101906116f39190613447565b905080600a600087815260200190815260200160002060040154126117255761171e87838888610467565b9250611758565b85600a60008781526020019081526020016000206004015461174791906137c1565b915061175587838888610467565b92505b600060048860405161176a91906133e3565b908152602001604051809103902060006101000a81548160ff021916908315150217905550856007886040516117a091906133e3565b9081526020016040518091039020819055508293505050509392505050565b60006005836040516117d191906133e3565b9081526020016040518091039020548212905092915050565b6117f26129f5565b6000600c60008481526020019081526020016000208560405161181591906133e3565b90815260200160405180910390206040518061014001604052908160008201805461183f90613618565b80601f016020809104026020016040519081016040528092919081815260200182805461186b90613618565b80156118b85780601f1061188d576101008083540402835291602001916118b8565b820191906000526020600020905b81548152906001019060200180831161189b57829003601f168201915b50505050508152602001600182015481526020016002820154815260200160038201548152602001600482015481526020016005820154815260200160068201548152602001600782015481526020016008820154815260200160098201548152505090506000600960008581526020019081526020016000208660405161194091906133e3565b908152602001604051809103902060405180606001604052908160008201805461196990613618565b80601f016020809104026020016040519081016040528092919081815260200182805461199590613618565b80156119e25780601f106119b7576101008083540402835291602001916119e2565b820191906000526020600020905b8154815290600101906020018083116119c557829003601f168201915b505050505081526020016001820154815260200160028201548152505090506000826020015190506000600280549050600a600088815260200190815260200160002060060154611a3391906137c1565b9050600073__FixidityLib___________________________63f59842368386604001516040518363ffffffff1660e01b8152600401611a74929190613409565b602060405180830381865af4158015611a91573d6000803e3d6000fd5b505050506040513d601f19601f82011682018060405250810190611ab59190613447565b90506000600a600c83611ac891906134a3565b611ad291906137c1565b905060008185611ae2919061382b565b90506000611af28c838d8d61033b565b90508a60058d604051611b0591906133e3565b9081526020016040518091039020819055508160068d604051611b2891906133e3565b9081526020016040518091039020819055508a60088d604051611b4b91906133e3565b908152602001604051809103902081905550600160048d604051611b6f91906133e3565b908152602001604051809103902060006101000a81548160ff02191690831515021790555080985050505050505050509392505050565b6000606473__FixidityLib___________________________632179bb6c6040518163ffffffff1660e01b8152600401602060405180830381865af4158015611bf3573d6000803e3d6000fd5b505050506040513d601f19601f82011682018060405250810190611c179190613447565b6046611c2391906134a3565b611c2d91906137c1565b905073__FixidityLib___________________________633c4308a8600585604051611c5991906133e3565b908152602001604051809103902054836040518363ffffffff1660e01b8152600401611c86929190613409565b602060405180830381865af4158015611ca3573d6000803e3d6000fd5b505050506040513d601f19601f82011682018060405250810190611cc79190613447565b821215611e4d57600073__FixidityLib___________________________63b93ea812600886604051611cfa91906133e3565b908152602001604051809103902054856040518363ffffffff1660e01b8152600401611d27929190613409565b602060405180830381865af4158015611d44573d6000803e3d6000fd5b505050506040513d601f19601f82011682018060405250810190611d689190613447565b905060006064603273__FixidityLib___________________________63a5f3c23b87866040518363ffffffff1660e01b8152600401611da9929190613409565b602060405180830381865af4158015611dc6573d6000803e3d6000fd5b505050506040513d601f19601f82011682018060405250810190611dea9190613447565b611df491906134a3565b611dfe91906137c1565b9050600585604051611e1091906133e3565b908152602001604051809103902054811215611e4a5780600586604051611e3791906133e3565b9081526020016040518091039020819055505b50505b505050565b6000600783604051611e6491906133e3565b9081526020016040518091039020540361204d5780600783604051611e8991906133e3565b908152602001604051809103902081905550600073__FixidityLib___________________________63b93ea81273__FixidityLib___________________________632179bb6c6040518163ffffffff1660e01b8152600401602060405180830381865af4158015611f00573d6000803e3d6000fd5b505050506040513d601f19601f82011682018060405250810190611f249190613447565b600f546040518363ffffffff1660e01b8152600401611f44929190613409565b602060405180830381865af4158015611f61573d6000803e3d6000fd5b505050506040513d601f19601f82011682018060405250810190611f859190613447565b9050600073__FixidityLib___________________________633c4308a8600786604051611fb391906133e3565b908152602001604051809103902054846040518363ffffffff1660e01b8152600401611fe0929190613409565b602060405180830381865af4158015611ffd573d6000803e3d6000fd5b505050506040513d601f19601f820116820180604052508101906120219190613447565b90508060058560405161203491906133e3565b9081526020016040518091039020819055505050612245565b60078260405161205d91906133e3565b908152602001604051809103902054811315612244578060078360405161208491906133e3565b908152602001604051809103902081905550600073__FixidityLib___________________________63b93ea81273__FixidityLib___________________________632179bb6c6040518163ffffffff1660e01b8152600401602060405180830381865af41580156120fb573d6000803e3d6000fd5b505050506040513d601f19601f8201168201806040525081019061211f9190613447565b600f546040518363ffffffff1660e01b815260040161213f929190613409565b602060405180830381865af415801561215c573d6000803e3d6000fd5b505050506040513d601f19601f820116820180604052508101906121809190613447565b9050600073__FixidityLib___________________________633c4308a86007866040516121ae91906133e3565b908152602001604051809103902054846040518363ffffffff1660e01b81526004016121db929190613409565b602060405180830381865af41580156121f8573d6000803e3d6000fd5b505050506040513d601f19601f8201168201806040525081019061221c9190613447565b90508060058560405161222f91906133e3565b90815260200160405180910390208190555050505b5b5050565b60008060008084905061225b8161228e565b809550819250505061226d81856124fd565b809450819250505061227e81612883565b8093508192505050509193909250565b6000806000808493506107b292506301e1338060026122ad91906138bf565b8410156122f6576301e13380846122c49190613919565b91506301e13380826122d691906138bf565b846122e1919061394a565b935081836122ef919061398c565b92506124f6565b6301e13380600261230791906138bf565b84612312919061394a565b93506107b492506334aadc808410612425576334aadc8084612334919061394a565b9350601c83612343919061398c565b92506402f0605980846123569190613919565b91506402f06059808261236991906138bf565b84612374919061394a565b93506101908261238491906138bf565b8361238f919061398c565b925061239a836128cd565b90508063ffffffff1684106123cd578063ffffffff16846123bb919061394a565b93506001836123ca919061398c565b92505b6123d683612904565b6124245763bc17c200846123ea9190613919565b915063bc17c200826123fc91906138bf565b84612407919061394a565b935060648261241691906138bf565b83612421919061398c565b92505b5b6307861f80846124359190613919565b91506307861f808261244791906138bf565b84612452919061394a565b935060048261246191906138bf565b8361246c919061398c565b9250612477836128cd565b90508063ffffffff1684106124aa578063ffffffff1684612498919061394a565b93506001836124a7919061398c565b92505b6124b383612904565b6124f5576301e13380846124c79190613919565b91506301e13380826124d991906138bf565b846124e4919061394a565b935081836124f2919061398c565b92505b5b5050915091565b600080612508612a2b565b612510612a4e565b85935061251c85612904565b1561268757604051806101a00160405280600060ff168152602001601f60ff168152602001601d60ff168152602001601f60ff168152602001601e60ff168152602001601f60ff168152602001601e60ff168152602001601f60ff168152602001601f60ff168152602001601e60ff168152602001601f60ff168152602001601e60ff168152602001601f60ff168152509150604051806101a00160405280600063ffffffff1681526020016228de8063ffffffff168152602001624f1a0063ffffffff1681526020016277f88063ffffffff168152602001629f858063ffffffff16815260200162c8640063ffffffff16815260200162eff10063ffffffff168152602001630118cf8063ffffffff168152602001630141ae0063ffffffff1681526020016301693b0063ffffffff168152602001630192198063ffffffff1681526020016301b9a68063ffffffff1681526020016301e2850063ffffffff1681525090506127e9565b604051806101a00160405280600060ff168152602001601f60ff168152602001601c60ff168152602001601f60ff168152602001601e60ff168152602001601f60ff168152602001601e60ff168152602001601f60ff168152602001601f60ff168152602001601e60ff168152602001601f60ff168152602001601e60ff168152602001601f60ff168152509150604051806101a00160405280600063ffffffff1681526020016228de8063ffffffff168152602001624dc88063ffffffff1681526020016276a70063ffffffff168152602001629e340063ffffffff16815260200162c7128063ffffffff16815260200162ee9f8063ffffffff1681526020016301177e0063ffffffff1681526020016301405c8063ffffffff168152602001630167e98063ffffffff168152602001630190c80063ffffffff1681526020016301b8550063ffffffff1681526020016301e1338063ffffffff1681525090505b6000600190505b600d8160ff16101561287957818160ff16600d8110612812576128116135ba565b5b602002015163ffffffff16851015612866578093508160018261283591906139d1565b60ff16600d8110612849576128486135ba565b5b602002015163ffffffff168561285f919061394a565b9450612879565b808061287190613a05565b9150506127f0565b5050509250929050565b6000806000839250620151808361289a9190613919565b905062015180816128ab91906138bf565b836128b6919061394a565b92506001816128c5919061373c565b915050915091565b60006128d882612904565b156128f757620151806301e133806128f0919061373c565b90506128ff565b6301e1338090505b919050565b6000806004836129149190613a2e565b61ffff1614612926576000905061296a565b6000610190836129369190613a2e565b61ffff161480612957575060006064836129509190613a2e565b61ffff1614155b15612965576001905061296a565b600090505b919050565b82805461297b90613618565b90600052602060002090601f01602090048101928261299d57600085556129e4565b82601f106129b657805160ff19168380011785556129e4565b828001600101855582156129e4579182015b828111156129e35782518255916020019190600101906129c8565b5b5090506129f19190612a71565b5090565b6040518060c001604052806060815260200160008152602001606081526020016000815260200160008152602001600081525090565b604051806101a00160405280600d90602082028036833780820191505090505090565b604051806101a00160405280600d90602082028036833780820191505090505090565b5b80821115612a8a576000816000905550600101612a72565b5090565b6000604051905090565b600080fd5b600080fd5b600080fd5b600080fd5b6000601f19601f8301169050919050565b7f4e487b7100000000000000000000000000000000000000000000000000000000600052604160045260246000fd5b612af582612aac565b810181811067ffffffffffffffff82111715612b1457612b13612abd565b5b80604052505050565b6000612b27612a8e565b9050612b338282612aec565b919050565b600067ffffffffffffffff821115612b5357612b52612abd565b5b612b5c82612aac565b9050602081019050919050565b82818337600083830152505050565b6000612b8b612b8684612b38565b612b1d565b905082815260208101848484011115612ba757612ba6612aa7565b5b612bb2848285612b69565b509392505050565b600082601f830112612bcf57612bce612aa2565b5b8135612bdf848260208601612b78565b91505092915050565b6000819050919050565b612bfb81612be8565b8114612c0657600080fd5b50565b600081359050612c1881612bf2565b92915050565b6000806000806000806000806000806101408b8d031215612c4257612c41612a98565b5b60008b013567ffffffffffffffff811115612c6057612c5f612a9d565b5b612c6c8d828e01612bba565b9a50506020612c7d8d828e01612c09565b9950506040612c8e8d828e01612c09565b9850506060612c9f8d828e01612c09565b9750506080612cb08d828e01612c09565b96505060a0612cc18d828e01612c09565b95505060c0612cd28d828e01612c09565b94505060e0612ce38d828e01612c09565b935050610100612cf58d828e01612c09565b925050610120612d078d828e01612c09565b9150509295989b9194979a5092959850565b60008060008060008060c08789031215612d3657612d35612a98565b5b6000612d4489828a01612c09565b9650506020612d5589828a01612c09565b9550506040612d6689828a01612c09565b9450506060612d7789828a01612c09565b9350506080612d8889828a01612c09565b92505060a0612d9989828a01612c09565b9150509295509295509295565b6000819050919050565b612db981612da6565b8114612dc457600080fd5b50565b600081359050612dd681612db0565b92915050565b60008060008060808587031215612df657612df5612a98565b5b600085013567ffffffffffffffff811115612e1457612e13612a9d565b5b612e2087828801612bba565b9450506020612e3187828801612c09565b9350506040612e4287828801612c09565b9250506060612e5387828801612dc7565b91505092959194509250565b600081519050919050565b600082825260208201905092915050565b60005b83811015612e99578082015181840152602081019050612e7e565b83811115612ea8576000848401525b50505050565b6000612eb982612e5f565b612ec38185612e6a565b9350612ed3818560208601612e7b565b612edc81612aac565b840191505092915050565b612ef081612da6565b82525050565b612eff81612be8565b82525050565b600060c0830160008301518482036000860152612f228282612eae565b9150506020830151612f376020860182612ee7565b5060408301518482036040860152612f4f8282612eae565b9150506060830151612f646060860182612ef6565b506080830151612f776080860182612ef6565b5060a0830151612f8a60a0860182612ef6565b508091505092915050565b60006020820190508181036000830152612faf8184612f05565b905092915050565b600080600080600060a08688031215612fd357612fd2612a98565b5b6000612fe188828901612c09565b9550506020612ff288828901612c09565b945050604061300388828901612c09565b935050606061301488828901612c09565b925050608061302588828901612c09565b9150509295509295909350565b60006020828403121561304857613047612a98565b5b600061305684828501612dc7565b91505092915050565b6000806040838503121561307657613075612a98565b5b600083013567ffffffffffffffff81111561309457613093612a9d565b5b6130a085828601612bba565b92505060206130b185828601612dc7565b9150509250929050565b600082825260208201905092915050565b60006130d782612e5f565b6130e181856130bb565b93506130f1818560208601612e7b565b6130fa81612aac565b840191505092915050565b61310e81612da6565b82525050565b61311d81612be8565b82525050565b600060c082019050818103600083015261313d81896130cc565b905061314c6020830188613105565b818103604083015261315e81876130cc565b905061316d6060830186613114565b61317a6080830185613114565b61318760a0830184613114565b979650505050505050565b600080fd5b6000604082840312156131ad576131ac613192565b5b6131b76040612b1d565b905060006131c784828501612c09565b60008301525060206131db84828501612c09565b60208301525092915050565b600060a082840312156131fd576131fc613192565b5b61320760a0612b1d565b9050600061321784828501612c09565b600083015250602061322b84828501612c09565b602083015250604061323f84828501612c09565b604083015250606061325384828501612c09565b606083015250608061326784828501612c09565b60808301525092915050565b600060c0828403121561328957613288613192565b5b61329360c0612b1d565b905060006132a384828501612c09565b60008301525060206132b784828501612c09565b60208301525060406132cb84828501612c09565b60408301525060606132df84828501612c09565b60608301525060806132f384828501612c09565b60808301525060a061330784828501612c09565b60a08301525092915050565b60008060006101a0848603121561332d5761332c612a98565b5b600061333b86828701613197565b935050604061334c868287016131e7565b92505060e061335d86828701613273565b9150509250925092565b6000806040838503121561337e5761337d612a98565b5b600061338c85828601612c09565b925050602061339d85828601612c09565b9150509250929050565b600081905092915050565b60006133bd82612e5f565b6133c781856133a7565b93506133d7818560208601612e7b565b80840191505092915050565b60006133ef82846133b2565b915081905092915050565b61340381612be8565b82525050565b600060408201905061341e60008301856133fa565b61342b60208301846133fa565b9392505050565b60008151905061344181612bf2565b92915050565b60006020828403121561345d5761345c612a98565b5b600061346b84828501613432565b91505092915050565b7f4e487b7100000000000000000000000000000000000000000000000000000000600052601160045260246000fd5b60006134ae82612be8565b91506134b983612be8565b9250827f7fffffffffffffffffffffffffffffffffffffffffffffffffffffffffffffff04821160008413600084131616156134f8576134f7613474565b5b817f8000000000000000000000000000000000000000000000000000000000000000058312600084126000841316161561353557613534613474565b5b827f8000000000000000000000000000000000000000000000000000000000000000058212600084136000841216161561357257613571613474565b5b827f7fffffffffffffffffffffffffffffffffffffffffffffffffffffffffffffff05821260008412600084121616156135af576135ae613474565b5b828202905092915050565b7f4e487b7100000000000000000000000000000000000000000000000000000000600052603260045260246000fd5b7f4e487b7100000000000000000000000000000000000000000000000000000000600052602260045260246000fd5b6000600282049050600182168061363057607f821691505b602082108103613643576136426135e9565b5b50919050565b60008190508160005260206000209050919050565b6000815461366b81613618565b61367581866133a7565b9450600182166000811461369057600181146136a1576136d4565b60ff198316865281860193506136d4565b6136aa85613649565b60005b838110156136cc578154818901526001820191506020810190506136ad565b838801955050505b50505092915050565b60006136e9828461365e565b915081905092915050565b60006136ff82612da6565b91507fffffffffffffffffffffffffffffffffffffffffffffffffffffffffffffffff820361373157613730613474565b5b600182019050919050565b600061374782612da6565b915061375283612da6565b9250827fffffffffffffffffffffffffffffffffffffffffffffffffffffffffffffffff0382111561378757613786613474565b5b828201905092915050565b7f4e487b7100000000000000000000000000000000000000000000000000000000600052601260045260246000fd5b60006137cc82612be8565b91506137d783612be8565b9250826137e7576137e6613792565b5b600160000383147f8000000000000000000000000000000000000000000000000000000000000000831416156138205761381f613474565b5b828205905092915050565b600061383682612be8565b915061384183612be8565b9250827f80000000000000000000000000000000000000000000000000000000000000000182126000841215161561387c5761387b613474565b5b827f7fffffffffffffffffffffffffffffffffffffffffffffffffffffffffffffff0182136000841216156138b4576138b3613474565b5b828203905092915050565b60006138ca82612da6565b91506138d583612da6565b9250817fffffffffffffffffffffffffffffffffffffffffffffffffffffffffffffffff048311821515161561390e5761390d613474565b5b828202905092915050565b600061392482612da6565b915061392f83612da6565b92508261393f5761393e613792565b5b828204905092915050565b600061395582612da6565b915061396083612da6565b92508282101561397357613972613474565b5b828203905092915050565b600061ffff82169050919050565b60006139978261397e565b91506139a28361397e565b92508261ffff038211156139b9576139b8613474565b5b828201905092915050565b600060ff82169050919050565b60006139dc826139c4565b91506139e7836139c4565b9250828210156139fa576139f9613474565b5b828203905092915050565b6000613a10826139c4565b915060ff8203613a2357613a22613474565b5b600182019050919050565b6000613a398261397e565b9150613a448361397e565b925082613a5457613a53613792565b5b82820690509291505056fea26469706673582212204c6a6221d6a1bc0ff658dc8df692ebfafad4974026fef05a895872ec4497744464736f6c634300080d0033",
  "immutableReferences": {},
  "source": "pragma solidity ^0.8.13;\r\nimport \"./utils/DateUtils.sol\";\r\nimport \"./utils/FixidityLib.sol\";\r\nimport \"./agents/TradeAgent.sol\";\r\nimport \"./Object.sol\";\r\n\r\ncontract RebalanceMarginWifMaxDrawdownControl is Object, TradeAgent{\r\n    using DateUtils for *;\r\n    using StringUtils for string;\r\n    event LogActionMsg(string actionMsgs);\r\n\r\n    uint256 lastExecutedTimestamp;\r\n    uint256 timestamp;\r\n\r\n    string[] tickerNames;\r\n    mapping (string => bool) tickerExists;\r\n\r\n    mapping (string => bool) maxDrawdownDodge;\r\n    mapping (string => int256) benchmarkDrawdownPrice;\r\n    mapping (string => int256) liquidateTickerQty;\r\n    mapping (string => int256) maxStockPrice;\r\n    mapping (string => int256) liquidateTickerPrice;\r\n    mapping (uint256 => mapping(string => RealTimeTickerData)) realTimeTickersData;\r\n\r\n    mapping (uint256 => PortfolioData)  portfolioData;\r\n    mapping (uint256 => mapping(string => ActionMsg)) actionMsgs;\r\n    mapping (uint256 => mapping(string => PortfolioHolding)) portfolioHoldingsData;\r\n    uint256 loop = 0;\r\n    int256 rebalanceMargin = int256(5) * FixidityLib.fixed1() / int256(100);\r\n    int256 maxDrawdown = int256(5) * FixidityLib.fixed1() / int256(1000);\r\n\r\n    constructor(){\r\n        tickerNames = [\"QQQ\", \"SPY\"];\r\n        tickerExists[\"QQQ\"] = true;\r\n        tickerExists[\"SPY\"] = true;\r\n    }\r\n\r\n    function inputRealTimeTickerData(string memory tickerName, int256 bidPrice, int256 last, uint256 timestamp) public {\r\n        RealTimeTickerData memory tickerData = RealTimeTickerData(tickerName, bidPrice, last);\r\n        realTimeTickersData[timestamp][tickerName] = tickerData;\r\n\r\n        if(loop == 0){\r\n            maxDrawdownDodge[tickerName] = false;\r\n            benchmarkDrawdownPrice[tickerName] = 0;\r\n            liquidateTickerQty[tickerName] = 0;\r\n            maxStockPrice[tickerName] = 0;\r\n            liquidateTickerPrice[tickerName] = 0;\r\n        }\r\n\r\n        if (!tickerExists[tickerName]){\r\n            tickerNames.push(tickerName);\r\n            tickerExists[tickerName] = true;\r\n            maxDrawdownDodge[tickerName] = false;\r\n            benchmarkDrawdownPrice[tickerName] = 0;\r\n            liquidateTickerQty[tickerName] = 0;\r\n            maxStockPrice[tickerName] = 0;\r\n            liquidateTickerPrice[tickerName] = 0;\r\n        }\r\n\r\n\r\n    }\r\n\r\n    function updatePortfolioData(MarginAccount memory marginAcc, TradingFunds memory tradingFunds, MktValue memory mktValue) public {\r\n        int256 FullInitMarginReq = marginAcc.FullInitMarginReq;\r\n        int256 FullMainMarginReq = marginAcc.FullMainMarginReq;\r\n        int256 AvailableFunds = tradingFunds.AvailableFunds;\r\n        int256 ExcessLiquidity = tradingFunds.ExcessLiquidity;\r\n        int256 BuyingPower = tradingFunds.BuyingPower;\r\n        int256 Leverage = tradingFunds.Leverage;\r\n        int256 EquityWithLoanValue = tradingFunds.EquityWithLoanValue;\r\n        int256 TotalCashValue = mktValue.TotalCashValue;\r\n        int256 NetDividend = mktValue.NetDividend;\r\n        int256 NetLiquidation = mktValue.NetLiquidation;\r\n        int256 UnrealizedPnL = mktValue.UnrealizedPnL;\r\n        int256 RealizedPnL = mktValue.RealizedPnL;\r\n        int256 GrossPositionValue = mktValue.GrossPositionValue;\r\n\r\n        PortfolioData memory data = PortfolioData(FullInitMarginReq, FullMainMarginReq, AvailableFunds, ExcessLiquidity, BuyingPower, Leverage, EquityWithLoanValue, TotalCashValue, NetDividend, NetLiquidation, UnrealizedPnL, RealizedPnL, GrossPositionValue);\r\n        portfolioData[timestamp] = data;\r\n    }\r\n\r\n    function inputMarginAccount(int256 FullInitMarginReq, int256 FullMainMarginReq) public {\r\n        MarginAccount memory data = MarginAccount(FullInitMarginReq, FullMainMarginReq);\r\n    }\r\n\r\n    function inputTradingFunds(int256 AvailableFunds, int256 ExcessLiquidity, int256 BuyingPower, int256 Leverage, int256 EquityWithLoanValue) public {\r\n        TradingFunds memory data = TradingFunds(AvailableFunds, ExcessLiquidity, BuyingPower, Leverage, EquityWithLoanValue);\r\n    }\r\n\r\n    function inputMktValue(int256 TotalCashValue, int256 NetDividend, int256 NetLiquidation, int256 UnrealizedPnL, int256 RealizedPnL, int256 GrossPositionValue) public {\r\n        MktValue memory data = MktValue(TotalCashValue, NetDividend, NetLiquidation, UnrealizedPnL, RealizedPnL, GrossPositionValue);\r\n    }\r\n\r\n    function updatePortfolioHoldingsData(string memory tickerName, int256 position, int256 marketPrice, int256 averageCost, int256 marketValue, int256 realizedPNL, int256 unrealizedPNL, int256 initMarginReq, int256 maintMarginReq, int256 costBasis) public {\r\n        PortfolioHolding memory portfolioHolding = PortfolioHolding(tickerName, position, marketPrice, averageCost, marketValue, realizedPNL, unrealizedPNL, initMarginReq, maintMarginReq, costBasis);\r\n        portfolioHoldingsData[timestamp][tickerName] = portfolioHolding;\r\n    }\r\n\r\n    function getTickerActionMsg(string memory tickerName, uint256 timestamp) public returns (string memory, uint256, string memory, int256, int256, int256){\r\n        ActionMsg memory actionMsg = actionMsgs[timestamp][tickerName];\r\n        return (actionMsg.tickerName, actionMsg.timestamp, actionMsg.transactionType, actionMsg.positionAction, actionMsg.transactionTickerPrice, actionMsg.transactionAmount);\r\n    }\r\n\r\n    function run(uint256 _timeStamp) public{\r\n        require(checkExecution(timestamp));\r\n        if(loop == 0){\r\n            int256 capitalForEachStock = FixidityLib.divide(portfolioData[_timeStamp].TotalCashValue, int256(tickerNames.length) * FixidityLib.fixed1());\r\n            for (uint i=0; i < tickerNames.length; i++){\r\n                RealTimeTickerData memory tickerData = realTimeTickersData[_timeStamp][tickerNames[i]];\r\n                string memory tickerName = tickerData.tickerName;\r\n                int256 tickerPrice = tickerData.last;\r\n                int256 sharePurchase = FixidityLib.divide(capitalForEachStock,tickerData.last) * 3;\r\n                ActionMsg memory actionMsg = TradeAgent.placeBuyStockLimitOrderMsg(tickerName,sharePurchase,tickerPrice,_timeStamp);\r\n                actionMsgs[timestamp][tickerName] = actionMsg;\r\n            }\r\n        }\r\n        else{\r\n            int256 targetExLiq = FixidityLib.multiply(rebalanceMargin, portfolioData[_timeStamp].GrossPositionValue);\r\n            for (uint i=0; i < tickerNames.length; i++){\r\n                int256 tickerPrice = realTimeTickersData[_timeStamp][tickerNames[i]].last;\r\n                string memory tickerName = tickerNames[i];\r\n                if (maxDrawdownDodge[tickerNames[i]]){\r\n                    if (checkBuyBack(tickerName, tickerPrice)){\r\n                        ActionMsg memory actionMsg = buyBackPosition(tickerName, tickerPrice,_timeStamp);\r\n                        actionMsgs[timestamp][tickerName] = actionMsg;\r\n                    }\r\n                }else{\r\n                    if(checkMaxDrawdownDodge(tickerName,tickerPrice)){\r\n                        ActionMsg memory actionMsg = liquidateTickerPosition(tickerName, tickerPrice ,_timeStamp);\r\n                    }\r\n                    else{\r\n                        if (portfolioData[_timeStamp].ExcessLiquidity > targetExLiq) {\r\n                            int256 exLiqDiff = FixidityLib.subtract(portfolioData[_timeStamp].ExcessLiquidity, targetExLiq);\r\n                            int256 targetSharePurchase = FixidityLib.divide(exLiqDiff,tickerPrice);\r\n\r\n                            if (targetSharePurchase > 0){\r\n                                ActionMsg memory actionMsg = super.placeBuyStockLimitOrderMsg(tickerName,targetSharePurchase,tickerPrice,_timeStamp);\r\n                                actionMsgs[timestamp][tickerName] = actionMsg;\r\n                            }\r\n                        }\r\n                    }\r\n                }\r\n            }\r\n\r\n            for (uint i=0; i < tickerNames.length; i++){\r\n                int256 tickerPrice = realTimeTickersData[_timeStamp][tickerNames[i]].last;\r\n                string memory tickerName = tickerNames[i];\r\n                if (maxDrawdownDodge[tickerName]){\r\n                    updateBenchmarkDrawdownPriceAfterDodge(tickerName, tickerPrice);\r\n                }\r\n                else{\r\n                    updateBenchmarkDrawdownPriceBeforeDodge(tickerName, tickerPrice);\r\n                }\r\n            }\r\n        }\r\n        lastExecutedTimestamp = _timeStamp;\r\n        loop = loop + 1;\r\n\r\n    }\r\n\r\n    function checkExecution(uint256 _timestamp) internal returns (bool){\r\n\r\n        bool exec = false;\r\n        uint16 _year;\r\n        uint8 _month;\r\n        uint8 _day;\r\n\r\n        uint16 _lastYear;\r\n        uint8 _lastMonth;\r\n        uint8 _lastday;\r\n\r\n        (_year, _month, _day) = DateUtils.convertTimestampToYMD(_timestamp);\r\n        (_lastYear, _lastMonth, _lastday) = DateUtils.convertTimestampToYMD(lastExecutedTimestamp);\r\n        if (_month != _lastMonth){\r\n            exec = true;\r\n            lastExecutedTimestamp = _timestamp;\r\n            }\r\n        return exec;\r\n    }\r\n\r\n\r\n    function checkBuyBack(string memory tickerName, int256 realTimeTickerPrice)internal returns (bool){\r\n//        range_price = self.benchmark_drawdown_price.get(ticker) * (1 + 0.01)\r\n//        return ticker_price > range_price\r\n        int256 rangePrice = benchmarkDrawdownPrice[tickerName] /100*101;\r\n        return realTimeTickerPrice > rangePrice;\r\n    }\r\n\r\n    function buyBackPosition(string memory tickerName, int256 tickerPrice, uint256 _timeStamp) internal returns (ActionMsg memory) {\r\n        ActionMsg memory actionMsg;\r\n        int256 targetSharePurchase = liquidateTickerQty[tickerName];\r\n        int256 purchaseAmount =  FixidityLib.multiply(targetSharePurchase, tickerPrice);\r\n        if (portfolioData[_timeStamp].BuyingPower >= purchaseAmount){\r\n            actionMsg = super.placeBuyStockLimitOrderMsg(tickerName,targetSharePurchase,tickerPrice,_timeStamp);\r\n        }else{\r\n            targetSharePurchase = portfolioData[_timeStamp].BuyingPower / tickerPrice;\r\n            actionMsg = super.placeBuyStockLimitOrderMsg(tickerName,targetSharePurchase,tickerPrice,_timeStamp);\r\n        }\r\n\r\n        maxDrawdownDodge[tickerName] = false;\r\n        maxStockPrice[tickerName] = tickerPrice;\r\n\r\n        return actionMsg;\r\n    }\r\n\r\n\r\n    function checkMaxDrawdownDodge(string memory tickerName, int256 tickerPrice) private returns (bool){\r\n        return tickerPrice < benchmarkDrawdownPrice[tickerName];\r\n    }\r\n\r\n    function updateBenchmarkDrawdownPriceAfterDodge(string memory tickerName, int256 tickerPrice) private{\r\n//        if real_time_ticker_price < self.benchmark_drawdown_price[ticker] * 0.7:\r\n//            target_update_benchmark_drawdown_price = real_time_ticker_price + (\r\n//                    (self.liq_sold_price_dict[ticker] - real_time_ticker_price) * 0.5)\r\n//            if target_update_benchmark_drawdown_price < self.benchmark_drawdown_price[ticker]:\r\n//                self.benchmark_drawdown_price[ticker] = target_update_benchmark_drawdown_price\r\n\r\n        int256 benchmarkDrawdownFactor = int256(70) * FixidityLib.fixed1() / int256(100);\r\n        if (tickerPrice < FixidityLib.multiply(benchmarkDrawdownPrice[tickerName] , benchmarkDrawdownFactor)){\r\n\r\n            int256 tickerDiff = FixidityLib.subtract(liquidateTickerPrice[tickerName],tickerPrice);\r\n            int256 targetUpdateBenchmarkDrawdownPrice = FixidityLib.add(tickerPrice, tickerDiff) * 50 / 100;\r\n            if (targetUpdateBenchmarkDrawdownPrice < benchmarkDrawdownPrice[tickerName]){\r\n                benchmarkDrawdownPrice[tickerName] = targetUpdateBenchmarkDrawdownPrice;\r\n            }\r\n        }\r\n    }\r\n\r\n    function updateBenchmarkDrawdownPriceBeforeDodge(string memory tickerName, int256 realTimeTickerPrice) private{\r\n//        if (self.max_stock_price.get(ticker) == 0):  # if there is no data for the max and benchmark price\r\n//            self.max_stock_price.update({ticker: real_time_ticker_price})\r\n//            benchmark_price = real_time_ticker_price * (1 - self.max_drawdown_ratio)\r\n//            self.benchmark_drawdown_price.update({ticker: benchmark_price})\r\n//        elif real_time_ticker_price > self.max_stock_price.get(ticker):\r\n//            self.max_stock_price.update({ticker: real_time_ticker_price})\r\n//            benchmark_price = real_time_ticker_price * (1 - self.max_drawdown_ratio)\r\n//            self.benchmark_drawdown_price.update({ticker: benchmark_price})\r\n\r\n        if (maxStockPrice[tickerName] == 0){\r\n            maxStockPrice[tickerName] = realTimeTickerPrice;\r\n            int256 drawDownFactor = FixidityLib.subtract(FixidityLib.fixed1(), maxDrawdown);\r\n            int256 tickerBenchmarkPrice = FixidityLib.multiply(maxStockPrice[tickerName], drawDownFactor);\r\n            benchmarkDrawdownPrice[tickerName] = tickerBenchmarkPrice;\r\n        }\r\n        else if (realTimeTickerPrice > maxStockPrice[tickerName]){\r\n            maxStockPrice[tickerName] = realTimeTickerPrice;\r\n            int256 drawDownFactor = FixidityLib.subtract(FixidityLib.fixed1(), maxDrawdown);\r\n            int256 tickerBenchmarkPrice = FixidityLib.multiply(maxStockPrice[tickerName], drawDownFactor);\r\n            benchmarkDrawdownPrice[tickerName] = tickerBenchmarkPrice;\r\n        }\r\n\r\n    }\r\n\r\n    function liquidateTickerPosition(string memory tickerName, int256 tickerPrice, uint256 _timeStamp) private returns (ActionMsg memory){\r\n        PortfolioHolding memory holding = portfolioHoldingsData[_timeStamp][tickerName];\r\n        RealTimeTickerData memory tickerData = realTimeTickersData[_timeStamp][tickerName];\r\n        int256 currentPosition = holding.position;\r\n        int256 noLeverageEquity = portfolioData[_timeStamp].EquityWithLoanValue / int256(tickerNames.length);\r\n        int256 noLeveragePosition = FixidityLib.divide(noLeverageEquity,tickerData.last);\r\n        int256 targetLeveragePositionAtLiquidState = noLeveragePosition * 12 / 10;\r\n\r\n        int256 targetSoldPosition = currentPosition - targetLeveragePositionAtLiquidState;\r\n        ActionMsg memory actionMsg = super.placeSellStockLimitOrderMsg(tickerName,targetSoldPosition,tickerPrice, _timeStamp);\r\n\r\n        benchmarkDrawdownPrice[tickerName] = tickerPrice;\r\n        liquidateTickerQty[tickerName] = targetSoldPosition;\r\n        liquidateTickerPrice[tickerName] = tickerPrice;\r\n        maxDrawdownDodge[tickerName] = true;\r\n\r\n        return actionMsg;\r\n    }\r\n\r\n    function getPortfolioHoldingByTickerName(string memory tickerName, PortfolioHolding[] memory holdings) private returns (PortfolioHolding memory){\r\n        PortfolioHolding memory holding;\r\n        for(uint i=0; i< holdings.length; i++){\r\n            if(holdings[i].tickerName.compareStrings(tickerName)){\r\n                holding = holdings[i];\r\n            }\r\n        }\r\n        return holding;\r\n    }\r\n\r\n}\r\n",
  "sourcePath": "C:\\Users\\lam\\Documents\\GitHub\\IndexTradingApplication\\contract\\contracts\\RebalanceMarginWifMaxDrawdownControl.sol",
  "compiler": {
    "name": "solc",
    "version": "0.8.13+commit.abaa5c0e.Emscripten.clang"
  },
  "schemaVersion": "3.4.7",
  "updatedAt": "2022-07-07T13:34:43.368Z",
  "networkType": "ethereum",
  "devdoc": {
    "kind": "dev",
    "methods": {},
    "version": 1
  },
  "userdoc": {
    "kind": "user",
    "methods": {},
    "version": 1
  }
}