{
  "contractName": "RebalanceMarginWifMaxDrawdownControl",
  "abi": [
    {
      "inputs": [
        {
          "components": [
            {
              "internalType": "string",
              "name": "tickerName",
              "type": "string"
            },
            {
              "internalType": "int256",
              "name": "bidPrice",
              "type": "int256"
            },
            {
              "internalType": "int256",
              "name": "last",
              "type": "int256"
            }
          ],
          "internalType": "struct Object.RealTimeTickerData[]",
          "name": "_realTimeTickersData",
          "type": "tuple[]"
        }
      ],
      "stateMutability": "nonpayable",
      "type": "constructor"
    },
    {
      "anonymous": false,
      "inputs": [
        {
          "indexed": false,
          "internalType": "string",
          "name": "actionMsgs",
          "type": "string"
        }
      ],
      "name": "LogActionMsg",
      "type": "event"
    },
    {
      "inputs": [
        {
          "internalType": "uint256",
          "name": "",
          "type": "uint256"
        }
      ],
      "name": "actionMsgs",
      "outputs": [
        {
          "internalType": "string",
          "name": "tickerName",
          "type": "string"
        },
        {
          "internalType": "uint256",
          "name": "timestamp",
          "type": "uint256"
        },
        {
          "internalType": "string",
          "name": "transactionType",
          "type": "string"
        },
        {
          "internalType": "int256",
          "name": "positionAction",
          "type": "int256"
        },
        {
          "internalType": "int256",
          "name": "transactionTickerPrice",
          "type": "int256"
        },
        {
          "internalType": "int256",
          "name": "transactionAmount",
          "type": "int256"
        }
      ],
      "stateMutability": "view",
      "type": "function"
    },
    {
      "inputs": [
        {
          "internalType": "string",
          "name": "_tickerName",
          "type": "string"
        },
        {
          "internalType": "int256",
          "name": "_targetSharePurchase",
          "type": "int256"
        },
        {
          "internalType": "int256",
          "name": "_transactionTickerPrice",
          "type": "int256"
        },
        {
          "internalType": "uint256",
          "name": "_timestamp",
          "type": "uint256"
        }
      ],
      "name": "placeBuyStockLimitOrderMsg",
      "outputs": [
        {
          "components": [
            {
              "internalType": "string",
              "name": "tickerName",
              "type": "string"
            },
            {
              "internalType": "uint256",
              "name": "timestamp",
              "type": "uint256"
            },
            {
              "internalType": "string",
              "name": "transactionType",
              "type": "string"
            },
            {
              "internalType": "int256",
              "name": "positionAction",
              "type": "int256"
            },
            {
              "internalType": "int256",
              "name": "transactionTickerPrice",
              "type": "int256"
            },
            {
              "internalType": "int256",
              "name": "transactionAmount",
              "type": "int256"
            }
          ],
          "internalType": "struct Object.ActionMsg",
          "name": "",
          "type": "tuple"
        }
      ],
      "stateMutability": "nonpayable",
      "type": "function"
    },
    {
      "inputs": [
        {
          "internalType": "string",
          "name": "_tickerName",
          "type": "string"
        },
        {
          "internalType": "int256",
          "name": "_targetShareSell",
          "type": "int256"
        },
        {
          "internalType": "int256",
          "name": "_transactionTickerPrice",
          "type": "int256"
        },
        {
          "internalType": "uint256",
          "name": "_timestamp",
          "type": "uint256"
        }
      ],
      "name": "placeSellStockLimitOrderMsg",
      "outputs": [
        {
          "components": [
            {
              "internalType": "string",
              "name": "tickerName",
              "type": "string"
            },
            {
              "internalType": "uint256",
              "name": "timestamp",
              "type": "uint256"
            },
            {
              "internalType": "string",
              "name": "transactionType",
              "type": "string"
            },
            {
              "internalType": "int256",
              "name": "positionAction",
              "type": "int256"
            },
            {
              "internalType": "int256",
              "name": "transactionTickerPrice",
              "type": "int256"
            },
            {
              "internalType": "int256",
              "name": "transactionAmount",
              "type": "int256"
            }
          ],
          "internalType": "struct Object.ActionMsg",
          "name": "",
          "type": "tuple"
        }
      ],
      "stateMutability": "nonpayable",
      "type": "function"
    },
    {
      "inputs": [
        {
          "components": [
            {
              "internalType": "string",
              "name": "tickerName",
              "type": "string"
            },
            {
              "internalType": "int256",
              "name": "bidPrice",
              "type": "int256"
            },
            {
              "internalType": "int256",
              "name": "last",
              "type": "int256"
            }
          ],
          "internalType": "struct Object.RealTimeTickerData[]",
          "name": "_tickerData",
          "type": "tuple[]"
        },
        {
          "internalType": "uint256",
          "name": "_timeStamp",
          "type": "uint256"
        },
        {
          "components": [
            {
              "internalType": "string",
              "name": "AccountCode",
              "type": "string"
            },
            {
              "internalType": "string",
              "name": "Currency",
              "type": "string"
            },
            {
              "internalType": "string",
              "name": "ExchangeRate",
              "type": "string"
            },
            {
              "internalType": "int256",
              "name": "FullInitMarginReq",
              "type": "int256"
            },
            {
              "internalType": "int256",
              "name": "FullMainMarginReq",
              "type": "int256"
            },
            {
              "internalType": "int256",
              "name": "AvailableFunds",
              "type": "int256"
            },
            {
              "internalType": "int256",
              "name": "ExcessLiquidity",
              "type": "int256"
            },
            {
              "internalType": "int256",
              "name": "BuyingPower",
              "type": "int256"
            },
            {
              "internalType": "int256",
              "name": "Leverage",
              "type": "int256"
            },
            {
              "internalType": "int256",
              "name": "EquityWithLoanValue",
              "type": "int256"
            },
            {
              "internalType": "int256",
              "name": "TotalCashValue",
              "type": "int256"
            },
            {
              "internalType": "int256",
              "name": "NetDividend",
              "type": "int256"
            },
            {
              "internalType": "int256",
              "name": "NetLiquidation",
              "type": "int256"
            },
            {
              "internalType": "int256",
              "name": "UnrealizedPnL",
              "type": "int256"
            },
            {
              "internalType": "int256",
              "name": "RealizedPnL",
              "type": "int256"
            },
            {
              "internalType": "int256",
              "name": "GrossPositionValue",
              "type": "int256"
            }
          ],
          "internalType": "struct Object.PortfolioData",
          "name": "_portfolioData",
          "type": "tuple"
        },
        {
          "components": [
            {
              "internalType": "string",
              "name": "tickerName",
              "type": "string"
            },
            {
              "internalType": "int256",
              "name": "position",
              "type": "int256"
            },
            {
              "internalType": "int256",
              "name": "marketPrice",
              "type": "int256"
            },
            {
              "internalType": "int256",
              "name": "averageCost",
              "type": "int256"
            },
            {
              "internalType": "int256",
              "name": "marketValue",
              "type": "int256"
            },
            {
              "internalType": "int256",
              "name": "realizedPNL",
              "type": "int256"
            },
            {
              "internalType": "int256",
              "name": "unrealizedPNL",
              "type": "int256"
            },
            {
              "internalType": "int256",
              "name": "initMarginReq",
              "type": "int256"
            },
            {
              "internalType": "int256",
              "name": "maintMarginReq",
              "type": "int256"
            },
            {
              "internalType": "int256",
              "name": "costBasis",
              "type": "int256"
            }
          ],
          "internalType": "struct Object.PortfolioHolding[]",
          "name": "_portfolioHoldings",
          "type": "tuple[]"
        }
      ],
      "name": "run",
      "outputs": [
        {
          "components": [
            {
              "internalType": "string",
              "name": "tickerName",
              "type": "string"
            },
            {
              "internalType": "uint256",
              "name": "timestamp",
              "type": "uint256"
            },
            {
              "internalType": "string",
              "name": "transactionType",
              "type": "string"
            },
            {
              "internalType": "int256",
              "name": "positionAction",
              "type": "int256"
            },
            {
              "internalType": "int256",
              "name": "transactionTickerPrice",
              "type": "int256"
            },
            {
              "internalType": "int256",
              "name": "transactionAmount",
              "type": "int256"
            }
          ],
          "internalType": "struct Object.ActionMsg[]",
          "name": "",
          "type": "tuple[]"
        }
      ],
      "stateMutability": "nonpayable",
      "type": "function"
    }
  ],
  "bytecode": "0x60806040526000600a55606473__FixidityLib___________________________632179bb6c6040518163ffffffff1660e01b8152600401602060405180830381865af415801562000055573d6000803e3d6000fd5b505050506040513d601f19601f820116820180604052508101906200007b9190620002d3565b600562000089919062000334565b6200009591906200048a565b600b556103e873__FixidityLib___________________________632179bb6c6040518163ffffffff1660e01b8152600401602060405180830381865af4158015620000e5573d6000803e3d6000fd5b505050506040513d601f19601f820116820180604052508101906200010b9190620002d3565b600562000119919062000334565b6200012591906200048a565b600c553480156200013557600080fd5b5060405162004a8638038062004a8683398181016040528101906200015b91906200081b565b60005b81518110156200027c57600082828151811062000180576200017f6200086c565b5b602002602001015190506000816000015190506000600282604051620001a79190620008e8565b908152602001604051809103902060006101000a81548160ff0219169083151502179055506000600382604051620001e09190620008e8565b9081526020016040518091039020819055506000600482604051620002069190620008e8565b90815260200160405180910390208190555060006005826040516200022c9190620008e8565b9081526020016040518091039020819055506000600682604051620002529190620008e8565b9081526020016040518091039020819055505050808062000273906200090b565b9150506200015e565b505062000958565b6000604051905090565b600080fd5b600080fd5b6000819050919050565b620002ad8162000298565b8114620002b957600080fd5b50565b600081519050620002cd81620002a2565b92915050565b600060208284031215620002ec57620002eb6200028e565b5b6000620002fc84828501620002bc565b91505092915050565b7f4e487b7100000000000000000000000000000000000000000000000000000000600052601160045260246000fd5b6000620003418262000298565b91506200034e8362000298565b9250827f7fffffffffffffffffffffffffffffffffffffffffffffffffffffffffffffff048211600084136000841316161562000390576200038f62000305565b5b817f80000000000000000000000000000000000000000000000000000000000000000583126000841260008413161615620003d057620003cf62000305565b5b827f8000000000000000000000000000000000000000000000000000000000000000058212600084136000841216161562000410576200040f62000305565b5b827f7fffffffffffffffffffffffffffffffffffffffffffffffffffffffffffffff058212600084126000841216161562000450576200044f62000305565b5b828202905092915050565b7f4e487b7100000000000000000000000000000000000000000000000000000000600052601260045260246000fd5b6000620004978262000298565b9150620004a48362000298565b925082620004b757620004b66200045b565b5b600160000383147f800000000000000000000000000000000000000000000000000000000000000083141615620004f357620004f262000305565b5b828205905092915050565b600080fd5b6000601f19601f8301169050919050565b7f4e487b7100000000000000000000000000000000000000000000000000000000600052604160045260246000fd5b6200054e8262000503565b810181811067ffffffffffffffff8211171562000570576200056f62000514565b5b80604052505050565b60006200058562000284565b905062000593828262000543565b919050565b600067ffffffffffffffff821115620005b657620005b562000514565b5b602082029050602081019050919050565b600080fd5b600080fd5b600080fd5b600080fd5b600067ffffffffffffffff821115620005f957620005f862000514565b5b620006048262000503565b9050602081019050919050565b60005b838110156200063157808201518184015260208101905062000614565b8381111562000641576000848401525b50505050565b60006200065e6200065884620005db565b62000579565b9050828152602081018484840111156200067d576200067c620005d6565b5b6200068a84828562000611565b509392505050565b600082601f830112620006aa57620006a9620004fe565b5b8151620006bc84826020860162000647565b91505092915050565b600060608284031215620006de57620006dd620005cc565b5b620006ea606062000579565b9050600082015167ffffffffffffffff8111156200070d576200070c620005d1565b5b6200071b8482850162000692565b60008301525060206200073184828501620002bc565b60208301525060406200074784828501620002bc565b60408301525092915050565b60006200076a620007648462000598565b62000579565b9050808382526020820190506020840283018581111562000790576200078f620005c7565b5b835b81811015620007de57805167ffffffffffffffff811115620007b957620007b8620004fe565b5b808601620007c88982620006c5565b8552602085019450505060208101905062000792565b5050509392505050565b600082601f8301126200080057620007ff620004fe565b5b81516200081284826020860162000753565b91505092915050565b6000602082840312156200083457620008336200028e565b5b600082015167ffffffffffffffff81111562000855576200085462000293565b5b6200086384828501620007e8565b91505092915050565b7f4e487b7100000000000000000000000000000000000000000000000000000000600052603260045260246000fd5b600081519050919050565b600081905092915050565b6000620008be826200089b565b620008ca8185620008a6565b9350620008dc81856020860162000611565b80840191505092915050565b6000620008f68284620008b1565b915081905092915050565b6000819050919050565b6000620009188262000901565b91507fffffffffffffffffffffffffffffffffffffffffffffffffffffffffffffffff82036200094d576200094c62000305565b5b600182019050919050565b61411e80620009686000396000f3fe608060405234801561001057600080fd5b506004361061004c5760003560e01c806314ea6c19146100515780634358f911146100815780634f8ac98d146100b1578063d313b78c146100e1575b600080fd5b61006b60048036038101906100669190612f0b565b610116565b60405161007891906130c4565b60405180910390f35b61009b60048036038101906100969190613617565b61020f565b6040516100a89190613824565b60405180910390f35b6100cb60048036038101906100c69190612f0b565b610e2e565b6040516100d891906130c4565b60405180910390f35b6100fb60048036038101906100f69190613846565b610f27565b60405161010d969594939291906138db565b60405180910390f35b61011e612af7565b600073__FixidityLib___________________________633c4308a886866040518363ffffffff1660e01b8152600401610159929190613959565b602060405180830381865af4158015610176573d6000803e3d6000fd5b505050506040513d601f19601f8201168201806040525081019061019a9190613997565b905060006040518060c001604052808881526020018581526020016040518060400160405280600481526020017f53656c6c0000000000000000000000000000000000000000000000000000000081525081526020018781526020018681526020018381525090508092505050949350505050565b606061021c600154611083565b61022557600080fd5b610231858585856110e7565b6000600a540361054d57600073__FixidityLib___________________________63f598423660086000888152602001908152602001600020600a015460076000898152602001908152602001600020805490506040518363ffffffff1660e01b81526004016102a2929190613959565b602060405180830381865af41580156102bf573d6000803e3d6000fd5b505050506040513d601f19601f820116820180604052508101906102e39190613997565b905060005b600760008781526020019081526020016000208054905081101561054657600060076000888152602001908152602001600020828154811061032d5761032c6139c4565b5b906000526020600020906003020160405180606001604052908160008201805461035690613a22565b80601f016020809104026020016040519081016040528092919081815260200182805461038290613a22565b80156103cf5780601f106103a4576101008083540402835291602001916103cf565b820191906000526020600020905b8154815290600101906020018083116103b257829003601f168201915b505050505081526020016001820154815260200160028201548152505090506000816000015190506000826040015190506000600373__FixidityLib___________________________63f59842368887604001516040518363ffffffff1660e01b8152600401610441929190613959565b602060405180830381865af415801561045e573d6000803e3d6000fd5b505050506040513d601f19601f820116820180604052508101906104829190613997565b61048c9190613a82565b9050600061049c8483858e610e2e565b9050600d81908060018154018082558091505060019003906000526020600020906006020160009091909190915060008201518160000190805190602001906104e6929190612b2d565b5060208201518160010155604082015181600201908051906020019061050d929190612b2d565b50606082015181600301556080820151816004015560a0820151816005015550505050505050808061053e90613b99565b9150506102e8565b5050610bee565b600073__FixidityLib___________________________633c4308a8600b5460086000898152602001908152602001600020600f01546040518363ffffffff1660e01b81526004016105a0929190613959565b602060405180830381865af41580156105bd573d6000803e3d6000fd5b505050506040513d601f19601f820116820180604052508101906105e19190613997565b905060005b6007600087815260200190815260200160002080549050811015610a3657600060076000888152602001908152602001600020828154811061062b5761062a6139c4565b5b90600052602060002090600302016002015490506000600760008981526020019081526020016000208381548110610666576106656139c4565b5b9060005260206000209060030201600001805461068290613a22565b80601f01602080910402602001604051908101604052809291908181526020018280546106ae90613a22565b80156106fb5780601f106106d0576101008083540402835291602001916106fb565b820191906000526020600020905b8154815290600101906020018083116106de57829003601f168201915b505050505090506002600760008a81526020019081526020016000208481548110610729576107286139c4565b5b90600052602060002090600302016000016040516107479190613c80565b908152602001604051809103902060009054906101000a900460ff161561081d576107728183611515565b1561081857600061078482848b61155d565b9050600d81908060018154018082558091505060019003906000526020600020906006020160009091909190915060008201518160000190805190602001906107ce929190612b2d565b506020820151816001015560408201518160020190805190602001906107f5929190612b2d565b50606082015181600301556080820151816004015560a082015181600501555050505b610a21565b61082781836116d8565b1561084157600061083982848b611703565b905050610a20565b83600860008a8152602001908152602001600020600601541315610a1f57600073__FixidityLib___________________________63b93ea812600860008c815260200190815260200160002060060154876040518363ffffffff1660e01b81526004016108b0929190613959565b602060405180830381865af41580156108cd573d6000803e3d6000fd5b505050506040513d601f19601f820116820180604052508101906108f19190613997565b9050600073__FixidityLib___________________________63f598423683866040518363ffffffff1660e01b815260040161092e929190613959565b602060405180830381865af415801561094b573d6000803e3d6000fd5b505050506040513d601f19601f8201168201806040525081019061096f9190613997565b90506000811315610a1c5760006109888483878e610e2e565b9050600d81908060018154018082558091505060019003906000526020600020906006020160009091909190915060008201518160000190805190602001906109d2929190612b2d565b506020820151816001015560408201518160020190805190602001906109f9929190612b2d565b50606082015181600301556080820151816004015560a082015181600501555050505b50505b5b5b50508080610a2e90613b99565b9150506105e6565b5060005b6007600087815260200190815260200160002080549050811015610beb576000600760008881526020019081526020016000208281548110610a7f57610a7e6139c4565b5b90600052602060002090600302016002015490506000600760008981526020019081526020016000208381548110610aba57610ab96139c4565b5b90600052602060002090600302016000018054610ad690613a22565b80601f0160208091040260200160405190810160405280929190818152602001828054610b0290613a22565b8015610b4f5780601f10610b2457610100808354040283529160200191610b4f565b820191906000526020600020905b815481529060010190602001808311610b3257829003601f168201915b505050505090506002600760008a81526020019081526020016000208481548110610b7d57610b7c6139c4565b5b9060005260206000209060030201600001604051610b9b9190613c80565b908152602001604051809103902060009054906101000a900460ff1615610bcb57610bc68183611b40565b610bd6565b610bd58183611dec565b5b50508080610be390613b99565b915050610a3a565b50505b836000819055506001600a54610c049190613c97565b600a819055506000600d8054905067ffffffffffffffff811115610c2b57610c2a612d74565b5b604051908082528060200260200182016040528015610c6457816020015b610c51612af7565b815260200190600190039081610c495790505b50905060005b600d80549050811015610e2157600d8181548110610c8b57610c8a6139c4565b5b90600052602060002090600602016040518060c0016040529081600082018054610cb490613a22565b80601f0160208091040260200160405190810160405280929190818152602001828054610ce090613a22565b8015610d2d5780601f10610d0257610100808354040283529160200191610d2d565b820191906000526020600020905b815481529060010190602001808311610d1057829003601f168201915b5050505050815260200160018201548152602001600282018054610d5090613a22565b80601f0160208091040260200160405190810160405280929190818152602001828054610d7c90613a22565b8015610dc95780601f10610d9e57610100808354040283529160200191610dc9565b820191906000526020600020905b815481529060010190602001808311610dac57829003601f168201915b505050505081526020016003820154815260200160048201548152602001600582015481525050828281518110610e0357610e026139c4565b5b60200260200101819052508080610e1990613b99565b915050610c6a565b5080915050949350505050565b610e36612af7565b600073__FixidityLib___________________________633c4308a886866040518363ffffffff1660e01b8152600401610e71929190613959565b602060405180830381865af4158015610e8e573d6000803e3d6000fd5b505050506040513d601f19601f82011682018060405250810190610eb29190613997565b905060006040518060c001604052808881526020018581526020016040518060400160405280600381526020017f427579000000000000000000000000000000000000000000000000000000000081525081526020018781526020018681526020018381525090508092505050949350505050565b600d8181548110610f3757600080fd5b9060005260206000209060060201600091509050806000018054610f5a90613a22565b80601f0160208091040260200160405190810160405280929190818152602001828054610f8690613a22565b8015610fd35780601f10610fa857610100808354040283529160200191610fd3565b820191906000526020600020905b815481529060010190602001808311610fb657829003601f168201915b505050505090806001015490806002018054610fee90613a22565b80601f016020809104026020016040519081016040528092919081815260200182805461101a90613a22565b80156110675780601f1061103c57610100808354040283529160200191611067565b820191906000526020600020905b81548152906001019060200180831161104a57829003601f168201915b5050505050908060030154908060040154908060050154905086565b6000806000905060008060008060008061109c896121e3565b8096508197508298505050506110b36000546121e3565b8093508194508295505050508160ff168560ff16146110d85760019650886000819055505b86975050505050505050919050565b82600181905550600060076000858152602001908152602001600020905060005b85518110156111db576000868281518110611126576111256139c4565b5b602002602001015190508060200151838381548110611148576111476139c4565b5b9060005260206000209060030201600101819055508060400151838381548110611175576111746139c4565b5b90600052602060002090600302016002018190555080600001518383815481106111a2576111a16139c4565b5b906000526020600020906003020160000190805190602001906111c6929190612b2d565b505080806111d390613b99565b915050611108565b50600060096000868152602001908152602001600020905060005b8351811015611406576000848281518110611214576112136139c4565b5b602002602001015190508060000151838381548110611236576112356139c4565b5b90600052602060002090600a0201600001908051906020019061125a929190612b2d565b508060600151838381548110611273576112726139c4565b5b90600052602060002090600a0201600301819055508061012001518383815481106112a1576112a06139c4565b5b90600052602060002090600a0201600901819055508060e001518383815481106112ce576112cd6139c4565b5b90600052602060002090600a0201600701819055508061010001518383815481106112fc576112fb6139c4565b5b90600052602060002090600a0201600801819055508060400151838381548110611329576113286139c4565b5b90600052602060002090600a0201600201819055508060800151838381548110611356576113556139c4565b5b90600052602060002090600a0201600401819055508060200151838381548110611383576113826139c4565b5b90600052602060002090600a0201600101819055508060a001518383815481106113b0576113af6139c4565b5b90600052602060002090600a0201600501819055508060c001518383815481106113dd576113dc6139c4565b5b90600052602060002090600a0201600601819055505080806113fe90613b99565b9150506111f6565b5083600860008781526020019081526020016000206000820151816000019080519060200190611437929190612b2d565b506020820151816001019080519060200190611454929190612b2d565b506040820151816002019080519060200190611471929190612b2d565b50606082015181600301556080820151816004015560a0820151816005015560c0820151816006015560e082015181600701556101008201518160080155610120820151816009015561014082015181600a015561016082015181600b015561018082015181600c01556101a082015181600d01556101c082015181600e01556101e082015181600f0155905050600d600061150d9190612bb3565b505050505050565b6000806065606460038660405161152c9190613d1e565b9081526020016040518091039020546115459190613d64565b61154f9190613a82565b905080831391505092915050565b611565612af7565b61156d612af7565b600060048660405161157f9190613d1e565b9081526020016040518091039020549050600073__FixidityLib___________________________633c4308a883886040518363ffffffff1660e01b81526004016115cb929190613959565b602060405180830381865af41580156115e8573d6000803e3d6000fd5b505050506040513d601f19601f8201168201806040525081019061160c9190613997565b90508060086000878152602001908152602001600020600701541261163e5761163787838888610e2e565b9250611671565b8560086000878152602001908152602001600020600701546116609190613d64565b915061166e87838888610e2e565b92505b60006002886040516116839190613d1e565b908152602001604051809103902060006101000a81548160ff021916908315150217905550856005886040516116b99190613d1e565b9081526020016040518091039020819055508293505050509392505050565b60006003836040516116ea9190613d1e565b9081526020016040518091039020548212905092915050565b61170b612af7565b600061186c8560096000868152602001908152602001600020805480602002602001604051908101604052809291908181526020016000905b8282101561186357838290600052602060002090600a02016040518061014001604052908160008201805461177890613a22565b80601f01602080910402602001604051908101604052809291908181526020018280546117a490613a22565b80156117f15780601f106117c6576101008083540402835291602001916117f1565b820191906000526020600020905b8154815290600101906020018083116117d457829003601f168201915b50505050508152602001600182015481526020016002820154815260200160038201548152602001600482015481526020016005820154815260200160068201548152602001600782015481526020016008820154815260200160098201548152505081526020019060010190611744565b50505050612228565b905060006119888660076000878152602001908152602001600020805480602002602001604051908101604052809291908181526020016000905b8282101561197f57838290600052602060002090600302016040518060600160405290816000820180546118da90613a22565b80601f016020809104026020016040519081016040528092919081815260200182805461190690613a22565b80156119535780601f1061192857610100808354040283529160200191611953565b820191906000526020600020905b81548152906001019060200180831161193657829003601f168201915b5050505050815260200160018201548152602001600282015481525050815260200190600101906118a7565b5050505061231f565b90506000826020015190506000600760008781526020019081526020016000208054905060086000888152602001908152602001600020600901546119cd9190613d64565b9050600073__FixidityLib___________________________63f59842368386604001516040518363ffffffff1660e01b8152600401611a0e929190613959565b602060405180830381865af4158015611a2b573d6000803e3d6000fd5b505050506040513d601f19601f82011682018060405250810190611a4f9190613997565b90506000600a600c83611a629190613a82565b611a6c9190613d64565b905060008185611a7c9190613dce565b90506000611a8c8c838d8d610116565b90508a60038d604051611a9f9190613d1e565b9081526020016040518091039020819055508160048d604051611ac29190613d1e565b9081526020016040518091039020819055508a60068d604051611ae59190613d1e565b908152602001604051809103902081905550600160028d604051611b099190613d1e565b908152602001604051809103902060006101000a81548160ff02191690831515021790555080985050505050505050509392505050565b6000606473__FixidityLib___________________________632179bb6c6040518163ffffffff1660e01b8152600401602060405180830381865af4158015611b8d573d6000803e3d6000fd5b505050506040513d601f19601f82011682018060405250810190611bb19190613997565b6046611bbd9190613a82565b611bc79190613d64565b905073__FixidityLib___________________________633c4308a8600385604051611bf39190613d1e565b908152602001604051809103902054836040518363ffffffff1660e01b8152600401611c20929190613959565b602060405180830381865af4158015611c3d573d6000803e3d6000fd5b505050506040513d601f19601f82011682018060405250810190611c619190613997565b821215611de757600073__FixidityLib___________________________63b93ea812600686604051611c949190613d1e565b908152602001604051809103902054856040518363ffffffff1660e01b8152600401611cc1929190613959565b602060405180830381865af4158015611cde573d6000803e3d6000fd5b505050506040513d601f19601f82011682018060405250810190611d029190613997565b905060006064603273__FixidityLib___________________________63a5f3c23b87866040518363ffffffff1660e01b8152600401611d43929190613959565b602060405180830381865af4158015611d60573d6000803e3d6000fd5b505050506040513d601f19601f82011682018060405250810190611d849190613997565b611d8e9190613a82565b611d989190613d64565b9050600385604051611daa9190613d1e565b908152602001604051809103902054811215611de45780600386604051611dd19190613d1e565b9081526020016040518091039020819055505b50505b505050565b6000600583604051611dfe9190613d1e565b90815260200160405180910390205403611fe75780600583604051611e239190613d1e565b908152602001604051809103902081905550600073__FixidityLib___________________________63b93ea81273__FixidityLib___________________________632179bb6c6040518163ffffffff1660e01b8152600401602060405180830381865af4158015611e9a573d6000803e3d6000fd5b505050506040513d601f19601f82011682018060405250810190611ebe9190613997565b600c546040518363ffffffff1660e01b8152600401611ede929190613959565b602060405180830381865af4158015611efb573d6000803e3d6000fd5b505050506040513d601f19601f82011682018060405250810190611f1f9190613997565b9050600073__FixidityLib___________________________633c4308a8600586604051611f4d9190613d1e565b908152602001604051809103902054846040518363ffffffff1660e01b8152600401611f7a929190613959565b602060405180830381865af4158015611f97573d6000803e3d6000fd5b505050506040513d601f19601f82011682018060405250810190611fbb9190613997565b905080600385604051611fce9190613d1e565b90815260200160405180910390208190555050506121df565b600582604051611ff79190613d1e565b9081526020016040518091039020548113156121de578060058360405161201e9190613d1e565b908152602001604051809103902081905550600073__FixidityLib___________________________63b93ea81273__FixidityLib___________________________632179bb6c6040518163ffffffff1660e01b8152600401602060405180830381865af4158015612095573d6000803e3d6000fd5b505050506040513d601f19601f820116820180604052508101906120b99190613997565b600c546040518363ffffffff1660e01b81526004016120d9929190613959565b602060405180830381865af41580156120f6573d6000803e3d6000fd5b505050506040513d601f19601f8201168201806040525081019061211a9190613997565b9050600073__FixidityLib___________________________633c4308a86005866040516121489190613d1e565b908152602001604051809103902054846040518363ffffffff1660e01b8152600401612175929190613959565b602060405180830381865af4158015612192573d6000803e3d6000fd5b505050506040513d601f19601f820116820180604052508101906121b69190613997565b9050806003856040516121c99190613d1e565b90815260200160405180910390208190555050505b5b5050565b6000806000808490506121f581612416565b80955081925050506122078185612685565b809450819250505061221881612a0b565b8093508192505050509193909250565b612230612bd7565b612238612bd7565b60005b835181101561231457838181518110612257576122566139c4565b5b60200260200101516000015173__StringUtils___________________________63bed34bba9091876040518363ffffffff1660e01b815260040161229d929190613eac565b602060405180830381865af41580156122ba573d6000803e3d6000fd5b505050506040513d601f19601f820116820180604052508101906122de9190613f1b565b15612301578381815181106122f6576122f56139c4565b5b602002602001015191505b808061230c90613b99565b91505061223b565b508091505092915050565b612327612c2a565b61232f612c2a565b60005b835181101561240b5783818151811061234e5761234d6139c4565b5b60200260200101516000015173__StringUtils___________________________63bed34bba9091876040518363ffffffff1660e01b8152600401612394929190613eac565b602060405180830381865af41580156123b1573d6000803e3d6000fd5b505050506040513d601f19601f820116820180604052508101906123d59190613f1b565b156123f8578381815181106123ed576123ec6139c4565b5b602002602001015191505b808061240390613b99565b915050612332565b508091505092915050565b6000806000808493506107b292506301e1338060026124359190613f48565b84101561247e576301e133808461244c9190613fa2565b91506301e133808261245e9190613f48565b846124699190613fd3565b935081836124779190614015565b925061267e565b6301e13380600261248f9190613f48565b8461249a9190613fd3565b93506107b492506334aadc8084106125ad576334aadc80846124bc9190613fd3565b9350601c836124cb9190614015565b92506402f0605980846124de9190613fa2565b91506402f0605980826124f19190613f48565b846124fc9190613fd3565b93506101908261250c9190613f48565b836125179190614015565b925061252283612a55565b90508063ffffffff168410612555578063ffffffff16846125439190613fd3565b93506001836125529190614015565b92505b61255e83612a8c565b6125ac5763bc17c200846125729190613fa2565b915063bc17c200826125849190613f48565b8461258f9190613fd3565b935060648261259e9190613f48565b836125a99190614015565b92505b5b6307861f80846125bd9190613fa2565b91506307861f80826125cf9190613f48565b846125da9190613fd3565b93506004826125e99190613f48565b836125f49190614015565b92506125ff83612a55565b90508063ffffffff168410612632578063ffffffff16846126209190613fd3565b935060018361262f9190614015565b92505b61263b83612a8c565b61267d576301e133808461264f9190613fa2565b91506301e13380826126619190613f48565b8461266c9190613fd3565b9350818361267a9190614015565b92505b5b5050915091565b600080612690612c4b565b612698612c6e565b8593506126a485612a8c565b1561280f57604051806101a00160405280600060ff168152602001601f60ff168152602001601d60ff168152602001601f60ff168152602001601e60ff168152602001601f60ff168152602001601e60ff168152602001601f60ff168152602001601f60ff168152602001601e60ff168152602001601f60ff168152602001601e60ff168152602001601f60ff168152509150604051806101a00160405280600063ffffffff1681526020016228de8063ffffffff168152602001624f1a0063ffffffff1681526020016277f88063ffffffff168152602001629f858063ffffffff16815260200162c8640063ffffffff16815260200162eff10063ffffffff168152602001630118cf8063ffffffff168152602001630141ae0063ffffffff1681526020016301693b0063ffffffff168152602001630192198063ffffffff1681526020016301b9a68063ffffffff1681526020016301e2850063ffffffff168152509050612971565b604051806101a00160405280600060ff168152602001601f60ff168152602001601c60ff168152602001601f60ff168152602001601e60ff168152602001601f60ff168152602001601e60ff168152602001601f60ff168152602001601f60ff168152602001601e60ff168152602001601f60ff168152602001601e60ff168152602001601f60ff168152509150604051806101a00160405280600063ffffffff1681526020016228de8063ffffffff168152602001624dc88063ffffffff1681526020016276a70063ffffffff168152602001629e340063ffffffff16815260200162c7128063ffffffff16815260200162ee9f8063ffffffff1681526020016301177e0063ffffffff1681526020016301405c8063ffffffff168152602001630167e98063ffffffff168152602001630190c80063ffffffff1681526020016301b8550063ffffffff1681526020016301e1338063ffffffff1681525090505b6000600190505b600d8160ff161015612a0157818160ff16600d811061299a576129996139c4565b5b602002015163ffffffff168510156129ee57809350816001826129bd919061405a565b60ff16600d81106129d1576129d06139c4565b5b602002015163ffffffff16856129e79190613fd3565b9450612a01565b80806129f99061408e565b915050612978565b5050509250929050565b60008060008392506201518083612a229190613fa2565b90506201518081612a339190613f48565b83612a3e9190613fd3565b9250600181612a4d9190613c97565b915050915091565b6000612a6082612a8c565b15612a7f57620151806301e13380612a789190613c97565b9050612a87565b6301e1338090505b919050565b600080600483612a9c91906140b7565b61ffff1614612aae5760009050612af2565b600061019083612abe91906140b7565b61ffff161480612adf57506000606483612ad891906140b7565b61ffff1614155b15612aed5760019050612af2565b600090505b919050565b6040518060c001604052806060815260200160008152602001606081526020016000815260200160008152602001600081525090565b828054612b3990613a22565b90600052602060002090601f016020900481019282612b5b5760008555612ba2565b82601f10612b7457805160ff1916838001178555612ba2565b82800160010185558215612ba2579182015b82811115612ba1578251825591602001919060010190612b86565b5b509050612baf9190612c91565b5090565b5080546000825560060290600052602060002090810190612bd49190612cae565b50565b604051806101400160405280606081526020016000815260200160008152602001600081526020016000815260200160008152602001600081526020016000815260200160008152602001600081525090565b60405180606001604052806060815260200160008152602001600081525090565b604051806101a00160405280600d90602082028036833780820191505090505090565b604051806101a00160405280600d90602082028036833780820191505090505090565b5b80821115612caa576000816000905550600101612c92565b5090565b5b80821115612d015760008082016000612cc89190612d05565b6001820160009055600282016000612ce09190612d05565b60038201600090556004820160009055600582016000905550600601612caf565b5090565b508054612d1190613a22565b6000825580601f10612d235750612d42565b601f016020900490600052602060002090810190612d419190612c91565b5b50565b6000604051905090565b600080fd5b600080fd5b600080fd5b600080fd5b6000601f19601f8301169050919050565b7f4e487b7100000000000000000000000000000000000000000000000000000000600052604160045260246000fd5b612dac82612d63565b810181811067ffffffffffffffff82111715612dcb57612dca612d74565b5b80604052505050565b6000612dde612d45565b9050612dea8282612da3565b919050565b600067ffffffffffffffff821115612e0a57612e09612d74565b5b612e1382612d63565b9050602081019050919050565b82818337600083830152505050565b6000612e42612e3d84612def565b612dd4565b905082815260208101848484011115612e5e57612e5d612d5e565b5b612e69848285612e20565b509392505050565b600082601f830112612e8657612e85612d59565b5b8135612e96848260208601612e2f565b91505092915050565b6000819050919050565b612eb281612e9f565b8114612ebd57600080fd5b50565b600081359050612ecf81612ea9565b92915050565b6000819050919050565b612ee881612ed5565b8114612ef357600080fd5b50565b600081359050612f0581612edf565b92915050565b60008060008060808587031215612f2557612f24612d4f565b5b600085013567ffffffffffffffff811115612f4357612f42612d54565b5b612f4f87828801612e71565b9450506020612f6087828801612ec0565b9350506040612f7187828801612ec0565b9250506060612f8287828801612ef6565b91505092959194509250565b600081519050919050565b600082825260208201905092915050565b60005b83811015612fc8578082015181840152602081019050612fad565b83811115612fd7576000848401525b50505050565b6000612fe882612f8e565b612ff28185612f99565b9350613002818560208601612faa565b61300b81612d63565b840191505092915050565b61301f81612ed5565b82525050565b61302e81612e9f565b82525050565b600060c08301600083015184820360008601526130518282612fdd565b91505060208301516130666020860182613016565b506040830151848203604086015261307e8282612fdd565b91505060608301516130936060860182613025565b5060808301516130a66080860182613025565b5060a08301516130b960a0860182613025565b508091505092915050565b600060208201905081810360008301526130de8184613034565b905092915050565b600067ffffffffffffffff82111561310157613100612d74565b5b602082029050602081019050919050565b600080fd5b600080fd5b600080fd5b60006060828403121561313757613136613117565b5b6131416060612dd4565b9050600082013567ffffffffffffffff8111156131615761316061311c565b5b61316d84828501612e71565b600083015250602061318184828501612ec0565b602083015250604061319584828501612ec0565b60408301525092915050565b60006131b46131af846130e6565b612dd4565b905080838252602082019050602084028301858111156131d7576131d6613112565b5b835b8181101561321e57803567ffffffffffffffff8111156131fc576131fb612d59565b5b8086016132098982613121565b855260208501945050506020810190506131d9565b5050509392505050565b600082601f83011261323d5761323c612d59565b5b813561324d8482602086016131a1565b91505092915050565b6000610200828403121561326d5761326c613117565b5b613278610200612dd4565b9050600082013567ffffffffffffffff8111156132985761329761311c565b5b6132a484828501612e71565b600083015250602082013567ffffffffffffffff8111156132c8576132c761311c565b5b6132d484828501612e71565b602083015250604082013567ffffffffffffffff8111156132f8576132f761311c565b5b61330484828501612e71565b604083015250606061331884828501612ec0565b606083015250608061332c84828501612ec0565b60808301525060a061334084828501612ec0565b60a08301525060c061335484828501612ec0565b60c08301525060e061336884828501612ec0565b60e08301525061010061337d84828501612ec0565b6101008301525061012061339384828501612ec0565b610120830152506101406133a984828501612ec0565b610140830152506101606133bf84828501612ec0565b610160830152506101806133d584828501612ec0565b610180830152506101a06133eb84828501612ec0565b6101a0830152506101c061340184828501612ec0565b6101c0830152506101e061341784828501612ec0565b6101e08301525092915050565b600067ffffffffffffffff82111561343f5761343e612d74565b5b602082029050602081019050919050565b6000610140828403121561346757613466613117565b5b613472610140612dd4565b9050600082013567ffffffffffffffff8111156134925761349161311c565b5b61349e84828501612e71565b60008301525060206134b284828501612ec0565b60208301525060406134c684828501612ec0565b60408301525060606134da84828501612ec0565b60608301525060806134ee84828501612ec0565b60808301525060a061350284828501612ec0565b60a08301525060c061351684828501612ec0565b60c08301525060e061352a84828501612ec0565b60e08301525061010061353f84828501612ec0565b6101008301525061012061355584828501612ec0565b6101208301525092915050565b600061357561357084613424565b612dd4565b9050808382526020820190506020840283018581111561359857613597613112565b5b835b818110156135df57803567ffffffffffffffff8111156135bd576135bc612d59565b5b8086016135ca8982613450565b8552602085019450505060208101905061359a565b5050509392505050565b600082601f8301126135fe576135fd612d59565b5b813561360e848260208601613562565b91505092915050565b6000806000806080858703121561363157613630612d4f565b5b600085013567ffffffffffffffff81111561364f5761364e612d54565b5b61365b87828801613228565b945050602061366c87828801612ef6565b935050604085013567ffffffffffffffff81111561368d5761368c612d54565b5b61369987828801613256565b925050606085013567ffffffffffffffff8111156136ba576136b9612d54565b5b6136c6878288016135e9565b91505092959194509250565b600081519050919050565b600082825260208201905092915050565b6000819050602082019050919050565b600060c083016000830151848203600086015261371b8282612fdd565b91505060208301516137306020860182613016565b50604083015184820360408601526137488282612fdd565b915050606083015161375d6060860182613025565b5060808301516137706080860182613025565b5060a083015161378360a0860182613025565b508091505092915050565b600061379a83836136fe565b905092915050565b6000602082019050919050565b60006137ba826136d2565b6137c481856136dd565b9350836020820285016137d6856136ee565b8060005b8581101561381257848403895281516137f3858261378e565b94506137fe836137a2565b925060208a019950506001810190506137da565b50829750879550505050505092915050565b6000602082019050818103600083015261383e81846137af565b905092915050565b60006020828403121561385c5761385b612d4f565b5b600061386a84828501612ef6565b91505092915050565b600082825260208201905092915050565b600061388f82612f8e565b6138998185613873565b93506138a9818560208601612faa565b6138b281612d63565b840191505092915050565b6138c681612ed5565b82525050565b6138d581612e9f565b82525050565b600060c08201905081810360008301526138f58189613884565b905061390460208301886138bd565b81810360408301526139168187613884565b905061392560608301866138cc565b61393260808301856138cc565b61393f60a08301846138cc565b979650505050505050565b61395381612e9f565b82525050565b600060408201905061396e600083018561394a565b61397b602083018461394a565b9392505050565b60008151905061399181612ea9565b92915050565b6000602082840312156139ad576139ac612d4f565b5b60006139bb84828501613982565b91505092915050565b7f4e487b7100000000000000000000000000000000000000000000000000000000600052603260045260246000fd5b7f4e487b7100000000000000000000000000000000000000000000000000000000600052602260045260246000fd5b60006002820490506001821680613a3a57607f821691505b602082108103613a4d57613a4c6139f3565b5b50919050565b7f4e487b7100000000000000000000000000000000000000000000000000000000600052601160045260246000fd5b6000613a8d82612e9f565b9150613a9883612e9f565b9250827f7fffffffffffffffffffffffffffffffffffffffffffffffffffffffffffffff0482116000841360008413161615613ad757613ad6613a53565b5b817f80000000000000000000000000000000000000000000000000000000000000000583126000841260008413161615613b1457613b13613a53565b5b827f80000000000000000000000000000000000000000000000000000000000000000582126000841360008412161615613b5157613b50613a53565b5b827f7fffffffffffffffffffffffffffffffffffffffffffffffffffffffffffffff0582126000841260008412161615613b8e57613b8d613a53565b5b828202905092915050565b6000613ba482612ed5565b91507fffffffffffffffffffffffffffffffffffffffffffffffffffffffffffffffff8203613bd657613bd5613a53565b5b600182019050919050565b600081905092915050565b60008190508160005260206000209050919050565b60008154613c0e81613a22565b613c188186613be1565b94506001821660008114613c335760018114613c4457613c77565b60ff19831686528186019350613c77565b613c4d85613bec565b60005b83811015613c6f57815481890152600182019150602081019050613c50565b838801955050505b50505092915050565b6000613c8c8284613c01565b915081905092915050565b6000613ca282612ed5565b9150613cad83612ed5565b9250827fffffffffffffffffffffffffffffffffffffffffffffffffffffffffffffffff03821115613ce257613ce1613a53565b5b828201905092915050565b6000613cf882612f8e565b613d028185613be1565b9350613d12818560208601612faa565b80840191505092915050565b6000613d2a8284613ced565b915081905092915050565b7f4e487b7100000000000000000000000000000000000000000000000000000000600052601260045260246000fd5b6000613d6f82612e9f565b9150613d7a83612e9f565b925082613d8a57613d89613d35565b5b600160000383147f800000000000000000000000000000000000000000000000000000000000000083141615613dc357613dc2613a53565b5b828205905092915050565b6000613dd982612e9f565b9150613de483612e9f565b9250827f800000000000000000000000000000000000000000000000000000000000000001821260008412151615613e1f57613e1e613a53565b5b827f7fffffffffffffffffffffffffffffffffffffffffffffffffffffffffffffff018213600084121615613e5757613e56613a53565b5b828203905092915050565b600082825260208201905092915050565b6000613e7e82612f8e565b613e888185613e62565b9350613e98818560208601612faa565b613ea181612d63565b840191505092915050565b60006040820190508181036000830152613ec68185613e73565b90508181036020830152613eda8184613e73565b90509392505050565b60008115159050919050565b613ef881613ee3565b8114613f0357600080fd5b50565b600081519050613f1581613eef565b92915050565b600060208284031215613f3157613f30612d4f565b5b6000613f3f84828501613f06565b91505092915050565b6000613f5382612ed5565b9150613f5e83612ed5565b9250817fffffffffffffffffffffffffffffffffffffffffffffffffffffffffffffffff0483118215151615613f9757613f96613a53565b5b828202905092915050565b6000613fad82612ed5565b9150613fb883612ed5565b925082613fc857613fc7613d35565b5b828204905092915050565b6000613fde82612ed5565b9150613fe983612ed5565b925082821015613ffc57613ffb613a53565b5b828203905092915050565b600061ffff82169050919050565b600061402082614007565b915061402b83614007565b92508261ffff0382111561404257614041613a53565b5b828201905092915050565b600060ff82169050919050565b60006140658261404d565b91506140708361404d565b92508282101561408357614082613a53565b5b828203905092915050565b60006140998261404d565b915060ff82036140ac576140ab613a53565b5b600182019050919050565b60006140c282614007565b91506140cd83614007565b9250826140dd576140dc613d35565b5b82820690509291505056fea2646970667358221220b7751f83c583c58bb7265f53984905bbd8fae33bd50ca3a149c4d6dcf550e3f364736f6c634300080d0033",
  "deployedBytecode": "0x608060405234801561001057600080fd5b506004361061004c5760003560e01c806314ea6c19146100515780634358f911146100815780634f8ac98d146100b1578063d313b78c146100e1575b600080fd5b61006b60048036038101906100669190612f0b565b610116565b60405161007891906130c4565b60405180910390f35b61009b60048036038101906100969190613617565b61020f565b6040516100a89190613824565b60405180910390f35b6100cb60048036038101906100c69190612f0b565b610e2e565b6040516100d891906130c4565b60405180910390f35b6100fb60048036038101906100f69190613846565b610f27565b60405161010d969594939291906138db565b60405180910390f35b61011e612af7565b600073__FixidityLib___________________________633c4308a886866040518363ffffffff1660e01b8152600401610159929190613959565b602060405180830381865af4158015610176573d6000803e3d6000fd5b505050506040513d601f19601f8201168201806040525081019061019a9190613997565b905060006040518060c001604052808881526020018581526020016040518060400160405280600481526020017f53656c6c0000000000000000000000000000000000000000000000000000000081525081526020018781526020018681526020018381525090508092505050949350505050565b606061021c600154611083565b61022557600080fd5b610231858585856110e7565b6000600a540361054d57600073__FixidityLib___________________________63f598423660086000888152602001908152602001600020600a015460076000898152602001908152602001600020805490506040518363ffffffff1660e01b81526004016102a2929190613959565b602060405180830381865af41580156102bf573d6000803e3d6000fd5b505050506040513d601f19601f820116820180604052508101906102e39190613997565b905060005b600760008781526020019081526020016000208054905081101561054657600060076000888152602001908152602001600020828154811061032d5761032c6139c4565b5b906000526020600020906003020160405180606001604052908160008201805461035690613a22565b80601f016020809104026020016040519081016040528092919081815260200182805461038290613a22565b80156103cf5780601f106103a4576101008083540402835291602001916103cf565b820191906000526020600020905b8154815290600101906020018083116103b257829003601f168201915b505050505081526020016001820154815260200160028201548152505090506000816000015190506000826040015190506000600373__FixidityLib___________________________63f59842368887604001516040518363ffffffff1660e01b8152600401610441929190613959565b602060405180830381865af415801561045e573d6000803e3d6000fd5b505050506040513d601f19601f820116820180604052508101906104829190613997565b61048c9190613a82565b9050600061049c8483858e610e2e565b9050600d81908060018154018082558091505060019003906000526020600020906006020160009091909190915060008201518160000190805190602001906104e6929190612b2d565b5060208201518160010155604082015181600201908051906020019061050d929190612b2d565b50606082015181600301556080820151816004015560a0820151816005015550505050505050808061053e90613b99565b9150506102e8565b5050610bee565b600073__FixidityLib___________________________633c4308a8600b5460086000898152602001908152602001600020600f01546040518363ffffffff1660e01b81526004016105a0929190613959565b602060405180830381865af41580156105bd573d6000803e3d6000fd5b505050506040513d601f19601f820116820180604052508101906105e19190613997565b905060005b6007600087815260200190815260200160002080549050811015610a3657600060076000888152602001908152602001600020828154811061062b5761062a6139c4565b5b90600052602060002090600302016002015490506000600760008981526020019081526020016000208381548110610666576106656139c4565b5b9060005260206000209060030201600001805461068290613a22565b80601f01602080910402602001604051908101604052809291908181526020018280546106ae90613a22565b80156106fb5780601f106106d0576101008083540402835291602001916106fb565b820191906000526020600020905b8154815290600101906020018083116106de57829003601f168201915b505050505090506002600760008a81526020019081526020016000208481548110610729576107286139c4565b5b90600052602060002090600302016000016040516107479190613c80565b908152602001604051809103902060009054906101000a900460ff161561081d576107728183611515565b1561081857600061078482848b61155d565b9050600d81908060018154018082558091505060019003906000526020600020906006020160009091909190915060008201518160000190805190602001906107ce929190612b2d565b506020820151816001015560408201518160020190805190602001906107f5929190612b2d565b50606082015181600301556080820151816004015560a082015181600501555050505b610a21565b61082781836116d8565b1561084157600061083982848b611703565b905050610a20565b83600860008a8152602001908152602001600020600601541315610a1f57600073__FixidityLib___________________________63b93ea812600860008c815260200190815260200160002060060154876040518363ffffffff1660e01b81526004016108b0929190613959565b602060405180830381865af41580156108cd573d6000803e3d6000fd5b505050506040513d601f19601f820116820180604052508101906108f19190613997565b9050600073__FixidityLib___________________________63f598423683866040518363ffffffff1660e01b815260040161092e929190613959565b602060405180830381865af415801561094b573d6000803e3d6000fd5b505050506040513d601f19601f8201168201806040525081019061096f9190613997565b90506000811315610a1c5760006109888483878e610e2e565b9050600d81908060018154018082558091505060019003906000526020600020906006020160009091909190915060008201518160000190805190602001906109d2929190612b2d565b506020820151816001015560408201518160020190805190602001906109f9929190612b2d565b50606082015181600301556080820151816004015560a082015181600501555050505b50505b5b5b50508080610a2e90613b99565b9150506105e6565b5060005b6007600087815260200190815260200160002080549050811015610beb576000600760008881526020019081526020016000208281548110610a7f57610a7e6139c4565b5b90600052602060002090600302016002015490506000600760008981526020019081526020016000208381548110610aba57610ab96139c4565b5b90600052602060002090600302016000018054610ad690613a22565b80601f0160208091040260200160405190810160405280929190818152602001828054610b0290613a22565b8015610b4f5780601f10610b2457610100808354040283529160200191610b4f565b820191906000526020600020905b815481529060010190602001808311610b3257829003601f168201915b505050505090506002600760008a81526020019081526020016000208481548110610b7d57610b7c6139c4565b5b9060005260206000209060030201600001604051610b9b9190613c80565b908152602001604051809103902060009054906101000a900460ff1615610bcb57610bc68183611b40565b610bd6565b610bd58183611dec565b5b50508080610be390613b99565b915050610a3a565b50505b836000819055506001600a54610c049190613c97565b600a819055506000600d8054905067ffffffffffffffff811115610c2b57610c2a612d74565b5b604051908082528060200260200182016040528015610c6457816020015b610c51612af7565b815260200190600190039081610c495790505b50905060005b600d80549050811015610e2157600d8181548110610c8b57610c8a6139c4565b5b90600052602060002090600602016040518060c0016040529081600082018054610cb490613a22565b80601f0160208091040260200160405190810160405280929190818152602001828054610ce090613a22565b8015610d2d5780601f10610d0257610100808354040283529160200191610d2d565b820191906000526020600020905b815481529060010190602001808311610d1057829003601f168201915b5050505050815260200160018201548152602001600282018054610d5090613a22565b80601f0160208091040260200160405190810160405280929190818152602001828054610d7c90613a22565b8015610dc95780601f10610d9e57610100808354040283529160200191610dc9565b820191906000526020600020905b815481529060010190602001808311610dac57829003601f168201915b505050505081526020016003820154815260200160048201548152602001600582015481525050828281518110610e0357610e026139c4565b5b60200260200101819052508080610e1990613b99565b915050610c6a565b5080915050949350505050565b610e36612af7565b600073__FixidityLib___________________________633c4308a886866040518363ffffffff1660e01b8152600401610e71929190613959565b602060405180830381865af4158015610e8e573d6000803e3d6000fd5b505050506040513d601f19601f82011682018060405250810190610eb29190613997565b905060006040518060c001604052808881526020018581526020016040518060400160405280600381526020017f427579000000000000000000000000000000000000000000000000000000000081525081526020018781526020018681526020018381525090508092505050949350505050565b600d8181548110610f3757600080fd5b9060005260206000209060060201600091509050806000018054610f5a90613a22565b80601f0160208091040260200160405190810160405280929190818152602001828054610f8690613a22565b8015610fd35780601f10610fa857610100808354040283529160200191610fd3565b820191906000526020600020905b815481529060010190602001808311610fb657829003601f168201915b505050505090806001015490806002018054610fee90613a22565b80601f016020809104026020016040519081016040528092919081815260200182805461101a90613a22565b80156110675780601f1061103c57610100808354040283529160200191611067565b820191906000526020600020905b81548152906001019060200180831161104a57829003601f168201915b5050505050908060030154908060040154908060050154905086565b6000806000905060008060008060008061109c896121e3565b8096508197508298505050506110b36000546121e3565b8093508194508295505050508160ff168560ff16146110d85760019650886000819055505b86975050505050505050919050565b82600181905550600060076000858152602001908152602001600020905060005b85518110156111db576000868281518110611126576111256139c4565b5b602002602001015190508060200151838381548110611148576111476139c4565b5b9060005260206000209060030201600101819055508060400151838381548110611175576111746139c4565b5b90600052602060002090600302016002018190555080600001518383815481106111a2576111a16139c4565b5b906000526020600020906003020160000190805190602001906111c6929190612b2d565b505080806111d390613b99565b915050611108565b50600060096000868152602001908152602001600020905060005b8351811015611406576000848281518110611214576112136139c4565b5b602002602001015190508060000151838381548110611236576112356139c4565b5b90600052602060002090600a0201600001908051906020019061125a929190612b2d565b508060600151838381548110611273576112726139c4565b5b90600052602060002090600a0201600301819055508061012001518383815481106112a1576112a06139c4565b5b90600052602060002090600a0201600901819055508060e001518383815481106112ce576112cd6139c4565b5b90600052602060002090600a0201600701819055508061010001518383815481106112fc576112fb6139c4565b5b90600052602060002090600a0201600801819055508060400151838381548110611329576113286139c4565b5b90600052602060002090600a0201600201819055508060800151838381548110611356576113556139c4565b5b90600052602060002090600a0201600401819055508060200151838381548110611383576113826139c4565b5b90600052602060002090600a0201600101819055508060a001518383815481106113b0576113af6139c4565b5b90600052602060002090600a0201600501819055508060c001518383815481106113dd576113dc6139c4565b5b90600052602060002090600a0201600601819055505080806113fe90613b99565b9150506111f6565b5083600860008781526020019081526020016000206000820151816000019080519060200190611437929190612b2d565b506020820151816001019080519060200190611454929190612b2d565b506040820151816002019080519060200190611471929190612b2d565b50606082015181600301556080820151816004015560a0820151816005015560c0820151816006015560e082015181600701556101008201518160080155610120820151816009015561014082015181600a015561016082015181600b015561018082015181600c01556101a082015181600d01556101c082015181600e01556101e082015181600f0155905050600d600061150d9190612bb3565b505050505050565b6000806065606460038660405161152c9190613d1e565b9081526020016040518091039020546115459190613d64565b61154f9190613a82565b905080831391505092915050565b611565612af7565b61156d612af7565b600060048660405161157f9190613d1e565b9081526020016040518091039020549050600073__FixidityLib___________________________633c4308a883886040518363ffffffff1660e01b81526004016115cb929190613959565b602060405180830381865af41580156115e8573d6000803e3d6000fd5b505050506040513d601f19601f8201168201806040525081019061160c9190613997565b90508060086000878152602001908152602001600020600701541261163e5761163787838888610e2e565b9250611671565b8560086000878152602001908152602001600020600701546116609190613d64565b915061166e87838888610e2e565b92505b60006002886040516116839190613d1e565b908152602001604051809103902060006101000a81548160ff021916908315150217905550856005886040516116b99190613d1e565b9081526020016040518091039020819055508293505050509392505050565b60006003836040516116ea9190613d1e565b9081526020016040518091039020548212905092915050565b61170b612af7565b600061186c8560096000868152602001908152602001600020805480602002602001604051908101604052809291908181526020016000905b8282101561186357838290600052602060002090600a02016040518061014001604052908160008201805461177890613a22565b80601f01602080910402602001604051908101604052809291908181526020018280546117a490613a22565b80156117f15780601f106117c6576101008083540402835291602001916117f1565b820191906000526020600020905b8154815290600101906020018083116117d457829003601f168201915b50505050508152602001600182015481526020016002820154815260200160038201548152602001600482015481526020016005820154815260200160068201548152602001600782015481526020016008820154815260200160098201548152505081526020019060010190611744565b50505050612228565b905060006119888660076000878152602001908152602001600020805480602002602001604051908101604052809291908181526020016000905b8282101561197f57838290600052602060002090600302016040518060600160405290816000820180546118da90613a22565b80601f016020809104026020016040519081016040528092919081815260200182805461190690613a22565b80156119535780601f1061192857610100808354040283529160200191611953565b820191906000526020600020905b81548152906001019060200180831161193657829003601f168201915b5050505050815260200160018201548152602001600282015481525050815260200190600101906118a7565b5050505061231f565b90506000826020015190506000600760008781526020019081526020016000208054905060086000888152602001908152602001600020600901546119cd9190613d64565b9050600073__FixidityLib___________________________63f59842368386604001516040518363ffffffff1660e01b8152600401611a0e929190613959565b602060405180830381865af4158015611a2b573d6000803e3d6000fd5b505050506040513d601f19601f82011682018060405250810190611a4f9190613997565b90506000600a600c83611a629190613a82565b611a6c9190613d64565b905060008185611a7c9190613dce565b90506000611a8c8c838d8d610116565b90508a60038d604051611a9f9190613d1e565b9081526020016040518091039020819055508160048d604051611ac29190613d1e565b9081526020016040518091039020819055508a60068d604051611ae59190613d1e565b908152602001604051809103902081905550600160028d604051611b099190613d1e565b908152602001604051809103902060006101000a81548160ff02191690831515021790555080985050505050505050509392505050565b6000606473__FixidityLib___________________________632179bb6c6040518163ffffffff1660e01b8152600401602060405180830381865af4158015611b8d573d6000803e3d6000fd5b505050506040513d601f19601f82011682018060405250810190611bb19190613997565b6046611bbd9190613a82565b611bc79190613d64565b905073__FixidityLib___________________________633c4308a8600385604051611bf39190613d1e565b908152602001604051809103902054836040518363ffffffff1660e01b8152600401611c20929190613959565b602060405180830381865af4158015611c3d573d6000803e3d6000fd5b505050506040513d601f19601f82011682018060405250810190611c619190613997565b821215611de757600073__FixidityLib___________________________63b93ea812600686604051611c949190613d1e565b908152602001604051809103902054856040518363ffffffff1660e01b8152600401611cc1929190613959565b602060405180830381865af4158015611cde573d6000803e3d6000fd5b505050506040513d601f19601f82011682018060405250810190611d029190613997565b905060006064603273__FixidityLib___________________________63a5f3c23b87866040518363ffffffff1660e01b8152600401611d43929190613959565b602060405180830381865af4158015611d60573d6000803e3d6000fd5b505050506040513d601f19601f82011682018060405250810190611d849190613997565b611d8e9190613a82565b611d989190613d64565b9050600385604051611daa9190613d1e565b908152602001604051809103902054811215611de45780600386604051611dd19190613d1e565b9081526020016040518091039020819055505b50505b505050565b6000600583604051611dfe9190613d1e565b90815260200160405180910390205403611fe75780600583604051611e239190613d1e565b908152602001604051809103902081905550600073__FixidityLib___________________________63b93ea81273__FixidityLib___________________________632179bb6c6040518163ffffffff1660e01b8152600401602060405180830381865af4158015611e9a573d6000803e3d6000fd5b505050506040513d601f19601f82011682018060405250810190611ebe9190613997565b600c546040518363ffffffff1660e01b8152600401611ede929190613959565b602060405180830381865af4158015611efb573d6000803e3d6000fd5b505050506040513d601f19601f82011682018060405250810190611f1f9190613997565b9050600073__FixidityLib___________________________633c4308a8600586604051611f4d9190613d1e565b908152602001604051809103902054846040518363ffffffff1660e01b8152600401611f7a929190613959565b602060405180830381865af4158015611f97573d6000803e3d6000fd5b505050506040513d601f19601f82011682018060405250810190611fbb9190613997565b905080600385604051611fce9190613d1e565b90815260200160405180910390208190555050506121df565b600582604051611ff79190613d1e565b9081526020016040518091039020548113156121de578060058360405161201e9190613d1e565b908152602001604051809103902081905550600073__FixidityLib___________________________63b93ea81273__FixidityLib___________________________632179bb6c6040518163ffffffff1660e01b8152600401602060405180830381865af4158015612095573d6000803e3d6000fd5b505050506040513d601f19601f820116820180604052508101906120b99190613997565b600c546040518363ffffffff1660e01b81526004016120d9929190613959565b602060405180830381865af41580156120f6573d6000803e3d6000fd5b505050506040513d601f19601f8201168201806040525081019061211a9190613997565b9050600073__FixidityLib___________________________633c4308a86005866040516121489190613d1e565b908152602001604051809103902054846040518363ffffffff1660e01b8152600401612175929190613959565b602060405180830381865af4158015612192573d6000803e3d6000fd5b505050506040513d601f19601f820116820180604052508101906121b69190613997565b9050806003856040516121c99190613d1e565b90815260200160405180910390208190555050505b5b5050565b6000806000808490506121f581612416565b80955081925050506122078185612685565b809450819250505061221881612a0b565b8093508192505050509193909250565b612230612bd7565b612238612bd7565b60005b835181101561231457838181518110612257576122566139c4565b5b60200260200101516000015173__StringUtils___________________________63bed34bba9091876040518363ffffffff1660e01b815260040161229d929190613eac565b602060405180830381865af41580156122ba573d6000803e3d6000fd5b505050506040513d601f19601f820116820180604052508101906122de9190613f1b565b15612301578381815181106122f6576122f56139c4565b5b602002602001015191505b808061230c90613b99565b91505061223b565b508091505092915050565b612327612c2a565b61232f612c2a565b60005b835181101561240b5783818151811061234e5761234d6139c4565b5b60200260200101516000015173__StringUtils___________________________63bed34bba9091876040518363ffffffff1660e01b8152600401612394929190613eac565b602060405180830381865af41580156123b1573d6000803e3d6000fd5b505050506040513d601f19601f820116820180604052508101906123d59190613f1b565b156123f8578381815181106123ed576123ec6139c4565b5b602002602001015191505b808061240390613b99565b915050612332565b508091505092915050565b6000806000808493506107b292506301e1338060026124359190613f48565b84101561247e576301e133808461244c9190613fa2565b91506301e133808261245e9190613f48565b846124699190613fd3565b935081836124779190614015565b925061267e565b6301e13380600261248f9190613f48565b8461249a9190613fd3565b93506107b492506334aadc8084106125ad576334aadc80846124bc9190613fd3565b9350601c836124cb9190614015565b92506402f0605980846124de9190613fa2565b91506402f0605980826124f19190613f48565b846124fc9190613fd3565b93506101908261250c9190613f48565b836125179190614015565b925061252283612a55565b90508063ffffffff168410612555578063ffffffff16846125439190613fd3565b93506001836125529190614015565b92505b61255e83612a8c565b6125ac5763bc17c200846125729190613fa2565b915063bc17c200826125849190613f48565b8461258f9190613fd3565b935060648261259e9190613f48565b836125a99190614015565b92505b5b6307861f80846125bd9190613fa2565b91506307861f80826125cf9190613f48565b846125da9190613fd3565b93506004826125e99190613f48565b836125f49190614015565b92506125ff83612a55565b90508063ffffffff168410612632578063ffffffff16846126209190613fd3565b935060018361262f9190614015565b92505b61263b83612a8c565b61267d576301e133808461264f9190613fa2565b91506301e13380826126619190613f48565b8461266c9190613fd3565b9350818361267a9190614015565b92505b5b5050915091565b600080612690612c4b565b612698612c6e565b8593506126a485612a8c565b1561280f57604051806101a00160405280600060ff168152602001601f60ff168152602001601d60ff168152602001601f60ff168152602001601e60ff168152602001601f60ff168152602001601e60ff168152602001601f60ff168152602001601f60ff168152602001601e60ff168152602001601f60ff168152602001601e60ff168152602001601f60ff168152509150604051806101a00160405280600063ffffffff1681526020016228de8063ffffffff168152602001624f1a0063ffffffff1681526020016277f88063ffffffff168152602001629f858063ffffffff16815260200162c8640063ffffffff16815260200162eff10063ffffffff168152602001630118cf8063ffffffff168152602001630141ae0063ffffffff1681526020016301693b0063ffffffff168152602001630192198063ffffffff1681526020016301b9a68063ffffffff1681526020016301e2850063ffffffff168152509050612971565b604051806101a00160405280600060ff168152602001601f60ff168152602001601c60ff168152602001601f60ff168152602001601e60ff168152602001601f60ff168152602001601e60ff168152602001601f60ff168152602001601f60ff168152602001601e60ff168152602001601f60ff168152602001601e60ff168152602001601f60ff168152509150604051806101a00160405280600063ffffffff1681526020016228de8063ffffffff168152602001624dc88063ffffffff1681526020016276a70063ffffffff168152602001629e340063ffffffff16815260200162c7128063ffffffff16815260200162ee9f8063ffffffff1681526020016301177e0063ffffffff1681526020016301405c8063ffffffff168152602001630167e98063ffffffff168152602001630190c80063ffffffff1681526020016301b8550063ffffffff1681526020016301e1338063ffffffff1681525090505b6000600190505b600d8160ff161015612a0157818160ff16600d811061299a576129996139c4565b5b602002015163ffffffff168510156129ee57809350816001826129bd919061405a565b60ff16600d81106129d1576129d06139c4565b5b602002015163ffffffff16856129e79190613fd3565b9450612a01565b80806129f99061408e565b915050612978565b5050509250929050565b60008060008392506201518083612a229190613fa2565b90506201518081612a339190613f48565b83612a3e9190613fd3565b9250600181612a4d9190613c97565b915050915091565b6000612a6082612a8c565b15612a7f57620151806301e13380612a789190613c97565b9050612a87565b6301e1338090505b919050565b600080600483612a9c91906140b7565b61ffff1614612aae5760009050612af2565b600061019083612abe91906140b7565b61ffff161480612adf57506000606483612ad891906140b7565b61ffff1614155b15612aed5760019050612af2565b600090505b919050565b6040518060c001604052806060815260200160008152602001606081526020016000815260200160008152602001600081525090565b828054612b3990613a22565b90600052602060002090601f016020900481019282612b5b5760008555612ba2565b82601f10612b7457805160ff1916838001178555612ba2565b82800160010185558215612ba2579182015b82811115612ba1578251825591602001919060010190612b86565b5b509050612baf9190612c91565b5090565b5080546000825560060290600052602060002090810190612bd49190612cae565b50565b604051806101400160405280606081526020016000815260200160008152602001600081526020016000815260200160008152602001600081526020016000815260200160008152602001600081525090565b60405180606001604052806060815260200160008152602001600081525090565b604051806101a00160405280600d90602082028036833780820191505090505090565b604051806101a00160405280600d90602082028036833780820191505090505090565b5b80821115612caa576000816000905550600101612c92565b5090565b5b80821115612d015760008082016000612cc89190612d05565b6001820160009055600282016000612ce09190612d05565b60038201600090556004820160009055600582016000905550600601612caf565b5090565b508054612d1190613a22565b6000825580601f10612d235750612d42565b601f016020900490600052602060002090810190612d419190612c91565b5b50565b6000604051905090565b600080fd5b600080fd5b600080fd5b600080fd5b6000601f19601f8301169050919050565b7f4e487b7100000000000000000000000000000000000000000000000000000000600052604160045260246000fd5b612dac82612d63565b810181811067ffffffffffffffff82111715612dcb57612dca612d74565b5b80604052505050565b6000612dde612d45565b9050612dea8282612da3565b919050565b600067ffffffffffffffff821115612e0a57612e09612d74565b5b612e1382612d63565b9050602081019050919050565b82818337600083830152505050565b6000612e42612e3d84612def565b612dd4565b905082815260208101848484011115612e5e57612e5d612d5e565b5b612e69848285612e20565b509392505050565b600082601f830112612e8657612e85612d59565b5b8135612e96848260208601612e2f565b91505092915050565b6000819050919050565b612eb281612e9f565b8114612ebd57600080fd5b50565b600081359050612ecf81612ea9565b92915050565b6000819050919050565b612ee881612ed5565b8114612ef357600080fd5b50565b600081359050612f0581612edf565b92915050565b60008060008060808587031215612f2557612f24612d4f565b5b600085013567ffffffffffffffff811115612f4357612f42612d54565b5b612f4f87828801612e71565b9450506020612f6087828801612ec0565b9350506040612f7187828801612ec0565b9250506060612f8287828801612ef6565b91505092959194509250565b600081519050919050565b600082825260208201905092915050565b60005b83811015612fc8578082015181840152602081019050612fad565b83811115612fd7576000848401525b50505050565b6000612fe882612f8e565b612ff28185612f99565b9350613002818560208601612faa565b61300b81612d63565b840191505092915050565b61301f81612ed5565b82525050565b61302e81612e9f565b82525050565b600060c08301600083015184820360008601526130518282612fdd565b91505060208301516130666020860182613016565b506040830151848203604086015261307e8282612fdd565b91505060608301516130936060860182613025565b5060808301516130a66080860182613025565b5060a08301516130b960a0860182613025565b508091505092915050565b600060208201905081810360008301526130de8184613034565b905092915050565b600067ffffffffffffffff82111561310157613100612d74565b5b602082029050602081019050919050565b600080fd5b600080fd5b600080fd5b60006060828403121561313757613136613117565b5b6131416060612dd4565b9050600082013567ffffffffffffffff8111156131615761316061311c565b5b61316d84828501612e71565b600083015250602061318184828501612ec0565b602083015250604061319584828501612ec0565b60408301525092915050565b60006131b46131af846130e6565b612dd4565b905080838252602082019050602084028301858111156131d7576131d6613112565b5b835b8181101561321e57803567ffffffffffffffff8111156131fc576131fb612d59565b5b8086016132098982613121565b855260208501945050506020810190506131d9565b5050509392505050565b600082601f83011261323d5761323c612d59565b5b813561324d8482602086016131a1565b91505092915050565b6000610200828403121561326d5761326c613117565b5b613278610200612dd4565b9050600082013567ffffffffffffffff8111156132985761329761311c565b5b6132a484828501612e71565b600083015250602082013567ffffffffffffffff8111156132c8576132c761311c565b5b6132d484828501612e71565b602083015250604082013567ffffffffffffffff8111156132f8576132f761311c565b5b61330484828501612e71565b604083015250606061331884828501612ec0565b606083015250608061332c84828501612ec0565b60808301525060a061334084828501612ec0565b60a08301525060c061335484828501612ec0565b60c08301525060e061336884828501612ec0565b60e08301525061010061337d84828501612ec0565b6101008301525061012061339384828501612ec0565b610120830152506101406133a984828501612ec0565b610140830152506101606133bf84828501612ec0565b610160830152506101806133d584828501612ec0565b610180830152506101a06133eb84828501612ec0565b6101a0830152506101c061340184828501612ec0565b6101c0830152506101e061341784828501612ec0565b6101e08301525092915050565b600067ffffffffffffffff82111561343f5761343e612d74565b5b602082029050602081019050919050565b6000610140828403121561346757613466613117565b5b613472610140612dd4565b9050600082013567ffffffffffffffff8111156134925761349161311c565b5b61349e84828501612e71565b60008301525060206134b284828501612ec0565b60208301525060406134c684828501612ec0565b60408301525060606134da84828501612ec0565b60608301525060806134ee84828501612ec0565b60808301525060a061350284828501612ec0565b60a08301525060c061351684828501612ec0565b60c08301525060e061352a84828501612ec0565b60e08301525061010061353f84828501612ec0565b6101008301525061012061355584828501612ec0565b6101208301525092915050565b600061357561357084613424565b612dd4565b9050808382526020820190506020840283018581111561359857613597613112565b5b835b818110156135df57803567ffffffffffffffff8111156135bd576135bc612d59565b5b8086016135ca8982613450565b8552602085019450505060208101905061359a565b5050509392505050565b600082601f8301126135fe576135fd612d59565b5b813561360e848260208601613562565b91505092915050565b6000806000806080858703121561363157613630612d4f565b5b600085013567ffffffffffffffff81111561364f5761364e612d54565b5b61365b87828801613228565b945050602061366c87828801612ef6565b935050604085013567ffffffffffffffff81111561368d5761368c612d54565b5b61369987828801613256565b925050606085013567ffffffffffffffff8111156136ba576136b9612d54565b5b6136c6878288016135e9565b91505092959194509250565b600081519050919050565b600082825260208201905092915050565b6000819050602082019050919050565b600060c083016000830151848203600086015261371b8282612fdd565b91505060208301516137306020860182613016565b50604083015184820360408601526137488282612fdd565b915050606083015161375d6060860182613025565b5060808301516137706080860182613025565b5060a083015161378360a0860182613025565b508091505092915050565b600061379a83836136fe565b905092915050565b6000602082019050919050565b60006137ba826136d2565b6137c481856136dd565b9350836020820285016137d6856136ee565b8060005b8581101561381257848403895281516137f3858261378e565b94506137fe836137a2565b925060208a019950506001810190506137da565b50829750879550505050505092915050565b6000602082019050818103600083015261383e81846137af565b905092915050565b60006020828403121561385c5761385b612d4f565b5b600061386a84828501612ef6565b91505092915050565b600082825260208201905092915050565b600061388f82612f8e565b6138998185613873565b93506138a9818560208601612faa565b6138b281612d63565b840191505092915050565b6138c681612ed5565b82525050565b6138d581612e9f565b82525050565b600060c08201905081810360008301526138f58189613884565b905061390460208301886138bd565b81810360408301526139168187613884565b905061392560608301866138cc565b61393260808301856138cc565b61393f60a08301846138cc565b979650505050505050565b61395381612e9f565b82525050565b600060408201905061396e600083018561394a565b61397b602083018461394a565b9392505050565b60008151905061399181612ea9565b92915050565b6000602082840312156139ad576139ac612d4f565b5b60006139bb84828501613982565b91505092915050565b7f4e487b7100000000000000000000000000000000000000000000000000000000600052603260045260246000fd5b7f4e487b7100000000000000000000000000000000000000000000000000000000600052602260045260246000fd5b60006002820490506001821680613a3a57607f821691505b602082108103613a4d57613a4c6139f3565b5b50919050565b7f4e487b7100000000000000000000000000000000000000000000000000000000600052601160045260246000fd5b6000613a8d82612e9f565b9150613a9883612e9f565b9250827f7fffffffffffffffffffffffffffffffffffffffffffffffffffffffffffffff0482116000841360008413161615613ad757613ad6613a53565b5b817f80000000000000000000000000000000000000000000000000000000000000000583126000841260008413161615613b1457613b13613a53565b5b827f80000000000000000000000000000000000000000000000000000000000000000582126000841360008412161615613b5157613b50613a53565b5b827f7fffffffffffffffffffffffffffffffffffffffffffffffffffffffffffffff0582126000841260008412161615613b8e57613b8d613a53565b5b828202905092915050565b6000613ba482612ed5565b91507fffffffffffffffffffffffffffffffffffffffffffffffffffffffffffffffff8203613bd657613bd5613a53565b5b600182019050919050565b600081905092915050565b60008190508160005260206000209050919050565b60008154613c0e81613a22565b613c188186613be1565b94506001821660008114613c335760018114613c4457613c77565b60ff19831686528186019350613c77565b613c4d85613bec565b60005b83811015613c6f57815481890152600182019150602081019050613c50565b838801955050505b50505092915050565b6000613c8c8284613c01565b915081905092915050565b6000613ca282612ed5565b9150613cad83612ed5565b9250827fffffffffffffffffffffffffffffffffffffffffffffffffffffffffffffffff03821115613ce257613ce1613a53565b5b828201905092915050565b6000613cf882612f8e565b613d028185613be1565b9350613d12818560208601612faa565b80840191505092915050565b6000613d2a8284613ced565b915081905092915050565b7f4e487b7100000000000000000000000000000000000000000000000000000000600052601260045260246000fd5b6000613d6f82612e9f565b9150613d7a83612e9f565b925082613d8a57613d89613d35565b5b600160000383147f800000000000000000000000000000000000000000000000000000000000000083141615613dc357613dc2613a53565b5b828205905092915050565b6000613dd982612e9f565b9150613de483612e9f565b9250827f800000000000000000000000000000000000000000000000000000000000000001821260008412151615613e1f57613e1e613a53565b5b827f7fffffffffffffffffffffffffffffffffffffffffffffffffffffffffffffff018213600084121615613e5757613e56613a53565b5b828203905092915050565b600082825260208201905092915050565b6000613e7e82612f8e565b613e888185613e62565b9350613e98818560208601612faa565b613ea181612d63565b840191505092915050565b60006040820190508181036000830152613ec68185613e73565b90508181036020830152613eda8184613e73565b90509392505050565b60008115159050919050565b613ef881613ee3565b8114613f0357600080fd5b50565b600081519050613f1581613eef565b92915050565b600060208284031215613f3157613f30612d4f565b5b6000613f3f84828501613f06565b91505092915050565b6000613f5382612ed5565b9150613f5e83612ed5565b9250817fffffffffffffffffffffffffffffffffffffffffffffffffffffffffffffffff0483118215151615613f9757613f96613a53565b5b828202905092915050565b6000613fad82612ed5565b9150613fb883612ed5565b925082613fc857613fc7613d35565b5b828204905092915050565b6000613fde82612ed5565b9150613fe983612ed5565b925082821015613ffc57613ffb613a53565b5b828203905092915050565b600061ffff82169050919050565b600061402082614007565b915061402b83614007565b92508261ffff0382111561404257614041613a53565b5b828201905092915050565b600060ff82169050919050565b60006140658261404d565b91506140708361404d565b92508282101561408357614082613a53565b5b828203905092915050565b60006140998261404d565b915060ff82036140ac576140ab613a53565b5b600182019050919050565b60006140c282614007565b91506140cd83614007565b9250826140dd576140dc613d35565b5b82820690509291505056fea2646970667358221220b7751f83c583c58bb7265f53984905bbd8fae33bd50ca3a149c4d6dcf550e3f364736f6c634300080d0033",
  "immutableReferences": {},
  "source": "pragma solidity ^0.8.13;\r\nimport \"./utils/DateUtils.sol\";\r\nimport \"./utils/FixidityLib.sol\";\r\nimport \"./agents/TradeAgent.sol\";\r\nimport \"./Object.sol\";\r\n\r\ncontract RebalanceMarginWifMaxDrawdownControl is Object, TradeAgent{\r\n    using DateUtils for *;\r\n    using StringUtils for string;\r\n    event LogActionMsg(string actionMsgs);\r\n\r\n    uint256 lastExecutedTimestamp;\r\n    uint256 timestamp;\r\n    mapping (string => bool) maxDrawdownDodge;\r\n    mapping (string => int256) benchmarkDrawdownPrice;\r\n    mapping (string => int256) liquidateTickerQty;\r\n    mapping (string => int256) maxStockPrice;\r\n    mapping (string => int256) liquidateTickerPrice;\r\n    mapping (uint256 => RealTimeTickerData[]) realTimeTickersData;\r\n    mapping (uint256 => PortfolioData)  portfolioData;\r\n    mapping (uint256 => PortfolioHolding[]) portfolioHoldingsData;\r\n    uint256 loop = 0;\r\n    int256 rebalanceMargin = int256(5) * FixidityLib.fixed1() / int256(100);\r\n    int256 maxDrawdown = int256(5) * FixidityLib.fixed1() / int256(1000);\r\n    ActionMsg[] public actionMsgs;\r\n\r\n    constructor(RealTimeTickerData[] memory _realTimeTickersData){\r\n//        lastExecutedTimestamp = block.timestamp;\r\n        for (uint i=0; i < _realTimeTickersData.length; i++){\r\n            RealTimeTickerData memory tickerData = _realTimeTickersData[i];\r\n            string memory tickerName = tickerData.tickerName;\r\n            maxDrawdownDodge[tickerName] = false;\r\n            benchmarkDrawdownPrice[tickerName] = 0;\r\n            liquidateTickerQty[tickerName] = 0;\r\n            maxStockPrice[tickerName] = 0;\r\n            liquidateTickerPrice[tickerName] = 0;\r\n        }\r\n    }\r\n\r\n    function run(RealTimeTickerData[] memory _tickerData, uint256 _timeStamp, PortfolioData memory _portfolioData, PortfolioHolding[] memory _portfolioHoldings) public returns (ActionMsg[] memory){\r\n\r\n        require(checkExecution(timestamp));\r\n        renewContractState(_tickerData, _timeStamp, _portfolioData, _portfolioHoldings);\r\n        if(loop == 0){\r\n            int256 capitalForEachStock = FixidityLib.divide(portfolioData[_timeStamp].TotalCashValue, int256(realTimeTickersData[_timeStamp].length));\r\n            for (uint i=0; i < realTimeTickersData[_timeStamp].length; i++){\r\n                RealTimeTickerData memory tickerData = realTimeTickersData[_timeStamp][i];\r\n                string memory tickerName = tickerData.tickerName;\r\n                int256 tickerPrice = tickerData.last;\r\n                int256 sharePurchase = FixidityLib.divide(capitalForEachStock,tickerData.last) * 3;\r\n                ActionMsg memory actionMsg = TradeAgent.placeBuyStockLimitOrderMsg(tickerName,sharePurchase,tickerPrice,_timeStamp);\r\n                actionMsgs.push(actionMsg);\r\n            }\r\n        }\r\n        else{\r\n            int256 targetExLiq = FixidityLib.multiply(rebalanceMargin, portfolioData[_timeStamp].GrossPositionValue);\r\n            for (uint i=0; i < realTimeTickersData[_timeStamp].length; i++){\r\n                int256 tickerPrice = realTimeTickersData[_timeStamp][i].last;\r\n                string memory tickerName = realTimeTickersData[_timeStamp][i].tickerName;\r\n                if (maxDrawdownDodge[realTimeTickersData[_timeStamp][i].tickerName]){\r\n                    if (checkBuyBack(tickerName, tickerPrice)){\r\n                        ActionMsg memory actionMsg = buyBackPosition(tickerName, tickerPrice,_timeStamp);\r\n                        actionMsgs.push(actionMsg);\r\n                    }\r\n                }else{\r\n                    if(checkMaxDrawdownDodge(tickerName,tickerPrice)){\r\n                        ActionMsg memory actionMsg = liquidateTickerPosition(tickerName, tickerPrice ,_timeStamp);\r\n                    }\r\n                    else{\r\n                        if (portfolioData[_timeStamp].ExcessLiquidity > targetExLiq) {\r\n                            int256 exLiqDiff = FixidityLib.subtract(portfolioData[_timeStamp].ExcessLiquidity, targetExLiq);\r\n                            int256 targetSharePurchase = FixidityLib.divide(exLiqDiff,tickerPrice);\r\n\r\n                            if (targetSharePurchase > 0){\r\n                                ActionMsg memory actionMsg = super.placeBuyStockLimitOrderMsg(tickerName,targetSharePurchase,tickerPrice,_timeStamp);\r\n                                actionMsgs.push(actionMsg);\r\n                            }\r\n                        }\r\n                    }\r\n                }\r\n            }\r\n\r\n            for (uint i=0; i < realTimeTickersData[_timeStamp].length; i++){\r\n                int256 tickerPrice = realTimeTickersData[_timeStamp][i].last;\r\n                string memory tickerName = realTimeTickersData[_timeStamp][i].tickerName;\r\n                if (maxDrawdownDodge[realTimeTickersData[_timeStamp][i].tickerName]){\r\n                    updateBenchmarkDrawdownPriceAfterDodge(tickerName, tickerPrice);\r\n                }\r\n                else{\r\n                    updateBenchmarkDrawdownPriceBeforeDodge(tickerName, tickerPrice);\r\n                }\r\n            }\r\n        }\r\n        lastExecutedTimestamp = _timeStamp;\r\n        loop = loop + 1;\r\n\r\n        ActionMsg[] memory msgs = new ActionMsg[](actionMsgs.length);\r\n        for (uint i = 0; i < actionMsgs.length; i++) {\r\n            msgs[i] = actionMsgs[i];\r\n        }\r\n\r\n        return msgs;\r\n    }\r\n\r\n    function renewContractState(RealTimeTickerData[] memory _tickersData, uint256 _timeStamp, PortfolioData memory _portfolioData, PortfolioHolding[] memory _portfolioHoldings) private{\r\n        timestamp = _timeStamp;\r\n\r\n        RealTimeTickerData[] storage _realTimeTickerArray = realTimeTickersData[_timeStamp];\r\n        for (uint i = 0; i < _tickersData.length; i++) {\r\n            RealTimeTickerData memory _tickerData = _tickersData[i];\r\n            _realTimeTickerArray[i].bidPrice =_tickerData.bidPrice;\r\n            _realTimeTickerArray[i].last =_tickerData.last;\r\n            _realTimeTickerArray[i].tickerName =_tickerData.tickerName;\r\n        }\r\n\r\n        PortfolioHolding[] storage _portfolioHoldingArray = portfolioHoldingsData[_timeStamp];\r\n        for (uint i = 0; i < _portfolioHoldings.length; i++) {\r\n            PortfolioHolding memory _portfolioHolding = _portfolioHoldings[i];\r\n            _portfolioHoldingArray[i].tickerName = _portfolioHolding.tickerName;\r\n            _portfolioHoldingArray[i].averageCost = _portfolioHolding.averageCost;\r\n            _portfolioHoldingArray[i].costBasis = _portfolioHolding.costBasis;\r\n            _portfolioHoldingArray[i].initMarginReq = _portfolioHolding.initMarginReq;\r\n            _portfolioHoldingArray[i].maintMarginReq = _portfolioHolding.maintMarginReq;\r\n            _portfolioHoldingArray[i].marketPrice = _portfolioHolding.marketPrice;\r\n            _portfolioHoldingArray[i].marketValue = _portfolioHolding.marketValue;\r\n            _portfolioHoldingArray[i].position = _portfolioHolding.position;\r\n            _portfolioHoldingArray[i].realizedPNL = _portfolioHolding.realizedPNL;\r\n            _portfolioHoldingArray[i].unrealizedPNL = _portfolioHolding.unrealizedPNL;\r\n        }\r\n\r\n        portfolioData[_timeStamp] = _portfolioData;\r\n        delete actionMsgs;\r\n    }\r\n\r\n    function checkExecution(uint256 _timestamp) internal returns (bool){\r\n\r\n        bool exec = false;\r\n        uint16 _year;\r\n        uint8 _month;\r\n        uint8 _day;\r\n\r\n        uint16 _lastYear;\r\n        uint8 _lastMonth;\r\n        uint8 _lastday;\r\n\r\n        (_year, _month, _day) = DateUtils.convertTimestampToYMD(_timestamp);\r\n        (_lastYear, _lastMonth, _lastday) = DateUtils.convertTimestampToYMD(lastExecutedTimestamp);\r\n        if (_month != _lastMonth){\r\n            exec = true;\r\n            lastExecutedTimestamp = _timestamp;\r\n            }\r\n        return exec;\r\n    }\r\n\r\n\r\n    function checkBuyBack(string memory tickerName, int256 realTimeTickerPrice)internal returns (bool){\r\n//        range_price = self.benchmark_drawdown_price.get(ticker) * (1 + 0.01)\r\n//        return ticker_price > range_price\r\n        int256 rangePrice = benchmarkDrawdownPrice[tickerName] /100*101;\r\n        return realTimeTickerPrice > rangePrice;\r\n    }\r\n\r\n    function buyBackPosition(string memory tickerName, int256 tickerPrice, uint256 _timeStamp) internal returns (ActionMsg memory) {\r\n        ActionMsg memory actionMsg;\r\n        int256 targetSharePurchase = liquidateTickerQty[tickerName];\r\n        int256 purchaseAmount =  FixidityLib.multiply(targetSharePurchase, tickerPrice);\r\n        if (portfolioData[_timeStamp].BuyingPower >= purchaseAmount){\r\n            actionMsg = super.placeBuyStockLimitOrderMsg(tickerName,targetSharePurchase,tickerPrice,_timeStamp);\r\n        }else{\r\n            targetSharePurchase = portfolioData[_timeStamp].BuyingPower / tickerPrice;\r\n            actionMsg = super.placeBuyStockLimitOrderMsg(tickerName,targetSharePurchase,tickerPrice,_timeStamp);\r\n        }\r\n\r\n        maxDrawdownDodge[tickerName] = false;\r\n        maxStockPrice[tickerName] = tickerPrice;\r\n\r\n        return actionMsg;\r\n    }\r\n\r\n\r\n    function checkMaxDrawdownDodge(string memory tickerName, int256 tickerPrice) private returns (bool){\r\n        return tickerPrice < benchmarkDrawdownPrice[tickerName];\r\n    }\r\n\r\n    function updateBenchmarkDrawdownPriceAfterDodge(string memory tickerName, int256 tickerPrice) private{\r\n//        if real_time_ticker_price < self.benchmark_drawdown_price[ticker] * 0.7:\r\n//            target_update_benchmark_drawdown_price = real_time_ticker_price + (\r\n//                    (self.liq_sold_price_dict[ticker] - real_time_ticker_price) * 0.5)\r\n//            if target_update_benchmark_drawdown_price < self.benchmark_drawdown_price[ticker]:\r\n//                self.benchmark_drawdown_price[ticker] = target_update_benchmark_drawdown_price\r\n\r\n        int256 benchmarkDrawdownFactor = int256(70) * FixidityLib.fixed1() / int256(100);\r\n        if (tickerPrice < FixidityLib.multiply(benchmarkDrawdownPrice[tickerName] , benchmarkDrawdownFactor)){\r\n\r\n            int256 tickerDiff = FixidityLib.subtract(liquidateTickerPrice[tickerName],tickerPrice);\r\n            int256 targetUpdateBenchmarkDrawdownPrice = FixidityLib.add(tickerPrice, tickerDiff) * 50 / 100;\r\n            if (targetUpdateBenchmarkDrawdownPrice < benchmarkDrawdownPrice[tickerName]){\r\n                benchmarkDrawdownPrice[tickerName] = targetUpdateBenchmarkDrawdownPrice;\r\n            }\r\n        }\r\n    }\r\n\r\n    function updateBenchmarkDrawdownPriceBeforeDodge(string memory tickerName, int256 realTimeTickerPrice) private{\r\n//        if (self.max_stock_price.get(ticker) == 0):  # if there is no data for the max and benchmark price\r\n//            self.max_stock_price.update({ticker: real_time_ticker_price})\r\n//            benchmark_price = real_time_ticker_price * (1 - self.max_drawdown_ratio)\r\n//            self.benchmark_drawdown_price.update({ticker: benchmark_price})\r\n//        elif real_time_ticker_price > self.max_stock_price.get(ticker):\r\n//            self.max_stock_price.update({ticker: real_time_ticker_price})\r\n//            benchmark_price = real_time_ticker_price * (1 - self.max_drawdown_ratio)\r\n//            self.benchmark_drawdown_price.update({ticker: benchmark_price})\r\n\r\n        if (maxStockPrice[tickerName] == 0){\r\n            maxStockPrice[tickerName] = realTimeTickerPrice;\r\n            int256 drawDownFactor = FixidityLib.subtract(FixidityLib.fixed1(), maxDrawdown);\r\n            int256 tickerBenchmarkPrice = FixidityLib.multiply(maxStockPrice[tickerName], drawDownFactor);\r\n            benchmarkDrawdownPrice[tickerName] = tickerBenchmarkPrice;\r\n        }\r\n        else if (realTimeTickerPrice > maxStockPrice[tickerName]){\r\n            maxStockPrice[tickerName] = realTimeTickerPrice;\r\n            int256 drawDownFactor = FixidityLib.subtract(FixidityLib.fixed1(), maxDrawdown);\r\n            int256 tickerBenchmarkPrice = FixidityLib.multiply(maxStockPrice[tickerName], drawDownFactor);\r\n            benchmarkDrawdownPrice[tickerName] = tickerBenchmarkPrice;\r\n        }\r\n\r\n    }\r\n\r\n    function liquidateTickerPosition(string memory tickerName, int256 tickerPrice, uint256 _timeStamp) private returns (ActionMsg memory){\r\n        PortfolioHolding memory holding = getPortfolioHoldingByTickerName(tickerName, portfolioHoldingsData[_timeStamp]);\r\n        RealTimeTickerData memory tickerData = getRealTimeTickerDataByTickerName(tickerName, realTimeTickersData[_timeStamp]);\r\n        int256 currentPosition = holding.position;\r\n        int256 noLeverageEquity = portfolioData[_timeStamp].EquityWithLoanValue / int256(realTimeTickersData[_timeStamp].length);\r\n        int256 noLeveragePosition = FixidityLib.divide(noLeverageEquity,tickerData.last);\r\n        int256 targetLeveragePositionAtLiquidState = noLeveragePosition * 12 / 10;\r\n\r\n        int256 targetSoldPosition = currentPosition - targetLeveragePositionAtLiquidState;\r\n        ActionMsg memory actionMsg = super.placeSellStockLimitOrderMsg(tickerName,targetSoldPosition,tickerPrice, _timeStamp);\r\n\r\n        benchmarkDrawdownPrice[tickerName] = tickerPrice;\r\n        liquidateTickerQty[tickerName] = targetSoldPosition;\r\n        liquidateTickerPrice[tickerName] = tickerPrice;\r\n        maxDrawdownDodge[tickerName] = true;\r\n\r\n        return actionMsg;\r\n    }\r\n\r\n    function getPortfolioHoldingByTickerName(string memory tickerName, PortfolioHolding[] memory holdings) private returns (PortfolioHolding memory){\r\n        PortfolioHolding memory holding;\r\n        for(uint i=0; i< holdings.length; i++){\r\n            if(holdings[i].tickerName.compareStrings(tickerName)){\r\n                holding = holdings[i];\r\n            }\r\n        }\r\n        return holding;\r\n    }\r\n\r\n    function getRealTimeTickerDataByTickerName(string memory tickerName,  RealTimeTickerData[] memory realTimeTickersData) private returns (RealTimeTickerData memory){\r\n        RealTimeTickerData memory realTimeTickerData;\r\n        for (uint i=0; i<realTimeTickersData.length; i++){\r\n            if(realTimeTickersData[i].tickerName.compareStrings(tickerName)){\r\n                realTimeTickerData = realTimeTickersData[i];\r\n            }\r\n        }\r\n        return realTimeTickerData;\r\n    }\r\n}\r\n",
  "sourcePath": "C:\\Users\\lam\\Documents\\GitHub\\IndexTradingApplication\\contract\\contracts\\RebalanceMarginWifMaxDrawdownControl.sol",
  "compiler": {
    "name": "solc",
    "version": "0.8.13+commit.abaa5c0e.Emscripten.clang"
  },
  "schemaVersion": "3.4.7",
  "updatedAt": "2022-06-21T03:27:22.098Z",
  "devdoc": {
    "kind": "dev",
    "methods": {},
    "version": 1
  },
  "userdoc": {
    "kind": "user",
    "methods": {},
    "version": 1
  }
}