{
  "contractName": "RebalanceMarginWifMaxDrawdownControl",
  "abi": [
    {
      "inputs": [],
      "stateMutability": "nonpayable",
      "type": "constructor"
    },
    {
      "anonymous": false,
      "inputs": [
        {
          "indexed": false,
          "internalType": "string",
          "name": "actionMsgs",
          "type": "string"
        }
      ],
      "name": "LogActionMsg",
      "type": "event"
    },
    {
      "inputs": [
        {
          "internalType": "uint256",
          "name": "",
          "type": "uint256"
        }
      ],
      "name": "actionMsgs",
      "outputs": [
        {
          "internalType": "string",
          "name": "tickerName",
          "type": "string"
        },
        {
          "internalType": "uint256",
          "name": "timestamp",
          "type": "uint256"
        },
        {
          "internalType": "string",
          "name": "transactionType",
          "type": "string"
        },
        {
          "internalType": "int256",
          "name": "positionAction",
          "type": "int256"
        },
        {
          "internalType": "int256",
          "name": "transactionTickerPrice",
          "type": "int256"
        },
        {
          "internalType": "int256",
          "name": "transactionAmount",
          "type": "int256"
        }
      ],
      "stateMutability": "view",
      "type": "function",
      "constant": true
    },
    {
      "inputs": [
        {
          "internalType": "string",
          "name": "_tickerName",
          "type": "string"
        },
        {
          "internalType": "int256",
          "name": "_targetSharePurchase",
          "type": "int256"
        },
        {
          "internalType": "int256",
          "name": "_transactionTickerPrice",
          "type": "int256"
        },
        {
          "internalType": "uint256",
          "name": "_timestamp",
          "type": "uint256"
        }
      ],
      "name": "placeBuyStockLimitOrderMsg",
      "outputs": [
        {
          "components": [
            {
              "internalType": "string",
              "name": "tickerName",
              "type": "string"
            },
            {
              "internalType": "uint256",
              "name": "timestamp",
              "type": "uint256"
            },
            {
              "internalType": "string",
              "name": "transactionType",
              "type": "string"
            },
            {
              "internalType": "int256",
              "name": "positionAction",
              "type": "int256"
            },
            {
              "internalType": "int256",
              "name": "transactionTickerPrice",
              "type": "int256"
            },
            {
              "internalType": "int256",
              "name": "transactionAmount",
              "type": "int256"
            }
          ],
          "internalType": "struct Object.ActionMsg",
          "name": "",
          "type": "tuple"
        }
      ],
      "stateMutability": "nonpayable",
      "type": "function"
    },
    {
      "inputs": [
        {
          "internalType": "string",
          "name": "_tickerName",
          "type": "string"
        },
        {
          "internalType": "int256",
          "name": "_targetShareSell",
          "type": "int256"
        },
        {
          "internalType": "int256",
          "name": "_transactionTickerPrice",
          "type": "int256"
        },
        {
          "internalType": "uint256",
          "name": "_timestamp",
          "type": "uint256"
        }
      ],
      "name": "placeSellStockLimitOrderMsg",
      "outputs": [
        {
          "components": [
            {
              "internalType": "string",
              "name": "tickerName",
              "type": "string"
            },
            {
              "internalType": "uint256",
              "name": "timestamp",
              "type": "uint256"
            },
            {
              "internalType": "string",
              "name": "transactionType",
              "type": "string"
            },
            {
              "internalType": "int256",
              "name": "positionAction",
              "type": "int256"
            },
            {
              "internalType": "int256",
              "name": "transactionTickerPrice",
              "type": "int256"
            },
            {
              "internalType": "int256",
              "name": "transactionAmount",
              "type": "int256"
            }
          ],
          "internalType": "struct Object.ActionMsg",
          "name": "",
          "type": "tuple"
        }
      ],
      "stateMutability": "nonpayable",
      "type": "function"
    },
    {
      "inputs": [
        {
          "components": [
            {
              "internalType": "string",
              "name": "tickerName",
              "type": "string"
            },
            {
              "internalType": "int256",
              "name": "bidPrice",
              "type": "int256"
            },
            {
              "internalType": "int256",
              "name": "last",
              "type": "int256"
            }
          ],
          "internalType": "struct Object.RealTimeTickerData[]",
          "name": "_tickerData",
          "type": "tuple[]"
        },
        {
          "internalType": "uint256",
          "name": "_timeStamp",
          "type": "uint256"
        },
        {
          "components": [
            {
              "internalType": "string",
              "name": "AccountCode",
              "type": "string"
            },
            {
              "internalType": "string",
              "name": "Currency",
              "type": "string"
            },
            {
              "internalType": "string",
              "name": "ExchangeRate",
              "type": "string"
            },
            {
              "internalType": "int256",
              "name": "FullInitMarginReq",
              "type": "int256"
            },
            {
              "internalType": "int256",
              "name": "FullMainMarginReq",
              "type": "int256"
            },
            {
              "internalType": "int256",
              "name": "AvailableFunds",
              "type": "int256"
            },
            {
              "internalType": "int256",
              "name": "ExcessLiquidity",
              "type": "int256"
            },
            {
              "internalType": "int256",
              "name": "BuyingPower",
              "type": "int256"
            },
            {
              "internalType": "int256",
              "name": "Leverage",
              "type": "int256"
            },
            {
              "internalType": "int256",
              "name": "EquityWithLoanValue",
              "type": "int256"
            },
            {
              "internalType": "int256",
              "name": "TotalCashValue",
              "type": "int256"
            },
            {
              "internalType": "int256",
              "name": "NetDividend",
              "type": "int256"
            },
            {
              "internalType": "int256",
              "name": "NetLiquidation",
              "type": "int256"
            },
            {
              "internalType": "int256",
              "name": "UnrealizedPnL",
              "type": "int256"
            },
            {
              "internalType": "int256",
              "name": "RealizedPnL",
              "type": "int256"
            },
            {
              "internalType": "int256",
              "name": "GrossPositionValue",
              "type": "int256"
            }
          ],
          "internalType": "struct Object.PortfolioData",
          "name": "_portfolioData",
          "type": "tuple"
        },
        {
          "components": [
            {
              "internalType": "string",
              "name": "tickerName",
              "type": "string"
            },
            {
              "internalType": "int256",
              "name": "position",
              "type": "int256"
            },
            {
              "internalType": "int256",
              "name": "marketPrice",
              "type": "int256"
            },
            {
              "internalType": "int256",
              "name": "averageCost",
              "type": "int256"
            },
            {
              "internalType": "int256",
              "name": "marketValue",
              "type": "int256"
            },
            {
              "internalType": "int256",
              "name": "realizedPNL",
              "type": "int256"
            },
            {
              "internalType": "int256",
              "name": "unrealizedPNL",
              "type": "int256"
            },
            {
              "internalType": "int256",
              "name": "initMarginReq",
              "type": "int256"
            },
            {
              "internalType": "int256",
              "name": "maintMarginReq",
              "type": "int256"
            },
            {
              "internalType": "int256",
              "name": "costBasis",
              "type": "int256"
            }
          ],
          "internalType": "struct Object.PortfolioHolding[]",
          "name": "_portfolioHoldings",
          "type": "tuple[]"
        }
      ],
      "name": "run",
      "outputs": [
        {
          "components": [
            {
              "internalType": "string",
              "name": "tickerName",
              "type": "string"
            },
            {
              "internalType": "uint256",
              "name": "timestamp",
              "type": "uint256"
            },
            {
              "internalType": "string",
              "name": "transactionType",
              "type": "string"
            },
            {
              "internalType": "int256",
              "name": "positionAction",
              "type": "int256"
            },
            {
              "internalType": "int256",
              "name": "transactionTickerPrice",
              "type": "int256"
            },
            {
              "internalType": "int256",
              "name": "transactionAmount",
              "type": "int256"
            }
          ],
          "internalType": "struct Object.ActionMsg[]",
          "name": "",
          "type": "tuple[]"
        }
      ],
      "stateMutability": "nonpayable",
      "type": "function"
    }
  ],
  "bytecode": "0x60806040526000600a55606473__FixidityLib___________________________632179bb6c6040518163ffffffff1660e01b8152600401602060405180830381865af415801562000055573d6000803e3d6000fd5b505050506040513d601f19601f820116820180604052508101906200007b91906200017c565b6005620000899190620001dd565b62000095919062000333565b600b556103e873__FixidityLib___________________________632179bb6c6040518163ffffffff1660e01b8152600401602060405180830381865af4158015620000e5573d6000803e3d6000fd5b505050506040513d601f19601f820116820180604052508101906200010b91906200017c565b6005620001199190620001dd565b62000125919062000333565b600c553480156200013557600080fd5b50620003a7565b600080fd5b6000819050919050565b620001568162000141565b81146200016257600080fd5b50565b60008151905062000176816200014b565b92915050565b6000602082840312156200019557620001946200013c565b5b6000620001a58482850162000165565b91505092915050565b7f4e487b7100000000000000000000000000000000000000000000000000000000600052601160045260246000fd5b6000620001ea8262000141565b9150620001f78362000141565b9250827f7fffffffffffffffffffffffffffffffffffffffffffffffffffffffffffffff0482116000841360008413161615620002395762000238620001ae565b5b817f80000000000000000000000000000000000000000000000000000000000000000583126000841260008413161615620002795762000278620001ae565b5b827f80000000000000000000000000000000000000000000000000000000000000000582126000841360008412161615620002b957620002b8620001ae565b5b827f7fffffffffffffffffffffffffffffffffffffffffffffffffffffffffffffff0582126000841260008412161615620002f957620002f8620001ae565b5b828202905092915050565b7f4e487b7100000000000000000000000000000000000000000000000000000000600052601260045260246000fd5b6000620003408262000141565b91506200034d8362000141565b92508262000360576200035f62000304565b5b600160000383147f8000000000000000000000000000000000000000000000000000000000000000831416156200039c576200039b620001ae565b5b828205905092915050565b61423a80620003b76000396000f3fe608060405234801561001057600080fd5b506004361061004c5760003560e01c806314ea6c19146100515780634358f911146100815780634f8ac98d146100b1578063d313b78c146100e1575b600080fd5b61006b60048036038101906100669190613027565b610116565b60405161007891906131e0565b60405180910390f35b61009b60048036038101906100969190613733565b61020f565b6040516100a89190613940565b60405180910390f35b6100cb60048036038101906100c69190613027565b610e2e565b6040516100d891906131e0565b60405180910390f35b6100fb60048036038101906100f69190613962565b610f27565b60405161010d969594939291906139f7565b60405180910390f35b61011e612c13565b600073__FixidityLib___________________________633c4308a886866040518363ffffffff1660e01b8152600401610159929190613a75565b602060405180830381865af4158015610176573d6000803e3d6000fd5b505050506040513d601f19601f8201168201806040525081019061019a9190613ab3565b905060006040518060c001604052808881526020018581526020016040518060400160405280600481526020017f53656c6c0000000000000000000000000000000000000000000000000000000081525081526020018781526020018681526020018381525090508092505050949350505050565b606061021c600154611083565b61022557600080fd5b610231858585856110e7565b6000600a540361054d57600073__FixidityLib___________________________63f598423660086000888152602001908152602001600020600a015460076000898152602001908152602001600020805490506040518363ffffffff1660e01b81526004016102a2929190613a75565b602060405180830381865af41580156102bf573d6000803e3d6000fd5b505050506040513d601f19601f820116820180604052508101906102e39190613ab3565b905060005b600760008781526020019081526020016000208054905081101561054657600060076000888152602001908152602001600020828154811061032d5761032c613ae0565b5b906000526020600020906003020160405180606001604052908160008201805461035690613b3e565b80601f016020809104026020016040519081016040528092919081815260200182805461038290613b3e565b80156103cf5780601f106103a4576101008083540402835291602001916103cf565b820191906000526020600020905b8154815290600101906020018083116103b257829003601f168201915b505050505081526020016001820154815260200160028201548152505090506000816000015190506000826040015190506000600373__FixidityLib___________________________63f59842368887604001516040518363ffffffff1660e01b8152600401610441929190613a75565b602060405180830381865af415801561045e573d6000803e3d6000fd5b505050506040513d601f19601f820116820180604052508101906104829190613ab3565b61048c9190613b9e565b9050600061049c8483858e610e2e565b9050600d81908060018154018082558091505060019003906000526020600020906006020160009091909190915060008201518160000190805190602001906104e6929190612c49565b5060208201518160010155604082015181600201908051906020019061050d929190612c49565b50606082015181600301556080820151816004015560a0820151816005015550505050505050808061053e90613cb5565b9150506102e8565b5050610bee565b600073__FixidityLib___________________________633c4308a8600b5460086000898152602001908152602001600020600f01546040518363ffffffff1660e01b81526004016105a0929190613a75565b602060405180830381865af41580156105bd573d6000803e3d6000fd5b505050506040513d601f19601f820116820180604052508101906105e19190613ab3565b905060005b6007600087815260200190815260200160002080549050811015610a3657600060076000888152602001908152602001600020828154811061062b5761062a613ae0565b5b9060005260206000209060030201600201549050600060076000898152602001908152602001600020838154811061066657610665613ae0565b5b9060005260206000209060030201600001805461068290613b3e565b80601f01602080910402602001604051908101604052809291908181526020018280546106ae90613b3e565b80156106fb5780601f106106d0576101008083540402835291602001916106fb565b820191906000526020600020905b8154815290600101906020018083116106de57829003601f168201915b505050505090506002600760008a8152602001908152602001600020848154811061072957610728613ae0565b5b90600052602060002090600302016000016040516107479190613d9c565b908152602001604051809103902060009054906101000a900460ff161561081d576107728183611631565b1561081857600061078482848b611679565b9050600d81908060018154018082558091505060019003906000526020600020906006020160009091909190915060008201518160000190805190602001906107ce929190612c49565b506020820151816001015560408201518160020190805190602001906107f5929190612c49565b50606082015181600301556080820151816004015560a082015181600501555050505b610a21565b61082781836117f4565b1561084157600061083982848b61181f565b905050610a20565b83600860008a8152602001908152602001600020600601541315610a1f57600073__FixidityLib___________________________63b93ea812600860008c815260200190815260200160002060060154876040518363ffffffff1660e01b81526004016108b0929190613a75565b602060405180830381865af41580156108cd573d6000803e3d6000fd5b505050506040513d601f19601f820116820180604052508101906108f19190613ab3565b9050600073__FixidityLib___________________________63f598423683866040518363ffffffff1660e01b815260040161092e929190613a75565b602060405180830381865af415801561094b573d6000803e3d6000fd5b505050506040513d601f19601f8201168201806040525081019061096f9190613ab3565b90506000811315610a1c5760006109888483878e610e2e565b9050600d81908060018154018082558091505060019003906000526020600020906006020160009091909190915060008201518160000190805190602001906109d2929190612c49565b506020820151816001015560408201518160020190805190602001906109f9929190612c49565b50606082015181600301556080820151816004015560a082015181600501555050505b50505b5b5b50508080610a2e90613cb5565b9150506105e6565b5060005b6007600087815260200190815260200160002080549050811015610beb576000600760008881526020019081526020016000208281548110610a7f57610a7e613ae0565b5b90600052602060002090600302016002015490506000600760008981526020019081526020016000208381548110610aba57610ab9613ae0565b5b90600052602060002090600302016000018054610ad690613b3e565b80601f0160208091040260200160405190810160405280929190818152602001828054610b0290613b3e565b8015610b4f5780601f10610b2457610100808354040283529160200191610b4f565b820191906000526020600020905b815481529060010190602001808311610b3257829003601f168201915b505050505090506002600760008a81526020019081526020016000208481548110610b7d57610b7c613ae0565b5b9060005260206000209060030201600001604051610b9b9190613d9c565b908152602001604051809103902060009054906101000a900460ff1615610bcb57610bc68183611c5c565b610bd6565b610bd58183611f08565b5b50508080610be390613cb5565b915050610a3a565b50505b836000819055506001600a54610c049190613db3565b600a819055506000600d8054905067ffffffffffffffff811115610c2b57610c2a612e90565b5b604051908082528060200260200182016040528015610c6457816020015b610c51612c13565b815260200190600190039081610c495790505b50905060005b600d80549050811015610e2157600d8181548110610c8b57610c8a613ae0565b5b90600052602060002090600602016040518060c0016040529081600082018054610cb490613b3e565b80601f0160208091040260200160405190810160405280929190818152602001828054610ce090613b3e565b8015610d2d5780601f10610d0257610100808354040283529160200191610d2d565b820191906000526020600020905b815481529060010190602001808311610d1057829003601f168201915b5050505050815260200160018201548152602001600282018054610d5090613b3e565b80601f0160208091040260200160405190810160405280929190818152602001828054610d7c90613b3e565b8015610dc95780601f10610d9e57610100808354040283529160200191610dc9565b820191906000526020600020905b815481529060010190602001808311610dac57829003601f168201915b505050505081526020016003820154815260200160048201548152602001600582015481525050828281518110610e0357610e02613ae0565b5b60200260200101819052508080610e1990613cb5565b915050610c6a565b5080915050949350505050565b610e36612c13565b600073__FixidityLib___________________________633c4308a886866040518363ffffffff1660e01b8152600401610e71929190613a75565b602060405180830381865af4158015610e8e573d6000803e3d6000fd5b505050506040513d601f19601f82011682018060405250810190610eb29190613ab3565b905060006040518060c001604052808881526020018581526020016040518060400160405280600381526020017f427579000000000000000000000000000000000000000000000000000000000081525081526020018781526020018681526020018381525090508092505050949350505050565b600d8181548110610f3757600080fd5b9060005260206000209060060201600091509050806000018054610f5a90613b3e565b80601f0160208091040260200160405190810160405280929190818152602001828054610f8690613b3e565b8015610fd35780601f10610fa857610100808354040283529160200191610fd3565b820191906000526020600020905b815481529060010190602001808311610fb657829003601f168201915b505050505090806001015490806002018054610fee90613b3e565b80601f016020809104026020016040519081016040528092919081815260200182805461101a90613b3e565b80156110675780601f1061103c57610100808354040283529160200191611067565b820191906000526020600020905b81548152906001019060200180831161104a57829003601f168201915b5050505050908060030154908060040154908060050154905086565b6000806000905060008060008060008061109c896122ff565b8096508197508298505050506110b36000546122ff565b8093508194508295505050508160ff168560ff16146110d85760019650886000819055505b86975050505050505050919050565b826001819055506000600a540361120a5760005b845181101561120857600085828151811061111957611118613ae0565b5b60200260200101519050600081600001519050600060028260405161113e9190613e3a565b908152602001604051809103902060006101000a81548160ff02191690831515021790555060006003826040516111759190613e3a565b90815260200160405180910390208190555060006004826040516111999190613e3a565b90815260200160405180910390208190555060006005826040516111bd9190613e3a565b90815260200160405180910390208190555060006006826040516111e19190613e3a565b9081526020016040518091039020819055505050808061120090613cb5565b9150506110fb565b505b600060076000858152602001908152602001600020905060005b85518110156112f757600086828151811061124257611241613ae0565b5b60200260200101519050806020015183838154811061126457611263613ae0565b5b906000526020600020906003020160010181905550806040015183838154811061129157611290613ae0565b5b90600052602060002090600302016002018190555080600001518383815481106112be576112bd613ae0565b5b906000526020600020906003020160000190805190602001906112e2929190612c49565b505080806112ef90613cb5565b915050611224565b50600060096000868152602001908152602001600020905060005b83518110156115225760008482815181106113305761132f613ae0565b5b60200260200101519050806000015183838154811061135257611351613ae0565b5b90600052602060002090600a02016000019080519060200190611376929190612c49565b50806060015183838154811061138f5761138e613ae0565b5b90600052602060002090600a0201600301819055508061012001518383815481106113bd576113bc613ae0565b5b90600052602060002090600a0201600901819055508060e001518383815481106113ea576113e9613ae0565b5b90600052602060002090600a02016007018190555080610100015183838154811061141857611417613ae0565b5b90600052602060002090600a020160080181905550806040015183838154811061144557611444613ae0565b5b90600052602060002090600a020160020181905550806080015183838154811061147257611471613ae0565b5b90600052602060002090600a020160040181905550806020015183838154811061149f5761149e613ae0565b5b90600052602060002090600a0201600101819055508060a001518383815481106114cc576114cb613ae0565b5b90600052602060002090600a0201600501819055508060c001518383815481106114f9576114f8613ae0565b5b90600052602060002090600a02016006018190555050808061151a90613cb5565b915050611312565b5083600860008781526020019081526020016000206000820151816000019080519060200190611553929190612c49565b506020820151816001019080519060200190611570929190612c49565b50604082015181600201908051906020019061158d929190612c49565b50606082015181600301556080820151816004015560a0820151816005015560c0820151816006015560e082015181600701556101008201518160080155610120820151816009015561014082015181600a015561016082015181600b015561018082015181600c01556101a082015181600d01556101c082015181600e01556101e082015181600f0155905050600d60006116299190612ccf565b505050505050565b600080606560646003866040516116489190613e3a565b9081526020016040518091039020546116619190613e80565b61166b9190613b9e565b905080831391505092915050565b611681612c13565b611689612c13565b600060048660405161169b9190613e3a565b9081526020016040518091039020549050600073__FixidityLib___________________________633c4308a883886040518363ffffffff1660e01b81526004016116e7929190613a75565b602060405180830381865af4158015611704573d6000803e3d6000fd5b505050506040513d601f19601f820116820180604052508101906117289190613ab3565b90508060086000878152602001908152602001600020600701541261175a5761175387838888610e2e565b925061178d565b85600860008781526020019081526020016000206007015461177c9190613e80565b915061178a87838888610e2e565b92505b600060028860405161179f9190613e3a565b908152602001604051809103902060006101000a81548160ff021916908315150217905550856005886040516117d59190613e3a565b9081526020016040518091039020819055508293505050509392505050565b60006003836040516118069190613e3a565b9081526020016040518091039020548212905092915050565b611827612c13565b60006119888560096000868152602001908152602001600020805480602002602001604051908101604052809291908181526020016000905b8282101561197f57838290600052602060002090600a02016040518061014001604052908160008201805461189490613b3e565b80601f01602080910402602001604051908101604052809291908181526020018280546118c090613b3e565b801561190d5780601f106118e25761010080835404028352916020019161190d565b820191906000526020600020905b8154815290600101906020018083116118f057829003601f168201915b50505050508152602001600182015481526020016002820154815260200160038201548152602001600482015481526020016005820154815260200160068201548152602001600782015481526020016008820154815260200160098201548152505081526020019060010190611860565b50505050612344565b90506000611aa48660076000878152602001908152602001600020805480602002602001604051908101604052809291908181526020016000905b82821015611a9b57838290600052602060002090600302016040518060600160405290816000820180546119f690613b3e565b80601f0160208091040260200160405190810160405280929190818152602001828054611a2290613b3e565b8015611a6f5780601f10611a4457610100808354040283529160200191611a6f565b820191906000526020600020905b815481529060010190602001808311611a5257829003601f168201915b5050505050815260200160018201548152602001600282015481525050815260200190600101906119c3565b5050505061243b565b9050600082602001519050600060076000878152602001908152602001600020805490506008600088815260200190815260200160002060090154611ae99190613e80565b9050600073__FixidityLib___________________________63f59842368386604001516040518363ffffffff1660e01b8152600401611b2a929190613a75565b602060405180830381865af4158015611b47573d6000803e3d6000fd5b505050506040513d601f19601f82011682018060405250810190611b6b9190613ab3565b90506000600a600c83611b7e9190613b9e565b611b889190613e80565b905060008185611b989190613eea565b90506000611ba88c838d8d610116565b90508a60038d604051611bbb9190613e3a565b9081526020016040518091039020819055508160048d604051611bde9190613e3a565b9081526020016040518091039020819055508a60068d604051611c019190613e3a565b908152602001604051809103902081905550600160028d604051611c259190613e3a565b908152602001604051809103902060006101000a81548160ff02191690831515021790555080985050505050505050509392505050565b6000606473__FixidityLib___________________________632179bb6c6040518163ffffffff1660e01b8152600401602060405180830381865af4158015611ca9573d6000803e3d6000fd5b505050506040513d601f19601f82011682018060405250810190611ccd9190613ab3565b6046611cd99190613b9e565b611ce39190613e80565b905073__FixidityLib___________________________633c4308a8600385604051611d0f9190613e3a565b908152602001604051809103902054836040518363ffffffff1660e01b8152600401611d3c929190613a75565b602060405180830381865af4158015611d59573d6000803e3d6000fd5b505050506040513d601f19601f82011682018060405250810190611d7d9190613ab3565b821215611f0357600073__FixidityLib___________________________63b93ea812600686604051611db09190613e3a565b908152602001604051809103902054856040518363ffffffff1660e01b8152600401611ddd929190613a75565b602060405180830381865af4158015611dfa573d6000803e3d6000fd5b505050506040513d601f19601f82011682018060405250810190611e1e9190613ab3565b905060006064603273__FixidityLib___________________________63a5f3c23b87866040518363ffffffff1660e01b8152600401611e5f929190613a75565b602060405180830381865af4158015611e7c573d6000803e3d6000fd5b505050506040513d601f19601f82011682018060405250810190611ea09190613ab3565b611eaa9190613b9e565b611eb49190613e80565b9050600385604051611ec69190613e3a565b908152602001604051809103902054811215611f005780600386604051611eed9190613e3a565b9081526020016040518091039020819055505b50505b505050565b6000600583604051611f1a9190613e3a565b908152602001604051809103902054036121035780600583604051611f3f9190613e3a565b908152602001604051809103902081905550600073__FixidityLib___________________________63b93ea81273__FixidityLib___________________________632179bb6c6040518163ffffffff1660e01b8152600401602060405180830381865af4158015611fb6573d6000803e3d6000fd5b505050506040513d601f19601f82011682018060405250810190611fda9190613ab3565b600c546040518363ffffffff1660e01b8152600401611ffa929190613a75565b602060405180830381865af4158015612017573d6000803e3d6000fd5b505050506040513d601f19601f8201168201806040525081019061203b9190613ab3565b9050600073__FixidityLib___________________________633c4308a86005866040516120699190613e3a565b908152602001604051809103902054846040518363ffffffff1660e01b8152600401612096929190613a75565b602060405180830381865af41580156120b3573d6000803e3d6000fd5b505050506040513d601f19601f820116820180604052508101906120d79190613ab3565b9050806003856040516120ea9190613e3a565b90815260200160405180910390208190555050506122fb565b6005826040516121139190613e3a565b9081526020016040518091039020548113156122fa578060058360405161213a9190613e3a565b908152602001604051809103902081905550600073__FixidityLib___________________________63b93ea81273__FixidityLib___________________________632179bb6c6040518163ffffffff1660e01b8152600401602060405180830381865af41580156121b1573d6000803e3d6000fd5b505050506040513d601f19601f820116820180604052508101906121d59190613ab3565b600c546040518363ffffffff1660e01b81526004016121f5929190613a75565b602060405180830381865af4158015612212573d6000803e3d6000fd5b505050506040513d601f19601f820116820180604052508101906122369190613ab3565b9050600073__FixidityLib___________________________633c4308a86005866040516122649190613e3a565b908152602001604051809103902054846040518363ffffffff1660e01b8152600401612291929190613a75565b602060405180830381865af41580156122ae573d6000803e3d6000fd5b505050506040513d601f19601f820116820180604052508101906122d29190613ab3565b9050806003856040516122e59190613e3a565b90815260200160405180910390208190555050505b5b5050565b60008060008084905061231181612532565b809550819250505061232381856127a1565b809450819250505061233481612b27565b8093508192505050509193909250565b61234c612cf3565b612354612cf3565b60005b83518110156124305783818151811061237357612372613ae0565b5b60200260200101516000015173__StringUtils___________________________63bed34bba9091876040518363ffffffff1660e01b81526004016123b9929190613fc8565b602060405180830381865af41580156123d6573d6000803e3d6000fd5b505050506040513d601f19601f820116820180604052508101906123fa9190614037565b1561241d5783818151811061241257612411613ae0565b5b602002602001015191505b808061242890613cb5565b915050612357565b508091505092915050565b612443612d46565b61244b612d46565b60005b83518110156125275783818151811061246a57612469613ae0565b5b60200260200101516000015173__StringUtils___________________________63bed34bba9091876040518363ffffffff1660e01b81526004016124b0929190613fc8565b602060405180830381865af41580156124cd573d6000803e3d6000fd5b505050506040513d601f19601f820116820180604052508101906124f19190614037565b156125145783818151811061250957612508613ae0565b5b602002602001015191505b808061251f90613cb5565b91505061244e565b508091505092915050565b6000806000808493506107b292506301e1338060026125519190614064565b84101561259a576301e133808461256891906140be565b91506301e133808261257a9190614064565b8461258591906140ef565b935081836125939190614131565b925061279a565b6301e1338060026125ab9190614064565b846125b691906140ef565b93506107b492506334aadc8084106126c9576334aadc80846125d891906140ef565b9350601c836125e79190614131565b92506402f0605980846125fa91906140be565b91506402f06059808261260d9190614064565b8461261891906140ef565b9350610190826126289190614064565b836126339190614131565b925061263e83612b71565b90508063ffffffff168410612671578063ffffffff168461265f91906140ef565b935060018361266e9190614131565b92505b61267a83612ba8565b6126c85763bc17c2008461268e91906140be565b915063bc17c200826126a09190614064565b846126ab91906140ef565b93506064826126ba9190614064565b836126c59190614131565b92505b5b6307861f80846126d991906140be565b91506307861f80826126eb9190614064565b846126f691906140ef565b93506004826127059190614064565b836127109190614131565b925061271b83612b71565b90508063ffffffff16841061274e578063ffffffff168461273c91906140ef565b935060018361274b9190614131565b92505b61275783612ba8565b612799576301e133808461276b91906140be565b91506301e133808261277d9190614064565b8461278891906140ef565b935081836127969190614131565b92505b5b5050915091565b6000806127ac612d67565b6127b4612d8a565b8593506127c085612ba8565b1561292b57604051806101a00160405280600060ff168152602001601f60ff168152602001601d60ff168152602001601f60ff168152602001601e60ff168152602001601f60ff168152602001601e60ff168152602001601f60ff168152602001601f60ff168152602001601e60ff168152602001601f60ff168152602001601e60ff168152602001601f60ff168152509150604051806101a00160405280600063ffffffff1681526020016228de8063ffffffff168152602001624f1a0063ffffffff1681526020016277f88063ffffffff168152602001629f858063ffffffff16815260200162c8640063ffffffff16815260200162eff10063ffffffff168152602001630118cf8063ffffffff168152602001630141ae0063ffffffff1681526020016301693b0063ffffffff168152602001630192198063ffffffff1681526020016301b9a68063ffffffff1681526020016301e2850063ffffffff168152509050612a8d565b604051806101a00160405280600060ff168152602001601f60ff168152602001601c60ff168152602001601f60ff168152602001601e60ff168152602001601f60ff168152602001601e60ff168152602001601f60ff168152602001601f60ff168152602001601e60ff168152602001601f60ff168152602001601e60ff168152602001601f60ff168152509150604051806101a00160405280600063ffffffff1681526020016228de8063ffffffff168152602001624dc88063ffffffff1681526020016276a70063ffffffff168152602001629e340063ffffffff16815260200162c7128063ffffffff16815260200162ee9f8063ffffffff1681526020016301177e0063ffffffff1681526020016301405c8063ffffffff168152602001630167e98063ffffffff168152602001630190c80063ffffffff1681526020016301b8550063ffffffff1681526020016301e1338063ffffffff1681525090505b6000600190505b600d8160ff161015612b1d57818160ff16600d8110612ab657612ab5613ae0565b5b602002015163ffffffff16851015612b0a5780935081600182612ad99190614176565b60ff16600d8110612aed57612aec613ae0565b5b602002015163ffffffff1685612b0391906140ef565b9450612b1d565b8080612b15906141aa565b915050612a94565b5050509250929050565b60008060008392506201518083612b3e91906140be565b90506201518081612b4f9190614064565b83612b5a91906140ef565b9250600181612b699190613db3565b915050915091565b6000612b7c82612ba8565b15612b9b57620151806301e13380612b949190613db3565b9050612ba3565b6301e1338090505b919050565b600080600483612bb891906141d3565b61ffff1614612bca5760009050612c0e565b600061019083612bda91906141d3565b61ffff161480612bfb57506000606483612bf491906141d3565b61ffff1614155b15612c095760019050612c0e565b600090505b919050565b6040518060c001604052806060815260200160008152602001606081526020016000815260200160008152602001600081525090565b828054612c5590613b3e565b90600052602060002090601f016020900481019282612c775760008555612cbe565b82601f10612c9057805160ff1916838001178555612cbe565b82800160010185558215612cbe579182015b82811115612cbd578251825591602001919060010190612ca2565b5b509050612ccb9190612dad565b5090565b5080546000825560060290600052602060002090810190612cf09190612dca565b50565b604051806101400160405280606081526020016000815260200160008152602001600081526020016000815260200160008152602001600081526020016000815260200160008152602001600081525090565b60405180606001604052806060815260200160008152602001600081525090565b604051806101a00160405280600d90602082028036833780820191505090505090565b604051806101a00160405280600d90602082028036833780820191505090505090565b5b80821115612dc6576000816000905550600101612dae565b5090565b5b80821115612e1d5760008082016000612de49190612e21565b6001820160009055600282016000612dfc9190612e21565b60038201600090556004820160009055600582016000905550600601612dcb565b5090565b508054612e2d90613b3e565b6000825580601f10612e3f5750612e5e565b601f016020900490600052602060002090810190612e5d9190612dad565b5b50565b6000604051905090565b600080fd5b600080fd5b600080fd5b600080fd5b6000601f19601f8301169050919050565b7f4e487b7100000000000000000000000000000000000000000000000000000000600052604160045260246000fd5b612ec882612e7f565b810181811067ffffffffffffffff82111715612ee757612ee6612e90565b5b80604052505050565b6000612efa612e61565b9050612f068282612ebf565b919050565b600067ffffffffffffffff821115612f2657612f25612e90565b5b612f2f82612e7f565b9050602081019050919050565b82818337600083830152505050565b6000612f5e612f5984612f0b565b612ef0565b905082815260208101848484011115612f7a57612f79612e7a565b5b612f85848285612f3c565b509392505050565b600082601f830112612fa257612fa1612e75565b5b8135612fb2848260208601612f4b565b91505092915050565b6000819050919050565b612fce81612fbb565b8114612fd957600080fd5b50565b600081359050612feb81612fc5565b92915050565b6000819050919050565b61300481612ff1565b811461300f57600080fd5b50565b60008135905061302181612ffb565b92915050565b6000806000806080858703121561304157613040612e6b565b5b600085013567ffffffffffffffff81111561305f5761305e612e70565b5b61306b87828801612f8d565b945050602061307c87828801612fdc565b935050604061308d87828801612fdc565b925050606061309e87828801613012565b91505092959194509250565b600081519050919050565b600082825260208201905092915050565b60005b838110156130e45780820151818401526020810190506130c9565b838111156130f3576000848401525b50505050565b6000613104826130aa565b61310e81856130b5565b935061311e8185602086016130c6565b61312781612e7f565b840191505092915050565b61313b81612ff1565b82525050565b61314a81612fbb565b82525050565b600060c083016000830151848203600086015261316d82826130f9565b91505060208301516131826020860182613132565b506040830151848203604086015261319a82826130f9565b91505060608301516131af6060860182613141565b5060808301516131c26080860182613141565b5060a08301516131d560a0860182613141565b508091505092915050565b600060208201905081810360008301526131fa8184613150565b905092915050565b600067ffffffffffffffff82111561321d5761321c612e90565b5b602082029050602081019050919050565b600080fd5b600080fd5b600080fd5b60006060828403121561325357613252613233565b5b61325d6060612ef0565b9050600082013567ffffffffffffffff81111561327d5761327c613238565b5b61328984828501612f8d565b600083015250602061329d84828501612fdc565b60208301525060406132b184828501612fdc565b60408301525092915050565b60006132d06132cb84613202565b612ef0565b905080838252602082019050602084028301858111156132f3576132f261322e565b5b835b8181101561333a57803567ffffffffffffffff81111561331857613317612e75565b5b808601613325898261323d565b855260208501945050506020810190506132f5565b5050509392505050565b600082601f83011261335957613358612e75565b5b81356133698482602086016132bd565b91505092915050565b6000610200828403121561338957613388613233565b5b613394610200612ef0565b9050600082013567ffffffffffffffff8111156133b4576133b3613238565b5b6133c084828501612f8d565b600083015250602082013567ffffffffffffffff8111156133e4576133e3613238565b5b6133f084828501612f8d565b602083015250604082013567ffffffffffffffff81111561341457613413613238565b5b61342084828501612f8d565b604083015250606061343484828501612fdc565b606083015250608061344884828501612fdc565b60808301525060a061345c84828501612fdc565b60a08301525060c061347084828501612fdc565b60c08301525060e061348484828501612fdc565b60e08301525061010061349984828501612fdc565b610100830152506101206134af84828501612fdc565b610120830152506101406134c584828501612fdc565b610140830152506101606134db84828501612fdc565b610160830152506101806134f184828501612fdc565b610180830152506101a061350784828501612fdc565b6101a0830152506101c061351d84828501612fdc565b6101c0830152506101e061353384828501612fdc565b6101e08301525092915050565b600067ffffffffffffffff82111561355b5761355a612e90565b5b602082029050602081019050919050565b6000610140828403121561358357613582613233565b5b61358e610140612ef0565b9050600082013567ffffffffffffffff8111156135ae576135ad613238565b5b6135ba84828501612f8d565b60008301525060206135ce84828501612fdc565b60208301525060406135e284828501612fdc565b60408301525060606135f684828501612fdc565b606083015250608061360a84828501612fdc565b60808301525060a061361e84828501612fdc565b60a08301525060c061363284828501612fdc565b60c08301525060e061364684828501612fdc565b60e08301525061010061365b84828501612fdc565b6101008301525061012061367184828501612fdc565b6101208301525092915050565b600061369161368c84613540565b612ef0565b905080838252602082019050602084028301858111156136b4576136b361322e565b5b835b818110156136fb57803567ffffffffffffffff8111156136d9576136d8612e75565b5b8086016136e6898261356c565b855260208501945050506020810190506136b6565b5050509392505050565b600082601f83011261371a57613719612e75565b5b813561372a84826020860161367e565b91505092915050565b6000806000806080858703121561374d5761374c612e6b565b5b600085013567ffffffffffffffff81111561376b5761376a612e70565b5b61377787828801613344565b945050602061378887828801613012565b935050604085013567ffffffffffffffff8111156137a9576137a8612e70565b5b6137b587828801613372565b925050606085013567ffffffffffffffff8111156137d6576137d5612e70565b5b6137e287828801613705565b91505092959194509250565b600081519050919050565b600082825260208201905092915050565b6000819050602082019050919050565b600060c083016000830151848203600086015261383782826130f9565b915050602083015161384c6020860182613132565b506040830151848203604086015261386482826130f9565b91505060608301516138796060860182613141565b50608083015161388c6080860182613141565b5060a083015161389f60a0860182613141565b508091505092915050565b60006138b6838361381a565b905092915050565b6000602082019050919050565b60006138d6826137ee565b6138e081856137f9565b9350836020820285016138f28561380a565b8060005b8581101561392e578484038952815161390f85826138aa565b945061391a836138be565b925060208a019950506001810190506138f6565b50829750879550505050505092915050565b6000602082019050818103600083015261395a81846138cb565b905092915050565b60006020828403121561397857613977612e6b565b5b600061398684828501613012565b91505092915050565b600082825260208201905092915050565b60006139ab826130aa565b6139b5818561398f565b93506139c58185602086016130c6565b6139ce81612e7f565b840191505092915050565b6139e281612ff1565b82525050565b6139f181612fbb565b82525050565b600060c0820190508181036000830152613a1181896139a0565b9050613a2060208301886139d9565b8181036040830152613a3281876139a0565b9050613a4160608301866139e8565b613a4e60808301856139e8565b613a5b60a08301846139e8565b979650505050505050565b613a6f81612fbb565b82525050565b6000604082019050613a8a6000830185613a66565b613a976020830184613a66565b9392505050565b600081519050613aad81612fc5565b92915050565b600060208284031215613ac957613ac8612e6b565b5b6000613ad784828501613a9e565b91505092915050565b7f4e487b7100000000000000000000000000000000000000000000000000000000600052603260045260246000fd5b7f4e487b7100000000000000000000000000000000000000000000000000000000600052602260045260246000fd5b60006002820490506001821680613b5657607f821691505b602082108103613b6957613b68613b0f565b5b50919050565b7f4e487b7100000000000000000000000000000000000000000000000000000000600052601160045260246000fd5b6000613ba982612fbb565b9150613bb483612fbb565b9250827f7fffffffffffffffffffffffffffffffffffffffffffffffffffffffffffffff0482116000841360008413161615613bf357613bf2613b6f565b5b817f80000000000000000000000000000000000000000000000000000000000000000583126000841260008413161615613c3057613c2f613b6f565b5b827f80000000000000000000000000000000000000000000000000000000000000000582126000841360008412161615613c6d57613c6c613b6f565b5b827f7fffffffffffffffffffffffffffffffffffffffffffffffffffffffffffffff0582126000841260008412161615613caa57613ca9613b6f565b5b828202905092915050565b6000613cc082612ff1565b91507fffffffffffffffffffffffffffffffffffffffffffffffffffffffffffffffff8203613cf257613cf1613b6f565b5b600182019050919050565b600081905092915050565b60008190508160005260206000209050919050565b60008154613d2a81613b3e565b613d348186613cfd565b94506001821660008114613d4f5760018114613d6057613d93565b60ff19831686528186019350613d93565b613d6985613d08565b60005b83811015613d8b57815481890152600182019150602081019050613d6c565b838801955050505b50505092915050565b6000613da88284613d1d565b915081905092915050565b6000613dbe82612ff1565b9150613dc983612ff1565b9250827fffffffffffffffffffffffffffffffffffffffffffffffffffffffffffffffff03821115613dfe57613dfd613b6f565b5b828201905092915050565b6000613e14826130aa565b613e1e8185613cfd565b9350613e2e8185602086016130c6565b80840191505092915050565b6000613e468284613e09565b915081905092915050565b7f4e487b7100000000000000000000000000000000000000000000000000000000600052601260045260246000fd5b6000613e8b82612fbb565b9150613e9683612fbb565b925082613ea657613ea5613e51565b5b600160000383147f800000000000000000000000000000000000000000000000000000000000000083141615613edf57613ede613b6f565b5b828205905092915050565b6000613ef582612fbb565b9150613f0083612fbb565b9250827f800000000000000000000000000000000000000000000000000000000000000001821260008412151615613f3b57613f3a613b6f565b5b827f7fffffffffffffffffffffffffffffffffffffffffffffffffffffffffffffff018213600084121615613f7357613f72613b6f565b5b828203905092915050565b600082825260208201905092915050565b6000613f9a826130aa565b613fa48185613f7e565b9350613fb48185602086016130c6565b613fbd81612e7f565b840191505092915050565b60006040820190508181036000830152613fe28185613f8f565b90508181036020830152613ff68184613f8f565b90509392505050565b60008115159050919050565b61401481613fff565b811461401f57600080fd5b50565b6000815190506140318161400b565b92915050565b60006020828403121561404d5761404c612e6b565b5b600061405b84828501614022565b91505092915050565b600061406f82612ff1565b915061407a83612ff1565b9250817fffffffffffffffffffffffffffffffffffffffffffffffffffffffffffffffff04831182151516156140b3576140b2613b6f565b5b828202905092915050565b60006140c982612ff1565b91506140d483612ff1565b9250826140e4576140e3613e51565b5b828204905092915050565b60006140fa82612ff1565b915061410583612ff1565b92508282101561411857614117613b6f565b5b828203905092915050565b600061ffff82169050919050565b600061413c82614123565b915061414783614123565b92508261ffff0382111561415e5761415d613b6f565b5b828201905092915050565b600060ff82169050919050565b600061418182614169565b915061418c83614169565b92508282101561419f5761419e613b6f565b5b828203905092915050565b60006141b582614169565b915060ff82036141c8576141c7613b6f565b5b600182019050919050565b60006141de82614123565b91506141e983614123565b9250826141f9576141f8613e51565b5b82820690509291505056fea2646970667358221220e7f0cc147d91a8c00b3e447ecbdbf3e8d800dc6148b1ed1c0003bdee2212da6c64736f6c634300080d0033",
  "deployedBytecode": "0x608060405234801561001057600080fd5b506004361061004c5760003560e01c806314ea6c19146100515780634358f911146100815780634f8ac98d146100b1578063d313b78c146100e1575b600080fd5b61006b60048036038101906100669190613027565b610116565b60405161007891906131e0565b60405180910390f35b61009b60048036038101906100969190613733565b61020f565b6040516100a89190613940565b60405180910390f35b6100cb60048036038101906100c69190613027565b610e2e565b6040516100d891906131e0565b60405180910390f35b6100fb60048036038101906100f69190613962565b610f27565b60405161010d969594939291906139f7565b60405180910390f35b61011e612c13565b600073__FixidityLib___________________________633c4308a886866040518363ffffffff1660e01b8152600401610159929190613a75565b602060405180830381865af4158015610176573d6000803e3d6000fd5b505050506040513d601f19601f8201168201806040525081019061019a9190613ab3565b905060006040518060c001604052808881526020018581526020016040518060400160405280600481526020017f53656c6c0000000000000000000000000000000000000000000000000000000081525081526020018781526020018681526020018381525090508092505050949350505050565b606061021c600154611083565b61022557600080fd5b610231858585856110e7565b6000600a540361054d57600073__FixidityLib___________________________63f598423660086000888152602001908152602001600020600a015460076000898152602001908152602001600020805490506040518363ffffffff1660e01b81526004016102a2929190613a75565b602060405180830381865af41580156102bf573d6000803e3d6000fd5b505050506040513d601f19601f820116820180604052508101906102e39190613ab3565b905060005b600760008781526020019081526020016000208054905081101561054657600060076000888152602001908152602001600020828154811061032d5761032c613ae0565b5b906000526020600020906003020160405180606001604052908160008201805461035690613b3e565b80601f016020809104026020016040519081016040528092919081815260200182805461038290613b3e565b80156103cf5780601f106103a4576101008083540402835291602001916103cf565b820191906000526020600020905b8154815290600101906020018083116103b257829003601f168201915b505050505081526020016001820154815260200160028201548152505090506000816000015190506000826040015190506000600373__FixidityLib___________________________63f59842368887604001516040518363ffffffff1660e01b8152600401610441929190613a75565b602060405180830381865af415801561045e573d6000803e3d6000fd5b505050506040513d601f19601f820116820180604052508101906104829190613ab3565b61048c9190613b9e565b9050600061049c8483858e610e2e565b9050600d81908060018154018082558091505060019003906000526020600020906006020160009091909190915060008201518160000190805190602001906104e6929190612c49565b5060208201518160010155604082015181600201908051906020019061050d929190612c49565b50606082015181600301556080820151816004015560a0820151816005015550505050505050808061053e90613cb5565b9150506102e8565b5050610bee565b600073__FixidityLib___________________________633c4308a8600b5460086000898152602001908152602001600020600f01546040518363ffffffff1660e01b81526004016105a0929190613a75565b602060405180830381865af41580156105bd573d6000803e3d6000fd5b505050506040513d601f19601f820116820180604052508101906105e19190613ab3565b905060005b6007600087815260200190815260200160002080549050811015610a3657600060076000888152602001908152602001600020828154811061062b5761062a613ae0565b5b9060005260206000209060030201600201549050600060076000898152602001908152602001600020838154811061066657610665613ae0565b5b9060005260206000209060030201600001805461068290613b3e565b80601f01602080910402602001604051908101604052809291908181526020018280546106ae90613b3e565b80156106fb5780601f106106d0576101008083540402835291602001916106fb565b820191906000526020600020905b8154815290600101906020018083116106de57829003601f168201915b505050505090506002600760008a8152602001908152602001600020848154811061072957610728613ae0565b5b90600052602060002090600302016000016040516107479190613d9c565b908152602001604051809103902060009054906101000a900460ff161561081d576107728183611631565b1561081857600061078482848b611679565b9050600d81908060018154018082558091505060019003906000526020600020906006020160009091909190915060008201518160000190805190602001906107ce929190612c49565b506020820151816001015560408201518160020190805190602001906107f5929190612c49565b50606082015181600301556080820151816004015560a082015181600501555050505b610a21565b61082781836117f4565b1561084157600061083982848b61181f565b905050610a20565b83600860008a8152602001908152602001600020600601541315610a1f57600073__FixidityLib___________________________63b93ea812600860008c815260200190815260200160002060060154876040518363ffffffff1660e01b81526004016108b0929190613a75565b602060405180830381865af41580156108cd573d6000803e3d6000fd5b505050506040513d601f19601f820116820180604052508101906108f19190613ab3565b9050600073__FixidityLib___________________________63f598423683866040518363ffffffff1660e01b815260040161092e929190613a75565b602060405180830381865af415801561094b573d6000803e3d6000fd5b505050506040513d601f19601f8201168201806040525081019061096f9190613ab3565b90506000811315610a1c5760006109888483878e610e2e565b9050600d81908060018154018082558091505060019003906000526020600020906006020160009091909190915060008201518160000190805190602001906109d2929190612c49565b506020820151816001015560408201518160020190805190602001906109f9929190612c49565b50606082015181600301556080820151816004015560a082015181600501555050505b50505b5b5b50508080610a2e90613cb5565b9150506105e6565b5060005b6007600087815260200190815260200160002080549050811015610beb576000600760008881526020019081526020016000208281548110610a7f57610a7e613ae0565b5b90600052602060002090600302016002015490506000600760008981526020019081526020016000208381548110610aba57610ab9613ae0565b5b90600052602060002090600302016000018054610ad690613b3e565b80601f0160208091040260200160405190810160405280929190818152602001828054610b0290613b3e565b8015610b4f5780601f10610b2457610100808354040283529160200191610b4f565b820191906000526020600020905b815481529060010190602001808311610b3257829003601f168201915b505050505090506002600760008a81526020019081526020016000208481548110610b7d57610b7c613ae0565b5b9060005260206000209060030201600001604051610b9b9190613d9c565b908152602001604051809103902060009054906101000a900460ff1615610bcb57610bc68183611c5c565b610bd6565b610bd58183611f08565b5b50508080610be390613cb5565b915050610a3a565b50505b836000819055506001600a54610c049190613db3565b600a819055506000600d8054905067ffffffffffffffff811115610c2b57610c2a612e90565b5b604051908082528060200260200182016040528015610c6457816020015b610c51612c13565b815260200190600190039081610c495790505b50905060005b600d80549050811015610e2157600d8181548110610c8b57610c8a613ae0565b5b90600052602060002090600602016040518060c0016040529081600082018054610cb490613b3e565b80601f0160208091040260200160405190810160405280929190818152602001828054610ce090613b3e565b8015610d2d5780601f10610d0257610100808354040283529160200191610d2d565b820191906000526020600020905b815481529060010190602001808311610d1057829003601f168201915b5050505050815260200160018201548152602001600282018054610d5090613b3e565b80601f0160208091040260200160405190810160405280929190818152602001828054610d7c90613b3e565b8015610dc95780601f10610d9e57610100808354040283529160200191610dc9565b820191906000526020600020905b815481529060010190602001808311610dac57829003601f168201915b505050505081526020016003820154815260200160048201548152602001600582015481525050828281518110610e0357610e02613ae0565b5b60200260200101819052508080610e1990613cb5565b915050610c6a565b5080915050949350505050565b610e36612c13565b600073__FixidityLib___________________________633c4308a886866040518363ffffffff1660e01b8152600401610e71929190613a75565b602060405180830381865af4158015610e8e573d6000803e3d6000fd5b505050506040513d601f19601f82011682018060405250810190610eb29190613ab3565b905060006040518060c001604052808881526020018581526020016040518060400160405280600381526020017f427579000000000000000000000000000000000000000000000000000000000081525081526020018781526020018681526020018381525090508092505050949350505050565b600d8181548110610f3757600080fd5b9060005260206000209060060201600091509050806000018054610f5a90613b3e565b80601f0160208091040260200160405190810160405280929190818152602001828054610f8690613b3e565b8015610fd35780601f10610fa857610100808354040283529160200191610fd3565b820191906000526020600020905b815481529060010190602001808311610fb657829003601f168201915b505050505090806001015490806002018054610fee90613b3e565b80601f016020809104026020016040519081016040528092919081815260200182805461101a90613b3e565b80156110675780601f1061103c57610100808354040283529160200191611067565b820191906000526020600020905b81548152906001019060200180831161104a57829003601f168201915b5050505050908060030154908060040154908060050154905086565b6000806000905060008060008060008061109c896122ff565b8096508197508298505050506110b36000546122ff565b8093508194508295505050508160ff168560ff16146110d85760019650886000819055505b86975050505050505050919050565b826001819055506000600a540361120a5760005b845181101561120857600085828151811061111957611118613ae0565b5b60200260200101519050600081600001519050600060028260405161113e9190613e3a565b908152602001604051809103902060006101000a81548160ff02191690831515021790555060006003826040516111759190613e3a565b90815260200160405180910390208190555060006004826040516111999190613e3a565b90815260200160405180910390208190555060006005826040516111bd9190613e3a565b90815260200160405180910390208190555060006006826040516111e19190613e3a565b9081526020016040518091039020819055505050808061120090613cb5565b9150506110fb565b505b600060076000858152602001908152602001600020905060005b85518110156112f757600086828151811061124257611241613ae0565b5b60200260200101519050806020015183838154811061126457611263613ae0565b5b906000526020600020906003020160010181905550806040015183838154811061129157611290613ae0565b5b90600052602060002090600302016002018190555080600001518383815481106112be576112bd613ae0565b5b906000526020600020906003020160000190805190602001906112e2929190612c49565b505080806112ef90613cb5565b915050611224565b50600060096000868152602001908152602001600020905060005b83518110156115225760008482815181106113305761132f613ae0565b5b60200260200101519050806000015183838154811061135257611351613ae0565b5b90600052602060002090600a02016000019080519060200190611376929190612c49565b50806060015183838154811061138f5761138e613ae0565b5b90600052602060002090600a0201600301819055508061012001518383815481106113bd576113bc613ae0565b5b90600052602060002090600a0201600901819055508060e001518383815481106113ea576113e9613ae0565b5b90600052602060002090600a02016007018190555080610100015183838154811061141857611417613ae0565b5b90600052602060002090600a020160080181905550806040015183838154811061144557611444613ae0565b5b90600052602060002090600a020160020181905550806080015183838154811061147257611471613ae0565b5b90600052602060002090600a020160040181905550806020015183838154811061149f5761149e613ae0565b5b90600052602060002090600a0201600101819055508060a001518383815481106114cc576114cb613ae0565b5b90600052602060002090600a0201600501819055508060c001518383815481106114f9576114f8613ae0565b5b90600052602060002090600a02016006018190555050808061151a90613cb5565b915050611312565b5083600860008781526020019081526020016000206000820151816000019080519060200190611553929190612c49565b506020820151816001019080519060200190611570929190612c49565b50604082015181600201908051906020019061158d929190612c49565b50606082015181600301556080820151816004015560a0820151816005015560c0820151816006015560e082015181600701556101008201518160080155610120820151816009015561014082015181600a015561016082015181600b015561018082015181600c01556101a082015181600d01556101c082015181600e01556101e082015181600f0155905050600d60006116299190612ccf565b505050505050565b600080606560646003866040516116489190613e3a565b9081526020016040518091039020546116619190613e80565b61166b9190613b9e565b905080831391505092915050565b611681612c13565b611689612c13565b600060048660405161169b9190613e3a565b9081526020016040518091039020549050600073__FixidityLib___________________________633c4308a883886040518363ffffffff1660e01b81526004016116e7929190613a75565b602060405180830381865af4158015611704573d6000803e3d6000fd5b505050506040513d601f19601f820116820180604052508101906117289190613ab3565b90508060086000878152602001908152602001600020600701541261175a5761175387838888610e2e565b925061178d565b85600860008781526020019081526020016000206007015461177c9190613e80565b915061178a87838888610e2e565b92505b600060028860405161179f9190613e3a565b908152602001604051809103902060006101000a81548160ff021916908315150217905550856005886040516117d59190613e3a565b9081526020016040518091039020819055508293505050509392505050565b60006003836040516118069190613e3a565b9081526020016040518091039020548212905092915050565b611827612c13565b60006119888560096000868152602001908152602001600020805480602002602001604051908101604052809291908181526020016000905b8282101561197f57838290600052602060002090600a02016040518061014001604052908160008201805461189490613b3e565b80601f01602080910402602001604051908101604052809291908181526020018280546118c090613b3e565b801561190d5780601f106118e25761010080835404028352916020019161190d565b820191906000526020600020905b8154815290600101906020018083116118f057829003601f168201915b50505050508152602001600182015481526020016002820154815260200160038201548152602001600482015481526020016005820154815260200160068201548152602001600782015481526020016008820154815260200160098201548152505081526020019060010190611860565b50505050612344565b90506000611aa48660076000878152602001908152602001600020805480602002602001604051908101604052809291908181526020016000905b82821015611a9b57838290600052602060002090600302016040518060600160405290816000820180546119f690613b3e565b80601f0160208091040260200160405190810160405280929190818152602001828054611a2290613b3e565b8015611a6f5780601f10611a4457610100808354040283529160200191611a6f565b820191906000526020600020905b815481529060010190602001808311611a5257829003601f168201915b5050505050815260200160018201548152602001600282015481525050815260200190600101906119c3565b5050505061243b565b9050600082602001519050600060076000878152602001908152602001600020805490506008600088815260200190815260200160002060090154611ae99190613e80565b9050600073__FixidityLib___________________________63f59842368386604001516040518363ffffffff1660e01b8152600401611b2a929190613a75565b602060405180830381865af4158015611b47573d6000803e3d6000fd5b505050506040513d601f19601f82011682018060405250810190611b6b9190613ab3565b90506000600a600c83611b7e9190613b9e565b611b889190613e80565b905060008185611b989190613eea565b90506000611ba88c838d8d610116565b90508a60038d604051611bbb9190613e3a565b9081526020016040518091039020819055508160048d604051611bde9190613e3a565b9081526020016040518091039020819055508a60068d604051611c019190613e3a565b908152602001604051809103902081905550600160028d604051611c259190613e3a565b908152602001604051809103902060006101000a81548160ff02191690831515021790555080985050505050505050509392505050565b6000606473__FixidityLib___________________________632179bb6c6040518163ffffffff1660e01b8152600401602060405180830381865af4158015611ca9573d6000803e3d6000fd5b505050506040513d601f19601f82011682018060405250810190611ccd9190613ab3565b6046611cd99190613b9e565b611ce39190613e80565b905073__FixidityLib___________________________633c4308a8600385604051611d0f9190613e3a565b908152602001604051809103902054836040518363ffffffff1660e01b8152600401611d3c929190613a75565b602060405180830381865af4158015611d59573d6000803e3d6000fd5b505050506040513d601f19601f82011682018060405250810190611d7d9190613ab3565b821215611f0357600073__FixidityLib___________________________63b93ea812600686604051611db09190613e3a565b908152602001604051809103902054856040518363ffffffff1660e01b8152600401611ddd929190613a75565b602060405180830381865af4158015611dfa573d6000803e3d6000fd5b505050506040513d601f19601f82011682018060405250810190611e1e9190613ab3565b905060006064603273__FixidityLib___________________________63a5f3c23b87866040518363ffffffff1660e01b8152600401611e5f929190613a75565b602060405180830381865af4158015611e7c573d6000803e3d6000fd5b505050506040513d601f19601f82011682018060405250810190611ea09190613ab3565b611eaa9190613b9e565b611eb49190613e80565b9050600385604051611ec69190613e3a565b908152602001604051809103902054811215611f005780600386604051611eed9190613e3a565b9081526020016040518091039020819055505b50505b505050565b6000600583604051611f1a9190613e3a565b908152602001604051809103902054036121035780600583604051611f3f9190613e3a565b908152602001604051809103902081905550600073__FixidityLib___________________________63b93ea81273__FixidityLib___________________________632179bb6c6040518163ffffffff1660e01b8152600401602060405180830381865af4158015611fb6573d6000803e3d6000fd5b505050506040513d601f19601f82011682018060405250810190611fda9190613ab3565b600c546040518363ffffffff1660e01b8152600401611ffa929190613a75565b602060405180830381865af4158015612017573d6000803e3d6000fd5b505050506040513d601f19601f8201168201806040525081019061203b9190613ab3565b9050600073__FixidityLib___________________________633c4308a86005866040516120699190613e3a565b908152602001604051809103902054846040518363ffffffff1660e01b8152600401612096929190613a75565b602060405180830381865af41580156120b3573d6000803e3d6000fd5b505050506040513d601f19601f820116820180604052508101906120d79190613ab3565b9050806003856040516120ea9190613e3a565b90815260200160405180910390208190555050506122fb565b6005826040516121139190613e3a565b9081526020016040518091039020548113156122fa578060058360405161213a9190613e3a565b908152602001604051809103902081905550600073__FixidityLib___________________________63b93ea81273__FixidityLib___________________________632179bb6c6040518163ffffffff1660e01b8152600401602060405180830381865af41580156121b1573d6000803e3d6000fd5b505050506040513d601f19601f820116820180604052508101906121d59190613ab3565b600c546040518363ffffffff1660e01b81526004016121f5929190613a75565b602060405180830381865af4158015612212573d6000803e3d6000fd5b505050506040513d601f19601f820116820180604052508101906122369190613ab3565b9050600073__FixidityLib___________________________633c4308a86005866040516122649190613e3a565b908152602001604051809103902054846040518363ffffffff1660e01b8152600401612291929190613a75565b602060405180830381865af41580156122ae573d6000803e3d6000fd5b505050506040513d601f19601f820116820180604052508101906122d29190613ab3565b9050806003856040516122e59190613e3a565b90815260200160405180910390208190555050505b5b5050565b60008060008084905061231181612532565b809550819250505061232381856127a1565b809450819250505061233481612b27565b8093508192505050509193909250565b61234c612cf3565b612354612cf3565b60005b83518110156124305783818151811061237357612372613ae0565b5b60200260200101516000015173__StringUtils___________________________63bed34bba9091876040518363ffffffff1660e01b81526004016123b9929190613fc8565b602060405180830381865af41580156123d6573d6000803e3d6000fd5b505050506040513d601f19601f820116820180604052508101906123fa9190614037565b1561241d5783818151811061241257612411613ae0565b5b602002602001015191505b808061242890613cb5565b915050612357565b508091505092915050565b612443612d46565b61244b612d46565b60005b83518110156125275783818151811061246a57612469613ae0565b5b60200260200101516000015173__StringUtils___________________________63bed34bba9091876040518363ffffffff1660e01b81526004016124b0929190613fc8565b602060405180830381865af41580156124cd573d6000803e3d6000fd5b505050506040513d601f19601f820116820180604052508101906124f19190614037565b156125145783818151811061250957612508613ae0565b5b602002602001015191505b808061251f90613cb5565b91505061244e565b508091505092915050565b6000806000808493506107b292506301e1338060026125519190614064565b84101561259a576301e133808461256891906140be565b91506301e133808261257a9190614064565b8461258591906140ef565b935081836125939190614131565b925061279a565b6301e1338060026125ab9190614064565b846125b691906140ef565b93506107b492506334aadc8084106126c9576334aadc80846125d891906140ef565b9350601c836125e79190614131565b92506402f0605980846125fa91906140be565b91506402f06059808261260d9190614064565b8461261891906140ef565b9350610190826126289190614064565b836126339190614131565b925061263e83612b71565b90508063ffffffff168410612671578063ffffffff168461265f91906140ef565b935060018361266e9190614131565b92505b61267a83612ba8565b6126c85763bc17c2008461268e91906140be565b915063bc17c200826126a09190614064565b846126ab91906140ef565b93506064826126ba9190614064565b836126c59190614131565b92505b5b6307861f80846126d991906140be565b91506307861f80826126eb9190614064565b846126f691906140ef565b93506004826127059190614064565b836127109190614131565b925061271b83612b71565b90508063ffffffff16841061274e578063ffffffff168461273c91906140ef565b935060018361274b9190614131565b92505b61275783612ba8565b612799576301e133808461276b91906140be565b91506301e133808261277d9190614064565b8461278891906140ef565b935081836127969190614131565b92505b5b5050915091565b6000806127ac612d67565b6127b4612d8a565b8593506127c085612ba8565b1561292b57604051806101a00160405280600060ff168152602001601f60ff168152602001601d60ff168152602001601f60ff168152602001601e60ff168152602001601f60ff168152602001601e60ff168152602001601f60ff168152602001601f60ff168152602001601e60ff168152602001601f60ff168152602001601e60ff168152602001601f60ff168152509150604051806101a00160405280600063ffffffff1681526020016228de8063ffffffff168152602001624f1a0063ffffffff1681526020016277f88063ffffffff168152602001629f858063ffffffff16815260200162c8640063ffffffff16815260200162eff10063ffffffff168152602001630118cf8063ffffffff168152602001630141ae0063ffffffff1681526020016301693b0063ffffffff168152602001630192198063ffffffff1681526020016301b9a68063ffffffff1681526020016301e2850063ffffffff168152509050612a8d565b604051806101a00160405280600060ff168152602001601f60ff168152602001601c60ff168152602001601f60ff168152602001601e60ff168152602001601f60ff168152602001601e60ff168152602001601f60ff168152602001601f60ff168152602001601e60ff168152602001601f60ff168152602001601e60ff168152602001601f60ff168152509150604051806101a00160405280600063ffffffff1681526020016228de8063ffffffff168152602001624dc88063ffffffff1681526020016276a70063ffffffff168152602001629e340063ffffffff16815260200162c7128063ffffffff16815260200162ee9f8063ffffffff1681526020016301177e0063ffffffff1681526020016301405c8063ffffffff168152602001630167e98063ffffffff168152602001630190c80063ffffffff1681526020016301b8550063ffffffff1681526020016301e1338063ffffffff1681525090505b6000600190505b600d8160ff161015612b1d57818160ff16600d8110612ab657612ab5613ae0565b5b602002015163ffffffff16851015612b0a5780935081600182612ad99190614176565b60ff16600d8110612aed57612aec613ae0565b5b602002015163ffffffff1685612b0391906140ef565b9450612b1d565b8080612b15906141aa565b915050612a94565b5050509250929050565b60008060008392506201518083612b3e91906140be565b90506201518081612b4f9190614064565b83612b5a91906140ef565b9250600181612b699190613db3565b915050915091565b6000612b7c82612ba8565b15612b9b57620151806301e13380612b949190613db3565b9050612ba3565b6301e1338090505b919050565b600080600483612bb891906141d3565b61ffff1614612bca5760009050612c0e565b600061019083612bda91906141d3565b61ffff161480612bfb57506000606483612bf491906141d3565b61ffff1614155b15612c095760019050612c0e565b600090505b919050565b6040518060c001604052806060815260200160008152602001606081526020016000815260200160008152602001600081525090565b828054612c5590613b3e565b90600052602060002090601f016020900481019282612c775760008555612cbe565b82601f10612c9057805160ff1916838001178555612cbe565b82800160010185558215612cbe579182015b82811115612cbd578251825591602001919060010190612ca2565b5b509050612ccb9190612dad565b5090565b5080546000825560060290600052602060002090810190612cf09190612dca565b50565b604051806101400160405280606081526020016000815260200160008152602001600081526020016000815260200160008152602001600081526020016000815260200160008152602001600081525090565b60405180606001604052806060815260200160008152602001600081525090565b604051806101a00160405280600d90602082028036833780820191505090505090565b604051806101a00160405280600d90602082028036833780820191505090505090565b5b80821115612dc6576000816000905550600101612dae565b5090565b5b80821115612e1d5760008082016000612de49190612e21565b6001820160009055600282016000612dfc9190612e21565b60038201600090556004820160009055600582016000905550600601612dcb565b5090565b508054612e2d90613b3e565b6000825580601f10612e3f5750612e5e565b601f016020900490600052602060002090810190612e5d9190612dad565b5b50565b6000604051905090565b600080fd5b600080fd5b600080fd5b600080fd5b6000601f19601f8301169050919050565b7f4e487b7100000000000000000000000000000000000000000000000000000000600052604160045260246000fd5b612ec882612e7f565b810181811067ffffffffffffffff82111715612ee757612ee6612e90565b5b80604052505050565b6000612efa612e61565b9050612f068282612ebf565b919050565b600067ffffffffffffffff821115612f2657612f25612e90565b5b612f2f82612e7f565b9050602081019050919050565b82818337600083830152505050565b6000612f5e612f5984612f0b565b612ef0565b905082815260208101848484011115612f7a57612f79612e7a565b5b612f85848285612f3c565b509392505050565b600082601f830112612fa257612fa1612e75565b5b8135612fb2848260208601612f4b565b91505092915050565b6000819050919050565b612fce81612fbb565b8114612fd957600080fd5b50565b600081359050612feb81612fc5565b92915050565b6000819050919050565b61300481612ff1565b811461300f57600080fd5b50565b60008135905061302181612ffb565b92915050565b6000806000806080858703121561304157613040612e6b565b5b600085013567ffffffffffffffff81111561305f5761305e612e70565b5b61306b87828801612f8d565b945050602061307c87828801612fdc565b935050604061308d87828801612fdc565b925050606061309e87828801613012565b91505092959194509250565b600081519050919050565b600082825260208201905092915050565b60005b838110156130e45780820151818401526020810190506130c9565b838111156130f3576000848401525b50505050565b6000613104826130aa565b61310e81856130b5565b935061311e8185602086016130c6565b61312781612e7f565b840191505092915050565b61313b81612ff1565b82525050565b61314a81612fbb565b82525050565b600060c083016000830151848203600086015261316d82826130f9565b91505060208301516131826020860182613132565b506040830151848203604086015261319a82826130f9565b91505060608301516131af6060860182613141565b5060808301516131c26080860182613141565b5060a08301516131d560a0860182613141565b508091505092915050565b600060208201905081810360008301526131fa8184613150565b905092915050565b600067ffffffffffffffff82111561321d5761321c612e90565b5b602082029050602081019050919050565b600080fd5b600080fd5b600080fd5b60006060828403121561325357613252613233565b5b61325d6060612ef0565b9050600082013567ffffffffffffffff81111561327d5761327c613238565b5b61328984828501612f8d565b600083015250602061329d84828501612fdc565b60208301525060406132b184828501612fdc565b60408301525092915050565b60006132d06132cb84613202565b612ef0565b905080838252602082019050602084028301858111156132f3576132f261322e565b5b835b8181101561333a57803567ffffffffffffffff81111561331857613317612e75565b5b808601613325898261323d565b855260208501945050506020810190506132f5565b5050509392505050565b600082601f83011261335957613358612e75565b5b81356133698482602086016132bd565b91505092915050565b6000610200828403121561338957613388613233565b5b613394610200612ef0565b9050600082013567ffffffffffffffff8111156133b4576133b3613238565b5b6133c084828501612f8d565b600083015250602082013567ffffffffffffffff8111156133e4576133e3613238565b5b6133f084828501612f8d565b602083015250604082013567ffffffffffffffff81111561341457613413613238565b5b61342084828501612f8d565b604083015250606061343484828501612fdc565b606083015250608061344884828501612fdc565b60808301525060a061345c84828501612fdc565b60a08301525060c061347084828501612fdc565b60c08301525060e061348484828501612fdc565b60e08301525061010061349984828501612fdc565b610100830152506101206134af84828501612fdc565b610120830152506101406134c584828501612fdc565b610140830152506101606134db84828501612fdc565b610160830152506101806134f184828501612fdc565b610180830152506101a061350784828501612fdc565b6101a0830152506101c061351d84828501612fdc565b6101c0830152506101e061353384828501612fdc565b6101e08301525092915050565b600067ffffffffffffffff82111561355b5761355a612e90565b5b602082029050602081019050919050565b6000610140828403121561358357613582613233565b5b61358e610140612ef0565b9050600082013567ffffffffffffffff8111156135ae576135ad613238565b5b6135ba84828501612f8d565b60008301525060206135ce84828501612fdc565b60208301525060406135e284828501612fdc565b60408301525060606135f684828501612fdc565b606083015250608061360a84828501612fdc565b60808301525060a061361e84828501612fdc565b60a08301525060c061363284828501612fdc565b60c08301525060e061364684828501612fdc565b60e08301525061010061365b84828501612fdc565b6101008301525061012061367184828501612fdc565b6101208301525092915050565b600061369161368c84613540565b612ef0565b905080838252602082019050602084028301858111156136b4576136b361322e565b5b835b818110156136fb57803567ffffffffffffffff8111156136d9576136d8612e75565b5b8086016136e6898261356c565b855260208501945050506020810190506136b6565b5050509392505050565b600082601f83011261371a57613719612e75565b5b813561372a84826020860161367e565b91505092915050565b6000806000806080858703121561374d5761374c612e6b565b5b600085013567ffffffffffffffff81111561376b5761376a612e70565b5b61377787828801613344565b945050602061378887828801613012565b935050604085013567ffffffffffffffff8111156137a9576137a8612e70565b5b6137b587828801613372565b925050606085013567ffffffffffffffff8111156137d6576137d5612e70565b5b6137e287828801613705565b91505092959194509250565b600081519050919050565b600082825260208201905092915050565b6000819050602082019050919050565b600060c083016000830151848203600086015261383782826130f9565b915050602083015161384c6020860182613132565b506040830151848203604086015261386482826130f9565b91505060608301516138796060860182613141565b50608083015161388c6080860182613141565b5060a083015161389f60a0860182613141565b508091505092915050565b60006138b6838361381a565b905092915050565b6000602082019050919050565b60006138d6826137ee565b6138e081856137f9565b9350836020820285016138f28561380a565b8060005b8581101561392e578484038952815161390f85826138aa565b945061391a836138be565b925060208a019950506001810190506138f6565b50829750879550505050505092915050565b6000602082019050818103600083015261395a81846138cb565b905092915050565b60006020828403121561397857613977612e6b565b5b600061398684828501613012565b91505092915050565b600082825260208201905092915050565b60006139ab826130aa565b6139b5818561398f565b93506139c58185602086016130c6565b6139ce81612e7f565b840191505092915050565b6139e281612ff1565b82525050565b6139f181612fbb565b82525050565b600060c0820190508181036000830152613a1181896139a0565b9050613a2060208301886139d9565b8181036040830152613a3281876139a0565b9050613a4160608301866139e8565b613a4e60808301856139e8565b613a5b60a08301846139e8565b979650505050505050565b613a6f81612fbb565b82525050565b6000604082019050613a8a6000830185613a66565b613a976020830184613a66565b9392505050565b600081519050613aad81612fc5565b92915050565b600060208284031215613ac957613ac8612e6b565b5b6000613ad784828501613a9e565b91505092915050565b7f4e487b7100000000000000000000000000000000000000000000000000000000600052603260045260246000fd5b7f4e487b7100000000000000000000000000000000000000000000000000000000600052602260045260246000fd5b60006002820490506001821680613b5657607f821691505b602082108103613b6957613b68613b0f565b5b50919050565b7f4e487b7100000000000000000000000000000000000000000000000000000000600052601160045260246000fd5b6000613ba982612fbb565b9150613bb483612fbb565b9250827f7fffffffffffffffffffffffffffffffffffffffffffffffffffffffffffffff0482116000841360008413161615613bf357613bf2613b6f565b5b817f80000000000000000000000000000000000000000000000000000000000000000583126000841260008413161615613c3057613c2f613b6f565b5b827f80000000000000000000000000000000000000000000000000000000000000000582126000841360008412161615613c6d57613c6c613b6f565b5b827f7fffffffffffffffffffffffffffffffffffffffffffffffffffffffffffffff0582126000841260008412161615613caa57613ca9613b6f565b5b828202905092915050565b6000613cc082612ff1565b91507fffffffffffffffffffffffffffffffffffffffffffffffffffffffffffffffff8203613cf257613cf1613b6f565b5b600182019050919050565b600081905092915050565b60008190508160005260206000209050919050565b60008154613d2a81613b3e565b613d348186613cfd565b94506001821660008114613d4f5760018114613d6057613d93565b60ff19831686528186019350613d93565b613d6985613d08565b60005b83811015613d8b57815481890152600182019150602081019050613d6c565b838801955050505b50505092915050565b6000613da88284613d1d565b915081905092915050565b6000613dbe82612ff1565b9150613dc983612ff1565b9250827fffffffffffffffffffffffffffffffffffffffffffffffffffffffffffffffff03821115613dfe57613dfd613b6f565b5b828201905092915050565b6000613e14826130aa565b613e1e8185613cfd565b9350613e2e8185602086016130c6565b80840191505092915050565b6000613e468284613e09565b915081905092915050565b7f4e487b7100000000000000000000000000000000000000000000000000000000600052601260045260246000fd5b6000613e8b82612fbb565b9150613e9683612fbb565b925082613ea657613ea5613e51565b5b600160000383147f800000000000000000000000000000000000000000000000000000000000000083141615613edf57613ede613b6f565b5b828205905092915050565b6000613ef582612fbb565b9150613f0083612fbb565b9250827f800000000000000000000000000000000000000000000000000000000000000001821260008412151615613f3b57613f3a613b6f565b5b827f7fffffffffffffffffffffffffffffffffffffffffffffffffffffffffffffff018213600084121615613f7357613f72613b6f565b5b828203905092915050565b600082825260208201905092915050565b6000613f9a826130aa565b613fa48185613f7e565b9350613fb48185602086016130c6565b613fbd81612e7f565b840191505092915050565b60006040820190508181036000830152613fe28185613f8f565b90508181036020830152613ff68184613f8f565b90509392505050565b60008115159050919050565b61401481613fff565b811461401f57600080fd5b50565b6000815190506140318161400b565b92915050565b60006020828403121561404d5761404c612e6b565b5b600061405b84828501614022565b91505092915050565b600061406f82612ff1565b915061407a83612ff1565b9250817fffffffffffffffffffffffffffffffffffffffffffffffffffffffffffffffff04831182151516156140b3576140b2613b6f565b5b828202905092915050565b60006140c982612ff1565b91506140d483612ff1565b9250826140e4576140e3613e51565b5b828204905092915050565b60006140fa82612ff1565b915061410583612ff1565b92508282101561411857614117613b6f565b5b828203905092915050565b600061ffff82169050919050565b600061413c82614123565b915061414783614123565b92508261ffff0382111561415e5761415d613b6f565b5b828201905092915050565b600060ff82169050919050565b600061418182614169565b915061418c83614169565b92508282101561419f5761419e613b6f565b5b828203905092915050565b60006141b582614169565b915060ff82036141c8576141c7613b6f565b5b600182019050919050565b60006141de82614123565b91506141e983614123565b9250826141f9576141f8613e51565b5b82820690509291505056fea2646970667358221220e7f0cc147d91a8c00b3e447ecbdbf3e8d800dc6148b1ed1c0003bdee2212da6c64736f6c634300080d0033",
  "immutableReferences": {},
  "source": "pragma solidity ^0.8.13;\r\nimport \"./utils/DateUtils.sol\";\r\nimport \"./utils/FixidityLib.sol\";\r\nimport \"./agents/TradeAgent.sol\";\r\nimport \"./Object.sol\";\r\n\r\ncontract RebalanceMarginWifMaxDrawdownControl is Object, TradeAgent{\r\n    using DateUtils for *;\r\n    using StringUtils for string;\r\n    event LogActionMsg(string actionMsgs);\r\n\r\n    uint256 lastExecutedTimestamp;\r\n    uint256 timestamp;\r\n    mapping (string => bool) maxDrawdownDodge;\r\n    mapping (string => int256) benchmarkDrawdownPrice;\r\n    mapping (string => int256) liquidateTickerQty;\r\n    mapping (string => int256) maxStockPrice;\r\n    mapping (string => int256) liquidateTickerPrice;\r\n    mapping (uint256 => RealTimeTickerData[]) realTimeTickersData;\r\n    mapping (uint256 => PortfolioData)  portfolioData;\r\n    mapping (uint256 => PortfolioHolding[]) portfolioHoldingsData;\r\n    uint256 loop = 0;\r\n    int256 rebalanceMargin = int256(5) * FixidityLib.fixed1() / int256(100);\r\n    int256 maxDrawdown = int256(5) * FixidityLib.fixed1() / int256(1000);\r\n    ActionMsg[] public actionMsgs;\r\n\r\n    constructor(){\r\n\r\n    }\r\n\r\n    function run(RealTimeTickerData[] memory _tickerData, uint256 _timeStamp, PortfolioData memory _portfolioData, PortfolioHolding[] memory _portfolioHoldings) public returns (ActionMsg[] memory){\r\n\r\n        require(checkExecution(timestamp));\r\n        renewContractState(_tickerData, _timeStamp, _portfolioData, _portfolioHoldings);\r\n        if(loop == 0){\r\n            int256 capitalForEachStock = FixidityLib.divide(portfolioData[_timeStamp].TotalCashValue, int256(realTimeTickersData[_timeStamp].length));\r\n            for (uint i=0; i < realTimeTickersData[_timeStamp].length; i++){\r\n                RealTimeTickerData memory tickerData = realTimeTickersData[_timeStamp][i];\r\n                string memory tickerName = tickerData.tickerName;\r\n                int256 tickerPrice = tickerData.last;\r\n                int256 sharePurchase = FixidityLib.divide(capitalForEachStock,tickerData.last) * 3;\r\n                ActionMsg memory actionMsg = TradeAgent.placeBuyStockLimitOrderMsg(tickerName,sharePurchase,tickerPrice,_timeStamp);\r\n                actionMsgs.push(actionMsg);\r\n            }\r\n        }\r\n        else{\r\n            int256 targetExLiq = FixidityLib.multiply(rebalanceMargin, portfolioData[_timeStamp].GrossPositionValue);\r\n            for (uint i=0; i < realTimeTickersData[_timeStamp].length; i++){\r\n                int256 tickerPrice = realTimeTickersData[_timeStamp][i].last;\r\n                string memory tickerName = realTimeTickersData[_timeStamp][i].tickerName;\r\n                if (maxDrawdownDodge[realTimeTickersData[_timeStamp][i].tickerName]){\r\n                    if (checkBuyBack(tickerName, tickerPrice)){\r\n                        ActionMsg memory actionMsg = buyBackPosition(tickerName, tickerPrice,_timeStamp);\r\n                        actionMsgs.push(actionMsg);\r\n                    }\r\n                }else{\r\n                    if(checkMaxDrawdownDodge(tickerName,tickerPrice)){\r\n                        ActionMsg memory actionMsg = liquidateTickerPosition(tickerName, tickerPrice ,_timeStamp);\r\n                    }\r\n                    else{\r\n                        if (portfolioData[_timeStamp].ExcessLiquidity > targetExLiq) {\r\n                            int256 exLiqDiff = FixidityLib.subtract(portfolioData[_timeStamp].ExcessLiquidity, targetExLiq);\r\n                            int256 targetSharePurchase = FixidityLib.divide(exLiqDiff,tickerPrice);\r\n\r\n                            if (targetSharePurchase > 0){\r\n                                ActionMsg memory actionMsg = super.placeBuyStockLimitOrderMsg(tickerName,targetSharePurchase,tickerPrice,_timeStamp);\r\n                                actionMsgs.push(actionMsg);\r\n                            }\r\n                        }\r\n                    }\r\n                }\r\n            }\r\n\r\n            for (uint i=0; i < realTimeTickersData[_timeStamp].length; i++){\r\n                int256 tickerPrice = realTimeTickersData[_timeStamp][i].last;\r\n                string memory tickerName = realTimeTickersData[_timeStamp][i].tickerName;\r\n                if (maxDrawdownDodge[realTimeTickersData[_timeStamp][i].tickerName]){\r\n                    updateBenchmarkDrawdownPriceAfterDodge(tickerName, tickerPrice);\r\n                }\r\n                else{\r\n                    updateBenchmarkDrawdownPriceBeforeDodge(tickerName, tickerPrice);\r\n                }\r\n            }\r\n        }\r\n        lastExecutedTimestamp = _timeStamp;\r\n        loop = loop + 1;\r\n\r\n        ActionMsg[] memory msgs = new ActionMsg[](actionMsgs.length);\r\n        for (uint i = 0; i < actionMsgs.length; i++) {\r\n            msgs[i] = actionMsgs[i];\r\n        }\r\n\r\n        return msgs;\r\n    }\r\n\r\n    function renewContractState(RealTimeTickerData[] memory _tickersData, uint256 _timeStamp, PortfolioData memory _portfolioData, PortfolioHolding[] memory _portfolioHoldings) private{\r\n        timestamp = _timeStamp;\r\n\r\n        //        lastExecutedTimestamp = block.timestamp;\r\n        if(loop == 0){\r\n            for (uint i=0; i < _tickersData.length; i++){\r\n                RealTimeTickerData memory tickerData = _tickersData[i];\r\n                string memory tickerName = tickerData.tickerName;\r\n                maxDrawdownDodge[tickerName] = false;\r\n                benchmarkDrawdownPrice[tickerName] = 0;\r\n                liquidateTickerQty[tickerName] = 0;\r\n                maxStockPrice[tickerName] = 0;\r\n                liquidateTickerPrice[tickerName] = 0;\r\n            }\r\n        }\r\n\r\n\r\n        RealTimeTickerData[] storage _realTimeTickerArray = realTimeTickersData[_timeStamp];\r\n        for (uint i = 0; i < _tickersData.length; i++) {\r\n            RealTimeTickerData memory _tickerData = _tickersData[i];\r\n            _realTimeTickerArray[i].bidPrice =_tickerData.bidPrice;\r\n            _realTimeTickerArray[i].last =_tickerData.last;\r\n            _realTimeTickerArray[i].tickerName =_tickerData.tickerName;\r\n        }\r\n\r\n        PortfolioHolding[] storage _portfolioHoldingArray = portfolioHoldingsData[_timeStamp];\r\n        for (uint i = 0; i < _portfolioHoldings.length; i++) {\r\n            PortfolioHolding memory _portfolioHolding = _portfolioHoldings[i];\r\n            _portfolioHoldingArray[i].tickerName = _portfolioHolding.tickerName;\r\n            _portfolioHoldingArray[i].averageCost = _portfolioHolding.averageCost;\r\n            _portfolioHoldingArray[i].costBasis = _portfolioHolding.costBasis;\r\n            _portfolioHoldingArray[i].initMarginReq = _portfolioHolding.initMarginReq;\r\n            _portfolioHoldingArray[i].maintMarginReq = _portfolioHolding.maintMarginReq;\r\n            _portfolioHoldingArray[i].marketPrice = _portfolioHolding.marketPrice;\r\n            _portfolioHoldingArray[i].marketValue = _portfolioHolding.marketValue;\r\n            _portfolioHoldingArray[i].position = _portfolioHolding.position;\r\n            _portfolioHoldingArray[i].realizedPNL = _portfolioHolding.realizedPNL;\r\n            _portfolioHoldingArray[i].unrealizedPNL = _portfolioHolding.unrealizedPNL;\r\n        }\r\n\r\n        portfolioData[_timeStamp] = _portfolioData;\r\n        delete actionMsgs;\r\n    }\r\n\r\n    function checkExecution(uint256 _timestamp) internal returns (bool){\r\n\r\n        bool exec = false;\r\n        uint16 _year;\r\n        uint8 _month;\r\n        uint8 _day;\r\n\r\n        uint16 _lastYear;\r\n        uint8 _lastMonth;\r\n        uint8 _lastday;\r\n\r\n        (_year, _month, _day) = DateUtils.convertTimestampToYMD(_timestamp);\r\n        (_lastYear, _lastMonth, _lastday) = DateUtils.convertTimestampToYMD(lastExecutedTimestamp);\r\n        if (_month != _lastMonth){\r\n            exec = true;\r\n            lastExecutedTimestamp = _timestamp;\r\n            }\r\n        return exec;\r\n    }\r\n\r\n\r\n    function checkBuyBack(string memory tickerName, int256 realTimeTickerPrice)internal returns (bool){\r\n//        range_price = self.benchmark_drawdown_price.get(ticker) * (1 + 0.01)\r\n//        return ticker_price > range_price\r\n        int256 rangePrice = benchmarkDrawdownPrice[tickerName] /100*101;\r\n        return realTimeTickerPrice > rangePrice;\r\n    }\r\n\r\n    function buyBackPosition(string memory tickerName, int256 tickerPrice, uint256 _timeStamp) internal returns (ActionMsg memory) {\r\n        ActionMsg memory actionMsg;\r\n        int256 targetSharePurchase = liquidateTickerQty[tickerName];\r\n        int256 purchaseAmount =  FixidityLib.multiply(targetSharePurchase, tickerPrice);\r\n        if (portfolioData[_timeStamp].BuyingPower >= purchaseAmount){\r\n            actionMsg = super.placeBuyStockLimitOrderMsg(tickerName,targetSharePurchase,tickerPrice,_timeStamp);\r\n        }else{\r\n            targetSharePurchase = portfolioData[_timeStamp].BuyingPower / tickerPrice;\r\n            actionMsg = super.placeBuyStockLimitOrderMsg(tickerName,targetSharePurchase,tickerPrice,_timeStamp);\r\n        }\r\n\r\n        maxDrawdownDodge[tickerName] = false;\r\n        maxStockPrice[tickerName] = tickerPrice;\r\n\r\n        return actionMsg;\r\n    }\r\n\r\n\r\n    function checkMaxDrawdownDodge(string memory tickerName, int256 tickerPrice) private returns (bool){\r\n        return tickerPrice < benchmarkDrawdownPrice[tickerName];\r\n    }\r\n\r\n    function updateBenchmarkDrawdownPriceAfterDodge(string memory tickerName, int256 tickerPrice) private{\r\n//        if real_time_ticker_price < self.benchmark_drawdown_price[ticker] * 0.7:\r\n//            target_update_benchmark_drawdown_price = real_time_ticker_price + (\r\n//                    (self.liq_sold_price_dict[ticker] - real_time_ticker_price) * 0.5)\r\n//            if target_update_benchmark_drawdown_price < self.benchmark_drawdown_price[ticker]:\r\n//                self.benchmark_drawdown_price[ticker] = target_update_benchmark_drawdown_price\r\n\r\n        int256 benchmarkDrawdownFactor = int256(70) * FixidityLib.fixed1() / int256(100);\r\n        if (tickerPrice < FixidityLib.multiply(benchmarkDrawdownPrice[tickerName] , benchmarkDrawdownFactor)){\r\n\r\n            int256 tickerDiff = FixidityLib.subtract(liquidateTickerPrice[tickerName],tickerPrice);\r\n            int256 targetUpdateBenchmarkDrawdownPrice = FixidityLib.add(tickerPrice, tickerDiff) * 50 / 100;\r\n            if (targetUpdateBenchmarkDrawdownPrice < benchmarkDrawdownPrice[tickerName]){\r\n                benchmarkDrawdownPrice[tickerName] = targetUpdateBenchmarkDrawdownPrice;\r\n            }\r\n        }\r\n    }\r\n\r\n    function updateBenchmarkDrawdownPriceBeforeDodge(string memory tickerName, int256 realTimeTickerPrice) private{\r\n//        if (self.max_stock_price.get(ticker) == 0):  # if there is no data for the max and benchmark price\r\n//            self.max_stock_price.update({ticker: real_time_ticker_price})\r\n//            benchmark_price = real_time_ticker_price * (1 - self.max_drawdown_ratio)\r\n//            self.benchmark_drawdown_price.update({ticker: benchmark_price})\r\n//        elif real_time_ticker_price > self.max_stock_price.get(ticker):\r\n//            self.max_stock_price.update({ticker: real_time_ticker_price})\r\n//            benchmark_price = real_time_ticker_price * (1 - self.max_drawdown_ratio)\r\n//            self.benchmark_drawdown_price.update({ticker: benchmark_price})\r\n\r\n        if (maxStockPrice[tickerName] == 0){\r\n            maxStockPrice[tickerName] = realTimeTickerPrice;\r\n            int256 drawDownFactor = FixidityLib.subtract(FixidityLib.fixed1(), maxDrawdown);\r\n            int256 tickerBenchmarkPrice = FixidityLib.multiply(maxStockPrice[tickerName], drawDownFactor);\r\n            benchmarkDrawdownPrice[tickerName] = tickerBenchmarkPrice;\r\n        }\r\n        else if (realTimeTickerPrice > maxStockPrice[tickerName]){\r\n            maxStockPrice[tickerName] = realTimeTickerPrice;\r\n            int256 drawDownFactor = FixidityLib.subtract(FixidityLib.fixed1(), maxDrawdown);\r\n            int256 tickerBenchmarkPrice = FixidityLib.multiply(maxStockPrice[tickerName], drawDownFactor);\r\n            benchmarkDrawdownPrice[tickerName] = tickerBenchmarkPrice;\r\n        }\r\n\r\n    }\r\n\r\n    function liquidateTickerPosition(string memory tickerName, int256 tickerPrice, uint256 _timeStamp) private returns (ActionMsg memory){\r\n        PortfolioHolding memory holding = getPortfolioHoldingByTickerName(tickerName, portfolioHoldingsData[_timeStamp]);\r\n        RealTimeTickerData memory tickerData = getRealTimeTickerDataByTickerName(tickerName, realTimeTickersData[_timeStamp]);\r\n        int256 currentPosition = holding.position;\r\n        int256 noLeverageEquity = portfolioData[_timeStamp].EquityWithLoanValue / int256(realTimeTickersData[_timeStamp].length);\r\n        int256 noLeveragePosition = FixidityLib.divide(noLeverageEquity,tickerData.last);\r\n        int256 targetLeveragePositionAtLiquidState = noLeveragePosition * 12 / 10;\r\n\r\n        int256 targetSoldPosition = currentPosition - targetLeveragePositionAtLiquidState;\r\n        ActionMsg memory actionMsg = super.placeSellStockLimitOrderMsg(tickerName,targetSoldPosition,tickerPrice, _timeStamp);\r\n\r\n        benchmarkDrawdownPrice[tickerName] = tickerPrice;\r\n        liquidateTickerQty[tickerName] = targetSoldPosition;\r\n        liquidateTickerPrice[tickerName] = tickerPrice;\r\n        maxDrawdownDodge[tickerName] = true;\r\n\r\n        return actionMsg;\r\n    }\r\n\r\n    function getPortfolioHoldingByTickerName(string memory tickerName, PortfolioHolding[] memory holdings) private returns (PortfolioHolding memory){\r\n        PortfolioHolding memory holding;\r\n        for(uint i=0; i< holdings.length; i++){\r\n            if(holdings[i].tickerName.compareStrings(tickerName)){\r\n                holding = holdings[i];\r\n            }\r\n        }\r\n        return holding;\r\n    }\r\n\r\n    function getRealTimeTickerDataByTickerName(string memory tickerName,  RealTimeTickerData[] memory realTimeTickersData) private returns (RealTimeTickerData memory){\r\n        RealTimeTickerData memory realTimeTickerData;\r\n        for (uint i=0; i<realTimeTickersData.length; i++){\r\n            if(realTimeTickersData[i].tickerName.compareStrings(tickerName)){\r\n                realTimeTickerData = realTimeTickersData[i];\r\n            }\r\n        }\r\n        return realTimeTickerData;\r\n    }\r\n}\r\n",
  "sourcePath": "C:\\Users\\lam\\Documents\\GitHub\\IndexTradingApplication\\contract\\contracts\\RebalanceMarginWifMaxDrawdownControl.sol",
  "compiler": {
    "name": "solc",
    "version": "0.8.13+commit.abaa5c0e.Emscripten.clang"
  },
  "schemaVersion": "3.4.7",
  "updatedAt": "2022-06-22T10:02:27.933Z",
  "networkType": "ethereum",
  "devdoc": {
    "kind": "dev",
    "methods": {},
    "version": 1
  },
  "userdoc": {
    "kind": "user",
    "methods": {},
    "version": 1
  }
}