{
  "contractName": "RebalanceMarginWifMaxDrawdownControl",
  "abi": [
    {
      "inputs": [],
      "stateMutability": "nonpayable",
      "type": "constructor"
    },
    {
      "anonymous": false,
      "inputs": [
        {
          "indexed": false,
          "internalType": "string",
          "name": "actionMsgs",
          "type": "string"
        }
      ],
      "name": "LogActionMsg",
      "type": "event"
    },
    {
      "inputs": [
        {
          "internalType": "string",
          "name": "_tickerName",
          "type": "string"
        },
        {
          "internalType": "int256",
          "name": "_targetSharePurchase",
          "type": "int256"
        },
        {
          "internalType": "int256",
          "name": "_transactionTickerPrice",
          "type": "int256"
        },
        {
          "internalType": "uint256",
          "name": "_timestamp",
          "type": "uint256"
        }
      ],
      "name": "placeBuyStockLimitOrderMsg",
      "outputs": [
        {
          "components": [
            {
              "internalType": "string",
              "name": "tickerName",
              "type": "string"
            },
            {
              "internalType": "uint256",
              "name": "timestamp",
              "type": "uint256"
            },
            {
              "internalType": "string",
              "name": "transactionType",
              "type": "string"
            },
            {
              "internalType": "int256",
              "name": "positionAction",
              "type": "int256"
            },
            {
              "internalType": "int256",
              "name": "transactionTickerPrice",
              "type": "int256"
            },
            {
              "internalType": "int256",
              "name": "transactionAmount",
              "type": "int256"
            }
          ],
          "internalType": "struct Object.ActionMsg",
          "name": "",
          "type": "tuple"
        }
      ],
      "stateMutability": "nonpayable",
      "type": "function"
    },
    {
      "inputs": [
        {
          "internalType": "string",
          "name": "_tickerName",
          "type": "string"
        },
        {
          "internalType": "int256",
          "name": "_targetShareSell",
          "type": "int256"
        },
        {
          "internalType": "int256",
          "name": "_transactionTickerPrice",
          "type": "int256"
        },
        {
          "internalType": "uint256",
          "name": "_timestamp",
          "type": "uint256"
        }
      ],
      "name": "placeSellStockLimitOrderMsg",
      "outputs": [
        {
          "components": [
            {
              "internalType": "string",
              "name": "tickerName",
              "type": "string"
            },
            {
              "internalType": "uint256",
              "name": "timestamp",
              "type": "uint256"
            },
            {
              "internalType": "string",
              "name": "transactionType",
              "type": "string"
            },
            {
              "internalType": "int256",
              "name": "positionAction",
              "type": "int256"
            },
            {
              "internalType": "int256",
              "name": "transactionTickerPrice",
              "type": "int256"
            },
            {
              "internalType": "int256",
              "name": "transactionAmount",
              "type": "int256"
            }
          ],
          "internalType": "struct Object.ActionMsg",
          "name": "",
          "type": "tuple"
        }
      ],
      "stateMutability": "nonpayable",
      "type": "function"
    },
    {
      "inputs": [
        {
          "internalType": "string",
          "name": "_tickerName",
          "type": "string"
        },
        {
          "internalType": "int256",
          "name": "bidPrice",
          "type": "int256"
        },
        {
          "internalType": "int256",
          "name": "last",
          "type": "int256"
        },
        {
          "internalType": "uint256",
          "name": "_timestamp",
          "type": "uint256"
        }
      ],
      "name": "inputRealTimeTickerData",
      "outputs": [],
      "stateMutability": "nonpayable",
      "type": "function"
    },
    {
      "inputs": [
        {
          "internalType": "string",
          "name": "_tickerName",
          "type": "string"
        },
        {
          "internalType": "uint256",
          "name": "_timeStamp",
          "type": "uint256"
        }
      ],
      "name": "getRealTimeTickerData",
      "outputs": [
        {
          "internalType": "string",
          "name": "",
          "type": "string"
        },
        {
          "internalType": "int256",
          "name": "",
          "type": "int256"
        },
        {
          "internalType": "int256",
          "name": "",
          "type": "int256"
        }
      ],
      "stateMutability": "nonpayable",
      "type": "function"
    },
    {
      "inputs": [
        {
          "internalType": "uint256",
          "name": "_timestamp",
          "type": "uint256"
        },
        {
          "internalType": "int256",
          "name": "FullInitMarginReq",
          "type": "int256"
        },
        {
          "internalType": "int256",
          "name": "FullMainMarginReq",
          "type": "int256"
        }
      ],
      "name": "inputMarginAccount",
      "outputs": [],
      "stateMutability": "nonpayable",
      "type": "function"
    },
    {
      "inputs": [
        {
          "internalType": "uint256",
          "name": "timestamp",
          "type": "uint256"
        }
      ],
      "name": "getMarginAccount",
      "outputs": [
        {
          "internalType": "int256",
          "name": "",
          "type": "int256"
        },
        {
          "internalType": "int256",
          "name": "",
          "type": "int256"
        }
      ],
      "stateMutability": "view",
      "type": "function",
      "constant": true
    },
    {
      "inputs": [
        {
          "internalType": "uint256",
          "name": "_timestamp",
          "type": "uint256"
        },
        {
          "internalType": "int256",
          "name": "AvailableFunds",
          "type": "int256"
        },
        {
          "internalType": "int256",
          "name": "ExcessLiquidity",
          "type": "int256"
        },
        {
          "internalType": "int256",
          "name": "BuyingPower",
          "type": "int256"
        },
        {
          "internalType": "int256",
          "name": "Leverage",
          "type": "int256"
        },
        {
          "internalType": "int256",
          "name": "EquityWithLoanValue",
          "type": "int256"
        }
      ],
      "name": "inputTradingFunds",
      "outputs": [],
      "stateMutability": "nonpayable",
      "type": "function"
    },
    {
      "inputs": [
        {
          "internalType": "uint256",
          "name": "timestamp",
          "type": "uint256"
        }
      ],
      "name": "getTradingFunds",
      "outputs": [
        {
          "internalType": "int256",
          "name": "",
          "type": "int256"
        },
        {
          "internalType": "int256",
          "name": "",
          "type": "int256"
        },
        {
          "internalType": "int256",
          "name": "",
          "type": "int256"
        },
        {
          "internalType": "int256",
          "name": "",
          "type": "int256"
        },
        {
          "internalType": "int256",
          "name": "",
          "type": "int256"
        }
      ],
      "stateMutability": "view",
      "type": "function",
      "constant": true
    },
    {
      "inputs": [
        {
          "internalType": "uint256",
          "name": "_timestamp",
          "type": "uint256"
        },
        {
          "internalType": "int256",
          "name": "TotalCashValue",
          "type": "int256"
        },
        {
          "internalType": "int256",
          "name": "NetDividend",
          "type": "int256"
        },
        {
          "internalType": "int256",
          "name": "NetLiquidation",
          "type": "int256"
        },
        {
          "internalType": "int256",
          "name": "UnrealizedPnL",
          "type": "int256"
        },
        {
          "internalType": "int256",
          "name": "RealizedPnL",
          "type": "int256"
        },
        {
          "internalType": "int256",
          "name": "GrossPositionValue",
          "type": "int256"
        }
      ],
      "name": "inputMktValue",
      "outputs": [],
      "stateMutability": "nonpayable",
      "type": "function"
    },
    {
      "inputs": [
        {
          "internalType": "uint256",
          "name": "_timestamp",
          "type": "uint256"
        }
      ],
      "name": "getMktValue",
      "outputs": [
        {
          "internalType": "int256",
          "name": "",
          "type": "int256"
        },
        {
          "internalType": "int256",
          "name": "",
          "type": "int256"
        },
        {
          "internalType": "int256",
          "name": "",
          "type": "int256"
        },
        {
          "internalType": "int256",
          "name": "",
          "type": "int256"
        },
        {
          "internalType": "int256",
          "name": "",
          "type": "int256"
        },
        {
          "internalType": "int256",
          "name": "",
          "type": "int256"
        }
      ],
      "stateMutability": "view",
      "type": "function",
      "constant": true
    },
    {
      "inputs": [
        {
          "internalType": "uint256",
          "name": "timestamp",
          "type": "uint256"
        },
        {
          "internalType": "string",
          "name": "_tickerName",
          "type": "string"
        },
        {
          "internalType": "int256",
          "name": "position",
          "type": "int256"
        },
        {
          "internalType": "int256",
          "name": "marketPrice",
          "type": "int256"
        },
        {
          "internalType": "int256",
          "name": "averageCost",
          "type": "int256"
        },
        {
          "internalType": "int256",
          "name": "marketValue",
          "type": "int256"
        },
        {
          "internalType": "int256",
          "name": "realizedPNL",
          "type": "int256"
        },
        {
          "internalType": "int256",
          "name": "unrealizedPNL",
          "type": "int256"
        },
        {
          "internalType": "int256",
          "name": "initMarginReq",
          "type": "int256"
        },
        {
          "internalType": "int256",
          "name": "maintMarginReq",
          "type": "int256"
        },
        {
          "internalType": "int256",
          "name": "costBasis",
          "type": "int256"
        }
      ],
      "name": "updatePortfolioHoldingsData",
      "outputs": [],
      "stateMutability": "nonpayable",
      "type": "function"
    },
    {
      "inputs": [
        {
          "internalType": "string",
          "name": "_tickerName",
          "type": "string"
        },
        {
          "internalType": "uint256",
          "name": "_timestamp",
          "type": "uint256"
        }
      ],
      "name": "getPortfolioHolding",
      "outputs": [
        {
          "internalType": "string",
          "name": "",
          "type": "string"
        },
        {
          "internalType": "int256",
          "name": "",
          "type": "int256"
        },
        {
          "internalType": "int256",
          "name": "",
          "type": "int256"
        },
        {
          "internalType": "int256",
          "name": "",
          "type": "int256"
        },
        {
          "internalType": "int256",
          "name": "",
          "type": "int256"
        },
        {
          "internalType": "int256",
          "name": "",
          "type": "int256"
        },
        {
          "internalType": "int256",
          "name": "",
          "type": "int256"
        },
        {
          "internalType": "int256",
          "name": "",
          "type": "int256"
        },
        {
          "internalType": "int256",
          "name": "",
          "type": "int256"
        },
        {
          "internalType": "int256",
          "name": "",
          "type": "int256"
        }
      ],
      "stateMutability": "nonpayable",
      "type": "function"
    },
    {
      "inputs": [
        {
          "internalType": "string",
          "name": "tickerName",
          "type": "string"
        },
        {
          "internalType": "uint256",
          "name": "_timestamp",
          "type": "uint256"
        }
      ],
      "name": "getTickerActionMsg",
      "outputs": [
        {
          "internalType": "string",
          "name": "",
          "type": "string"
        },
        {
          "internalType": "uint256",
          "name": "",
          "type": "uint256"
        },
        {
          "internalType": "string",
          "name": "",
          "type": "string"
        },
        {
          "internalType": "int256",
          "name": "",
          "type": "int256"
        },
        {
          "internalType": "int256",
          "name": "",
          "type": "int256"
        },
        {
          "internalType": "int256",
          "name": "",
          "type": "int256"
        }
      ],
      "stateMutability": "nonpayable",
      "type": "function"
    },
    {
      "inputs": [
        {
          "internalType": "uint256",
          "name": "_loop",
          "type": "uint256"
        },
        {
          "internalType": "uint256",
          "name": "_lastExecutedTimestamp",
          "type": "uint256"
        }
      ],
      "name": "inputLoopWithTimestamps",
      "outputs": [],
      "stateMutability": "nonpayable",
      "type": "function"
    },
    {
      "inputs": [],
      "name": "reinitializeContractState",
      "outputs": [
        {
          "internalType": "string",
          "name": "",
          "type": "string"
        }
      ],
      "stateMutability": "nonpayable",
      "type": "function"
    },
    {
      "inputs": [
        {
          "internalType": "uint256",
          "name": "_timestamp",
          "type": "uint256"
        }
      ],
      "name": "run",
      "outputs": [],
      "stateMutability": "nonpayable",
      "type": "function"
    },
    {
      "inputs": [],
      "name": "getLastExecutedTimestamp",
      "outputs": [
        {
          "internalType": "uint256",
          "name": "",
          "type": "uint256"
        }
      ],
      "stateMutability": "view",
      "type": "function",
      "constant": true
    }
  ],
  "bytecode": "0x60806040526000600f55606473__FixidityLib___________________________632179bb6c6040518163ffffffff1660e01b8152600401602060405180830381865af415801562000055573d6000803e3d6000fd5b505050506040513d601f19601f820116820180604052508101906200007b919062000408565b600562000089919062000469565b620000959190620005bf565b6010556103e873__FixidityLib___________________________632179bb6c6040518163ffffffff1660e01b8152600401602060405180830381865af4158015620000e5573d6000803e3d6000fd5b505050506040513d601f19601f820116820180604052508101906200010b919062000408565b600562000119919062000469565b620001259190620005bf565b6011553480156200013557600080fd5b5060405180604001604052806040518060400160405280600381526020017f515151000000000000000000000000000000000000000000000000000000000081525081526020016040518060400160405280600381526020017f53505900000000000000000000000000000000000000000000000000000000008152508152506001906002620001c792919062000243565b5060016003604051620001da906200068e565b908152602001604051809103902060006101000a81548160ff021916908315150217905550600160036040516200021190620006f5565b908152602001604051809103902060006101000a81548160ff0219169083151502179055506000808190555062000770565b82805482825590600052602060002090810192821562000297579160200282015b828111156200029657825182908051906020019062000285929190620002aa565b509160200191906001019062000264565b5b509050620002a691906200033b565b5090565b828054620002b8906200073b565b90600052602060002090601f016020900481019282620002dc576000855562000328565b82601f10620002f757805160ff191683800117855562000328565b8280016001018555821562000328579182015b82811115620003275782518255916020019190600101906200030a565b5b50905062000337919062000363565b5090565b5b808211156200035f576000818162000355919062000382565b506001016200033c565b5090565b5b808211156200037e57600081600090555060010162000364565b5090565b50805462000390906200073b565b6000825580601f10620003a45750620003c5565b601f016020900490600052602060002090810190620003c4919062000363565b5b50565b600080fd5b6000819050919050565b620003e281620003cd565b8114620003ee57600080fd5b50565b6000815190506200040281620003d7565b92915050565b600060208284031215620004215762000420620003c8565b5b60006200043184828501620003f1565b91505092915050565b7f4e487b7100000000000000000000000000000000000000000000000000000000600052601160045260246000fd5b60006200047682620003cd565b91506200048383620003cd565b9250827f7fffffffffffffffffffffffffffffffffffffffffffffffffffffffffffffff0482116000841360008413161615620004c557620004c46200043a565b5b817f800000000000000000000000000000000000000000000000000000000000000005831260008412600084131616156200050557620005046200043a565b5b827f800000000000000000000000000000000000000000000000000000000000000005821260008413600084121616156200054557620005446200043a565b5b827f7fffffffffffffffffffffffffffffffffffffffffffffffffffffffffffffff05821260008412600084121616156200058557620005846200043a565b5b828202905092915050565b7f4e487b7100000000000000000000000000000000000000000000000000000000600052601260045260246000fd5b6000620005cc82620003cd565b9150620005d983620003cd565b925082620005ec57620005eb62000590565b5b600160000383147f8000000000000000000000000000000000000000000000000000000000000000831416156200062857620006276200043a565b5b828205905092915050565b600081905092915050565b7f5151510000000000000000000000000000000000000000000000000000000000600082015250565b60006200067660038362000633565b915062000683826200063e565b600382019050919050565b60006200069b8262000667565b9150819050919050565b7f5350590000000000000000000000000000000000000000000000000000000000600082015250565b6000620006dd60038362000633565b9150620006ea82620006a5565b600382019050919050565b60006200070282620006ce565b9150819050919050565b7f4e487b7100000000000000000000000000000000000000000000000000000000600052602260045260246000fd5b600060028204905060018216806200075457607f821691505b6020821081036200076a57620007696200070c565b5b50919050565b612a6980620007806000396000f3fe608060405234801561001057600080fd5b506004361061010b5760003560e01c8063543c4b01116100a2578063c4fa8bcc11610071578063c4fa8bcc146102d2578063ceb224cf146102ee578063d6171b701461030a578063ea62e0811461033f578063f2027c25146103715761010b565b8063543c4b0114610247578063a444f5e914610265578063a5f86e9b14610281578063c4f5a5a91461029d5761010b565b806338f18f0b116100de57806338f18f0b146101c15780634395f558146101dd5780634571236b146101f95780634f8ac98d146102175761010b565b806314ea6c19146101105780631eed50501461014057806322bc88f714610171578063384f4a621461018d575b600080fd5b61012a60048036038101906101259190611d57565b6103aa565b6040516101379190611f10565b60405180910390f35b61015a60048036038101906101559190611f32565b610435565b604051610168929190611f6e565b60405180910390f35b61018b60048036038101906101869190611f97565b610482565b005b6101a760048036038101906101a29190611f32565b610510565b6040516101b8959493929190612039565b60405180910390f35b6101db60048036038101906101d6919061208c565b610598565b005b6101f760048036038101906101f291906120cc565b6105cc565b005b610201610649565b60405161020e91906121a3565b60405180910390f35b610231600480360381019061022c9190611d57565b610be9565b60405161023e9190611f10565b60405180910390f35b61024f610c74565b60405161025c91906121d4565b60405180910390f35b61027f600480360381019061027a9190611f32565b610c7d565b005b61029b60048036038101906102969190611d57565b611122565b005b6102b760048036038101906102b291906121ef565b6113e9565b6040516102c99695949392919061224b565b60405180910390f35b6102ec60048036038101906102e791906122ba565b6115b2565b005b6103086004803603810190610303919061230d565b6115fc565b005b610324600480360381019061031f9190611f32565b611700565b6040516103369695949392919061241d565b60405180910390f35b610359600480360381019061035491906121ef565b61179b565b6040516103689392919061247e565b60405180910390f35b61038b600480360381019061038691906121ef565b6118a1565b6040516103a19a999897969594939291906124bc565b60405180910390f35b6103b2611a33565b600083856103c0919061258e565b905060006040518060c001604052808881526020018581526020016040518060400160405280600481526020017f53656c6c0000000000000000000000000000000000000000000000000000000081525081526020018781526020018681526020018381525090508092505050949350505050565b6000806000600a6000858152602001908152602001600020604051806040016040529081600082015481526020016001820154815250509050806000015181602001519250925050915091565b60006040518060c0016040528088815260200187815260200186815260200185815260200184815260200183815250905080600c60008a8152602001908152602001600020600082015181600001556020820151816001015560408201518160020155606082015181600301556080820151816004015560a082015181600501559050505050505050505050565b600080600080600080600b60008881526020019081526020016000206040518060a001604052908160008201548152602001600182015481526020016002820154815260200160038201548152602001600482015481525050905080600001518160200151826040015183606001518460800151955095509550955095505091939590929450565b81600f8190555060028190806001815401808255809150506001900390600052602060002001600090919091909150555050565b60006040518060a0016040528087815260200186815260200185815260200184815260200183815250905080600b6000898152602001908152602001600020600082015181600001556020820151816001015560408201518160020155606082015181600301556080820151816004015590505050505050505050565b6060600060405180602001604052806000815250905060006002805490500361068c576040518060600160405280602b81526020016129e4602b91399050610be2565b60005b600180549050811015610841576003600182815481106106b2576106b16126a5565b5b906000526020600020016040516106c991906127d3565b908152602001604051809103902060006101000a81549060ff02191690556004600182815481106106fd576106fc6126a5565b5b9060005260206000200160405161071491906127d3565b908152602001604051809103902060006101000a81549060ff0219169055600560018281548110610748576107476126a5565b5b9060005260206000200160405161075f91906127d3565b908152602001604051809103902060009055600660018281548110610787576107866126a5565b5b9060005260206000200160405161079e91906127d3565b9081526020016040518091039020600090556007600182815481106107c6576107c56126a5565b5b906000526020600020016040516107dd91906127d3565b908152602001604051809103902060009055600860018281548110610805576108046126a5565b5b9060005260206000200160405161081c91906127d3565b9081526020016040518091039020600090558080610839906127ea565b91505061068f565b5060005b600280549050811015610bb05760005b600180549050811015610a7457600960006002848154811061087a576108796126a5565b5b90600052602060002001548152602001908152602001600020600182815481106108a7576108a66126a5565b5b906000526020600020016040516108be91906127d3565b9081526020016040518091039020600080820160006108dd9190611a69565b600182016000905560028201600090555050600e600060028481548110610907576109066126a5565b5b9060005260206000200154815260200190815260200160002060018281548110610934576109336126a5565b5b9060005260206000200160405161094b91906127d3565b90815260200160405180910390206000808201600061096a9190611a69565b6001820160009055600282016000905560038201600090556004820160009055600582016000905560068201600090556007820160009055600882016000905560098201600090555050600d6000600284815481106109cc576109cb6126a5565b5b90600052602060002001548152602001908152602001600020600182815481106109f9576109f86126a5565b5b90600052602060002001604051610a1091906127d3565b908152602001604051809103902060008082016000610a2f9190611a69565b6001820160009055600282016000610a479190611a69565b60038201600090556004820160009055600582016000905550508080610a6c906127ea565b915050610855565b50600a600060028381548110610a8d57610a8c6126a5565b5b9060005260206000200154815260200190815260200160002060008082016000905560018201600090555050600b600060028381548110610ad157610ad06126a5565b5b9060005260206000200154815260200190815260200160002060008082016000905560018201600090556002820160009055600382016000905560048201600090555050600c600060028381548110610b2d57610b2c6126a5565b5b90600052602060002001548152602001908152602001600020600080820160009055600182016000905560028201600090556003820160009055600482016000905560058201600090555050600060028281548110610b8f57610b8e6126a5565b5b90600052602060002001819055508080610ba8906127ea565b915050610845565b506000808190555060016000610bc69190611aa9565b604051806060016040528060258152602001612a0f6025913990505b8091505090565b610bf1611a33565b60008385610bff919061258e565b905060006040518060c001604052808881526020018581526020016040518060400160405280600381526020017f427579000000000000000000000000000000000000000000000000000000000081525081526020018781526020018681526020018381525090508092505050949350505050565b60008054905090565b60028190806001815401808255809150506001900390600052602060002001600090919091909150556000600f540361110357600073__FixidityLib___________________________63f5984236600c60008581526020019081526020016000206000015473__FixidityLib___________________________632179bb6c6040518163ffffffff1660e01b8152600401602060405180830381865af4158015610d2c573d6000803e3d6000fd5b505050506040513d601f19601f82011682018060405250810190610d509190612847565b600180549050610d60919061258e565b6040518363ffffffff1660e01b8152600401610d7d929190612883565b602060405180830381865af4158015610d9a573d6000803e3d6000fd5b505050506040513d601f19601f82011682018060405250810190610dbe9190612847565b905060005b6001805490508110156111005760006009600085815260200190815260200160002060018381548110610df957610df86126a5565b5b90600052602060002001604051610e1091906127d3565b9081526020016040518091039020604051806060016040529081600082018054610e3990612703565b80601f0160208091040260200160405190810160405280929190818152602001828054610e6590612703565b8015610eb25780601f10610e8757610100808354040283529160200191610eb2565b820191906000526020600020905b815481529060010190602001808311610e9557829003601f168201915b5050505050815260200160018201548152602001600282015481525050905060008160000151905060006040518060c0016040528083815260200187815260200160405180602001604052806000815250815260200160008152602001600081526020016000815250905080600d600088815260200190815260200160002083604051610f3f91906128dd565b90815260200160405180910390206000820151816000019080519060200190610f69929190611aca565b50602082015181600101556040820151816002019080519060200190610f90929190611aca565b50606082015181600301556080820151816004015560a082015181600501559050506000836040015190506000846040015187610fcd9190612923565b90506000600382610fde919061258e565b905060008382610fee919061258e565b90506040518060c001604052808781526020018b81526020016040518060400160405280600381526020017f4275790000000000000000000000000000000000000000000000000000000000815250815260200183815260200185815260200182815250600d60008c81526020019081526020016000208760405161107391906128dd565b9081526020016040518091039020600082015181600001908051906020019061109d929190611aca565b506020820151816001015560408201518160020190805190602001906110c4929190611aca565b50606082015181600301556080820151816004015560a082015181600501559050505050505050505080806110f8906127ea565b915050610dc3565b50505b806000819055506001600f54611119919061298d565b600f8190555050565b6000604051806060016040528086815260200185815260200184815250905080600960008481526020019081526020016000208660405161116391906128dd565b9081526020016040518091039020600082015181600001908051906020019061118d929190611aca565b5060208201518160010155604082015181600201559050506000600f54036112775760006004866040516111c191906128dd565b908152602001604051809103902060006101000a81548160ff02191690831515021790555060006005866040516111f891906128dd565b908152602001604051809103902081905550600060068660405161121c91906128dd565b908152602001604051809103902081905550600060078660405161124091906128dd565b908152602001604051809103902081905550600060088660405161126491906128dd565b9081526020016040518091039020819055505b60038560405161128791906128dd565b908152602001604051809103902060009054906101000a900460ff166113e2576001859080600181540180825580915050600190039060005260206000200160009091909190915090805190602001906112e2929190611aca565b5060016003866040516112f591906128dd565b908152602001604051809103902060006101000a81548160ff021916908315150217905550600060048660405161132c91906128dd565b908152602001604051809103902060006101000a81548160ff021916908315150217905550600060058660405161136391906128dd565b908152602001604051809103902081905550600060068660405161138791906128dd565b90815260200160405180910390208190555060006007866040516113ab91906128dd565b90815260200160405180910390208190555060006008866040516113cf91906128dd565b9081526020016040518091039020819055505b5050505050565b606060006060600080600080600d60008981526020019081526020016000208960405161141691906128dd565b90815260200160405180910390206040518060c001604052908160008201805461143f90612703565b80601f016020809104026020016040519081016040528092919081815260200182805461146b90612703565b80156114b85780601f1061148d576101008083540402835291602001916114b8565b820191906000526020600020905b81548152906001019060200180831161149b57829003601f168201915b50505050508152602001600182015481526020016002820180546114db90612703565b80601f016020809104026020016040519081016040528092919081815260200182805461150790612703565b80156115545780601f1061152957610100808354040283529160200191611554565b820191906000526020600020905b81548152906001019060200180831161153757829003601f168201915b5050505050815260200160038201548152602001600482015481526020016005820154815250509050806000015181602001518260400151836060015184608001518560a00151965096509650965096509650509295509295509295565b6000604051806040016040528084815260200183815250905080600a6000868152602001908152602001600020600082015181600001556020820151816001015590505050505050565b60006040518061014001604052808c81526020018b81526020018a815260200189815260200188815260200187815260200186815260200185815260200184815260200183815250905080600e60008e81526020019081526020016000208c60405161166891906128dd565b90815260200160405180910390206000820151816000019080519060200190611692929190611aca565b506020820151816001015560408201518160020155606082015181600301556080820151816004015560a0820151816005015560c0820151816006015560e0820151816007015561010082015181600801556101208201518160090155905050505050505050505050505050565b6000806000806000806000600c60008981526020019081526020016000206040518060c001604052908160008201548152602001600182015481526020016002820154815260200160038201548152602001600482015481526020016005820154815250509050806000015181602001518260400151836060015184608001518560a001519650965096509650965096505091939550919395565b6060600080600060096000868152602001908152602001600020866040516117c391906128dd565b90815260200160405180910390206040518060600160405290816000820180546117ec90612703565b80601f016020809104026020016040519081016040528092919081815260200182805461181890612703565b80156118655780601f1061183a57610100808354040283529160200191611865565b820191906000526020600020905b81548152906001019060200180831161184857829003601f168201915b50505050508152602001600182015481526020016002820154815250509050806000015181602001518260400151935093509350509250925092565b6060600080600080600080600080600080600e60008d81526020019081526020016000208d6040516118d391906128dd565b9081526020016040518091039020604051806101400160405290816000820180546118fd90612703565b80601f016020809104026020016040519081016040528092919081815260200182805461192990612703565b80156119765780601f1061194b57610100808354040283529160200191611976565b820191906000526020600020905b81548152906001019060200180831161195957829003601f168201915b5050505050815260200160018201548152602001600282015481526020016003820154815260200160048201548152602001600582015481526020016006820154815260200160078201548152602001600882015481526020016009820154815250509050806000015181602001518260400151836060015184608001518560a001518660c001518760e001518861010001518961012001519a509a509a509a509a509a509a509a509a509a50509295989b9194979a5092959850565b6040518060c001604052806060815260200160008152602001606081526020016000815260200160008152602001600081525090565b508054611a7590612703565b6000825580601f10611a875750611aa6565b601f016020900490600052602060002090810190611aa59190611b50565b5b50565b5080546000825590600052602060002090810190611ac79190611b6d565b50565b828054611ad690612703565b90600052602060002090601f016020900481019282611af85760008555611b3f565b82601f10611b1157805160ff1916838001178555611b3f565b82800160010185558215611b3f579182015b82811115611b3e578251825591602001919060010190611b23565b5b509050611b4c9190611b50565b5090565b5b80821115611b69576000816000905550600101611b51565b5090565b5b80821115611b8d5760008181611b849190611a69565b50600101611b6e565b5090565b6000604051905090565b600080fd5b600080fd5b600080fd5b600080fd5b6000601f19601f8301169050919050565b7f4e487b7100000000000000000000000000000000000000000000000000000000600052604160045260246000fd5b611bf882611baf565b810181811067ffffffffffffffff82111715611c1757611c16611bc0565b5b80604052505050565b6000611c2a611b91565b9050611c368282611bef565b919050565b600067ffffffffffffffff821115611c5657611c55611bc0565b5b611c5f82611baf565b9050602081019050919050565b82818337600083830152505050565b6000611c8e611c8984611c3b565b611c20565b905082815260208101848484011115611caa57611ca9611baa565b5b611cb5848285611c6c565b509392505050565b600082601f830112611cd257611cd1611ba5565b5b8135611ce2848260208601611c7b565b91505092915050565b6000819050919050565b611cfe81611ceb565b8114611d0957600080fd5b50565b600081359050611d1b81611cf5565b92915050565b6000819050919050565b611d3481611d21565b8114611d3f57600080fd5b50565b600081359050611d5181611d2b565b92915050565b60008060008060808587031215611d7157611d70611b9b565b5b600085013567ffffffffffffffff811115611d8f57611d8e611ba0565b5b611d9b87828801611cbd565b9450506020611dac87828801611d0c565b9350506040611dbd87828801611d0c565b9250506060611dce87828801611d42565b91505092959194509250565b600081519050919050565b600082825260208201905092915050565b60005b83811015611e14578082015181840152602081019050611df9565b83811115611e23576000848401525b50505050565b6000611e3482611dda565b611e3e8185611de5565b9350611e4e818560208601611df6565b611e5781611baf565b840191505092915050565b611e6b81611d21565b82525050565b611e7a81611ceb565b82525050565b600060c0830160008301518482036000860152611e9d8282611e29565b9150506020830151611eb26020860182611e62565b5060408301518482036040860152611eca8282611e29565b9150506060830151611edf6060860182611e71565b506080830151611ef26080860182611e71565b5060a0830151611f0560a0860182611e71565b508091505092915050565b60006020820190508181036000830152611f2a8184611e80565b905092915050565b600060208284031215611f4857611f47611b9b565b5b6000611f5684828501611d42565b91505092915050565b611f6881611ceb565b82525050565b6000604082019050611f836000830185611f5f565b611f906020830184611f5f565b9392505050565b600080600080600080600060e0888a031215611fb657611fb5611b9b565b5b6000611fc48a828b01611d42565b9750506020611fd58a828b01611d0c565b9650506040611fe68a828b01611d0c565b9550506060611ff78a828b01611d0c565b94505060806120088a828b01611d0c565b93505060a06120198a828b01611d0c565b92505060c061202a8a828b01611d0c565b91505092959891949750929550565b600060a08201905061204e6000830188611f5f565b61205b6020830187611f5f565b6120686040830186611f5f565b6120756060830185611f5f565b6120826080830184611f5f565b9695505050505050565b600080604083850312156120a3576120a2611b9b565b5b60006120b185828601611d42565b92505060206120c285828601611d42565b9150509250929050565b60008060008060008060c087890312156120e9576120e8611b9b565b5b60006120f789828a01611d42565b965050602061210889828a01611d0c565b955050604061211989828a01611d0c565b945050606061212a89828a01611d0c565b935050608061213b89828a01611d0c565b92505060a061214c89828a01611d0c565b9150509295509295509295565b600082825260208201905092915050565b600061217582611dda565b61217f8185612159565b935061218f818560208601611df6565b61219881611baf565b840191505092915050565b600060208201905081810360008301526121bd818461216a565b905092915050565b6121ce81611d21565b82525050565b60006020820190506121e960008301846121c5565b92915050565b6000806040838503121561220657612205611b9b565b5b600083013567ffffffffffffffff81111561222457612223611ba0565b5b61223085828601611cbd565b925050602061224185828601611d42565b9150509250929050565b600060c0820190508181036000830152612265818961216a565b905061227460208301886121c5565b8181036040830152612286818761216a565b90506122956060830186611f5f565b6122a26080830185611f5f565b6122af60a0830184611f5f565b979650505050505050565b6000806000606084860312156122d3576122d2611b9b565b5b60006122e186828701611d42565b93505060206122f286828701611d0c565b925050604061230386828701611d0c565b9150509250925092565b60008060008060008060008060008060006101608c8e03121561233357612332611b9b565b5b60006123418e828f01611d42565b9b505060208c013567ffffffffffffffff81111561236257612361611ba0565b5b61236e8e828f01611cbd565b9a5050604061237f8e828f01611d0c565b99505060606123908e828f01611d0c565b98505060806123a18e828f01611d0c565b97505060a06123b28e828f01611d0c565b96505060c06123c38e828f01611d0c565b95505060e06123d48e828f01611d0c565b9450506101006123e68e828f01611d0c565b9350506101206123f88e828f01611d0c565b92505061014061240a8e828f01611d0c565b9150509295989b509295989b9093969950565b600060c0820190506124326000830189611f5f565b61243f6020830188611f5f565b61244c6040830187611f5f565b6124596060830186611f5f565b6124666080830185611f5f565b61247360a0830184611f5f565b979650505050505050565b60006060820190508181036000830152612498818661216a565b90506124a76020830185611f5f565b6124b46040830184611f5f565b949350505050565b60006101408201905081810360008301526124d7818d61216a565b90506124e6602083018c611f5f565b6124f3604083018b611f5f565b612500606083018a611f5f565b61250d6080830189611f5f565b61251a60a0830188611f5f565b61252760c0830187611f5f565b61253460e0830186611f5f565b612542610100830185611f5f565b612550610120830184611f5f565b9b9a5050505050505050505050565b7f4e487b7100000000000000000000000000000000000000000000000000000000600052601160045260246000fd5b600061259982611ceb565b91506125a483611ceb565b9250827f7fffffffffffffffffffffffffffffffffffffffffffffffffffffffffffffff04821160008413600084131616156125e3576125e261255f565b5b817f800000000000000000000000000000000000000000000000000000000000000005831260008412600084131616156126205761261f61255f565b5b827f8000000000000000000000000000000000000000000000000000000000000000058212600084136000841216161561265d5761265c61255f565b5b827f7fffffffffffffffffffffffffffffffffffffffffffffffffffffffffffffff058212600084126000841216161561269a5761269961255f565b5b828202905092915050565b7f4e487b7100000000000000000000000000000000000000000000000000000000600052603260045260246000fd5b7f4e487b7100000000000000000000000000000000000000000000000000000000600052602260045260246000fd5b6000600282049050600182168061271b57607f821691505b60208210810361272e5761272d6126d4565b5b50919050565b600081905092915050565b60008190508160005260206000209050919050565b6000815461276181612703565b61276b8186612734565b945060018216600081146127865760018114612797576127ca565b60ff198316865281860193506127ca565b6127a08561273f565b60005b838110156127c2578154818901526001820191506020810190506127a3565b838801955050505b50505092915050565b60006127df8284612754565b915081905092915050565b60006127f582611d21565b91507fffffffffffffffffffffffffffffffffffffffffffffffffffffffffffffffff82036128275761282661255f565b5b600182019050919050565b60008151905061284181611cf5565b92915050565b60006020828403121561285d5761285c611b9b565b5b600061286b84828501612832565b91505092915050565b61287d81611ceb565b82525050565b60006040820190506128986000830185612874565b6128a56020830184612874565b9392505050565b60006128b782611dda565b6128c18185612734565b93506128d1818560208601611df6565b80840191505092915050565b60006128e982846128ac565b915081905092915050565b7f4e487b7100000000000000000000000000000000000000000000000000000000600052601260045260246000fd5b600061292e82611ceb565b915061293983611ceb565b925082612949576129486128f4565b5b600160000383147f8000000000000000000000000000000000000000000000000000000000000000831416156129825761298161255f565b5b828205905092915050565b600061299882611d21565b91506129a383611d21565b9250827fffffffffffffffffffffffffffffffffffffffffffffffffffffffffffffffff038211156129d8576129d761255f565b5b82820190509291505056fe436f6e747261637420737461746520686173206e6f74206265656e20696e697469616c697a656420796574436f6e747261637420737461746520686173206265656e207265696e697469616c697a6564a2646970667358221220b7d860585192e66f76e126a4e47c68a6c548e81d3a37c6a66ee27f949f220e6964736f6c634300080d0033",
  "deployedBytecode": "0x608060405234801561001057600080fd5b506004361061010b5760003560e01c8063543c4b01116100a2578063c4fa8bcc11610071578063c4fa8bcc146102d2578063ceb224cf146102ee578063d6171b701461030a578063ea62e0811461033f578063f2027c25146103715761010b565b8063543c4b0114610247578063a444f5e914610265578063a5f86e9b14610281578063c4f5a5a91461029d5761010b565b806338f18f0b116100de57806338f18f0b146101c15780634395f558146101dd5780634571236b146101f95780634f8ac98d146102175761010b565b806314ea6c19146101105780631eed50501461014057806322bc88f714610171578063384f4a621461018d575b600080fd5b61012a60048036038101906101259190611d57565b6103aa565b6040516101379190611f10565b60405180910390f35b61015a60048036038101906101559190611f32565b610435565b604051610168929190611f6e565b60405180910390f35b61018b60048036038101906101869190611f97565b610482565b005b6101a760048036038101906101a29190611f32565b610510565b6040516101b8959493929190612039565b60405180910390f35b6101db60048036038101906101d6919061208c565b610598565b005b6101f760048036038101906101f291906120cc565b6105cc565b005b610201610649565b60405161020e91906121a3565b60405180910390f35b610231600480360381019061022c9190611d57565b610be9565b60405161023e9190611f10565b60405180910390f35b61024f610c74565b60405161025c91906121d4565b60405180910390f35b61027f600480360381019061027a9190611f32565b610c7d565b005b61029b60048036038101906102969190611d57565b611122565b005b6102b760048036038101906102b291906121ef565b6113e9565b6040516102c99695949392919061224b565b60405180910390f35b6102ec60048036038101906102e791906122ba565b6115b2565b005b6103086004803603810190610303919061230d565b6115fc565b005b610324600480360381019061031f9190611f32565b611700565b6040516103369695949392919061241d565b60405180910390f35b610359600480360381019061035491906121ef565b61179b565b6040516103689392919061247e565b60405180910390f35b61038b600480360381019061038691906121ef565b6118a1565b6040516103a19a999897969594939291906124bc565b60405180910390f35b6103b2611a33565b600083856103c0919061258e565b905060006040518060c001604052808881526020018581526020016040518060400160405280600481526020017f53656c6c0000000000000000000000000000000000000000000000000000000081525081526020018781526020018681526020018381525090508092505050949350505050565b6000806000600a6000858152602001908152602001600020604051806040016040529081600082015481526020016001820154815250509050806000015181602001519250925050915091565b60006040518060c0016040528088815260200187815260200186815260200185815260200184815260200183815250905080600c60008a8152602001908152602001600020600082015181600001556020820151816001015560408201518160020155606082015181600301556080820151816004015560a082015181600501559050505050505050505050565b600080600080600080600b60008881526020019081526020016000206040518060a001604052908160008201548152602001600182015481526020016002820154815260200160038201548152602001600482015481525050905080600001518160200151826040015183606001518460800151955095509550955095505091939590929450565b81600f8190555060028190806001815401808255809150506001900390600052602060002001600090919091909150555050565b60006040518060a0016040528087815260200186815260200185815260200184815260200183815250905080600b6000898152602001908152602001600020600082015181600001556020820151816001015560408201518160020155606082015181600301556080820151816004015590505050505050505050565b6060600060405180602001604052806000815250905060006002805490500361068c576040518060600160405280602b81526020016129e4602b91399050610be2565b60005b600180549050811015610841576003600182815481106106b2576106b16126a5565b5b906000526020600020016040516106c991906127d3565b908152602001604051809103902060006101000a81549060ff02191690556004600182815481106106fd576106fc6126a5565b5b9060005260206000200160405161071491906127d3565b908152602001604051809103902060006101000a81549060ff0219169055600560018281548110610748576107476126a5565b5b9060005260206000200160405161075f91906127d3565b908152602001604051809103902060009055600660018281548110610787576107866126a5565b5b9060005260206000200160405161079e91906127d3565b9081526020016040518091039020600090556007600182815481106107c6576107c56126a5565b5b906000526020600020016040516107dd91906127d3565b908152602001604051809103902060009055600860018281548110610805576108046126a5565b5b9060005260206000200160405161081c91906127d3565b9081526020016040518091039020600090558080610839906127ea565b91505061068f565b5060005b600280549050811015610bb05760005b600180549050811015610a7457600960006002848154811061087a576108796126a5565b5b90600052602060002001548152602001908152602001600020600182815481106108a7576108a66126a5565b5b906000526020600020016040516108be91906127d3565b9081526020016040518091039020600080820160006108dd9190611a69565b600182016000905560028201600090555050600e600060028481548110610907576109066126a5565b5b9060005260206000200154815260200190815260200160002060018281548110610934576109336126a5565b5b9060005260206000200160405161094b91906127d3565b90815260200160405180910390206000808201600061096a9190611a69565b6001820160009055600282016000905560038201600090556004820160009055600582016000905560068201600090556007820160009055600882016000905560098201600090555050600d6000600284815481106109cc576109cb6126a5565b5b90600052602060002001548152602001908152602001600020600182815481106109f9576109f86126a5565b5b90600052602060002001604051610a1091906127d3565b908152602001604051809103902060008082016000610a2f9190611a69565b6001820160009055600282016000610a479190611a69565b60038201600090556004820160009055600582016000905550508080610a6c906127ea565b915050610855565b50600a600060028381548110610a8d57610a8c6126a5565b5b9060005260206000200154815260200190815260200160002060008082016000905560018201600090555050600b600060028381548110610ad157610ad06126a5565b5b9060005260206000200154815260200190815260200160002060008082016000905560018201600090556002820160009055600382016000905560048201600090555050600c600060028381548110610b2d57610b2c6126a5565b5b90600052602060002001548152602001908152602001600020600080820160009055600182016000905560028201600090556003820160009055600482016000905560058201600090555050600060028281548110610b8f57610b8e6126a5565b5b90600052602060002001819055508080610ba8906127ea565b915050610845565b506000808190555060016000610bc69190611aa9565b604051806060016040528060258152602001612a0f6025913990505b8091505090565b610bf1611a33565b60008385610bff919061258e565b905060006040518060c001604052808881526020018581526020016040518060400160405280600381526020017f427579000000000000000000000000000000000000000000000000000000000081525081526020018781526020018681526020018381525090508092505050949350505050565b60008054905090565b60028190806001815401808255809150506001900390600052602060002001600090919091909150556000600f540361110357600073__FixidityLib___________________________63f5984236600c60008581526020019081526020016000206000015473__FixidityLib___________________________632179bb6c6040518163ffffffff1660e01b8152600401602060405180830381865af4158015610d2c573d6000803e3d6000fd5b505050506040513d601f19601f82011682018060405250810190610d509190612847565b600180549050610d60919061258e565b6040518363ffffffff1660e01b8152600401610d7d929190612883565b602060405180830381865af4158015610d9a573d6000803e3d6000fd5b505050506040513d601f19601f82011682018060405250810190610dbe9190612847565b905060005b6001805490508110156111005760006009600085815260200190815260200160002060018381548110610df957610df86126a5565b5b90600052602060002001604051610e1091906127d3565b9081526020016040518091039020604051806060016040529081600082018054610e3990612703565b80601f0160208091040260200160405190810160405280929190818152602001828054610e6590612703565b8015610eb25780601f10610e8757610100808354040283529160200191610eb2565b820191906000526020600020905b815481529060010190602001808311610e9557829003601f168201915b5050505050815260200160018201548152602001600282015481525050905060008160000151905060006040518060c0016040528083815260200187815260200160405180602001604052806000815250815260200160008152602001600081526020016000815250905080600d600088815260200190815260200160002083604051610f3f91906128dd565b90815260200160405180910390206000820151816000019080519060200190610f69929190611aca565b50602082015181600101556040820151816002019080519060200190610f90929190611aca565b50606082015181600301556080820151816004015560a082015181600501559050506000836040015190506000846040015187610fcd9190612923565b90506000600382610fde919061258e565b905060008382610fee919061258e565b90506040518060c001604052808781526020018b81526020016040518060400160405280600381526020017f4275790000000000000000000000000000000000000000000000000000000000815250815260200183815260200185815260200182815250600d60008c81526020019081526020016000208760405161107391906128dd565b9081526020016040518091039020600082015181600001908051906020019061109d929190611aca565b506020820151816001015560408201518160020190805190602001906110c4929190611aca565b50606082015181600301556080820151816004015560a082015181600501559050505050505050505080806110f8906127ea565b915050610dc3565b50505b806000819055506001600f54611119919061298d565b600f8190555050565b6000604051806060016040528086815260200185815260200184815250905080600960008481526020019081526020016000208660405161116391906128dd565b9081526020016040518091039020600082015181600001908051906020019061118d929190611aca565b5060208201518160010155604082015181600201559050506000600f54036112775760006004866040516111c191906128dd565b908152602001604051809103902060006101000a81548160ff02191690831515021790555060006005866040516111f891906128dd565b908152602001604051809103902081905550600060068660405161121c91906128dd565b908152602001604051809103902081905550600060078660405161124091906128dd565b908152602001604051809103902081905550600060088660405161126491906128dd565b9081526020016040518091039020819055505b60038560405161128791906128dd565b908152602001604051809103902060009054906101000a900460ff166113e2576001859080600181540180825580915050600190039060005260206000200160009091909190915090805190602001906112e2929190611aca565b5060016003866040516112f591906128dd565b908152602001604051809103902060006101000a81548160ff021916908315150217905550600060048660405161132c91906128dd565b908152602001604051809103902060006101000a81548160ff021916908315150217905550600060058660405161136391906128dd565b908152602001604051809103902081905550600060068660405161138791906128dd565b90815260200160405180910390208190555060006007866040516113ab91906128dd565b90815260200160405180910390208190555060006008866040516113cf91906128dd565b9081526020016040518091039020819055505b5050505050565b606060006060600080600080600d60008981526020019081526020016000208960405161141691906128dd565b90815260200160405180910390206040518060c001604052908160008201805461143f90612703565b80601f016020809104026020016040519081016040528092919081815260200182805461146b90612703565b80156114b85780601f1061148d576101008083540402835291602001916114b8565b820191906000526020600020905b81548152906001019060200180831161149b57829003601f168201915b50505050508152602001600182015481526020016002820180546114db90612703565b80601f016020809104026020016040519081016040528092919081815260200182805461150790612703565b80156115545780601f1061152957610100808354040283529160200191611554565b820191906000526020600020905b81548152906001019060200180831161153757829003601f168201915b5050505050815260200160038201548152602001600482015481526020016005820154815250509050806000015181602001518260400151836060015184608001518560a00151965096509650965096509650509295509295509295565b6000604051806040016040528084815260200183815250905080600a6000868152602001908152602001600020600082015181600001556020820151816001015590505050505050565b60006040518061014001604052808c81526020018b81526020018a815260200189815260200188815260200187815260200186815260200185815260200184815260200183815250905080600e60008e81526020019081526020016000208c60405161166891906128dd565b90815260200160405180910390206000820151816000019080519060200190611692929190611aca565b506020820151816001015560408201518160020155606082015181600301556080820151816004015560a0820151816005015560c0820151816006015560e0820151816007015561010082015181600801556101208201518160090155905050505050505050505050505050565b6000806000806000806000600c60008981526020019081526020016000206040518060c001604052908160008201548152602001600182015481526020016002820154815260200160038201548152602001600482015481526020016005820154815250509050806000015181602001518260400151836060015184608001518560a001519650965096509650965096505091939550919395565b6060600080600060096000868152602001908152602001600020866040516117c391906128dd565b90815260200160405180910390206040518060600160405290816000820180546117ec90612703565b80601f016020809104026020016040519081016040528092919081815260200182805461181890612703565b80156118655780601f1061183a57610100808354040283529160200191611865565b820191906000526020600020905b81548152906001019060200180831161184857829003601f168201915b50505050508152602001600182015481526020016002820154815250509050806000015181602001518260400151935093509350509250925092565b6060600080600080600080600080600080600e60008d81526020019081526020016000208d6040516118d391906128dd565b9081526020016040518091039020604051806101400160405290816000820180546118fd90612703565b80601f016020809104026020016040519081016040528092919081815260200182805461192990612703565b80156119765780601f1061194b57610100808354040283529160200191611976565b820191906000526020600020905b81548152906001019060200180831161195957829003601f168201915b5050505050815260200160018201548152602001600282015481526020016003820154815260200160048201548152602001600582015481526020016006820154815260200160078201548152602001600882015481526020016009820154815250509050806000015181602001518260400151836060015184608001518560a001518660c001518760e001518861010001518961012001519a509a509a509a509a509a509a509a509a509a50509295989b9194979a5092959850565b6040518060c001604052806060815260200160008152602001606081526020016000815260200160008152602001600081525090565b508054611a7590612703565b6000825580601f10611a875750611aa6565b601f016020900490600052602060002090810190611aa59190611b50565b5b50565b5080546000825590600052602060002090810190611ac79190611b6d565b50565b828054611ad690612703565b90600052602060002090601f016020900481019282611af85760008555611b3f565b82601f10611b1157805160ff1916838001178555611b3f565b82800160010185558215611b3f579182015b82811115611b3e578251825591602001919060010190611b23565b5b509050611b4c9190611b50565b5090565b5b80821115611b69576000816000905550600101611b51565b5090565b5b80821115611b8d5760008181611b849190611a69565b50600101611b6e565b5090565b6000604051905090565b600080fd5b600080fd5b600080fd5b600080fd5b6000601f19601f8301169050919050565b7f4e487b7100000000000000000000000000000000000000000000000000000000600052604160045260246000fd5b611bf882611baf565b810181811067ffffffffffffffff82111715611c1757611c16611bc0565b5b80604052505050565b6000611c2a611b91565b9050611c368282611bef565b919050565b600067ffffffffffffffff821115611c5657611c55611bc0565b5b611c5f82611baf565b9050602081019050919050565b82818337600083830152505050565b6000611c8e611c8984611c3b565b611c20565b905082815260208101848484011115611caa57611ca9611baa565b5b611cb5848285611c6c565b509392505050565b600082601f830112611cd257611cd1611ba5565b5b8135611ce2848260208601611c7b565b91505092915050565b6000819050919050565b611cfe81611ceb565b8114611d0957600080fd5b50565b600081359050611d1b81611cf5565b92915050565b6000819050919050565b611d3481611d21565b8114611d3f57600080fd5b50565b600081359050611d5181611d2b565b92915050565b60008060008060808587031215611d7157611d70611b9b565b5b600085013567ffffffffffffffff811115611d8f57611d8e611ba0565b5b611d9b87828801611cbd565b9450506020611dac87828801611d0c565b9350506040611dbd87828801611d0c565b9250506060611dce87828801611d42565b91505092959194509250565b600081519050919050565b600082825260208201905092915050565b60005b83811015611e14578082015181840152602081019050611df9565b83811115611e23576000848401525b50505050565b6000611e3482611dda565b611e3e8185611de5565b9350611e4e818560208601611df6565b611e5781611baf565b840191505092915050565b611e6b81611d21565b82525050565b611e7a81611ceb565b82525050565b600060c0830160008301518482036000860152611e9d8282611e29565b9150506020830151611eb26020860182611e62565b5060408301518482036040860152611eca8282611e29565b9150506060830151611edf6060860182611e71565b506080830151611ef26080860182611e71565b5060a0830151611f0560a0860182611e71565b508091505092915050565b60006020820190508181036000830152611f2a8184611e80565b905092915050565b600060208284031215611f4857611f47611b9b565b5b6000611f5684828501611d42565b91505092915050565b611f6881611ceb565b82525050565b6000604082019050611f836000830185611f5f565b611f906020830184611f5f565b9392505050565b600080600080600080600060e0888a031215611fb657611fb5611b9b565b5b6000611fc48a828b01611d42565b9750506020611fd58a828b01611d0c565b9650506040611fe68a828b01611d0c565b9550506060611ff78a828b01611d0c565b94505060806120088a828b01611d0c565b93505060a06120198a828b01611d0c565b92505060c061202a8a828b01611d0c565b91505092959891949750929550565b600060a08201905061204e6000830188611f5f565b61205b6020830187611f5f565b6120686040830186611f5f565b6120756060830185611f5f565b6120826080830184611f5f565b9695505050505050565b600080604083850312156120a3576120a2611b9b565b5b60006120b185828601611d42565b92505060206120c285828601611d42565b9150509250929050565b60008060008060008060c087890312156120e9576120e8611b9b565b5b60006120f789828a01611d42565b965050602061210889828a01611d0c565b955050604061211989828a01611d0c565b945050606061212a89828a01611d0c565b935050608061213b89828a01611d0c565b92505060a061214c89828a01611d0c565b9150509295509295509295565b600082825260208201905092915050565b600061217582611dda565b61217f8185612159565b935061218f818560208601611df6565b61219881611baf565b840191505092915050565b600060208201905081810360008301526121bd818461216a565b905092915050565b6121ce81611d21565b82525050565b60006020820190506121e960008301846121c5565b92915050565b6000806040838503121561220657612205611b9b565b5b600083013567ffffffffffffffff81111561222457612223611ba0565b5b61223085828601611cbd565b925050602061224185828601611d42565b9150509250929050565b600060c0820190508181036000830152612265818961216a565b905061227460208301886121c5565b8181036040830152612286818761216a565b90506122956060830186611f5f565b6122a26080830185611f5f565b6122af60a0830184611f5f565b979650505050505050565b6000806000606084860312156122d3576122d2611b9b565b5b60006122e186828701611d42565b93505060206122f286828701611d0c565b925050604061230386828701611d0c565b9150509250925092565b60008060008060008060008060008060006101608c8e03121561233357612332611b9b565b5b60006123418e828f01611d42565b9b505060208c013567ffffffffffffffff81111561236257612361611ba0565b5b61236e8e828f01611cbd565b9a5050604061237f8e828f01611d0c565b99505060606123908e828f01611d0c565b98505060806123a18e828f01611d0c565b97505060a06123b28e828f01611d0c565b96505060c06123c38e828f01611d0c565b95505060e06123d48e828f01611d0c565b9450506101006123e68e828f01611d0c565b9350506101206123f88e828f01611d0c565b92505061014061240a8e828f01611d0c565b9150509295989b509295989b9093969950565b600060c0820190506124326000830189611f5f565b61243f6020830188611f5f565b61244c6040830187611f5f565b6124596060830186611f5f565b6124666080830185611f5f565b61247360a0830184611f5f565b979650505050505050565b60006060820190508181036000830152612498818661216a565b90506124a76020830185611f5f565b6124b46040830184611f5f565b949350505050565b60006101408201905081810360008301526124d7818d61216a565b90506124e6602083018c611f5f565b6124f3604083018b611f5f565b612500606083018a611f5f565b61250d6080830189611f5f565b61251a60a0830188611f5f565b61252760c0830187611f5f565b61253460e0830186611f5f565b612542610100830185611f5f565b612550610120830184611f5f565b9b9a5050505050505050505050565b7f4e487b7100000000000000000000000000000000000000000000000000000000600052601160045260246000fd5b600061259982611ceb565b91506125a483611ceb565b9250827f7fffffffffffffffffffffffffffffffffffffffffffffffffffffffffffffff04821160008413600084131616156125e3576125e261255f565b5b817f800000000000000000000000000000000000000000000000000000000000000005831260008412600084131616156126205761261f61255f565b5b827f8000000000000000000000000000000000000000000000000000000000000000058212600084136000841216161561265d5761265c61255f565b5b827f7fffffffffffffffffffffffffffffffffffffffffffffffffffffffffffffff058212600084126000841216161561269a5761269961255f565b5b828202905092915050565b7f4e487b7100000000000000000000000000000000000000000000000000000000600052603260045260246000fd5b7f4e487b7100000000000000000000000000000000000000000000000000000000600052602260045260246000fd5b6000600282049050600182168061271b57607f821691505b60208210810361272e5761272d6126d4565b5b50919050565b600081905092915050565b60008190508160005260206000209050919050565b6000815461276181612703565b61276b8186612734565b945060018216600081146127865760018114612797576127ca565b60ff198316865281860193506127ca565b6127a08561273f565b60005b838110156127c2578154818901526001820191506020810190506127a3565b838801955050505b50505092915050565b60006127df8284612754565b915081905092915050565b60006127f582611d21565b91507fffffffffffffffffffffffffffffffffffffffffffffffffffffffffffffffff82036128275761282661255f565b5b600182019050919050565b60008151905061284181611cf5565b92915050565b60006020828403121561285d5761285c611b9b565b5b600061286b84828501612832565b91505092915050565b61287d81611ceb565b82525050565b60006040820190506128986000830185612874565b6128a56020830184612874565b9392505050565b60006128b782611dda565b6128c18185612734565b93506128d1818560208601611df6565b80840191505092915050565b60006128e982846128ac565b915081905092915050565b7f4e487b7100000000000000000000000000000000000000000000000000000000600052601260045260246000fd5b600061292e82611ceb565b915061293983611ceb565b925082612949576129486128f4565b5b600160000383147f8000000000000000000000000000000000000000000000000000000000000000831416156129825761298161255f565b5b828205905092915050565b600061299882611d21565b91506129a383611d21565b9250827fffffffffffffffffffffffffffffffffffffffffffffffffffffffffffffffff038211156129d8576129d761255f565b5b82820190509291505056fe436f6e747261637420737461746520686173206e6f74206265656e20696e697469616c697a656420796574436f6e747261637420737461746520686173206265656e207265696e697469616c697a6564a2646970667358221220b7d860585192e66f76e126a4e47c68a6c548e81d3a37c6a66ee27f949f220e6964736f6c634300080d0033",
  "immutableReferences": {},
  "source": "pragma solidity ^0.8.13;\r\nimport \"./utils/DateUtils.sol\";\r\nimport \"./utils/FixidityLib.sol\";\r\nimport \"./agents/TradeAgent.sol\";\r\nimport \"./Object.sol\";\r\n\r\ncontract RebalanceMarginWifMaxDrawdownControl is Object, TradeAgent{\r\n    using DateUtils for *;\r\n    using StringUtils for string;\r\n    event LogActionMsg(string actionMsgs);\r\n\r\n    uint256 lastExecutedTimestamp;\r\n\r\n    string[] tickerNames;\r\n    uint256[] executionTimestamps;\r\n\r\n    mapping (string => bool) tickerExists;\r\n\r\n    mapping (string => bool) maxDrawdownDodge;\r\n    mapping (string => int256) benchmarkDrawdownPrice;\r\n    mapping (string => int256) liquidateTickerQty;\r\n    mapping (string => int256) maxStockPrice;\r\n    mapping (string => int256) liquidateTickerPrice;\r\n    mapping (uint256 => mapping(string => RealTimeTickerData)) realTimeTickersData;\r\n\r\n    mapping(uint256 => MarginAccount) marginAccountData;\r\n    mapping(uint256 => TradingFunds) tradingFundsData;\r\n    mapping(uint256 => MktValue) mktValueData;\r\n\r\n    mapping (uint256 => mapping(string => ActionMsg)) actionMsgs;\r\n    mapping (uint256 => mapping(string => PortfolioHolding)) portfolioHoldingsData;\r\n    uint256 loop = 0;\r\n    int256 rebalanceMargin = int256(5) * FixidityLib.fixed1() / int256(100);\r\n    int256 maxDrawdown = int256(5) * FixidityLib.fixed1() / int256(1000);\r\n\r\n    constructor(){\r\n        tickerNames = [\"QQQ\", \"SPY\"];\r\n        tickerExists[\"QQQ\"] = true;\r\n        tickerExists[\"SPY\"] = true;\r\n\r\n        lastExecutedTimestamp = 0;\r\n    }\r\n\r\n    function inputRealTimeTickerData(string memory _tickerName, int256 bidPrice, int256 last, uint256 _timestamp) public {\r\n        RealTimeTickerData memory tickerData = RealTimeTickerData(_tickerName, bidPrice, last);\r\n        realTimeTickersData[_timestamp][_tickerName] = tickerData;\r\n\r\n        if(loop == 0){\r\n            maxDrawdownDodge[_tickerName] = false;\r\n            benchmarkDrawdownPrice[_tickerName] = 0;\r\n            liquidateTickerQty[_tickerName] = 0;\r\n            maxStockPrice[_tickerName] = 0;\r\n            liquidateTickerPrice[_tickerName] = 0;\r\n        }\r\n\r\n        if (!tickerExists[_tickerName]){\r\n            tickerNames.push(_tickerName);\r\n            tickerExists[_tickerName] = true;\r\n            maxDrawdownDodge[_tickerName] = false;\r\n            benchmarkDrawdownPrice[_tickerName] = 0;\r\n            liquidateTickerQty[_tickerName] = 0;\r\n            maxStockPrice[_tickerName] = 0;\r\n            liquidateTickerPrice[_tickerName] = 0;\r\n        }\r\n    }\r\n\r\n    function getRealTimeTickerData(string memory _tickerName, uint256 _timeStamp) public returns (string memory, int256, int256){\r\n        RealTimeTickerData memory tickerData = realTimeTickersData[_timeStamp][_tickerName];\r\n        return (tickerData.tickerName, tickerData.bidPrice, tickerData.last);\r\n    }\r\n\r\n    function inputMarginAccount(uint256 _timestamp, int256 FullInitMarginReq, int256 FullMainMarginReq) public {\r\n        MarginAccount memory data = MarginAccount(FullInitMarginReq, FullMainMarginReq);\r\n        marginAccountData[_timestamp] = data;\r\n    }\r\n\r\n    function getMarginAccount(uint256 timestamp) public view returns (int256,int256){\r\n        MarginAccount memory data = marginAccountData[timestamp];\r\n        return (data.FullInitMarginReq, data.FullMainMarginReq);\r\n    }\r\n\r\n    function inputTradingFunds(uint256 _timestamp, int256 AvailableFunds, int256 ExcessLiquidity, int256 BuyingPower, int256 Leverage, int256 EquityWithLoanValue) public {\r\n        TradingFunds memory data = TradingFunds(AvailableFunds, ExcessLiquidity, BuyingPower, Leverage, EquityWithLoanValue);\r\n        tradingFundsData[_timestamp] = data;\r\n    }\r\n\r\n    function getTradingFunds(uint256 timestamp) public view returns (int256,int256,int256,int256,int256){\r\n        TradingFunds memory data = tradingFundsData[timestamp];\r\n        return (data.AvailableFunds, data.ExcessLiquidity, data.BuyingPower, data.Leverage, data.EquityWithLoanValue);\r\n    }\r\n\r\n    function inputMktValue(uint256 _timestamp, int256 TotalCashValue, int256 NetDividend, int256 NetLiquidation, int256 UnrealizedPnL, int256 RealizedPnL, int256 GrossPositionValue) public {\r\n        MktValue memory data = MktValue(TotalCashValue, NetDividend, NetLiquidation, UnrealizedPnL, RealizedPnL, GrossPositionValue);\r\n        mktValueData[_timestamp] = data;\r\n    }\r\n\r\n    function getMktValue(uint256 _timestamp) public view returns (int256,int256,int256,int256,int256,int256){\r\n        MktValue memory data = mktValueData[_timestamp];\r\n        return (data.TotalCashValue, data.NetDividend, data.NetLiquidation, data.UnrealizedPnL, data.RealizedPnL, data.GrossPositionValue);\r\n    }\r\n\r\n    function updatePortfolioHoldingsData(uint256 timestamp, string memory _tickerName, int256 position, int256 marketPrice, int256 averageCost, int256 marketValue, int256 realizedPNL, int256 unrealizedPNL, int256 initMarginReq, int256 maintMarginReq, int256 costBasis) public {\r\n        PortfolioHolding memory holding = PortfolioHolding(_tickerName, position, marketPrice, averageCost, marketValue, realizedPNL, unrealizedPNL, initMarginReq, maintMarginReq, costBasis);\r\n        portfolioHoldingsData[timestamp][_tickerName] = holding;\r\n    }\r\n\r\n    function getPortfolioHolding(string memory _tickerName, uint256 _timestamp) public returns (string memory,int256,int256,int256,int256,int256,int256,int256,int256,int256){\r\n        PortfolioHolding memory holding = portfolioHoldingsData[_timestamp][_tickerName];\r\n        return (holding.tickerName, holding.position, holding.marketPrice, holding.averageCost, holding.marketValue, holding.realizedPNL, holding.unrealizedPNL, holding.initMarginReq, holding.maintMarginReq, holding.costBasis);\r\n    }\r\n\r\n    function getTickerActionMsg(string memory tickerName, uint256 _timestamp) public returns (string memory, uint256, string memory, int256, int256, int256){\r\n        ActionMsg memory actionMsg = actionMsgs[_timestamp][tickerName];\r\n        return (actionMsg.tickerName, actionMsg.timestamp, actionMsg.transactionType, actionMsg.positionAction, actionMsg.transactionTickerPrice, actionMsg.transactionAmount);\r\n    }\r\n\r\n    function inputLoopWithTimestamps(uint256 _loop, uint256 _lastExecutedTimestamp) public {\r\n        loop = _loop;\r\n        executionTimestamps.push(_lastExecutedTimestamp);\r\n    }\r\n\r\n    function reinitializeContractState() public returns (string memory){\r\n        string memory msg = \"\";\r\n        if (executionTimestamps.length == 0){\r\n            msg = \"Contract state has not been initialized yet\";\r\n        }else{\r\n            for (uint i=0; i < tickerNames.length; i++){\r\n                delete tickerExists[tickerNames[i]];\r\n                delete maxDrawdownDodge[tickerNames[i]];\r\n                delete benchmarkDrawdownPrice[tickerNames[i]];\r\n                delete liquidateTickerQty[tickerNames[i]];\r\n                delete maxStockPrice[tickerNames[i]];\r\n                delete liquidateTickerPrice[tickerNames[i]];\r\n            }\r\n            for (uint i=0; i < executionTimestamps.length; i++){\r\n                for (uint j=0; j < tickerNames.length; j++){\r\n                    delete realTimeTickersData[executionTimestamps[i]][tickerNames[j]];\r\n                    delete portfolioHoldingsData[executionTimestamps[i]][tickerNames[j]];\r\n                    delete actionMsgs[executionTimestamps[i]][tickerNames[j]];\r\n                }\r\n\r\n                delete marginAccountData[executionTimestamps[i]];\r\n                delete tradingFundsData[executionTimestamps[i]];\r\n                delete mktValueData[executionTimestamps[i]];\r\n                executionTimestamps[i] = 0;\r\n            }\r\n            lastExecutedTimestamp = 0;\r\n            delete tickerNames;\r\n            msg = \"Contract state has been reinitialized\";\r\n        }\r\n        return msg;\r\n    }\r\n\r\n\r\n\r\n    function run(uint256 _timestamp) public{\r\n        executionTimestamps.push(_timestamp);\r\n        if(loop == 0){\r\n            int256 capitalForEachStock = FixidityLib.divide(mktValueData[_timestamp].TotalCashValue, int256(tickerNames.length) * FixidityLib.fixed1());\r\n            for (uint i=0; i < tickerNames.length; i++){\r\n                RealTimeTickerData memory tickerData = realTimeTickersData[_timestamp][tickerNames[i]];\r\n                string memory _tickerName = tickerData.tickerName;\r\n                ActionMsg memory msg = ActionMsg(_tickerName, _timestamp, \"\", 0, 0, 0);\r\n                actionMsgs[_timestamp][_tickerName] = msg;\r\n\r\n                int256 _tickerPrice = tickerData.last;\r\n//                int256 baseSharePurchase = FixidityLib.divide(capitalForEachStock,tickerData.last);\r\n                int256 _baseSharePurchase = capitalForEachStock/tickerData.last;\r\n                int256 _sharePurchase =  _baseSharePurchase * 3;\r\n//                ActionMsg memory actionMsg = TradeAgent.placeBuyStockLimitOrderMsg(tickerName,sharePurchase,tickerPrice,_timestamp);\r\n                int256 _transactionAmount = _sharePurchase* _tickerPrice;\r\n                actionMsgs[_timestamp][_tickerName] = ActionMsg({tickerName:_tickerName, timestamp: _timestamp, transactionType: 'Buy', positionAction: _sharePurchase, transactionTickerPrice:_tickerPrice, transactionAmount:_transactionAmount});\r\n            }\r\n        }\r\n//        else{\r\n//            int256 targetExLiq = FixidityLib.multiply(rebalanceMargin, mktValueData[_timestamp].GrossPositionValue);\r\n//            for (uuint i=0; i < tickerNames.length; i++){\r\n//                int256 tickerPrice = realTimeTickersData[_timestamp][tickerNames[i]].last;\r\n//                string memory tickerName = tickerNames[i];\r\n//                if (maxDrawdownDodge[tickerNames[i]]){\r\n//                    if (checkBuyBack(tickerName, tickerPrice)){\r\n//                        ActionMsg memory actionMsg = buyBackPosition(tickerName, tickerPrice,_timestamp);\r\n//                        actionMsgs[_timestamp][tickerName] = actionMsg;\r\n//                    }\r\n//                }else{\r\n//                    if(checkMaxDrawdownDodge(tickerName,tickerPrice)){\r\n//                        ActionMsg memory actionMsg = liquidateTickerPosition(tickerName, tickerPrice ,_timestamp);\r\n//                    }\r\n//                    else{\r\n//                        if (tradingFundsData[_timestamp].ExcessLiquidity > targetExLiq) {\r\n//                            int256 exLiqDiff = FixidityLib.subtract(tradingFundsData[_timestamp].ExcessLiquidity, targetExLiq);\r\n//                            int256 targetSharePurchase = FixidityLib.divide(exLiqDiff,tickerPrice);\r\n//\r\n//                            if (targetSharePurchase > 0){\r\n//                                ActionMsg memory actionMsg = super.placeBuyStockLimitOrderMsg(tickerName,targetSharePurchase,tickerPrice,_timestamp);\r\n//                                actionMsgs[_timestamp][tickerName] = actionMsg;\r\n//                            }\r\n//                        }\r\n//                    }\r\n//                }\r\n//            }\r\n//\r\n//            for (uint i=0; i < tickerNames.length; i++){\r\n//                int256 tickerPrice = realTimeTickersData[_timestamp][tickerNames[i]].last;\r\n//                string memory tickerName = tickerNames[i];\r\n//                if (maxDrawdownDodge[tickerName]){\r\n//                    updateBenchmarkDrawdownPriceAfterDodge(tickerName, tickerPrice);\r\n//                }\r\n//                else{\r\n//                    updateBenchmarkDrawdownPriceBeforeDodge(tickerName, tickerPrice);\r\n//                }\r\n//            }\r\n//        }\r\n        lastExecutedTimestamp = _timestamp;\r\n        loop = loop + 1;\r\n\r\n    }\r\n\r\n    function checkExecution(uint256 _timestamp) internal returns (bool){\r\n\r\n        bool exec = false;\r\n        uint16 _year;\r\n        uint8 _month;\r\n        uint8 _day;\r\n\r\n        uint16 _lastYear;\r\n        uint8 _lastMonth;\r\n        uint8 _lastday;\r\n\r\n        (_year, _month, _day) = DateUtils.convertTimestampToYMD(_timestamp);\r\n        (_lastYear, _lastMonth, _lastday) = DateUtils.convertTimestampToYMD(lastExecutedTimestamp);\r\n        if (_month != _lastMonth){\r\n            exec = true;\r\n            lastExecutedTimestamp = _timestamp;\r\n            }\r\n        return exec;\r\n    }\r\n\r\n\r\n    function checkBuyBack(string memory _tickerName, int256 realTimeTickerPrice)internal returns (bool){\r\n//        range_price = self.benchmark_drawdown_price.get(ticker) * (1 + 0.01)\r\n//        return ticker_price > range_price\r\n        int256 rangePrice = benchmarkDrawdownPrice[_tickerName] /100*101;\r\n        return realTimeTickerPrice > rangePrice;\r\n    }\r\n\r\n    function buyBackPosition(string memory _tickerName, int256 _tickerPrice, uint256 _timestamp) internal returns (ActionMsg memory) {\r\n        ActionMsg memory actionMsg;\r\n        int256 targetSharePurchase = liquidateTickerQty[_tickerName];\r\n        int256 purchaseAmount =  FixidityLib.multiply(targetSharePurchase, _tickerPrice);\r\n        if (tradingFundsData[_timestamp].BuyingPower >= purchaseAmount){\r\n            actionMsg = super.placeBuyStockLimitOrderMsg(_tickerName,targetSharePurchase,_tickerPrice,_timestamp);\r\n        }else{\r\n            targetSharePurchase = tradingFundsData[_timestamp].BuyingPower / _tickerPrice;\r\n            actionMsg = super.placeBuyStockLimitOrderMsg(_tickerName,targetSharePurchase,_tickerPrice,_timestamp);\r\n        }\r\n\r\n        maxDrawdownDodge[_tickerName] = false;\r\n        maxStockPrice[_tickerName] = _tickerPrice;\r\n\r\n        return actionMsg;\r\n    }\r\n\r\n    function getLastExecutedTimestamp() public view returns (uint256){\r\n        return lastExecutedTimestamp;\r\n    }\r\n\r\n    function checkMaxDrawdownDodge(string memory tickerName, int256 tickerPrice) private returns (bool){\r\n        return tickerPrice < benchmarkDrawdownPrice[tickerName];\r\n    }\r\n\r\n    function updateBenchmarkDrawdownPriceAfterDodge(string memory _tickerName, int256 _tickerPrice) private{\r\n//        if real_time_ticker_price < self.benchmark_drawdown_price[ticker] * 0.7:\r\n//            target_update_benchmark_drawdown_price = real_time_ticker_price + (\r\n//                    (self.liq_sold_price_dict[ticker] - real_time_ticker_price) * 0.5)\r\n//            if target_update_benchmark_drawdown_price < self.benchmark_drawdown_price[ticker]:\r\n//                self.benchmark_drawdown_price[ticker] = target_update_benchmark_drawdown_price\r\n\r\n        int256 benchmarkDrawdownFactor = int256(70) * FixidityLib.fixed1() / int256(100);\r\n        if (_tickerPrice < FixidityLib.multiply(benchmarkDrawdownPrice[_tickerName] , benchmarkDrawdownFactor)){\r\n\r\n            int256 tickerDiff = FixidityLib.subtract(liquidateTickerPrice[_tickerName],_tickerPrice);\r\n            int256 targetUpdateBenchmarkDrawdownPrice = FixidityLib.add(_tickerPrice, tickerDiff) * 50 / 100;\r\n            if (targetUpdateBenchmarkDrawdownPrice < benchmarkDrawdownPrice[_tickerName]){\r\n                benchmarkDrawdownPrice[_tickerName] = targetUpdateBenchmarkDrawdownPrice;\r\n            }\r\n        }\r\n    }\r\n\r\n    function updateBenchmarkDrawdownPriceBeforeDodge(string memory _tickerName, int256 realTimeTickerPrice) private{\r\n//        if (self.max_stock_price.get(ticker) == 0):  # if there is no data for the max and benchmark price\r\n//            self.max_stock_price.update({ticker: real_time_ticker_price})\r\n//            benchmark_price = real_time_ticker_price * (1 - self.max_drawdown_ratio)\r\n//            self.benchmark_drawdown_price.update({ticker: benchmark_price})\r\n//        elif real_time_ticker_price > self.max_stock_price.get(ticker):\r\n//            self.max_stock_price.update({ticker: real_time_ticker_price})\r\n//            benchmark_price = real_time_ticker_price * (1 - self.max_drawdown_ratio)\r\n//            self.benchmark_drawdown_price.update({ticker: benchmark_price})\r\n\r\n        if (maxStockPrice[_tickerName] == 0){\r\n            maxStockPrice[_tickerName] = realTimeTickerPrice;\r\n            int256 drawDownFactor = FixidityLib.subtract(FixidityLib.fixed1(), maxDrawdown);\r\n            int256 tickerBenchmarkPrice = FixidityLib.multiply(maxStockPrice[_tickerName], drawDownFactor);\r\n            benchmarkDrawdownPrice[_tickerName] = tickerBenchmarkPrice;\r\n        }\r\n        else if (realTimeTickerPrice > maxStockPrice[_tickerName]){\r\n            maxStockPrice[_tickerName] = realTimeTickerPrice;\r\n            int256 drawDownFactor = FixidityLib.subtract(FixidityLib.fixed1(), maxDrawdown);\r\n            int256 tickerBenchmarkPrice = FixidityLib.multiply(maxStockPrice[_tickerName], drawDownFactor);\r\n            benchmarkDrawdownPrice[_tickerName] = tickerBenchmarkPrice;\r\n        }\r\n\r\n    }\r\n\r\n    function liquidateTickerPosition(string memory _tickerName, int256 tickerPrice, uint256 _timestamp) private returns (ActionMsg memory){\r\n        PortfolioHolding memory holding = portfolioHoldingsData[_timestamp][_tickerName];\r\n        RealTimeTickerData memory tickerData = realTimeTickersData[_timestamp][_tickerName];\r\n        int256 currentPosition = holding.position;\r\n        int256 noLeverageEquity = tradingFundsData[_timestamp].EquityWithLoanValue / int256(tickerNames.length);\r\n        int256 noLeveragePosition = FixidityLib.divide(noLeverageEquity,tickerData.last);\r\n        int256 targetLeveragePositionAtLiquidState = noLeveragePosition * 12 / 10;\r\n\r\n        int256 targetSoldPosition = currentPosition - targetLeveragePositionAtLiquidState;\r\n        ActionMsg memory actionMsg = super.placeSellStockLimitOrderMsg(_tickerName,targetSoldPosition,tickerPrice, _timestamp);\r\n\r\n        benchmarkDrawdownPrice[_tickerName] = tickerPrice;\r\n        liquidateTickerQty[_tickerName] = targetSoldPosition;\r\n        liquidateTickerPrice[_tickerName] = tickerPrice;\r\n        maxDrawdownDodge[_tickerName] = true;\r\n\r\n        return actionMsg;\r\n    }\r\n\r\n\r\n\r\n}\r\n",
  "sourcePath": "C:\\Users\\lam\\Documents\\GitHub\\IndexTradingApplication\\contract\\contracts\\RebalanceMarginWifMaxDrawdownControl.sol",
  "compiler": {
    "name": "solc",
    "version": "0.8.13+commit.abaa5c0e.Emscripten.clang"
  },
  "schemaVersion": "3.4.7",
  "updatedAt": "2022-07-19T01:55:50.317Z",
  "networkType": "ethereum",
  "devdoc": {
    "kind": "dev",
    "methods": {},
    "version": 1
  },
  "userdoc": {
    "kind": "user",
    "methods": {},
    "version": 1
  }
}