{
  "contractName": "RebalanceMarginWifMaxDrawdownControl",
  "abi": [
    {
      "inputs": [],
      "stateMutability": "nonpayable",
      "type": "constructor"
    },
    {
      "anonymous": false,
      "inputs": [
        {
          "indexed": false,
          "internalType": "string",
          "name": "tradeActionMsg",
          "type": "string"
        }
      ],
      "name": "LogTradeActionMsg",
      "type": "event"
    },
    {
      "inputs": [
        {
          "internalType": "string",
          "name": "_tickerName",
          "type": "string"
        },
        {
          "internalType": "int256",
          "name": "_targetSharePurchase",
          "type": "int256"
        },
        {
          "internalType": "int256",
          "name": "_transactionTickerPrice",
          "type": "int256"
        },
        {
          "internalType": "uint256",
          "name": "_timestamp",
          "type": "uint256"
        }
      ],
      "name": "placeBuyStockLimitOrderMsg",
      "outputs": [
        {
          "components": [
            {
              "internalType": "string",
              "name": "tickerName",
              "type": "string"
            },
            {
              "internalType": "uint256",
              "name": "timestamp",
              "type": "uint256"
            },
            {
              "internalType": "string",
              "name": "transactionType",
              "type": "string"
            },
            {
              "internalType": "int256",
              "name": "positionAction",
              "type": "int256"
            },
            {
              "internalType": "int256",
              "name": "transactionTickerPrice",
              "type": "int256"
            },
            {
              "internalType": "int256",
              "name": "transactionAmount",
              "type": "int256"
            }
          ],
          "internalType": "struct Object.TradeActionMsg",
          "name": "",
          "type": "tuple"
        }
      ],
      "stateMutability": "nonpayable",
      "type": "function"
    },
    {
      "inputs": [
        {
          "internalType": "string",
          "name": "_tickerName",
          "type": "string"
        },
        {
          "internalType": "int256",
          "name": "_targetShareSell",
          "type": "int256"
        },
        {
          "internalType": "int256",
          "name": "_transactionTickerPrice",
          "type": "int256"
        },
        {
          "internalType": "uint256",
          "name": "_timestamp",
          "type": "uint256"
        }
      ],
      "name": "placeSellStockLimitOrderMsg",
      "outputs": [
        {
          "components": [
            {
              "internalType": "string",
              "name": "tickerName",
              "type": "string"
            },
            {
              "internalType": "uint256",
              "name": "timestamp",
              "type": "uint256"
            },
            {
              "internalType": "string",
              "name": "transactionType",
              "type": "string"
            },
            {
              "internalType": "int256",
              "name": "positionAction",
              "type": "int256"
            },
            {
              "internalType": "int256",
              "name": "transactionTickerPrice",
              "type": "int256"
            },
            {
              "internalType": "int256",
              "name": "transactionAmount",
              "type": "int256"
            }
          ],
          "internalType": "struct Object.TradeActionMsg",
          "name": "",
          "type": "tuple"
        }
      ],
      "stateMutability": "nonpayable",
      "type": "function"
    },
    {
      "inputs": [
        {
          "internalType": "string",
          "name": "_tickerName",
          "type": "string"
        },
        {
          "internalType": "int256",
          "name": "bidPrice",
          "type": "int256"
        },
        {
          "internalType": "int256",
          "name": "last",
          "type": "int256"
        },
        {
          "internalType": "uint256",
          "name": "_timestamp",
          "type": "uint256"
        }
      ],
      "name": "inputRealTimeTickerData",
      "outputs": [],
      "stateMutability": "nonpayable",
      "type": "function"
    },
    {
      "inputs": [
        {
          "internalType": "string",
          "name": "_tickerName",
          "type": "string"
        },
        {
          "internalType": "uint256",
          "name": "_timeStamp",
          "type": "uint256"
        }
      ],
      "name": "getRealTimeTickerData",
      "outputs": [
        {
          "internalType": "string",
          "name": "",
          "type": "string"
        },
        {
          "internalType": "int256",
          "name": "",
          "type": "int256"
        },
        {
          "internalType": "int256",
          "name": "",
          "type": "int256"
        }
      ],
      "stateMutability": "nonpayable",
      "type": "function"
    },
    {
      "inputs": [
        {
          "internalType": "uint256",
          "name": "_timestamp",
          "type": "uint256"
        },
        {
          "internalType": "int256",
          "name": "FullInitMarginReq",
          "type": "int256"
        },
        {
          "internalType": "int256",
          "name": "FullMainMarginReq",
          "type": "int256"
        }
      ],
      "name": "inputMarginAccount",
      "outputs": [],
      "stateMutability": "nonpayable",
      "type": "function"
    },
    {
      "inputs": [
        {
          "internalType": "uint256",
          "name": "timestamp",
          "type": "uint256"
        }
      ],
      "name": "getMarginAccount",
      "outputs": [
        {
          "internalType": "int256",
          "name": "",
          "type": "int256"
        },
        {
          "internalType": "int256",
          "name": "",
          "type": "int256"
        }
      ],
      "stateMutability": "view",
      "type": "function",
      "constant": true
    },
    {
      "inputs": [
        {
          "internalType": "uint256",
          "name": "_timestamp",
          "type": "uint256"
        },
        {
          "internalType": "int256",
          "name": "AvailableFunds",
          "type": "int256"
        },
        {
          "internalType": "int256",
          "name": "ExcessLiquidity",
          "type": "int256"
        },
        {
          "internalType": "int256",
          "name": "BuyingPower",
          "type": "int256"
        },
        {
          "internalType": "int256",
          "name": "Leverage",
          "type": "int256"
        },
        {
          "internalType": "int256",
          "name": "EquityWithLoanValue",
          "type": "int256"
        }
      ],
      "name": "inputTradingFunds",
      "outputs": [],
      "stateMutability": "nonpayable",
      "type": "function"
    },
    {
      "inputs": [
        {
          "internalType": "uint256",
          "name": "timestamp",
          "type": "uint256"
        }
      ],
      "name": "getTradingFunds",
      "outputs": [
        {
          "internalType": "int256",
          "name": "",
          "type": "int256"
        },
        {
          "internalType": "int256",
          "name": "",
          "type": "int256"
        },
        {
          "internalType": "int256",
          "name": "",
          "type": "int256"
        },
        {
          "internalType": "int256",
          "name": "",
          "type": "int256"
        },
        {
          "internalType": "int256",
          "name": "",
          "type": "int256"
        }
      ],
      "stateMutability": "view",
      "type": "function",
      "constant": true
    },
    {
      "inputs": [
        {
          "internalType": "uint256",
          "name": "_timestamp",
          "type": "uint256"
        },
        {
          "internalType": "int256",
          "name": "TotalCashValue",
          "type": "int256"
        },
        {
          "internalType": "int256",
          "name": "NetDividend",
          "type": "int256"
        },
        {
          "internalType": "int256",
          "name": "NetLiquidation",
          "type": "int256"
        },
        {
          "internalType": "int256",
          "name": "UnrealizedPnL",
          "type": "int256"
        },
        {
          "internalType": "int256",
          "name": "RealizedPnL",
          "type": "int256"
        },
        {
          "internalType": "int256",
          "name": "GrossPositionValue",
          "type": "int256"
        }
      ],
      "name": "inputMktValue",
      "outputs": [],
      "stateMutability": "nonpayable",
      "type": "function"
    },
    {
      "inputs": [
        {
          "internalType": "uint256",
          "name": "_timestamp",
          "type": "uint256"
        }
      ],
      "name": "getMktValue",
      "outputs": [
        {
          "internalType": "int256",
          "name": "",
          "type": "int256"
        },
        {
          "internalType": "int256",
          "name": "",
          "type": "int256"
        },
        {
          "internalType": "int256",
          "name": "",
          "type": "int256"
        },
        {
          "internalType": "int256",
          "name": "",
          "type": "int256"
        },
        {
          "internalType": "int256",
          "name": "",
          "type": "int256"
        },
        {
          "internalType": "int256",
          "name": "",
          "type": "int256"
        }
      ],
      "stateMutability": "view",
      "type": "function",
      "constant": true
    },
    {
      "inputs": [
        {
          "internalType": "uint256",
          "name": "timestamp",
          "type": "uint256"
        },
        {
          "internalType": "string",
          "name": "_tickerName",
          "type": "string"
        },
        {
          "internalType": "int256",
          "name": "position",
          "type": "int256"
        },
        {
          "internalType": "int256",
          "name": "marketPrice",
          "type": "int256"
        },
        {
          "internalType": "int256",
          "name": "averageCost",
          "type": "int256"
        },
        {
          "internalType": "int256",
          "name": "marketValue",
          "type": "int256"
        },
        {
          "internalType": "int256",
          "name": "realizedPNL",
          "type": "int256"
        },
        {
          "internalType": "int256",
          "name": "unrealizedPNL",
          "type": "int256"
        },
        {
          "internalType": "int256",
          "name": "initMarginReq",
          "type": "int256"
        },
        {
          "internalType": "int256",
          "name": "maintMarginReq",
          "type": "int256"
        },
        {
          "internalType": "int256",
          "name": "costBasis",
          "type": "int256"
        }
      ],
      "name": "updatePortfolioHoldingsData",
      "outputs": [],
      "stateMutability": "nonpayable",
      "type": "function"
    },
    {
      "inputs": [
        {
          "internalType": "string",
          "name": "_tickerName",
          "type": "string"
        },
        {
          "internalType": "uint256",
          "name": "_timestamp",
          "type": "uint256"
        }
      ],
      "name": "getPortfolioHolding",
      "outputs": [
        {
          "internalType": "string",
          "name": "",
          "type": "string"
        },
        {
          "internalType": "int256",
          "name": "",
          "type": "int256"
        },
        {
          "internalType": "int256",
          "name": "",
          "type": "int256"
        },
        {
          "internalType": "int256",
          "name": "",
          "type": "int256"
        },
        {
          "internalType": "int256",
          "name": "",
          "type": "int256"
        },
        {
          "internalType": "int256",
          "name": "",
          "type": "int256"
        },
        {
          "internalType": "int256",
          "name": "",
          "type": "int256"
        },
        {
          "internalType": "int256",
          "name": "",
          "type": "int256"
        },
        {
          "internalType": "int256",
          "name": "",
          "type": "int256"
        },
        {
          "internalType": "int256",
          "name": "",
          "type": "int256"
        }
      ],
      "stateMutability": "nonpayable",
      "type": "function"
    },
    {
      "inputs": [
        {
          "internalType": "string",
          "name": "tickerName",
          "type": "string"
        },
        {
          "internalType": "uint256",
          "name": "_timestamp",
          "type": "uint256"
        }
      ],
      "name": "getTickerTradeActionMsg",
      "outputs": [
        {
          "internalType": "string",
          "name": "",
          "type": "string"
        },
        {
          "internalType": "uint256",
          "name": "",
          "type": "uint256"
        },
        {
          "internalType": "string",
          "name": "",
          "type": "string"
        },
        {
          "internalType": "int256",
          "name": "",
          "type": "int256"
        },
        {
          "internalType": "int256",
          "name": "",
          "type": "int256"
        },
        {
          "internalType": "int256",
          "name": "",
          "type": "int256"
        }
      ],
      "stateMutability": "nonpayable",
      "type": "function"
    },
    {
      "inputs": [
        {
          "internalType": "uint256",
          "name": "_loop",
          "type": "uint256"
        },
        {
          "internalType": "uint256",
          "name": "_lastExecutedTimestamp",
          "type": "uint256"
        }
      ],
      "name": "inputLoopWithTimestamps",
      "outputs": [],
      "stateMutability": "nonpayable",
      "type": "function"
    },
    {
      "inputs": [],
      "name": "reinitializeContractState",
      "outputs": [
        {
          "internalType": "string",
          "name": "",
          "type": "string"
        }
      ],
      "stateMutability": "nonpayable",
      "type": "function"
    },
    {
      "inputs": [],
      "name": "test",
      "outputs": [],
      "stateMutability": "nonpayable",
      "type": "function"
    },
    {
      "inputs": [
        {
          "internalType": "uint256",
          "name": "_timestamp",
          "type": "uint256"
        }
      ],
      "name": "run",
      "outputs": [],
      "stateMutability": "nonpayable",
      "type": "function"
    },
    {
      "inputs": [],
      "name": "getLastExecutedTimestamp",
      "outputs": [
        {
          "internalType": "uint256",
          "name": "",
          "type": "uint256"
        }
      ],
      "stateMutability": "view",
      "type": "function",
      "constant": true
    }
  ],
  "bytecode": "0x60806040526000600f55606473__FixidityLib___________________________632179bb6c6040518163ffffffff1660e01b8152600401602060405180830381865af415801562000055573d6000803e3d6000fd5b505050506040513d601f19601f820116820180604052508101906200007b919062000408565b600562000089919062000469565b620000959190620005bf565b6010556103e873__FixidityLib___________________________632179bb6c6040518163ffffffff1660e01b8152600401602060405180830381865af4158015620000e5573d6000803e3d6000fd5b505050506040513d601f19601f820116820180604052508101906200010b919062000408565b600562000119919062000469565b620001259190620005bf565b6011553480156200013557600080fd5b5060405180604001604052806040518060400160405280600381526020017f515151000000000000000000000000000000000000000000000000000000000081525081526020016040518060400160405280600381526020017f53505900000000000000000000000000000000000000000000000000000000008152508152506001906002620001c792919062000243565b5060016003604051620001da906200068e565b908152602001604051809103902060006101000a81548160ff021916908315150217905550600160036040516200021190620006f5565b908152602001604051809103902060006101000a81548160ff0219169083151502179055506000808190555062000770565b82805482825590600052602060002090810192821562000297579160200282015b828111156200029657825182908051906020019062000285929190620002aa565b509160200191906001019062000264565b5b509050620002a691906200033b565b5090565b828054620002b8906200073b565b90600052602060002090601f016020900481019282620002dc576000855562000328565b82601f10620002f757805160ff191683800117855562000328565b8280016001018555821562000328579182015b82811115620003275782518255916020019190600101906200030a565b5b50905062000337919062000363565b5090565b5b808211156200035f576000818162000355919062000382565b506001016200033c565b5090565b5b808211156200037e57600081600090555060010162000364565b5090565b50805462000390906200073b565b6000825580601f10620003a45750620003c5565b601f016020900490600052602060002090810190620003c4919062000363565b5b50565b600080fd5b6000819050919050565b620003e281620003cd565b8114620003ee57600080fd5b50565b6000815190506200040281620003d7565b92915050565b600060208284031215620004215762000420620003c8565b5b60006200043184828501620003f1565b91505092915050565b7f4e487b7100000000000000000000000000000000000000000000000000000000600052601160045260246000fd5b60006200047682620003cd565b91506200048383620003cd565b9250827f7fffffffffffffffffffffffffffffffffffffffffffffffffffffffffffffff0482116000841360008413161615620004c557620004c46200043a565b5b817f800000000000000000000000000000000000000000000000000000000000000005831260008412600084131616156200050557620005046200043a565b5b827f800000000000000000000000000000000000000000000000000000000000000005821260008413600084121616156200054557620005446200043a565b5b827f7fffffffffffffffffffffffffffffffffffffffffffffffffffffffffffffff05821260008412600084121616156200058557620005846200043a565b5b828202905092915050565b7f4e487b7100000000000000000000000000000000000000000000000000000000600052601260045260246000fd5b6000620005cc82620003cd565b9150620005d983620003cd565b925082620005ec57620005eb62000590565b5b600160000383147f8000000000000000000000000000000000000000000000000000000000000000831416156200062857620006276200043a565b5b828205905092915050565b600081905092915050565b7f5151510000000000000000000000000000000000000000000000000000000000600082015250565b60006200067660038362000633565b915062000683826200063e565b600382019050919050565b60006200069b8262000667565b9150819050919050565b7f5350590000000000000000000000000000000000000000000000000000000000600082015250565b6000620006dd60038362000633565b9150620006ea82620006a5565b600382019050919050565b60006200070282620006ce565b9150819050919050565b7f4e487b7100000000000000000000000000000000000000000000000000000000600052602260045260246000fd5b600060028204905060018216806200075457607f821691505b6020821081036200076a57620007696200070c565b5b50919050565b6127ee80620007806000396000f3fe608060405234801561001057600080fd5b50600436106101165760003560e01c8063a444f5e9116100a2578063d6171b7011610071578063d6171b70146102e0578063ea62e08114610315578063f2027c2514610347578063f82a532814610380578063f8a8fd6d146103b557610116565b8063a444f5e914610270578063a5f86e9b1461028c578063c4fa8bcc146102a8578063ceb224cf146102c457610116565b806338f18f0b116100e957806338f18f0b146101cc5780634395f558146101e85780634571236b146102045780634f8ac98d14610222578063543c4b011461025257610116565b806314ea6c191461011b5780631eed50501461014b57806322bc88f71461017c578063384f4a6214610198575b600080fd5b61013560048036038101906101309190611bbb565b6103bf565b6040516101429190611d74565b60405180910390f35b61016560048036038101906101609190611d96565b61044a565b604051610173929190611dd2565b60405180910390f35b61019660048036038101906101919190611dfb565b610497565b005b6101b260048036038101906101ad9190611d96565b610525565b6040516101c3959493929190611e9d565b60405180910390f35b6101e660048036038101906101e19190611ef0565b6105ad565b005b61020260048036038101906101fd9190611f30565b6105e1565b005b61020c61065e565b6040516102199190612007565b60405180910390f35b61023c60048036038101906102379190611bbb565b610bfe565b6040516102499190611d74565b60405180910390f35b61025a610c89565b6040516102679190612038565b60405180910390f35b61028a60048036038101906102859190611d96565b610c92565b005b6102a660048036038101906102a19190611bbb565b610e3c565b005b6102c260048036038101906102bd9190612053565b611103565b005b6102de60048036038101906102d991906120a6565b61114d565b005b6102fa60048036038101906102f59190611d96565b611251565b60405161030c969594939291906121b6565b60405180910390f35b61032f600480360381019061032a9190612217565b6112ec565b60405161033e93929190612273565b60405180910390f35b610361600480360381019061035c9190612217565b6113f2565b6040516103779a999897969594939291906122b1565b60405180910390f35b61039a60048036038101906103959190612217565b611584565b6040516103ac96959493929190612354565b60405180910390f35b6103bd61174d565b005b6103c7611897565b600083856103d591906123f2565b905060006040518060c001604052808881526020018581526020016040518060400160405280600481526020017f53656c6c0000000000000000000000000000000000000000000000000000000081525081526020018781526020018681526020018381525090508092505050949350505050565b6000806000600a6000858152602001908152602001600020604051806040016040529081600082015481526020016001820154815250509050806000015181602001519250925050915091565b60006040518060c0016040528088815260200187815260200186815260200185815260200184815260200183815250905080600c60008a8152602001908152602001600020600082015181600001556020820151816001015560408201518160020155606082015181600301556080820151816004015560a082015181600501559050505050505050505050565b600080600080600080600b60008881526020019081526020016000206040518060a001604052908160008201548152602001600182015481526020016002820154815260200160038201548152602001600482015481525050905080600001518160200151826040015183606001518460800151955095509550955095505091939590929450565b81600f8190555060028190806001815401808255809150506001900390600052602060002001600090919091909150555050565b60006040518060a0016040528087815260200186815260200185815260200184815260200183815250905080600b6000898152602001908152602001600020600082015181600001556020820151816001015560408201518160020155606082015181600301556080820151816004015590505050505050505050565b606060006040518060200160405280600081525090506000600280549050036106a1576040518060600160405280602b8152602001612769602b91399050610bf7565b60005b600180549050811015610856576003600182815481106106c7576106c6612509565b5b906000526020600020016040516106de9190612637565b908152602001604051809103902060006101000a81549060ff021916905560046001828154811061071257610711612509565b5b906000526020600020016040516107299190612637565b908152602001604051809103902060006101000a81549060ff021916905560056001828154811061075d5761075c612509565b5b906000526020600020016040516107749190612637565b90815260200160405180910390206000905560066001828154811061079c5761079b612509565b5b906000526020600020016040516107b39190612637565b9081526020016040518091039020600090556007600182815481106107db576107da612509565b5b906000526020600020016040516107f29190612637565b90815260200160405180910390206000905560086001828154811061081a57610819612509565b5b906000526020600020016040516108319190612637565b908152602001604051809103902060009055808061084e9061264e565b9150506106a4565b5060005b600280549050811015610bc55760005b600180549050811015610a8957600960006002848154811061088f5761088e612509565b5b90600052602060002001548152602001908152602001600020600182815481106108bc576108bb612509565b5b906000526020600020016040516108d39190612637565b9081526020016040518091039020600080820160006108f291906118cd565b600182016000905560028201600090555050600e60006002848154811061091c5761091b612509565b5b906000526020600020015481526020019081526020016000206001828154811061094957610948612509565b5b906000526020600020016040516109609190612637565b90815260200160405180910390206000808201600061097f91906118cd565b6001820160009055600282016000905560038201600090556004820160009055600582016000905560068201600090556007820160009055600882016000905560098201600090555050600d6000600284815481106109e1576109e0612509565b5b9060005260206000200154815260200190815260200160002060018281548110610a0e57610a0d612509565b5b90600052602060002001604051610a259190612637565b908152602001604051809103902060008082016000610a4491906118cd565b6001820160009055600282016000610a5c91906118cd565b60038201600090556004820160009055600582016000905550508080610a819061264e565b91505061086a565b50600a600060028381548110610aa257610aa1612509565b5b9060005260206000200154815260200190815260200160002060008082016000905560018201600090555050600b600060028381548110610ae657610ae5612509565b5b9060005260206000200154815260200190815260200160002060008082016000905560018201600090556002820160009055600382016000905560048201600090555050600c600060028381548110610b4257610b41612509565b5b90600052602060002001548152602001908152602001600020600080820160009055600182016000905560028201600090556003820160009055600482016000905560058201600090555050600060028281548110610ba457610ba3612509565b5b90600052602060002001819055508080610bbd9061264e565b91505061085a565b506000808190555060016000610bdb919061190d565b6040518060600160405280602581526020016127946025913990505b8091505090565b610c06611897565b60008385610c1491906123f2565b905060006040518060c001604052808881526020018581526020016040518060400160405280600381526020017f427579000000000000000000000000000000000000000000000000000000000081525081526020018781526020018681526020018381525090508092505050949350505050565b60008054905090565b60005a905060006040518060400160405280600481526020017f4141504c000000000000000000000000000000000000000000000000000000008152509050600063075bcd15905060006040518060c0016040528084815260200163075bcd1581526020016040518060400160405280600381526020017f6275790000000000000000000000000000000000000000000000000000000000815250815260200160008152602001600081526020016000815250905080600d600084815260200190815260200160002084604051610d6991906126c7565b90815260200160405180910390206000820151816000019080519060200190610d9392919061192e565b50602082015181600101556040820151816002019080519060200190610dba92919061192e565b50606082015181600301556080820151816004015560a0820151816005015590505060005a85610dea91906126de565b90505a94506002869080600181540180825580915050600190039060005260206000200160009091909190915055856000819055506001600f54610e2e9190612712565b600f81905550505050505050565b60006040518060600160405280868152602001858152602001848152509050806009600084815260200190815260200160002086604051610e7d91906126c7565b90815260200160405180910390206000820151816000019080519060200190610ea792919061192e565b5060208201518160010155604082015181600201559050506000600f5403610f91576000600486604051610edb91906126c7565b908152602001604051809103902060006101000a81548160ff0219169083151502179055506000600586604051610f1291906126c7565b9081526020016040518091039020819055506000600686604051610f3691906126c7565b9081526020016040518091039020819055506000600786604051610f5a91906126c7565b9081526020016040518091039020819055506000600886604051610f7e91906126c7565b9081526020016040518091039020819055505b600385604051610fa191906126c7565b908152602001604051809103902060009054906101000a900460ff166110fc57600185908060018154018082558091505060019003906000526020600020016000909190919091509080519060200190610ffc92919061192e565b50600160038660405161100f91906126c7565b908152602001604051809103902060006101000a81548160ff021916908315150217905550600060048660405161104691906126c7565b908152602001604051809103902060006101000a81548160ff021916908315150217905550600060058660405161107d91906126c7565b90815260200160405180910390208190555060006006866040516110a191906126c7565b90815260200160405180910390208190555060006007866040516110c591906126c7565b90815260200160405180910390208190555060006008866040516110e991906126c7565b9081526020016040518091039020819055505b5050505050565b6000604051806040016040528084815260200183815250905080600a6000868152602001908152602001600020600082015181600001556020820151816001015590505050505050565b60006040518061014001604052808c81526020018b81526020018a815260200189815260200188815260200187815260200186815260200185815260200184815260200183815250905080600e60008e81526020019081526020016000208c6040516111b991906126c7565b908152602001604051809103902060008201518160000190805190602001906111e392919061192e565b506020820151816001015560408201518160020155606082015181600301556080820151816004015560a0820151816005015560c0820151816006015560e0820151816007015561010082015181600801556101208201518160090155905050505050505050505050505050565b6000806000806000806000600c60008981526020019081526020016000206040518060c001604052908160008201548152602001600182015481526020016002820154815260200160038201548152602001600482015481526020016005820154815250509050806000015181602001518260400151836060015184608001518560a001519650965096509650965096505091939550919395565b60606000806000600960008681526020019081526020016000208660405161131491906126c7565b908152602001604051809103902060405180606001604052908160008201805461133d90612567565b80601f016020809104026020016040519081016040528092919081815260200182805461136990612567565b80156113b65780601f1061138b576101008083540402835291602001916113b6565b820191906000526020600020905b81548152906001019060200180831161139957829003601f168201915b50505050508152602001600182015481526020016002820154815250509050806000015181602001518260400151935093509350509250925092565b6060600080600080600080600080600080600e60008d81526020019081526020016000208d60405161142491906126c7565b90815260200160405180910390206040518061014001604052908160008201805461144e90612567565b80601f016020809104026020016040519081016040528092919081815260200182805461147a90612567565b80156114c75780601f1061149c576101008083540402835291602001916114c7565b820191906000526020600020905b8154815290600101906020018083116114aa57829003601f168201915b5050505050815260200160018201548152602001600282015481526020016003820154815260200160048201548152602001600582015481526020016006820154815260200160078201548152602001600882015481526020016009820154815250509050806000015181602001518260400151836060015184608001518560a001518660c001518760e001518861010001518961012001519a509a509a509a509a509a509a509a509a509a50509295989b9194979a5092959850565b606060006060600080600080600d6000898152602001908152602001600020896040516115b191906126c7565b90815260200160405180910390206040518060c00160405290816000820180546115da90612567565b80601f016020809104026020016040519081016040528092919081815260200182805461160690612567565b80156116535780601f1061162857610100808354040283529160200191611653565b820191906000526020600020905b81548152906001019060200180831161163657829003601f168201915b505050505081526020016001820154815260200160028201805461167690612567565b80601f01602080910402602001604051908101604052809291908181526020018280546116a290612567565b80156116ef5780601f106116c4576101008083540402835291602001916116ef565b820191906000526020600020905b8154815290600101906020018083116116d257829003601f168201915b5050505050815260200160038201548152602001600482015481526020016005820154815250509050806000015181602001518260400151836060015184608001518560a00151965096509650965096509650509295509295509295565b60006040518060400160405280600481526020017f4141504c000000000000000000000000000000000000000000000000000000008152509050600063075bcd15905060006040518060c0016040528084815260200163075bcd1581526020016040518060400160405280600381526020017f6275790000000000000000000000000000000000000000000000000000000000815250815260200160008152602001600081526020016000815250905080600d60008481526020019081526020016000208460405161181f91906126c7565b9081526020016040518091039020600082015181600001908051906020019061184992919061192e565b5060208201518160010155604082015181600201908051906020019061187092919061192e565b50606082015181600301556080820151816004015560a08201518160050155905050505050565b6040518060c001604052806060815260200160008152602001606081526020016000815260200160008152602001600081525090565b5080546118d990612567565b6000825580601f106118eb575061190a565b601f01602090049060005260206000209081019061190991906119b4565b5b50565b508054600082559060005260206000209081019061192b91906119d1565b50565b82805461193a90612567565b90600052602060002090601f01602090048101928261195c57600085556119a3565b82601f1061197557805160ff19168380011785556119a3565b828001600101855582156119a3579182015b828111156119a2578251825591602001919060010190611987565b5b5090506119b091906119b4565b5090565b5b808211156119cd5760008160009055506001016119b5565b5090565b5b808211156119f157600081816119e891906118cd565b506001016119d2565b5090565b6000604051905090565b600080fd5b600080fd5b600080fd5b600080fd5b6000601f19601f8301169050919050565b7f4e487b7100000000000000000000000000000000000000000000000000000000600052604160045260246000fd5b611a5c82611a13565b810181811067ffffffffffffffff82111715611a7b57611a7a611a24565b5b80604052505050565b6000611a8e6119f5565b9050611a9a8282611a53565b919050565b600067ffffffffffffffff821115611aba57611ab9611a24565b5b611ac382611a13565b9050602081019050919050565b82818337600083830152505050565b6000611af2611aed84611a9f565b611a84565b905082815260208101848484011115611b0e57611b0d611a0e565b5b611b19848285611ad0565b509392505050565b600082601f830112611b3657611b35611a09565b5b8135611b46848260208601611adf565b91505092915050565b6000819050919050565b611b6281611b4f565b8114611b6d57600080fd5b50565b600081359050611b7f81611b59565b92915050565b6000819050919050565b611b9881611b85565b8114611ba357600080fd5b50565b600081359050611bb581611b8f565b92915050565b60008060008060808587031215611bd557611bd46119ff565b5b600085013567ffffffffffffffff811115611bf357611bf2611a04565b5b611bff87828801611b21565b9450506020611c1087828801611b70565b9350506040611c2187828801611b70565b9250506060611c3287828801611ba6565b91505092959194509250565b600081519050919050565b600082825260208201905092915050565b60005b83811015611c78578082015181840152602081019050611c5d565b83811115611c87576000848401525b50505050565b6000611c9882611c3e565b611ca28185611c49565b9350611cb2818560208601611c5a565b611cbb81611a13565b840191505092915050565b611ccf81611b85565b82525050565b611cde81611b4f565b82525050565b600060c0830160008301518482036000860152611d018282611c8d565b9150506020830151611d166020860182611cc6565b5060408301518482036040860152611d2e8282611c8d565b9150506060830151611d436060860182611cd5565b506080830151611d566080860182611cd5565b5060a0830151611d6960a0860182611cd5565b508091505092915050565b60006020820190508181036000830152611d8e8184611ce4565b905092915050565b600060208284031215611dac57611dab6119ff565b5b6000611dba84828501611ba6565b91505092915050565b611dcc81611b4f565b82525050565b6000604082019050611de76000830185611dc3565b611df46020830184611dc3565b9392505050565b600080600080600080600060e0888a031215611e1a57611e196119ff565b5b6000611e288a828b01611ba6565b9750506020611e398a828b01611b70565b9650506040611e4a8a828b01611b70565b9550506060611e5b8a828b01611b70565b9450506080611e6c8a828b01611b70565b93505060a0611e7d8a828b01611b70565b92505060c0611e8e8a828b01611b70565b91505092959891949750929550565b600060a082019050611eb26000830188611dc3565b611ebf6020830187611dc3565b611ecc6040830186611dc3565b611ed96060830185611dc3565b611ee66080830184611dc3565b9695505050505050565b60008060408385031215611f0757611f066119ff565b5b6000611f1585828601611ba6565b9250506020611f2685828601611ba6565b9150509250929050565b60008060008060008060c08789031215611f4d57611f4c6119ff565b5b6000611f5b89828a01611ba6565b9650506020611f6c89828a01611b70565b9550506040611f7d89828a01611b70565b9450506060611f8e89828a01611b70565b9350506080611f9f89828a01611b70565b92505060a0611fb089828a01611b70565b9150509295509295509295565b600082825260208201905092915050565b6000611fd982611c3e565b611fe38185611fbd565b9350611ff3818560208601611c5a565b611ffc81611a13565b840191505092915050565b600060208201905081810360008301526120218184611fce565b905092915050565b61203281611b85565b82525050565b600060208201905061204d6000830184612029565b92915050565b60008060006060848603121561206c5761206b6119ff565b5b600061207a86828701611ba6565b935050602061208b86828701611b70565b925050604061209c86828701611b70565b9150509250925092565b60008060008060008060008060008060006101608c8e0312156120cc576120cb6119ff565b5b60006120da8e828f01611ba6565b9b505060208c013567ffffffffffffffff8111156120fb576120fa611a04565b5b6121078e828f01611b21565b9a505060406121188e828f01611b70565b99505060606121298e828f01611b70565b985050608061213a8e828f01611b70565b97505060a061214b8e828f01611b70565b96505060c061215c8e828f01611b70565b95505060e061216d8e828f01611b70565b94505061010061217f8e828f01611b70565b9350506101206121918e828f01611b70565b9250506101406121a38e828f01611b70565b9150509295989b509295989b9093969950565b600060c0820190506121cb6000830189611dc3565b6121d86020830188611dc3565b6121e56040830187611dc3565b6121f26060830186611dc3565b6121ff6080830185611dc3565b61220c60a0830184611dc3565b979650505050505050565b6000806040838503121561222e5761222d6119ff565b5b600083013567ffffffffffffffff81111561224c5761224b611a04565b5b61225885828601611b21565b925050602061226985828601611ba6565b9150509250929050565b6000606082019050818103600083015261228d8186611fce565b905061229c6020830185611dc3565b6122a96040830184611dc3565b949350505050565b60006101408201905081810360008301526122cc818d611fce565b90506122db602083018c611dc3565b6122e8604083018b611dc3565b6122f5606083018a611dc3565b6123026080830189611dc3565b61230f60a0830188611dc3565b61231c60c0830187611dc3565b61232960e0830186611dc3565b612337610100830185611dc3565b612345610120830184611dc3565b9b9a5050505050505050505050565b600060c082019050818103600083015261236e8189611fce565b905061237d6020830188612029565b818103604083015261238f8187611fce565b905061239e6060830186611dc3565b6123ab6080830185611dc3565b6123b860a0830184611dc3565b979650505050505050565b7f4e487b7100000000000000000000000000000000000000000000000000000000600052601160045260246000fd5b60006123fd82611b4f565b915061240883611b4f565b9250827f7fffffffffffffffffffffffffffffffffffffffffffffffffffffffffffffff0482116000841360008413161615612447576124466123c3565b5b817f80000000000000000000000000000000000000000000000000000000000000000583126000841260008413161615612484576124836123c3565b5b827f800000000000000000000000000000000000000000000000000000000000000005821260008413600084121616156124c1576124c06123c3565b5b827f7fffffffffffffffffffffffffffffffffffffffffffffffffffffffffffffff05821260008412600084121616156124fe576124fd6123c3565b5b828202905092915050565b7f4e487b7100000000000000000000000000000000000000000000000000000000600052603260045260246000fd5b7f4e487b7100000000000000000000000000000000000000000000000000000000600052602260045260246000fd5b6000600282049050600182168061257f57607f821691505b60208210810361259257612591612538565b5b50919050565b600081905092915050565b60008190508160005260206000209050919050565b600081546125c581612567565b6125cf8186612598565b945060018216600081146125ea57600181146125fb5761262e565b60ff1983168652818601935061262e565b612604856125a3565b60005b8381101561262657815481890152600182019150602081019050612607565b838801955050505b50505092915050565b600061264382846125b8565b915081905092915050565b600061265982611b85565b91507fffffffffffffffffffffffffffffffffffffffffffffffffffffffffffffffff820361268b5761268a6123c3565b5b600182019050919050565b60006126a182611c3e565b6126ab8185612598565b93506126bb818560208601611c5a565b80840191505092915050565b60006126d38284612696565b915081905092915050565b60006126e982611b85565b91506126f483611b85565b925082821015612707576127066123c3565b5b828203905092915050565b600061271d82611b85565b915061272883611b85565b9250827fffffffffffffffffffffffffffffffffffffffffffffffffffffffffffffffff0382111561275d5761275c6123c3565b5b82820190509291505056fe436f6e747261637420737461746520686173206e6f74206265656e20696e697469616c697a656420796574436f6e747261637420737461746520686173206265656e207265696e697469616c697a6564a26469706673582212203dfe87ada8786c7b4c2f18141292916baf18f4de504b02519299bd90a425970364736f6c634300080d0033",
  "deployedBytecode": "0x608060405234801561001057600080fd5b50600436106101165760003560e01c8063a444f5e9116100a2578063d6171b7011610071578063d6171b70146102e0578063ea62e08114610315578063f2027c2514610347578063f82a532814610380578063f8a8fd6d146103b557610116565b8063a444f5e914610270578063a5f86e9b1461028c578063c4fa8bcc146102a8578063ceb224cf146102c457610116565b806338f18f0b116100e957806338f18f0b146101cc5780634395f558146101e85780634571236b146102045780634f8ac98d14610222578063543c4b011461025257610116565b806314ea6c191461011b5780631eed50501461014b57806322bc88f71461017c578063384f4a6214610198575b600080fd5b61013560048036038101906101309190611bbb565b6103bf565b6040516101429190611d74565b60405180910390f35b61016560048036038101906101609190611d96565b61044a565b604051610173929190611dd2565b60405180910390f35b61019660048036038101906101919190611dfb565b610497565b005b6101b260048036038101906101ad9190611d96565b610525565b6040516101c3959493929190611e9d565b60405180910390f35b6101e660048036038101906101e19190611ef0565b6105ad565b005b61020260048036038101906101fd9190611f30565b6105e1565b005b61020c61065e565b6040516102199190612007565b60405180910390f35b61023c60048036038101906102379190611bbb565b610bfe565b6040516102499190611d74565b60405180910390f35b61025a610c89565b6040516102679190612038565b60405180910390f35b61028a60048036038101906102859190611d96565b610c92565b005b6102a660048036038101906102a19190611bbb565b610e3c565b005b6102c260048036038101906102bd9190612053565b611103565b005b6102de60048036038101906102d991906120a6565b61114d565b005b6102fa60048036038101906102f59190611d96565b611251565b60405161030c969594939291906121b6565b60405180910390f35b61032f600480360381019061032a9190612217565b6112ec565b60405161033e93929190612273565b60405180910390f35b610361600480360381019061035c9190612217565b6113f2565b6040516103779a999897969594939291906122b1565b60405180910390f35b61039a60048036038101906103959190612217565b611584565b6040516103ac96959493929190612354565b60405180910390f35b6103bd61174d565b005b6103c7611897565b600083856103d591906123f2565b905060006040518060c001604052808881526020018581526020016040518060400160405280600481526020017f53656c6c0000000000000000000000000000000000000000000000000000000081525081526020018781526020018681526020018381525090508092505050949350505050565b6000806000600a6000858152602001908152602001600020604051806040016040529081600082015481526020016001820154815250509050806000015181602001519250925050915091565b60006040518060c0016040528088815260200187815260200186815260200185815260200184815260200183815250905080600c60008a8152602001908152602001600020600082015181600001556020820151816001015560408201518160020155606082015181600301556080820151816004015560a082015181600501559050505050505050505050565b600080600080600080600b60008881526020019081526020016000206040518060a001604052908160008201548152602001600182015481526020016002820154815260200160038201548152602001600482015481525050905080600001518160200151826040015183606001518460800151955095509550955095505091939590929450565b81600f8190555060028190806001815401808255809150506001900390600052602060002001600090919091909150555050565b60006040518060a0016040528087815260200186815260200185815260200184815260200183815250905080600b6000898152602001908152602001600020600082015181600001556020820151816001015560408201518160020155606082015181600301556080820151816004015590505050505050505050565b606060006040518060200160405280600081525090506000600280549050036106a1576040518060600160405280602b8152602001612769602b91399050610bf7565b60005b600180549050811015610856576003600182815481106106c7576106c6612509565b5b906000526020600020016040516106de9190612637565b908152602001604051809103902060006101000a81549060ff021916905560046001828154811061071257610711612509565b5b906000526020600020016040516107299190612637565b908152602001604051809103902060006101000a81549060ff021916905560056001828154811061075d5761075c612509565b5b906000526020600020016040516107749190612637565b90815260200160405180910390206000905560066001828154811061079c5761079b612509565b5b906000526020600020016040516107b39190612637565b9081526020016040518091039020600090556007600182815481106107db576107da612509565b5b906000526020600020016040516107f29190612637565b90815260200160405180910390206000905560086001828154811061081a57610819612509565b5b906000526020600020016040516108319190612637565b908152602001604051809103902060009055808061084e9061264e565b9150506106a4565b5060005b600280549050811015610bc55760005b600180549050811015610a8957600960006002848154811061088f5761088e612509565b5b90600052602060002001548152602001908152602001600020600182815481106108bc576108bb612509565b5b906000526020600020016040516108d39190612637565b9081526020016040518091039020600080820160006108f291906118cd565b600182016000905560028201600090555050600e60006002848154811061091c5761091b612509565b5b906000526020600020015481526020019081526020016000206001828154811061094957610948612509565b5b906000526020600020016040516109609190612637565b90815260200160405180910390206000808201600061097f91906118cd565b6001820160009055600282016000905560038201600090556004820160009055600582016000905560068201600090556007820160009055600882016000905560098201600090555050600d6000600284815481106109e1576109e0612509565b5b9060005260206000200154815260200190815260200160002060018281548110610a0e57610a0d612509565b5b90600052602060002001604051610a259190612637565b908152602001604051809103902060008082016000610a4491906118cd565b6001820160009055600282016000610a5c91906118cd565b60038201600090556004820160009055600582016000905550508080610a819061264e565b91505061086a565b50600a600060028381548110610aa257610aa1612509565b5b9060005260206000200154815260200190815260200160002060008082016000905560018201600090555050600b600060028381548110610ae657610ae5612509565b5b9060005260206000200154815260200190815260200160002060008082016000905560018201600090556002820160009055600382016000905560048201600090555050600c600060028381548110610b4257610b41612509565b5b90600052602060002001548152602001908152602001600020600080820160009055600182016000905560028201600090556003820160009055600482016000905560058201600090555050600060028281548110610ba457610ba3612509565b5b90600052602060002001819055508080610bbd9061264e565b91505061085a565b506000808190555060016000610bdb919061190d565b6040518060600160405280602581526020016127946025913990505b8091505090565b610c06611897565b60008385610c1491906123f2565b905060006040518060c001604052808881526020018581526020016040518060400160405280600381526020017f427579000000000000000000000000000000000000000000000000000000000081525081526020018781526020018681526020018381525090508092505050949350505050565b60008054905090565b60005a905060006040518060400160405280600481526020017f4141504c000000000000000000000000000000000000000000000000000000008152509050600063075bcd15905060006040518060c0016040528084815260200163075bcd1581526020016040518060400160405280600381526020017f6275790000000000000000000000000000000000000000000000000000000000815250815260200160008152602001600081526020016000815250905080600d600084815260200190815260200160002084604051610d6991906126c7565b90815260200160405180910390206000820151816000019080519060200190610d9392919061192e565b50602082015181600101556040820151816002019080519060200190610dba92919061192e565b50606082015181600301556080820151816004015560a0820151816005015590505060005a85610dea91906126de565b90505a94506002869080600181540180825580915050600190039060005260206000200160009091909190915055856000819055506001600f54610e2e9190612712565b600f81905550505050505050565b60006040518060600160405280868152602001858152602001848152509050806009600084815260200190815260200160002086604051610e7d91906126c7565b90815260200160405180910390206000820151816000019080519060200190610ea792919061192e565b5060208201518160010155604082015181600201559050506000600f5403610f91576000600486604051610edb91906126c7565b908152602001604051809103902060006101000a81548160ff0219169083151502179055506000600586604051610f1291906126c7565b9081526020016040518091039020819055506000600686604051610f3691906126c7565b9081526020016040518091039020819055506000600786604051610f5a91906126c7565b9081526020016040518091039020819055506000600886604051610f7e91906126c7565b9081526020016040518091039020819055505b600385604051610fa191906126c7565b908152602001604051809103902060009054906101000a900460ff166110fc57600185908060018154018082558091505060019003906000526020600020016000909190919091509080519060200190610ffc92919061192e565b50600160038660405161100f91906126c7565b908152602001604051809103902060006101000a81548160ff021916908315150217905550600060048660405161104691906126c7565b908152602001604051809103902060006101000a81548160ff021916908315150217905550600060058660405161107d91906126c7565b90815260200160405180910390208190555060006006866040516110a191906126c7565b90815260200160405180910390208190555060006007866040516110c591906126c7565b90815260200160405180910390208190555060006008866040516110e991906126c7565b9081526020016040518091039020819055505b5050505050565b6000604051806040016040528084815260200183815250905080600a6000868152602001908152602001600020600082015181600001556020820151816001015590505050505050565b60006040518061014001604052808c81526020018b81526020018a815260200189815260200188815260200187815260200186815260200185815260200184815260200183815250905080600e60008e81526020019081526020016000208c6040516111b991906126c7565b908152602001604051809103902060008201518160000190805190602001906111e392919061192e565b506020820151816001015560408201518160020155606082015181600301556080820151816004015560a0820151816005015560c0820151816006015560e0820151816007015561010082015181600801556101208201518160090155905050505050505050505050505050565b6000806000806000806000600c60008981526020019081526020016000206040518060c001604052908160008201548152602001600182015481526020016002820154815260200160038201548152602001600482015481526020016005820154815250509050806000015181602001518260400151836060015184608001518560a001519650965096509650965096505091939550919395565b60606000806000600960008681526020019081526020016000208660405161131491906126c7565b908152602001604051809103902060405180606001604052908160008201805461133d90612567565b80601f016020809104026020016040519081016040528092919081815260200182805461136990612567565b80156113b65780601f1061138b576101008083540402835291602001916113b6565b820191906000526020600020905b81548152906001019060200180831161139957829003601f168201915b50505050508152602001600182015481526020016002820154815250509050806000015181602001518260400151935093509350509250925092565b6060600080600080600080600080600080600e60008d81526020019081526020016000208d60405161142491906126c7565b90815260200160405180910390206040518061014001604052908160008201805461144e90612567565b80601f016020809104026020016040519081016040528092919081815260200182805461147a90612567565b80156114c75780601f1061149c576101008083540402835291602001916114c7565b820191906000526020600020905b8154815290600101906020018083116114aa57829003601f168201915b5050505050815260200160018201548152602001600282015481526020016003820154815260200160048201548152602001600582015481526020016006820154815260200160078201548152602001600882015481526020016009820154815250509050806000015181602001518260400151836060015184608001518560a001518660c001518760e001518861010001518961012001519a509a509a509a509a509a509a509a509a509a50509295989b9194979a5092959850565b606060006060600080600080600d6000898152602001908152602001600020896040516115b191906126c7565b90815260200160405180910390206040518060c00160405290816000820180546115da90612567565b80601f016020809104026020016040519081016040528092919081815260200182805461160690612567565b80156116535780601f1061162857610100808354040283529160200191611653565b820191906000526020600020905b81548152906001019060200180831161163657829003601f168201915b505050505081526020016001820154815260200160028201805461167690612567565b80601f01602080910402602001604051908101604052809291908181526020018280546116a290612567565b80156116ef5780601f106116c4576101008083540402835291602001916116ef565b820191906000526020600020905b8154815290600101906020018083116116d257829003601f168201915b5050505050815260200160038201548152602001600482015481526020016005820154815250509050806000015181602001518260400151836060015184608001518560a00151965096509650965096509650509295509295509295565b60006040518060400160405280600481526020017f4141504c000000000000000000000000000000000000000000000000000000008152509050600063075bcd15905060006040518060c0016040528084815260200163075bcd1581526020016040518060400160405280600381526020017f6275790000000000000000000000000000000000000000000000000000000000815250815260200160008152602001600081526020016000815250905080600d60008481526020019081526020016000208460405161181f91906126c7565b9081526020016040518091039020600082015181600001908051906020019061184992919061192e565b5060208201518160010155604082015181600201908051906020019061187092919061192e565b50606082015181600301556080820151816004015560a08201518160050155905050505050565b6040518060c001604052806060815260200160008152602001606081526020016000815260200160008152602001600081525090565b5080546118d990612567565b6000825580601f106118eb575061190a565b601f01602090049060005260206000209081019061190991906119b4565b5b50565b508054600082559060005260206000209081019061192b91906119d1565b50565b82805461193a90612567565b90600052602060002090601f01602090048101928261195c57600085556119a3565b82601f1061197557805160ff19168380011785556119a3565b828001600101855582156119a3579182015b828111156119a2578251825591602001919060010190611987565b5b5090506119b091906119b4565b5090565b5b808211156119cd5760008160009055506001016119b5565b5090565b5b808211156119f157600081816119e891906118cd565b506001016119d2565b5090565b6000604051905090565b600080fd5b600080fd5b600080fd5b600080fd5b6000601f19601f8301169050919050565b7f4e487b7100000000000000000000000000000000000000000000000000000000600052604160045260246000fd5b611a5c82611a13565b810181811067ffffffffffffffff82111715611a7b57611a7a611a24565b5b80604052505050565b6000611a8e6119f5565b9050611a9a8282611a53565b919050565b600067ffffffffffffffff821115611aba57611ab9611a24565b5b611ac382611a13565b9050602081019050919050565b82818337600083830152505050565b6000611af2611aed84611a9f565b611a84565b905082815260208101848484011115611b0e57611b0d611a0e565b5b611b19848285611ad0565b509392505050565b600082601f830112611b3657611b35611a09565b5b8135611b46848260208601611adf565b91505092915050565b6000819050919050565b611b6281611b4f565b8114611b6d57600080fd5b50565b600081359050611b7f81611b59565b92915050565b6000819050919050565b611b9881611b85565b8114611ba357600080fd5b50565b600081359050611bb581611b8f565b92915050565b60008060008060808587031215611bd557611bd46119ff565b5b600085013567ffffffffffffffff811115611bf357611bf2611a04565b5b611bff87828801611b21565b9450506020611c1087828801611b70565b9350506040611c2187828801611b70565b9250506060611c3287828801611ba6565b91505092959194509250565b600081519050919050565b600082825260208201905092915050565b60005b83811015611c78578082015181840152602081019050611c5d565b83811115611c87576000848401525b50505050565b6000611c9882611c3e565b611ca28185611c49565b9350611cb2818560208601611c5a565b611cbb81611a13565b840191505092915050565b611ccf81611b85565b82525050565b611cde81611b4f565b82525050565b600060c0830160008301518482036000860152611d018282611c8d565b9150506020830151611d166020860182611cc6565b5060408301518482036040860152611d2e8282611c8d565b9150506060830151611d436060860182611cd5565b506080830151611d566080860182611cd5565b5060a0830151611d6960a0860182611cd5565b508091505092915050565b60006020820190508181036000830152611d8e8184611ce4565b905092915050565b600060208284031215611dac57611dab6119ff565b5b6000611dba84828501611ba6565b91505092915050565b611dcc81611b4f565b82525050565b6000604082019050611de76000830185611dc3565b611df46020830184611dc3565b9392505050565b600080600080600080600060e0888a031215611e1a57611e196119ff565b5b6000611e288a828b01611ba6565b9750506020611e398a828b01611b70565b9650506040611e4a8a828b01611b70565b9550506060611e5b8a828b01611b70565b9450506080611e6c8a828b01611b70565b93505060a0611e7d8a828b01611b70565b92505060c0611e8e8a828b01611b70565b91505092959891949750929550565b600060a082019050611eb26000830188611dc3565b611ebf6020830187611dc3565b611ecc6040830186611dc3565b611ed96060830185611dc3565b611ee66080830184611dc3565b9695505050505050565b60008060408385031215611f0757611f066119ff565b5b6000611f1585828601611ba6565b9250506020611f2685828601611ba6565b9150509250929050565b60008060008060008060c08789031215611f4d57611f4c6119ff565b5b6000611f5b89828a01611ba6565b9650506020611f6c89828a01611b70565b9550506040611f7d89828a01611b70565b9450506060611f8e89828a01611b70565b9350506080611f9f89828a01611b70565b92505060a0611fb089828a01611b70565b9150509295509295509295565b600082825260208201905092915050565b6000611fd982611c3e565b611fe38185611fbd565b9350611ff3818560208601611c5a565b611ffc81611a13565b840191505092915050565b600060208201905081810360008301526120218184611fce565b905092915050565b61203281611b85565b82525050565b600060208201905061204d6000830184612029565b92915050565b60008060006060848603121561206c5761206b6119ff565b5b600061207a86828701611ba6565b935050602061208b86828701611b70565b925050604061209c86828701611b70565b9150509250925092565b60008060008060008060008060008060006101608c8e0312156120cc576120cb6119ff565b5b60006120da8e828f01611ba6565b9b505060208c013567ffffffffffffffff8111156120fb576120fa611a04565b5b6121078e828f01611b21565b9a505060406121188e828f01611b70565b99505060606121298e828f01611b70565b985050608061213a8e828f01611b70565b97505060a061214b8e828f01611b70565b96505060c061215c8e828f01611b70565b95505060e061216d8e828f01611b70565b94505061010061217f8e828f01611b70565b9350506101206121918e828f01611b70565b9250506101406121a38e828f01611b70565b9150509295989b509295989b9093969950565b600060c0820190506121cb6000830189611dc3565b6121d86020830188611dc3565b6121e56040830187611dc3565b6121f26060830186611dc3565b6121ff6080830185611dc3565b61220c60a0830184611dc3565b979650505050505050565b6000806040838503121561222e5761222d6119ff565b5b600083013567ffffffffffffffff81111561224c5761224b611a04565b5b61225885828601611b21565b925050602061226985828601611ba6565b9150509250929050565b6000606082019050818103600083015261228d8186611fce565b905061229c6020830185611dc3565b6122a96040830184611dc3565b949350505050565b60006101408201905081810360008301526122cc818d611fce565b90506122db602083018c611dc3565b6122e8604083018b611dc3565b6122f5606083018a611dc3565b6123026080830189611dc3565b61230f60a0830188611dc3565b61231c60c0830187611dc3565b61232960e0830186611dc3565b612337610100830185611dc3565b612345610120830184611dc3565b9b9a5050505050505050505050565b600060c082019050818103600083015261236e8189611fce565b905061237d6020830188612029565b818103604083015261238f8187611fce565b905061239e6060830186611dc3565b6123ab6080830185611dc3565b6123b860a0830184611dc3565b979650505050505050565b7f4e487b7100000000000000000000000000000000000000000000000000000000600052601160045260246000fd5b60006123fd82611b4f565b915061240883611b4f565b9250827f7fffffffffffffffffffffffffffffffffffffffffffffffffffffffffffffff0482116000841360008413161615612447576124466123c3565b5b817f80000000000000000000000000000000000000000000000000000000000000000583126000841260008413161615612484576124836123c3565b5b827f800000000000000000000000000000000000000000000000000000000000000005821260008413600084121616156124c1576124c06123c3565b5b827f7fffffffffffffffffffffffffffffffffffffffffffffffffffffffffffffff05821260008412600084121616156124fe576124fd6123c3565b5b828202905092915050565b7f4e487b7100000000000000000000000000000000000000000000000000000000600052603260045260246000fd5b7f4e487b7100000000000000000000000000000000000000000000000000000000600052602260045260246000fd5b6000600282049050600182168061257f57607f821691505b60208210810361259257612591612538565b5b50919050565b600081905092915050565b60008190508160005260206000209050919050565b600081546125c581612567565b6125cf8186612598565b945060018216600081146125ea57600181146125fb5761262e565b60ff1983168652818601935061262e565b612604856125a3565b60005b8381101561262657815481890152600182019150602081019050612607565b838801955050505b50505092915050565b600061264382846125b8565b915081905092915050565b600061265982611b85565b91507fffffffffffffffffffffffffffffffffffffffffffffffffffffffffffffffff820361268b5761268a6123c3565b5b600182019050919050565b60006126a182611c3e565b6126ab8185612598565b93506126bb818560208601611c5a565b80840191505092915050565b60006126d38284612696565b915081905092915050565b60006126e982611b85565b91506126f483611b85565b925082821015612707576127066123c3565b5b828203905092915050565b600061271d82611b85565b915061272883611b85565b9250827fffffffffffffffffffffffffffffffffffffffffffffffffffffffffffffffff0382111561275d5761275c6123c3565b5b82820190509291505056fe436f6e747261637420737461746520686173206e6f74206265656e20696e697469616c697a656420796574436f6e747261637420737461746520686173206265656e207265696e697469616c697a6564a26469706673582212203dfe87ada8786c7b4c2f18141292916baf18f4de504b02519299bd90a425970364736f6c634300080d0033",
  "immutableReferences": {},
  "source": "pragma solidity ^0.8.13;\r\nimport \"./utils/DateUtils.sol\";\r\nimport \"./utils/FixidityLib.sol\";\r\nimport \"./agents/TradeAgent.sol\";\r\nimport \"./Object.sol\";\r\n\r\ncontract RebalanceMarginWifMaxDrawdownControl is Object, TradeAgent{\r\n    using DateUtils for *;\r\n    using StringUtils for string;\r\n    event LogTradeActionMsg(string tradeActionMsg);\r\n\r\n    uint256 lastExecutedTimestamp;\r\n\r\n    string[] tickerNames;\r\n    uint256[] executionTimestamps;\r\n\r\n    mapping (string => bool) tickerExists;\r\n\r\n    mapping (string => bool) maxDrawdownDodge;\r\n    mapping (string => int256) benchmarkDrawdownPrice;\r\n    mapping (string => int256) liquidateTickerQty;\r\n    mapping (string => int256) maxStockPrice;\r\n    mapping (string => int256) liquidateTickerPrice;\r\n    mapping (uint256 => mapping(string => RealTimeTickerData)) realTimeTickersData;\r\n\r\n    mapping(uint256 => MarginAccount) marginAccountData;\r\n    mapping(uint256 => TradingFunds) tradingFundsData;\r\n    mapping(uint256 => MktValue) mktValueData;\r\n\r\n    mapping (uint256 => mapping(string => TradeActionMsg)) tradeActionMsgs;\r\n    mapping (uint256 => mapping(string => PortfolioHolding)) portfolioHoldingsData;\r\n    uint256 loop = 0;\r\n    int256 rebalanceMargin = int256(5) * FixidityLib.fixed1() / int256(100);\r\n    int256 maxDrawdown = int256(5) * FixidityLib.fixed1() / int256(1000);\r\n\r\n    constructor(){\r\n        tickerNames = [\"QQQ\", \"SPY\"];\r\n        tickerExists[\"QQQ\"] = true;\r\n        tickerExists[\"SPY\"] = true;\r\n\r\n        lastExecutedTimestamp = 0;\r\n    }\r\n\r\n    function inputRealTimeTickerData(string memory _tickerName, int256 bidPrice, int256 last, uint256 _timestamp) public {\r\n        RealTimeTickerData memory tickerData = RealTimeTickerData(_tickerName, bidPrice, last);\r\n        realTimeTickersData[_timestamp][_tickerName] = tickerData;\r\n\r\n        if(loop == 0){\r\n            maxDrawdownDodge[_tickerName] = false;\r\n            benchmarkDrawdownPrice[_tickerName] = 0;\r\n            liquidateTickerQty[_tickerName] = 0;\r\n            maxStockPrice[_tickerName] = 0;\r\n            liquidateTickerPrice[_tickerName] = 0;\r\n        }\r\n\r\n        if (!tickerExists[_tickerName]){\r\n            tickerNames.push(_tickerName);\r\n            tickerExists[_tickerName] = true;\r\n            maxDrawdownDodge[_tickerName] = false;\r\n            benchmarkDrawdownPrice[_tickerName] = 0;\r\n            liquidateTickerQty[_tickerName] = 0;\r\n            maxStockPrice[_tickerName] = 0;\r\n            liquidateTickerPrice[_tickerName] = 0;\r\n        }\r\n    }\r\n\r\n    function getRealTimeTickerData(string memory _tickerName, uint256 _timeStamp) public returns (string memory, int256, int256){\r\n        RealTimeTickerData memory tickerData = realTimeTickersData[_timeStamp][_tickerName];\r\n        return (tickerData.tickerName, tickerData.bidPrice, tickerData.last);\r\n    }\r\n\r\n    function inputMarginAccount(uint256 _timestamp, int256 FullInitMarginReq, int256 FullMainMarginReq) public {\r\n        MarginAccount memory data = MarginAccount(FullInitMarginReq, FullMainMarginReq);\r\n        marginAccountData[_timestamp] = data;\r\n    }\r\n\r\n    function getMarginAccount(uint256 timestamp) public view returns (int256,int256){\r\n        MarginAccount memory data = marginAccountData[timestamp];\r\n        return (data.FullInitMarginReq, data.FullMainMarginReq);\r\n    }\r\n\r\n    function inputTradingFunds(uint256 _timestamp, int256 AvailableFunds, int256 ExcessLiquidity, int256 BuyingPower, int256 Leverage, int256 EquityWithLoanValue) public {\r\n        TradingFunds memory data = TradingFunds(AvailableFunds, ExcessLiquidity, BuyingPower, Leverage, EquityWithLoanValue);\r\n        tradingFundsData[_timestamp] = data;\r\n    }\r\n\r\n    function getTradingFunds(uint256 timestamp) public view returns (int256,int256,int256,int256,int256){\r\n        TradingFunds memory data = tradingFundsData[timestamp];\r\n        return (data.AvailableFunds, data.ExcessLiquidity, data.BuyingPower, data.Leverage, data.EquityWithLoanValue);\r\n    }\r\n\r\n    function inputMktValue(uint256 _timestamp, int256 TotalCashValue, int256 NetDividend, int256 NetLiquidation, int256 UnrealizedPnL, int256 RealizedPnL, int256 GrossPositionValue) public {\r\n        MktValue memory data = MktValue(TotalCashValue, NetDividend, NetLiquidation, UnrealizedPnL, RealizedPnL, GrossPositionValue);\r\n        mktValueData[_timestamp] = data;\r\n    }\r\n\r\n    function getMktValue(uint256 _timestamp) public view returns (int256,int256,int256,int256,int256,int256){\r\n        MktValue memory data = mktValueData[_timestamp];\r\n        return (data.TotalCashValue, data.NetDividend, data.NetLiquidation, data.UnrealizedPnL, data.RealizedPnL, data.GrossPositionValue);\r\n    }\r\n\r\n    function updatePortfolioHoldingsData(uint256 timestamp, string memory _tickerName, int256 position, int256 marketPrice, int256 averageCost, int256 marketValue, int256 realizedPNL, int256 unrealizedPNL, int256 initMarginReq, int256 maintMarginReq, int256 costBasis) public {\r\n        PortfolioHolding memory holding = PortfolioHolding(_tickerName, position, marketPrice, averageCost, marketValue, realizedPNL, unrealizedPNL, initMarginReq, maintMarginReq, costBasis);\r\n        portfolioHoldingsData[timestamp][_tickerName] = holding;\r\n    }\r\n\r\n    function getPortfolioHolding(string memory _tickerName, uint256 _timestamp) public returns (string memory,int256,int256,int256,int256,int256,int256,int256,int256,int256){\r\n        PortfolioHolding memory holding = portfolioHoldingsData[_timestamp][_tickerName];\r\n        return (holding.tickerName, holding.position, holding.marketPrice, holding.averageCost, holding.marketValue, holding.realizedPNL, holding.unrealizedPNL, holding.initMarginReq, holding.maintMarginReq, holding.costBasis);\r\n    }\r\n\r\n    function getTickerTradeActionMsg(string memory tickerName, uint256 _timestamp) public returns (string memory, uint256, string memory, int256, int256, int256){\r\n        TradeActionMsg memory tradeActionMsg = tradeActionMsgs[_timestamp][tickerName];\r\n        return (tradeActionMsg.tickerName, tradeActionMsg.timestamp, tradeActionMsg.transactionType, tradeActionMsg.positionAction, tradeActionMsg.transactionTickerPrice, tradeActionMsg.transactionAmount);\r\n    }\r\n\r\n    function inputLoopWithTimestamps(uint256 _loop, uint256 _lastExecutedTimestamp) public {\r\n        loop = _loop;\r\n        executionTimestamps.push(_lastExecutedTimestamp);\r\n    }\r\n\r\n    function reinitializeContractState() public returns (string memory){\r\n        string memory returnMsg = \"\";\r\n        if (executionTimestamps.length == 0){\r\n            returnMsg = \"Contract state has not been initialized yet\";\r\n        }else{\r\n            for (uint i=0; i < tickerNames.length; i++){\r\n                delete tickerExists[tickerNames[i]];\r\n                delete maxDrawdownDodge[tickerNames[i]];\r\n                delete benchmarkDrawdownPrice[tickerNames[i]];\r\n                delete liquidateTickerQty[tickerNames[i]];\r\n                delete maxStockPrice[tickerNames[i]];\r\n                delete liquidateTickerPrice[tickerNames[i]];\r\n            }\r\n            for (uint i=0; i < executionTimestamps.length; i++){\r\n                for (uint j=0; j < tickerNames.length; j++){\r\n                    delete realTimeTickersData[executionTimestamps[i]][tickerNames[j]];\r\n                    delete portfolioHoldingsData[executionTimestamps[i]][tickerNames[j]];\r\n                    delete tradeActionMsgs[executionTimestamps[i]][tickerNames[j]];\r\n                }\r\n\r\n                delete marginAccountData[executionTimestamps[i]];\r\n                delete tradingFundsData[executionTimestamps[i]];\r\n                delete mktValueData[executionTimestamps[i]];\r\n                executionTimestamps[i] = 0;\r\n            }\r\n            lastExecutedTimestamp = 0;\r\n            delete tickerNames;\r\n            returnMsg = \"Contract state has been reinitialized\";\r\n        }\r\n        return returnMsg;\r\n    }\r\n\r\n    function test() public {\r\n        string memory _tickerName = \"AAPL\";\r\n        uint256 timestamp = 123456789;\r\n//        tradeActionMsgs[timestamp][_tickerName].timestamp = timestamp;\r\n//        tradeActionMsgs[timestamp][_tickerName].tickerName = _tickerName;\r\n        TradeActionMsg memory tradeActionMsg = TradeActionMsg(_tickerName, 123456789, \"buy\", 0, 0, 0);\r\n        tradeActionMsgs[timestamp][_tickerName] = tradeActionMsg;\r\n    }\r\n\r\n    function run(uint256 _timestamp) public{\r\n        uint256 startGas = gasleft();\r\n\r\n        string memory _tickerName = \"AAPL\";\r\n        uint256 timestamp = 123456789;\r\n\r\n\r\n        TradeActionMsg memory tradeActionMsg = TradeActionMsg(_tickerName, 123456789, \"buy\", 0, 0, 0);\r\n        tradeActionMsgs[timestamp][_tickerName] = tradeActionMsg;\r\n        uint256 gasUsed = startGas - gasleft();\r\n        startGas = gasleft();\r\n\r\n        executionTimestamps.push(_timestamp);\r\n//        if(loop == 0){\r\n//            int256 capitalForEachStock = FixidityLib.divide(mktValueData[_timestamp].TotalCashValue, int256(tickerNames.length) * FixidityLib.fixed1());\r\n//\r\n//            for (uint i=0; i < tickerNames.length; i++){\r\n//                RealTimeTickerData memory tickerData = realTimeTickersData[_timestamp][tickerNames[i]];\r\n//                string memory _tickerName = tickerData.tickerName;\r\n////                int256 baseSharePurchase = FixidityLib.divide(capitalForEachStock,tickerData.last);\r\n//                int256 _baseSharePurchase = capitalForEachStock/tickerData.last;\r\n//                int256 _sharePurchase =  _baseSharePurchase * 3;\r\n////                ActionMsg memory actionMsg = TradeAgent.placeBuyStockLimitOrderMsg(tickerName,sharePurchase,tickerPrice,_timestamp);\r\n//                int256 _transactionAmount = _sharePurchase* tickerData.last;\r\n//                tradeActionMsgs[_timestamp][_tickerName] = TradeActionMsg({tickerName:_tickerName, timestamp: _timestamp, transactionType: 'Buy', positionAction: _sharePurchase, transactionTickerPrice:tickerData.last, transactionAmount:_transactionAmount});\r\n//            }\r\n//        }\r\n//        else{\r\n//            int256 targetExLiq = FixidityLib.multiply(rebalanceMargin, mktValueData[_timestamp].GrossPositionValue);\r\n//            for (uuint i=0; i < tickerNames.length; i++){\r\n//                int256 tickerPrice = realTimeTickersData[_timestamp][tickerNames[i]].last;\r\n//                string memory tickerName = tickerNames[i];\r\n//                if (maxDrawdownDodge[tickerNames[i]]){\r\n//                    if (checkBuyBack(tickerName, tickerPrice)){\r\n//                        ActionMsg memory actionMsg = buyBackPosition(tickerName, tickerPrice,_timestamp);\r\n//                        actionMsgs[_timestamp][tickerName] = actionMsg;\r\n//                    }\r\n//                }else{\r\n//                    if(checkMaxDrawdownDodge(tickerName,tickerPrice)){\r\n//                        ActionMsg memory actionMsg = liquidateTickerPosition(tickerName, tickerPrice ,_timestamp);\r\n//                    }\r\n//                    else{\r\n//                        if (tradingFundsData[_timestamp].ExcessLiquidity > targetExLiq) {\r\n//                            int256 exLiqDiff = FixidityLib.subtract(tradingFundsData[_timestamp].ExcessLiquidity, targetExLiq);\r\n//                            int256 targetSharePurchase = FixidityLib.divide(exLiqDiff,tickerPrice);\r\n//\r\n//                            if (targetSharePurchase > 0){\r\n//                                ActionMsg memory actionMsg = super.placeBuyStockLimitOrderMsg(tickerName,targetSharePurchase,tickerPrice,_timestamp);\r\n//                                actionMsgs[_timestamp][tickerName] = actionMsg;\r\n//                            }\r\n//                        }\r\n//                    }\r\n//                }\r\n//            }\r\n//\r\n//            for (uint i=0; i < tickerNames.length; i++){\r\n//                int256 tickerPrice = realTimeTickersData[_timestamp][tickerNames[i]].last;\r\n//                string memory tickerName = tickerNames[i];\r\n//                if (maxDrawdownDodge[tickerName]){\r\n//                    updateBenchmarkDrawdownPriceAfterDodge(tickerName, tickerPrice);\r\n//                }\r\n//                else{\r\n//                    updateBenchmarkDrawdownPriceBeforeDodge(tickerName, tickerPrice);\r\n//                }\r\n//            }\r\n//        }\r\n        lastExecutedTimestamp = _timestamp;\r\n        loop = loop + 1;\r\n\r\n    }\r\n\r\n    function checkExecution(uint256 _timestamp) internal returns (bool){\r\n\r\n        bool exec = false;\r\n        uint16 _year;\r\n        uint8 _month;\r\n        uint8 _day;\r\n\r\n        uint16 _lastYear;\r\n        uint8 _lastMonth;\r\n        uint8 _lastday;\r\n\r\n        (_year, _month, _day) = DateUtils.convertTimestampToYMD(_timestamp);\r\n        (_lastYear, _lastMonth, _lastday) = DateUtils.convertTimestampToYMD(lastExecutedTimestamp);\r\n        if (_month != _lastMonth){\r\n            exec = true;\r\n            lastExecutedTimestamp = _timestamp;\r\n            }\r\n        return exec;\r\n    }\r\n\r\n\r\n    function checkBuyBack(string memory _tickerName, int256 realTimeTickerPrice)internal returns (bool){\r\n//        range_price = self.benchmark_drawdown_price.get(ticker) * (1 + 0.01)\r\n//        return ticker_price > range_price\r\n        int256 rangePrice = benchmarkDrawdownPrice[_tickerName] /100*101;\r\n        return realTimeTickerPrice > rangePrice;\r\n    }\r\n\r\n    function buyBackPosition(string memory _tickerName, int256 _tickerPrice, uint256 _timestamp) internal returns (TradeActionMsg memory) {\r\n        TradeActionMsg memory tradeActionMsg;\r\n        int256 targetSharePurchase = liquidateTickerQty[_tickerName];\r\n        int256 purchaseAmount =  FixidityLib.multiply(targetSharePurchase, _tickerPrice);\r\n        if (tradingFundsData[_timestamp].BuyingPower >= purchaseAmount){\r\n            tradeActionMsg = super.placeBuyStockLimitOrderMsg(_tickerName,targetSharePurchase,_tickerPrice,_timestamp);\r\n        }else{\r\n            targetSharePurchase = tradingFundsData[_timestamp].BuyingPower / _tickerPrice;\r\n            tradeActionMsg = super.placeBuyStockLimitOrderMsg(_tickerName,targetSharePurchase,_tickerPrice,_timestamp);\r\n        }\r\n\r\n        maxDrawdownDodge[_tickerName] = false;\r\n        maxStockPrice[_tickerName] = _tickerPrice;\r\n\r\n        return tradeActionMsg;\r\n    }\r\n\r\n    function getLastExecutedTimestamp() public view returns (uint256){\r\n        return lastExecutedTimestamp;\r\n    }\r\n\r\n    function checkMaxDrawdownDodge(string memory tickerName, int256 tickerPrice) private returns (bool){\r\n        return tickerPrice < benchmarkDrawdownPrice[tickerName];\r\n    }\r\n\r\n    function updateBenchmarkDrawdownPriceAfterDodge(string memory _tickerName, int256 _tickerPrice) private{\r\n//        if real_time_ticker_price < self.benchmark_drawdown_price[ticker] * 0.7:\r\n//            target_update_benchmark_drawdown_price = real_time_ticker_price + (\r\n//                    (self.liq_sold_price_dict[ticker] - real_time_ticker_price) * 0.5)\r\n//            if target_update_benchmark_drawdown_price < self.benchmark_drawdown_price[ticker]:\r\n//                self.benchmark_drawdown_price[ticker] = target_update_benchmark_drawdown_price\r\n\r\n        int256 benchmarkDrawdownFactor = int256(70) * FixidityLib.fixed1() / int256(100);\r\n        if (_tickerPrice < FixidityLib.multiply(benchmarkDrawdownPrice[_tickerName] , benchmarkDrawdownFactor)){\r\n\r\n            int256 tickerDiff = FixidityLib.subtract(liquidateTickerPrice[_tickerName],_tickerPrice);\r\n            int256 targetUpdateBenchmarkDrawdownPrice = FixidityLib.add(_tickerPrice, tickerDiff) * 50 / 100;\r\n            if (targetUpdateBenchmarkDrawdownPrice < benchmarkDrawdownPrice[_tickerName]){\r\n                benchmarkDrawdownPrice[_tickerName] = targetUpdateBenchmarkDrawdownPrice;\r\n            }\r\n        }\r\n    }\r\n\r\n    function updateBenchmarkDrawdownPriceBeforeDodge(string memory _tickerName, int256 realTimeTickerPrice) private{\r\n//        if (self.max_stock_price.get(ticker) == 0):  # if there is no data for the max and benchmark price\r\n//            self.max_stock_price.update({ticker: real_time_ticker_price})\r\n//            benchmark_price = real_time_ticker_price * (1 - self.max_drawdown_ratio)\r\n//            self.benchmark_drawdown_price.update({ticker: benchmark_price})\r\n//        elif real_time_ticker_price > self.max_stock_price.get(ticker):\r\n//            self.max_stock_price.update({ticker: real_time_ticker_price})\r\n//            benchmark_price = real_time_ticker_price * (1 - self.max_drawdown_ratio)\r\n//            self.benchmark_drawdown_price.update({ticker: benchmark_price})\r\n\r\n        if (maxStockPrice[_tickerName] == 0){\r\n            maxStockPrice[_tickerName] = realTimeTickerPrice;\r\n            int256 drawDownFactor = FixidityLib.subtract(FixidityLib.fixed1(), maxDrawdown);\r\n            int256 tickerBenchmarkPrice = FixidityLib.multiply(maxStockPrice[_tickerName], drawDownFactor);\r\n            benchmarkDrawdownPrice[_tickerName] = tickerBenchmarkPrice;\r\n        }\r\n        else if (realTimeTickerPrice > maxStockPrice[_tickerName]){\r\n            maxStockPrice[_tickerName] = realTimeTickerPrice;\r\n            int256 drawDownFactor = FixidityLib.subtract(FixidityLib.fixed1(), maxDrawdown);\r\n            int256 tickerBenchmarkPrice = FixidityLib.multiply(maxStockPrice[_tickerName], drawDownFactor);\r\n            benchmarkDrawdownPrice[_tickerName] = tickerBenchmarkPrice;\r\n        }\r\n\r\n    }\r\n\r\n    function liquidateTickerPosition(string memory _tickerName, int256 tickerPrice, uint256 _timestamp) private returns (TradeActionMsg memory){\r\n        PortfolioHolding memory holding = portfolioHoldingsData[_timestamp][_tickerName];\r\n        RealTimeTickerData memory tickerData = realTimeTickersData[_timestamp][_tickerName];\r\n        int256 currentPosition = holding.position;\r\n        int256 noLeverageEquity = tradingFundsData[_timestamp].EquityWithLoanValue / int256(tickerNames.length);\r\n        int256 noLeveragePosition = FixidityLib.divide(noLeverageEquity,tickerData.last);\r\n        int256 targetLeveragePositionAtLiquidState = noLeveragePosition * 12 / 10;\r\n\r\n        int256 targetSoldPosition = currentPosition - targetLeveragePositionAtLiquidState;\r\n        TradeActionMsg memory tradeActionMsg = super.placeSellStockLimitOrderMsg(_tickerName,targetSoldPosition,tickerPrice, _timestamp);\r\n\r\n        benchmarkDrawdownPrice[_tickerName] = tickerPrice;\r\n        liquidateTickerQty[_tickerName] = targetSoldPosition;\r\n        liquidateTickerPrice[_tickerName] = tickerPrice;\r\n        maxDrawdownDodge[_tickerName] = true;\r\n\r\n        return tradeActionMsg;\r\n    }\r\n\r\n\r\n\r\n}\r\n",
  "sourcePath": "C:\\Users\\lam\\Documents\\GitHub\\IndexTradingApplication\\contract\\contracts\\RebalanceMarginWifMaxDrawdownControl.sol",
  "compiler": {
    "name": "solc",
    "version": "0.8.13+commit.abaa5c0e.Emscripten.clang"
  },
  "schemaVersion": "3.4.7",
  "updatedAt": "2022-07-24T04:34:25.545Z",
  "networkType": "ethereum",
  "devdoc": {
    "kind": "dev",
    "methods": {},
    "version": 1
  },
  "userdoc": {
    "kind": "user",
    "methods": {},
    "version": 1
  }
}