{
  "contractName": "StringUtils",
  "abi": [
    {
      "inputs": [
        {
          "internalType": "uint256",
          "name": "v",
          "type": "uint256"
        }
      ],
      "name": "uintToBytes",
      "outputs": [
        {
          "internalType": "bytes32",
          "name": "ret",
          "type": "bytes32"
        }
      ],
      "stateMutability": "pure",
      "type": "function",
      "constant": true
    },
    {
      "inputs": [
        {
          "internalType": "bytes32",
          "name": "v",
          "type": "bytes32"
        }
      ],
      "name": "bytesToUInt",
      "outputs": [
        {
          "internalType": "uint256",
          "name": "ret",
          "type": "uint256"
        }
      ],
      "stateMutability": "pure",
      "type": "function",
      "constant": true
    },
    {
      "inputs": [
        {
          "internalType": "string",
          "name": "_src",
          "type": "string"
        }
      ],
      "name": "stringToBytes32",
      "outputs": [
        {
          "internalType": "bytes32",
          "name": "",
          "type": "bytes32"
        }
      ],
      "stateMutability": "pure",
      "type": "function",
      "constant": true
    },
    {
      "inputs": [
        {
          "internalType": "string",
          "name": "a",
          "type": "string"
        },
        {
          "internalType": "string",
          "name": "b",
          "type": "string"
        }
      ],
      "name": "compareStrings",
      "outputs": [
        {
          "internalType": "bool",
          "name": "",
          "type": "bool"
        }
      ],
      "stateMutability": "view",
      "type": "function",
      "constant": true
    }
  ],
  "bytecode": "0x610819610053600b82828239805160001a607314610046577f4e487b7100000000000000000000000000000000000000000000000000000000600052600060045260246000fd5b30600052607381538281f3fe73000000000000000000000000000000000000000030146080604052600436106100565760003560e01c806381a33a6f1461005b57806394e8767d1461008b578063bed34bba146100bb578063cfb51928146100eb575b600080fd5b61007560048036038101906100709190610341565b61011b565b6040516100829190610387565b60405180910390f35b6100a560048036038101906100a091906103ce565b61019c565b6040516100b2919061040a565b60405180910390f35b6100d560048036038101906100d0919061056b565b61021d565b6040516100e291906105fe565b60405180910390f35b61010560048036038101906101009190610619565b610276565b604051610112919061040a565b60405180910390f35b600073__StringLib_____________________________6381a33a6f836040518263ffffffff1660e01b8152600401610154919061040a565b602060405180830381865af4158015610171573d6000803e3d6000fd5b505050506040513d601f19601f820116820180604052508101906101959190610677565b9050919050565b600073__StringLib_____________________________6394e8767d836040518263ffffffff1660e01b81526004016101d59190610387565b602060405180830381865af41580156101f2573d6000803e3d6000fd5b505050506040513d601f19601f8201168201806040525081019061021691906106b9565b9050919050565b6000816040516020016102309190610760565b60405160208183030381529060405280519060200120836040516020016102579190610760565b6040516020818303038152906040528051906020012014905092915050565b600073__StringLib_____________________________63cfb51928836040518263ffffffff1660e01b81526004016102af91906107c1565b602060405180830381865af41580156102cc573d6000803e3d6000fd5b505050506040513d601f19601f820116820180604052508101906102f091906106b9565b9050919050565b6000604051905090565b600080fd5b600080fd5b6000819050919050565b61031e8161030b565b811461032957600080fd5b50565b60008135905061033b81610315565b92915050565b60006020828403121561035757610356610301565b5b60006103658482850161032c565b91505092915050565b6000819050919050565b6103818161036e565b82525050565b600060208201905061039c6000830184610378565b92915050565b6103ab8161036e565b81146103b657600080fd5b50565b6000813590506103c8816103a2565b92915050565b6000602082840312156103e4576103e3610301565b5b60006103f2848285016103b9565b91505092915050565b6104048161030b565b82525050565b600060208201905061041f60008301846103fb565b92915050565b600080fd5b600080fd5b6000601f19601f8301169050919050565b7f4e487b7100000000000000000000000000000000000000000000000000000000600052604160045260246000fd5b6104788261042f565b810181811067ffffffffffffffff8211171561049757610496610440565b5b80604052505050565b60006104aa6102f7565b90506104b6828261046f565b919050565b600067ffffffffffffffff8211156104d6576104d5610440565b5b6104df8261042f565b9050602081019050919050565b82818337600083830152505050565b600061050e610509846104bb565b6104a0565b90508281526020810184848401111561052a5761052961042a565b5b6105358482856104ec565b509392505050565b600082601f83011261055257610551610425565b5b81356105628482602086016104fb565b91505092915050565b6000806040838503121561058257610581610301565b5b600083013567ffffffffffffffff8111156105a05761059f610306565b5b6105ac8582860161053d565b925050602083013567ffffffffffffffff8111156105cd576105cc610306565b5b6105d98582860161053d565b9150509250929050565b60008115159050919050565b6105f8816105e3565b82525050565b600060208201905061061360008301846105ef565b92915050565b60006020828403121561062f5761062e610301565b5b600082013567ffffffffffffffff81111561064d5761064c610306565b5b6106598482850161053d565b91505092915050565b600081519050610671816103a2565b92915050565b60006020828403121561068d5761068c610301565b5b600061069b84828501610662565b91505092915050565b6000815190506106b381610315565b92915050565b6000602082840312156106cf576106ce610301565b5b60006106dd848285016106a4565b91505092915050565b600081519050919050565b600081905092915050565b60005b8381101561071a5780820151818401526020810190506106ff565b83811115610729576000848401525b50505050565b600061073a826106e6565b61074481856106f1565b93506107548185602086016106fc565b80840191505092915050565b600061076c828461072f565b915081905092915050565b600082825260208201905092915050565b6000610793826106e6565b61079d8185610777565b93506107ad8185602086016106fc565b6107b68161042f565b840191505092915050565b600060208201905081810360008301526107db8184610788565b90509291505056fea264697066735822122094012aed17ba21eee761802004d09cad1cbcb771fc52244027251f788a30e14464736f6c634300080d0033",
  "immutableReferences": {},
  "source": "pragma solidity ^0.8.13;\n\n// String Utils v0.1\n\n/// @title String Utils - String utility functions\n/// @author Piper Merriam - <pipermerriam@gmail.com>\nlibrary StringLib {\n    /// @dev Converts an unsigned integert to its string representation.\n    /// @param v The number to be converted.\n    function uintToBytes(uint v) public pure returns (bytes32 ret) {\n        if (v == 0) {\n            ret = '0';\n        }\n        else {\n            while (v > 0) {\n                ret = bytes32(uint(ret) / (2 ** 8));\n                ret |= bytes32(((v % 10) + 48) * 2 ** (8 * 31));\n                v /= 10;\n            }\n        }\n        return ret;\n    }\n\n    /// @dev Converts a numeric string to it's unsigned integer representation.\n    /// @param v The string to be converted.\n    function bytesToUInt(bytes32 v) public pure returns (uint ret) {\n\n        if (v == 0x0) {\n            revert();\n        }\n\n        uint digit;\n\n        for (uint i = 0; i < 32; i++) {\n            digit = uint((uint(v) / (2 ** (8 * (31 - i)))) & 0xff);\n            if (digit == 0) {\n                break;\n            }\n            else if (digit < 48 || digit > 57) {\n                revert();\n            }\n            ret *= 10;\n            ret += (digit - 48);\n        }\n        return ret;\n    }\n\n    function stringToBytes32(string memory _src) public pure returns (bytes32 result) {\n\n      bytes memory tempEmptyStringTest = bytes(_src);\n\n      if (tempEmptyStringTest.length == 0) {\n        return 0x0;\n      }\n\n      assembly {\n        result := mload(add(_src, 32))\n      }\n    }\n}\n\n\n/// @title String Utils - String utility functions\n/// @author Piper Merriam - <pipermerriam@gmail.com>\nlibrary StringUtils {\n    /// @dev Converts an unsigned integert to its string representation.\n    /// @param v The number to be converted.\n    function uintToBytes(uint v) public pure returns (bytes32 ret) {\n      return StringLib.uintToBytes(v);\n    }\n\n    /// @dev Converts a numeric string to it's unsigned integer representation.\n    /// @param v The string to be converted.\n    function bytesToUInt(bytes32 v) public pure returns (uint ret) {\n      return StringLib.bytesToUInt(v);\n    }\n\n    function stringToBytes32(string memory _src)  public pure returns (bytes32) {\n      return StringLib.stringToBytes32(_src);\n    }\n\n    function compareStrings(string memory a, string memory b) public view returns (bool) {\n        return (keccak256(abi.encodePacked((a))) == keccak256(abi.encodePacked((b))));\n    }\n}\n",
  "sourcePath": "C:\\Users\\lam\\Documents\\GitHub\\IndexTradingApplication\\contract\\contracts\\utils\\StringUtils.sol",
  "compiler": {
    "name": "solc",
    "version": "0.8.13+commit.abaa5c0e.Emscripten.clang"
  },
  "schemaVersion": "3.4.7",
  "updatedAt": "2022-07-07T13:34:43.349Z",
  "networkType": "ethereum",
  "devdoc": {
    "author": "Piper Merriam - <pipermerriam@gmail.com>",
    "kind": "dev",
    "methods": {
      "bytesToUInt(bytes32)": {
        "details": "Converts a numeric string to it's unsigned integer representation.",
        "params": {
          "v": "The string to be converted."
        }
      },
      "uintToBytes(uint256)": {
        "details": "Converts an unsigned integert to its string representation.",
        "params": {
          "v": "The number to be converted."
        }
      }
    },
    "title": "String Utils - String utility functions",
    "version": 1
  },
  "userdoc": {
    "kind": "user",
    "methods": {},
    "version": 1
  }
}