{
  "contractName": "StringLib",
  "abi": [
    {
      "inputs": [
        {
          "internalType": "uint256",
          "name": "v",
          "type": "uint256"
        }
      ],
      "name": "uintToBytes",
      "outputs": [
        {
          "internalType": "bytes32",
          "name": "ret",
          "type": "bytes32"
        }
      ],
      "stateMutability": "pure",
      "type": "function",
      "constant": true
    },
    {
      "inputs": [
        {
          "internalType": "bytes32",
          "name": "v",
          "type": "bytes32"
        }
      ],
      "name": "bytesToUInt",
      "outputs": [
        {
          "internalType": "uint256",
          "name": "ret",
          "type": "uint256"
        }
      ],
      "stateMutability": "pure",
      "type": "function",
      "constant": true
    },
    {
      "inputs": [
        {
          "internalType": "string",
          "name": "_src",
          "type": "string"
        }
      ],
      "name": "stringToBytes32",
      "outputs": [
        {
          "internalType": "bytes32",
          "name": "result",
          "type": "bytes32"
        }
      ],
      "stateMutability": "pure",
      "type": "function",
      "constant": true
    }
  ],
  "bytecode": "0x6108db610053600b82828239805160001a607314610046577f4e487b7100000000000000000000000000000000000000000000000000000000600052600060045260246000fd5b30600052607381538281f3fe730000000000000000000000000000000000000000301460806040526004361061004b5760003560e01c806381a33a6f1461005057806394e8767d14610080578063cfb51928146100b0575b600080fd5b61006a600480360381019061006591906102c8565b6100e0565b604051610077919061030e565b60405180910390f35b61009a60048036038101906100959190610355565b61019f565b6040516100a79190610391565b60405180910390f35b6100ca60048036038101906100c591906104f2565b610255565b6040516100d79190610391565b60405180910390f35b60008060001b82036100f157600080fd5b600080600090505b60208110156101985760ff81601f610111919061056a565b600861011d919061059e565b6002610129919061072b565b8560001c61013791906107a5565b16915060008203156101985760308210806101525750603982115b1561015c57600080fd5b600a83610169919061059e565b9250603082610178919061056a565b8361018391906107d6565b925080806101909061082c565b9150506100f9565b5050919050565b60008082036101d0577f30000000000000000000000000000000000000000000000000000000000000009050610250565b5b600082111561024f576101008160001c6101eb91906107a5565b60001b90507f01000000000000000000000000000000000000000000000000000000000000006030600a846102209190610874565b61022a91906107d6565b610234919061059e565b60001b81179050600a8261024891906107a5565b91506101d1565b5b919050565b6000808290506000815103610270576000801b915050610279565b60208301519150505b919050565b6000604051905090565b600080fd5b600080fd5b6000819050919050565b6102a581610292565b81146102b057600080fd5b50565b6000813590506102c28161029c565b92915050565b6000602082840312156102de576102dd610288565b5b60006102ec848285016102b3565b91505092915050565b6000819050919050565b610308816102f5565b82525050565b600060208201905061032360008301846102ff565b92915050565b610332816102f5565b811461033d57600080fd5b50565b60008135905061034f81610329565b92915050565b60006020828403121561036b5761036a610288565b5b600061037984828501610340565b91505092915050565b61038b81610292565b82525050565b60006020820190506103a66000830184610382565b92915050565b600080fd5b600080fd5b6000601f19601f8301169050919050565b7f4e487b7100000000000000000000000000000000000000000000000000000000600052604160045260246000fd5b6103ff826103b6565b810181811067ffffffffffffffff8211171561041e5761041d6103c7565b5b80604052505050565b600061043161027e565b905061043d82826103f6565b919050565b600067ffffffffffffffff82111561045d5761045c6103c7565b5b610466826103b6565b9050602081019050919050565b82818337600083830152505050565b600061049561049084610442565b610427565b9050828152602081018484840111156104b1576104b06103b1565b5b6104bc848285610473565b509392505050565b600082601f8301126104d9576104d86103ac565b5b81356104e9848260208601610482565b91505092915050565b60006020828403121561050857610507610288565b5b600082013567ffffffffffffffff8111156105265761052561028d565b5b610532848285016104c4565b91505092915050565b7f4e487b7100000000000000000000000000000000000000000000000000000000600052601160045260246000fd5b6000610575826102f5565b9150610580836102f5565b9250828210156105935761059261053b565b5b828203905092915050565b60006105a9826102f5565b91506105b4836102f5565b9250817fffffffffffffffffffffffffffffffffffffffffffffffffffffffffffffffff04831182151516156105ed576105ec61053b565b5b828202905092915050565b60008160011c9050919050565b6000808291508390505b600185111561064f5780860481111561062b5761062a61053b565b5b600185161561063a5780820291505b8081029050610648856105f8565b945061060f565b94509492505050565b6000826106685760019050610724565b816106765760009050610724565b816001811461068c5760028114610696576106c5565b6001915050610724565b60ff8411156106a8576106a761053b565b5b8360020a9150848211156106bf576106be61053b565b5b50610724565b5060208310610133831016604e8410600b84101617156106fa5782820a9050838111156106f5576106f461053b565b5b610724565b6107078484846001610605565b9250905081840481111561071e5761071d61053b565b5b81810290505b9392505050565b6000610736826102f5565b9150610741836102f5565b925061076e7fffffffffffffffffffffffffffffffffffffffffffffffffffffffffffffffff8484610658565b905092915050565b7f4e487b7100000000000000000000000000000000000000000000000000000000600052601260045260246000fd5b60006107b0826102f5565b91506107bb836102f5565b9250826107cb576107ca610776565b5b828204905092915050565b60006107e1826102f5565b91506107ec836102f5565b9250827fffffffffffffffffffffffffffffffffffffffffffffffffffffffffffffffff038211156108215761082061053b565b5b828201905092915050565b6000610837826102f5565b91507fffffffffffffffffffffffffffffffffffffffffffffffffffffffffffffffff82036108695761086861053b565b5b600182019050919050565b600061087f826102f5565b915061088a836102f5565b92508261089a57610899610776565b5b82820690509291505056fea2646970667358221220cdc0589abb85aa844dfd03752dffec24a6ca5c647fa99206fc7511016f18c4fa64736f6c634300080d0033",
  "immutableReferences": {},
  "source": "pragma solidity ^0.8.13;\n\n// String Utils v0.1\n\n/// @title String Utils - String utility functions\n/// @author Piper Merriam - <pipermerriam@gmail.com>\nlibrary StringLib {\n    /// @dev Converts an unsigned integert to its string representation.\n    /// @param v The number to be converted.\n    function uintToBytes(uint v) public pure returns (bytes32 ret) {\n        if (v == 0) {\n            ret = '0';\n        }\n        else {\n            while (v > 0) {\n                ret = bytes32(uint(ret) / (2 ** 8));\n                ret |= bytes32(((v % 10) + 48) * 2 ** (8 * 31));\n                v /= 10;\n            }\n        }\n        return ret;\n    }\n\n    /// @dev Converts a numeric string to it's unsigned integer representation.\n    /// @param v The string to be converted.\n    function bytesToUInt(bytes32 v) public pure returns (uint ret) {\n\n        if (v == 0x0) {\n            revert();\n        }\n\n        uint digit;\n\n        for (uint i = 0; i < 32; i++) {\n            digit = uint((uint(v) / (2 ** (8 * (31 - i)))) & 0xff);\n            if (digit == 0) {\n                break;\n            }\n            else if (digit < 48 || digit > 57) {\n                revert();\n            }\n            ret *= 10;\n            ret += (digit - 48);\n        }\n        return ret;\n    }\n\n    function stringToBytes32(string memory _src) public pure returns (bytes32 result) {\n\n      bytes memory tempEmptyStringTest = bytes(_src);\n\n      if (tempEmptyStringTest.length == 0) {\n        return 0x0;\n      }\n\n      assembly {\n        result := mload(add(_src, 32))\n      }\n    }\n}\n\n\n/// @title String Utils - String utility functions\n/// @author Piper Merriam - <pipermerriam@gmail.com>\nlibrary StringUtils {\n    /// @dev Converts an unsigned integert to its string representation.\n    /// @param v The number to be converted.\n    function uintToBytes(uint v) public pure returns (bytes32 ret) {\n      return StringLib.uintToBytes(v);\n    }\n\n    /// @dev Converts a numeric string to it's unsigned integer representation.\n    /// @param v The string to be converted.\n    function bytesToUInt(bytes32 v) public pure returns (uint ret) {\n      return StringLib.bytesToUInt(v);\n    }\n\n    function stringToBytes32(string memory _src)  public pure returns (bytes32) {\n      return StringLib.stringToBytes32(_src);\n    }\n\n    function compareStrings(string memory a, string memory b) public view returns (bool) {\n        return (keccak256(abi.encodePacked((a))) == keccak256(abi.encodePacked((b))));\n    }\n}\n",
  "sourcePath": "C:\\Users\\lam\\Documents\\GitHub\\IndexTradingApplication\\contract\\contracts\\utils\\StringUtils.sol",
  "compiler": {
    "name": "solc",
    "version": "0.8.13+commit.abaa5c0e.Emscripten.clang"
  },
  "schemaVersion": "3.4.7",
  "updatedAt": "2022-07-19T01:55:50.298Z",
  "networkType": "ethereum",
  "devdoc": {
    "author": "Piper Merriam - <pipermerriam@gmail.com>",
    "kind": "dev",
    "methods": {
      "bytesToUInt(bytes32)": {
        "details": "Converts a numeric string to it's unsigned integer representation.",
        "params": {
          "v": "The string to be converted."
        }
      },
      "uintToBytes(uint256)": {
        "details": "Converts an unsigned integert to its string representation.",
        "params": {
          "v": "The number to be converted."
        }
      }
    },
    "title": "String Utils - String utility functions",
    "version": 1
  },
  "userdoc": {
    "kind": "user",
    "methods": {},
    "version": 1
  }
}