{
  "contractName": "TradeAgent",
  "abi": [
    {
      "inputs": [
        {
          "internalType": "string",
          "name": "_tickerName",
          "type": "string"
        },
        {
          "internalType": "int256",
          "name": "_targetSharePurchase",
          "type": "int256"
        },
        {
          "internalType": "int256",
          "name": "_transactionTickerPrice",
          "type": "int256"
        },
        {
          "internalType": "uint256",
          "name": "_timestamp",
          "type": "uint256"
        }
      ],
      "name": "placeBuyStockLimitOrderMsg",
      "outputs": [
        {
          "components": [
            {
              "internalType": "string",
              "name": "tickerName",
              "type": "string"
            },
            {
              "internalType": "uint256",
              "name": "timestamp",
              "type": "uint256"
            },
            {
              "internalType": "string",
              "name": "transactionType",
              "type": "string"
            },
            {
              "internalType": "int256",
              "name": "positionAction",
              "type": "int256"
            },
            {
              "internalType": "int256",
              "name": "transactionTickerPrice",
              "type": "int256"
            },
            {
              "internalType": "int256",
              "name": "transactionAmount",
              "type": "int256"
            }
          ],
          "internalType": "struct Object.ActionMsg",
          "name": "",
          "type": "tuple"
        }
      ],
      "stateMutability": "nonpayable",
      "type": "function"
    },
    {
      "inputs": [
        {
          "internalType": "string",
          "name": "_tickerName",
          "type": "string"
        },
        {
          "internalType": "int256",
          "name": "_targetShareSell",
          "type": "int256"
        },
        {
          "internalType": "int256",
          "name": "_transactionTickerPrice",
          "type": "int256"
        },
        {
          "internalType": "uint256",
          "name": "_timestamp",
          "type": "uint256"
        }
      ],
      "name": "placeSellStockLimitOrderMsg",
      "outputs": [
        {
          "components": [
            {
              "internalType": "string",
              "name": "tickerName",
              "type": "string"
            },
            {
              "internalType": "uint256",
              "name": "timestamp",
              "type": "uint256"
            },
            {
              "internalType": "string",
              "name": "transactionType",
              "type": "string"
            },
            {
              "internalType": "int256",
              "name": "positionAction",
              "type": "int256"
            },
            {
              "internalType": "int256",
              "name": "transactionTickerPrice",
              "type": "int256"
            },
            {
              "internalType": "int256",
              "name": "transactionAmount",
              "type": "int256"
            }
          ],
          "internalType": "struct Object.ActionMsg",
          "name": "",
          "type": "tuple"
        }
      ],
      "stateMutability": "nonpayable",
      "type": "function"
    }
  ],
  "bytecode": "0x608060405234801561001057600080fd5b50610714806100206000396000f3fe608060405234801561001057600080fd5b50600436106100365760003560e01c806314ea6c191461003b5780634f8ac98d1461006b575b600080fd5b61005560048036038101906100509190610489565b61009b565b6040516100629190610642565b60405180910390f35b61008560048036038101906100809190610489565b610194565b6040516100929190610642565b60405180910390f35b6100a361028d565b600073__FixidityLib___________________________633c4308a886866040518363ffffffff1660e01b81526004016100de929190610673565b602060405180830381865af41580156100fb573d6000803e3d6000fd5b505050506040513d601f19601f8201168201806040525081019061011f91906106b1565b905060006040518060c001604052808881526020018581526020016040518060400160405280600481526020017f53656c6c0000000000000000000000000000000000000000000000000000000081525081526020018781526020018681526020018381525090508092505050949350505050565b61019c61028d565b600073__FixidityLib___________________________633c4308a886866040518363ffffffff1660e01b81526004016101d7929190610673565b602060405180830381865af41580156101f4573d6000803e3d6000fd5b505050506040513d601f19601f8201168201806040525081019061021891906106b1565b905060006040518060c001604052808881526020018581526020016040518060400160405280600381526020017f427579000000000000000000000000000000000000000000000000000000000081525081526020018781526020018681526020018381525090508092505050949350505050565b6040518060c001604052806060815260200160008152602001606081526020016000815260200160008152602001600081525090565b6000604051905090565b600080fd5b600080fd5b600080fd5b600080fd5b6000601f19601f8301169050919050565b7f4e487b7100000000000000000000000000000000000000000000000000000000600052604160045260246000fd5b61032a826102e1565b810181811067ffffffffffffffff82111715610349576103486102f2565b5b80604052505050565b600061035c6102c3565b90506103688282610321565b919050565b600067ffffffffffffffff821115610388576103876102f2565b5b610391826102e1565b9050602081019050919050565b82818337600083830152505050565b60006103c06103bb8461036d565b610352565b9050828152602081018484840111156103dc576103db6102dc565b5b6103e784828561039e565b509392505050565b600082601f830112610404576104036102d7565b5b81356104148482602086016103ad565b91505092915050565b6000819050919050565b6104308161041d565b811461043b57600080fd5b50565b60008135905061044d81610427565b92915050565b6000819050919050565b61046681610453565b811461047157600080fd5b50565b6000813590506104838161045d565b92915050565b600080600080608085870312156104a3576104a26102cd565b5b600085013567ffffffffffffffff8111156104c1576104c06102d2565b5b6104cd878288016103ef565b94505060206104de8782880161043e565b93505060406104ef8782880161043e565b925050606061050087828801610474565b91505092959194509250565b600081519050919050565b600082825260208201905092915050565b60005b8381101561054657808201518184015260208101905061052b565b83811115610555576000848401525b50505050565b60006105668261050c565b6105708185610517565b9350610580818560208601610528565b610589816102e1565b840191505092915050565b61059d81610453565b82525050565b6105ac8161041d565b82525050565b600060c08301600083015184820360008601526105cf828261055b565b91505060208301516105e46020860182610594565b50604083015184820360408601526105fc828261055b565b915050606083015161061160608601826105a3565b50608083015161062460808601826105a3565b5060a083015161063760a08601826105a3565b508091505092915050565b6000602082019050818103600083015261065c81846105b2565b905092915050565b61066d8161041d565b82525050565b60006040820190506106886000830185610664565b6106956020830184610664565b9392505050565b6000815190506106ab81610427565b92915050565b6000602082840312156106c7576106c66102cd565b5b60006106d58482850161069c565b9150509291505056fea2646970667358221220966d24d1771db893cc490f6fd7703238eeeff15a08db1576c6d8d332bfe996c664736f6c634300080d0033",
  "immutableReferences": {},
  "source": "pragma solidity ^0.8.0;\r\nimport \"../Object.sol\";\r\nimport \"../utils/FixidityLib.sol\";\r\n\r\ncontract TradeAgent is Object{\r\n    function placeBuyStockLimitOrderMsg(string memory _tickerName, int256 _targetSharePurchase, int256 _transactionTickerPrice, uint256 _timestamp) public returns (ActionMsg memory){\r\n        int256 _transactionAmount = FixidityLib.multiply(_targetSharePurchase, _transactionTickerPrice);\r\n        ActionMsg memory buy_msg = ActionMsg({tickerName:_tickerName, timestamp: _timestamp, transactionType: 'Buy', positionAction: _targetSharePurchase, transactionTickerPrice:_transactionTickerPrice, transactionAmount:_transactionAmount});\r\n\r\n        return buy_msg;\r\n    }\r\n\r\n    function placeSellStockLimitOrderMsg(string memory _tickerName, int256 _targetShareSell, int256 _transactionTickerPrice, uint256 _timestamp) public returns (ActionMsg memory){\r\n        int256 _transactionAmount = FixidityLib.multiply(_targetShareSell, _transactionTickerPrice);\r\n        ActionMsg memory sell_msg = ActionMsg({tickerName:_tickerName, timestamp: _timestamp, transactionType: 'Sell', positionAction: _targetShareSell, transactionTickerPrice:_transactionTickerPrice, transactionAmount:_transactionAmount});\r\n\r\n        return sell_msg;\r\n    }\r\n\r\n\r\n}\r\n",
  "sourcePath": "C:\\Users\\lam\\Documents\\GitHub\\IndexTradingApplication\\contract\\contracts\\agents\\TradeAgent.sol",
  "compiler": {
    "name": "solc",
    "version": "0.8.13+commit.abaa5c0e.Emscripten.clang"
  },
  "schemaVersion": "3.4.7",
  "updatedAt": "2022-06-22T10:02:08.648Z",
  "devdoc": {
    "kind": "dev",
    "methods": {},
    "version": 1
  },
  "userdoc": {
    "kind": "user",
    "methods": {},
    "version": 1
  }
}