{
  "contractName": "TradeAgent",
  "abi": [
    {
      "inputs": [
        {
          "internalType": "string",
          "name": "_tickerName",
          "type": "string"
        },
        {
          "internalType": "int256",
          "name": "_targetSharePurchase",
          "type": "int256"
        },
        {
          "internalType": "int256",
          "name": "_transactionTickerPrice",
          "type": "int256"
        },
        {
          "internalType": "uint256",
          "name": "_timestamp",
          "type": "uint256"
        }
      ],
      "name": "placeBuyStockLimitOrderMsg",
      "outputs": [
        {
          "components": [
            {
              "internalType": "string",
              "name": "tickerName",
              "type": "string"
            },
            {
              "internalType": "uint256",
              "name": "timestamp",
              "type": "uint256"
            },
            {
              "internalType": "string",
              "name": "transactionType",
              "type": "string"
            },
            {
              "internalType": "int256",
              "name": "positionAction",
              "type": "int256"
            },
            {
              "internalType": "int256",
              "name": "transactionTickerPrice",
              "type": "int256"
            },
            {
              "internalType": "int256",
              "name": "transactionAmount",
              "type": "int256"
            }
          ],
          "internalType": "struct Object.ActionMsg",
          "name": "",
          "type": "tuple"
        }
      ],
      "stateMutability": "nonpayable",
      "type": "function"
    },
    {
      "inputs": [
        {
          "internalType": "string",
          "name": "_tickerName",
          "type": "string"
        },
        {
          "internalType": "int256",
          "name": "_targetShareSell",
          "type": "int256"
        },
        {
          "internalType": "int256",
          "name": "_transactionTickerPrice",
          "type": "int256"
        },
        {
          "internalType": "uint256",
          "name": "_timestamp",
          "type": "uint256"
        }
      ],
      "name": "placeSellStockLimitOrderMsg",
      "outputs": [
        {
          "components": [
            {
              "internalType": "string",
              "name": "tickerName",
              "type": "string"
            },
            {
              "internalType": "uint256",
              "name": "timestamp",
              "type": "uint256"
            },
            {
              "internalType": "string",
              "name": "transactionType",
              "type": "string"
            },
            {
              "internalType": "int256",
              "name": "positionAction",
              "type": "int256"
            },
            {
              "internalType": "int256",
              "name": "transactionTickerPrice",
              "type": "int256"
            },
            {
              "internalType": "int256",
              "name": "transactionAmount",
              "type": "int256"
            }
          ],
          "internalType": "struct Object.ActionMsg",
          "name": "",
          "type": "tuple"
        }
      ],
      "stateMutability": "nonpayable",
      "type": "function"
    }
  ],
  "bytecode": "0x608060405234801561001057600080fd5b50610704806100206000396000f3fe608060405234801561001057600080fd5b50600436106100365760003560e01c806314ea6c191461003b5780634f8ac98d1461006b575b600080fd5b610055600480360381019061005091906103ad565b61009b565b6040516100629190610566565b60405180910390f35b610085600480360381019061008091906103ad565b610126565b6040516100929190610566565b60405180910390f35b6100a36101b1565b600083856100b191906105b7565b905060006040518060c001604052808881526020018581526020016040518060400160405280600481526020017f53656c6c0000000000000000000000000000000000000000000000000000000081525081526020018781526020018681526020018381525090508092505050949350505050565b61012e6101b1565b6000838561013c91906105b7565b905060006040518060c001604052808881526020018581526020016040518060400160405280600381526020017f427579000000000000000000000000000000000000000000000000000000000081525081526020018781526020018681526020018381525090508092505050949350505050565b6040518060c001604052806060815260200160008152602001606081526020016000815260200160008152602001600081525090565b6000604051905090565b600080fd5b600080fd5b600080fd5b600080fd5b6000601f19601f8301169050919050565b7f4e487b7100000000000000000000000000000000000000000000000000000000600052604160045260246000fd5b61024e82610205565b810181811067ffffffffffffffff8211171561026d5761026c610216565b5b80604052505050565b60006102806101e7565b905061028c8282610245565b919050565b600067ffffffffffffffff8211156102ac576102ab610216565b5b6102b582610205565b9050602081019050919050565b82818337600083830152505050565b60006102e46102df84610291565b610276565b905082815260208101848484011115610300576102ff610200565b5b61030b8482856102c2565b509392505050565b600082601f830112610328576103276101fb565b5b81356103388482602086016102d1565b91505092915050565b6000819050919050565b61035481610341565b811461035f57600080fd5b50565b6000813590506103718161034b565b92915050565b6000819050919050565b61038a81610377565b811461039557600080fd5b50565b6000813590506103a781610381565b92915050565b600080600080608085870312156103c7576103c66101f1565b5b600085013567ffffffffffffffff8111156103e5576103e46101f6565b5b6103f187828801610313565b945050602061040287828801610362565b935050604061041387828801610362565b925050606061042487828801610398565b91505092959194509250565b600081519050919050565b600082825260208201905092915050565b60005b8381101561046a57808201518184015260208101905061044f565b83811115610479576000848401525b50505050565b600061048a82610430565b610494818561043b565b93506104a481856020860161044c565b6104ad81610205565b840191505092915050565b6104c181610377565b82525050565b6104d081610341565b82525050565b600060c08301600083015184820360008601526104f3828261047f565b915050602083015161050860208601826104b8565b5060408301518482036040860152610520828261047f565b915050606083015161053560608601826104c7565b50608083015161054860808601826104c7565b5060a083015161055b60a08601826104c7565b508091505092915050565b6000602082019050818103600083015261058081846104d6565b905092915050565b7f4e487b7100000000000000000000000000000000000000000000000000000000600052601160045260246000fd5b60006105c282610341565b91506105cd83610341565b9250827f7fffffffffffffffffffffffffffffffffffffffffffffffffffffffffffffff048211600084136000841316161561060c5761060b610588565b5b817f8000000000000000000000000000000000000000000000000000000000000000058312600084126000841316161561064957610648610588565b5b827f8000000000000000000000000000000000000000000000000000000000000000058212600084136000841216161561068657610685610588565b5b827f7fffffffffffffffffffffffffffffffffffffffffffffffffffffffffffffff05821260008412600084121616156106c3576106c2610588565b5b82820290509291505056fea26469706673582212203c8133a290471daca310628da625b5d827d3b3734c85f5dfc6b697a70208642364736f6c634300080d0033",
  "immutableReferences": {},
  "source": "pragma solidity ^0.8.0;\r\nimport \"../Object.sol\";\r\nimport \"../utils/FixidityLib.sol\";\r\n\r\ncontract TradeAgent is Object{\r\n    function placeBuyStockLimitOrderMsg(string memory _tickerName, int256 _targetSharePurchase, int256 _transactionTickerPrice, uint256 _timestamp) public returns (ActionMsg memory){\r\n        int256 _transactionAmount = _targetSharePurchase* _transactionTickerPrice;\r\n        ActionMsg memory buy_msg = ActionMsg({tickerName:_tickerName, timestamp: _timestamp, transactionType: 'Buy', positionAction: _targetSharePurchase, transactionTickerPrice:_transactionTickerPrice, transactionAmount:_transactionAmount});\r\n\r\n        return buy_msg;\r\n    }\r\n\r\n    function placeSellStockLimitOrderMsg(string memory _tickerName, int256 _targetShareSell, int256 _transactionTickerPrice, uint256 _timestamp) public returns (ActionMsg memory){\r\n        int256 _transactionAmount = _targetShareSell* _transactionTickerPrice;\r\n        ActionMsg memory sell_msg = ActionMsg({tickerName:_tickerName, timestamp: _timestamp, transactionType: 'Sell', positionAction: _targetShareSell, transactionTickerPrice:_transactionTickerPrice, transactionAmount:_transactionAmount});\r\n\r\n        return sell_msg;\r\n    }\r\n\r\n\r\n}\r\n",
  "sourcePath": "C:\\Users\\lam\\Documents\\GitHub\\IndexTradingApplication\\contract\\contracts\\agents\\TradeAgent.sol",
  "compiler": {
    "name": "solc",
    "version": "0.8.13+commit.abaa5c0e.Emscripten.clang"
  },
  "schemaVersion": "3.4.7",
  "updatedAt": "2022-07-19T01:55:36.487Z",
  "devdoc": {
    "kind": "dev",
    "methods": {},
    "version": 1
  },
  "userdoc": {
    "kind": "user",
    "methods": {},
    "version": 1
  }
}