{
  "contractName": "RebalanceMarginWifMaxDrawdownControl",
  "abi": [
    {
      "inputs": [],
      "stateMutability": "nonpayable",
      "type": "constructor"
    },
    {
      "anonymous": false,
      "inputs": [
        {
          "indexed": false,
          "internalType": "string",
          "name": "actionMsgs",
          "type": "string"
        }
      ],
      "name": "LogActionMsg",
      "type": "event"
    },
    {
      "inputs": [
        {
          "internalType": "uint256",
          "name": "",
          "type": "uint256"
        }
      ],
      "name": "actionMsgs",
      "outputs": [
        {
          "internalType": "string",
          "name": "tickerName",
          "type": "string"
        },
        {
          "internalType": "uint256",
          "name": "timestamp",
          "type": "uint256"
        },
        {
          "internalType": "string",
          "name": "transactionType",
          "type": "string"
        },
        {
          "internalType": "int256",
          "name": "positionAction",
          "type": "int256"
        },
        {
          "internalType": "int256",
          "name": "transactionTickerPrice",
          "type": "int256"
        },
        {
          "internalType": "int256",
          "name": "transactionAmount",
          "type": "int256"
        }
      ],
      "stateMutability": "view",
      "type": "function",
      "constant": true
    },
    {
      "inputs": [
        {
          "internalType": "string",
          "name": "_tickerName",
          "type": "string"
        },
        {
          "internalType": "int256",
          "name": "_targetSharePurchase",
          "type": "int256"
        },
        {
          "internalType": "int256",
          "name": "_transactionTickerPrice",
          "type": "int256"
        },
        {
          "internalType": "uint256",
          "name": "_timestamp",
          "type": "uint256"
        }
      ],
      "name": "placeBuyStockLimitOrderMsg",
      "outputs": [
        {
          "components": [
            {
              "internalType": "string",
              "name": "tickerName",
              "type": "string"
            },
            {
              "internalType": "uint256",
              "name": "timestamp",
              "type": "uint256"
            },
            {
              "internalType": "string",
              "name": "transactionType",
              "type": "string"
            },
            {
              "internalType": "int256",
              "name": "positionAction",
              "type": "int256"
            },
            {
              "internalType": "int256",
              "name": "transactionTickerPrice",
              "type": "int256"
            },
            {
              "internalType": "int256",
              "name": "transactionAmount",
              "type": "int256"
            }
          ],
          "internalType": "struct Object.ActionMsg",
          "name": "",
          "type": "tuple"
        }
      ],
      "stateMutability": "nonpayable",
      "type": "function"
    },
    {
      "inputs": [
        {
          "internalType": "string",
          "name": "_tickerName",
          "type": "string"
        },
        {
          "internalType": "int256",
          "name": "_targetShareSell",
          "type": "int256"
        },
        {
          "internalType": "int256",
          "name": "_transactionTickerPrice",
          "type": "int256"
        },
        {
          "internalType": "uint256",
          "name": "_timestamp",
          "type": "uint256"
        }
      ],
      "name": "placeSellStockLimitOrderMsg",
      "outputs": [
        {
          "components": [
            {
              "internalType": "string",
              "name": "tickerName",
              "type": "string"
            },
            {
              "internalType": "uint256",
              "name": "timestamp",
              "type": "uint256"
            },
            {
              "internalType": "string",
              "name": "transactionType",
              "type": "string"
            },
            {
              "internalType": "int256",
              "name": "positionAction",
              "type": "int256"
            },
            {
              "internalType": "int256",
              "name": "transactionTickerPrice",
              "type": "int256"
            },
            {
              "internalType": "int256",
              "name": "transactionAmount",
              "type": "int256"
            }
          ],
          "internalType": "struct Object.ActionMsg",
          "name": "",
          "type": "tuple"
        }
      ],
      "stateMutability": "nonpayable",
      "type": "function"
    },
    {
      "inputs": [
        {
          "components": [
            {
              "internalType": "string",
              "name": "tickerName",
              "type": "string"
            },
            {
              "internalType": "int256",
              "name": "bidPrice",
              "type": "int256"
            },
            {
              "internalType": "int256",
              "name": "last",
              "type": "int256"
            }
          ],
          "internalType": "struct Object.RealTimeTickerData[]",
          "name": "tickerData",
          "type": "tuple[]"
        }
      ],
      "name": "test",
      "outputs": [
        {
          "components": [
            {
              "internalType": "string",
              "name": "tickerName",
              "type": "string"
            },
            {
              "internalType": "int256",
              "name": "bidPrice",
              "type": "int256"
            },
            {
              "internalType": "int256",
              "name": "last",
              "type": "int256"
            }
          ],
          "internalType": "struct Object.RealTimeTickerData[]",
          "name": "",
          "type": "tuple[]"
        }
      ],
      "stateMutability": "nonpayable",
      "type": "function"
    },
    {
      "inputs": [
        {
          "components": [
            {
              "internalType": "string",
              "name": "tickerName",
              "type": "string"
            },
            {
              "internalType": "int256",
              "name": "bidPrice",
              "type": "int256"
            },
            {
              "internalType": "int256",
              "name": "last",
              "type": "int256"
            }
          ],
          "internalType": "struct Object.RealTimeTickerData[]",
          "name": "_tickerData",
          "type": "tuple[]"
        },
        {
          "internalType": "uint256",
          "name": "_timeStamp",
          "type": "uint256"
        },
        {
          "components": [
            {
              "internalType": "string",
              "name": "AccountCode",
              "type": "string"
            },
            {
              "internalType": "string",
              "name": "Currency",
              "type": "string"
            },
            {
              "internalType": "string",
              "name": "ExchangeRate",
              "type": "string"
            },
            {
              "internalType": "int256",
              "name": "FullInitMarginReq",
              "type": "int256"
            },
            {
              "internalType": "int256",
              "name": "FullMainMarginReq",
              "type": "int256"
            },
            {
              "internalType": "int256",
              "name": "AvailableFunds",
              "type": "int256"
            },
            {
              "internalType": "int256",
              "name": "ExcessLiquidity",
              "type": "int256"
            },
            {
              "internalType": "int256",
              "name": "BuyingPower",
              "type": "int256"
            },
            {
              "internalType": "int256",
              "name": "Leverage",
              "type": "int256"
            },
            {
              "internalType": "int256",
              "name": "EquityWithLoanValue",
              "type": "int256"
            },
            {
              "internalType": "int256",
              "name": "TotalCashValue",
              "type": "int256"
            },
            {
              "internalType": "int256",
              "name": "NetDividend",
              "type": "int256"
            },
            {
              "internalType": "int256",
              "name": "NetLiquidation",
              "type": "int256"
            },
            {
              "internalType": "int256",
              "name": "UnrealizedPnL",
              "type": "int256"
            },
            {
              "internalType": "int256",
              "name": "RealizedPnL",
              "type": "int256"
            },
            {
              "internalType": "int256",
              "name": "GrossPositionValue",
              "type": "int256"
            }
          ],
          "internalType": "struct Object.PortfolioData",
          "name": "_portfolioData",
          "type": "tuple"
        },
        {
          "components": [
            {
              "internalType": "string",
              "name": "tickerName",
              "type": "string"
            },
            {
              "internalType": "int256",
              "name": "position",
              "type": "int256"
            },
            {
              "internalType": "int256",
              "name": "marketPrice",
              "type": "int256"
            },
            {
              "internalType": "int256",
              "name": "averageCost",
              "type": "int256"
            },
            {
              "internalType": "int256",
              "name": "marketValue",
              "type": "int256"
            },
            {
              "internalType": "int256",
              "name": "realizedPNL",
              "type": "int256"
            },
            {
              "internalType": "int256",
              "name": "unrealizedPNL",
              "type": "int256"
            },
            {
              "internalType": "int256",
              "name": "initMarginReq",
              "type": "int256"
            },
            {
              "internalType": "int256",
              "name": "maintMarginReq",
              "type": "int256"
            },
            {
              "internalType": "int256",
              "name": "costBasis",
              "type": "int256"
            }
          ],
          "internalType": "struct Object.PortfolioHolding[]",
          "name": "_portfolioHoldings",
          "type": "tuple[]"
        }
      ],
      "name": "run",
      "outputs": [
        {
          "components": [
            {
              "internalType": "string",
              "name": "tickerName",
              "type": "string"
            },
            {
              "internalType": "uint256",
              "name": "timestamp",
              "type": "uint256"
            },
            {
              "internalType": "string",
              "name": "transactionType",
              "type": "string"
            },
            {
              "internalType": "int256",
              "name": "positionAction",
              "type": "int256"
            },
            {
              "internalType": "int256",
              "name": "transactionTickerPrice",
              "type": "int256"
            },
            {
              "internalType": "int256",
              "name": "transactionAmount",
              "type": "int256"
            }
          ],
          "internalType": "struct Object.ActionMsg[]",
          "name": "",
          "type": "tuple[]"
        }
      ],
      "stateMutability": "nonpayable",
      "type": "function"
    }
  ],
  "bytecode": "0x60806040526000600a55606473__FixidityLib___________________________632179bb6c6040518163ffffffff1660e01b8152600401602060405180830381865af415801562000055573d6000803e3d6000fd5b505050506040513d601f19601f820116820180604052508101906200007b91906200017c565b6005620000899190620001dd565b62000095919062000333565b600b556103e873__FixidityLib___________________________632179bb6c6040518163ffffffff1660e01b8152600401602060405180830381865af4158015620000e5573d6000803e3d6000fd5b505050506040513d601f19601f820116820180604052508101906200010b91906200017c565b6005620001199190620001dd565b62000125919062000333565b600c553480156200013557600080fd5b50620003a7565b600080fd5b6000819050919050565b620001568162000141565b81146200016257600080fd5b50565b60008151905062000176816200014b565b92915050565b6000602082840312156200019557620001946200013c565b5b6000620001a58482850162000165565b91505092915050565b7f4e487b7100000000000000000000000000000000000000000000000000000000600052601160045260246000fd5b6000620001ea8262000141565b9150620001f78362000141565b9250827f7fffffffffffffffffffffffffffffffffffffffffffffffffffffffffffffff0482116000841360008413161615620002395762000238620001ae565b5b817f80000000000000000000000000000000000000000000000000000000000000000583126000841260008413161615620002795762000278620001ae565b5b827f80000000000000000000000000000000000000000000000000000000000000000582126000841360008412161615620002b957620002b8620001ae565b5b827f7fffffffffffffffffffffffffffffffffffffffffffffffffffffffffffffff0582126000841260008412161615620002f957620002f8620001ae565b5b828202905092915050565b7f4e487b7100000000000000000000000000000000000000000000000000000000600052601260045260246000fd5b6000620003408262000141565b91506200034d8362000141565b92508262000360576200035f62000304565b5b600160000383147f8000000000000000000000000000000000000000000000000000000000000000831416156200039c576200039b620001ae565b5b828205905092915050565b61449d80620003b76000396000f3fe608060405234801561001057600080fd5b50600436106100575760003560e01c806314ea6c191461005c5780631f75ba781461008c5780634358f911146100bc5780634f8ac98d146100ec578063d313b78c1461011c575b600080fd5b610076600480360381019061007191906130a1565b610151565b604051610083919061325a565b60405180910390f35b6100a660048036038101906100a191906133ec565b61024a565b6040516100b39190613547565b60405180910390f35b6100d660048036038101906100d1919061392a565b610289565b6040516100e39190613b37565b60405180910390f35b610106600480360381019061010191906130a1565b610ea8565b604051610113919061325a565b60405180910390f35b61013660048036038101906101319190613b59565b610fa1565b60405161014896959493929190613bee565b60405180910390f35b610159612c8d565b600073__FixidityLib___________________________633c4308a886866040518363ffffffff1660e01b8152600401610194929190613c6c565b602060405180830381865af41580156101b1573d6000803e3d6000fd5b505050506040513d601f19601f820116820180604052508101906101d59190613caa565b905060006040518060c001604052808881526020018581526020016040518060400160405280600481526020017f53656c6c0000000000000000000000000000000000000000000000000000000081525081526020018781526020018681526020018381525090508092505050949350505050565b60607f67c5c2cc94d3d1e6910ce8aa16593e09287f4bb83a523d858b31f916831c517b60405161027990613d23565b60405180910390a1819050919050565b60606102966001546110fd565b61029f57600080fd5b6102ab85858585611161565b6000600a54036105c757600073__FixidityLib___________________________63f598423660086000888152602001908152602001600020600a015460076000898152602001908152602001600020805490506040518363ffffffff1660e01b815260040161031c929190613c6c565b602060405180830381865af4158015610339573d6000803e3d6000fd5b505050506040513d601f19601f8201168201806040525081019061035d9190613caa565b905060005b60076000878152602001908152602001600020805490508110156105c05760006007600088815260200190815260200160002082815481106103a7576103a6613d43565b5b90600052602060002090600302016040518060600160405290816000820180546103d090613da1565b80601f01602080910402602001604051908101604052809291908181526020018280546103fc90613da1565b80156104495780601f1061041e57610100808354040283529160200191610449565b820191906000526020600020905b81548152906001019060200180831161042c57829003601f168201915b505050505081526020016001820154815260200160028201548152505090506000816000015190506000826040015190506000600373__FixidityLib___________________________63f59842368887604001516040518363ffffffff1660e01b81526004016104bb929190613c6c565b602060405180830381865af41580156104d8573d6000803e3d6000fd5b505050506040513d601f19601f820116820180604052508101906104fc9190613caa565b6105069190613e01565b905060006105168483858e610ea8565b9050600d8190806001815401808255809150506001900390600052602060002090600602016000909190919091506000820151816000019080519060200190610560929190612cc3565b50602082015181600101556040820151816002019080519060200190610587929190612cc3565b50606082015181600301556080820151816004015560a082015181600501555050505050505080806105b890613f18565b915050610362565b5050610c68565b600073__FixidityLib___________________________633c4308a8600b5460086000898152602001908152602001600020600f01546040518363ffffffff1660e01b815260040161061a929190613c6c565b602060405180830381865af4158015610637573d6000803e3d6000fd5b505050506040513d601f19601f8201168201806040525081019061065b9190613caa565b905060005b6007600087815260200190815260200160002080549050811015610ab05760006007600088815260200190815260200160002082815481106106a5576106a4613d43565b5b906000526020600020906003020160020154905060006007600089815260200190815260200160002083815481106106e0576106df613d43565b5b906000526020600020906003020160000180546106fc90613da1565b80601f016020809104026020016040519081016040528092919081815260200182805461072890613da1565b80156107755780601f1061074a57610100808354040283529160200191610775565b820191906000526020600020905b81548152906001019060200180831161075857829003601f168201915b505050505090506002600760008a815260200190815260200160002084815481106107a3576107a2613d43565b5b90600052602060002090600302016000016040516107c19190613fff565b908152602001604051809103902060009054906101000a900460ff1615610897576107ec81836116ab565b156108925760006107fe82848b6116f3565b9050600d8190806001815401808255809150506001900390600052602060002090600602016000909190919091506000820151816000019080519060200190610848929190612cc3565b5060208201518160010155604082015181600201908051906020019061086f929190612cc3565b50606082015181600301556080820151816004015560a082015181600501555050505b610a9b565b6108a1818361186e565b156108bb5760006108b382848b611899565b905050610a9a565b83600860008a8152602001908152602001600020600601541315610a9957600073__FixidityLib___________________________63b93ea812600860008c815260200190815260200160002060060154876040518363ffffffff1660e01b815260040161092a929190613c6c565b602060405180830381865af4158015610947573d6000803e3d6000fd5b505050506040513d601f19601f8201168201806040525081019061096b9190613caa565b9050600073__FixidityLib___________________________63f598423683866040518363ffffffff1660e01b81526004016109a8929190613c6c565b602060405180830381865af41580156109c5573d6000803e3d6000fd5b505050506040513d601f19601f820116820180604052508101906109e99190613caa565b90506000811315610a96576000610a028483878e610ea8565b9050600d8190806001815401808255809150506001900390600052602060002090600602016000909190919091506000820151816000019080519060200190610a4c929190612cc3565b50602082015181600101556040820151816002019080519060200190610a73929190612cc3565b50606082015181600301556080820151816004015560a082015181600501555050505b50505b5b5b50508080610aa890613f18565b915050610660565b5060005b6007600087815260200190815260200160002080549050811015610c65576000600760008881526020019081526020016000208281548110610af957610af8613d43565b5b90600052602060002090600302016002015490506000600760008981526020019081526020016000208381548110610b3457610b33613d43565b5b90600052602060002090600302016000018054610b5090613da1565b80601f0160208091040260200160405190810160405280929190818152602001828054610b7c90613da1565b8015610bc95780601f10610b9e57610100808354040283529160200191610bc9565b820191906000526020600020905b815481529060010190602001808311610bac57829003601f168201915b505050505090506002600760008a81526020019081526020016000208481548110610bf757610bf6613d43565b5b9060005260206000209060030201600001604051610c159190613fff565b908152602001604051809103902060009054906101000a900460ff1615610c4557610c408183611cd6565b610c50565b610c4f8183611f82565b5b50508080610c5d90613f18565b915050610ab4565b50505b836000819055506001600a54610c7e9190614016565b600a819055506000600d8054905067ffffffffffffffff811115610ca557610ca4612f0a565b5b604051908082528060200260200182016040528015610cde57816020015b610ccb612c8d565b815260200190600190039081610cc35790505b50905060005b600d80549050811015610e9b57600d8181548110610d0557610d04613d43565b5b90600052602060002090600602016040518060c0016040529081600082018054610d2e90613da1565b80601f0160208091040260200160405190810160405280929190818152602001828054610d5a90613da1565b8015610da75780601f10610d7c57610100808354040283529160200191610da7565b820191906000526020600020905b815481529060010190602001808311610d8a57829003601f168201915b5050505050815260200160018201548152602001600282018054610dca90613da1565b80601f0160208091040260200160405190810160405280929190818152602001828054610df690613da1565b8015610e435780601f10610e1857610100808354040283529160200191610e43565b820191906000526020600020905b815481529060010190602001808311610e2657829003601f168201915b505050505081526020016003820154815260200160048201548152602001600582015481525050828281518110610e7d57610e7c613d43565b5b60200260200101819052508080610e9390613f18565b915050610ce4565b5080915050949350505050565b610eb0612c8d565b600073__FixidityLib___________________________633c4308a886866040518363ffffffff1660e01b8152600401610eeb929190613c6c565b602060405180830381865af4158015610f08573d6000803e3d6000fd5b505050506040513d601f19601f82011682018060405250810190610f2c9190613caa565b905060006040518060c001604052808881526020018581526020016040518060400160405280600381526020017f427579000000000000000000000000000000000000000000000000000000000081525081526020018781526020018681526020018381525090508092505050949350505050565b600d8181548110610fb157600080fd5b9060005260206000209060060201600091509050806000018054610fd490613da1565b80601f016020809104026020016040519081016040528092919081815260200182805461100090613da1565b801561104d5780601f106110225761010080835404028352916020019161104d565b820191906000526020600020905b81548152906001019060200180831161103057829003601f168201915b50505050509080600101549080600201805461106890613da1565b80601f016020809104026020016040519081016040528092919081815260200182805461109490613da1565b80156110e15780601f106110b6576101008083540402835291602001916110e1565b820191906000526020600020905b8154815290600101906020018083116110c457829003601f168201915b5050505050908060030154908060040154908060050154905086565b6000806000905060008060008060008061111689612379565b80965081975082985050505061112d600054612379565b8093508194508295505050508160ff168560ff16146111525760019650886000819055505b86975050505050505050919050565b826001819055506000600a54036112845760005b845181101561128257600085828151811061119357611192613d43565b5b6020026020010151905060008160000151905060006002826040516111b8919061409d565b908152602001604051809103902060006101000a81548160ff02191690831515021790555060006003826040516111ef919061409d565b9081526020016040518091039020819055506000600482604051611213919061409d565b9081526020016040518091039020819055506000600582604051611237919061409d565b908152602001604051809103902081905550600060068260405161125b919061409d565b9081526020016040518091039020819055505050808061127a90613f18565b915050611175565b505b600060076000858152602001908152602001600020905060005b85518110156113715760008682815181106112bc576112bb613d43565b5b6020026020010151905080602001518383815481106112de576112dd613d43565b5b906000526020600020906003020160010181905550806040015183838154811061130b5761130a613d43565b5b906000526020600020906003020160020181905550806000015183838154811061133857611337613d43565b5b9060005260206000209060030201600001908051906020019061135c929190612cc3565b5050808061136990613f18565b91505061129e565b50600060096000868152602001908152602001600020905060005b835181101561159c5760008482815181106113aa576113a9613d43565b5b6020026020010151905080600001518383815481106113cc576113cb613d43565b5b90600052602060002090600a020160000190805190602001906113f0929190612cc3565b50806060015183838154811061140957611408613d43565b5b90600052602060002090600a02016003018190555080610120015183838154811061143757611436613d43565b5b90600052602060002090600a0201600901819055508060e0015183838154811061146457611463613d43565b5b90600052602060002090600a02016007018190555080610100015183838154811061149257611491613d43565b5b90600052602060002090600a02016008018190555080604001518383815481106114bf576114be613d43565b5b90600052602060002090600a02016002018190555080608001518383815481106114ec576114eb613d43565b5b90600052602060002090600a020160040181905550806020015183838154811061151957611518613d43565b5b90600052602060002090600a0201600101819055508060a0015183838154811061154657611545613d43565b5b90600052602060002090600a0201600501819055508060c0015183838154811061157357611572613d43565b5b90600052602060002090600a02016006018190555050808061159490613f18565b91505061138c565b50836008600087815260200190815260200160002060008201518160000190805190602001906115cd929190612cc3565b5060208201518160010190805190602001906115ea929190612cc3565b506040820151816002019080519060200190611607929190612cc3565b50606082015181600301556080820151816004015560a0820151816005015560c0820151816006015560e082015181600701556101008201518160080155610120820151816009015561014082015181600a015561016082015181600b015561018082015181600c01556101a082015181600d01556101c082015181600e01556101e082015181600f0155905050600d60006116a39190612d49565b505050505050565b600080606560646003866040516116c2919061409d565b9081526020016040518091039020546116db91906140e3565b6116e59190613e01565b905080831391505092915050565b6116fb612c8d565b611703612c8d565b6000600486604051611715919061409d565b9081526020016040518091039020549050600073__FixidityLib___________________________633c4308a883886040518363ffffffff1660e01b8152600401611761929190613c6c565b602060405180830381865af415801561177e573d6000803e3d6000fd5b505050506040513d601f19601f820116820180604052508101906117a29190613caa565b9050806008600087815260200190815260200160002060070154126117d4576117cd87838888610ea8565b9250611807565b8560086000878152602001908152602001600020600701546117f691906140e3565b915061180487838888610ea8565b92505b6000600288604051611819919061409d565b908152602001604051809103902060006101000a81548160ff0219169083151502179055508560058860405161184f919061409d565b9081526020016040518091039020819055508293505050509392505050565b6000600383604051611880919061409d565b9081526020016040518091039020548212905092915050565b6118a1612c8d565b6000611a028560096000868152602001908152602001600020805480602002602001604051908101604052809291908181526020016000905b828210156119f957838290600052602060002090600a02016040518061014001604052908160008201805461190e90613da1565b80601f016020809104026020016040519081016040528092919081815260200182805461193a90613da1565b80156119875780601f1061195c57610100808354040283529160200191611987565b820191906000526020600020905b81548152906001019060200180831161196a57829003601f168201915b505050505081526020016001820154815260200160028201548152602001600382015481526020016004820154815260200160058201548152602001600682015481526020016007820154815260200160088201548152602001600982015481525050815260200190600101906118da565b505050506123be565b90506000611b1e8660076000878152602001908152602001600020805480602002602001604051908101604052809291908181526020016000905b82821015611b155783829060005260206000209060030201604051806060016040529081600082018054611a7090613da1565b80601f0160208091040260200160405190810160405280929190818152602001828054611a9c90613da1565b8015611ae95780601f10611abe57610100808354040283529160200191611ae9565b820191906000526020600020905b815481529060010190602001808311611acc57829003601f168201915b505050505081526020016001820154815260200160028201548152505081526020019060010190611a3d565b505050506124b5565b9050600082602001519050600060076000878152602001908152602001600020805490506008600088815260200190815260200160002060090154611b6391906140e3565b9050600073__FixidityLib___________________________63f59842368386604001516040518363ffffffff1660e01b8152600401611ba4929190613c6c565b602060405180830381865af4158015611bc1573d6000803e3d6000fd5b505050506040513d601f19601f82011682018060405250810190611be59190613caa565b90506000600a600c83611bf89190613e01565b611c0291906140e3565b905060008185611c12919061414d565b90506000611c228c838d8d610151565b90508a60038d604051611c35919061409d565b9081526020016040518091039020819055508160048d604051611c58919061409d565b9081526020016040518091039020819055508a60068d604051611c7b919061409d565b908152602001604051809103902081905550600160028d604051611c9f919061409d565b908152602001604051809103902060006101000a81548160ff02191690831515021790555080985050505050505050509392505050565b6000606473__FixidityLib___________________________632179bb6c6040518163ffffffff1660e01b8152600401602060405180830381865af4158015611d23573d6000803e3d6000fd5b505050506040513d601f19601f82011682018060405250810190611d479190613caa565b6046611d539190613e01565b611d5d91906140e3565b905073__FixidityLib___________________________633c4308a8600385604051611d89919061409d565b908152602001604051809103902054836040518363ffffffff1660e01b8152600401611db6929190613c6c565b602060405180830381865af4158015611dd3573d6000803e3d6000fd5b505050506040513d601f19601f82011682018060405250810190611df79190613caa565b821215611f7d57600073__FixidityLib___________________________63b93ea812600686604051611e2a919061409d565b908152602001604051809103902054856040518363ffffffff1660e01b8152600401611e57929190613c6c565b602060405180830381865af4158015611e74573d6000803e3d6000fd5b505050506040513d601f19601f82011682018060405250810190611e989190613caa565b905060006064603273__FixidityLib___________________________63a5f3c23b87866040518363ffffffff1660e01b8152600401611ed9929190613c6c565b602060405180830381865af4158015611ef6573d6000803e3d6000fd5b505050506040513d601f19601f82011682018060405250810190611f1a9190613caa565b611f249190613e01565b611f2e91906140e3565b9050600385604051611f40919061409d565b908152602001604051809103902054811215611f7a5780600386604051611f67919061409d565b9081526020016040518091039020819055505b50505b505050565b6000600583604051611f94919061409d565b9081526020016040518091039020540361217d5780600583604051611fb9919061409d565b908152602001604051809103902081905550600073__FixidityLib___________________________63b93ea81273__FixidityLib___________________________632179bb6c6040518163ffffffff1660e01b8152600401602060405180830381865af4158015612030573d6000803e3d6000fd5b505050506040513d601f19601f820116820180604052508101906120549190613caa565b600c546040518363ffffffff1660e01b8152600401612074929190613c6c565b602060405180830381865af4158015612091573d6000803e3d6000fd5b505050506040513d601f19601f820116820180604052508101906120b59190613caa565b9050600073__FixidityLib___________________________633c4308a86005866040516120e3919061409d565b908152602001604051809103902054846040518363ffffffff1660e01b8152600401612110929190613c6c565b602060405180830381865af415801561212d573d6000803e3d6000fd5b505050506040513d601f19601f820116820180604052508101906121519190613caa565b905080600385604051612164919061409d565b9081526020016040518091039020819055505050612375565b60058260405161218d919061409d565b90815260200160405180910390205481131561237457806005836040516121b4919061409d565b908152602001604051809103902081905550600073__FixidityLib___________________________63b93ea81273__FixidityLib___________________________632179bb6c6040518163ffffffff1660e01b8152600401602060405180830381865af415801561222b573d6000803e3d6000fd5b505050506040513d601f19601f8201168201806040525081019061224f9190613caa565b600c546040518363ffffffff1660e01b815260040161226f929190613c6c565b602060405180830381865af415801561228c573d6000803e3d6000fd5b505050506040513d601f19601f820116820180604052508101906122b09190613caa565b9050600073__FixidityLib___________________________633c4308a86005866040516122de919061409d565b908152602001604051809103902054846040518363ffffffff1660e01b815260040161230b929190613c6c565b602060405180830381865af4158015612328573d6000803e3d6000fd5b505050506040513d601f19601f8201168201806040525081019061234c9190613caa565b90508060038560405161235f919061409d565b90815260200160405180910390208190555050505b5b5050565b60008060008084905061238b816125ac565b809550819250505061239d818561281b565b80945081925050506123ae81612ba1565b8093508192505050509193909250565b6123c6612d6d565b6123ce612d6d565b60005b83518110156124aa578381815181106123ed576123ec613d43565b5b60200260200101516000015173__StringUtils___________________________63bed34bba9091876040518363ffffffff1660e01b815260040161243392919061422b565b602060405180830381865af4158015612450573d6000803e3d6000fd5b505050506040513d601f19601f82011682018060405250810190612474919061429a565b156124975783818151811061248c5761248b613d43565b5b602002602001015191505b80806124a290613f18565b9150506123d1565b508091505092915050565b6124bd612dc0565b6124c5612dc0565b60005b83518110156125a1578381815181106124e4576124e3613d43565b5b60200260200101516000015173__StringUtils___________________________63bed34bba9091876040518363ffffffff1660e01b815260040161252a92919061422b565b602060405180830381865af4158015612547573d6000803e3d6000fd5b505050506040513d601f19601f8201168201806040525081019061256b919061429a565b1561258e5783818151811061258357612582613d43565b5b602002602001015191505b808061259990613f18565b9150506124c8565b508091505092915050565b6000806000808493506107b292506301e1338060026125cb91906142c7565b841015612614576301e13380846125e29190614321565b91506301e13380826125f491906142c7565b846125ff9190614352565b9350818361260d9190614394565b9250612814565b6301e13380600261262591906142c7565b846126309190614352565b93506107b492506334aadc808410612743576334aadc80846126529190614352565b9350601c836126619190614394565b92506402f0605980846126749190614321565b91506402f06059808261268791906142c7565b846126929190614352565b9350610190826126a291906142c7565b836126ad9190614394565b92506126b883612beb565b90508063ffffffff1684106126eb578063ffffffff16846126d99190614352565b93506001836126e89190614394565b92505b6126f483612c22565b6127425763bc17c200846127089190614321565b915063bc17c2008261271a91906142c7565b846127259190614352565b935060648261273491906142c7565b8361273f9190614394565b92505b5b6307861f80846127539190614321565b91506307861f808261276591906142c7565b846127709190614352565b935060048261277f91906142c7565b8361278a9190614394565b925061279583612beb565b90508063ffffffff1684106127c8578063ffffffff16846127b69190614352565b93506001836127c59190614394565b92505b6127d183612c22565b612813576301e13380846127e59190614321565b91506301e13380826127f791906142c7565b846128029190614352565b935081836128109190614394565b92505b5b5050915091565b600080612826612de1565b61282e612e04565b85935061283a85612c22565b156129a557604051806101a00160405280600060ff168152602001601f60ff168152602001601d60ff168152602001601f60ff168152602001601e60ff168152602001601f60ff168152602001601e60ff168152602001601f60ff168152602001601f60ff168152602001601e60ff168152602001601f60ff168152602001601e60ff168152602001601f60ff168152509150604051806101a00160405280600063ffffffff1681526020016228de8063ffffffff168152602001624f1a0063ffffffff1681526020016277f88063ffffffff168152602001629f858063ffffffff16815260200162c8640063ffffffff16815260200162eff10063ffffffff168152602001630118cf8063ffffffff168152602001630141ae0063ffffffff1681526020016301693b0063ffffffff168152602001630192198063ffffffff1681526020016301b9a68063ffffffff1681526020016301e2850063ffffffff168152509050612b07565b604051806101a00160405280600060ff168152602001601f60ff168152602001601c60ff168152602001601f60ff168152602001601e60ff168152602001601f60ff168152602001601e60ff168152602001601f60ff168152602001601f60ff168152602001601e60ff168152602001601f60ff168152602001601e60ff168152602001601f60ff168152509150604051806101a00160405280600063ffffffff1681526020016228de8063ffffffff168152602001624dc88063ffffffff1681526020016276a70063ffffffff168152602001629e340063ffffffff16815260200162c7128063ffffffff16815260200162ee9f8063ffffffff1681526020016301177e0063ffffffff1681526020016301405c8063ffffffff168152602001630167e98063ffffffff168152602001630190c80063ffffffff1681526020016301b8550063ffffffff1681526020016301e1338063ffffffff1681525090505b6000600190505b600d8160ff161015612b9757818160ff16600d8110612b3057612b2f613d43565b5b602002015163ffffffff16851015612b845780935081600182612b5391906143d9565b60ff16600d8110612b6757612b66613d43565b5b602002015163ffffffff1685612b7d9190614352565b9450612b97565b8080612b8f9061440d565b915050612b0e565b5050509250929050565b60008060008392506201518083612bb89190614321565b90506201518081612bc991906142c7565b83612bd49190614352565b9250600181612be39190614016565b915050915091565b6000612bf682612c22565b15612c1557620151806301e13380612c0e9190614016565b9050612c1d565b6301e1338090505b919050565b600080600483612c329190614436565b61ffff1614612c445760009050612c88565b600061019083612c549190614436565b61ffff161480612c7557506000606483612c6e9190614436565b61ffff1614155b15612c835760019050612c88565b600090505b919050565b6040518060c001604052806060815260200160008152602001606081526020016000815260200160008152602001600081525090565b828054612ccf90613da1565b90600052602060002090601f016020900481019282612cf15760008555612d38565b82601f10612d0a57805160ff1916838001178555612d38565b82800160010185558215612d38579182015b82811115612d37578251825591602001919060010190612d1c565b5b509050612d459190612e27565b5090565b5080546000825560060290600052602060002090810190612d6a9190612e44565b50565b604051806101400160405280606081526020016000815260200160008152602001600081526020016000815260200160008152602001600081526020016000815260200160008152602001600081525090565b60405180606001604052806060815260200160008152602001600081525090565b604051806101a00160405280600d90602082028036833780820191505090505090565b604051806101a00160405280600d90602082028036833780820191505090505090565b5b80821115612e40576000816000905550600101612e28565b5090565b5b80821115612e975760008082016000612e5e9190612e9b565b6001820160009055600282016000612e769190612e9b565b60038201600090556004820160009055600582016000905550600601612e45565b5090565b508054612ea790613da1565b6000825580601f10612eb95750612ed8565b601f016020900490600052602060002090810190612ed79190612e27565b5b50565b6000604051905090565b600080fd5b600080fd5b600080fd5b600080fd5b6000601f19601f8301169050919050565b7f4e487b7100000000000000000000000000000000000000000000000000000000600052604160045260246000fd5b612f4282612ef9565b810181811067ffffffffffffffff82111715612f6157612f60612f0a565b5b80604052505050565b6000612f74612edb565b9050612f808282612f39565b919050565b600067ffffffffffffffff821115612fa057612f9f612f0a565b5b612fa982612ef9565b9050602081019050919050565b82818337600083830152505050565b6000612fd8612fd384612f85565b612f6a565b905082815260208101848484011115612ff457612ff3612ef4565b5b612fff848285612fb6565b509392505050565b600082601f83011261301c5761301b612eef565b5b813561302c848260208601612fc5565b91505092915050565b6000819050919050565b61304881613035565b811461305357600080fd5b50565b6000813590506130658161303f565b92915050565b6000819050919050565b61307e8161306b565b811461308957600080fd5b50565b60008135905061309b81613075565b92915050565b600080600080608085870312156130bb576130ba612ee5565b5b600085013567ffffffffffffffff8111156130d9576130d8612eea565b5b6130e587828801613007565b94505060206130f687828801613056565b935050604061310787828801613056565b92505060606131188782880161308c565b91505092959194509250565b600081519050919050565b600082825260208201905092915050565b60005b8381101561315e578082015181840152602081019050613143565b8381111561316d576000848401525b50505050565b600061317e82613124565b613188818561312f565b9350613198818560208601613140565b6131a181612ef9565b840191505092915050565b6131b58161306b565b82525050565b6131c481613035565b82525050565b600060c08301600083015184820360008601526131e78282613173565b91505060208301516131fc60208601826131ac565b50604083015184820360408601526132148282613173565b915050606083015161322960608601826131bb565b50608083015161323c60808601826131bb565b5060a083015161324f60a08601826131bb565b508091505092915050565b6000602082019050818103600083015261327481846131ca565b905092915050565b600067ffffffffffffffff82111561329757613296612f0a565b5b602082029050602081019050919050565b600080fd5b600080fd5b600080fd5b6000606082840312156132cd576132cc6132ad565b5b6132d76060612f6a565b9050600082013567ffffffffffffffff8111156132f7576132f66132b2565b5b61330384828501613007565b600083015250602061331784828501613056565b602083015250604061332b84828501613056565b60408301525092915050565b600061334a6133458461327c565b612f6a565b9050808382526020820190506020840283018581111561336d5761336c6132a8565b5b835b818110156133b457803567ffffffffffffffff81111561339257613391612eef565b5b80860161339f89826132b7565b8552602085019450505060208101905061336f565b5050509392505050565b600082601f8301126133d3576133d2612eef565b5b81356133e3848260208601613337565b91505092915050565b60006020828403121561340257613401612ee5565b5b600082013567ffffffffffffffff8111156134205761341f612eea565b5b61342c848285016133be565b91505092915050565b600081519050919050565b600082825260208201905092915050565b6000819050602082019050919050565b6000606083016000830151848203600086015261347e8282613173565b915050602083015161349360208601826131bb565b5060408301516134a660408601826131bb565b508091505092915050565b60006134bd8383613461565b905092915050565b6000602082019050919050565b60006134dd82613435565b6134e78185613440565b9350836020820285016134f985613451565b8060005b85811015613535578484038952815161351685826134b1565b9450613521836134c5565b925060208a019950506001810190506134fd565b50829750879550505050505092915050565b6000602082019050818103600083015261356181846134d2565b905092915050565b600061020082840312156135805761357f6132ad565b5b61358b610200612f6a565b9050600082013567ffffffffffffffff8111156135ab576135aa6132b2565b5b6135b784828501613007565b600083015250602082013567ffffffffffffffff8111156135db576135da6132b2565b5b6135e784828501613007565b602083015250604082013567ffffffffffffffff81111561360b5761360a6132b2565b5b61361784828501613007565b604083015250606061362b84828501613056565b606083015250608061363f84828501613056565b60808301525060a061365384828501613056565b60a08301525060c061366784828501613056565b60c08301525060e061367b84828501613056565b60e08301525061010061369084828501613056565b610100830152506101206136a684828501613056565b610120830152506101406136bc84828501613056565b610140830152506101606136d284828501613056565b610160830152506101806136e884828501613056565b610180830152506101a06136fe84828501613056565b6101a0830152506101c061371484828501613056565b6101c0830152506101e061372a84828501613056565b6101e08301525092915050565b600067ffffffffffffffff82111561375257613751612f0a565b5b602082029050602081019050919050565b6000610140828403121561377a576137796132ad565b5b613785610140612f6a565b9050600082013567ffffffffffffffff8111156137a5576137a46132b2565b5b6137b184828501613007565b60008301525060206137c584828501613056565b60208301525060406137d984828501613056565b60408301525060606137ed84828501613056565b606083015250608061380184828501613056565b60808301525060a061381584828501613056565b60a08301525060c061382984828501613056565b60c08301525060e061383d84828501613056565b60e08301525061010061385284828501613056565b6101008301525061012061386884828501613056565b6101208301525092915050565b600061388861388384613737565b612f6a565b905080838252602082019050602084028301858111156138ab576138aa6132a8565b5b835b818110156138f257803567ffffffffffffffff8111156138d0576138cf612eef565b5b8086016138dd8982613763565b855260208501945050506020810190506138ad565b5050509392505050565b600082601f83011261391157613910612eef565b5b8135613921848260208601613875565b91505092915050565b6000806000806080858703121561394457613943612ee5565b5b600085013567ffffffffffffffff81111561396257613961612eea565b5b61396e878288016133be565b945050602061397f8782880161308c565b935050604085013567ffffffffffffffff8111156139a05761399f612eea565b5b6139ac87828801613569565b925050606085013567ffffffffffffffff8111156139cd576139cc612eea565b5b6139d9878288016138fc565b91505092959194509250565b600081519050919050565b600082825260208201905092915050565b6000819050602082019050919050565b600060c0830160008301518482036000860152613a2e8282613173565b9150506020830151613a4360208601826131ac565b5060408301518482036040860152613a5b8282613173565b9150506060830151613a7060608601826131bb565b506080830151613a8360808601826131bb565b5060a0830151613a9660a08601826131bb565b508091505092915050565b6000613aad8383613a11565b905092915050565b6000602082019050919050565b6000613acd826139e5565b613ad781856139f0565b935083602082028501613ae985613a01565b8060005b85811015613b255784840389528151613b068582613aa1565b9450613b1183613ab5565b925060208a01995050600181019050613aed565b50829750879550505050505092915050565b60006020820190508181036000830152613b518184613ac2565b905092915050565b600060208284031215613b6f57613b6e612ee5565b5b6000613b7d8482850161308c565b91505092915050565b600082825260208201905092915050565b6000613ba282613124565b613bac8185613b86565b9350613bbc818560208601613140565b613bc581612ef9565b840191505092915050565b613bd98161306b565b82525050565b613be881613035565b82525050565b600060c0820190508181036000830152613c088189613b97565b9050613c176020830188613bd0565b8181036040830152613c298187613b97565b9050613c386060830186613bdf565b613c456080830185613bdf565b613c5260a0830184613bdf565b979650505050505050565b613c6681613035565b82525050565b6000604082019050613c816000830185613c5d565b613c8e6020830184613c5d565b9392505050565b600081519050613ca48161303f565b92915050565b600060208284031215613cc057613cbf612ee5565b5b6000613cce84828501613c95565b91505092915050565b7f7465737400000000000000000000000000000000000000000000000000000000600082015250565b6000613d0d600483613b86565b9150613d1882613cd7565b602082019050919050565b60006020820190508181036000830152613d3c81613d00565b9050919050565b7f4e487b7100000000000000000000000000000000000000000000000000000000600052603260045260246000fd5b7f4e487b7100000000000000000000000000000000000000000000000000000000600052602260045260246000fd5b60006002820490506001821680613db957607f821691505b602082108103613dcc57613dcb613d72565b5b50919050565b7f4e487b7100000000000000000000000000000000000000000000000000000000600052601160045260246000fd5b6000613e0c82613035565b9150613e1783613035565b9250827f7fffffffffffffffffffffffffffffffffffffffffffffffffffffffffffffff0482116000841360008413161615613e5657613e55613dd2565b5b817f80000000000000000000000000000000000000000000000000000000000000000583126000841260008413161615613e9357613e92613dd2565b5b827f80000000000000000000000000000000000000000000000000000000000000000582126000841360008412161615613ed057613ecf613dd2565b5b827f7fffffffffffffffffffffffffffffffffffffffffffffffffffffffffffffff0582126000841260008412161615613f0d57613f0c613dd2565b5b828202905092915050565b6000613f238261306b565b91507fffffffffffffffffffffffffffffffffffffffffffffffffffffffffffffffff8203613f5557613f54613dd2565b5b600182019050919050565b600081905092915050565b60008190508160005260206000209050919050565b60008154613f8d81613da1565b613f978186613f60565b94506001821660008114613fb25760018114613fc357613ff6565b60ff19831686528186019350613ff6565b613fcc85613f6b565b60005b83811015613fee57815481890152600182019150602081019050613fcf565b838801955050505b50505092915050565b600061400b8284613f80565b915081905092915050565b60006140218261306b565b915061402c8361306b565b9250827fffffffffffffffffffffffffffffffffffffffffffffffffffffffffffffffff0382111561406157614060613dd2565b5b828201905092915050565b600061407782613124565b6140818185613f60565b9350614091818560208601613140565b80840191505092915050565b60006140a9828461406c565b915081905092915050565b7f4e487b7100000000000000000000000000000000000000000000000000000000600052601260045260246000fd5b60006140ee82613035565b91506140f983613035565b925082614109576141086140b4565b5b600160000383147f80000000000000000000000000000000000000000000000000000000000000008314161561414257614141613dd2565b5b828205905092915050565b600061415882613035565b915061416383613035565b9250827f80000000000000000000000000000000000000000000000000000000000000000182126000841215161561419e5761419d613dd2565b5b827f7fffffffffffffffffffffffffffffffffffffffffffffffffffffffffffffff0182136000841216156141d6576141d5613dd2565b5b828203905092915050565b600082825260208201905092915050565b60006141fd82613124565b61420781856141e1565b9350614217818560208601613140565b61422081612ef9565b840191505092915050565b6000604082019050818103600083015261424581856141f2565b9050818103602083015261425981846141f2565b90509392505050565b60008115159050919050565b61427781614262565b811461428257600080fd5b50565b6000815190506142948161426e565b92915050565b6000602082840312156142b0576142af612ee5565b5b60006142be84828501614285565b91505092915050565b60006142d28261306b565b91506142dd8361306b565b9250817fffffffffffffffffffffffffffffffffffffffffffffffffffffffffffffffff048311821515161561431657614315613dd2565b5b828202905092915050565b600061432c8261306b565b91506143378361306b565b925082614347576143466140b4565b5b828204905092915050565b600061435d8261306b565b91506143688361306b565b92508282101561437b5761437a613dd2565b5b828203905092915050565b600061ffff82169050919050565b600061439f82614386565b91506143aa83614386565b92508261ffff038211156143c1576143c0613dd2565b5b828201905092915050565b600060ff82169050919050565b60006143e4826143cc565b91506143ef836143cc565b92508282101561440257614401613dd2565b5b828203905092915050565b6000614418826143cc565b915060ff820361442b5761442a613dd2565b5b600182019050919050565b600061444182614386565b915061444c83614386565b92508261445c5761445b6140b4565b5b82820690509291505056fea264697066735822122018b82bdf1c6ada34718df8e1878da04a9ba6fcf03b8a8eff72a7b2261628aa2e64736f6c634300080d0033",
  "deployedBytecode": "0x608060405234801561001057600080fd5b50600436106100575760003560e01c806314ea6c191461005c5780631f75ba781461008c5780634358f911146100bc5780634f8ac98d146100ec578063d313b78c1461011c575b600080fd5b610076600480360381019061007191906130a1565b610151565b604051610083919061325a565b60405180910390f35b6100a660048036038101906100a191906133ec565b61024a565b6040516100b39190613547565b60405180910390f35b6100d660048036038101906100d1919061392a565b610289565b6040516100e39190613b37565b60405180910390f35b610106600480360381019061010191906130a1565b610ea8565b604051610113919061325a565b60405180910390f35b61013660048036038101906101319190613b59565b610fa1565b60405161014896959493929190613bee565b60405180910390f35b610159612c8d565b600073__FixidityLib___________________________633c4308a886866040518363ffffffff1660e01b8152600401610194929190613c6c565b602060405180830381865af41580156101b1573d6000803e3d6000fd5b505050506040513d601f19601f820116820180604052508101906101d59190613caa565b905060006040518060c001604052808881526020018581526020016040518060400160405280600481526020017f53656c6c0000000000000000000000000000000000000000000000000000000081525081526020018781526020018681526020018381525090508092505050949350505050565b60607f67c5c2cc94d3d1e6910ce8aa16593e09287f4bb83a523d858b31f916831c517b60405161027990613d23565b60405180910390a1819050919050565b60606102966001546110fd565b61029f57600080fd5b6102ab85858585611161565b6000600a54036105c757600073__FixidityLib___________________________63f598423660086000888152602001908152602001600020600a015460076000898152602001908152602001600020805490506040518363ffffffff1660e01b815260040161031c929190613c6c565b602060405180830381865af4158015610339573d6000803e3d6000fd5b505050506040513d601f19601f8201168201806040525081019061035d9190613caa565b905060005b60076000878152602001908152602001600020805490508110156105c05760006007600088815260200190815260200160002082815481106103a7576103a6613d43565b5b90600052602060002090600302016040518060600160405290816000820180546103d090613da1565b80601f01602080910402602001604051908101604052809291908181526020018280546103fc90613da1565b80156104495780601f1061041e57610100808354040283529160200191610449565b820191906000526020600020905b81548152906001019060200180831161042c57829003601f168201915b505050505081526020016001820154815260200160028201548152505090506000816000015190506000826040015190506000600373__FixidityLib___________________________63f59842368887604001516040518363ffffffff1660e01b81526004016104bb929190613c6c565b602060405180830381865af41580156104d8573d6000803e3d6000fd5b505050506040513d601f19601f820116820180604052508101906104fc9190613caa565b6105069190613e01565b905060006105168483858e610ea8565b9050600d8190806001815401808255809150506001900390600052602060002090600602016000909190919091506000820151816000019080519060200190610560929190612cc3565b50602082015181600101556040820151816002019080519060200190610587929190612cc3565b50606082015181600301556080820151816004015560a082015181600501555050505050505080806105b890613f18565b915050610362565b5050610c68565b600073__FixidityLib___________________________633c4308a8600b5460086000898152602001908152602001600020600f01546040518363ffffffff1660e01b815260040161061a929190613c6c565b602060405180830381865af4158015610637573d6000803e3d6000fd5b505050506040513d601f19601f8201168201806040525081019061065b9190613caa565b905060005b6007600087815260200190815260200160002080549050811015610ab05760006007600088815260200190815260200160002082815481106106a5576106a4613d43565b5b906000526020600020906003020160020154905060006007600089815260200190815260200160002083815481106106e0576106df613d43565b5b906000526020600020906003020160000180546106fc90613da1565b80601f016020809104026020016040519081016040528092919081815260200182805461072890613da1565b80156107755780601f1061074a57610100808354040283529160200191610775565b820191906000526020600020905b81548152906001019060200180831161075857829003601f168201915b505050505090506002600760008a815260200190815260200160002084815481106107a3576107a2613d43565b5b90600052602060002090600302016000016040516107c19190613fff565b908152602001604051809103902060009054906101000a900460ff1615610897576107ec81836116ab565b156108925760006107fe82848b6116f3565b9050600d8190806001815401808255809150506001900390600052602060002090600602016000909190919091506000820151816000019080519060200190610848929190612cc3565b5060208201518160010155604082015181600201908051906020019061086f929190612cc3565b50606082015181600301556080820151816004015560a082015181600501555050505b610a9b565b6108a1818361186e565b156108bb5760006108b382848b611899565b905050610a9a565b83600860008a8152602001908152602001600020600601541315610a9957600073__FixidityLib___________________________63b93ea812600860008c815260200190815260200160002060060154876040518363ffffffff1660e01b815260040161092a929190613c6c565b602060405180830381865af4158015610947573d6000803e3d6000fd5b505050506040513d601f19601f8201168201806040525081019061096b9190613caa565b9050600073__FixidityLib___________________________63f598423683866040518363ffffffff1660e01b81526004016109a8929190613c6c565b602060405180830381865af41580156109c5573d6000803e3d6000fd5b505050506040513d601f19601f820116820180604052508101906109e99190613caa565b90506000811315610a96576000610a028483878e610ea8565b9050600d8190806001815401808255809150506001900390600052602060002090600602016000909190919091506000820151816000019080519060200190610a4c929190612cc3565b50602082015181600101556040820151816002019080519060200190610a73929190612cc3565b50606082015181600301556080820151816004015560a082015181600501555050505b50505b5b5b50508080610aa890613f18565b915050610660565b5060005b6007600087815260200190815260200160002080549050811015610c65576000600760008881526020019081526020016000208281548110610af957610af8613d43565b5b90600052602060002090600302016002015490506000600760008981526020019081526020016000208381548110610b3457610b33613d43565b5b90600052602060002090600302016000018054610b5090613da1565b80601f0160208091040260200160405190810160405280929190818152602001828054610b7c90613da1565b8015610bc95780601f10610b9e57610100808354040283529160200191610bc9565b820191906000526020600020905b815481529060010190602001808311610bac57829003601f168201915b505050505090506002600760008a81526020019081526020016000208481548110610bf757610bf6613d43565b5b9060005260206000209060030201600001604051610c159190613fff565b908152602001604051809103902060009054906101000a900460ff1615610c4557610c408183611cd6565b610c50565b610c4f8183611f82565b5b50508080610c5d90613f18565b915050610ab4565b50505b836000819055506001600a54610c7e9190614016565b600a819055506000600d8054905067ffffffffffffffff811115610ca557610ca4612f0a565b5b604051908082528060200260200182016040528015610cde57816020015b610ccb612c8d565b815260200190600190039081610cc35790505b50905060005b600d80549050811015610e9b57600d8181548110610d0557610d04613d43565b5b90600052602060002090600602016040518060c0016040529081600082018054610d2e90613da1565b80601f0160208091040260200160405190810160405280929190818152602001828054610d5a90613da1565b8015610da75780601f10610d7c57610100808354040283529160200191610da7565b820191906000526020600020905b815481529060010190602001808311610d8a57829003601f168201915b5050505050815260200160018201548152602001600282018054610dca90613da1565b80601f0160208091040260200160405190810160405280929190818152602001828054610df690613da1565b8015610e435780601f10610e1857610100808354040283529160200191610e43565b820191906000526020600020905b815481529060010190602001808311610e2657829003601f168201915b505050505081526020016003820154815260200160048201548152602001600582015481525050828281518110610e7d57610e7c613d43565b5b60200260200101819052508080610e9390613f18565b915050610ce4565b5080915050949350505050565b610eb0612c8d565b600073__FixidityLib___________________________633c4308a886866040518363ffffffff1660e01b8152600401610eeb929190613c6c565b602060405180830381865af4158015610f08573d6000803e3d6000fd5b505050506040513d601f19601f82011682018060405250810190610f2c9190613caa565b905060006040518060c001604052808881526020018581526020016040518060400160405280600381526020017f427579000000000000000000000000000000000000000000000000000000000081525081526020018781526020018681526020018381525090508092505050949350505050565b600d8181548110610fb157600080fd5b9060005260206000209060060201600091509050806000018054610fd490613da1565b80601f016020809104026020016040519081016040528092919081815260200182805461100090613da1565b801561104d5780601f106110225761010080835404028352916020019161104d565b820191906000526020600020905b81548152906001019060200180831161103057829003601f168201915b50505050509080600101549080600201805461106890613da1565b80601f016020809104026020016040519081016040528092919081815260200182805461109490613da1565b80156110e15780601f106110b6576101008083540402835291602001916110e1565b820191906000526020600020905b8154815290600101906020018083116110c457829003601f168201915b5050505050908060030154908060040154908060050154905086565b6000806000905060008060008060008061111689612379565b80965081975082985050505061112d600054612379565b8093508194508295505050508160ff168560ff16146111525760019650886000819055505b86975050505050505050919050565b826001819055506000600a54036112845760005b845181101561128257600085828151811061119357611192613d43565b5b6020026020010151905060008160000151905060006002826040516111b8919061409d565b908152602001604051809103902060006101000a81548160ff02191690831515021790555060006003826040516111ef919061409d565b9081526020016040518091039020819055506000600482604051611213919061409d565b9081526020016040518091039020819055506000600582604051611237919061409d565b908152602001604051809103902081905550600060068260405161125b919061409d565b9081526020016040518091039020819055505050808061127a90613f18565b915050611175565b505b600060076000858152602001908152602001600020905060005b85518110156113715760008682815181106112bc576112bb613d43565b5b6020026020010151905080602001518383815481106112de576112dd613d43565b5b906000526020600020906003020160010181905550806040015183838154811061130b5761130a613d43565b5b906000526020600020906003020160020181905550806000015183838154811061133857611337613d43565b5b9060005260206000209060030201600001908051906020019061135c929190612cc3565b5050808061136990613f18565b91505061129e565b50600060096000868152602001908152602001600020905060005b835181101561159c5760008482815181106113aa576113a9613d43565b5b6020026020010151905080600001518383815481106113cc576113cb613d43565b5b90600052602060002090600a020160000190805190602001906113f0929190612cc3565b50806060015183838154811061140957611408613d43565b5b90600052602060002090600a02016003018190555080610120015183838154811061143757611436613d43565b5b90600052602060002090600a0201600901819055508060e0015183838154811061146457611463613d43565b5b90600052602060002090600a02016007018190555080610100015183838154811061149257611491613d43565b5b90600052602060002090600a02016008018190555080604001518383815481106114bf576114be613d43565b5b90600052602060002090600a02016002018190555080608001518383815481106114ec576114eb613d43565b5b90600052602060002090600a020160040181905550806020015183838154811061151957611518613d43565b5b90600052602060002090600a0201600101819055508060a0015183838154811061154657611545613d43565b5b90600052602060002090600a0201600501819055508060c0015183838154811061157357611572613d43565b5b90600052602060002090600a02016006018190555050808061159490613f18565b91505061138c565b50836008600087815260200190815260200160002060008201518160000190805190602001906115cd929190612cc3565b5060208201518160010190805190602001906115ea929190612cc3565b506040820151816002019080519060200190611607929190612cc3565b50606082015181600301556080820151816004015560a0820151816005015560c0820151816006015560e082015181600701556101008201518160080155610120820151816009015561014082015181600a015561016082015181600b015561018082015181600c01556101a082015181600d01556101c082015181600e01556101e082015181600f0155905050600d60006116a39190612d49565b505050505050565b600080606560646003866040516116c2919061409d565b9081526020016040518091039020546116db91906140e3565b6116e59190613e01565b905080831391505092915050565b6116fb612c8d565b611703612c8d565b6000600486604051611715919061409d565b9081526020016040518091039020549050600073__FixidityLib___________________________633c4308a883886040518363ffffffff1660e01b8152600401611761929190613c6c565b602060405180830381865af415801561177e573d6000803e3d6000fd5b505050506040513d601f19601f820116820180604052508101906117a29190613caa565b9050806008600087815260200190815260200160002060070154126117d4576117cd87838888610ea8565b9250611807565b8560086000878152602001908152602001600020600701546117f691906140e3565b915061180487838888610ea8565b92505b6000600288604051611819919061409d565b908152602001604051809103902060006101000a81548160ff0219169083151502179055508560058860405161184f919061409d565b9081526020016040518091039020819055508293505050509392505050565b6000600383604051611880919061409d565b9081526020016040518091039020548212905092915050565b6118a1612c8d565b6000611a028560096000868152602001908152602001600020805480602002602001604051908101604052809291908181526020016000905b828210156119f957838290600052602060002090600a02016040518061014001604052908160008201805461190e90613da1565b80601f016020809104026020016040519081016040528092919081815260200182805461193a90613da1565b80156119875780601f1061195c57610100808354040283529160200191611987565b820191906000526020600020905b81548152906001019060200180831161196a57829003601f168201915b505050505081526020016001820154815260200160028201548152602001600382015481526020016004820154815260200160058201548152602001600682015481526020016007820154815260200160088201548152602001600982015481525050815260200190600101906118da565b505050506123be565b90506000611b1e8660076000878152602001908152602001600020805480602002602001604051908101604052809291908181526020016000905b82821015611b155783829060005260206000209060030201604051806060016040529081600082018054611a7090613da1565b80601f0160208091040260200160405190810160405280929190818152602001828054611a9c90613da1565b8015611ae95780601f10611abe57610100808354040283529160200191611ae9565b820191906000526020600020905b815481529060010190602001808311611acc57829003601f168201915b505050505081526020016001820154815260200160028201548152505081526020019060010190611a3d565b505050506124b5565b9050600082602001519050600060076000878152602001908152602001600020805490506008600088815260200190815260200160002060090154611b6391906140e3565b9050600073__FixidityLib___________________________63f59842368386604001516040518363ffffffff1660e01b8152600401611ba4929190613c6c565b602060405180830381865af4158015611bc1573d6000803e3d6000fd5b505050506040513d601f19601f82011682018060405250810190611be59190613caa565b90506000600a600c83611bf89190613e01565b611c0291906140e3565b905060008185611c12919061414d565b90506000611c228c838d8d610151565b90508a60038d604051611c35919061409d565b9081526020016040518091039020819055508160048d604051611c58919061409d565b9081526020016040518091039020819055508a60068d604051611c7b919061409d565b908152602001604051809103902081905550600160028d604051611c9f919061409d565b908152602001604051809103902060006101000a81548160ff02191690831515021790555080985050505050505050509392505050565b6000606473__FixidityLib___________________________632179bb6c6040518163ffffffff1660e01b8152600401602060405180830381865af4158015611d23573d6000803e3d6000fd5b505050506040513d601f19601f82011682018060405250810190611d479190613caa565b6046611d539190613e01565b611d5d91906140e3565b905073__FixidityLib___________________________633c4308a8600385604051611d89919061409d565b908152602001604051809103902054836040518363ffffffff1660e01b8152600401611db6929190613c6c565b602060405180830381865af4158015611dd3573d6000803e3d6000fd5b505050506040513d601f19601f82011682018060405250810190611df79190613caa565b821215611f7d57600073__FixidityLib___________________________63b93ea812600686604051611e2a919061409d565b908152602001604051809103902054856040518363ffffffff1660e01b8152600401611e57929190613c6c565b602060405180830381865af4158015611e74573d6000803e3d6000fd5b505050506040513d601f19601f82011682018060405250810190611e989190613caa565b905060006064603273__FixidityLib___________________________63a5f3c23b87866040518363ffffffff1660e01b8152600401611ed9929190613c6c565b602060405180830381865af4158015611ef6573d6000803e3d6000fd5b505050506040513d601f19601f82011682018060405250810190611f1a9190613caa565b611f249190613e01565b611f2e91906140e3565b9050600385604051611f40919061409d565b908152602001604051809103902054811215611f7a5780600386604051611f67919061409d565b9081526020016040518091039020819055505b50505b505050565b6000600583604051611f94919061409d565b9081526020016040518091039020540361217d5780600583604051611fb9919061409d565b908152602001604051809103902081905550600073__FixidityLib___________________________63b93ea81273__FixidityLib___________________________632179bb6c6040518163ffffffff1660e01b8152600401602060405180830381865af4158015612030573d6000803e3d6000fd5b505050506040513d601f19601f820116820180604052508101906120549190613caa565b600c546040518363ffffffff1660e01b8152600401612074929190613c6c565b602060405180830381865af4158015612091573d6000803e3d6000fd5b505050506040513d601f19601f820116820180604052508101906120b59190613caa565b9050600073__FixidityLib___________________________633c4308a86005866040516120e3919061409d565b908152602001604051809103902054846040518363ffffffff1660e01b8152600401612110929190613c6c565b602060405180830381865af415801561212d573d6000803e3d6000fd5b505050506040513d601f19601f820116820180604052508101906121519190613caa565b905080600385604051612164919061409d565b9081526020016040518091039020819055505050612375565b60058260405161218d919061409d565b90815260200160405180910390205481131561237457806005836040516121b4919061409d565b908152602001604051809103902081905550600073__FixidityLib___________________________63b93ea81273__FixidityLib___________________________632179bb6c6040518163ffffffff1660e01b8152600401602060405180830381865af415801561222b573d6000803e3d6000fd5b505050506040513d601f19601f8201168201806040525081019061224f9190613caa565b600c546040518363ffffffff1660e01b815260040161226f929190613c6c565b602060405180830381865af415801561228c573d6000803e3d6000fd5b505050506040513d601f19601f820116820180604052508101906122b09190613caa565b9050600073__FixidityLib___________________________633c4308a86005866040516122de919061409d565b908152602001604051809103902054846040518363ffffffff1660e01b815260040161230b929190613c6c565b602060405180830381865af4158015612328573d6000803e3d6000fd5b505050506040513d601f19601f8201168201806040525081019061234c9190613caa565b90508060038560405161235f919061409d565b90815260200160405180910390208190555050505b5b5050565b60008060008084905061238b816125ac565b809550819250505061239d818561281b565b80945081925050506123ae81612ba1565b8093508192505050509193909250565b6123c6612d6d565b6123ce612d6d565b60005b83518110156124aa578381815181106123ed576123ec613d43565b5b60200260200101516000015173__StringUtils___________________________63bed34bba9091876040518363ffffffff1660e01b815260040161243392919061422b565b602060405180830381865af4158015612450573d6000803e3d6000fd5b505050506040513d601f19601f82011682018060405250810190612474919061429a565b156124975783818151811061248c5761248b613d43565b5b602002602001015191505b80806124a290613f18565b9150506123d1565b508091505092915050565b6124bd612dc0565b6124c5612dc0565b60005b83518110156125a1578381815181106124e4576124e3613d43565b5b60200260200101516000015173__StringUtils___________________________63bed34bba9091876040518363ffffffff1660e01b815260040161252a92919061422b565b602060405180830381865af4158015612547573d6000803e3d6000fd5b505050506040513d601f19601f8201168201806040525081019061256b919061429a565b1561258e5783818151811061258357612582613d43565b5b602002602001015191505b808061259990613f18565b9150506124c8565b508091505092915050565b6000806000808493506107b292506301e1338060026125cb91906142c7565b841015612614576301e13380846125e29190614321565b91506301e13380826125f491906142c7565b846125ff9190614352565b9350818361260d9190614394565b9250612814565b6301e13380600261262591906142c7565b846126309190614352565b93506107b492506334aadc808410612743576334aadc80846126529190614352565b9350601c836126619190614394565b92506402f0605980846126749190614321565b91506402f06059808261268791906142c7565b846126929190614352565b9350610190826126a291906142c7565b836126ad9190614394565b92506126b883612beb565b90508063ffffffff1684106126eb578063ffffffff16846126d99190614352565b93506001836126e89190614394565b92505b6126f483612c22565b6127425763bc17c200846127089190614321565b915063bc17c2008261271a91906142c7565b846127259190614352565b935060648261273491906142c7565b8361273f9190614394565b92505b5b6307861f80846127539190614321565b91506307861f808261276591906142c7565b846127709190614352565b935060048261277f91906142c7565b8361278a9190614394565b925061279583612beb565b90508063ffffffff1684106127c8578063ffffffff16846127b69190614352565b93506001836127c59190614394565b92505b6127d183612c22565b612813576301e13380846127e59190614321565b91506301e13380826127f791906142c7565b846128029190614352565b935081836128109190614394565b92505b5b5050915091565b600080612826612de1565b61282e612e04565b85935061283a85612c22565b156129a557604051806101a00160405280600060ff168152602001601f60ff168152602001601d60ff168152602001601f60ff168152602001601e60ff168152602001601f60ff168152602001601e60ff168152602001601f60ff168152602001601f60ff168152602001601e60ff168152602001601f60ff168152602001601e60ff168152602001601f60ff168152509150604051806101a00160405280600063ffffffff1681526020016228de8063ffffffff168152602001624f1a0063ffffffff1681526020016277f88063ffffffff168152602001629f858063ffffffff16815260200162c8640063ffffffff16815260200162eff10063ffffffff168152602001630118cf8063ffffffff168152602001630141ae0063ffffffff1681526020016301693b0063ffffffff168152602001630192198063ffffffff1681526020016301b9a68063ffffffff1681526020016301e2850063ffffffff168152509050612b07565b604051806101a00160405280600060ff168152602001601f60ff168152602001601c60ff168152602001601f60ff168152602001601e60ff168152602001601f60ff168152602001601e60ff168152602001601f60ff168152602001601f60ff168152602001601e60ff168152602001601f60ff168152602001601e60ff168152602001601f60ff168152509150604051806101a00160405280600063ffffffff1681526020016228de8063ffffffff168152602001624dc88063ffffffff1681526020016276a70063ffffffff168152602001629e340063ffffffff16815260200162c7128063ffffffff16815260200162ee9f8063ffffffff1681526020016301177e0063ffffffff1681526020016301405c8063ffffffff168152602001630167e98063ffffffff168152602001630190c80063ffffffff1681526020016301b8550063ffffffff1681526020016301e1338063ffffffff1681525090505b6000600190505b600d8160ff161015612b9757818160ff16600d8110612b3057612b2f613d43565b5b602002015163ffffffff16851015612b845780935081600182612b5391906143d9565b60ff16600d8110612b6757612b66613d43565b5b602002015163ffffffff1685612b7d9190614352565b9450612b97565b8080612b8f9061440d565b915050612b0e565b5050509250929050565b60008060008392506201518083612bb89190614321565b90506201518081612bc991906142c7565b83612bd49190614352565b9250600181612be39190614016565b915050915091565b6000612bf682612c22565b15612c1557620151806301e13380612c0e9190614016565b9050612c1d565b6301e1338090505b919050565b600080600483612c329190614436565b61ffff1614612c445760009050612c88565b600061019083612c549190614436565b61ffff161480612c7557506000606483612c6e9190614436565b61ffff1614155b15612c835760019050612c88565b600090505b919050565b6040518060c001604052806060815260200160008152602001606081526020016000815260200160008152602001600081525090565b828054612ccf90613da1565b90600052602060002090601f016020900481019282612cf15760008555612d38565b82601f10612d0a57805160ff1916838001178555612d38565b82800160010185558215612d38579182015b82811115612d37578251825591602001919060010190612d1c565b5b509050612d459190612e27565b5090565b5080546000825560060290600052602060002090810190612d6a9190612e44565b50565b604051806101400160405280606081526020016000815260200160008152602001600081526020016000815260200160008152602001600081526020016000815260200160008152602001600081525090565b60405180606001604052806060815260200160008152602001600081525090565b604051806101a00160405280600d90602082028036833780820191505090505090565b604051806101a00160405280600d90602082028036833780820191505090505090565b5b80821115612e40576000816000905550600101612e28565b5090565b5b80821115612e975760008082016000612e5e9190612e9b565b6001820160009055600282016000612e769190612e9b565b60038201600090556004820160009055600582016000905550600601612e45565b5090565b508054612ea790613da1565b6000825580601f10612eb95750612ed8565b601f016020900490600052602060002090810190612ed79190612e27565b5b50565b6000604051905090565b600080fd5b600080fd5b600080fd5b600080fd5b6000601f19601f8301169050919050565b7f4e487b7100000000000000000000000000000000000000000000000000000000600052604160045260246000fd5b612f4282612ef9565b810181811067ffffffffffffffff82111715612f6157612f60612f0a565b5b80604052505050565b6000612f74612edb565b9050612f808282612f39565b919050565b600067ffffffffffffffff821115612fa057612f9f612f0a565b5b612fa982612ef9565b9050602081019050919050565b82818337600083830152505050565b6000612fd8612fd384612f85565b612f6a565b905082815260208101848484011115612ff457612ff3612ef4565b5b612fff848285612fb6565b509392505050565b600082601f83011261301c5761301b612eef565b5b813561302c848260208601612fc5565b91505092915050565b6000819050919050565b61304881613035565b811461305357600080fd5b50565b6000813590506130658161303f565b92915050565b6000819050919050565b61307e8161306b565b811461308957600080fd5b50565b60008135905061309b81613075565b92915050565b600080600080608085870312156130bb576130ba612ee5565b5b600085013567ffffffffffffffff8111156130d9576130d8612eea565b5b6130e587828801613007565b94505060206130f687828801613056565b935050604061310787828801613056565b92505060606131188782880161308c565b91505092959194509250565b600081519050919050565b600082825260208201905092915050565b60005b8381101561315e578082015181840152602081019050613143565b8381111561316d576000848401525b50505050565b600061317e82613124565b613188818561312f565b9350613198818560208601613140565b6131a181612ef9565b840191505092915050565b6131b58161306b565b82525050565b6131c481613035565b82525050565b600060c08301600083015184820360008601526131e78282613173565b91505060208301516131fc60208601826131ac565b50604083015184820360408601526132148282613173565b915050606083015161322960608601826131bb565b50608083015161323c60808601826131bb565b5060a083015161324f60a08601826131bb565b508091505092915050565b6000602082019050818103600083015261327481846131ca565b905092915050565b600067ffffffffffffffff82111561329757613296612f0a565b5b602082029050602081019050919050565b600080fd5b600080fd5b600080fd5b6000606082840312156132cd576132cc6132ad565b5b6132d76060612f6a565b9050600082013567ffffffffffffffff8111156132f7576132f66132b2565b5b61330384828501613007565b600083015250602061331784828501613056565b602083015250604061332b84828501613056565b60408301525092915050565b600061334a6133458461327c565b612f6a565b9050808382526020820190506020840283018581111561336d5761336c6132a8565b5b835b818110156133b457803567ffffffffffffffff81111561339257613391612eef565b5b80860161339f89826132b7565b8552602085019450505060208101905061336f565b5050509392505050565b600082601f8301126133d3576133d2612eef565b5b81356133e3848260208601613337565b91505092915050565b60006020828403121561340257613401612ee5565b5b600082013567ffffffffffffffff8111156134205761341f612eea565b5b61342c848285016133be565b91505092915050565b600081519050919050565b600082825260208201905092915050565b6000819050602082019050919050565b6000606083016000830151848203600086015261347e8282613173565b915050602083015161349360208601826131bb565b5060408301516134a660408601826131bb565b508091505092915050565b60006134bd8383613461565b905092915050565b6000602082019050919050565b60006134dd82613435565b6134e78185613440565b9350836020820285016134f985613451565b8060005b85811015613535578484038952815161351685826134b1565b9450613521836134c5565b925060208a019950506001810190506134fd565b50829750879550505050505092915050565b6000602082019050818103600083015261356181846134d2565b905092915050565b600061020082840312156135805761357f6132ad565b5b61358b610200612f6a565b9050600082013567ffffffffffffffff8111156135ab576135aa6132b2565b5b6135b784828501613007565b600083015250602082013567ffffffffffffffff8111156135db576135da6132b2565b5b6135e784828501613007565b602083015250604082013567ffffffffffffffff81111561360b5761360a6132b2565b5b61361784828501613007565b604083015250606061362b84828501613056565b606083015250608061363f84828501613056565b60808301525060a061365384828501613056565b60a08301525060c061366784828501613056565b60c08301525060e061367b84828501613056565b60e08301525061010061369084828501613056565b610100830152506101206136a684828501613056565b610120830152506101406136bc84828501613056565b610140830152506101606136d284828501613056565b610160830152506101806136e884828501613056565b610180830152506101a06136fe84828501613056565b6101a0830152506101c061371484828501613056565b6101c0830152506101e061372a84828501613056565b6101e08301525092915050565b600067ffffffffffffffff82111561375257613751612f0a565b5b602082029050602081019050919050565b6000610140828403121561377a576137796132ad565b5b613785610140612f6a565b9050600082013567ffffffffffffffff8111156137a5576137a46132b2565b5b6137b184828501613007565b60008301525060206137c584828501613056565b60208301525060406137d984828501613056565b60408301525060606137ed84828501613056565b606083015250608061380184828501613056565b60808301525060a061381584828501613056565b60a08301525060c061382984828501613056565b60c08301525060e061383d84828501613056565b60e08301525061010061385284828501613056565b6101008301525061012061386884828501613056565b6101208301525092915050565b600061388861388384613737565b612f6a565b905080838252602082019050602084028301858111156138ab576138aa6132a8565b5b835b818110156138f257803567ffffffffffffffff8111156138d0576138cf612eef565b5b8086016138dd8982613763565b855260208501945050506020810190506138ad565b5050509392505050565b600082601f83011261391157613910612eef565b5b8135613921848260208601613875565b91505092915050565b6000806000806080858703121561394457613943612ee5565b5b600085013567ffffffffffffffff81111561396257613961612eea565b5b61396e878288016133be565b945050602061397f8782880161308c565b935050604085013567ffffffffffffffff8111156139a05761399f612eea565b5b6139ac87828801613569565b925050606085013567ffffffffffffffff8111156139cd576139cc612eea565b5b6139d9878288016138fc565b91505092959194509250565b600081519050919050565b600082825260208201905092915050565b6000819050602082019050919050565b600060c0830160008301518482036000860152613a2e8282613173565b9150506020830151613a4360208601826131ac565b5060408301518482036040860152613a5b8282613173565b9150506060830151613a7060608601826131bb565b506080830151613a8360808601826131bb565b5060a0830151613a9660a08601826131bb565b508091505092915050565b6000613aad8383613a11565b905092915050565b6000602082019050919050565b6000613acd826139e5565b613ad781856139f0565b935083602082028501613ae985613a01565b8060005b85811015613b255784840389528151613b068582613aa1565b9450613b1183613ab5565b925060208a01995050600181019050613aed565b50829750879550505050505092915050565b60006020820190508181036000830152613b518184613ac2565b905092915050565b600060208284031215613b6f57613b6e612ee5565b5b6000613b7d8482850161308c565b91505092915050565b600082825260208201905092915050565b6000613ba282613124565b613bac8185613b86565b9350613bbc818560208601613140565b613bc581612ef9565b840191505092915050565b613bd98161306b565b82525050565b613be881613035565b82525050565b600060c0820190508181036000830152613c088189613b97565b9050613c176020830188613bd0565b8181036040830152613c298187613b97565b9050613c386060830186613bdf565b613c456080830185613bdf565b613c5260a0830184613bdf565b979650505050505050565b613c6681613035565b82525050565b6000604082019050613c816000830185613c5d565b613c8e6020830184613c5d565b9392505050565b600081519050613ca48161303f565b92915050565b600060208284031215613cc057613cbf612ee5565b5b6000613cce84828501613c95565b91505092915050565b7f7465737400000000000000000000000000000000000000000000000000000000600082015250565b6000613d0d600483613b86565b9150613d1882613cd7565b602082019050919050565b60006020820190508181036000830152613d3c81613d00565b9050919050565b7f4e487b7100000000000000000000000000000000000000000000000000000000600052603260045260246000fd5b7f4e487b7100000000000000000000000000000000000000000000000000000000600052602260045260246000fd5b60006002820490506001821680613db957607f821691505b602082108103613dcc57613dcb613d72565b5b50919050565b7f4e487b7100000000000000000000000000000000000000000000000000000000600052601160045260246000fd5b6000613e0c82613035565b9150613e1783613035565b9250827f7fffffffffffffffffffffffffffffffffffffffffffffffffffffffffffffff0482116000841360008413161615613e5657613e55613dd2565b5b817f80000000000000000000000000000000000000000000000000000000000000000583126000841260008413161615613e9357613e92613dd2565b5b827f80000000000000000000000000000000000000000000000000000000000000000582126000841360008412161615613ed057613ecf613dd2565b5b827f7fffffffffffffffffffffffffffffffffffffffffffffffffffffffffffffff0582126000841260008412161615613f0d57613f0c613dd2565b5b828202905092915050565b6000613f238261306b565b91507fffffffffffffffffffffffffffffffffffffffffffffffffffffffffffffffff8203613f5557613f54613dd2565b5b600182019050919050565b600081905092915050565b60008190508160005260206000209050919050565b60008154613f8d81613da1565b613f978186613f60565b94506001821660008114613fb25760018114613fc357613ff6565b60ff19831686528186019350613ff6565b613fcc85613f6b565b60005b83811015613fee57815481890152600182019150602081019050613fcf565b838801955050505b50505092915050565b600061400b8284613f80565b915081905092915050565b60006140218261306b565b915061402c8361306b565b9250827fffffffffffffffffffffffffffffffffffffffffffffffffffffffffffffffff0382111561406157614060613dd2565b5b828201905092915050565b600061407782613124565b6140818185613f60565b9350614091818560208601613140565b80840191505092915050565b60006140a9828461406c565b915081905092915050565b7f4e487b7100000000000000000000000000000000000000000000000000000000600052601260045260246000fd5b60006140ee82613035565b91506140f983613035565b925082614109576141086140b4565b5b600160000383147f80000000000000000000000000000000000000000000000000000000000000008314161561414257614141613dd2565b5b828205905092915050565b600061415882613035565b915061416383613035565b9250827f80000000000000000000000000000000000000000000000000000000000000000182126000841215161561419e5761419d613dd2565b5b827f7fffffffffffffffffffffffffffffffffffffffffffffffffffffffffffffff0182136000841216156141d6576141d5613dd2565b5b828203905092915050565b600082825260208201905092915050565b60006141fd82613124565b61420781856141e1565b9350614217818560208601613140565b61422081612ef9565b840191505092915050565b6000604082019050818103600083015261424581856141f2565b9050818103602083015261425981846141f2565b90509392505050565b60008115159050919050565b61427781614262565b811461428257600080fd5b50565b6000815190506142948161426e565b92915050565b6000602082840312156142b0576142af612ee5565b5b60006142be84828501614285565b91505092915050565b60006142d28261306b565b91506142dd8361306b565b9250817fffffffffffffffffffffffffffffffffffffffffffffffffffffffffffffffff048311821515161561431657614315613dd2565b5b828202905092915050565b600061432c8261306b565b91506143378361306b565b925082614347576143466140b4565b5b828204905092915050565b600061435d8261306b565b91506143688361306b565b92508282101561437b5761437a613dd2565b5b828203905092915050565b600061ffff82169050919050565b600061439f82614386565b91506143aa83614386565b92508261ffff038211156143c1576143c0613dd2565b5b828201905092915050565b600060ff82169050919050565b60006143e4826143cc565b91506143ef836143cc565b92508282101561440257614401613dd2565b5b828203905092915050565b6000614418826143cc565b915060ff820361442b5761442a613dd2565b5b600182019050919050565b600061444182614386565b915061444c83614386565b92508261445c5761445b6140b4565b5b82820690509291505056fea264697066735822122018b82bdf1c6ada34718df8e1878da04a9ba6fcf03b8a8eff72a7b2261628aa2e64736f6c634300080d0033",
  "immutableReferences": {},
  "source": "pragma solidity ^0.8.13;\r\nimport \"./utils/DateUtils.sol\";\r\nimport \"./utils/FixidityLib.sol\";\r\nimport \"./agents/TradeAgent.sol\";\r\nimport \"./Object.sol\";\r\n\r\ncontract RebalanceMarginWifMaxDrawdownControl is Object, TradeAgent{\r\n    using DateUtils for *;\r\n    using StringUtils for string;\r\n    event LogActionMsg(string actionMsgs);\r\n\r\n    uint256 lastExecutedTimestamp;\r\n    uint256 timestamp;\r\n    mapping (string => bool) maxDrawdownDodge;\r\n    mapping (string => int256) benchmarkDrawdownPrice;\r\n    mapping (string => int256) liquidateTickerQty;\r\n    mapping (string => int256) maxStockPrice;\r\n    mapping (string => int256) liquidateTickerPrice;\r\n    mapping (uint256 => RealTimeTickerData[]) realTimeTickersData;\r\n    mapping (uint256 => PortfolioData)  portfolioData;\r\n    mapping (uint256 => PortfolioHolding[]) portfolioHoldingsData;\r\n    uint256 loop = 0;\r\n    int256 rebalanceMargin = int256(5) * FixidityLib.fixed1() / int256(100);\r\n    int256 maxDrawdown = int256(5) * FixidityLib.fixed1() / int256(1000);\r\n    ActionMsg[] public actionMsgs;\r\n\r\n    constructor(){\r\n\r\n    }\r\n\r\n    function test(RealTimeTickerData[] memory tickerData)public returns(RealTimeTickerData[] memory){\r\n        emit LogActionMsg(\"test\");\r\n\r\n        return tickerData;\r\n    }\r\n\r\n    function run(RealTimeTickerData[] memory _tickerData, uint256 _timeStamp, PortfolioData memory _portfolioData, PortfolioHolding[] memory _portfolioHoldings) public returns (ActionMsg[] memory){\r\n\r\n        require(checkExecution(timestamp));\r\n        renewContractState(_tickerData, _timeStamp, _portfolioData, _portfolioHoldings);\r\n        if(loop == 0){\r\n            int256 capitalForEachStock = FixidityLib.divide(portfolioData[_timeStamp].TotalCashValue, int256(realTimeTickersData[_timeStamp].length));\r\n            for (uint i=0; i < realTimeTickersData[_timeStamp].length; i++){\r\n                RealTimeTickerData memory tickerData = realTimeTickersData[_timeStamp][i];\r\n                string memory tickerName = tickerData.tickerName;\r\n                int256 tickerPrice = tickerData.last;\r\n                int256 sharePurchase = FixidityLib.divide(capitalForEachStock,tickerData.last) * 3;\r\n                ActionMsg memory actionMsg = TradeAgent.placeBuyStockLimitOrderMsg(tickerName,sharePurchase,tickerPrice,_timeStamp);\r\n                actionMsgs.push(actionMsg);\r\n            }\r\n        }\r\n        else{\r\n            int256 targetExLiq = FixidityLib.multiply(rebalanceMargin, portfolioData[_timeStamp].GrossPositionValue);\r\n            for (uint i=0; i < realTimeTickersData[_timeStamp].length; i++){\r\n                int256 tickerPrice = realTimeTickersData[_timeStamp][i].last;\r\n                string memory tickerName = realTimeTickersData[_timeStamp][i].tickerName;\r\n                if (maxDrawdownDodge[realTimeTickersData[_timeStamp][i].tickerName]){\r\n                    if (checkBuyBack(tickerName, tickerPrice)){\r\n                        ActionMsg memory actionMsg = buyBackPosition(tickerName, tickerPrice,_timeStamp);\r\n                        actionMsgs.push(actionMsg);\r\n                    }\r\n                }else{\r\n                    if(checkMaxDrawdownDodge(tickerName,tickerPrice)){\r\n                        ActionMsg memory actionMsg = liquidateTickerPosition(tickerName, tickerPrice ,_timeStamp);\r\n                    }\r\n                    else{\r\n                        if (portfolioData[_timeStamp].ExcessLiquidity > targetExLiq) {\r\n                            int256 exLiqDiff = FixidityLib.subtract(portfolioData[_timeStamp].ExcessLiquidity, targetExLiq);\r\n                            int256 targetSharePurchase = FixidityLib.divide(exLiqDiff,tickerPrice);\r\n\r\n                            if (targetSharePurchase > 0){\r\n                                ActionMsg memory actionMsg = super.placeBuyStockLimitOrderMsg(tickerName,targetSharePurchase,tickerPrice,_timeStamp);\r\n                                actionMsgs.push(actionMsg);\r\n                            }\r\n                        }\r\n                    }\r\n                }\r\n            }\r\n\r\n            for (uint i=0; i < realTimeTickersData[_timeStamp].length; i++){\r\n                int256 tickerPrice = realTimeTickersData[_timeStamp][i].last;\r\n                string memory tickerName = realTimeTickersData[_timeStamp][i].tickerName;\r\n                if (maxDrawdownDodge[realTimeTickersData[_timeStamp][i].tickerName]){\r\n                    updateBenchmarkDrawdownPriceAfterDodge(tickerName, tickerPrice);\r\n                }\r\n                else{\r\n                    updateBenchmarkDrawdownPriceBeforeDodge(tickerName, tickerPrice);\r\n                }\r\n            }\r\n        }\r\n        lastExecutedTimestamp = _timeStamp;\r\n        loop = loop + 1;\r\n\r\n        ActionMsg[] memory msgs = new ActionMsg[](actionMsgs.length);\r\n        for (uint i = 0; i < actionMsgs.length; i++) {\r\n            msgs[i] = actionMsgs[i];\r\n        }\r\n\r\n        return msgs;\r\n    }\r\n\r\n    function renewContractState(RealTimeTickerData[] memory _tickersData, uint256 _timeStamp, PortfolioData memory _portfolioData, PortfolioHolding[] memory _portfolioHoldings) private{\r\n        timestamp = _timeStamp;\r\n\r\n        //        lastExecutedTimestamp = block.timestamp;\r\n        if(loop == 0){\r\n            for (uint i=0; i < _tickersData.length; i++){\r\n                RealTimeTickerData memory tickerData = _tickersData[i];\r\n                string memory tickerName = tickerData.tickerName;\r\n                maxDrawdownDodge[tickerName] = false;\r\n                benchmarkDrawdownPrice[tickerName] = 0;\r\n                liquidateTickerQty[tickerName] = 0;\r\n                maxStockPrice[tickerName] = 0;\r\n                liquidateTickerPrice[tickerName] = 0;\r\n            }\r\n        }\r\n\r\n\r\n        RealTimeTickerData[] storage _realTimeTickerArray = realTimeTickersData[_timeStamp];\r\n        for (uint i = 0; i < _tickersData.length; i++) {\r\n            RealTimeTickerData memory _tickerData = _tickersData[i];\r\n            _realTimeTickerArray[i].bidPrice =_tickerData.bidPrice;\r\n            _realTimeTickerArray[i].last =_tickerData.last;\r\n            _realTimeTickerArray[i].tickerName =_tickerData.tickerName;\r\n        }\r\n\r\n        PortfolioHolding[] storage _portfolioHoldingArray = portfolioHoldingsData[_timeStamp];\r\n        for (uint i = 0; i < _portfolioHoldings.length; i++) {\r\n            PortfolioHolding memory _portfolioHolding = _portfolioHoldings[i];\r\n            _portfolioHoldingArray[i].tickerName = _portfolioHolding.tickerName;\r\n            _portfolioHoldingArray[i].averageCost = _portfolioHolding.averageCost;\r\n            _portfolioHoldingArray[i].costBasis = _portfolioHolding.costBasis;\r\n            _portfolioHoldingArray[i].initMarginReq = _portfolioHolding.initMarginReq;\r\n            _portfolioHoldingArray[i].maintMarginReq = _portfolioHolding.maintMarginReq;\r\n            _portfolioHoldingArray[i].marketPrice = _portfolioHolding.marketPrice;\r\n            _portfolioHoldingArray[i].marketValue = _portfolioHolding.marketValue;\r\n            _portfolioHoldingArray[i].position = _portfolioHolding.position;\r\n            _portfolioHoldingArray[i].realizedPNL = _portfolioHolding.realizedPNL;\r\n            _portfolioHoldingArray[i].unrealizedPNL = _portfolioHolding.unrealizedPNL;\r\n        }\r\n\r\n        portfolioData[_timeStamp] = _portfolioData;\r\n        delete actionMsgs;\r\n    }\r\n\r\n    function checkExecution(uint256 _timestamp) internal returns (bool){\r\n\r\n        bool exec = false;\r\n        uint16 _year;\r\n        uint8 _month;\r\n        uint8 _day;\r\n\r\n        uint16 _lastYear;\r\n        uint8 _lastMonth;\r\n        uint8 _lastday;\r\n\r\n        (_year, _month, _day) = DateUtils.convertTimestampToYMD(_timestamp);\r\n        (_lastYear, _lastMonth, _lastday) = DateUtils.convertTimestampToYMD(lastExecutedTimestamp);\r\n        if (_month != _lastMonth){\r\n            exec = true;\r\n            lastExecutedTimestamp = _timestamp;\r\n            }\r\n        return exec;\r\n    }\r\n\r\n\r\n    function checkBuyBack(string memory tickerName, int256 realTimeTickerPrice)internal returns (bool){\r\n//        range_price = self.benchmark_drawdown_price.get(ticker) * (1 + 0.01)\r\n//        return ticker_price > range_price\r\n        int256 rangePrice = benchmarkDrawdownPrice[tickerName] /100*101;\r\n        return realTimeTickerPrice > rangePrice;\r\n    }\r\n\r\n    function buyBackPosition(string memory tickerName, int256 tickerPrice, uint256 _timeStamp) internal returns (ActionMsg memory) {\r\n        ActionMsg memory actionMsg;\r\n        int256 targetSharePurchase = liquidateTickerQty[tickerName];\r\n        int256 purchaseAmount =  FixidityLib.multiply(targetSharePurchase, tickerPrice);\r\n        if (portfolioData[_timeStamp].BuyingPower >= purchaseAmount){\r\n            actionMsg = super.placeBuyStockLimitOrderMsg(tickerName,targetSharePurchase,tickerPrice,_timeStamp);\r\n        }else{\r\n            targetSharePurchase = portfolioData[_timeStamp].BuyingPower / tickerPrice;\r\n            actionMsg = super.placeBuyStockLimitOrderMsg(tickerName,targetSharePurchase,tickerPrice,_timeStamp);\r\n        }\r\n\r\n        maxDrawdownDodge[tickerName] = false;\r\n        maxStockPrice[tickerName] = tickerPrice;\r\n\r\n        return actionMsg;\r\n    }\r\n\r\n\r\n    function checkMaxDrawdownDodge(string memory tickerName, int256 tickerPrice) private returns (bool){\r\n        return tickerPrice < benchmarkDrawdownPrice[tickerName];\r\n    }\r\n\r\n    function updateBenchmarkDrawdownPriceAfterDodge(string memory tickerName, int256 tickerPrice) private{\r\n//        if real_time_ticker_price < self.benchmark_drawdown_price[ticker] * 0.7:\r\n//            target_update_benchmark_drawdown_price = real_time_ticker_price + (\r\n//                    (self.liq_sold_price_dict[ticker] - real_time_ticker_price) * 0.5)\r\n//            if target_update_benchmark_drawdown_price < self.benchmark_drawdown_price[ticker]:\r\n//                self.benchmark_drawdown_price[ticker] = target_update_benchmark_drawdown_price\r\n\r\n        int256 benchmarkDrawdownFactor = int256(70) * FixidityLib.fixed1() / int256(100);\r\n        if (tickerPrice < FixidityLib.multiply(benchmarkDrawdownPrice[tickerName] , benchmarkDrawdownFactor)){\r\n\r\n            int256 tickerDiff = FixidityLib.subtract(liquidateTickerPrice[tickerName],tickerPrice);\r\n            int256 targetUpdateBenchmarkDrawdownPrice = FixidityLib.add(tickerPrice, tickerDiff) * 50 / 100;\r\n            if (targetUpdateBenchmarkDrawdownPrice < benchmarkDrawdownPrice[tickerName]){\r\n                benchmarkDrawdownPrice[tickerName] = targetUpdateBenchmarkDrawdownPrice;\r\n            }\r\n        }\r\n    }\r\n\r\n    function updateBenchmarkDrawdownPriceBeforeDodge(string memory tickerName, int256 realTimeTickerPrice) private{\r\n//        if (self.max_stock_price.get(ticker) == 0):  # if there is no data for the max and benchmark price\r\n//            self.max_stock_price.update({ticker: real_time_ticker_price})\r\n//            benchmark_price = real_time_ticker_price * (1 - self.max_drawdown_ratio)\r\n//            self.benchmark_drawdown_price.update({ticker: benchmark_price})\r\n//        elif real_time_ticker_price > self.max_stock_price.get(ticker):\r\n//            self.max_stock_price.update({ticker: real_time_ticker_price})\r\n//            benchmark_price = real_time_ticker_price * (1 - self.max_drawdown_ratio)\r\n//            self.benchmark_drawdown_price.update({ticker: benchmark_price})\r\n\r\n        if (maxStockPrice[tickerName] == 0){\r\n            maxStockPrice[tickerName] = realTimeTickerPrice;\r\n            int256 drawDownFactor = FixidityLib.subtract(FixidityLib.fixed1(), maxDrawdown);\r\n            int256 tickerBenchmarkPrice = FixidityLib.multiply(maxStockPrice[tickerName], drawDownFactor);\r\n            benchmarkDrawdownPrice[tickerName] = tickerBenchmarkPrice;\r\n        }\r\n        else if (realTimeTickerPrice > maxStockPrice[tickerName]){\r\n            maxStockPrice[tickerName] = realTimeTickerPrice;\r\n            int256 drawDownFactor = FixidityLib.subtract(FixidityLib.fixed1(), maxDrawdown);\r\n            int256 tickerBenchmarkPrice = FixidityLib.multiply(maxStockPrice[tickerName], drawDownFactor);\r\n            benchmarkDrawdownPrice[tickerName] = tickerBenchmarkPrice;\r\n        }\r\n\r\n    }\r\n\r\n    function liquidateTickerPosition(string memory tickerName, int256 tickerPrice, uint256 _timeStamp) private returns (ActionMsg memory){\r\n        PortfolioHolding memory holding = getPortfolioHoldingByTickerName(tickerName, portfolioHoldingsData[_timeStamp]);\r\n        RealTimeTickerData memory tickerData = getRealTimeTickerDataByTickerName(tickerName, realTimeTickersData[_timeStamp]);\r\n        int256 currentPosition = holding.position;\r\n        int256 noLeverageEquity = portfolioData[_timeStamp].EquityWithLoanValue / int256(realTimeTickersData[_timeStamp].length);\r\n        int256 noLeveragePosition = FixidityLib.divide(noLeverageEquity,tickerData.last);\r\n        int256 targetLeveragePositionAtLiquidState = noLeveragePosition * 12 / 10;\r\n\r\n        int256 targetSoldPosition = currentPosition - targetLeveragePositionAtLiquidState;\r\n        ActionMsg memory actionMsg = super.placeSellStockLimitOrderMsg(tickerName,targetSoldPosition,tickerPrice, _timeStamp);\r\n\r\n        benchmarkDrawdownPrice[tickerName] = tickerPrice;\r\n        liquidateTickerQty[tickerName] = targetSoldPosition;\r\n        liquidateTickerPrice[tickerName] = tickerPrice;\r\n        maxDrawdownDodge[tickerName] = true;\r\n\r\n        return actionMsg;\r\n    }\r\n\r\n    function getPortfolioHoldingByTickerName(string memory tickerName, PortfolioHolding[] memory holdings) private returns (PortfolioHolding memory){\r\n        PortfolioHolding memory holding;\r\n        for(uint i=0; i< holdings.length; i++){\r\n            if(holdings[i].tickerName.compareStrings(tickerName)){\r\n                holding = holdings[i];\r\n            }\r\n        }\r\n        return holding;\r\n    }\r\n\r\n    function getRealTimeTickerDataByTickerName(string memory tickerName,  RealTimeTickerData[] memory realTimeTickersData) private returns (RealTimeTickerData memory){\r\n        RealTimeTickerData memory realTimeTickerData;\r\n        for (uint i=0; i<realTimeTickersData.length; i++){\r\n            if(realTimeTickersData[i].tickerName.compareStrings(tickerName)){\r\n                realTimeTickerData = realTimeTickersData[i];\r\n            }\r\n        }\r\n        return realTimeTickerData;\r\n    }\r\n}\r\n",
  "sourcePath": "C:\\Users\\lam\\Documents\\GitHub\\IndexTradingApplication\\contract\\contracts\\RebalanceMarginWifMaxDrawdownControl.sol",
  "compiler": {
    "name": "solc",
    "version": "0.8.13+commit.abaa5c0e.Emscripten.clang"
  },
  "schemaVersion": "3.4.7",
  "updatedAt": "2022-07-03T09:06:47.136Z",
  "networkType": "ethereum",
  "devdoc": {
    "kind": "dev",
    "methods": {},
    "version": 1
  },
  "userdoc": {
    "kind": "user",
    "methods": {},
    "version": 1
  }
}