{
  "contractName": "RebalanceMarginWifMaxDrawdownControl",
  "abi": [
    {
      "inputs": [],
      "stateMutability": "nonpayable",
      "type": "constructor"
    },
    {
      "anonymous": false,
      "inputs": [
        {
          "indexed": false,
          "internalType": "string",
          "name": "actionMsgs",
          "type": "string"
        }
      ],
      "name": "LogActionMsg",
      "type": "event"
    },
    {
      "inputs": [
        {
          "internalType": "uint256",
          "name": "",
          "type": "uint256"
        }
      ],
      "name": "actionMsgs",
      "outputs": [
        {
          "internalType": "string",
          "name": "tickerName",
          "type": "string"
        },
        {
          "internalType": "uint256",
          "name": "timestamp",
          "type": "uint256"
        },
        {
          "internalType": "string",
          "name": "transactionType",
          "type": "string"
        },
        {
          "internalType": "int256",
          "name": "positionAction",
          "type": "int256"
        },
        {
          "internalType": "int256",
          "name": "transactionTickerPrice",
          "type": "int256"
        },
        {
          "internalType": "int256",
          "name": "transactionAmount",
          "type": "int256"
        }
      ],
      "stateMutability": "view",
      "type": "function",
      "constant": true
    },
    {
      "inputs": [
        {
          "internalType": "string",
          "name": "_tickerName",
          "type": "string"
        },
        {
          "internalType": "int256",
          "name": "_targetSharePurchase",
          "type": "int256"
        },
        {
          "internalType": "int256",
          "name": "_transactionTickerPrice",
          "type": "int256"
        },
        {
          "internalType": "uint256",
          "name": "_timestamp",
          "type": "uint256"
        }
      ],
      "name": "placeBuyStockLimitOrderMsg",
      "outputs": [
        {
          "components": [
            {
              "internalType": "string",
              "name": "tickerName",
              "type": "string"
            },
            {
              "internalType": "uint256",
              "name": "timestamp",
              "type": "uint256"
            },
            {
              "internalType": "string",
              "name": "transactionType",
              "type": "string"
            },
            {
              "internalType": "int256",
              "name": "positionAction",
              "type": "int256"
            },
            {
              "internalType": "int256",
              "name": "transactionTickerPrice",
              "type": "int256"
            },
            {
              "internalType": "int256",
              "name": "transactionAmount",
              "type": "int256"
            }
          ],
          "internalType": "struct Object.ActionMsg",
          "name": "",
          "type": "tuple"
        }
      ],
      "stateMutability": "nonpayable",
      "type": "function"
    },
    {
      "inputs": [
        {
          "internalType": "string",
          "name": "_tickerName",
          "type": "string"
        },
        {
          "internalType": "int256",
          "name": "_targetShareSell",
          "type": "int256"
        },
        {
          "internalType": "int256",
          "name": "_transactionTickerPrice",
          "type": "int256"
        },
        {
          "internalType": "uint256",
          "name": "_timestamp",
          "type": "uint256"
        }
      ],
      "name": "placeSellStockLimitOrderMsg",
      "outputs": [
        {
          "components": [
            {
              "internalType": "string",
              "name": "tickerName",
              "type": "string"
            },
            {
              "internalType": "uint256",
              "name": "timestamp",
              "type": "uint256"
            },
            {
              "internalType": "string",
              "name": "transactionType",
              "type": "string"
            },
            {
              "internalType": "int256",
              "name": "positionAction",
              "type": "int256"
            },
            {
              "internalType": "int256",
              "name": "transactionTickerPrice",
              "type": "int256"
            },
            {
              "internalType": "int256",
              "name": "transactionAmount",
              "type": "int256"
            }
          ],
          "internalType": "struct Object.ActionMsg",
          "name": "",
          "type": "tuple"
        }
      ],
      "stateMutability": "nonpayable",
      "type": "function"
    },
    {
      "inputs": [
        {
          "components": [
            {
              "internalType": "string",
              "name": "tickerName",
              "type": "string"
            },
            {
              "internalType": "int256",
              "name": "bidPrice",
              "type": "int256"
            },
            {
              "internalType": "int256",
              "name": "last",
              "type": "int256"
            }
          ],
          "internalType": "struct Object.RealTimeTickerData[]",
          "name": "tickerData",
          "type": "tuple[]"
        }
      ],
      "name": "test",
      "outputs": [
        {
          "internalType": "string",
          "name": "",
          "type": "string"
        }
      ],
      "stateMutability": "nonpayable",
      "type": "function"
    },
    {
      "inputs": [
        {
          "components": [
            {
              "internalType": "string",
              "name": "tickerName",
              "type": "string"
            },
            {
              "internalType": "int256",
              "name": "bidPrice",
              "type": "int256"
            },
            {
              "internalType": "int256",
              "name": "last",
              "type": "int256"
            }
          ],
          "internalType": "struct Object.RealTimeTickerData[]",
          "name": "_tickerData",
          "type": "tuple[]"
        },
        {
          "internalType": "uint256",
          "name": "_timeStamp",
          "type": "uint256"
        },
        {
          "components": [
            {
              "internalType": "string",
              "name": "AccountCode",
              "type": "string"
            },
            {
              "internalType": "string",
              "name": "Currency",
              "type": "string"
            },
            {
              "internalType": "string",
              "name": "ExchangeRate",
              "type": "string"
            },
            {
              "internalType": "int256",
              "name": "FullInitMarginReq",
              "type": "int256"
            },
            {
              "internalType": "int256",
              "name": "FullMainMarginReq",
              "type": "int256"
            },
            {
              "internalType": "int256",
              "name": "AvailableFunds",
              "type": "int256"
            },
            {
              "internalType": "int256",
              "name": "ExcessLiquidity",
              "type": "int256"
            },
            {
              "internalType": "int256",
              "name": "BuyingPower",
              "type": "int256"
            },
            {
              "internalType": "int256",
              "name": "Leverage",
              "type": "int256"
            },
            {
              "internalType": "int256",
              "name": "EquityWithLoanValue",
              "type": "int256"
            },
            {
              "internalType": "int256",
              "name": "TotalCashValue",
              "type": "int256"
            },
            {
              "internalType": "int256",
              "name": "NetDividend",
              "type": "int256"
            },
            {
              "internalType": "int256",
              "name": "NetLiquidation",
              "type": "int256"
            },
            {
              "internalType": "int256",
              "name": "UnrealizedPnL",
              "type": "int256"
            },
            {
              "internalType": "int256",
              "name": "RealizedPnL",
              "type": "int256"
            },
            {
              "internalType": "int256",
              "name": "GrossPositionValue",
              "type": "int256"
            }
          ],
          "internalType": "struct Object.PortfolioData",
          "name": "_portfolioData",
          "type": "tuple"
        },
        {
          "components": [
            {
              "internalType": "string",
              "name": "tickerName",
              "type": "string"
            },
            {
              "internalType": "int256",
              "name": "position",
              "type": "int256"
            },
            {
              "internalType": "int256",
              "name": "marketPrice",
              "type": "int256"
            },
            {
              "internalType": "int256",
              "name": "averageCost",
              "type": "int256"
            },
            {
              "internalType": "int256",
              "name": "marketValue",
              "type": "int256"
            },
            {
              "internalType": "int256",
              "name": "realizedPNL",
              "type": "int256"
            },
            {
              "internalType": "int256",
              "name": "unrealizedPNL",
              "type": "int256"
            },
            {
              "internalType": "int256",
              "name": "initMarginReq",
              "type": "int256"
            },
            {
              "internalType": "int256",
              "name": "maintMarginReq",
              "type": "int256"
            },
            {
              "internalType": "int256",
              "name": "costBasis",
              "type": "int256"
            }
          ],
          "internalType": "struct Object.PortfolioHolding[]",
          "name": "_portfolioHoldings",
          "type": "tuple[]"
        }
      ],
      "name": "run",
      "outputs": [
        {
          "components": [
            {
              "internalType": "string",
              "name": "tickerName",
              "type": "string"
            },
            {
              "internalType": "uint256",
              "name": "timestamp",
              "type": "uint256"
            },
            {
              "internalType": "string",
              "name": "transactionType",
              "type": "string"
            },
            {
              "internalType": "int256",
              "name": "positionAction",
              "type": "int256"
            },
            {
              "internalType": "int256",
              "name": "transactionTickerPrice",
              "type": "int256"
            },
            {
              "internalType": "int256",
              "name": "transactionAmount",
              "type": "int256"
            }
          ],
          "internalType": "struct Object.ActionMsg[]",
          "name": "",
          "type": "tuple[]"
        }
      ],
      "stateMutability": "nonpayable",
      "type": "function"
    }
  ],
  "bytecode": "0x60806040526000600a55606473__FixidityLib___________________________632179bb6c6040518163ffffffff1660e01b8152600401602060405180830381865af415801562000055573d6000803e3d6000fd5b505050506040513d601f19601f820116820180604052508101906200007b91906200017c565b6005620000899190620001dd565b62000095919062000333565b600b556103e873__FixidityLib___________________________632179bb6c6040518163ffffffff1660e01b8152600401602060405180830381865af4158015620000e5573d6000803e3d6000fd5b505050506040513d601f19601f820116820180604052508101906200010b91906200017c565b6005620001199190620001dd565b62000125919062000333565b600c553480156200013557600080fd5b50620003a7565b600080fd5b6000819050919050565b620001568162000141565b81146200016257600080fd5b50565b60008151905062000176816200014b565b92915050565b6000602082840312156200019557620001946200013c565b5b6000620001a58482850162000165565b91505092915050565b7f4e487b7100000000000000000000000000000000000000000000000000000000600052601160045260246000fd5b6000620001ea8262000141565b9150620001f78362000141565b9250827f7fffffffffffffffffffffffffffffffffffffffffffffffffffffffffffffff0482116000841360008413161615620002395762000238620001ae565b5b817f80000000000000000000000000000000000000000000000000000000000000000583126000841260008413161615620002795762000278620001ae565b5b827f80000000000000000000000000000000000000000000000000000000000000000582126000841360008412161615620002b957620002b8620001ae565b5b827f7fffffffffffffffffffffffffffffffffffffffffffffffffffffffffffffff0582126000841260008412161615620002f957620002f8620001ae565b5b828202905092915050565b7f4e487b7100000000000000000000000000000000000000000000000000000000600052601260045260246000fd5b6000620003408262000141565b91506200034d8362000141565b92508262000360576200035f62000304565b5b600160000383147f8000000000000000000000000000000000000000000000000000000000000000831416156200039c576200039b620001ae565b5b828205905092915050565b61430f80620003b76000396000f3fe608060405234801561001057600080fd5b50600436106100575760003560e01c806314ea6c191461005c5780631f75ba781461008c5780634358f911146100bc5780634f8ac98d146100ec578063d313b78c1461011c575b600080fd5b61007660048036038101906100719190613091565b610151565b604051610083919061324a565b60405180910390f35b6100a660048036038101906100a191906133dc565b61024a565b6040516100b3919061346f565b60405180910390f35b6100d660048036038101906100d19190613852565b610279565b6040516100e39190613a5f565b60405180910390f35b61010660048036038101906101019190613091565b610e98565b604051610113919061324a565b60405180910390f35b61013660048036038101906101319190613a81565b610f91565b60405161014896959493929190613acc565b60405180910390f35b610159612c7d565b600073__FixidityLib___________________________633c4308a886866040518363ffffffff1660e01b8152600401610194929190613b4a565b602060405180830381865af41580156101b1573d6000803e3d6000fd5b505050506040513d601f19601f820116820180604052508101906101d59190613b88565b905060006040518060c001604052808881526020018581526020016040518060400160405280600481526020017f53656c6c0000000000000000000000000000000000000000000000000000000081525081526020018781526020018681526020018381525090508092505050949350505050565b606060008260008151811061026257610261613bb5565b5b602002602001015160000151905080915050919050565b60606102866001546110ed565b61028f57600080fd5b61029b85858585611151565b6000600a54036105b757600073__FixidityLib___________________________63f598423660086000888152602001908152602001600020600a015460076000898152602001908152602001600020805490506040518363ffffffff1660e01b815260040161030c929190613b4a565b602060405180830381865af4158015610329573d6000803e3d6000fd5b505050506040513d601f19601f8201168201806040525081019061034d9190613b88565b905060005b60076000878152602001908152602001600020805490508110156105b057600060076000888152602001908152602001600020828154811061039757610396613bb5565b5b90600052602060002090600302016040518060600160405290816000820180546103c090613c13565b80601f01602080910402602001604051908101604052809291908181526020018280546103ec90613c13565b80156104395780601f1061040e57610100808354040283529160200191610439565b820191906000526020600020905b81548152906001019060200180831161041c57829003601f168201915b505050505081526020016001820154815260200160028201548152505090506000816000015190506000826040015190506000600373__FixidityLib___________________________63f59842368887604001516040518363ffffffff1660e01b81526004016104ab929190613b4a565b602060405180830381865af41580156104c8573d6000803e3d6000fd5b505050506040513d601f19601f820116820180604052508101906104ec9190613b88565b6104f69190613c73565b905060006105068483858e610e98565b9050600d8190806001815401808255809150506001900390600052602060002090600602016000909190919091506000820151816000019080519060200190610550929190612cb3565b50602082015181600101556040820151816002019080519060200190610577929190612cb3565b50606082015181600301556080820151816004015560a082015181600501555050505050505080806105a890613d8a565b915050610352565b5050610c58565b600073__FixidityLib___________________________633c4308a8600b5460086000898152602001908152602001600020600f01546040518363ffffffff1660e01b815260040161060a929190613b4a565b602060405180830381865af4158015610627573d6000803e3d6000fd5b505050506040513d601f19601f8201168201806040525081019061064b9190613b88565b905060005b6007600087815260200190815260200160002080549050811015610aa057600060076000888152602001908152602001600020828154811061069557610694613bb5565b5b906000526020600020906003020160020154905060006007600089815260200190815260200160002083815481106106d0576106cf613bb5565b5b906000526020600020906003020160000180546106ec90613c13565b80601f016020809104026020016040519081016040528092919081815260200182805461071890613c13565b80156107655780601f1061073a57610100808354040283529160200191610765565b820191906000526020600020905b81548152906001019060200180831161074857829003601f168201915b505050505090506002600760008a8152602001908152602001600020848154811061079357610792613bb5565b5b90600052602060002090600302016000016040516107b19190613e71565b908152602001604051809103902060009054906101000a900460ff1615610887576107dc818361169b565b156108825760006107ee82848b6116e3565b9050600d8190806001815401808255809150506001900390600052602060002090600602016000909190919091506000820151816000019080519060200190610838929190612cb3565b5060208201518160010155604082015181600201908051906020019061085f929190612cb3565b50606082015181600301556080820151816004015560a082015181600501555050505b610a8b565b610891818361185e565b156108ab5760006108a382848b611889565b905050610a8a565b83600860008a8152602001908152602001600020600601541315610a8957600073__FixidityLib___________________________63b93ea812600860008c815260200190815260200160002060060154876040518363ffffffff1660e01b815260040161091a929190613b4a565b602060405180830381865af4158015610937573d6000803e3d6000fd5b505050506040513d601f19601f8201168201806040525081019061095b9190613b88565b9050600073__FixidityLib___________________________63f598423683866040518363ffffffff1660e01b8152600401610998929190613b4a565b602060405180830381865af41580156109b5573d6000803e3d6000fd5b505050506040513d601f19601f820116820180604052508101906109d99190613b88565b90506000811315610a865760006109f28483878e610e98565b9050600d8190806001815401808255809150506001900390600052602060002090600602016000909190919091506000820151816000019080519060200190610a3c929190612cb3565b50602082015181600101556040820151816002019080519060200190610a63929190612cb3565b50606082015181600301556080820151816004015560a082015181600501555050505b50505b5b5b50508080610a9890613d8a565b915050610650565b5060005b6007600087815260200190815260200160002080549050811015610c55576000600760008881526020019081526020016000208281548110610ae957610ae8613bb5565b5b90600052602060002090600302016002015490506000600760008981526020019081526020016000208381548110610b2457610b23613bb5565b5b90600052602060002090600302016000018054610b4090613c13565b80601f0160208091040260200160405190810160405280929190818152602001828054610b6c90613c13565b8015610bb95780601f10610b8e57610100808354040283529160200191610bb9565b820191906000526020600020905b815481529060010190602001808311610b9c57829003601f168201915b505050505090506002600760008a81526020019081526020016000208481548110610be757610be6613bb5565b5b9060005260206000209060030201600001604051610c059190613e71565b908152602001604051809103902060009054906101000a900460ff1615610c3557610c308183611cc6565b610c40565b610c3f8183611f72565b5b50508080610c4d90613d8a565b915050610aa4565b50505b836000819055506001600a54610c6e9190613e88565b600a819055506000600d8054905067ffffffffffffffff811115610c9557610c94612efa565b5b604051908082528060200260200182016040528015610cce57816020015b610cbb612c7d565b815260200190600190039081610cb35790505b50905060005b600d80549050811015610e8b57600d8181548110610cf557610cf4613bb5565b5b90600052602060002090600602016040518060c0016040529081600082018054610d1e90613c13565b80601f0160208091040260200160405190810160405280929190818152602001828054610d4a90613c13565b8015610d975780601f10610d6c57610100808354040283529160200191610d97565b820191906000526020600020905b815481529060010190602001808311610d7a57829003601f168201915b5050505050815260200160018201548152602001600282018054610dba90613c13565b80601f0160208091040260200160405190810160405280929190818152602001828054610de690613c13565b8015610e335780601f10610e0857610100808354040283529160200191610e33565b820191906000526020600020905b815481529060010190602001808311610e1657829003601f168201915b505050505081526020016003820154815260200160048201548152602001600582015481525050828281518110610e6d57610e6c613bb5565b5b60200260200101819052508080610e8390613d8a565b915050610cd4565b5080915050949350505050565b610ea0612c7d565b600073__FixidityLib___________________________633c4308a886866040518363ffffffff1660e01b8152600401610edb929190613b4a565b602060405180830381865af4158015610ef8573d6000803e3d6000fd5b505050506040513d601f19601f82011682018060405250810190610f1c9190613b88565b905060006040518060c001604052808881526020018581526020016040518060400160405280600381526020017f427579000000000000000000000000000000000000000000000000000000000081525081526020018781526020018681526020018381525090508092505050949350505050565b600d8181548110610fa157600080fd5b9060005260206000209060060201600091509050806000018054610fc490613c13565b80601f0160208091040260200160405190810160405280929190818152602001828054610ff090613c13565b801561103d5780601f106110125761010080835404028352916020019161103d565b820191906000526020600020905b81548152906001019060200180831161102057829003601f168201915b50505050509080600101549080600201805461105890613c13565b80601f016020809104026020016040519081016040528092919081815260200182805461108490613c13565b80156110d15780601f106110a6576101008083540402835291602001916110d1565b820191906000526020600020905b8154815290600101906020018083116110b457829003601f168201915b5050505050908060030154908060040154908060050154905086565b6000806000905060008060008060008061110689612369565b80965081975082985050505061111d600054612369565b8093508194508295505050508160ff168560ff16146111425760019650886000819055505b86975050505050505050919050565b826001819055506000600a54036112745760005b845181101561127257600085828151811061118357611182613bb5565b5b6020026020010151905060008160000151905060006002826040516111a89190613f0f565b908152602001604051809103902060006101000a81548160ff02191690831515021790555060006003826040516111df9190613f0f565b90815260200160405180910390208190555060006004826040516112039190613f0f565b90815260200160405180910390208190555060006005826040516112279190613f0f565b908152602001604051809103902081905550600060068260405161124b9190613f0f565b9081526020016040518091039020819055505050808061126a90613d8a565b915050611165565b505b600060076000858152602001908152602001600020905060005b85518110156113615760008682815181106112ac576112ab613bb5565b5b6020026020010151905080602001518383815481106112ce576112cd613bb5565b5b90600052602060002090600302016001018190555080604001518383815481106112fb576112fa613bb5565b5b906000526020600020906003020160020181905550806000015183838154811061132857611327613bb5565b5b9060005260206000209060030201600001908051906020019061134c929190612cb3565b5050808061135990613d8a565b91505061128e565b50600060096000868152602001908152602001600020905060005b835181101561158c57600084828151811061139a57611399613bb5565b5b6020026020010151905080600001518383815481106113bc576113bb613bb5565b5b90600052602060002090600a020160000190805190602001906113e0929190612cb3565b5080606001518383815481106113f9576113f8613bb5565b5b90600052602060002090600a02016003018190555080610120015183838154811061142757611426613bb5565b5b90600052602060002090600a0201600901819055508060e0015183838154811061145457611453613bb5565b5b90600052602060002090600a02016007018190555080610100015183838154811061148257611481613bb5565b5b90600052602060002090600a02016008018190555080604001518383815481106114af576114ae613bb5565b5b90600052602060002090600a02016002018190555080608001518383815481106114dc576114db613bb5565b5b90600052602060002090600a020160040181905550806020015183838154811061150957611508613bb5565b5b90600052602060002090600a0201600101819055508060a0015183838154811061153657611535613bb5565b5b90600052602060002090600a0201600501819055508060c0015183838154811061156357611562613bb5565b5b90600052602060002090600a02016006018190555050808061158490613d8a565b91505061137c565b50836008600087815260200190815260200160002060008201518160000190805190602001906115bd929190612cb3565b5060208201518160010190805190602001906115da929190612cb3565b5060408201518160020190805190602001906115f7929190612cb3565b50606082015181600301556080820151816004015560a0820151816005015560c0820151816006015560e082015181600701556101008201518160080155610120820151816009015561014082015181600a015561016082015181600b015561018082015181600c01556101a082015181600d01556101c082015181600e01556101e082015181600f0155905050600d60006116939190612d39565b505050505050565b600080606560646003866040516116b29190613f0f565b9081526020016040518091039020546116cb9190613f55565b6116d59190613c73565b905080831391505092915050565b6116eb612c7d565b6116f3612c7d565b60006004866040516117059190613f0f565b9081526020016040518091039020549050600073__FixidityLib___________________________633c4308a883886040518363ffffffff1660e01b8152600401611751929190613b4a565b602060405180830381865af415801561176e573d6000803e3d6000fd5b505050506040513d601f19601f820116820180604052508101906117929190613b88565b9050806008600087815260200190815260200160002060070154126117c4576117bd87838888610e98565b92506117f7565b8560086000878152602001908152602001600020600701546117e69190613f55565b91506117f487838888610e98565b92505b60006002886040516118099190613f0f565b908152602001604051809103902060006101000a81548160ff0219169083151502179055508560058860405161183f9190613f0f565b9081526020016040518091039020819055508293505050509392505050565b60006003836040516118709190613f0f565b9081526020016040518091039020548212905092915050565b611891612c7d565b60006119f28560096000868152602001908152602001600020805480602002602001604051908101604052809291908181526020016000905b828210156119e957838290600052602060002090600a0201604051806101400160405290816000820180546118fe90613c13565b80601f016020809104026020016040519081016040528092919081815260200182805461192a90613c13565b80156119775780601f1061194c57610100808354040283529160200191611977565b820191906000526020600020905b81548152906001019060200180831161195a57829003601f168201915b505050505081526020016001820154815260200160028201548152602001600382015481526020016004820154815260200160058201548152602001600682015481526020016007820154815260200160088201548152602001600982015481525050815260200190600101906118ca565b505050506123ae565b90506000611b0e8660076000878152602001908152602001600020805480602002602001604051908101604052809291908181526020016000905b82821015611b055783829060005260206000209060030201604051806060016040529081600082018054611a6090613c13565b80601f0160208091040260200160405190810160405280929190818152602001828054611a8c90613c13565b8015611ad95780601f10611aae57610100808354040283529160200191611ad9565b820191906000526020600020905b815481529060010190602001808311611abc57829003601f168201915b505050505081526020016001820154815260200160028201548152505081526020019060010190611a2d565b505050506124a5565b9050600082602001519050600060076000878152602001908152602001600020805490506008600088815260200190815260200160002060090154611b539190613f55565b9050600073__FixidityLib___________________________63f59842368386604001516040518363ffffffff1660e01b8152600401611b94929190613b4a565b602060405180830381865af4158015611bb1573d6000803e3d6000fd5b505050506040513d601f19601f82011682018060405250810190611bd59190613b88565b90506000600a600c83611be89190613c73565b611bf29190613f55565b905060008185611c029190613fbf565b90506000611c128c838d8d610151565b90508a60038d604051611c259190613f0f565b9081526020016040518091039020819055508160048d604051611c489190613f0f565b9081526020016040518091039020819055508a60068d604051611c6b9190613f0f565b908152602001604051809103902081905550600160028d604051611c8f9190613f0f565b908152602001604051809103902060006101000a81548160ff02191690831515021790555080985050505050505050509392505050565b6000606473__FixidityLib___________________________632179bb6c6040518163ffffffff1660e01b8152600401602060405180830381865af4158015611d13573d6000803e3d6000fd5b505050506040513d601f19601f82011682018060405250810190611d379190613b88565b6046611d439190613c73565b611d4d9190613f55565b905073__FixidityLib___________________________633c4308a8600385604051611d799190613f0f565b908152602001604051809103902054836040518363ffffffff1660e01b8152600401611da6929190613b4a565b602060405180830381865af4158015611dc3573d6000803e3d6000fd5b505050506040513d601f19601f82011682018060405250810190611de79190613b88565b821215611f6d57600073__FixidityLib___________________________63b93ea812600686604051611e1a9190613f0f565b908152602001604051809103902054856040518363ffffffff1660e01b8152600401611e47929190613b4a565b602060405180830381865af4158015611e64573d6000803e3d6000fd5b505050506040513d601f19601f82011682018060405250810190611e889190613b88565b905060006064603273__FixidityLib___________________________63a5f3c23b87866040518363ffffffff1660e01b8152600401611ec9929190613b4a565b602060405180830381865af4158015611ee6573d6000803e3d6000fd5b505050506040513d601f19601f82011682018060405250810190611f0a9190613b88565b611f149190613c73565b611f1e9190613f55565b9050600385604051611f309190613f0f565b908152602001604051809103902054811215611f6a5780600386604051611f579190613f0f565b9081526020016040518091039020819055505b50505b505050565b6000600583604051611f849190613f0f565b9081526020016040518091039020540361216d5780600583604051611fa99190613f0f565b908152602001604051809103902081905550600073__FixidityLib___________________________63b93ea81273__FixidityLib___________________________632179bb6c6040518163ffffffff1660e01b8152600401602060405180830381865af4158015612020573d6000803e3d6000fd5b505050506040513d601f19601f820116820180604052508101906120449190613b88565b600c546040518363ffffffff1660e01b8152600401612064929190613b4a565b602060405180830381865af4158015612081573d6000803e3d6000fd5b505050506040513d601f19601f820116820180604052508101906120a59190613b88565b9050600073__FixidityLib___________________________633c4308a86005866040516120d39190613f0f565b908152602001604051809103902054846040518363ffffffff1660e01b8152600401612100929190613b4a565b602060405180830381865af415801561211d573d6000803e3d6000fd5b505050506040513d601f19601f820116820180604052508101906121419190613b88565b9050806003856040516121549190613f0f565b9081526020016040518091039020819055505050612365565b60058260405161217d9190613f0f565b90815260200160405180910390205481131561236457806005836040516121a49190613f0f565b908152602001604051809103902081905550600073__FixidityLib___________________________63b93ea81273__FixidityLib___________________________632179bb6c6040518163ffffffff1660e01b8152600401602060405180830381865af415801561221b573d6000803e3d6000fd5b505050506040513d601f19601f8201168201806040525081019061223f9190613b88565b600c546040518363ffffffff1660e01b815260040161225f929190613b4a565b602060405180830381865af415801561227c573d6000803e3d6000fd5b505050506040513d601f19601f820116820180604052508101906122a09190613b88565b9050600073__FixidityLib___________________________633c4308a86005866040516122ce9190613f0f565b908152602001604051809103902054846040518363ffffffff1660e01b81526004016122fb929190613b4a565b602060405180830381865af4158015612318573d6000803e3d6000fd5b505050506040513d601f19601f8201168201806040525081019061233c9190613b88565b90508060038560405161234f9190613f0f565b90815260200160405180910390208190555050505b5b5050565b60008060008084905061237b8161259c565b809550819250505061238d818561280b565b809450819250505061239e81612b91565b8093508192505050509193909250565b6123b6612d5d565b6123be612d5d565b60005b835181101561249a578381815181106123dd576123dc613bb5565b5b60200260200101516000015173__StringUtils___________________________63bed34bba9091876040518363ffffffff1660e01b815260040161242392919061409d565b602060405180830381865af4158015612440573d6000803e3d6000fd5b505050506040513d601f19601f82011682018060405250810190612464919061410c565b156124875783818151811061247c5761247b613bb5565b5b602002602001015191505b808061249290613d8a565b9150506123c1565b508091505092915050565b6124ad612db0565b6124b5612db0565b60005b8351811015612591578381815181106124d4576124d3613bb5565b5b60200260200101516000015173__StringUtils___________________________63bed34bba9091876040518363ffffffff1660e01b815260040161251a92919061409d565b602060405180830381865af4158015612537573d6000803e3d6000fd5b505050506040513d601f19601f8201168201806040525081019061255b919061410c565b1561257e5783818151811061257357612572613bb5565b5b602002602001015191505b808061258990613d8a565b9150506124b8565b508091505092915050565b6000806000808493506107b292506301e1338060026125bb9190614139565b841015612604576301e13380846125d29190614193565b91506301e13380826125e49190614139565b846125ef91906141c4565b935081836125fd9190614206565b9250612804565b6301e1338060026126159190614139565b8461262091906141c4565b93506107b492506334aadc808410612733576334aadc808461264291906141c4565b9350601c836126519190614206565b92506402f0605980846126649190614193565b91506402f0605980826126779190614139565b8461268291906141c4565b9350610190826126929190614139565b8361269d9190614206565b92506126a883612bdb565b90508063ffffffff1684106126db578063ffffffff16846126c991906141c4565b93506001836126d89190614206565b92505b6126e483612c12565b6127325763bc17c200846126f89190614193565b915063bc17c2008261270a9190614139565b8461271591906141c4565b93506064826127249190614139565b8361272f9190614206565b92505b5b6307861f80846127439190614193565b91506307861f80826127559190614139565b8461276091906141c4565b935060048261276f9190614139565b8361277a9190614206565b925061278583612bdb565b90508063ffffffff1684106127b8578063ffffffff16846127a691906141c4565b93506001836127b59190614206565b92505b6127c183612c12565b612803576301e13380846127d59190614193565b91506301e13380826127e79190614139565b846127f291906141c4565b935081836128009190614206565b92505b5b5050915091565b600080612816612dd1565b61281e612df4565b85935061282a85612c12565b1561299557604051806101a00160405280600060ff168152602001601f60ff168152602001601d60ff168152602001601f60ff168152602001601e60ff168152602001601f60ff168152602001601e60ff168152602001601f60ff168152602001601f60ff168152602001601e60ff168152602001601f60ff168152602001601e60ff168152602001601f60ff168152509150604051806101a00160405280600063ffffffff1681526020016228de8063ffffffff168152602001624f1a0063ffffffff1681526020016277f88063ffffffff168152602001629f858063ffffffff16815260200162c8640063ffffffff16815260200162eff10063ffffffff168152602001630118cf8063ffffffff168152602001630141ae0063ffffffff1681526020016301693b0063ffffffff168152602001630192198063ffffffff1681526020016301b9a68063ffffffff1681526020016301e2850063ffffffff168152509050612af7565b604051806101a00160405280600060ff168152602001601f60ff168152602001601c60ff168152602001601f60ff168152602001601e60ff168152602001601f60ff168152602001601e60ff168152602001601f60ff168152602001601f60ff168152602001601e60ff168152602001601f60ff168152602001601e60ff168152602001601f60ff168152509150604051806101a00160405280600063ffffffff1681526020016228de8063ffffffff168152602001624dc88063ffffffff1681526020016276a70063ffffffff168152602001629e340063ffffffff16815260200162c7128063ffffffff16815260200162ee9f8063ffffffff1681526020016301177e0063ffffffff1681526020016301405c8063ffffffff168152602001630167e98063ffffffff168152602001630190c80063ffffffff1681526020016301b8550063ffffffff1681526020016301e1338063ffffffff1681525090505b6000600190505b600d8160ff161015612b8757818160ff16600d8110612b2057612b1f613bb5565b5b602002015163ffffffff16851015612b745780935081600182612b43919061424b565b60ff16600d8110612b5757612b56613bb5565b5b602002015163ffffffff1685612b6d91906141c4565b9450612b87565b8080612b7f9061427f565b915050612afe565b5050509250929050565b60008060008392506201518083612ba89190614193565b90506201518081612bb99190614139565b83612bc491906141c4565b9250600181612bd39190613e88565b915050915091565b6000612be682612c12565b15612c0557620151806301e13380612bfe9190613e88565b9050612c0d565b6301e1338090505b919050565b600080600483612c2291906142a8565b61ffff1614612c345760009050612c78565b600061019083612c4491906142a8565b61ffff161480612c6557506000606483612c5e91906142a8565b61ffff1614155b15612c735760019050612c78565b600090505b919050565b6040518060c001604052806060815260200160008152602001606081526020016000815260200160008152602001600081525090565b828054612cbf90613c13565b90600052602060002090601f016020900481019282612ce15760008555612d28565b82601f10612cfa57805160ff1916838001178555612d28565b82800160010185558215612d28579182015b82811115612d27578251825591602001919060010190612d0c565b5b509050612d359190612e17565b5090565b5080546000825560060290600052602060002090810190612d5a9190612e34565b50565b604051806101400160405280606081526020016000815260200160008152602001600081526020016000815260200160008152602001600081526020016000815260200160008152602001600081525090565b60405180606001604052806060815260200160008152602001600081525090565b604051806101a00160405280600d90602082028036833780820191505090505090565b604051806101a00160405280600d90602082028036833780820191505090505090565b5b80821115612e30576000816000905550600101612e18565b5090565b5b80821115612e875760008082016000612e4e9190612e8b565b6001820160009055600282016000612e669190612e8b565b60038201600090556004820160009055600582016000905550600601612e35565b5090565b508054612e9790613c13565b6000825580601f10612ea95750612ec8565b601f016020900490600052602060002090810190612ec79190612e17565b5b50565b6000604051905090565b600080fd5b600080fd5b600080fd5b600080fd5b6000601f19601f8301169050919050565b7f4e487b7100000000000000000000000000000000000000000000000000000000600052604160045260246000fd5b612f3282612ee9565b810181811067ffffffffffffffff82111715612f5157612f50612efa565b5b80604052505050565b6000612f64612ecb565b9050612f708282612f29565b919050565b600067ffffffffffffffff821115612f9057612f8f612efa565b5b612f9982612ee9565b9050602081019050919050565b82818337600083830152505050565b6000612fc8612fc384612f75565b612f5a565b905082815260208101848484011115612fe457612fe3612ee4565b5b612fef848285612fa6565b509392505050565b600082601f83011261300c5761300b612edf565b5b813561301c848260208601612fb5565b91505092915050565b6000819050919050565b61303881613025565b811461304357600080fd5b50565b6000813590506130558161302f565b92915050565b6000819050919050565b61306e8161305b565b811461307957600080fd5b50565b60008135905061308b81613065565b92915050565b600080600080608085870312156130ab576130aa612ed5565b5b600085013567ffffffffffffffff8111156130c9576130c8612eda565b5b6130d587828801612ff7565b94505060206130e687828801613046565b93505060406130f787828801613046565b92505060606131088782880161307c565b91505092959194509250565b600081519050919050565b600082825260208201905092915050565b60005b8381101561314e578082015181840152602081019050613133565b8381111561315d576000848401525b50505050565b600061316e82613114565b613178818561311f565b9350613188818560208601613130565b61319181612ee9565b840191505092915050565b6131a58161305b565b82525050565b6131b481613025565b82525050565b600060c08301600083015184820360008601526131d78282613163565b91505060208301516131ec602086018261319c565b50604083015184820360408601526132048282613163565b915050606083015161321960608601826131ab565b50608083015161322c60808601826131ab565b5060a083015161323f60a08601826131ab565b508091505092915050565b6000602082019050818103600083015261326481846131ba565b905092915050565b600067ffffffffffffffff82111561328757613286612efa565b5b602082029050602081019050919050565b600080fd5b600080fd5b600080fd5b6000606082840312156132bd576132bc61329d565b5b6132c76060612f5a565b9050600082013567ffffffffffffffff8111156132e7576132e66132a2565b5b6132f384828501612ff7565b600083015250602061330784828501613046565b602083015250604061331b84828501613046565b60408301525092915050565b600061333a6133358461326c565b612f5a565b9050808382526020820190506020840283018581111561335d5761335c613298565b5b835b818110156133a457803567ffffffffffffffff81111561338257613381612edf565b5b80860161338f89826132a7565b8552602085019450505060208101905061335f565b5050509392505050565b600082601f8301126133c3576133c2612edf565b5b81356133d3848260208601613327565b91505092915050565b6000602082840312156133f2576133f1612ed5565b5b600082013567ffffffffffffffff8111156134105761340f612eda565b5b61341c848285016133ae565b91505092915050565b600082825260208201905092915050565b600061344182613114565b61344b8185613425565b935061345b818560208601613130565b61346481612ee9565b840191505092915050565b600060208201905081810360008301526134898184613436565b905092915050565b600061020082840312156134a8576134a761329d565b5b6134b3610200612f5a565b9050600082013567ffffffffffffffff8111156134d3576134d26132a2565b5b6134df84828501612ff7565b600083015250602082013567ffffffffffffffff811115613503576135026132a2565b5b61350f84828501612ff7565b602083015250604082013567ffffffffffffffff811115613533576135326132a2565b5b61353f84828501612ff7565b604083015250606061355384828501613046565b606083015250608061356784828501613046565b60808301525060a061357b84828501613046565b60a08301525060c061358f84828501613046565b60c08301525060e06135a384828501613046565b60e0830152506101006135b884828501613046565b610100830152506101206135ce84828501613046565b610120830152506101406135e484828501613046565b610140830152506101606135fa84828501613046565b6101608301525061018061361084828501613046565b610180830152506101a061362684828501613046565b6101a0830152506101c061363c84828501613046565b6101c0830152506101e061365284828501613046565b6101e08301525092915050565b600067ffffffffffffffff82111561367a57613679612efa565b5b602082029050602081019050919050565b600061014082840312156136a2576136a161329d565b5b6136ad610140612f5a565b9050600082013567ffffffffffffffff8111156136cd576136cc6132a2565b5b6136d984828501612ff7565b60008301525060206136ed84828501613046565b602083015250604061370184828501613046565b604083015250606061371584828501613046565b606083015250608061372984828501613046565b60808301525060a061373d84828501613046565b60a08301525060c061375184828501613046565b60c08301525060e061376584828501613046565b60e08301525061010061377a84828501613046565b6101008301525061012061379084828501613046565b6101208301525092915050565b60006137b06137ab8461365f565b612f5a565b905080838252602082019050602084028301858111156137d3576137d2613298565b5b835b8181101561381a57803567ffffffffffffffff8111156137f8576137f7612edf565b5b808601613805898261368b565b855260208501945050506020810190506137d5565b5050509392505050565b600082601f83011261383957613838612edf565b5b813561384984826020860161379d565b91505092915050565b6000806000806080858703121561386c5761386b612ed5565b5b600085013567ffffffffffffffff81111561388a57613889612eda565b5b613896878288016133ae565b94505060206138a78782880161307c565b935050604085013567ffffffffffffffff8111156138c8576138c7612eda565b5b6138d487828801613491565b925050606085013567ffffffffffffffff8111156138f5576138f4612eda565b5b61390187828801613824565b91505092959194509250565b600081519050919050565b600082825260208201905092915050565b6000819050602082019050919050565b600060c08301600083015184820360008601526139568282613163565b915050602083015161396b602086018261319c565b50604083015184820360408601526139838282613163565b915050606083015161399860608601826131ab565b5060808301516139ab60808601826131ab565b5060a08301516139be60a08601826131ab565b508091505092915050565b60006139d58383613939565b905092915050565b6000602082019050919050565b60006139f58261390d565b6139ff8185613918565b935083602082028501613a1185613929565b8060005b85811015613a4d5784840389528151613a2e85826139c9565b9450613a39836139dd565b925060208a01995050600181019050613a15565b50829750879550505050505092915050565b60006020820190508181036000830152613a7981846139ea565b905092915050565b600060208284031215613a9757613a96612ed5565b5b6000613aa58482850161307c565b91505092915050565b613ab78161305b565b82525050565b613ac681613025565b82525050565b600060c0820190508181036000830152613ae68189613436565b9050613af56020830188613aae565b8181036040830152613b078187613436565b9050613b166060830186613abd565b613b236080830185613abd565b613b3060a0830184613abd565b979650505050505050565b613b4481613025565b82525050565b6000604082019050613b5f6000830185613b3b565b613b6c6020830184613b3b565b9392505050565b600081519050613b828161302f565b92915050565b600060208284031215613b9e57613b9d612ed5565b5b6000613bac84828501613b73565b91505092915050565b7f4e487b7100000000000000000000000000000000000000000000000000000000600052603260045260246000fd5b7f4e487b7100000000000000000000000000000000000000000000000000000000600052602260045260246000fd5b60006002820490506001821680613c2b57607f821691505b602082108103613c3e57613c3d613be4565b5b50919050565b7f4e487b7100000000000000000000000000000000000000000000000000000000600052601160045260246000fd5b6000613c7e82613025565b9150613c8983613025565b9250827f7fffffffffffffffffffffffffffffffffffffffffffffffffffffffffffffff0482116000841360008413161615613cc857613cc7613c44565b5b817f80000000000000000000000000000000000000000000000000000000000000000583126000841260008413161615613d0557613d04613c44565b5b827f80000000000000000000000000000000000000000000000000000000000000000582126000841360008412161615613d4257613d41613c44565b5b827f7fffffffffffffffffffffffffffffffffffffffffffffffffffffffffffffff0582126000841260008412161615613d7f57613d7e613c44565b5b828202905092915050565b6000613d958261305b565b91507fffffffffffffffffffffffffffffffffffffffffffffffffffffffffffffffff8203613dc757613dc6613c44565b5b600182019050919050565b600081905092915050565b60008190508160005260206000209050919050565b60008154613dff81613c13565b613e098186613dd2565b94506001821660008114613e245760018114613e3557613e68565b60ff19831686528186019350613e68565b613e3e85613ddd565b60005b83811015613e6057815481890152600182019150602081019050613e41565b838801955050505b50505092915050565b6000613e7d8284613df2565b915081905092915050565b6000613e938261305b565b9150613e9e8361305b565b9250827fffffffffffffffffffffffffffffffffffffffffffffffffffffffffffffffff03821115613ed357613ed2613c44565b5b828201905092915050565b6000613ee982613114565b613ef38185613dd2565b9350613f03818560208601613130565b80840191505092915050565b6000613f1b8284613ede565b915081905092915050565b7f4e487b7100000000000000000000000000000000000000000000000000000000600052601260045260246000fd5b6000613f6082613025565b9150613f6b83613025565b925082613f7b57613f7a613f26565b5b600160000383147f800000000000000000000000000000000000000000000000000000000000000083141615613fb457613fb3613c44565b5b828205905092915050565b6000613fca82613025565b9150613fd583613025565b9250827f8000000000000000000000000000000000000000000000000000000000000000018212600084121516156140105761400f613c44565b5b827f7fffffffffffffffffffffffffffffffffffffffffffffffffffffffffffffff01821360008412161561404857614047613c44565b5b828203905092915050565b600082825260208201905092915050565b600061406f82613114565b6140798185614053565b9350614089818560208601613130565b61409281612ee9565b840191505092915050565b600060408201905081810360008301526140b78185614064565b905081810360208301526140cb8184614064565b90509392505050565b60008115159050919050565b6140e9816140d4565b81146140f457600080fd5b50565b600081519050614106816140e0565b92915050565b60006020828403121561412257614121612ed5565b5b6000614130848285016140f7565b91505092915050565b60006141448261305b565b915061414f8361305b565b9250817fffffffffffffffffffffffffffffffffffffffffffffffffffffffffffffffff048311821515161561418857614187613c44565b5b828202905092915050565b600061419e8261305b565b91506141a98361305b565b9250826141b9576141b8613f26565b5b828204905092915050565b60006141cf8261305b565b91506141da8361305b565b9250828210156141ed576141ec613c44565b5b828203905092915050565b600061ffff82169050919050565b6000614211826141f8565b915061421c836141f8565b92508261ffff0382111561423357614232613c44565b5b828201905092915050565b600060ff82169050919050565b60006142568261423e565b91506142618361423e565b92508282101561427457614273613c44565b5b828203905092915050565b600061428a8261423e565b915060ff820361429d5761429c613c44565b5b600182019050919050565b60006142b3826141f8565b91506142be836141f8565b9250826142ce576142cd613f26565b5b82820690509291505056fea2646970667358221220babcf988f8ae6ca65f08216d645e52cfe5bf144fe54a43bde9408a3231aae21d64736f6c634300080d0033",
  "deployedBytecode": "0x608060405234801561001057600080fd5b50600436106100575760003560e01c806314ea6c191461005c5780631f75ba781461008c5780634358f911146100bc5780634f8ac98d146100ec578063d313b78c1461011c575b600080fd5b61007660048036038101906100719190613091565b610151565b604051610083919061324a565b60405180910390f35b6100a660048036038101906100a191906133dc565b61024a565b6040516100b3919061346f565b60405180910390f35b6100d660048036038101906100d19190613852565b610279565b6040516100e39190613a5f565b60405180910390f35b61010660048036038101906101019190613091565b610e98565b604051610113919061324a565b60405180910390f35b61013660048036038101906101319190613a81565b610f91565b60405161014896959493929190613acc565b60405180910390f35b610159612c7d565b600073__FixidityLib___________________________633c4308a886866040518363ffffffff1660e01b8152600401610194929190613b4a565b602060405180830381865af41580156101b1573d6000803e3d6000fd5b505050506040513d601f19601f820116820180604052508101906101d59190613b88565b905060006040518060c001604052808881526020018581526020016040518060400160405280600481526020017f53656c6c0000000000000000000000000000000000000000000000000000000081525081526020018781526020018681526020018381525090508092505050949350505050565b606060008260008151811061026257610261613bb5565b5b602002602001015160000151905080915050919050565b60606102866001546110ed565b61028f57600080fd5b61029b85858585611151565b6000600a54036105b757600073__FixidityLib___________________________63f598423660086000888152602001908152602001600020600a015460076000898152602001908152602001600020805490506040518363ffffffff1660e01b815260040161030c929190613b4a565b602060405180830381865af4158015610329573d6000803e3d6000fd5b505050506040513d601f19601f8201168201806040525081019061034d9190613b88565b905060005b60076000878152602001908152602001600020805490508110156105b057600060076000888152602001908152602001600020828154811061039757610396613bb5565b5b90600052602060002090600302016040518060600160405290816000820180546103c090613c13565b80601f01602080910402602001604051908101604052809291908181526020018280546103ec90613c13565b80156104395780601f1061040e57610100808354040283529160200191610439565b820191906000526020600020905b81548152906001019060200180831161041c57829003601f168201915b505050505081526020016001820154815260200160028201548152505090506000816000015190506000826040015190506000600373__FixidityLib___________________________63f59842368887604001516040518363ffffffff1660e01b81526004016104ab929190613b4a565b602060405180830381865af41580156104c8573d6000803e3d6000fd5b505050506040513d601f19601f820116820180604052508101906104ec9190613b88565b6104f69190613c73565b905060006105068483858e610e98565b9050600d8190806001815401808255809150506001900390600052602060002090600602016000909190919091506000820151816000019080519060200190610550929190612cb3565b50602082015181600101556040820151816002019080519060200190610577929190612cb3565b50606082015181600301556080820151816004015560a082015181600501555050505050505080806105a890613d8a565b915050610352565b5050610c58565b600073__FixidityLib___________________________633c4308a8600b5460086000898152602001908152602001600020600f01546040518363ffffffff1660e01b815260040161060a929190613b4a565b602060405180830381865af4158015610627573d6000803e3d6000fd5b505050506040513d601f19601f8201168201806040525081019061064b9190613b88565b905060005b6007600087815260200190815260200160002080549050811015610aa057600060076000888152602001908152602001600020828154811061069557610694613bb5565b5b906000526020600020906003020160020154905060006007600089815260200190815260200160002083815481106106d0576106cf613bb5565b5b906000526020600020906003020160000180546106ec90613c13565b80601f016020809104026020016040519081016040528092919081815260200182805461071890613c13565b80156107655780601f1061073a57610100808354040283529160200191610765565b820191906000526020600020905b81548152906001019060200180831161074857829003601f168201915b505050505090506002600760008a8152602001908152602001600020848154811061079357610792613bb5565b5b90600052602060002090600302016000016040516107b19190613e71565b908152602001604051809103902060009054906101000a900460ff1615610887576107dc818361169b565b156108825760006107ee82848b6116e3565b9050600d8190806001815401808255809150506001900390600052602060002090600602016000909190919091506000820151816000019080519060200190610838929190612cb3565b5060208201518160010155604082015181600201908051906020019061085f929190612cb3565b50606082015181600301556080820151816004015560a082015181600501555050505b610a8b565b610891818361185e565b156108ab5760006108a382848b611889565b905050610a8a565b83600860008a8152602001908152602001600020600601541315610a8957600073__FixidityLib___________________________63b93ea812600860008c815260200190815260200160002060060154876040518363ffffffff1660e01b815260040161091a929190613b4a565b602060405180830381865af4158015610937573d6000803e3d6000fd5b505050506040513d601f19601f8201168201806040525081019061095b9190613b88565b9050600073__FixidityLib___________________________63f598423683866040518363ffffffff1660e01b8152600401610998929190613b4a565b602060405180830381865af41580156109b5573d6000803e3d6000fd5b505050506040513d601f19601f820116820180604052508101906109d99190613b88565b90506000811315610a865760006109f28483878e610e98565b9050600d8190806001815401808255809150506001900390600052602060002090600602016000909190919091506000820151816000019080519060200190610a3c929190612cb3565b50602082015181600101556040820151816002019080519060200190610a63929190612cb3565b50606082015181600301556080820151816004015560a082015181600501555050505b50505b5b5b50508080610a9890613d8a565b915050610650565b5060005b6007600087815260200190815260200160002080549050811015610c55576000600760008881526020019081526020016000208281548110610ae957610ae8613bb5565b5b90600052602060002090600302016002015490506000600760008981526020019081526020016000208381548110610b2457610b23613bb5565b5b90600052602060002090600302016000018054610b4090613c13565b80601f0160208091040260200160405190810160405280929190818152602001828054610b6c90613c13565b8015610bb95780601f10610b8e57610100808354040283529160200191610bb9565b820191906000526020600020905b815481529060010190602001808311610b9c57829003601f168201915b505050505090506002600760008a81526020019081526020016000208481548110610be757610be6613bb5565b5b9060005260206000209060030201600001604051610c059190613e71565b908152602001604051809103902060009054906101000a900460ff1615610c3557610c308183611cc6565b610c40565b610c3f8183611f72565b5b50508080610c4d90613d8a565b915050610aa4565b50505b836000819055506001600a54610c6e9190613e88565b600a819055506000600d8054905067ffffffffffffffff811115610c9557610c94612efa565b5b604051908082528060200260200182016040528015610cce57816020015b610cbb612c7d565b815260200190600190039081610cb35790505b50905060005b600d80549050811015610e8b57600d8181548110610cf557610cf4613bb5565b5b90600052602060002090600602016040518060c0016040529081600082018054610d1e90613c13565b80601f0160208091040260200160405190810160405280929190818152602001828054610d4a90613c13565b8015610d975780601f10610d6c57610100808354040283529160200191610d97565b820191906000526020600020905b815481529060010190602001808311610d7a57829003601f168201915b5050505050815260200160018201548152602001600282018054610dba90613c13565b80601f0160208091040260200160405190810160405280929190818152602001828054610de690613c13565b8015610e335780601f10610e0857610100808354040283529160200191610e33565b820191906000526020600020905b815481529060010190602001808311610e1657829003601f168201915b505050505081526020016003820154815260200160048201548152602001600582015481525050828281518110610e6d57610e6c613bb5565b5b60200260200101819052508080610e8390613d8a565b915050610cd4565b5080915050949350505050565b610ea0612c7d565b600073__FixidityLib___________________________633c4308a886866040518363ffffffff1660e01b8152600401610edb929190613b4a565b602060405180830381865af4158015610ef8573d6000803e3d6000fd5b505050506040513d601f19601f82011682018060405250810190610f1c9190613b88565b905060006040518060c001604052808881526020018581526020016040518060400160405280600381526020017f427579000000000000000000000000000000000000000000000000000000000081525081526020018781526020018681526020018381525090508092505050949350505050565b600d8181548110610fa157600080fd5b9060005260206000209060060201600091509050806000018054610fc490613c13565b80601f0160208091040260200160405190810160405280929190818152602001828054610ff090613c13565b801561103d5780601f106110125761010080835404028352916020019161103d565b820191906000526020600020905b81548152906001019060200180831161102057829003601f168201915b50505050509080600101549080600201805461105890613c13565b80601f016020809104026020016040519081016040528092919081815260200182805461108490613c13565b80156110d15780601f106110a6576101008083540402835291602001916110d1565b820191906000526020600020905b8154815290600101906020018083116110b457829003601f168201915b5050505050908060030154908060040154908060050154905086565b6000806000905060008060008060008061110689612369565b80965081975082985050505061111d600054612369565b8093508194508295505050508160ff168560ff16146111425760019650886000819055505b86975050505050505050919050565b826001819055506000600a54036112745760005b845181101561127257600085828151811061118357611182613bb5565b5b6020026020010151905060008160000151905060006002826040516111a89190613f0f565b908152602001604051809103902060006101000a81548160ff02191690831515021790555060006003826040516111df9190613f0f565b90815260200160405180910390208190555060006004826040516112039190613f0f565b90815260200160405180910390208190555060006005826040516112279190613f0f565b908152602001604051809103902081905550600060068260405161124b9190613f0f565b9081526020016040518091039020819055505050808061126a90613d8a565b915050611165565b505b600060076000858152602001908152602001600020905060005b85518110156113615760008682815181106112ac576112ab613bb5565b5b6020026020010151905080602001518383815481106112ce576112cd613bb5565b5b90600052602060002090600302016001018190555080604001518383815481106112fb576112fa613bb5565b5b906000526020600020906003020160020181905550806000015183838154811061132857611327613bb5565b5b9060005260206000209060030201600001908051906020019061134c929190612cb3565b5050808061135990613d8a565b91505061128e565b50600060096000868152602001908152602001600020905060005b835181101561158c57600084828151811061139a57611399613bb5565b5b6020026020010151905080600001518383815481106113bc576113bb613bb5565b5b90600052602060002090600a020160000190805190602001906113e0929190612cb3565b5080606001518383815481106113f9576113f8613bb5565b5b90600052602060002090600a02016003018190555080610120015183838154811061142757611426613bb5565b5b90600052602060002090600a0201600901819055508060e0015183838154811061145457611453613bb5565b5b90600052602060002090600a02016007018190555080610100015183838154811061148257611481613bb5565b5b90600052602060002090600a02016008018190555080604001518383815481106114af576114ae613bb5565b5b90600052602060002090600a02016002018190555080608001518383815481106114dc576114db613bb5565b5b90600052602060002090600a020160040181905550806020015183838154811061150957611508613bb5565b5b90600052602060002090600a0201600101819055508060a0015183838154811061153657611535613bb5565b5b90600052602060002090600a0201600501819055508060c0015183838154811061156357611562613bb5565b5b90600052602060002090600a02016006018190555050808061158490613d8a565b91505061137c565b50836008600087815260200190815260200160002060008201518160000190805190602001906115bd929190612cb3565b5060208201518160010190805190602001906115da929190612cb3565b5060408201518160020190805190602001906115f7929190612cb3565b50606082015181600301556080820151816004015560a0820151816005015560c0820151816006015560e082015181600701556101008201518160080155610120820151816009015561014082015181600a015561016082015181600b015561018082015181600c01556101a082015181600d01556101c082015181600e01556101e082015181600f0155905050600d60006116939190612d39565b505050505050565b600080606560646003866040516116b29190613f0f565b9081526020016040518091039020546116cb9190613f55565b6116d59190613c73565b905080831391505092915050565b6116eb612c7d565b6116f3612c7d565b60006004866040516117059190613f0f565b9081526020016040518091039020549050600073__FixidityLib___________________________633c4308a883886040518363ffffffff1660e01b8152600401611751929190613b4a565b602060405180830381865af415801561176e573d6000803e3d6000fd5b505050506040513d601f19601f820116820180604052508101906117929190613b88565b9050806008600087815260200190815260200160002060070154126117c4576117bd87838888610e98565b92506117f7565b8560086000878152602001908152602001600020600701546117e69190613f55565b91506117f487838888610e98565b92505b60006002886040516118099190613f0f565b908152602001604051809103902060006101000a81548160ff0219169083151502179055508560058860405161183f9190613f0f565b9081526020016040518091039020819055508293505050509392505050565b60006003836040516118709190613f0f565b9081526020016040518091039020548212905092915050565b611891612c7d565b60006119f28560096000868152602001908152602001600020805480602002602001604051908101604052809291908181526020016000905b828210156119e957838290600052602060002090600a0201604051806101400160405290816000820180546118fe90613c13565b80601f016020809104026020016040519081016040528092919081815260200182805461192a90613c13565b80156119775780601f1061194c57610100808354040283529160200191611977565b820191906000526020600020905b81548152906001019060200180831161195a57829003601f168201915b505050505081526020016001820154815260200160028201548152602001600382015481526020016004820154815260200160058201548152602001600682015481526020016007820154815260200160088201548152602001600982015481525050815260200190600101906118ca565b505050506123ae565b90506000611b0e8660076000878152602001908152602001600020805480602002602001604051908101604052809291908181526020016000905b82821015611b055783829060005260206000209060030201604051806060016040529081600082018054611a6090613c13565b80601f0160208091040260200160405190810160405280929190818152602001828054611a8c90613c13565b8015611ad95780601f10611aae57610100808354040283529160200191611ad9565b820191906000526020600020905b815481529060010190602001808311611abc57829003601f168201915b505050505081526020016001820154815260200160028201548152505081526020019060010190611a2d565b505050506124a5565b9050600082602001519050600060076000878152602001908152602001600020805490506008600088815260200190815260200160002060090154611b539190613f55565b9050600073__FixidityLib___________________________63f59842368386604001516040518363ffffffff1660e01b8152600401611b94929190613b4a565b602060405180830381865af4158015611bb1573d6000803e3d6000fd5b505050506040513d601f19601f82011682018060405250810190611bd59190613b88565b90506000600a600c83611be89190613c73565b611bf29190613f55565b905060008185611c029190613fbf565b90506000611c128c838d8d610151565b90508a60038d604051611c259190613f0f565b9081526020016040518091039020819055508160048d604051611c489190613f0f565b9081526020016040518091039020819055508a60068d604051611c6b9190613f0f565b908152602001604051809103902081905550600160028d604051611c8f9190613f0f565b908152602001604051809103902060006101000a81548160ff02191690831515021790555080985050505050505050509392505050565b6000606473__FixidityLib___________________________632179bb6c6040518163ffffffff1660e01b8152600401602060405180830381865af4158015611d13573d6000803e3d6000fd5b505050506040513d601f19601f82011682018060405250810190611d379190613b88565b6046611d439190613c73565b611d4d9190613f55565b905073__FixidityLib___________________________633c4308a8600385604051611d799190613f0f565b908152602001604051809103902054836040518363ffffffff1660e01b8152600401611da6929190613b4a565b602060405180830381865af4158015611dc3573d6000803e3d6000fd5b505050506040513d601f19601f82011682018060405250810190611de79190613b88565b821215611f6d57600073__FixidityLib___________________________63b93ea812600686604051611e1a9190613f0f565b908152602001604051809103902054856040518363ffffffff1660e01b8152600401611e47929190613b4a565b602060405180830381865af4158015611e64573d6000803e3d6000fd5b505050506040513d601f19601f82011682018060405250810190611e889190613b88565b905060006064603273__FixidityLib___________________________63a5f3c23b87866040518363ffffffff1660e01b8152600401611ec9929190613b4a565b602060405180830381865af4158015611ee6573d6000803e3d6000fd5b505050506040513d601f19601f82011682018060405250810190611f0a9190613b88565b611f149190613c73565b611f1e9190613f55565b9050600385604051611f309190613f0f565b908152602001604051809103902054811215611f6a5780600386604051611f579190613f0f565b9081526020016040518091039020819055505b50505b505050565b6000600583604051611f849190613f0f565b9081526020016040518091039020540361216d5780600583604051611fa99190613f0f565b908152602001604051809103902081905550600073__FixidityLib___________________________63b93ea81273__FixidityLib___________________________632179bb6c6040518163ffffffff1660e01b8152600401602060405180830381865af4158015612020573d6000803e3d6000fd5b505050506040513d601f19601f820116820180604052508101906120449190613b88565b600c546040518363ffffffff1660e01b8152600401612064929190613b4a565b602060405180830381865af4158015612081573d6000803e3d6000fd5b505050506040513d601f19601f820116820180604052508101906120a59190613b88565b9050600073__FixidityLib___________________________633c4308a86005866040516120d39190613f0f565b908152602001604051809103902054846040518363ffffffff1660e01b8152600401612100929190613b4a565b602060405180830381865af415801561211d573d6000803e3d6000fd5b505050506040513d601f19601f820116820180604052508101906121419190613b88565b9050806003856040516121549190613f0f565b9081526020016040518091039020819055505050612365565b60058260405161217d9190613f0f565b90815260200160405180910390205481131561236457806005836040516121a49190613f0f565b908152602001604051809103902081905550600073__FixidityLib___________________________63b93ea81273__FixidityLib___________________________632179bb6c6040518163ffffffff1660e01b8152600401602060405180830381865af415801561221b573d6000803e3d6000fd5b505050506040513d601f19601f8201168201806040525081019061223f9190613b88565b600c546040518363ffffffff1660e01b815260040161225f929190613b4a565b602060405180830381865af415801561227c573d6000803e3d6000fd5b505050506040513d601f19601f820116820180604052508101906122a09190613b88565b9050600073__FixidityLib___________________________633c4308a86005866040516122ce9190613f0f565b908152602001604051809103902054846040518363ffffffff1660e01b81526004016122fb929190613b4a565b602060405180830381865af4158015612318573d6000803e3d6000fd5b505050506040513d601f19601f8201168201806040525081019061233c9190613b88565b90508060038560405161234f9190613f0f565b90815260200160405180910390208190555050505b5b5050565b60008060008084905061237b8161259c565b809550819250505061238d818561280b565b809450819250505061239e81612b91565b8093508192505050509193909250565b6123b6612d5d565b6123be612d5d565b60005b835181101561249a578381815181106123dd576123dc613bb5565b5b60200260200101516000015173__StringUtils___________________________63bed34bba9091876040518363ffffffff1660e01b815260040161242392919061409d565b602060405180830381865af4158015612440573d6000803e3d6000fd5b505050506040513d601f19601f82011682018060405250810190612464919061410c565b156124875783818151811061247c5761247b613bb5565b5b602002602001015191505b808061249290613d8a565b9150506123c1565b508091505092915050565b6124ad612db0565b6124b5612db0565b60005b8351811015612591578381815181106124d4576124d3613bb5565b5b60200260200101516000015173__StringUtils___________________________63bed34bba9091876040518363ffffffff1660e01b815260040161251a92919061409d565b602060405180830381865af4158015612537573d6000803e3d6000fd5b505050506040513d601f19601f8201168201806040525081019061255b919061410c565b1561257e5783818151811061257357612572613bb5565b5b602002602001015191505b808061258990613d8a565b9150506124b8565b508091505092915050565b6000806000808493506107b292506301e1338060026125bb9190614139565b841015612604576301e13380846125d29190614193565b91506301e13380826125e49190614139565b846125ef91906141c4565b935081836125fd9190614206565b9250612804565b6301e1338060026126159190614139565b8461262091906141c4565b93506107b492506334aadc808410612733576334aadc808461264291906141c4565b9350601c836126519190614206565b92506402f0605980846126649190614193565b91506402f0605980826126779190614139565b8461268291906141c4565b9350610190826126929190614139565b8361269d9190614206565b92506126a883612bdb565b90508063ffffffff1684106126db578063ffffffff16846126c991906141c4565b93506001836126d89190614206565b92505b6126e483612c12565b6127325763bc17c200846126f89190614193565b915063bc17c2008261270a9190614139565b8461271591906141c4565b93506064826127249190614139565b8361272f9190614206565b92505b5b6307861f80846127439190614193565b91506307861f80826127559190614139565b8461276091906141c4565b935060048261276f9190614139565b8361277a9190614206565b925061278583612bdb565b90508063ffffffff1684106127b8578063ffffffff16846127a691906141c4565b93506001836127b59190614206565b92505b6127c183612c12565b612803576301e13380846127d59190614193565b91506301e13380826127e79190614139565b846127f291906141c4565b935081836128009190614206565b92505b5b5050915091565b600080612816612dd1565b61281e612df4565b85935061282a85612c12565b1561299557604051806101a00160405280600060ff168152602001601f60ff168152602001601d60ff168152602001601f60ff168152602001601e60ff168152602001601f60ff168152602001601e60ff168152602001601f60ff168152602001601f60ff168152602001601e60ff168152602001601f60ff168152602001601e60ff168152602001601f60ff168152509150604051806101a00160405280600063ffffffff1681526020016228de8063ffffffff168152602001624f1a0063ffffffff1681526020016277f88063ffffffff168152602001629f858063ffffffff16815260200162c8640063ffffffff16815260200162eff10063ffffffff168152602001630118cf8063ffffffff168152602001630141ae0063ffffffff1681526020016301693b0063ffffffff168152602001630192198063ffffffff1681526020016301b9a68063ffffffff1681526020016301e2850063ffffffff168152509050612af7565b604051806101a00160405280600060ff168152602001601f60ff168152602001601c60ff168152602001601f60ff168152602001601e60ff168152602001601f60ff168152602001601e60ff168152602001601f60ff168152602001601f60ff168152602001601e60ff168152602001601f60ff168152602001601e60ff168152602001601f60ff168152509150604051806101a00160405280600063ffffffff1681526020016228de8063ffffffff168152602001624dc88063ffffffff1681526020016276a70063ffffffff168152602001629e340063ffffffff16815260200162c7128063ffffffff16815260200162ee9f8063ffffffff1681526020016301177e0063ffffffff1681526020016301405c8063ffffffff168152602001630167e98063ffffffff168152602001630190c80063ffffffff1681526020016301b8550063ffffffff1681526020016301e1338063ffffffff1681525090505b6000600190505b600d8160ff161015612b8757818160ff16600d8110612b2057612b1f613bb5565b5b602002015163ffffffff16851015612b745780935081600182612b43919061424b565b60ff16600d8110612b5757612b56613bb5565b5b602002015163ffffffff1685612b6d91906141c4565b9450612b87565b8080612b7f9061427f565b915050612afe565b5050509250929050565b60008060008392506201518083612ba89190614193565b90506201518081612bb99190614139565b83612bc491906141c4565b9250600181612bd39190613e88565b915050915091565b6000612be682612c12565b15612c0557620151806301e13380612bfe9190613e88565b9050612c0d565b6301e1338090505b919050565b600080600483612c2291906142a8565b61ffff1614612c345760009050612c78565b600061019083612c4491906142a8565b61ffff161480612c6557506000606483612c5e91906142a8565b61ffff1614155b15612c735760019050612c78565b600090505b919050565b6040518060c001604052806060815260200160008152602001606081526020016000815260200160008152602001600081525090565b828054612cbf90613c13565b90600052602060002090601f016020900481019282612ce15760008555612d28565b82601f10612cfa57805160ff1916838001178555612d28565b82800160010185558215612d28579182015b82811115612d27578251825591602001919060010190612d0c565b5b509050612d359190612e17565b5090565b5080546000825560060290600052602060002090810190612d5a9190612e34565b50565b604051806101400160405280606081526020016000815260200160008152602001600081526020016000815260200160008152602001600081526020016000815260200160008152602001600081525090565b60405180606001604052806060815260200160008152602001600081525090565b604051806101a00160405280600d90602082028036833780820191505090505090565b604051806101a00160405280600d90602082028036833780820191505090505090565b5b80821115612e30576000816000905550600101612e18565b5090565b5b80821115612e875760008082016000612e4e9190612e8b565b6001820160009055600282016000612e669190612e8b565b60038201600090556004820160009055600582016000905550600601612e35565b5090565b508054612e9790613c13565b6000825580601f10612ea95750612ec8565b601f016020900490600052602060002090810190612ec79190612e17565b5b50565b6000604051905090565b600080fd5b600080fd5b600080fd5b600080fd5b6000601f19601f8301169050919050565b7f4e487b7100000000000000000000000000000000000000000000000000000000600052604160045260246000fd5b612f3282612ee9565b810181811067ffffffffffffffff82111715612f5157612f50612efa565b5b80604052505050565b6000612f64612ecb565b9050612f708282612f29565b919050565b600067ffffffffffffffff821115612f9057612f8f612efa565b5b612f9982612ee9565b9050602081019050919050565b82818337600083830152505050565b6000612fc8612fc384612f75565b612f5a565b905082815260208101848484011115612fe457612fe3612ee4565b5b612fef848285612fa6565b509392505050565b600082601f83011261300c5761300b612edf565b5b813561301c848260208601612fb5565b91505092915050565b6000819050919050565b61303881613025565b811461304357600080fd5b50565b6000813590506130558161302f565b92915050565b6000819050919050565b61306e8161305b565b811461307957600080fd5b50565b60008135905061308b81613065565b92915050565b600080600080608085870312156130ab576130aa612ed5565b5b600085013567ffffffffffffffff8111156130c9576130c8612eda565b5b6130d587828801612ff7565b94505060206130e687828801613046565b93505060406130f787828801613046565b92505060606131088782880161307c565b91505092959194509250565b600081519050919050565b600082825260208201905092915050565b60005b8381101561314e578082015181840152602081019050613133565b8381111561315d576000848401525b50505050565b600061316e82613114565b613178818561311f565b9350613188818560208601613130565b61319181612ee9565b840191505092915050565b6131a58161305b565b82525050565b6131b481613025565b82525050565b600060c08301600083015184820360008601526131d78282613163565b91505060208301516131ec602086018261319c565b50604083015184820360408601526132048282613163565b915050606083015161321960608601826131ab565b50608083015161322c60808601826131ab565b5060a083015161323f60a08601826131ab565b508091505092915050565b6000602082019050818103600083015261326481846131ba565b905092915050565b600067ffffffffffffffff82111561328757613286612efa565b5b602082029050602081019050919050565b600080fd5b600080fd5b600080fd5b6000606082840312156132bd576132bc61329d565b5b6132c76060612f5a565b9050600082013567ffffffffffffffff8111156132e7576132e66132a2565b5b6132f384828501612ff7565b600083015250602061330784828501613046565b602083015250604061331b84828501613046565b60408301525092915050565b600061333a6133358461326c565b612f5a565b9050808382526020820190506020840283018581111561335d5761335c613298565b5b835b818110156133a457803567ffffffffffffffff81111561338257613381612edf565b5b80860161338f89826132a7565b8552602085019450505060208101905061335f565b5050509392505050565b600082601f8301126133c3576133c2612edf565b5b81356133d3848260208601613327565b91505092915050565b6000602082840312156133f2576133f1612ed5565b5b600082013567ffffffffffffffff8111156134105761340f612eda565b5b61341c848285016133ae565b91505092915050565b600082825260208201905092915050565b600061344182613114565b61344b8185613425565b935061345b818560208601613130565b61346481612ee9565b840191505092915050565b600060208201905081810360008301526134898184613436565b905092915050565b600061020082840312156134a8576134a761329d565b5b6134b3610200612f5a565b9050600082013567ffffffffffffffff8111156134d3576134d26132a2565b5b6134df84828501612ff7565b600083015250602082013567ffffffffffffffff811115613503576135026132a2565b5b61350f84828501612ff7565b602083015250604082013567ffffffffffffffff811115613533576135326132a2565b5b61353f84828501612ff7565b604083015250606061355384828501613046565b606083015250608061356784828501613046565b60808301525060a061357b84828501613046565b60a08301525060c061358f84828501613046565b60c08301525060e06135a384828501613046565b60e0830152506101006135b884828501613046565b610100830152506101206135ce84828501613046565b610120830152506101406135e484828501613046565b610140830152506101606135fa84828501613046565b6101608301525061018061361084828501613046565b610180830152506101a061362684828501613046565b6101a0830152506101c061363c84828501613046565b6101c0830152506101e061365284828501613046565b6101e08301525092915050565b600067ffffffffffffffff82111561367a57613679612efa565b5b602082029050602081019050919050565b600061014082840312156136a2576136a161329d565b5b6136ad610140612f5a565b9050600082013567ffffffffffffffff8111156136cd576136cc6132a2565b5b6136d984828501612ff7565b60008301525060206136ed84828501613046565b602083015250604061370184828501613046565b604083015250606061371584828501613046565b606083015250608061372984828501613046565b60808301525060a061373d84828501613046565b60a08301525060c061375184828501613046565b60c08301525060e061376584828501613046565b60e08301525061010061377a84828501613046565b6101008301525061012061379084828501613046565b6101208301525092915050565b60006137b06137ab8461365f565b612f5a565b905080838252602082019050602084028301858111156137d3576137d2613298565b5b835b8181101561381a57803567ffffffffffffffff8111156137f8576137f7612edf565b5b808601613805898261368b565b855260208501945050506020810190506137d5565b5050509392505050565b600082601f83011261383957613838612edf565b5b813561384984826020860161379d565b91505092915050565b6000806000806080858703121561386c5761386b612ed5565b5b600085013567ffffffffffffffff81111561388a57613889612eda565b5b613896878288016133ae565b94505060206138a78782880161307c565b935050604085013567ffffffffffffffff8111156138c8576138c7612eda565b5b6138d487828801613491565b925050606085013567ffffffffffffffff8111156138f5576138f4612eda565b5b61390187828801613824565b91505092959194509250565b600081519050919050565b600082825260208201905092915050565b6000819050602082019050919050565b600060c08301600083015184820360008601526139568282613163565b915050602083015161396b602086018261319c565b50604083015184820360408601526139838282613163565b915050606083015161399860608601826131ab565b5060808301516139ab60808601826131ab565b5060a08301516139be60a08601826131ab565b508091505092915050565b60006139d58383613939565b905092915050565b6000602082019050919050565b60006139f58261390d565b6139ff8185613918565b935083602082028501613a1185613929565b8060005b85811015613a4d5784840389528151613a2e85826139c9565b9450613a39836139dd565b925060208a01995050600181019050613a15565b50829750879550505050505092915050565b60006020820190508181036000830152613a7981846139ea565b905092915050565b600060208284031215613a9757613a96612ed5565b5b6000613aa58482850161307c565b91505092915050565b613ab78161305b565b82525050565b613ac681613025565b82525050565b600060c0820190508181036000830152613ae68189613436565b9050613af56020830188613aae565b8181036040830152613b078187613436565b9050613b166060830186613abd565b613b236080830185613abd565b613b3060a0830184613abd565b979650505050505050565b613b4481613025565b82525050565b6000604082019050613b5f6000830185613b3b565b613b6c6020830184613b3b565b9392505050565b600081519050613b828161302f565b92915050565b600060208284031215613b9e57613b9d612ed5565b5b6000613bac84828501613b73565b91505092915050565b7f4e487b7100000000000000000000000000000000000000000000000000000000600052603260045260246000fd5b7f4e487b7100000000000000000000000000000000000000000000000000000000600052602260045260246000fd5b60006002820490506001821680613c2b57607f821691505b602082108103613c3e57613c3d613be4565b5b50919050565b7f4e487b7100000000000000000000000000000000000000000000000000000000600052601160045260246000fd5b6000613c7e82613025565b9150613c8983613025565b9250827f7fffffffffffffffffffffffffffffffffffffffffffffffffffffffffffffff0482116000841360008413161615613cc857613cc7613c44565b5b817f80000000000000000000000000000000000000000000000000000000000000000583126000841260008413161615613d0557613d04613c44565b5b827f80000000000000000000000000000000000000000000000000000000000000000582126000841360008412161615613d4257613d41613c44565b5b827f7fffffffffffffffffffffffffffffffffffffffffffffffffffffffffffffff0582126000841260008412161615613d7f57613d7e613c44565b5b828202905092915050565b6000613d958261305b565b91507fffffffffffffffffffffffffffffffffffffffffffffffffffffffffffffffff8203613dc757613dc6613c44565b5b600182019050919050565b600081905092915050565b60008190508160005260206000209050919050565b60008154613dff81613c13565b613e098186613dd2565b94506001821660008114613e245760018114613e3557613e68565b60ff19831686528186019350613e68565b613e3e85613ddd565b60005b83811015613e6057815481890152600182019150602081019050613e41565b838801955050505b50505092915050565b6000613e7d8284613df2565b915081905092915050565b6000613e938261305b565b9150613e9e8361305b565b9250827fffffffffffffffffffffffffffffffffffffffffffffffffffffffffffffffff03821115613ed357613ed2613c44565b5b828201905092915050565b6000613ee982613114565b613ef38185613dd2565b9350613f03818560208601613130565b80840191505092915050565b6000613f1b8284613ede565b915081905092915050565b7f4e487b7100000000000000000000000000000000000000000000000000000000600052601260045260246000fd5b6000613f6082613025565b9150613f6b83613025565b925082613f7b57613f7a613f26565b5b600160000383147f800000000000000000000000000000000000000000000000000000000000000083141615613fb457613fb3613c44565b5b828205905092915050565b6000613fca82613025565b9150613fd583613025565b9250827f8000000000000000000000000000000000000000000000000000000000000000018212600084121516156140105761400f613c44565b5b827f7fffffffffffffffffffffffffffffffffffffffffffffffffffffffffffffff01821360008412161561404857614047613c44565b5b828203905092915050565b600082825260208201905092915050565b600061406f82613114565b6140798185614053565b9350614089818560208601613130565b61409281612ee9565b840191505092915050565b600060408201905081810360008301526140b78185614064565b905081810360208301526140cb8184614064565b90509392505050565b60008115159050919050565b6140e9816140d4565b81146140f457600080fd5b50565b600081519050614106816140e0565b92915050565b60006020828403121561412257614121612ed5565b5b6000614130848285016140f7565b91505092915050565b60006141448261305b565b915061414f8361305b565b9250817fffffffffffffffffffffffffffffffffffffffffffffffffffffffffffffffff048311821515161561418857614187613c44565b5b828202905092915050565b600061419e8261305b565b91506141a98361305b565b9250826141b9576141b8613f26565b5b828204905092915050565b60006141cf8261305b565b91506141da8361305b565b9250828210156141ed576141ec613c44565b5b828203905092915050565b600061ffff82169050919050565b6000614211826141f8565b915061421c836141f8565b92508261ffff0382111561423357614232613c44565b5b828201905092915050565b600060ff82169050919050565b60006142568261423e565b91506142618361423e565b92508282101561427457614273613c44565b5b828203905092915050565b600061428a8261423e565b915060ff820361429d5761429c613c44565b5b600182019050919050565b60006142b3826141f8565b91506142be836141f8565b9250826142ce576142cd613f26565b5b82820690509291505056fea2646970667358221220babcf988f8ae6ca65f08216d645e52cfe5bf144fe54a43bde9408a3231aae21d64736f6c634300080d0033",
  "immutableReferences": {},
  "source": "pragma solidity ^0.8.13;\r\nimport \"./utils/DateUtils.sol\";\r\nimport \"./utils/FixidityLib.sol\";\r\nimport \"./agents/TradeAgent.sol\";\r\nimport \"./Object.sol\";\r\n\r\ncontract RebalanceMarginWifMaxDrawdownControl is Object, TradeAgent{\r\n    using DateUtils for *;\r\n    using StringUtils for string;\r\n    event LogActionMsg(string actionMsgs);\r\n\r\n    uint256 lastExecutedTimestamp;\r\n    uint256 timestamp;\r\n    mapping (string => bool) maxDrawdownDodge;\r\n    mapping (string => int256) benchmarkDrawdownPrice;\r\n    mapping (string => int256) liquidateTickerQty;\r\n    mapping (string => int256) maxStockPrice;\r\n    mapping (string => int256) liquidateTickerPrice;\r\n    mapping (uint256 => RealTimeTickerData[]) realTimeTickersData;\r\n    mapping (uint256 => PortfolioData)  portfolioData;\r\n    mapping (uint256 => PortfolioHolding[]) portfolioHoldingsData;\r\n    uint256 loop = 0;\r\n    int256 rebalanceMargin = int256(5) * FixidityLib.fixed1() / int256(100);\r\n    int256 maxDrawdown = int256(5) * FixidityLib.fixed1() / int256(1000);\r\n    ActionMsg[] public actionMsgs;\r\n\r\n    constructor(){\r\n\r\n    }\r\n\r\n    function test(RealTimeTickerData[] memory tickerData)public returns(string memory){\r\n        string memory tickerName = tickerData[0].tickerName;\r\n        return tickerName;\r\n    }\r\n\r\n    function run(RealTimeTickerData[] memory _tickerData, uint256 _timeStamp, PortfolioData memory _portfolioData, PortfolioHolding[] memory _portfolioHoldings) public returns (ActionMsg[] memory){\r\n\r\n        require(checkExecution(timestamp));\r\n        renewContractState(_tickerData, _timeStamp, _portfolioData, _portfolioHoldings);\r\n        if(loop == 0){\r\n            int256 capitalForEachStock = FixidityLib.divide(portfolioData[_timeStamp].TotalCashValue, int256(realTimeTickersData[_timeStamp].length));\r\n            for (uint i=0; i < realTimeTickersData[_timeStamp].length; i++){\r\n                RealTimeTickerData memory tickerData = realTimeTickersData[_timeStamp][i];\r\n                string memory tickerName = tickerData.tickerName;\r\n                int256 tickerPrice = tickerData.last;\r\n                int256 sharePurchase = FixidityLib.divide(capitalForEachStock,tickerData.last) * 3;\r\n                ActionMsg memory actionMsg = TradeAgent.placeBuyStockLimitOrderMsg(tickerName,sharePurchase,tickerPrice,_timeStamp);\r\n                actionMsgs.push(actionMsg);\r\n            }\r\n        }\r\n        else{\r\n            int256 targetExLiq = FixidityLib.multiply(rebalanceMargin, portfolioData[_timeStamp].GrossPositionValue);\r\n            for (uint i=0; i < realTimeTickersData[_timeStamp].length; i++){\r\n                int256 tickerPrice = realTimeTickersData[_timeStamp][i].last;\r\n                string memory tickerName = realTimeTickersData[_timeStamp][i].tickerName;\r\n                if (maxDrawdownDodge[realTimeTickersData[_timeStamp][i].tickerName]){\r\n                    if (checkBuyBack(tickerName, tickerPrice)){\r\n                        ActionMsg memory actionMsg = buyBackPosition(tickerName, tickerPrice,_timeStamp);\r\n                        actionMsgs.push(actionMsg);\r\n                    }\r\n                }else{\r\n                    if(checkMaxDrawdownDodge(tickerName,tickerPrice)){\r\n                        ActionMsg memory actionMsg = liquidateTickerPosition(tickerName, tickerPrice ,_timeStamp);\r\n                    }\r\n                    else{\r\n                        if (portfolioData[_timeStamp].ExcessLiquidity > targetExLiq) {\r\n                            int256 exLiqDiff = FixidityLib.subtract(portfolioData[_timeStamp].ExcessLiquidity, targetExLiq);\r\n                            int256 targetSharePurchase = FixidityLib.divide(exLiqDiff,tickerPrice);\r\n\r\n                            if (targetSharePurchase > 0){\r\n                                ActionMsg memory actionMsg = super.placeBuyStockLimitOrderMsg(tickerName,targetSharePurchase,tickerPrice,_timeStamp);\r\n                                actionMsgs.push(actionMsg);\r\n                            }\r\n                        }\r\n                    }\r\n                }\r\n            }\r\n\r\n            for (uint i=0; i < realTimeTickersData[_timeStamp].length; i++){\r\n                int256 tickerPrice = realTimeTickersData[_timeStamp][i].last;\r\n                string memory tickerName = realTimeTickersData[_timeStamp][i].tickerName;\r\n                if (maxDrawdownDodge[realTimeTickersData[_timeStamp][i].tickerName]){\r\n                    updateBenchmarkDrawdownPriceAfterDodge(tickerName, tickerPrice);\r\n                }\r\n                else{\r\n                    updateBenchmarkDrawdownPriceBeforeDodge(tickerName, tickerPrice);\r\n                }\r\n            }\r\n        }\r\n        lastExecutedTimestamp = _timeStamp;\r\n        loop = loop + 1;\r\n\r\n        ActionMsg[] memory msgs = new ActionMsg[](actionMsgs.length);\r\n        for (uint i = 0; i < actionMsgs.length; i++) {\r\n            msgs[i] = actionMsgs[i];\r\n        }\r\n\r\n        return msgs;\r\n    }\r\n\r\n    function renewContractState(RealTimeTickerData[] memory _tickersData, uint256 _timeStamp, PortfolioData memory _portfolioData, PortfolioHolding[] memory _portfolioHoldings) private{\r\n        timestamp = _timeStamp;\r\n\r\n        //        lastExecutedTimestamp = block.timestamp;\r\n        if(loop == 0){\r\n            for (uint i=0; i < _tickersData.length; i++){\r\n                RealTimeTickerData memory tickerData = _tickersData[i];\r\n                string memory tickerName = tickerData.tickerName;\r\n                maxDrawdownDodge[tickerName] = false;\r\n                benchmarkDrawdownPrice[tickerName] = 0;\r\n                liquidateTickerQty[tickerName] = 0;\r\n                maxStockPrice[tickerName] = 0;\r\n                liquidateTickerPrice[tickerName] = 0;\r\n            }\r\n        }\r\n\r\n\r\n        RealTimeTickerData[] storage _realTimeTickerArray = realTimeTickersData[_timeStamp];\r\n        for (uint i = 0; i < _tickersData.length; i++) {\r\n            RealTimeTickerData memory _tickerData = _tickersData[i];\r\n            _realTimeTickerArray[i].bidPrice =_tickerData.bidPrice;\r\n            _realTimeTickerArray[i].last =_tickerData.last;\r\n            _realTimeTickerArray[i].tickerName =_tickerData.tickerName;\r\n        }\r\n\r\n        PortfolioHolding[] storage _portfolioHoldingArray = portfolioHoldingsData[_timeStamp];\r\n        for (uint i = 0; i < _portfolioHoldings.length; i++) {\r\n            PortfolioHolding memory _portfolioHolding = _portfolioHoldings[i];\r\n            _portfolioHoldingArray[i].tickerName = _portfolioHolding.tickerName;\r\n            _portfolioHoldingArray[i].averageCost = _portfolioHolding.averageCost;\r\n            _portfolioHoldingArray[i].costBasis = _portfolioHolding.costBasis;\r\n            _portfolioHoldingArray[i].initMarginReq = _portfolioHolding.initMarginReq;\r\n            _portfolioHoldingArray[i].maintMarginReq = _portfolioHolding.maintMarginReq;\r\n            _portfolioHoldingArray[i].marketPrice = _portfolioHolding.marketPrice;\r\n            _portfolioHoldingArray[i].marketValue = _portfolioHolding.marketValue;\r\n            _portfolioHoldingArray[i].position = _portfolioHolding.position;\r\n            _portfolioHoldingArray[i].realizedPNL = _portfolioHolding.realizedPNL;\r\n            _portfolioHoldingArray[i].unrealizedPNL = _portfolioHolding.unrealizedPNL;\r\n        }\r\n\r\n        portfolioData[_timeStamp] = _portfolioData;\r\n        delete actionMsgs;\r\n    }\r\n\r\n    function checkExecution(uint256 _timestamp) internal returns (bool){\r\n\r\n        bool exec = false;\r\n        uint16 _year;\r\n        uint8 _month;\r\n        uint8 _day;\r\n\r\n        uint16 _lastYear;\r\n        uint8 _lastMonth;\r\n        uint8 _lastday;\r\n\r\n        (_year, _month, _day) = DateUtils.convertTimestampToYMD(_timestamp);\r\n        (_lastYear, _lastMonth, _lastday) = DateUtils.convertTimestampToYMD(lastExecutedTimestamp);\r\n        if (_month != _lastMonth){\r\n            exec = true;\r\n            lastExecutedTimestamp = _timestamp;\r\n            }\r\n        return exec;\r\n    }\r\n\r\n\r\n    function checkBuyBack(string memory tickerName, int256 realTimeTickerPrice)internal returns (bool){\r\n//        range_price = self.benchmark_drawdown_price.get(ticker) * (1 + 0.01)\r\n//        return ticker_price > range_price\r\n        int256 rangePrice = benchmarkDrawdownPrice[tickerName] /100*101;\r\n        return realTimeTickerPrice > rangePrice;\r\n    }\r\n\r\n    function buyBackPosition(string memory tickerName, int256 tickerPrice, uint256 _timeStamp) internal returns (ActionMsg memory) {\r\n        ActionMsg memory actionMsg;\r\n        int256 targetSharePurchase = liquidateTickerQty[tickerName];\r\n        int256 purchaseAmount =  FixidityLib.multiply(targetSharePurchase, tickerPrice);\r\n        if (portfolioData[_timeStamp].BuyingPower >= purchaseAmount){\r\n            actionMsg = super.placeBuyStockLimitOrderMsg(tickerName,targetSharePurchase,tickerPrice,_timeStamp);\r\n        }else{\r\n            targetSharePurchase = portfolioData[_timeStamp].BuyingPower / tickerPrice;\r\n            actionMsg = super.placeBuyStockLimitOrderMsg(tickerName,targetSharePurchase,tickerPrice,_timeStamp);\r\n        }\r\n\r\n        maxDrawdownDodge[tickerName] = false;\r\n        maxStockPrice[tickerName] = tickerPrice;\r\n\r\n        return actionMsg;\r\n    }\r\n\r\n\r\n    function checkMaxDrawdownDodge(string memory tickerName, int256 tickerPrice) private returns (bool){\r\n        return tickerPrice < benchmarkDrawdownPrice[tickerName];\r\n    }\r\n\r\n    function updateBenchmarkDrawdownPriceAfterDodge(string memory tickerName, int256 tickerPrice) private{\r\n//        if real_time_ticker_price < self.benchmark_drawdown_price[ticker] * 0.7:\r\n//            target_update_benchmark_drawdown_price = real_time_ticker_price + (\r\n//                    (self.liq_sold_price_dict[ticker] - real_time_ticker_price) * 0.5)\r\n//            if target_update_benchmark_drawdown_price < self.benchmark_drawdown_price[ticker]:\r\n//                self.benchmark_drawdown_price[ticker] = target_update_benchmark_drawdown_price\r\n\r\n        int256 benchmarkDrawdownFactor = int256(70) * FixidityLib.fixed1() / int256(100);\r\n        if (tickerPrice < FixidityLib.multiply(benchmarkDrawdownPrice[tickerName] , benchmarkDrawdownFactor)){\r\n\r\n            int256 tickerDiff = FixidityLib.subtract(liquidateTickerPrice[tickerName],tickerPrice);\r\n            int256 targetUpdateBenchmarkDrawdownPrice = FixidityLib.add(tickerPrice, tickerDiff) * 50 / 100;\r\n            if (targetUpdateBenchmarkDrawdownPrice < benchmarkDrawdownPrice[tickerName]){\r\n                benchmarkDrawdownPrice[tickerName] = targetUpdateBenchmarkDrawdownPrice;\r\n            }\r\n        }\r\n    }\r\n\r\n    function updateBenchmarkDrawdownPriceBeforeDodge(string memory tickerName, int256 realTimeTickerPrice) private{\r\n//        if (self.max_stock_price.get(ticker) == 0):  # if there is no data for the max and benchmark price\r\n//            self.max_stock_price.update({ticker: real_time_ticker_price})\r\n//            benchmark_price = real_time_ticker_price * (1 - self.max_drawdown_ratio)\r\n//            self.benchmark_drawdown_price.update({ticker: benchmark_price})\r\n//        elif real_time_ticker_price > self.max_stock_price.get(ticker):\r\n//            self.max_stock_price.update({ticker: real_time_ticker_price})\r\n//            benchmark_price = real_time_ticker_price * (1 - self.max_drawdown_ratio)\r\n//            self.benchmark_drawdown_price.update({ticker: benchmark_price})\r\n\r\n        if (maxStockPrice[tickerName] == 0){\r\n            maxStockPrice[tickerName] = realTimeTickerPrice;\r\n            int256 drawDownFactor = FixidityLib.subtract(FixidityLib.fixed1(), maxDrawdown);\r\n            int256 tickerBenchmarkPrice = FixidityLib.multiply(maxStockPrice[tickerName], drawDownFactor);\r\n            benchmarkDrawdownPrice[tickerName] = tickerBenchmarkPrice;\r\n        }\r\n        else if (realTimeTickerPrice > maxStockPrice[tickerName]){\r\n            maxStockPrice[tickerName] = realTimeTickerPrice;\r\n            int256 drawDownFactor = FixidityLib.subtract(FixidityLib.fixed1(), maxDrawdown);\r\n            int256 tickerBenchmarkPrice = FixidityLib.multiply(maxStockPrice[tickerName], drawDownFactor);\r\n            benchmarkDrawdownPrice[tickerName] = tickerBenchmarkPrice;\r\n        }\r\n\r\n    }\r\n\r\n    function liquidateTickerPosition(string memory tickerName, int256 tickerPrice, uint256 _timeStamp) private returns (ActionMsg memory){\r\n        PortfolioHolding memory holding = getPortfolioHoldingByTickerName(tickerName, portfolioHoldingsData[_timeStamp]);\r\n        RealTimeTickerData memory tickerData = getRealTimeTickerDataByTickerName(tickerName, realTimeTickersData[_timeStamp]);\r\n        int256 currentPosition = holding.position;\r\n        int256 noLeverageEquity = portfolioData[_timeStamp].EquityWithLoanValue / int256(realTimeTickersData[_timeStamp].length);\r\n        int256 noLeveragePosition = FixidityLib.divide(noLeverageEquity,tickerData.last);\r\n        int256 targetLeveragePositionAtLiquidState = noLeveragePosition * 12 / 10;\r\n\r\n        int256 targetSoldPosition = currentPosition - targetLeveragePositionAtLiquidState;\r\n        ActionMsg memory actionMsg = super.placeSellStockLimitOrderMsg(tickerName,targetSoldPosition,tickerPrice, _timeStamp);\r\n\r\n        benchmarkDrawdownPrice[tickerName] = tickerPrice;\r\n        liquidateTickerQty[tickerName] = targetSoldPosition;\r\n        liquidateTickerPrice[tickerName] = tickerPrice;\r\n        maxDrawdownDodge[tickerName] = true;\r\n\r\n        return actionMsg;\r\n    }\r\n\r\n    function getPortfolioHoldingByTickerName(string memory tickerName, PortfolioHolding[] memory holdings) private returns (PortfolioHolding memory){\r\n        PortfolioHolding memory holding;\r\n        for(uint i=0; i< holdings.length; i++){\r\n            if(holdings[i].tickerName.compareStrings(tickerName)){\r\n                holding = holdings[i];\r\n            }\r\n        }\r\n        return holding;\r\n    }\r\n\r\n    function getRealTimeTickerDataByTickerName(string memory tickerName,  RealTimeTickerData[] memory realTimeTickersData) private returns (RealTimeTickerData memory){\r\n        RealTimeTickerData memory realTimeTickerData;\r\n        for (uint i=0; i<realTimeTickersData.length; i++){\r\n            if(realTimeTickersData[i].tickerName.compareStrings(tickerName)){\r\n                realTimeTickerData = realTimeTickersData[i];\r\n            }\r\n        }\r\n        return realTimeTickerData;\r\n    }\r\n}\r\n",
  "sourcePath": "C:\\Users\\lam\\Documents\\GitHub\\IndexTradingApplication\\contract\\contracts\\RebalanceMarginWifMaxDrawdownControl.sol",
  "compiler": {
    "name": "solc",
    "version": "0.8.13+commit.abaa5c0e.Emscripten.clang"
  },
  "schemaVersion": "3.4.7",
  "updatedAt": "2022-07-05T00:04:48.003Z",
  "networkType": "ethereum",
  "devdoc": {
    "kind": "dev",
    "methods": {},
    "version": 1
  },
  "userdoc": {
    "kind": "user",
    "methods": {},
    "version": 1
  }
}