{
  "contractName": "ChampLogging",
  "abi": [
    {
      "anonymous": false,
      "inputs": [
        {
          "indexed": false,
          "internalType": "address",
          "name": "owner",
          "type": "address"
        },
        {
          "indexed": false,
          "internalType": "address",
          "name": "approved",
          "type": "address"
        },
        {
          "indexed": false,
          "internalType": "uint256",
          "name": "tokenId",
          "type": "uint256"
        }
      ],
      "name": "Approval",
      "type": "event"
    },
    {
      "anonymous": false,
      "inputs": [
        {
          "indexed": true,
          "internalType": "address",
          "name": "owner",
          "type": "address"
        },
        {
          "indexed": true,
          "internalType": "address",
          "name": "trader",
          "type": "address"
        },
        {
          "indexed": false,
          "internalType": "uint256",
          "name": "champId",
          "type": "uint256"
        },
        {
          "indexed": false,
          "internalType": "string",
          "name": "philosophyIpfsHash",
          "type": "string"
        }
      ],
      "name": "Birth",
      "type": "event"
    },
    {
      "anonymous": false,
      "inputs": [
        {
          "indexed": false,
          "internalType": "address",
          "name": "newContract",
          "type": "address"
        }
      ],
      "name": "ContractUpgrade",
      "type": "event"
    },
    {
      "anonymous": false,
      "inputs": [
        {
          "indexed": false,
          "internalType": "address",
          "name": "owner",
          "type": "address"
        }
      ],
      "name": "LogTrade",
      "type": "event"
    },
    {
      "anonymous": false,
      "inputs": [
        {
          "indexed": false,
          "internalType": "address",
          "name": "from",
          "type": "address"
        },
        {
          "indexed": false,
          "internalType": "address",
          "name": "to",
          "type": "address"
        },
        {
          "indexed": false,
          "internalType": "uint256",
          "name": "tokenId",
          "type": "uint256"
        }
      ],
      "name": "Transfer",
      "type": "event"
    },
    {
      "inputs": [],
      "name": "activeChamps",
      "outputs": [
        {
          "internalType": "uint256",
          "name": "",
          "type": "uint256"
        }
      ],
      "stateMutability": "view",
      "type": "function"
    },
    {
      "inputs": [
        {
          "internalType": "address",
          "name": "_to",
          "type": "address"
        },
        {
          "internalType": "uint256",
          "name": "_tokenId",
          "type": "uint256"
        }
      ],
      "name": "approve",
      "outputs": [],
      "stateMutability": "nonpayable",
      "type": "function"
    },
    {
      "inputs": [],
      "name": "autoLogFee",
      "outputs": [
        {
          "internalType": "uint256",
          "name": "",
          "type": "uint256"
        }
      ],
      "stateMutability": "view",
      "type": "function"
    },
    {
      "inputs": [
        {
          "internalType": "address",
          "name": "_owner",
          "type": "address"
        }
      ],
      "name": "balanceOf",
      "outputs": [
        {
          "internalType": "uint256",
          "name": "count",
          "type": "uint256"
        }
      ],
      "stateMutability": "view",
      "type": "function"
    },
    {
      "inputs": [],
      "name": "ceoAddress",
      "outputs": [
        {
          "internalType": "address",
          "name": "",
          "type": "address"
        }
      ],
      "stateMutability": "view",
      "type": "function"
    },
    {
      "inputs": [],
      "name": "cfoAddress",
      "outputs": [
        {
          "internalType": "address payable",
          "name": "",
          "type": "address"
        }
      ],
      "stateMutability": "view",
      "type": "function"
    },
    {
      "inputs": [
        {
          "internalType": "uint256",
          "name": "",
          "type": "uint256"
        }
      ],
      "name": "champIndexToApproved",
      "outputs": [
        {
          "internalType": "address",
          "name": "",
          "type": "address"
        }
      ],
      "stateMutability": "view",
      "type": "function"
    },
    {
      "inputs": [
        {
          "internalType": "uint256",
          "name": "",
          "type": "uint256"
        }
      ],
      "name": "champIndexToOwner",
      "outputs": [
        {
          "internalType": "address",
          "name": "",
          "type": "address"
        }
      ],
      "stateMutability": "view",
      "type": "function"
    },
    {
      "inputs": [
        {
          "internalType": "uint256",
          "name": "",
          "type": "uint256"
        }
      ],
      "name": "champIndexToTrader",
      "outputs": [
        {
          "internalType": "address",
          "name": "",
          "type": "address"
        }
      ],
      "stateMutability": "view",
      "type": "function"
    },
    {
      "inputs": [],
      "name": "cooAddress",
      "outputs": [
        {
          "internalType": "address",
          "name": "",
          "type": "address"
        }
      ],
      "stateMutability": "view",
      "type": "function"
    },
    {
      "inputs": [],
      "name": "erc721Metadata",
      "outputs": [
        {
          "internalType": "contract ERC721Metadata",
          "name": "",
          "type": "address"
        }
      ],
      "stateMutability": "view",
      "type": "function"
    },
    {
      "inputs": [],
      "name": "name",
      "outputs": [
        {
          "internalType": "string",
          "name": "",
          "type": "string"
        }
      ],
      "stateMutability": "view",
      "type": "function"
    },
    {
      "inputs": [
        {
          "internalType": "uint256",
          "name": "_tokenId",
          "type": "uint256"
        }
      ],
      "name": "ownerOf",
      "outputs": [
        {
          "internalType": "address",
          "name": "owner",
          "type": "address"
        }
      ],
      "stateMutability": "view",
      "type": "function"
    },
    {
      "inputs": [],
      "name": "pause",
      "outputs": [],
      "stateMutability": "nonpayable",
      "type": "function"
    },
    {
      "inputs": [],
      "name": "paused",
      "outputs": [
        {
          "internalType": "bool",
          "name": "",
          "type": "bool"
        }
      ],
      "stateMutability": "view",
      "type": "function"
    },
    {
      "inputs": [],
      "name": "saleAuctionContract",
      "outputs": [
        {
          "internalType": "contract SaleClockAuction",
          "name": "",
          "type": "address"
        }
      ],
      "stateMutability": "view",
      "type": "function"
    },
    {
      "inputs": [
        {
          "internalType": "address",
          "name": "_newCEO",
          "type": "address"
        }
      ],
      "name": "setCEO",
      "outputs": [],
      "stateMutability": "nonpayable",
      "type": "function"
    },
    {
      "inputs": [
        {
          "internalType": "address",
          "name": "_newCFO",
          "type": "address"
        }
      ],
      "name": "setCFO",
      "outputs": [],
      "stateMutability": "nonpayable",
      "type": "function"
    },
    {
      "inputs": [
        {
          "internalType": "address",
          "name": "_newCOO",
          "type": "address"
        }
      ],
      "name": "setCOO",
      "outputs": [],
      "stateMutability": "nonpayable",
      "type": "function"
    },
    {
      "inputs": [
        {
          "internalType": "address",
          "name": "_contractAddress",
          "type": "address"
        }
      ],
      "name": "setMetadataAddress",
      "outputs": [],
      "stateMutability": "nonpayable",
      "type": "function"
    },
    {
      "inputs": [
        {
          "internalType": "bytes4",
          "name": "_interfaceID",
          "type": "bytes4"
        }
      ],
      "name": "supportsInterface",
      "outputs": [
        {
          "internalType": "bool",
          "name": "",
          "type": "bool"
        }
      ],
      "stateMutability": "view",
      "type": "function"
    },
    {
      "inputs": [],
      "name": "symbol",
      "outputs": [
        {
          "internalType": "string",
          "name": "",
          "type": "string"
        }
      ],
      "stateMutability": "view",
      "type": "function"
    },
    {
      "inputs": [
        {
          "internalType": "uint256",
          "name": "_tokenId",
          "type": "uint256"
        },
        {
          "internalType": "string",
          "name": "_preferredTransport",
          "type": "string"
        }
      ],
      "name": "tokenMetadata",
      "outputs": [
        {
          "internalType": "string",
          "name": "infoUrl",
          "type": "string"
        }
      ],
      "stateMutability": "view",
      "type": "function"
    },
    {
      "inputs": [
        {
          "internalType": "address",
          "name": "_owner",
          "type": "address"
        }
      ],
      "name": "tokensOfOwner",
      "outputs": [
        {
          "internalType": "uint256[]",
          "name": "ownerTokens",
          "type": "uint256[]"
        }
      ],
      "stateMutability": "view",
      "type": "function"
    },
    {
      "inputs": [],
      "name": "totalSupply",
      "outputs": [
        {
          "internalType": "uint256",
          "name": "",
          "type": "uint256"
        }
      ],
      "stateMutability": "view",
      "type": "function"
    },
    {
      "inputs": [
        {
          "internalType": "uint256",
          "name": "",
          "type": "uint256"
        }
      ],
      "name": "traderAddress",
      "outputs": [
        {
          "internalType": "address",
          "name": "",
          "type": "address"
        }
      ],
      "stateMutability": "view",
      "type": "function"
    },
    {
      "inputs": [
        {
          "internalType": "address",
          "name": "_to",
          "type": "address"
        },
        {
          "internalType": "uint256",
          "name": "_tokenId",
          "type": "uint256"
        }
      ],
      "name": "transfer",
      "outputs": [],
      "stateMutability": "nonpayable",
      "type": "function"
    },
    {
      "inputs": [
        {
          "internalType": "address",
          "name": "_from",
          "type": "address"
        },
        {
          "internalType": "address",
          "name": "_to",
          "type": "address"
        },
        {
          "internalType": "uint256",
          "name": "_tokenId",
          "type": "uint256"
        }
      ],
      "name": "transferFrom",
      "outputs": [],
      "stateMutability": "nonpayable",
      "type": "function"
    },
    {
      "inputs": [],
      "name": "unpause",
      "outputs": [],
      "stateMutability": "nonpayable",
      "type": "function"
    },
    {
      "inputs": [
        {
          "internalType": "uint256",
          "name": "val",
          "type": "uint256"
        }
      ],
      "name": "setAutoLogFee",
      "outputs": [],
      "stateMutability": "nonpayable",
      "type": "function"
    },
    {
      "inputs": [
        {
          "internalType": "uint256",
          "name": "_champId",
          "type": "uint256"
        }
      ],
      "name": "isActive",
      "outputs": [
        {
          "internalType": "bool",
          "name": "",
          "type": "bool"
        }
      ],
      "stateMutability": "view",
      "type": "function"
    },
    {
      "inputs": [
        {
          "internalType": "uint256",
          "name": "_champId",
          "type": "uint256"
        },
        {
          "internalType": "string",
          "name": "_ticker",
          "type": "string"
        },
        {
          "internalType": "string",
          "name": "_avgPrice",
          "type": "string"
        },
        {
          "internalType": "string",
          "name": "_transactQty",
          "type": "string"
        }
      ],
      "name": "setlogTrade",
      "outputs": [],
      "stateMutability": "nonpayable",
      "type": "function"
    },
    {
      "inputs": [
        {
          "internalType": "uint256",
          "name": "_champId",
          "type": "uint256"
        }
      ],
      "name": "get_trade_log",
      "outputs": [
        {
          "internalType": "string",
          "name": "",
          "type": "string"
        }
      ],
      "stateMutability": "view",
      "type": "function"
    },
    {
      "inputs": [
        {
          "internalType": "uint256",
          "name": "_champId",
          "type": "uint256"
        }
      ],
      "name": "init",
      "outputs": [],
      "stateMutability": "nonpayable",
      "type": "function"
    }
  ],
  "bytecode": "0x60806040526000600460006101000a81548160ff02191690831515021790555066071afd498d0000600c556000600d5534801561003b57600080fd5b506130398061004b6000396000f3fe608060405234801561001057600080fd5b50600436106102065760003560e01c8063592f55591161011a57806395d89b41116100ad578063b5bb78fc1161007c578063b5bb78fc146105ef578063b7b0422d1461061f578063bc4006f51461063b578063bf1ca71914610659578063e17b25af1461067557610206565b806395d89b4114610579578063a117251b14610597578063a9059cbb146105b5578063b047fb50146105d157610206565b806379ee23f0116100e957806379ee23f0146104f157806382afd23b1461050f5780638456cb591461053f5780638462151c1461054957610206565b8063592f5559146104435780635c975abb146104735780636352211e1461049157806370a08231146104c157610206565b80631e01446c1161019d5780632ed59d291161016c5780632ed59d291461038d5780633e444f8b146103bd5780633f4ba83a146103ed5780634bc464b2146103f75780634e0a33791461042757610206565b80631e01446c1461031d57806323b872dd1461033957806327d7874c146103555780632ba73c151461037157610206565b806306fdde03116101d957806306fdde03146102a7578063095ea7b3146102c55780630a0f8168146102e157806318160ddd146102ff57610206565b806301ffc9a71461020b578063038508481461023b5780630519ce79146102595780630560ff4414610277575b600080fd5b6102256004803603810190610220919061213b565b610691565b6040516102329190612183565b60405180910390f35b610243610895565b604051610250919061221d565b60405180910390f35b6102616108bb565b60405161026e9190612259565b60405180910390f35b610291600480360381019061028c91906123f0565b6108e1565b60405161029e91906124d4565b60405180910390f35b6102af6109a5565b6040516102bc91906124d4565b60405180910390f35b6102df60048036038101906102da9190612534565b6109de565b005b6102e9610a54565b6040516102f69190612583565b60405180910390f35b610307610a78565b60405161031491906125ad565b60405180910390f35b610337600480360381019061033291906125c8565b610a91565b005b610353600480360381019061034e91906125f5565b610af5565b005b61036f600480360381019061036a9190612648565b610bb6565b005b61038b60048036038101906103869190612648565b610c8a565b005b6103a760048036038101906103a291906125c8565b610d5f565b6040516103b491906124d4565b60405180910390f35b6103d760048036038101906103d291906125c8565b610e2f565b6040516103e49190612583565b60405180910390f35b6103f5610e62565b005b610411600480360381019061040c91906125c8565b610ef0565b60405161041e9190612583565b60405180910390f35b610441600480360381019061043c9190612648565b610f23565b005b61045d600480360381019061045891906125c8565b610ff8565b60405161046a9190612583565b60405180910390f35b61047b61102b565b6040516104889190612183565b60405180910390f35b6104ab60048036038101906104a691906125c8565b61103e565b6040516104b89190612583565b60405180910390f35b6104db60048036038101906104d69190612648565b6110b4565b6040516104e891906125ad565b60405180910390f35b6104f96110fd565b60405161050691906125ad565b60405180910390f35b610529600480360381019061052491906125c8565b611103565b6040516105369190612183565b60405180910390f35b61054761114b565b005b610563600480360381019061055e9190612648565b61128a565b6040516105709190612733565b60405180910390f35b610581611411565b60405161058e91906124d4565b60405180910390f35b61059f61144a565b6040516105ac91906125ad565b60405180910390f35b6105cf60048036038101906105ca9190612534565b611450565b005b6105d9611592565b6040516105e69190612583565b60405180910390f35b610609600480360381019061060491906125c8565b6115b8565b6040516106169190612583565b60405180910390f35b610639600480360381019061063491906125c8565b6115eb565b005b610643611674565b6040516106509190612776565b60405180910390f35b610673600480360381019061066e9190612791565b61169a565b005b61068f600480360381019061068a9190612648565b6119b5565b005b60007f01ffc9a7a5cef8baa21ed3c5c0d7e23accb804b619e9333b597f47a0d84076e27bffffffffffffffffffffffffffffffffffffffffffffffffffffffff1916827bffffffffffffffffffffffffffffffffffffffffffffffffffffffff1916148061088e57507f0560ff44c470b66135b184f41c47840de0a42f8d70ee772ca647210e9eb3c8fd7f8462151cfcc0f257319f78db464014651918f3905b3d4bdab48d3f4618c542c17f23b872dd7302113369cda2901243429419bec145408fa8b352b3dd92b66c680b7fa9059cbb2ab09eb219583f4a59a5d0623ade346d962bcd4e46b11da047c9049b7f095ea7b334ae44009aa867bfb386f5c3b4b443ac6f0ee573fa91c4608fbadfba7f6352211e6566aa027e75ac9dbf2423197fbd9b82b9d981a3ab367d355866aa1c7f70a08231b98ef4ca268c9cc3f6b4590e4bfec28280db06bb5d45e689f2a360be7f18160ddd7f15c72528c2f94fd8dfe3c8d5aa26e2c50c7d81f4bc7bee8d4b79327f95d89b41e2f5f391a79ec54e9d87c79d6e777c63e32c28da95b4e9e4a79250ec7f06fdde0383f15d582d1a74511486c9ddf862a882fb7904b3d9fe9b8b8e58a7961818181818181818187bffffffffffffffffffffffffffffffffffffffffffffffffffffffff1916827bffffffffffffffffffffffffffffffffffffffffffffffffffffffff1916145b9050919050565b600a60009054906101000a900473ffffffffffffffffffffffffffffffffffffffff1681565b600160009054906101000a900473ffffffffffffffffffffffffffffffffffffffff1681565b60606108eb61200a565b6000600b60009054906101000a900473ffffffffffffffffffffffffffffffffffffffff1673ffffffffffffffffffffffffffffffffffffffff1663a574cea4866040518263ffffffff1660e01b815260040161094891906125ad565b60a060405180830381865afa158015610965573d6000803e3d6000fd5b505050506040513d601f19601f82011682018060405250810190610989919061294d565b809250819350505061099b8282611a51565b9250505092915050565b6040518060400160405280600b81526020017f4368616d7054726164657200000000000000000000000000000000000000000081525081565b600460009054906101000a900460ff16156109f857600080fd5b610a023382611ac7565b610a0b57600080fd5b610a158183611b33565b7f8c5be1e5ebec7d5bd14f71427d1e84f3dd0314c0f7b2291e5b200ac8c7c3b925338383604051610a489392919061298d565b60405180910390a15050565b60008054906101000a900473ffffffffffffffffffffffffffffffffffffffff1681565b60006001600580549050610a8c91906129f3565b905090565b600260009054906101000a900473ffffffffffffffffffffffffffffffffffffffff1673ffffffffffffffffffffffffffffffffffffffff163373ffffffffffffffffffffffffffffffffffffffff1614610aeb57600080fd5b80600c8190555050565b600460009054906101000a900460ff1615610b0f57600080fd5b600073ffffffffffffffffffffffffffffffffffffffff168273ffffffffffffffffffffffffffffffffffffffff1603610b4857600080fd5b3073ffffffffffffffffffffffffffffffffffffffff168273ffffffffffffffffffffffffffffffffffffffff1603610b8057600080fd5b610b8a3382611b89565b610b9357600080fd5b610b9d8382611ac7565b610ba657600080fd5b610bb1838383611bf5565b505050565b60008054906101000a900473ffffffffffffffffffffffffffffffffffffffff1673ffffffffffffffffffffffffffffffffffffffff163373ffffffffffffffffffffffffffffffffffffffff1614610c0e57600080fd5b600073ffffffffffffffffffffffffffffffffffffffff168173ffffffffffffffffffffffffffffffffffffffff1603610c4757600080fd5b806000806101000a81548173ffffffffffffffffffffffffffffffffffffffff021916908373ffffffffffffffffffffffffffffffffffffffff16021790555050565b60008054906101000a900473ffffffffffffffffffffffffffffffffffffffff1673ffffffffffffffffffffffffffffffffffffffff163373ffffffffffffffffffffffffffffffffffffffff1614610ce257600080fd5b600073ffffffffffffffffffffffffffffffffffffffff168173ffffffffffffffffffffffffffffffffffffffff1603610d1b57600080fd5b80600260006101000a81548173ffffffffffffffffffffffffffffffffffffffff021916908373ffffffffffffffffffffffffffffffffffffffff16021790555050565b6060610d6b3383611d61565b610d7457600080fd5b600060058381548110610d8a57610d89612a27565b5b90600052602060002090600502019050806000018054610da990612a85565b80601f0160208091040260200160405190810160405280929190818152602001828054610dd590612a85565b8015610e225780601f10610df757610100808354040283529160200191610e22565b820191906000526020600020905b815481529060010190602001808311610e0557829003601f168201915b5050505050915050919050565b60066020528060005260406000206000915054906101000a900473ffffffffffffffffffffffffffffffffffffffff1681565b60008054906101000a900473ffffffffffffffffffffffffffffffffffffffff1673ffffffffffffffffffffffffffffffffffffffff163373ffffffffffffffffffffffffffffffffffffffff1614610eba57600080fd5b600460009054906101000a900460ff16610ed357600080fd5b6000600460006101000a81548160ff021916908315150217905550565b60036020528060005260406000206000915054906101000a900473ffffffffffffffffffffffffffffffffffffffff1681565b60008054906101000a900473ffffffffffffffffffffffffffffffffffffffff1673ffffffffffffffffffffffffffffffffffffffff163373ffffffffffffffffffffffffffffffffffffffff1614610f7b57600080fd5b600073ffffffffffffffffffffffffffffffffffffffff168173ffffffffffffffffffffffffffffffffffffffff1603610fb457600080fd5b80600160006101000a81548173ffffffffffffffffffffffffffffffffffffffff021916908373ffffffffffffffffffffffffffffffffffffffff16021790555050565b60086020528060005260406000206000915054906101000a900473ffffffffffffffffffffffffffffffffffffffff1681565b600460009054906101000a900460ff1681565b60006006600083815260200190815260200160002060009054906101000a900473ffffffffffffffffffffffffffffffffffffffff169050600073ffffffffffffffffffffffffffffffffffffffff168173ffffffffffffffffffffffffffffffffffffffff16036110af57600080fd5b919050565b6000600760008373ffffffffffffffffffffffffffffffffffffffff1673ffffffffffffffffffffffffffffffffffffffff168152602001908152602001600020549050919050565b600d5481565b6000806005838154811061111a57611119612a27565b5b906000526020600020906005020160040160009054906101000a900463ffffffff1663ffffffff1614159050919050565b600260009054906101000a900473ffffffffffffffffffffffffffffffffffffffff1673ffffffffffffffffffffffffffffffffffffffff163373ffffffffffffffffffffffffffffffffffffffff1614806111f2575060008054906101000a900473ffffffffffffffffffffffffffffffffffffffff1673ffffffffffffffffffffffffffffffffffffffff163373ffffffffffffffffffffffffffffffffffffffff16145b8061124a5750600160009054906101000a900473ffffffffffffffffffffffffffffffffffffffff1673ffffffffffffffffffffffffffffffffffffffff163373ffffffffffffffffffffffffffffffffffffffff16145b61125357600080fd5b600460009054906101000a900460ff161561126d57600080fd5b6001600460006101000a81548160ff021916908315150217905550565b60606000611297836110b4565b9050600081036112f357600067ffffffffffffffff8111156112bc576112bb6122c5565b5b6040519080825280602002602001820160405280156112ea5781602001602082028036833780820191505090505b5091505061140c565b60008167ffffffffffffffff81111561130f5761130e6122c5565b5b60405190808252806020026020018201604052801561133d5781602001602082028036833780820191505090505b509050600061134a610a78565b9050600080600190505b828111611403578673ffffffffffffffffffffffffffffffffffffffff166006600083815260200190815260200160002060009054906101000a900473ffffffffffffffffffffffffffffffffffffffff1673ffffffffffffffffffffffffffffffffffffffff16036113f057808483815181106113d5576113d4612a27565b5b60200260200101818152505081806113ec90612ab6565b9250505b80806113fb90612ab6565b915050611354565b83955050505050505b919050565b6040518060400160405280600281526020017f435400000000000000000000000000000000000000000000000000000000000081525081565b600c5481565b600460009054906101000a900460ff161561146a57600080fd5b600073ffffffffffffffffffffffffffffffffffffffff168273ffffffffffffffffffffffffffffffffffffffff16036114a357600080fd5b3073ffffffffffffffffffffffffffffffffffffffff168273ffffffffffffffffffffffffffffffffffffffff16036114db57600080fd5b600a60009054906101000a900473ffffffffffffffffffffffffffffffffffffffff1673ffffffffffffffffffffffffffffffffffffffff168273ffffffffffffffffffffffffffffffffffffffff160361153557600080fd5b61153f3382611ac7565b61154857600080fd5b611553338383611bf5565b7fddf252ad1be2c89b69c2b068fc378daa952ba7f163c4a11628f55a4df523b3ef3383836040516115869392919061298d565b60405180910390a15050565b600260009054906101000a900473ffffffffffffffffffffffffffffffffffffffff1681565b60096020528060005260406000206000915054906101000a900473ffffffffffffffffffffffffffffffffffffffff1681565b6115f53382611d97565b6115fe57600080fd5b60006005828154811061161457611613612a27565b5b906000526020600020906005020190506040518060200160405280600081525081600001908051906020019061164b92919061202c565b5060008160040160006101000a81548163ffffffff021916908363ffffffff1602179055505050565b600b60009054906101000a900473ffffffffffffffffffffffffffffffffffffffff1681565b600460009054906101000a900460ff16156116b457600080fd5b6116be3385611d97565b6116c757600080fd5b6000600585815481106116dd576116dc612a27565b5b9060005260206000209060050201905060008160020160009054906101000a900467ffffffffffffffff1667ffffffffffffffff160361171c57600080fd5b60006040518060400160405280600181526020017f7b000000000000000000000000000000000000000000000000000000000000008152506040518060400160405280600781526020017f7469636b65723a00000000000000000000000000000000000000000000000000815250866040518060400160405280600b81526020017f2c6176675f70726963653a000000000000000000000000000000000000000000815250876040518060400160405280600e81526020017f2c7472616e736163745f7174793a000000000000000000000000000000000000815250886040518060400160405280600b81526020017f2c74696d657374616d703a00000000000000000000000000000000000000000081525061183842611e03565b6040518060400160405280600181526020017f7d000000000000000000000000000000000000000000000000000000000000008152506040516020016118879a99989796959493929190612b45565b604051602081830303815290604052905060006118a387611103565b905080156118ed5782600001826040516020016118c1929190612c8b565b6040516020818303038152906040528360000190805190602001906118e792919061202c565b50611921565b8183600001908051906020019061190592919061202c565b506001600d60008282546119199190612cbe565b925050819055505b60018360040160008282829054906101000a900463ffffffff166119459190612d24565b92506101000a81548163ffffffff021916908363ffffffff1602179055503373ffffffffffffffffffffffffffffffffffffffff166108fc600c549081150290604051600060405180830381858888f193505050501580156119ab573d6000803e3d6000fd5b5050505050505050565b60008054906101000a900473ffffffffffffffffffffffffffffffffffffffff1673ffffffffffffffffffffffffffffffffffffffff163373ffffffffffffffffffffffffffffffffffffffff1614611a0d57600080fd5b80600b60006101000a81548173ffffffffffffffffffffffffffffffffffffffff021916908373ffffffffffffffffffffffffffffffffffffffff16021790555050565b606060008267ffffffffffffffff811115611a6f57611a6e6122c5565b5b6040519080825280601f01601f191660200182016040528015611aa15781602001600182028036833780820191505090505b509050600080602083019150859050611abb828287611f8b565b82935050505092915050565b60008273ffffffffffffffffffffffffffffffffffffffff166006600084815260200190815260200160002060009054906101000a900473ffffffffffffffffffffffffffffffffffffffff1673ffffffffffffffffffffffffffffffffffffffff1614905092915050565b806008600084815260200190815260200160002060006101000a81548173ffffffffffffffffffffffffffffffffffffffff021916908373ffffffffffffffffffffffffffffffffffffffff1602179055505050565b60008273ffffffffffffffffffffffffffffffffffffffff166008600084815260200190815260200160002060009054906101000a900473ffffffffffffffffffffffffffffffffffffffff1673ffffffffffffffffffffffffffffffffffffffff1614905092915050565b600760008373ffffffffffffffffffffffffffffffffffffffff1673ffffffffffffffffffffffffffffffffffffffff1681526020019081526020016000206000815480929190611c4590612ab6565b9190505550816006600083815260200190815260200160002060006101000a81548173ffffffffffffffffffffffffffffffffffffffff021916908373ffffffffffffffffffffffffffffffffffffffff160217905550600073ffffffffffffffffffffffffffffffffffffffff168373ffffffffffffffffffffffffffffffffffffffff1614611d5c57600760008473ffffffffffffffffffffffffffffffffffffffff1673ffffffffffffffffffffffffffffffffffffffff1681526020019081526020016000206000815480929190611d2090612d5e565b91905055506008600082815260200190815260200160002060006101000a81549073ffffffffffffffffffffffffffffffffffffffff02191690555b505050565b60008060009050611d728484611d97565b80611d835750611d828484611ac7565b5b15611d8d57600190505b8091505092915050565b60008273ffffffffffffffffffffffffffffffffffffffff166009600084815260200190815260200160002060009054906101000a900473ffffffffffffffffffffffffffffffffffffffff1673ffffffffffffffffffffffffffffffffffffffff1614905092915050565b606060008203611e4a576040518060400160405280600181526020017f30000000000000000000000000000000000000000000000000000000000000008152509050611f86565b600082905060005b60008214611e7c578080611e6590612ab6565b915050600a82611e759190612db6565b9150611e52565b60008167ffffffffffffffff811115611e9857611e976122c5565b5b6040519080825280601f01601f191660200182016040528015611eca5781602001600182028036833780820191505090505b50905060008290505b60008614611f7e57600181611ee891906129f3565b90506000600a8088611efa9190612db6565b611f049190612de7565b87611f0f91906129f3565b6030611f1b9190612e4e565b905060008160f81b905080848481518110611f3957611f38612a27565b5b60200101907effffffffffffffffffffffffffffffffffffffffffffffffffffffffffffff1916908160001a905350600a88611f759190612db6565b97505050611ed3565b819450505050505b919050565b5b60208110611fca5781518352602083611fa59190612cbe565b9250602082611fb49190612cbe565b9150602081611fc391906129f3565b9050611f8c565b60006001826020611fdb91906129f3565b610100611fe89190612fb8565b611ff291906129f3565b90508019835116818551168181178652505050505050565b6040518060800160405280600490602082028036833780820191505090505090565b82805461203890612a85565b90600052602060002090601f01602090048101928261205a57600085556120a1565b82601f1061207357805160ff19168380011785556120a1565b828001600101855582156120a1579182015b828111156120a0578251825591602001919060010190612085565b5b5090506120ae91906120b2565b5090565b5b808211156120cb5760008160009055506001016120b3565b5090565b6000604051905090565b600080fd5b600080fd5b60007fffffffff0000000000000000000000000000000000000000000000000000000082169050919050565b612118816120e3565b811461212357600080fd5b50565b6000813590506121358161210f565b92915050565b600060208284031215612151576121506120d9565b5b600061215f84828501612126565b91505092915050565b60008115159050919050565b61217d81612168565b82525050565b60006020820190506121986000830184612174565b92915050565b600073ffffffffffffffffffffffffffffffffffffffff82169050919050565b6000819050919050565b60006121e36121de6121d98461219e565b6121be565b61219e565b9050919050565b60006121f5826121c8565b9050919050565b6000612207826121ea565b9050919050565b612217816121fc565b82525050565b6000602082019050612232600083018461220e565b92915050565b60006122438261219e565b9050919050565b61225381612238565b82525050565b600060208201905061226e600083018461224a565b92915050565b6000819050919050565b61228781612274565b811461229257600080fd5b50565b6000813590506122a48161227e565b92915050565b600080fd5b600080fd5b6000601f19601f8301169050919050565b7f4e487b7100000000000000000000000000000000000000000000000000000000600052604160045260246000fd5b6122fd826122b4565b810181811067ffffffffffffffff8211171561231c5761231b6122c5565b5b80604052505050565b600061232f6120cf565b905061233b82826122f4565b919050565b600067ffffffffffffffff82111561235b5761235a6122c5565b5b612364826122b4565b9050602081019050919050565b82818337600083830152505050565b600061239361238e84612340565b612325565b9050828152602081018484840111156123af576123ae6122af565b5b6123ba848285612371565b509392505050565b600082601f8301126123d7576123d66122aa565b5b81356123e7848260208601612380565b91505092915050565b60008060408385031215612407576124066120d9565b5b600061241585828601612295565b925050602083013567ffffffffffffffff811115612436576124356120de565b5b612442858286016123c2565b9150509250929050565b600081519050919050565b600082825260208201905092915050565b60005b8381101561248657808201518184015260208101905061246b565b83811115612495576000848401525b50505050565b60006124a68261244c565b6124b08185612457565b93506124c0818560208601612468565b6124c9816122b4565b840191505092915050565b600060208201905081810360008301526124ee818461249b565b905092915050565b60006125018261219e565b9050919050565b612511816124f6565b811461251c57600080fd5b50565b60008135905061252e81612508565b92915050565b6000806040838503121561254b5761254a6120d9565b5b60006125598582860161251f565b925050602061256a85828601612295565b9150509250929050565b61257d816124f6565b82525050565b60006020820190506125986000830184612574565b92915050565b6125a781612274565b82525050565b60006020820190506125c2600083018461259e565b92915050565b6000602082840312156125de576125dd6120d9565b5b60006125ec84828501612295565b91505092915050565b60008060006060848603121561260e5761260d6120d9565b5b600061261c8682870161251f565b935050602061262d8682870161251f565b925050604061263e86828701612295565b9150509250925092565b60006020828403121561265e5761265d6120d9565b5b600061266c8482850161251f565b91505092915050565b600081519050919050565b600082825260208201905092915050565b6000819050602082019050919050565b6126aa81612274565b82525050565b60006126bc83836126a1565b60208301905092915050565b6000602082019050919050565b60006126e082612675565b6126ea8185612680565b93506126f583612691565b8060005b8381101561272657815161270d88826126b0565b9750612718836126c8565b9250506001810190506126f9565b5085935050505092915050565b6000602082019050818103600083015261274d81846126d5565b905092915050565b6000612760826121ea565b9050919050565b61277081612755565b82525050565b600060208201905061278b6000830184612767565b92915050565b600080600080608085870312156127ab576127aa6120d9565b5b60006127b987828801612295565b945050602085013567ffffffffffffffff8111156127da576127d96120de565b5b6127e6878288016123c2565b935050604085013567ffffffffffffffff811115612807576128066120de565b5b612813878288016123c2565b925050606085013567ffffffffffffffff811115612834576128336120de565b5b612840878288016123c2565b91505092959194509250565b600067ffffffffffffffff821115612867576128666122c5565b5b602082029050919050565b600080fd5b6000819050919050565b61288a81612877565b811461289557600080fd5b50565b6000815190506128a781612881565b92915050565b60006128c06128bb8461284c565b612325565b905080602084028301858111156128da576128d9612872565b5b835b8181101561290357806128ef8882612898565b8452602084019350506020810190506128dc565b5050509392505050565b600082601f830112612922576129216122aa565b5b600461292f8482856128ad565b91505092915050565b6000815190506129478161227e565b92915050565b60008060a08385031215612964576129636120d9565b5b60006129728582860161290d565b925050608061298385828601612938565b9150509250929050565b60006060820190506129a26000830186612574565b6129af6020830185612574565b6129bc604083018461259e565b949350505050565b7f4e487b7100000000000000000000000000000000000000000000000000000000600052601160045260246000fd5b60006129fe82612274565b9150612a0983612274565b925082821015612a1c57612a1b6129c4565b5b828203905092915050565b7f4e487b7100000000000000000000000000000000000000000000000000000000600052603260045260246000fd5b7f4e487b7100000000000000000000000000000000000000000000000000000000600052602260045260246000fd5b60006002820490506001821680612a9d57607f821691505b602082108103612ab057612aaf612a56565b5b50919050565b6000612ac182612274565b91507fffffffffffffffffffffffffffffffffffffffffffffffffffffffffffffffff8203612af357612af26129c4565b5b600182019050919050565b600081519050919050565b600081905092915050565b6000612b1f82612afe565b612b298185612b09565b9350612b39818560208601612468565b80840191505092915050565b6000612b51828d612b14565b9150612b5d828c612b14565b9150612b69828b612b14565b9150612b75828a612b14565b9150612b818289612b14565b9150612b8d8288612b14565b9150612b998287612b14565b9150612ba58286612b14565b9150612bb18285612b14565b9150612bbd8284612b14565b91508190509b9a5050505050505050505050565b60008190508160005260206000209050919050565b60008154612bf381612a85565b612bfd8186612b09565b94506001821660008114612c185760018114612c2957612c5c565b60ff19831686528186019350612c5c565b612c3285612bd1565b60005b83811015612c5457815481890152600182019150602081019050612c35565b838801955050505b50505092915050565b7f2c00000000000000000000000000000000000000000000000000000000000000815250565b6000612c978285612be6565b9150612ca282612c65565b600182019150612cb28284612b14565b91508190509392505050565b6000612cc982612274565b9150612cd483612274565b9250827fffffffffffffffffffffffffffffffffffffffffffffffffffffffffffffffff03821115612d0957612d086129c4565b5b828201905092915050565b600063ffffffff82169050919050565b6000612d2f82612d14565b9150612d3a83612d14565b92508263ffffffff03821115612d5357612d526129c4565b5b828201905092915050565b6000612d6982612274565b915060008203612d7c57612d7b6129c4565b5b600182039050919050565b7f4e487b7100000000000000000000000000000000000000000000000000000000600052601260045260246000fd5b6000612dc182612274565b9150612dcc83612274565b925082612ddc57612ddb612d87565b5b828204905092915050565b6000612df282612274565b9150612dfd83612274565b9250817fffffffffffffffffffffffffffffffffffffffffffffffffffffffffffffffff0483118215151615612e3657612e356129c4565b5b828202905092915050565b600060ff82169050919050565b6000612e5982612e41565b9150612e6483612e41565b92508260ff03821115612e7a57612e796129c4565b5b828201905092915050565b60008160011c9050919050565b6000808291508390505b6001851115612edc57808604811115612eb857612eb76129c4565b5b6001851615612ec75780820291505b8081029050612ed585612e85565b9450612e9c565b94509492505050565b600082612ef55760019050612fb1565b81612f035760009050612fb1565b8160018114612f195760028114612f2357612f52565b6001915050612fb1565b60ff841115612f3557612f346129c4565b5b8360020a915084821115612f4c57612f4b6129c4565b5b50612fb1565b5060208310610133831016604e8410600b8410161715612f875782820a905083811115612f8257612f816129c4565b5b612fb1565b612f948484846001612e92565b92509050818404811115612fab57612faa6129c4565b5b81810290505b9392505050565b6000612fc382612274565b9150612fce83612274565b9250612ffb7fffffffffffffffffffffffffffffffffffffffffffffffffffffffffffffffff8484612ee5565b90509291505056fea264697066735822122083a033f2b40aceeb6ba38aa907b1a5e14a109eaa66101cca4b5c19584addff0564736f6c634300080d0033",
  "immutableReferences": {},
  "source": "pragma solidity ^0.8.0;\r\nimport \"./ChampOwnership.sol\";\r\n\r\n/// @title A facet of KittyCore that manages Kitty siring, gestation, and birth.\r\n/// @author Axiom Zen (https://www.axiomzen.co)\r\n/// @dev See the KittyCore contract documentation to understand how the various contract facets are arranged.\r\ncontract ChampLogging is ChampOwnership {\r\n    event LogTrade(address owner);\r\n    uint256 public autoLogFee = 2 * 1e15;\r\n    uint256 public activeChamps = 0;\r\n    function setAutoLogFee(uint256 val) external onlyCOO {\r\n        autoLogFee = val;\r\n    }\r\n\r\n    function isActive(uint256 _champId) public view returns (bool){\r\n        return champTraders[_champId].totalTransactionQty != 0;\r\n    }\r\n\r\n    function setlogTrade(uint _champId, string memory _ticker, string memory _avgPrice, string memory _transactQty) external whenNotPaused{\r\n\r\n        require(_isTrader(msg.sender, _champId));\r\n\r\n        // Grab a reference to the matron in storage.\r\n        ChampTrader storage champ = champTraders[_champId];\r\n\r\n        // Check that the matron is a valid cat.\r\n        require(champ.birthTime != 0);\r\n        string memory _latestTradeLog = string(bytes.concat(\r\n                bytes(\"{\"),\r\n                bytes(\"ticker:\"),\r\n                bytes(_ticker),\r\n                bytes(\",avg_price:\"),\r\n                bytes(_avgPrice),\r\n                bytes(\",transact_qty:\"),\r\n                bytes(_transactQty),\r\n                bytes(\",timestamp:\"),\r\n                bytes(uint2str(block.timestamp)),\r\n                bytes(\"}\")\r\n            ));\r\n        bool _is_active = isActive(_champId);\r\n        if(_is_active){\r\n            champ.tradeLog = string(bytes.concat(bytes(champ.tradeLog), \",\", bytes(_latestTradeLog)));\r\n        }else{\r\n            champ.tradeLog = _latestTradeLog;\r\n            activeChamps +=1;\r\n        }\r\n        champ.totalTransactionQty += 1;\r\n\r\n        payable(msg.sender).transfer(autoLogFee);\r\n    }\r\n\r\n    function uint2str(uint _i) internal pure returns (string memory) {\r\n        if (_i == 0) {\r\n            return \"0\";\r\n        }\r\n        uint j = _i;\r\n        uint len;\r\n        while (j != 0) {\r\n            len++;\r\n            j /= 10;\r\n        }\r\n        bytes memory bstr = new bytes(len);\r\n        uint k = len;\r\n        while (_i != 0) {\r\n            k = k-1;\r\n            uint8 temp = (48 + uint8(_i - _i / 10 * 10));\r\n            bytes1 b1 = bytes1(temp);\r\n            bstr[k] = b1;\r\n            _i /= 10;\r\n        }\r\n        return string(bstr);\r\n    }\r\n\r\n\r\n    function get_trade_log(uint256 _champId) external view returns(string memory){\r\n        require(_isTraderorOwner(msg.sender, _champId));\r\n        // Grab a reference to the matron in storage.\r\n        ChampTrader storage champ = champTraders[_champId];\r\n        return champ.tradeLog;\r\n    }\r\n\r\n    function init(uint256 _champId) external{\r\n        require(_isTrader(msg.sender, _champId));\r\n        // Grab a reference to the matron in storage.\r\n        ChampTrader storage champ = champTraders[_champId];\r\n\r\n        champ.tradeLog = \"\";\r\n        champ.totalTransactionQty = 0;\r\n    }\r\n\r\n}\r\n\r\n\r\n\r\n\r\n",
  "sourcePath": "C:\\Users\\lam\\Documents\\GitHub\\dynamodb_related\\pythonProject\\smart_contract\\contracts\\ChampLogging.sol",
  "compiler": {
    "name": "solc",
    "version": "0.8.13+commit.abaa5c0e.Emscripten.clang"
  },
  "schemaVersion": "3.4.7",
  "updatedAt": "2022-05-02T01:57:46.517Z",
  "devdoc": {
    "author": "Axiom Zen (https://www.axiomzen.co)",
    "details": "See the KittyCore contract documentation to understand how the various contract facets are arranged.",
    "kind": "dev",
    "methods": {
      "approve(address,uint256)": {
        "details": "Required for ERC-721 compliance.",
        "params": {
          "_to": "The address to be granted transfer approval. Pass address(0) to  clear all approvals.",
          "_tokenId": "The ID of the Kitty that can be transferred if this call succeeds."
        }
      },
      "balanceOf(address)": {
        "details": "Required for ERC-721 compliance",
        "params": {
          "_owner": "The owner address to check."
        }
      },
      "ownerOf(uint256)": {
        "details": "Required for ERC-721 compliance."
      },
      "pause()": {
        "details": "Called by any \"C-level\" role to pause the contract. Used only when  a bug or exploit is detected and we need to limit damage."
      },
      "setCEO(address)": {
        "details": "Assigns a new address to act as the CEO. Only available to the current CEO.",
        "params": {
          "_newCEO": "The address of the new CEO"
        }
      },
      "setCFO(address)": {
        "details": "Assigns a new address to act as the CFO. Only available to the current CEO.",
        "params": {
          "_newCFO": "The address of the new CFO"
        }
      },
      "setCOO(address)": {
        "details": "Assigns a new address to act as the COO. Only available to the current CEO.",
        "params": {
          "_newCOO": "The address of the new COO"
        }
      },
      "setMetadataAddress(address)": {
        "details": "Set the address of the sibling contract that tracks metadata.  CEO only."
      },
      "tokenMetadata(uint256,string)": {
        "params": {
          "_tokenId": "The ID number of the Kitty whose metadata should be returned."
        }
      },
      "tokensOfOwner(address)": {
        "details": "This method MUST NEVER be called by smart contract code. First, it's fairly  expensive (it walks the entire Kitty array looking for cats belonging to owner),  but it also returns a dynamic array, which is only supported for web3 calls, and  not contract-to-contract calls.",
        "params": {
          "_owner": "The owner whose Kitties we are interested in."
        }
      },
      "totalSupply()": {
        "details": "Required for ERC-721 compliance."
      },
      "transfer(address,uint256)": {
        "details": "Required for ERC-721 compliance.",
        "params": {
          "_to": "The address of the recipient, can be a user or contract.",
          "_tokenId": "The ID of the Kitty to transfer."
        }
      },
      "transferFrom(address,address,uint256)": {
        "details": "Required for ERC-721 compliance.",
        "params": {
          "_from": "The address that owns the Kitty to be transfered.",
          "_to": "The address that should take ownership of the Kitty. Can be any address,  including the caller.",
          "_tokenId": "The ID of the Kitty to be transferred."
        }
      },
      "unpause()": {
        "details": "Unpauses the smart contract. Can only be called by the CEO, since  one reason we may pause the contract is when CFO or COO accounts are  compromised."
      }
    },
    "title": "A facet of KittyCore that manages Kitty siring, gestation, and birth.",
    "version": 1
  },
  "userdoc": {
    "kind": "user",
    "methods": {
      "approve(address,uint256)": {
        "notice": "Grant another address the right to transfer a specific Kitty via  transferFrom(). This is the preferred flow for transfering NFTs to contracts."
      },
      "balanceOf(address)": {
        "notice": "Returns the number of Kitties owned by a specific address."
      },
      "name()": {
        "notice": "Name and symbol of the non fungible token, as defined in ERC721."
      },
      "ownerOf(uint256)": {
        "notice": "Returns the address currently assigned ownership of a given Kitty."
      },
      "supportsInterface(bytes4)": {
        "notice": "Introspection interface as per ERC-165 (https://github.com/ethereum/EIPs/issues/165).  Returns true for any standardized interfaces implemented by this contract. We implement  ERC-165 (obviously!) and ERC-721."
      },
      "tokenMetadata(uint256,string)": {
        "notice": "Returns a URI pointing to a metadata package for this token conforming to  ERC-721 (https://github.com/ethereum/EIPs/issues/721)"
      },
      "tokensOfOwner(address)": {
        "notice": "Returns a list of all Kitty IDs assigned to an address."
      },
      "totalSupply()": {
        "notice": "Returns the total number of Kitties currently in existence."
      },
      "transfer(address,uint256)": {
        "notice": "Transfers a Kitty to another address. If transferring to a smart  contract be VERY CAREFUL to ensure that it is aware of ERC-721 (or  CryptoKitties specifically) or your Kitty may be lost forever. Seriously."
      },
      "transferFrom(address,address,uint256)": {
        "notice": "Transfer a Kitty owned by another address, for which the calling address  has previously been granted transfer approval by the owner."
      },
      "unpause()": {
        "notice": "This is public rather than external so it can be called by  derived contracts."
      }
    },
    "version": 1
  }
}