{
  "contractName": "ChampMinting",
  "abi": [
    {
      "anonymous": false,
      "inputs": [
        {
          "indexed": false,
          "internalType": "address",
          "name": "owner",
          "type": "address"
        },
        {
          "indexed": false,
          "internalType": "address",
          "name": "approved",
          "type": "address"
        },
        {
          "indexed": false,
          "internalType": "uint256",
          "name": "tokenId",
          "type": "uint256"
        }
      ],
      "name": "Approval",
      "type": "event"
    },
    {
      "anonymous": false,
      "inputs": [
        {
          "indexed": true,
          "internalType": "address",
          "name": "owner",
          "type": "address"
        },
        {
          "indexed": true,
          "internalType": "address",
          "name": "trader",
          "type": "address"
        },
        {
          "indexed": false,
          "internalType": "uint256",
          "name": "champId",
          "type": "uint256"
        },
        {
          "indexed": false,
          "internalType": "string",
          "name": "philosophyIpfsHash",
          "type": "string"
        }
      ],
      "name": "Birth",
      "type": "event"
    },
    {
      "anonymous": false,
      "inputs": [
        {
          "indexed": false,
          "internalType": "address",
          "name": "newContract",
          "type": "address"
        }
      ],
      "name": "ContractUpgrade",
      "type": "event"
    },
    {
      "anonymous": false,
      "inputs": [
        {
          "indexed": false,
          "internalType": "address",
          "name": "owner",
          "type": "address"
        }
      ],
      "name": "LogTrade",
      "type": "event"
    },
    {
      "anonymous": false,
      "inputs": [
        {
          "indexed": false,
          "internalType": "address",
          "name": "from",
          "type": "address"
        },
        {
          "indexed": false,
          "internalType": "address",
          "name": "to",
          "type": "address"
        },
        {
          "indexed": false,
          "internalType": "uint256",
          "name": "tokenId",
          "type": "uint256"
        }
      ],
      "name": "Transfer",
      "type": "event"
    },
    {
      "inputs": [],
      "name": "GEN0_AUCTION_DURATION",
      "outputs": [
        {
          "internalType": "uint256",
          "name": "",
          "type": "uint256"
        }
      ],
      "stateMutability": "view",
      "type": "function"
    },
    {
      "inputs": [],
      "name": "GEN0_CREATION_LIMIT",
      "outputs": [
        {
          "internalType": "uint256",
          "name": "",
          "type": "uint256"
        }
      ],
      "stateMutability": "view",
      "type": "function"
    },
    {
      "inputs": [],
      "name": "GEN0_STARTING_PRICE",
      "outputs": [
        {
          "internalType": "uint256",
          "name": "",
          "type": "uint256"
        }
      ],
      "stateMutability": "view",
      "type": "function"
    },
    {
      "inputs": [],
      "name": "activeChamps",
      "outputs": [
        {
          "internalType": "uint256",
          "name": "",
          "type": "uint256"
        }
      ],
      "stateMutability": "view",
      "type": "function"
    },
    {
      "inputs": [
        {
          "internalType": "address",
          "name": "_to",
          "type": "address"
        },
        {
          "internalType": "uint256",
          "name": "_tokenId",
          "type": "uint256"
        }
      ],
      "name": "approve",
      "outputs": [],
      "stateMutability": "nonpayable",
      "type": "function"
    },
    {
      "inputs": [],
      "name": "autoLogFee",
      "outputs": [
        {
          "internalType": "uint256",
          "name": "",
          "type": "uint256"
        }
      ],
      "stateMutability": "view",
      "type": "function"
    },
    {
      "inputs": [
        {
          "internalType": "address",
          "name": "_owner",
          "type": "address"
        }
      ],
      "name": "balanceOf",
      "outputs": [
        {
          "internalType": "uint256",
          "name": "count",
          "type": "uint256"
        }
      ],
      "stateMutability": "view",
      "type": "function"
    },
    {
      "inputs": [],
      "name": "ceoAddress",
      "outputs": [
        {
          "internalType": "address",
          "name": "",
          "type": "address"
        }
      ],
      "stateMutability": "view",
      "type": "function"
    },
    {
      "inputs": [],
      "name": "cfoAddress",
      "outputs": [
        {
          "internalType": "address payable",
          "name": "",
          "type": "address"
        }
      ],
      "stateMutability": "view",
      "type": "function"
    },
    {
      "inputs": [
        {
          "internalType": "uint256",
          "name": "",
          "type": "uint256"
        }
      ],
      "name": "champIndexToApproved",
      "outputs": [
        {
          "internalType": "address",
          "name": "",
          "type": "address"
        }
      ],
      "stateMutability": "view",
      "type": "function"
    },
    {
      "inputs": [
        {
          "internalType": "uint256",
          "name": "",
          "type": "uint256"
        }
      ],
      "name": "champIndexToOwner",
      "outputs": [
        {
          "internalType": "address",
          "name": "",
          "type": "address"
        }
      ],
      "stateMutability": "view",
      "type": "function"
    },
    {
      "inputs": [
        {
          "internalType": "uint256",
          "name": "",
          "type": "uint256"
        }
      ],
      "name": "champIndexToTrader",
      "outputs": [
        {
          "internalType": "address",
          "name": "",
          "type": "address"
        }
      ],
      "stateMutability": "view",
      "type": "function"
    },
    {
      "inputs": [],
      "name": "cooAddress",
      "outputs": [
        {
          "internalType": "address",
          "name": "",
          "type": "address"
        }
      ],
      "stateMutability": "view",
      "type": "function"
    },
    {
      "inputs": [
        {
          "internalType": "uint256",
          "name": "_champId",
          "type": "uint256"
        },
        {
          "internalType": "uint256",
          "name": "_startingPrice",
          "type": "uint256"
        },
        {
          "internalType": "uint256",
          "name": "_endingPrice",
          "type": "uint256"
        },
        {
          "internalType": "uint256",
          "name": "_duration",
          "type": "uint256"
        }
      ],
      "name": "createSaleAuction",
      "outputs": [],
      "stateMutability": "nonpayable",
      "type": "function"
    },
    {
      "inputs": [],
      "name": "erc721Metadata",
      "outputs": [
        {
          "internalType": "contract ERC721Metadata",
          "name": "",
          "type": "address"
        }
      ],
      "stateMutability": "view",
      "type": "function"
    },
    {
      "inputs": [],
      "name": "gen0CreatedCount",
      "outputs": [
        {
          "internalType": "uint256",
          "name": "",
          "type": "uint256"
        }
      ],
      "stateMutability": "view",
      "type": "function"
    },
    {
      "inputs": [
        {
          "internalType": "uint256",
          "name": "_champId",
          "type": "uint256"
        }
      ],
      "name": "get_trade_log",
      "outputs": [
        {
          "internalType": "string",
          "name": "",
          "type": "string"
        }
      ],
      "stateMutability": "view",
      "type": "function"
    },
    {
      "inputs": [
        {
          "internalType": "uint256",
          "name": "_champId",
          "type": "uint256"
        }
      ],
      "name": "init",
      "outputs": [],
      "stateMutability": "nonpayable",
      "type": "function"
    },
    {
      "inputs": [
        {
          "internalType": "uint256",
          "name": "_champId",
          "type": "uint256"
        }
      ],
      "name": "isActive",
      "outputs": [
        {
          "internalType": "bool",
          "name": "",
          "type": "bool"
        }
      ],
      "stateMutability": "view",
      "type": "function"
    },
    {
      "inputs": [],
      "name": "name",
      "outputs": [
        {
          "internalType": "string",
          "name": "",
          "type": "string"
        }
      ],
      "stateMutability": "view",
      "type": "function"
    },
    {
      "inputs": [
        {
          "internalType": "uint256",
          "name": "_tokenId",
          "type": "uint256"
        }
      ],
      "name": "ownerOf",
      "outputs": [
        {
          "internalType": "address",
          "name": "owner",
          "type": "address"
        }
      ],
      "stateMutability": "view",
      "type": "function"
    },
    {
      "inputs": [],
      "name": "pause",
      "outputs": [],
      "stateMutability": "nonpayable",
      "type": "function"
    },
    {
      "inputs": [],
      "name": "paused",
      "outputs": [
        {
          "internalType": "bool",
          "name": "",
          "type": "bool"
        }
      ],
      "stateMutability": "view",
      "type": "function"
    },
    {
      "inputs": [],
      "name": "saleAuctionContract",
      "outputs": [
        {
          "internalType": "contract SaleClockAuction",
          "name": "",
          "type": "address"
        }
      ],
      "stateMutability": "view",
      "type": "function"
    },
    {
      "inputs": [
        {
          "internalType": "uint256",
          "name": "val",
          "type": "uint256"
        }
      ],
      "name": "setAutoLogFee",
      "outputs": [],
      "stateMutability": "nonpayable",
      "type": "function"
    },
    {
      "inputs": [
        {
          "internalType": "address",
          "name": "_newCEO",
          "type": "address"
        }
      ],
      "name": "setCEO",
      "outputs": [],
      "stateMutability": "nonpayable",
      "type": "function"
    },
    {
      "inputs": [
        {
          "internalType": "address",
          "name": "_newCFO",
          "type": "address"
        }
      ],
      "name": "setCFO",
      "outputs": [],
      "stateMutability": "nonpayable",
      "type": "function"
    },
    {
      "inputs": [
        {
          "internalType": "address",
          "name": "_newCOO",
          "type": "address"
        }
      ],
      "name": "setCOO",
      "outputs": [],
      "stateMutability": "nonpayable",
      "type": "function"
    },
    {
      "inputs": [
        {
          "internalType": "address",
          "name": "_contractAddress",
          "type": "address"
        }
      ],
      "name": "setMetadataAddress",
      "outputs": [],
      "stateMutability": "nonpayable",
      "type": "function"
    },
    {
      "inputs": [
        {
          "internalType": "address",
          "name": "_address",
          "type": "address"
        }
      ],
      "name": "setSaleAuctionAddress",
      "outputs": [],
      "stateMutability": "nonpayable",
      "type": "function"
    },
    {
      "inputs": [
        {
          "internalType": "uint256",
          "name": "_champId",
          "type": "uint256"
        },
        {
          "internalType": "string",
          "name": "_ticker",
          "type": "string"
        },
        {
          "internalType": "string",
          "name": "_avgPrice",
          "type": "string"
        },
        {
          "internalType": "string",
          "name": "_transactQty",
          "type": "string"
        }
      ],
      "name": "setlogTrade",
      "outputs": [],
      "stateMutability": "nonpayable",
      "type": "function"
    },
    {
      "inputs": [
        {
          "internalType": "bytes4",
          "name": "_interfaceID",
          "type": "bytes4"
        }
      ],
      "name": "supportsInterface",
      "outputs": [
        {
          "internalType": "bool",
          "name": "",
          "type": "bool"
        }
      ],
      "stateMutability": "view",
      "type": "function"
    },
    {
      "inputs": [],
      "name": "symbol",
      "outputs": [
        {
          "internalType": "string",
          "name": "",
          "type": "string"
        }
      ],
      "stateMutability": "view",
      "type": "function"
    },
    {
      "inputs": [
        {
          "internalType": "uint256",
          "name": "_tokenId",
          "type": "uint256"
        },
        {
          "internalType": "string",
          "name": "_preferredTransport",
          "type": "string"
        }
      ],
      "name": "tokenMetadata",
      "outputs": [
        {
          "internalType": "string",
          "name": "infoUrl",
          "type": "string"
        }
      ],
      "stateMutability": "view",
      "type": "function"
    },
    {
      "inputs": [
        {
          "internalType": "address",
          "name": "_owner",
          "type": "address"
        }
      ],
      "name": "tokensOfOwner",
      "outputs": [
        {
          "internalType": "uint256[]",
          "name": "ownerTokens",
          "type": "uint256[]"
        }
      ],
      "stateMutability": "view",
      "type": "function"
    },
    {
      "inputs": [],
      "name": "totalSupply",
      "outputs": [
        {
          "internalType": "uint256",
          "name": "",
          "type": "uint256"
        }
      ],
      "stateMutability": "view",
      "type": "function"
    },
    {
      "inputs": [
        {
          "internalType": "uint256",
          "name": "",
          "type": "uint256"
        }
      ],
      "name": "traderAddress",
      "outputs": [
        {
          "internalType": "address",
          "name": "",
          "type": "address"
        }
      ],
      "stateMutability": "view",
      "type": "function"
    },
    {
      "inputs": [
        {
          "internalType": "address",
          "name": "_to",
          "type": "address"
        },
        {
          "internalType": "uint256",
          "name": "_tokenId",
          "type": "uint256"
        }
      ],
      "name": "transfer",
      "outputs": [],
      "stateMutability": "nonpayable",
      "type": "function"
    },
    {
      "inputs": [
        {
          "internalType": "address",
          "name": "_from",
          "type": "address"
        },
        {
          "internalType": "address",
          "name": "_to",
          "type": "address"
        },
        {
          "internalType": "uint256",
          "name": "_tokenId",
          "type": "uint256"
        }
      ],
      "name": "transferFrom",
      "outputs": [],
      "stateMutability": "nonpayable",
      "type": "function"
    },
    {
      "inputs": [],
      "name": "unpause",
      "outputs": [],
      "stateMutability": "nonpayable",
      "type": "function"
    },
    {
      "inputs": [],
      "name": "withdrawAuctionBalances",
      "outputs": [],
      "stateMutability": "nonpayable",
      "type": "function"
    },
    {
      "inputs": [
        {
          "internalType": "string",
          "name": "_philosophyIpfsHash",
          "type": "string"
        },
        {
          "internalType": "address",
          "name": "_trader",
          "type": "address"
        }
      ],
      "name": "createGen0Auction",
      "outputs": [],
      "stateMutability": "nonpayable",
      "type": "function"
    }
  ],
  "bytecode": "0x60806040526000600460006101000a81548160ff02191690831515021790555066071afd498d0000600c556000600d5534801561003b57600080fd5b50613be38061004b6000396000f3fe608060405234801561001057600080fd5b506004361061025e5760003560e01c8063592f55591161014657806391876e57116100c3578063b5bb78fc11610087578063b5bb78fc146106ff578063b7b0422d1461072f578063bc4006f51461074b578063bf1ca71914610769578063e17b25af14610785578063f1ca9410146107a15761025e565b806391876e571461067f57806395d89b4114610689578063a117251b146106a7578063a9059cbb146106c5578063b047fb50146106e15761025e565b806370a082311161010a57806370a08231146105c757806379ee23f0146105f757806382afd23b146106155780638456cb59146106455780638462151c1461064f5761025e565b8063592f55591461050f5780635c975abb1461053f5780636352211e1461055d578063680eba271461058d5780636fbde40d146105ab5761025e565b80631e01446c116101df5780633d7d3f5a116101a35780633d7d3f5a146104515780633e444f8b1461046d5780633f4ba83a1461049d57806343490e60146104a75780634bc464b2146104c35780634e0a3379146104f35761025e565b80631e01446c146103b157806323b872dd146103cd57806327d7874c146103e95780632ba73c15146104055780632ed59d29146104215761025e565b8063095ea7b311610226578063095ea7b31461031d5780630a0f8168146103395780630e583df01461035757806318160ddd1461037557806319c2f201146103935761025e565b806301ffc9a71461026357806303850848146102935780630519ce79146102b15780630560ff44146102cf57806306fdde03146102ff575b600080fd5b61027d60048036038101906102789190612a8b565b6107bf565b60405161028a9190612ad3565b60405180910390f35b61029b6109c3565b6040516102a89190612b6d565b60405180910390f35b6102b96109e9565b6040516102c69190612ba9565b60405180910390f35b6102e960048036038101906102e49190612d40565b610a0f565b6040516102f69190612e24565b60405180910390f35b610307610ad3565b6040516103149190612e24565b60405180910390f35b61033760048036038101906103329190612e84565b610b0c565b005b610341610b82565b60405161034e9190612ed3565b60405180910390f35b61035f610ba6565b60405161036c9190612efd565b60405180910390f35b61037d610bb1565b60405161038a9190612efd565b60405180910390f35b61039b610bca565b6040516103a89190612efd565b60405180910390f35b6103cb60048036038101906103c69190612f18565b610bd1565b005b6103e760048036038101906103e29190612f45565b610c35565b005b61040360048036038101906103fe9190612f98565b610cf6565b005b61041f600480360381019061041a9190612f98565b610dca565b005b61043b60048036038101906104369190612f18565b610e9f565b6040516104489190612e24565b60405180910390f35b61046b60048036038101906104669190612fc5565b610f6f565b005b61048760048036038101906104829190612f18565b611075565b6040516104949190612ed3565b60405180910390f35b6104a56110a8565b005b6104c160048036038101906104bc919061302c565b611136565b005b6104dd60048036038101906104d89190612f18565b611298565b6040516104ea9190612ed3565b60405180910390f35b61050d60048036038101906105089190612f98565b6112cb565b005b61052960048036038101906105249190612f18565b6113a0565b6040516105369190612ed3565b60405180910390f35b6105476113d3565b6040516105549190612ad3565b60405180910390f35b61057760048036038101906105729190612f18565b6113e6565b6040516105849190612ed3565b60405180910390f35b61059561145c565b6040516105a29190612efd565b60405180910390f35b6105c560048036038101906105c09190612f98565b611462565b005b6105e160048036038101906105dc9190612f98565b61157c565b6040516105ee9190612efd565b60405180910390f35b6105ff6115c5565b60405161060c9190612efd565b60405180910390f35b61062f600480360381019061062a9190612f18565b6115cb565b60405161063c9190612ad3565b60405180910390f35b61064d611613565b005b61066960048036038101906106649190612f98565b611752565b6040516106769190613146565b60405180910390f35b6106876118d9565b005b610691611a65565b60405161069e9190612e24565b60405180910390f35b6106af611a9e565b6040516106bc9190612efd565b60405180910390f35b6106df60048036038101906106da9190612e84565b611aa4565b005b6106e9611be6565b6040516106f69190612ed3565b60405180910390f35b61071960048036038101906107149190612f18565b611c0c565b6040516107269190612ed3565b60405180910390f35b61074960048036038101906107449190612f18565b611c3f565b005b610753611cc8565b6040516107609190613189565b60405180910390f35b610783600480360381019061077e91906131a4565b611cee565b005b61079f600480360381019061079a9190612f98565b612009565b005b6107a96120a5565b6040516107b69190612efd565b60405180910390f35b60007f01ffc9a7a5cef8baa21ed3c5c0d7e23accb804b619e9333b597f47a0d84076e27bffffffffffffffffffffffffffffffffffffffffffffffffffffffff1916827bffffffffffffffffffffffffffffffffffffffffffffffffffffffff191614806109bc57507f0560ff44c470b66135b184f41c47840de0a42f8d70ee772ca647210e9eb3c8fd7f8462151cfcc0f257319f78db464014651918f3905b3d4bdab48d3f4618c542c17f23b872dd7302113369cda2901243429419bec145408fa8b352b3dd92b66c680b7fa9059cbb2ab09eb219583f4a59a5d0623ade346d962bcd4e46b11da047c9049b7f095ea7b334ae44009aa867bfb386f5c3b4b443ac6f0ee573fa91c4608fbadfba7f6352211e6566aa027e75ac9dbf2423197fbd9b82b9d981a3ab367d355866aa1c7f70a08231b98ef4ca268c9cc3f6b4590e4bfec28280db06bb5d45e689f2a360be7f18160ddd7f15c72528c2f94fd8dfe3c8d5aa26e2c50c7d81f4bc7bee8d4b79327f95d89b41e2f5f391a79ec54e9d87c79d6e777c63e32c28da95b4e9e4a79250ec7f06fdde0383f15d582d1a74511486c9ddf862a882fb7904b3d9fe9b8b8e58a7961818181818181818187bffffffffffffffffffffffffffffffffffffffffffffffffffffffff1916827bffffffffffffffffffffffffffffffffffffffffffffffffffffffff1916145b9050919050565b600a60009054906101000a900473ffffffffffffffffffffffffffffffffffffffff1681565b600160009054906101000a900473ffffffffffffffffffffffffffffffffffffffff1681565b6060610a1961295a565b6000600b60009054906101000a900473ffffffffffffffffffffffffffffffffffffffff1673ffffffffffffffffffffffffffffffffffffffff1663a574cea4866040518263ffffffff1660e01b8152600401610a769190612efd565b60a060405180830381865afa158015610a93573d6000803e3d6000fd5b505050506040513d601f19601f82011682018060405250810190610ab79190613360565b8092508193505050610ac982826120ab565b9250505092915050565b6040518060400160405280600b81526020017f4368616d7054726164657200000000000000000000000000000000000000000081525081565b600460009054906101000a900460ff1615610b2657600080fd5b610b303382612121565b610b3957600080fd5b610b43818361218d565b7f8c5be1e5ebec7d5bd14f71427d1e84f3dd0314c0f7b2291e5b200ac8c7c3b925338383604051610b76939291906133a0565b60405180910390a15050565b60008054906101000a900473ffffffffffffffffffffffffffffffffffffffff1681565b662386f26fc1000081565b60006001600580549050610bc59190613406565b905090565b6201518081565b600260009054906101000a900473ffffffffffffffffffffffffffffffffffffffff1673ffffffffffffffffffffffffffffffffffffffff163373ffffffffffffffffffffffffffffffffffffffff1614610c2b57600080fd5b80600c8190555050565b600460009054906101000a900460ff1615610c4f57600080fd5b600073ffffffffffffffffffffffffffffffffffffffff168273ffffffffffffffffffffffffffffffffffffffff1603610c8857600080fd5b3073ffffffffffffffffffffffffffffffffffffffff168273ffffffffffffffffffffffffffffffffffffffff1603610cc057600080fd5b610cca33826121e3565b610cd357600080fd5b610cdd8382612121565b610ce657600080fd5b610cf183838361224f565b505050565b60008054906101000a900473ffffffffffffffffffffffffffffffffffffffff1673ffffffffffffffffffffffffffffffffffffffff163373ffffffffffffffffffffffffffffffffffffffff1614610d4e57600080fd5b600073ffffffffffffffffffffffffffffffffffffffff168173ffffffffffffffffffffffffffffffffffffffff1603610d8757600080fd5b806000806101000a81548173ffffffffffffffffffffffffffffffffffffffff021916908373ffffffffffffffffffffffffffffffffffffffff16021790555050565b60008054906101000a900473ffffffffffffffffffffffffffffffffffffffff1673ffffffffffffffffffffffffffffffffffffffff163373ffffffffffffffffffffffffffffffffffffffff1614610e2257600080fd5b600073ffffffffffffffffffffffffffffffffffffffff168173ffffffffffffffffffffffffffffffffffffffff1603610e5b57600080fd5b80600260006101000a81548173ffffffffffffffffffffffffffffffffffffffff021916908373ffffffffffffffffffffffffffffffffffffffff16021790555050565b6060610eab33836123bb565b610eb457600080fd5b600060058381548110610eca57610ec961343a565b5b90600052602060002090600502019050806000018054610ee990613498565b80601f0160208091040260200160405190810160405280929190818152602001828054610f1590613498565b8015610f625780601f10610f3757610100808354040283529160200191610f62565b820191906000526020600020905b815481529060010190602001808311610f4557829003601f168201915b5050505050915050919050565b600460009054906101000a900460ff1615610f8957600080fd5b610f933385612121565b610f9c57600080fd5b610fa5846115cb565b610fae57600080fd5b610fda84600a60009054906101000a900473ffffffffffffffffffffffffffffffffffffffff1661218d565b600a60009054906101000a900473ffffffffffffffffffffffffffffffffffffffff1673ffffffffffffffffffffffffffffffffffffffff166327ebe40a85858585336040518663ffffffff1660e01b815260040161103d9594939291906134c9565b600060405180830381600087803b15801561105757600080fd5b505af115801561106b573d6000803e3d6000fd5b5050505050505050565b60066020528060005260406000206000915054906101000a900473ffffffffffffffffffffffffffffffffffffffff1681565b60008054906101000a900473ffffffffffffffffffffffffffffffffffffffff1673ffffffffffffffffffffffffffffffffffffffff163373ffffffffffffffffffffffffffffffffffffffff161461110057600080fd5b600460009054906101000a900460ff1661111957600080fd5b6000600460006101000a81548160ff021916908315150217905550565b600260009054906101000a900473ffffffffffffffffffffffffffffffffffffffff1673ffffffffffffffffffffffffffffffffffffffff163373ffffffffffffffffffffffffffffffffffffffff161461119057600080fd5b61afc8600e54106111a057600080fd5b60006111ad8330846123f1565b90506111db81600a60009054906101000a900473ffffffffffffffffffffffffffffffffffffffff1661218d565b600a60009054906101000a900473ffffffffffffffffffffffffffffffffffffffff1673ffffffffffffffffffffffffffffffffffffffff166327ebe40a826112226125f5565b600062015180306040518663ffffffff1660e01b8152600401611249959493929190613557565b600060405180830381600087803b15801561126357600080fd5b505af1158015611277573d6000803e3d6000fd5b50505050600e600081548092919061128e906135aa565b9190505550505050565b60036020528060005260406000206000915054906101000a900473ffffffffffffffffffffffffffffffffffffffff1681565b60008054906101000a900473ffffffffffffffffffffffffffffffffffffffff1673ffffffffffffffffffffffffffffffffffffffff163373ffffffffffffffffffffffffffffffffffffffff161461132357600080fd5b600073ffffffffffffffffffffffffffffffffffffffff168173ffffffffffffffffffffffffffffffffffffffff160361135c57600080fd5b80600160006101000a81548173ffffffffffffffffffffffffffffffffffffffff021916908373ffffffffffffffffffffffffffffffffffffffff16021790555050565b60086020528060005260406000206000915054906101000a900473ffffffffffffffffffffffffffffffffffffffff1681565b600460009054906101000a900460ff1681565b60006006600083815260200190815260200160002060009054906101000a900473ffffffffffffffffffffffffffffffffffffffff169050600073ffffffffffffffffffffffffffffffffffffffff168173ffffffffffffffffffffffffffffffffffffffff160361145757600080fd5b919050565b61afc881565b60008054906101000a900473ffffffffffffffffffffffffffffffffffffffff1673ffffffffffffffffffffffffffffffffffffffff163373ffffffffffffffffffffffffffffffffffffffff16146114ba57600080fd5b60008190508073ffffffffffffffffffffffffffffffffffffffff166385b861886040518163ffffffff1660e01b8152600401602060405180830381865afa15801561150a573d6000803e3d6000fd5b505050506040513d601f19601f8201168201806040525081019061152e919061361e565b61153757600080fd5b80600a60006101000a81548173ffffffffffffffffffffffffffffffffffffffff021916908373ffffffffffffffffffffffffffffffffffffffff1602179055505050565b6000600760008373ffffffffffffffffffffffffffffffffffffffff1673ffffffffffffffffffffffffffffffffffffffff168152602001908152602001600020549050919050565b600d5481565b600080600583815481106115e2576115e161343a565b5b906000526020600020906005020160040160009054906101000a900463ffffffff1663ffffffff1614159050919050565b600260009054906101000a900473ffffffffffffffffffffffffffffffffffffffff1673ffffffffffffffffffffffffffffffffffffffff163373ffffffffffffffffffffffffffffffffffffffff1614806116ba575060008054906101000a900473ffffffffffffffffffffffffffffffffffffffff1673ffffffffffffffffffffffffffffffffffffffff163373ffffffffffffffffffffffffffffffffffffffff16145b806117125750600160009054906101000a900473ffffffffffffffffffffffffffffffffffffffff1673ffffffffffffffffffffffffffffffffffffffff163373ffffffffffffffffffffffffffffffffffffffff16145b61171b57600080fd5b600460009054906101000a900460ff161561173557600080fd5b6001600460006101000a81548160ff021916908315150217905550565b6060600061175f8361157c565b9050600081036117bb57600067ffffffffffffffff81111561178457611783612c15565b5b6040519080825280602002602001820160405280156117b25781602001602082028036833780820191505090505b509150506118d4565b60008167ffffffffffffffff8111156117d7576117d6612c15565b5b6040519080825280602002602001820160405280156118055781602001602082028036833780820191505090505b5090506000611812610bb1565b9050600080600190505b8281116118cb578673ffffffffffffffffffffffffffffffffffffffff166006600083815260200190815260200160002060009054906101000a900473ffffffffffffffffffffffffffffffffffffffff1673ffffffffffffffffffffffffffffffffffffffff16036118b8578084838151811061189d5761189c61343a565b5b60200260200101818152505081806118b4906135aa565b9250505b80806118c3906135aa565b91505061181c565b83955050505050505b919050565b600260009054906101000a900473ffffffffffffffffffffffffffffffffffffffff1673ffffffffffffffffffffffffffffffffffffffff163373ffffffffffffffffffffffffffffffffffffffff161480611980575060008054906101000a900473ffffffffffffffffffffffffffffffffffffffff1673ffffffffffffffffffffffffffffffffffffffff163373ffffffffffffffffffffffffffffffffffffffff16145b806119d85750600160009054906101000a900473ffffffffffffffffffffffffffffffffffffffff1673ffffffffffffffffffffffffffffffffffffffff163373ffffffffffffffffffffffffffffffffffffffff16145b6119e157600080fd5b600a60009054906101000a900473ffffffffffffffffffffffffffffffffffffffff1673ffffffffffffffffffffffffffffffffffffffff16635fd8c7106040518163ffffffff1660e01b8152600401600060405180830381600087803b158015611a4b57600080fd5b505af1158015611a5f573d6000803e3d6000fd5b50505050565b6040518060400160405280600281526020017f435400000000000000000000000000000000000000000000000000000000000081525081565b600c5481565b600460009054906101000a900460ff1615611abe57600080fd5b600073ffffffffffffffffffffffffffffffffffffffff168273ffffffffffffffffffffffffffffffffffffffff1603611af757600080fd5b3073ffffffffffffffffffffffffffffffffffffffff168273ffffffffffffffffffffffffffffffffffffffff1603611b2f57600080fd5b600a60009054906101000a900473ffffffffffffffffffffffffffffffffffffffff1673ffffffffffffffffffffffffffffffffffffffff168273ffffffffffffffffffffffffffffffffffffffff1603611b8957600080fd5b611b933382612121565b611b9c57600080fd5b611ba733838361224f565b7fddf252ad1be2c89b69c2b068fc378daa952ba7f163c4a11628f55a4df523b3ef338383604051611bda939291906133a0565b60405180910390a15050565b600260009054906101000a900473ffffffffffffffffffffffffffffffffffffffff1681565b60096020528060005260406000206000915054906101000a900473ffffffffffffffffffffffffffffffffffffffff1681565b611c4933826126e7565b611c5257600080fd5b600060058281548110611c6857611c6761343a565b5b9060005260206000209060050201905060405180602001604052806000815250816000019080519060200190611c9f92919061297c565b5060008160040160006101000a81548163ffffffff021916908363ffffffff1602179055505050565b600b60009054906101000a900473ffffffffffffffffffffffffffffffffffffffff1681565b600460009054906101000a900460ff1615611d0857600080fd5b611d1233856126e7565b611d1b57600080fd5b600060058581548110611d3157611d3061343a565b5b9060005260206000209060050201905060008160020160009054906101000a900467ffffffffffffffff1667ffffffffffffffff1603611d7057600080fd5b60006040518060400160405280600181526020017f7b000000000000000000000000000000000000000000000000000000000000008152506040518060400160405280600781526020017f7469636b65723a00000000000000000000000000000000000000000000000000815250866040518060400160405280600b81526020017f2c6176675f70726963653a000000000000000000000000000000000000000000815250876040518060400160405280600e81526020017f2c7472616e736163745f7174793a000000000000000000000000000000000000815250886040518060400160405280600b81526020017f2c74696d657374616d703a000000000000000000000000000000000000000000815250611e8c42612753565b6040518060400160405280600181526020017f7d00000000000000000000000000000000000000000000000000000000000000815250604051602001611edb9a99989796959493929190613692565b60405160208183030381529060405290506000611ef7876115cb565b90508015611f41578260000182604051602001611f159291906137d8565b604051602081830303815290604052836000019080519060200190611f3b92919061297c565b50611f75565b81836000019080519060200190611f5992919061297c565b506001600d6000828254611f6d919061380b565b925050819055505b60018360040160008282829054906101000a900463ffffffff16611f999190613871565b92506101000a81548163ffffffff021916908363ffffffff1602179055503373ffffffffffffffffffffffffffffffffffffffff166108fc600c549081150290604051600060405180830381858888f19350505050158015611fff573d6000803e3d6000fd5b5050505050505050565b60008054906101000a900473ffffffffffffffffffffffffffffffffffffffff1673ffffffffffffffffffffffffffffffffffffffff163373ffffffffffffffffffffffffffffffffffffffff161461206157600080fd5b80600b60006101000a81548173ffffffffffffffffffffffffffffffffffffffff021916908373ffffffffffffffffffffffffffffffffffffffff16021790555050565b600e5481565b606060008267ffffffffffffffff8111156120c9576120c8612c15565b5b6040519080825280601f01601f1916602001820160405280156120fb5781602001600182028036833780820191505090505b5090506000806020830191508590506121158282876128db565b82935050505092915050565b60008273ffffffffffffffffffffffffffffffffffffffff166006600084815260200190815260200160002060009054906101000a900473ffffffffffffffffffffffffffffffffffffffff1673ffffffffffffffffffffffffffffffffffffffff1614905092915050565b806008600084815260200190815260200160002060006101000a81548173ffffffffffffffffffffffffffffffffffffffff021916908373ffffffffffffffffffffffffffffffffffffffff1602179055505050565b60008273ffffffffffffffffffffffffffffffffffffffff166008600084815260200190815260200160002060009054906101000a900473ffffffffffffffffffffffffffffffffffffffff1673ffffffffffffffffffffffffffffffffffffffff1614905092915050565b600760008373ffffffffffffffffffffffffffffffffffffffff1673ffffffffffffffffffffffffffffffffffffffff168152602001908152602001600020600081548092919061229f906135aa565b9190505550816006600083815260200190815260200160002060006101000a81548173ffffffffffffffffffffffffffffffffffffffff021916908373ffffffffffffffffffffffffffffffffffffffff160217905550600073ffffffffffffffffffffffffffffffffffffffff168373ffffffffffffffffffffffffffffffffffffffff16146123b657600760008473ffffffffffffffffffffffffffffffffffffffff1673ffffffffffffffffffffffffffffffffffffffff168152602001908152602001600020600081548092919061237a906138ab565b91905055506008600082815260200190815260200160002060006101000a81549073ffffffffffffffffffffffffffffffffffffffff02191690555b505050565b600080600090506123cc84846126e7565b806123dd57506123dc8484612121565b5b156123e757600190505b8091505092915050565b600080600580549050905060006040518060c001604052806040518060200160405280600081525081526020018781526020014267ffffffffffffffff168152602001838152602001600063ffffffff1681526020018573ffffffffffffffffffffffffffffffffffffffff168152509050600581908060018154018082558091505060019003906000526020600020906005020160009091909190915060008201518160000190805190602001906124ab92919061297c565b5060208201518160010190805190602001906124c892919061297c565b5060408201518160020160006101000a81548167ffffffffffffffff021916908367ffffffffffffffff1602179055506060820151816003015560808201518160040160006101000a81548163ffffffff021916908363ffffffff16021790555060a08201518160040160046101000a81548173ffffffffffffffffffffffffffffffffffffffff021916908373ffffffffffffffffffffffffffffffffffffffff16021790555050508373ffffffffffffffffffffffffffffffffffffffff168573ffffffffffffffffffffffffffffffffffffffff167f722aea23a553d0c4b25addc860f95b66b7b85367e7b3df20dafaf05eb22926ab8484602001516040516125d59291906138d4565b60405180910390a36125e96000868461224f565b81925050509392505050565b600080600a60009054906101000a900473ffffffffffffffffffffffffffffffffffffffff1673ffffffffffffffffffffffffffffffffffffffff1663eac9d94c6040518163ffffffff1660e01b8152600401602060405180830381865afa158015612665573d6000803e3d6000fd5b505050506040513d601f19601f820116820180604052508101906126899190613904565b9050806fffffffffffffffffffffffffffffffff1681146126a957600080fd5b60006002826126b89190613960565b826126c3919061380b565b9050662386f26fc100008110156126df57662386f26fc1000090505b809250505090565b60008273ffffffffffffffffffffffffffffffffffffffff166009600084815260200190815260200160002060009054906101000a900473ffffffffffffffffffffffffffffffffffffffff1673ffffffffffffffffffffffffffffffffffffffff1614905092915050565b60606000820361279a576040518060400160405280600181526020017f300000000000000000000000000000000000000000000000000000000000000081525090506128d6565b600082905060005b600082146127cc5780806127b5906135aa565b915050600a826127c59190613960565b91506127a2565b60008167ffffffffffffffff8111156127e8576127e7612c15565b5b6040519080825280601f01601f19166020018201604052801561281a5781602001600182028036833780820191505090505b50905060008290505b600086146128ce576001816128389190613406565b90506000600a808861284a9190613960565b6128549190613991565b8761285f9190613406565b603061286b91906139f8565b905060008160f81b9050808484815181106128895761288861343a565b5b60200101907effffffffffffffffffffffffffffffffffffffffffffffffffffffffffffff1916908160001a905350600a886128c59190613960565b97505050612823565b819450505050505b919050565b5b6020811061291a57815183526020836128f5919061380b565b9250602082612904919061380b565b91506020816129139190613406565b90506128dc565b6000600182602061292b9190613406565b6101006129389190613b62565b6129429190613406565b90508019835116818551168181178652505050505050565b6040518060800160405280600490602082028036833780820191505090505090565b82805461298890613498565b90600052602060002090601f0160209004810192826129aa57600085556129f1565b82601f106129c357805160ff19168380011785556129f1565b828001600101855582156129f1579182015b828111156129f05782518255916020019190600101906129d5565b5b5090506129fe9190612a02565b5090565b5b80821115612a1b576000816000905550600101612a03565b5090565b6000604051905090565b600080fd5b600080fd5b60007fffffffff0000000000000000000000000000000000000000000000000000000082169050919050565b612a6881612a33565b8114612a7357600080fd5b50565b600081359050612a8581612a5f565b92915050565b600060208284031215612aa157612aa0612a29565b5b6000612aaf84828501612a76565b91505092915050565b60008115159050919050565b612acd81612ab8565b82525050565b6000602082019050612ae86000830184612ac4565b92915050565b600073ffffffffffffffffffffffffffffffffffffffff82169050919050565b6000819050919050565b6000612b33612b2e612b2984612aee565b612b0e565b612aee565b9050919050565b6000612b4582612b18565b9050919050565b6000612b5782612b3a565b9050919050565b612b6781612b4c565b82525050565b6000602082019050612b826000830184612b5e565b92915050565b6000612b9382612aee565b9050919050565b612ba381612b88565b82525050565b6000602082019050612bbe6000830184612b9a565b92915050565b6000819050919050565b612bd781612bc4565b8114612be257600080fd5b50565b600081359050612bf481612bce565b92915050565b600080fd5b600080fd5b6000601f19601f8301169050919050565b7f4e487b7100000000000000000000000000000000000000000000000000000000600052604160045260246000fd5b612c4d82612c04565b810181811067ffffffffffffffff82111715612c6c57612c6b612c15565b5b80604052505050565b6000612c7f612a1f565b9050612c8b8282612c44565b919050565b600067ffffffffffffffff821115612cab57612caa612c15565b5b612cb482612c04565b9050602081019050919050565b82818337600083830152505050565b6000612ce3612cde84612c90565b612c75565b905082815260208101848484011115612cff57612cfe612bff565b5b612d0a848285612cc1565b509392505050565b600082601f830112612d2757612d26612bfa565b5b8135612d37848260208601612cd0565b91505092915050565b60008060408385031215612d5757612d56612a29565b5b6000612d6585828601612be5565b925050602083013567ffffffffffffffff811115612d8657612d85612a2e565b5b612d9285828601612d12565b9150509250929050565b600081519050919050565b600082825260208201905092915050565b60005b83811015612dd6578082015181840152602081019050612dbb565b83811115612de5576000848401525b50505050565b6000612df682612d9c565b612e008185612da7565b9350612e10818560208601612db8565b612e1981612c04565b840191505092915050565b60006020820190508181036000830152612e3e8184612deb565b905092915050565b6000612e5182612aee565b9050919050565b612e6181612e46565b8114612e6c57600080fd5b50565b600081359050612e7e81612e58565b92915050565b60008060408385031215612e9b57612e9a612a29565b5b6000612ea985828601612e6f565b9250506020612eba85828601612be5565b9150509250929050565b612ecd81612e46565b82525050565b6000602082019050612ee86000830184612ec4565b92915050565b612ef781612bc4565b82525050565b6000602082019050612f126000830184612eee565b92915050565b600060208284031215612f2e57612f2d612a29565b5b6000612f3c84828501612be5565b91505092915050565b600080600060608486031215612f5e57612f5d612a29565b5b6000612f6c86828701612e6f565b9350506020612f7d86828701612e6f565b9250506040612f8e86828701612be5565b9150509250925092565b600060208284031215612fae57612fad612a29565b5b6000612fbc84828501612e6f565b91505092915050565b60008060008060808587031215612fdf57612fde612a29565b5b6000612fed87828801612be5565b9450506020612ffe87828801612be5565b935050604061300f87828801612be5565b925050606061302087828801612be5565b91505092959194509250565b6000806040838503121561304357613042612a29565b5b600083013567ffffffffffffffff81111561306157613060612a2e565b5b61306d85828601612d12565b925050602061307e85828601612e6f565b9150509250929050565b600081519050919050565b600082825260208201905092915050565b6000819050602082019050919050565b6130bd81612bc4565b82525050565b60006130cf83836130b4565b60208301905092915050565b6000602082019050919050565b60006130f382613088565b6130fd8185613093565b9350613108836130a4565b8060005b8381101561313957815161312088826130c3565b975061312b836130db565b92505060018101905061310c565b5085935050505092915050565b6000602082019050818103600083015261316081846130e8565b905092915050565b600061317382612b3a565b9050919050565b61318381613168565b82525050565b600060208201905061319e600083018461317a565b92915050565b600080600080608085870312156131be576131bd612a29565b5b60006131cc87828801612be5565b945050602085013567ffffffffffffffff8111156131ed576131ec612a2e565b5b6131f987828801612d12565b935050604085013567ffffffffffffffff81111561321a57613219612a2e565b5b61322687828801612d12565b925050606085013567ffffffffffffffff81111561324757613246612a2e565b5b61325387828801612d12565b91505092959194509250565b600067ffffffffffffffff82111561327a57613279612c15565b5b602082029050919050565b600080fd5b6000819050919050565b61329d8161328a565b81146132a857600080fd5b50565b6000815190506132ba81613294565b92915050565b60006132d36132ce8461325f565b612c75565b905080602084028301858111156132ed576132ec613285565b5b835b81811015613316578061330288826132ab565b8452602084019350506020810190506132ef565b5050509392505050565b600082601f83011261333557613334612bfa565b5b60046133428482856132c0565b91505092915050565b60008151905061335a81612bce565b92915050565b60008060a0838503121561337757613376612a29565b5b600061338585828601613320565b92505060806133968582860161334b565b9150509250929050565b60006060820190506133b56000830186612ec4565b6133c26020830185612ec4565b6133cf6040830184612eee565b949350505050565b7f4e487b7100000000000000000000000000000000000000000000000000000000600052601160045260246000fd5b600061341182612bc4565b915061341c83612bc4565b92508282101561342f5761342e6133d7565b5b828203905092915050565b7f4e487b7100000000000000000000000000000000000000000000000000000000600052603260045260246000fd5b7f4e487b7100000000000000000000000000000000000000000000000000000000600052602260045260246000fd5b600060028204905060018216806134b057607f821691505b6020821081036134c3576134c2613469565b5b50919050565b600060a0820190506134de6000830188612eee565b6134eb6020830187612eee565b6134f86040830186612eee565b6135056060830185612eee565b6135126080830184612ec4565b9695505050505050565b6000819050919050565b600061354161353c6135378461351c565b612b0e565b612bc4565b9050919050565b61355181613526565b82525050565b600060a08201905061356c6000830188612eee565b6135796020830187612eee565b6135866040830186613548565b6135936060830185612eee565b6135a06080830184612ec4565b9695505050505050565b60006135b582612bc4565b91507fffffffffffffffffffffffffffffffffffffffffffffffffffffffffffffffff82036135e7576135e66133d7565b5b600182019050919050565b6135fb81612ab8565b811461360657600080fd5b50565b600081519050613618816135f2565b92915050565b60006020828403121561363457613633612a29565b5b600061364284828501613609565b91505092915050565b600081519050919050565b600081905092915050565b600061366c8261364b565b6136768185613656565b9350613686818560208601612db8565b80840191505092915050565b600061369e828d613661565b91506136aa828c613661565b91506136b6828b613661565b91506136c2828a613661565b91506136ce8289613661565b91506136da8288613661565b91506136e68287613661565b91506136f28286613661565b91506136fe8285613661565b915061370a8284613661565b91508190509b9a5050505050505050505050565b60008190508160005260206000209050919050565b6000815461374081613498565b61374a8186613656565b945060018216600081146137655760018114613776576137a9565b60ff198316865281860193506137a9565b61377f8561371e565b60005b838110156137a157815481890152600182019150602081019050613782565b838801955050505b50505092915050565b7f2c00000000000000000000000000000000000000000000000000000000000000815250565b60006137e48285613733565b91506137ef826137b2565b6001820191506137ff8284613661565b91508190509392505050565b600061381682612bc4565b915061382183612bc4565b9250827fffffffffffffffffffffffffffffffffffffffffffffffffffffffffffffffff03821115613856576138556133d7565b5b828201905092915050565b600063ffffffff82169050919050565b600061387c82613861565b915061388783613861565b92508263ffffffff038211156138a05761389f6133d7565b5b828201905092915050565b60006138b682612bc4565b9150600082036138c9576138c86133d7565b5b600182039050919050565b60006040820190506138e96000830185612eee565b81810360208301526138fb8184612deb565b90509392505050565b60006020828403121561391a57613919612a29565b5b60006139288482850161334b565b91505092915050565b7f4e487b7100000000000000000000000000000000000000000000000000000000600052601260045260246000fd5b600061396b82612bc4565b915061397683612bc4565b92508261398657613985613931565b5b828204905092915050565b600061399c82612bc4565b91506139a783612bc4565b9250817fffffffffffffffffffffffffffffffffffffffffffffffffffffffffffffffff04831182151516156139e0576139df6133d7565b5b828202905092915050565b600060ff82169050919050565b6000613a03826139eb565b9150613a0e836139eb565b92508260ff03821115613a2457613a236133d7565b5b828201905092915050565b60008160011c9050919050565b6000808291508390505b6001851115613a8657808604811115613a6257613a616133d7565b5b6001851615613a715780820291505b8081029050613a7f85613a2f565b9450613a46565b94509492505050565b600082613a9f5760019050613b5b565b81613aad5760009050613b5b565b8160018114613ac35760028114613acd57613afc565b6001915050613b5b565b60ff841115613adf57613ade6133d7565b5b8360020a915084821115613af657613af56133d7565b5b50613b5b565b5060208310610133831016604e8410600b8410161715613b315782820a905083811115613b2c57613b2b6133d7565b5b613b5b565b613b3e8484846001613a3c565b92509050818404811115613b5557613b546133d7565b5b81810290505b9392505050565b6000613b6d82612bc4565b9150613b7883612bc4565b9250613ba57fffffffffffffffffffffffffffffffffffffffffffffffffffffffffffffffff8484613a8f565b90509291505056fea26469706673582212202db21cc8621156540a8f014173fdaffb5881e88511d25d1b6c0e91bccaf13ea064736f6c634300080d0033",
  "immutableReferences": {},
  "source": "pragma solidity ^0.8.0;\r\n\r\nimport \"./ChampAuction.sol\";\r\n\r\n\r\n/// @title all functions related to creating kittens\r\ncontract ChampMinting is ChampAuction {\r\n\r\n    // Limits the number of cats the contract owner can ever create.=\r\n    uint256 public constant GEN0_CREATION_LIMIT = 45000;\r\n\r\n    // Constants for gen0 auctions.\r\n    uint256 public constant GEN0_STARTING_PRICE = 10 * 1e15;\r\n    uint256 public constant GEN0_AUCTION_DURATION = 1 days;\r\n\r\n    // Counts the number of cats the contract owner has created.\r\n    uint256 public gen0CreatedCount;\r\n\r\n    /// @dev Creates a new gen0 kitty with the given genes and\r\n    ///  creates an auction for it.\r\n    function createGen0Auction(string memory _philosophyIpfsHash, address _trader) external onlyCOO{\r\n        require(gen0CreatedCount < GEN0_CREATION_LIMIT);\r\n        uint256 newChampId = _createChamp(_philosophyIpfsHash, address(this), _trader);\r\n        _approve(newChampId, address(saleAuctionContract) );\r\n\r\n        saleAuctionContract.createAuction(\r\n            newChampId,\r\n            _computeNextGen0Price(),\r\n            0,\r\n            GEN0_AUCTION_DURATION,\r\n            address(this)\r\n        );\r\n\r\n        gen0CreatedCount++;\r\n    }\r\n\r\n\r\n\r\n    /// @dev Computes the next gen0 auction starting price, given\r\n    ///  the average of the past 5 prices + 50%.\r\n    function _computeNextGen0Price() internal view returns (uint256) {\r\n        uint256 avePrice = saleAuctionContract.averageGen0SalePrice();\r\n\r\n        // Sanity check to ensure we don't overflow arithmetic\r\n        require(avePrice == uint256(uint128(avePrice)));\r\n\r\n        uint256 nextPrice = avePrice + (avePrice / 2);\r\n\r\n        // We never auction for less than starting price\r\n        if (nextPrice < GEN0_STARTING_PRICE) {\r\n            nextPrice = GEN0_STARTING_PRICE;\r\n        }\r\n\r\n        return nextPrice;\r\n    }\r\n}\r\n",
  "sourcePath": "C:\\Users\\lam\\Documents\\GitHub\\dynamodb_related\\pythonProject\\smart_contract\\contracts\\ChampMinting.sol",
  "compiler": {
    "name": "solc",
    "version": "0.8.13+commit.abaa5c0e.Emscripten.clang"
  },
  "schemaVersion": "3.4.7",
  "updatedAt": "2022-05-02T01:57:46.531Z",
  "devdoc": {
    "kind": "dev",
    "methods": {
      "approve(address,uint256)": {
        "details": "Required for ERC-721 compliance.",
        "params": {
          "_to": "The address to be granted transfer approval. Pass address(0) to  clear all approvals.",
          "_tokenId": "The ID of the Kitty that can be transferred if this call succeeds."
        }
      },
      "balanceOf(address)": {
        "details": "Required for ERC-721 compliance",
        "params": {
          "_owner": "The owner address to check."
        }
      },
      "createGen0Auction(string,address)": {
        "details": "Creates a new gen0 kitty with the given genes and  creates an auction for it."
      },
      "createSaleAuction(uint256,uint256,uint256,uint256)": {
        "details": "Put a kitty up for auction.  Does some ownership trickery to create auctions in one tx."
      },
      "ownerOf(uint256)": {
        "details": "Required for ERC-721 compliance."
      },
      "pause()": {
        "details": "Called by any \"C-level\" role to pause the contract. Used only when  a bug or exploit is detected and we need to limit damage."
      },
      "setCEO(address)": {
        "details": "Assigns a new address to act as the CEO. Only available to the current CEO.",
        "params": {
          "_newCEO": "The address of the new CEO"
        }
      },
      "setCFO(address)": {
        "details": "Assigns a new address to act as the CFO. Only available to the current CEO.",
        "params": {
          "_newCFO": "The address of the new CFO"
        }
      },
      "setCOO(address)": {
        "details": "Assigns a new address to act as the COO. Only available to the current CEO.",
        "params": {
          "_newCOO": "The address of the new COO"
        }
      },
      "setMetadataAddress(address)": {
        "details": "Set the address of the sibling contract that tracks metadata.  CEO only."
      },
      "setSaleAuctionAddress(address)": {
        "details": "Sets the reference to the sale auction.",
        "params": {
          "_address": "- Address of sale contract."
        }
      },
      "tokenMetadata(uint256,string)": {
        "params": {
          "_tokenId": "The ID number of the Kitty whose metadata should be returned."
        }
      },
      "tokensOfOwner(address)": {
        "details": "This method MUST NEVER be called by smart contract code. First, it's fairly  expensive (it walks the entire Kitty array looking for cats belonging to owner),  but it also returns a dynamic array, which is only supported for web3 calls, and  not contract-to-contract calls.",
        "params": {
          "_owner": "The owner whose Kitties we are interested in."
        }
      },
      "totalSupply()": {
        "details": "Required for ERC-721 compliance."
      },
      "transfer(address,uint256)": {
        "details": "Required for ERC-721 compliance.",
        "params": {
          "_to": "The address of the recipient, can be a user or contract.",
          "_tokenId": "The ID of the Kitty to transfer."
        }
      },
      "transferFrom(address,address,uint256)": {
        "details": "Required for ERC-721 compliance.",
        "params": {
          "_from": "The address that owns the Kitty to be transfered.",
          "_to": "The address that should take ownership of the Kitty. Can be any address,  including the caller.",
          "_tokenId": "The ID of the Kitty to be transferred."
        }
      },
      "unpause()": {
        "details": "Unpauses the smart contract. Can only be called by the CEO, since  one reason we may pause the contract is when CFO or COO accounts are  compromised."
      },
      "withdrawAuctionBalances()": {
        "details": "Transfers the balance of the sale auction contract to the KittyCore contract. We use two-step withdrawal to prevent two transfer calls in the auction bid function."
      }
    },
    "title": "all functions related to creating kittens",
    "version": 1
  },
  "userdoc": {
    "kind": "user",
    "methods": {
      "approve(address,uint256)": {
        "notice": "Grant another address the right to transfer a specific Kitty via  transferFrom(). This is the preferred flow for transfering NFTs to contracts."
      },
      "balanceOf(address)": {
        "notice": "Returns the number of Kitties owned by a specific address."
      },
      "name()": {
        "notice": "Name and symbol of the non fungible token, as defined in ERC721."
      },
      "ownerOf(uint256)": {
        "notice": "Returns the address currently assigned ownership of a given Kitty."
      },
      "supportsInterface(bytes4)": {
        "notice": "Introspection interface as per ERC-165 (https://github.com/ethereum/EIPs/issues/165).  Returns true for any standardized interfaces implemented by this contract. We implement  ERC-165 (obviously!) and ERC-721."
      },
      "tokenMetadata(uint256,string)": {
        "notice": "Returns a URI pointing to a metadata package for this token conforming to  ERC-721 (https://github.com/ethereum/EIPs/issues/721)"
      },
      "tokensOfOwner(address)": {
        "notice": "Returns a list of all Kitty IDs assigned to an address."
      },
      "totalSupply()": {
        "notice": "Returns the total number of Kitties currently in existence."
      },
      "transfer(address,uint256)": {
        "notice": "Transfers a Kitty to another address. If transferring to a smart  contract be VERY CAREFUL to ensure that it is aware of ERC-721 (or  CryptoKitties specifically) or your Kitty may be lost forever. Seriously."
      },
      "transferFrom(address,address,uint256)": {
        "notice": "Transfer a Kitty owned by another address, for which the calling address  has previously been granted transfer approval by the owner."
      },
      "unpause()": {
        "notice": "This is public rather than external so it can be called by  derived contracts."
      }
    },
    "version": 1
  }
}