{
  "contractName": "ChampOwnership",
  "abi": [
    {
      "anonymous": false,
      "inputs": [
        {
          "indexed": false,
          "internalType": "address",
          "name": "owner",
          "type": "address"
        },
        {
          "indexed": false,
          "internalType": "address",
          "name": "approved",
          "type": "address"
        },
        {
          "indexed": false,
          "internalType": "uint256",
          "name": "tokenId",
          "type": "uint256"
        }
      ],
      "name": "Approval",
      "type": "event"
    },
    {
      "anonymous": false,
      "inputs": [
        {
          "indexed": true,
          "internalType": "address",
          "name": "owner",
          "type": "address"
        },
        {
          "indexed": true,
          "internalType": "address",
          "name": "trader",
          "type": "address"
        },
        {
          "indexed": false,
          "internalType": "uint256",
          "name": "champId",
          "type": "uint256"
        },
        {
          "indexed": false,
          "internalType": "string",
          "name": "philosophyIpfsHash",
          "type": "string"
        }
      ],
      "name": "Birth",
      "type": "event"
    },
    {
      "anonymous": false,
      "inputs": [
        {
          "indexed": false,
          "internalType": "address",
          "name": "newContract",
          "type": "address"
        }
      ],
      "name": "ContractUpgrade",
      "type": "event"
    },
    {
      "anonymous": false,
      "inputs": [
        {
          "indexed": false,
          "internalType": "address",
          "name": "from",
          "type": "address"
        },
        {
          "indexed": false,
          "internalType": "address",
          "name": "to",
          "type": "address"
        },
        {
          "indexed": false,
          "internalType": "uint256",
          "name": "tokenId",
          "type": "uint256"
        }
      ],
      "name": "Transfer",
      "type": "event"
    },
    {
      "inputs": [],
      "name": "ceoAddress",
      "outputs": [
        {
          "internalType": "address",
          "name": "",
          "type": "address"
        }
      ],
      "stateMutability": "view",
      "type": "function"
    },
    {
      "inputs": [],
      "name": "cfoAddress",
      "outputs": [
        {
          "internalType": "address payable",
          "name": "",
          "type": "address"
        }
      ],
      "stateMutability": "view",
      "type": "function"
    },
    {
      "inputs": [
        {
          "internalType": "uint256",
          "name": "",
          "type": "uint256"
        }
      ],
      "name": "champIndexToApproved",
      "outputs": [
        {
          "internalType": "address",
          "name": "",
          "type": "address"
        }
      ],
      "stateMutability": "view",
      "type": "function"
    },
    {
      "inputs": [
        {
          "internalType": "uint256",
          "name": "",
          "type": "uint256"
        }
      ],
      "name": "champIndexToOwner",
      "outputs": [
        {
          "internalType": "address",
          "name": "",
          "type": "address"
        }
      ],
      "stateMutability": "view",
      "type": "function"
    },
    {
      "inputs": [
        {
          "internalType": "uint256",
          "name": "",
          "type": "uint256"
        }
      ],
      "name": "champIndexToTrader",
      "outputs": [
        {
          "internalType": "address",
          "name": "",
          "type": "address"
        }
      ],
      "stateMutability": "view",
      "type": "function"
    },
    {
      "inputs": [],
      "name": "cooAddress",
      "outputs": [
        {
          "internalType": "address",
          "name": "",
          "type": "address"
        }
      ],
      "stateMutability": "view",
      "type": "function"
    },
    {
      "inputs": [],
      "name": "erc721Metadata",
      "outputs": [
        {
          "internalType": "contract ERC721Metadata",
          "name": "",
          "type": "address"
        }
      ],
      "stateMutability": "view",
      "type": "function"
    },
    {
      "inputs": [],
      "name": "name",
      "outputs": [
        {
          "internalType": "string",
          "name": "",
          "type": "string"
        }
      ],
      "stateMutability": "view",
      "type": "function"
    },
    {
      "inputs": [],
      "name": "pause",
      "outputs": [],
      "stateMutability": "nonpayable",
      "type": "function"
    },
    {
      "inputs": [],
      "name": "paused",
      "outputs": [
        {
          "internalType": "bool",
          "name": "",
          "type": "bool"
        }
      ],
      "stateMutability": "view",
      "type": "function"
    },
    {
      "inputs": [],
      "name": "saleAuctionContract",
      "outputs": [
        {
          "internalType": "contract SaleClockAuction",
          "name": "",
          "type": "address"
        }
      ],
      "stateMutability": "view",
      "type": "function"
    },
    {
      "inputs": [
        {
          "internalType": "address",
          "name": "_newCEO",
          "type": "address"
        }
      ],
      "name": "setCEO",
      "outputs": [],
      "stateMutability": "nonpayable",
      "type": "function"
    },
    {
      "inputs": [
        {
          "internalType": "address",
          "name": "_newCFO",
          "type": "address"
        }
      ],
      "name": "setCFO",
      "outputs": [],
      "stateMutability": "nonpayable",
      "type": "function"
    },
    {
      "inputs": [
        {
          "internalType": "address",
          "name": "_newCOO",
          "type": "address"
        }
      ],
      "name": "setCOO",
      "outputs": [],
      "stateMutability": "nonpayable",
      "type": "function"
    },
    {
      "inputs": [],
      "name": "symbol",
      "outputs": [
        {
          "internalType": "string",
          "name": "",
          "type": "string"
        }
      ],
      "stateMutability": "view",
      "type": "function"
    },
    {
      "inputs": [
        {
          "internalType": "uint256",
          "name": "",
          "type": "uint256"
        }
      ],
      "name": "traderAddress",
      "outputs": [
        {
          "internalType": "address",
          "name": "",
          "type": "address"
        }
      ],
      "stateMutability": "view",
      "type": "function"
    },
    {
      "inputs": [],
      "name": "unpause",
      "outputs": [],
      "stateMutability": "nonpayable",
      "type": "function"
    },
    {
      "inputs": [
        {
          "internalType": "bytes4",
          "name": "_interfaceID",
          "type": "bytes4"
        }
      ],
      "name": "supportsInterface",
      "outputs": [
        {
          "internalType": "bool",
          "name": "",
          "type": "bool"
        }
      ],
      "stateMutability": "view",
      "type": "function"
    },
    {
      "inputs": [
        {
          "internalType": "address",
          "name": "_contractAddress",
          "type": "address"
        }
      ],
      "name": "setMetadataAddress",
      "outputs": [],
      "stateMutability": "nonpayable",
      "type": "function"
    },
    {
      "inputs": [
        {
          "internalType": "address",
          "name": "_owner",
          "type": "address"
        }
      ],
      "name": "balanceOf",
      "outputs": [
        {
          "internalType": "uint256",
          "name": "count",
          "type": "uint256"
        }
      ],
      "stateMutability": "view",
      "type": "function"
    },
    {
      "inputs": [
        {
          "internalType": "address",
          "name": "_to",
          "type": "address"
        },
        {
          "internalType": "uint256",
          "name": "_tokenId",
          "type": "uint256"
        }
      ],
      "name": "transfer",
      "outputs": [],
      "stateMutability": "nonpayable",
      "type": "function"
    },
    {
      "inputs": [
        {
          "internalType": "address",
          "name": "_to",
          "type": "address"
        },
        {
          "internalType": "uint256",
          "name": "_tokenId",
          "type": "uint256"
        }
      ],
      "name": "approve",
      "outputs": [],
      "stateMutability": "nonpayable",
      "type": "function"
    },
    {
      "inputs": [
        {
          "internalType": "address",
          "name": "_from",
          "type": "address"
        },
        {
          "internalType": "address",
          "name": "_to",
          "type": "address"
        },
        {
          "internalType": "uint256",
          "name": "_tokenId",
          "type": "uint256"
        }
      ],
      "name": "transferFrom",
      "outputs": [],
      "stateMutability": "nonpayable",
      "type": "function"
    },
    {
      "inputs": [],
      "name": "totalSupply",
      "outputs": [
        {
          "internalType": "uint256",
          "name": "",
          "type": "uint256"
        }
      ],
      "stateMutability": "view",
      "type": "function"
    },
    {
      "inputs": [
        {
          "internalType": "uint256",
          "name": "_tokenId",
          "type": "uint256"
        }
      ],
      "name": "ownerOf",
      "outputs": [
        {
          "internalType": "address",
          "name": "owner",
          "type": "address"
        }
      ],
      "stateMutability": "view",
      "type": "function"
    },
    {
      "inputs": [
        {
          "internalType": "address",
          "name": "_owner",
          "type": "address"
        }
      ],
      "name": "tokensOfOwner",
      "outputs": [
        {
          "internalType": "uint256[]",
          "name": "ownerTokens",
          "type": "uint256[]"
        }
      ],
      "stateMutability": "view",
      "type": "function"
    },
    {
      "inputs": [
        {
          "internalType": "uint256",
          "name": "_tokenId",
          "type": "uint256"
        },
        {
          "internalType": "string",
          "name": "_preferredTransport",
          "type": "string"
        }
      ],
      "name": "tokenMetadata",
      "outputs": [
        {
          "internalType": "string",
          "name": "infoUrl",
          "type": "string"
        }
      ],
      "stateMutability": "view",
      "type": "function"
    }
  ],
  "bytecode": "0x60806040526000600460006101000a81548160ff02191690831515021790555034801561002b57600080fd5b506122d08061003b6000396000f3fe608060405234801561001057600080fd5b50600436106101a95760003560e01c80634bc464b2116100f95780638462151c11610097578063b047fb5011610071578063b047fb50146104bc578063b5bb78fc146104da578063bc4006f51461050a578063e17b25af14610528576101a9565b80638462151c1461045257806395d89b4114610482578063a9059cbb146104a0576101a9565b80635c975abb116100d35780635c975abb146103ca5780636352211e146103e857806370a08231146104185780638456cb5914610448576101a9565b80634bc464b21461034e5780634e0a33791461037e578063592f55591461039a576101a9565b80630a0f81681161016657806327d7874c1161014057806327d7874c146102dc5780632ba73c15146102f85780633e444f8b146103145780633f4ba83a14610344576101a9565b80630a0f81681461028457806318160ddd146102a257806323b872dd146102c0576101a9565b806301ffc9a7146101ae57806303850848146101de5780630519ce79146101fc5780630560ff441461021a57806306fdde031461024a578063095ea7b314610268575b600080fd5b6101c860048036038101906101c391906117f5565b610544565b6040516101d5919061183d565b60405180910390f35b6101e6610748565b6040516101f391906118d7565b60405180910390f35b61020461076e565b6040516102119190611913565b60405180910390f35b610234600480360381019061022f9190611aaa565b610794565b6040516102419190611b8e565b60405180910390f35b610252610858565b60405161025f9190611b8e565b60405180910390f35b610282600480360381019061027d9190611bee565b610891565b005b61028c610907565b6040516102999190611c3d565b60405180910390f35b6102aa61092b565b6040516102b79190611c67565b60405180910390f35b6102da60048036038101906102d59190611c82565b610944565b005b6102f660048036038101906102f19190611cd5565b610a05565b005b610312600480360381019061030d9190611cd5565b610ad9565b005b61032e60048036038101906103299190611d02565b610bae565b60405161033b9190611c3d565b60405180910390f35b61034c610be1565b005b61036860048036038101906103639190611d02565b610c6f565b6040516103759190611c3d565b60405180910390f35b61039860048036038101906103939190611cd5565b610ca2565b005b6103b460048036038101906103af9190611d02565b610d77565b6040516103c19190611c3d565b60405180910390f35b6103d2610daa565b6040516103df919061183d565b60405180910390f35b61040260048036038101906103fd9190611d02565b610dbd565b60405161040f9190611c3d565b60405180910390f35b610432600480360381019061042d9190611cd5565b610e33565b60405161043f9190611c67565b60405180910390f35b610450610e7c565b005b61046c60048036038101906104679190611cd5565b610fbb565b6040516104799190611ded565b60405180910390f35b61048a611142565b6040516104979190611b8e565b60405180910390f35b6104ba60048036038101906104b59190611bee565b61117b565b005b6104c46112bd565b6040516104d19190611c3d565b60405180910390f35b6104f460048036038101906104ef9190611d02565b6112e3565b6040516105019190611c3d565b60405180910390f35b610512611316565b60405161051f9190611e30565b60405180910390f35b610542600480360381019061053d9190611cd5565b61133c565b005b60007f01ffc9a7a5cef8baa21ed3c5c0d7e23accb804b619e9333b597f47a0d84076e27bffffffffffffffffffffffffffffffffffffffffffffffffffffffff1916827bffffffffffffffffffffffffffffffffffffffffffffffffffffffff1916148061074157507f0560ff44c470b66135b184f41c47840de0a42f8d70ee772ca647210e9eb3c8fd7f8462151cfcc0f257319f78db464014651918f3905b3d4bdab48d3f4618c542c17f23b872dd7302113369cda2901243429419bec145408fa8b352b3dd92b66c680b7fa9059cbb2ab09eb219583f4a59a5d0623ade346d962bcd4e46b11da047c9049b7f095ea7b334ae44009aa867bfb386f5c3b4b443ac6f0ee573fa91c4608fbadfba7f6352211e6566aa027e75ac9dbf2423197fbd9b82b9d981a3ab367d355866aa1c7f70a08231b98ef4ca268c9cc3f6b4590e4bfec28280db06bb5d45e689f2a360be7f18160ddd7f15c72528c2f94fd8dfe3c8d5aa26e2c50c7d81f4bc7bee8d4b79327f95d89b41e2f5f391a79ec54e9d87c79d6e777c63e32c28da95b4e9e4a79250ec7f06fdde0383f15d582d1a74511486c9ddf862a882fb7904b3d9fe9b8b8e58a7961818181818181818187bffffffffffffffffffffffffffffffffffffffffffffffffffffffff1916827bffffffffffffffffffffffffffffffffffffffffffffffffffffffff1916145b9050919050565b600a60009054906101000a900473ffffffffffffffffffffffffffffffffffffffff1681565b600160009054906101000a900473ffffffffffffffffffffffffffffffffffffffff1681565b606061079e611767565b6000600b60009054906101000a900473ffffffffffffffffffffffffffffffffffffffff1673ffffffffffffffffffffffffffffffffffffffff1663a574cea4866040518263ffffffff1660e01b81526004016107fb9190611c67565b60a060405180830381865afa158015610818573d6000803e3d6000fd5b505050506040513d601f19601f8201168201806040525081019061083c9190611f4c565b809250819350505061084e82826113d8565b9250505092915050565b6040518060400160405280600b81526020017f4368616d7054726164657200000000000000000000000000000000000000000081525081565b600460009054906101000a900460ff16156108ab57600080fd5b6108b5338261144e565b6108be57600080fd5b6108c881836114ba565b7f8c5be1e5ebec7d5bd14f71427d1e84f3dd0314c0f7b2291e5b200ac8c7c3b9253383836040516108fb93929190611f8c565b60405180910390a15050565b60008054906101000a900473ffffffffffffffffffffffffffffffffffffffff1681565b6000600160058054905061093f9190611ff2565b905090565b600460009054906101000a900460ff161561095e57600080fd5b600073ffffffffffffffffffffffffffffffffffffffff168273ffffffffffffffffffffffffffffffffffffffff160361099757600080fd5b3073ffffffffffffffffffffffffffffffffffffffff168273ffffffffffffffffffffffffffffffffffffffff16036109cf57600080fd5b6109d93382611510565b6109e257600080fd5b6109ec838261144e565b6109f557600080fd5b610a0083838361157c565b505050565b60008054906101000a900473ffffffffffffffffffffffffffffffffffffffff1673ffffffffffffffffffffffffffffffffffffffff163373ffffffffffffffffffffffffffffffffffffffff1614610a5d57600080fd5b600073ffffffffffffffffffffffffffffffffffffffff168173ffffffffffffffffffffffffffffffffffffffff1603610a9657600080fd5b806000806101000a81548173ffffffffffffffffffffffffffffffffffffffff021916908373ffffffffffffffffffffffffffffffffffffffff16021790555050565b60008054906101000a900473ffffffffffffffffffffffffffffffffffffffff1673ffffffffffffffffffffffffffffffffffffffff163373ffffffffffffffffffffffffffffffffffffffff1614610b3157600080fd5b600073ffffffffffffffffffffffffffffffffffffffff168173ffffffffffffffffffffffffffffffffffffffff1603610b6a57600080fd5b80600260006101000a81548173ffffffffffffffffffffffffffffffffffffffff021916908373ffffffffffffffffffffffffffffffffffffffff16021790555050565b60066020528060005260406000206000915054906101000a900473ffffffffffffffffffffffffffffffffffffffff1681565b60008054906101000a900473ffffffffffffffffffffffffffffffffffffffff1673ffffffffffffffffffffffffffffffffffffffff163373ffffffffffffffffffffffffffffffffffffffff1614610c3957600080fd5b600460009054906101000a900460ff16610c5257600080fd5b6000600460006101000a81548160ff021916908315150217905550565b60036020528060005260406000206000915054906101000a900473ffffffffffffffffffffffffffffffffffffffff1681565b60008054906101000a900473ffffffffffffffffffffffffffffffffffffffff1673ffffffffffffffffffffffffffffffffffffffff163373ffffffffffffffffffffffffffffffffffffffff1614610cfa57600080fd5b600073ffffffffffffffffffffffffffffffffffffffff168173ffffffffffffffffffffffffffffffffffffffff1603610d3357600080fd5b80600160006101000a81548173ffffffffffffffffffffffffffffffffffffffff021916908373ffffffffffffffffffffffffffffffffffffffff16021790555050565b60086020528060005260406000206000915054906101000a900473ffffffffffffffffffffffffffffffffffffffff1681565b600460009054906101000a900460ff1681565b60006006600083815260200190815260200160002060009054906101000a900473ffffffffffffffffffffffffffffffffffffffff169050600073ffffffffffffffffffffffffffffffffffffffff168173ffffffffffffffffffffffffffffffffffffffff1603610e2e57600080fd5b919050565b6000600760008373ffffffffffffffffffffffffffffffffffffffff1673ffffffffffffffffffffffffffffffffffffffff168152602001908152602001600020549050919050565b600260009054906101000a900473ffffffffffffffffffffffffffffffffffffffff1673ffffffffffffffffffffffffffffffffffffffff163373ffffffffffffffffffffffffffffffffffffffff161480610f23575060008054906101000a900473ffffffffffffffffffffffffffffffffffffffff1673ffffffffffffffffffffffffffffffffffffffff163373ffffffffffffffffffffffffffffffffffffffff16145b80610f7b5750600160009054906101000a900473ffffffffffffffffffffffffffffffffffffffff1673ffffffffffffffffffffffffffffffffffffffff163373ffffffffffffffffffffffffffffffffffffffff16145b610f8457600080fd5b600460009054906101000a900460ff1615610f9e57600080fd5b6001600460006101000a81548160ff021916908315150217905550565b60606000610fc883610e33565b90506000810361102457600067ffffffffffffffff811115610fed57610fec61197f565b5b60405190808252806020026020018201604052801561101b5781602001602082028036833780820191505090505b5091505061113d565b60008167ffffffffffffffff8111156110405761103f61197f565b5b60405190808252806020026020018201604052801561106e5781602001602082028036833780820191505090505b509050600061107b61092b565b9050600080600190505b828111611134578673ffffffffffffffffffffffffffffffffffffffff166006600083815260200190815260200160002060009054906101000a900473ffffffffffffffffffffffffffffffffffffffff1673ffffffffffffffffffffffffffffffffffffffff1603611121578084838151811061110657611105612026565b5b602002602001018181525050818061111d90612055565b9250505b808061112c90612055565b915050611085565b83955050505050505b919050565b6040518060400160405280600281526020017f435400000000000000000000000000000000000000000000000000000000000081525081565b600460009054906101000a900460ff161561119557600080fd5b600073ffffffffffffffffffffffffffffffffffffffff168273ffffffffffffffffffffffffffffffffffffffff16036111ce57600080fd5b3073ffffffffffffffffffffffffffffffffffffffff168273ffffffffffffffffffffffffffffffffffffffff160361120657600080fd5b600a60009054906101000a900473ffffffffffffffffffffffffffffffffffffffff1673ffffffffffffffffffffffffffffffffffffffff168273ffffffffffffffffffffffffffffffffffffffff160361126057600080fd5b61126a338261144e565b61127357600080fd5b61127e33838361157c565b7fddf252ad1be2c89b69c2b068fc378daa952ba7f163c4a11628f55a4df523b3ef3383836040516112b193929190611f8c565b60405180910390a15050565b600260009054906101000a900473ffffffffffffffffffffffffffffffffffffffff1681565b60096020528060005260406000206000915054906101000a900473ffffffffffffffffffffffffffffffffffffffff1681565b600b60009054906101000a900473ffffffffffffffffffffffffffffffffffffffff1681565b60008054906101000a900473ffffffffffffffffffffffffffffffffffffffff1673ffffffffffffffffffffffffffffffffffffffff163373ffffffffffffffffffffffffffffffffffffffff161461139457600080fd5b80600b60006101000a81548173ffffffffffffffffffffffffffffffffffffffff021916908373ffffffffffffffffffffffffffffffffffffffff16021790555050565b606060008267ffffffffffffffff8111156113f6576113f561197f565b5b6040519080825280601f01601f1916602001820160405280156114285781602001600182028036833780820191505090505b5090506000806020830191508590506114428282876116e8565b82935050505092915050565b60008273ffffffffffffffffffffffffffffffffffffffff166006600084815260200190815260200160002060009054906101000a900473ffffffffffffffffffffffffffffffffffffffff1673ffffffffffffffffffffffffffffffffffffffff1614905092915050565b806008600084815260200190815260200160002060006101000a81548173ffffffffffffffffffffffffffffffffffffffff021916908373ffffffffffffffffffffffffffffffffffffffff1602179055505050565b60008273ffffffffffffffffffffffffffffffffffffffff166008600084815260200190815260200160002060009054906101000a900473ffffffffffffffffffffffffffffffffffffffff1673ffffffffffffffffffffffffffffffffffffffff1614905092915050565b600760008373ffffffffffffffffffffffffffffffffffffffff1673ffffffffffffffffffffffffffffffffffffffff16815260200190815260200160002060008154809291906115cc90612055565b9190505550816006600083815260200190815260200160002060006101000a81548173ffffffffffffffffffffffffffffffffffffffff021916908373ffffffffffffffffffffffffffffffffffffffff160217905550600073ffffffffffffffffffffffffffffffffffffffff168373ffffffffffffffffffffffffffffffffffffffff16146116e357600760008473ffffffffffffffffffffffffffffffffffffffff1673ffffffffffffffffffffffffffffffffffffffff16815260200190815260200160002060008154809291906116a79061209d565b91905055506008600082815260200190815260200160002060006101000a81549073ffffffffffffffffffffffffffffffffffffffff02191690555b505050565b5b60208110611727578151835260208361170291906120c6565b925060208261171191906120c6565b91506020816117209190611ff2565b90506116e9565b600060018260206117389190611ff2565b610100611745919061224f565b61174f9190611ff2565b90508019835116818551168181178652505050505050565b6040518060800160405280600490602082028036833780820191505090505090565b6000604051905090565b600080fd5b600080fd5b60007fffffffff0000000000000000000000000000000000000000000000000000000082169050919050565b6117d28161179d565b81146117dd57600080fd5b50565b6000813590506117ef816117c9565b92915050565b60006020828403121561180b5761180a611793565b5b6000611819848285016117e0565b91505092915050565b60008115159050919050565b61183781611822565b82525050565b6000602082019050611852600083018461182e565b92915050565b600073ffffffffffffffffffffffffffffffffffffffff82169050919050565b6000819050919050565b600061189d61189861189384611858565b611878565b611858565b9050919050565b60006118af82611882565b9050919050565b60006118c1826118a4565b9050919050565b6118d1816118b6565b82525050565b60006020820190506118ec60008301846118c8565b92915050565b60006118fd82611858565b9050919050565b61190d816118f2565b82525050565b60006020820190506119286000830184611904565b92915050565b6000819050919050565b6119418161192e565b811461194c57600080fd5b50565b60008135905061195e81611938565b92915050565b600080fd5b600080fd5b6000601f19601f8301169050919050565b7f4e487b7100000000000000000000000000000000000000000000000000000000600052604160045260246000fd5b6119b78261196e565b810181811067ffffffffffffffff821117156119d6576119d561197f565b5b80604052505050565b60006119e9611789565b90506119f582826119ae565b919050565b600067ffffffffffffffff821115611a1557611a1461197f565b5b611a1e8261196e565b9050602081019050919050565b82818337600083830152505050565b6000611a4d611a48846119fa565b6119df565b905082815260208101848484011115611a6957611a68611969565b5b611a74848285611a2b565b509392505050565b600082601f830112611a9157611a90611964565b5b8135611aa1848260208601611a3a565b91505092915050565b60008060408385031215611ac157611ac0611793565b5b6000611acf8582860161194f565b925050602083013567ffffffffffffffff811115611af057611aef611798565b5b611afc85828601611a7c565b9150509250929050565b600081519050919050565b600082825260208201905092915050565b60005b83811015611b40578082015181840152602081019050611b25565b83811115611b4f576000848401525b50505050565b6000611b6082611b06565b611b6a8185611b11565b9350611b7a818560208601611b22565b611b838161196e565b840191505092915050565b60006020820190508181036000830152611ba88184611b55565b905092915050565b6000611bbb82611858565b9050919050565b611bcb81611bb0565b8114611bd657600080fd5b50565b600081359050611be881611bc2565b92915050565b60008060408385031215611c0557611c04611793565b5b6000611c1385828601611bd9565b9250506020611c248582860161194f565b9150509250929050565b611c3781611bb0565b82525050565b6000602082019050611c526000830184611c2e565b92915050565b611c618161192e565b82525050565b6000602082019050611c7c6000830184611c58565b92915050565b600080600060608486031215611c9b57611c9a611793565b5b6000611ca986828701611bd9565b9350506020611cba86828701611bd9565b9250506040611ccb8682870161194f565b9150509250925092565b600060208284031215611ceb57611cea611793565b5b6000611cf984828501611bd9565b91505092915050565b600060208284031215611d1857611d17611793565b5b6000611d268482850161194f565b91505092915050565b600081519050919050565b600082825260208201905092915050565b6000819050602082019050919050565b611d648161192e565b82525050565b6000611d768383611d5b565b60208301905092915050565b6000602082019050919050565b6000611d9a82611d2f565b611da48185611d3a565b9350611daf83611d4b565b8060005b83811015611de0578151611dc78882611d6a565b9750611dd283611d82565b925050600181019050611db3565b5085935050505092915050565b60006020820190508181036000830152611e078184611d8f565b905092915050565b6000611e1a826118a4565b9050919050565b611e2a81611e0f565b82525050565b6000602082019050611e456000830184611e21565b92915050565b600067ffffffffffffffff821115611e6657611e6561197f565b5b602082029050919050565b600080fd5b6000819050919050565b611e8981611e76565b8114611e9457600080fd5b50565b600081519050611ea681611e80565b92915050565b6000611ebf611eba84611e4b565b6119df565b90508060208402830185811115611ed957611ed8611e71565b5b835b81811015611f025780611eee8882611e97565b845260208401935050602081019050611edb565b5050509392505050565b600082601f830112611f2157611f20611964565b5b6004611f2e848285611eac565b91505092915050565b600081519050611f4681611938565b92915050565b60008060a08385031215611f6357611f62611793565b5b6000611f7185828601611f0c565b9250506080611f8285828601611f37565b9150509250929050565b6000606082019050611fa16000830186611c2e565b611fae6020830185611c2e565b611fbb6040830184611c58565b949350505050565b7f4e487b7100000000000000000000000000000000000000000000000000000000600052601160045260246000fd5b6000611ffd8261192e565b91506120088361192e565b92508282101561201b5761201a611fc3565b5b828203905092915050565b7f4e487b7100000000000000000000000000000000000000000000000000000000600052603260045260246000fd5b60006120608261192e565b91507fffffffffffffffffffffffffffffffffffffffffffffffffffffffffffffffff820361209257612091611fc3565b5b600182019050919050565b60006120a88261192e565b9150600082036120bb576120ba611fc3565b5b600182039050919050565b60006120d18261192e565b91506120dc8361192e565b9250827fffffffffffffffffffffffffffffffffffffffffffffffffffffffffffffffff0382111561211157612110611fc3565b5b828201905092915050565b60008160011c9050919050565b6000808291508390505b60018511156121735780860481111561214f5761214e611fc3565b5b600185161561215e5780820291505b808102905061216c8561211c565b9450612133565b94509492505050565b60008261218c5760019050612248565b8161219a5760009050612248565b81600181146121b057600281146121ba576121e9565b6001915050612248565b60ff8411156121cc576121cb611fc3565b5b8360020a9150848211156121e3576121e2611fc3565b5b50612248565b5060208310610133831016604e8410600b841016171561221e5782820a90508381111561221957612218611fc3565b5b612248565b61222b8484846001612129565b9250905081840481111561224257612241611fc3565b5b81810290505b9392505050565b600061225a8261192e565b91506122658361192e565b92506122927fffffffffffffffffffffffffffffffffffffffffffffffffffffffffffffffff848461217c565b90509291505056fea26469706673582212205f9e784c2dd0f7c7ad933ac7cf0c78b508ca071399a27a6abe72f51cf7533e3564736f6c634300080d0033",
  "immutableReferences": {},
  "source": "pragma solidity ^0.8.0;\r\n///  See the KittyCore contract documentation to understand how the various contract facets are arranged.\r\nimport \"./ChampTraderBase.sol\";\r\nimport \"./ERC721.sol\";\r\nimport \"./ERC721Metadata.sol\";\r\n\r\ncontract ChampOwnership is ChampTraderBase, ERC721 {\r\n\r\n    /// @notice Name and symbol of the non fungible token, as defined in ERC721.\r\n    string public constant name = \"ChampTrader\";\r\n    string public constant symbol = \"CT\";\r\n\r\n    // The contract that will return kitty metadata\r\n    ERC721Metadata public erc721Metadata;\r\n\r\n    bytes4 constant InterfaceSignature_ERC165 = bytes4(keccak256('supportsInterface(bytes4)'));\r\n\r\n    bytes4 constant InterfaceSignature_ERC721 =\r\n        bytes4(keccak256('name()')) ^\r\n        bytes4(keccak256('symbol()')) ^\r\n        bytes4(keccak256('totalSupply()')) ^\r\n        bytes4(keccak256('balanceOf(address)')) ^\r\n        bytes4(keccak256('ownerOf(uint256)')) ^\r\n        bytes4(keccak256('approve(address,uint256)')) ^\r\n        bytes4(keccak256('transfer(address,uint256)')) ^\r\n        bytes4(keccak256('transferFrom(address,address,uint256)')) ^\r\n        bytes4(keccak256('tokensOfOwner(address)')) ^\r\n        bytes4(keccak256('tokenMetadata(uint256,string)'));\r\n\r\n    /// @notice Introspection interface as per ERC-165 (https://github.com/ethereum/EIPs/issues/165).\r\n    ///  Returns true for any standardized interfaces implemented by this contract. We implement\r\n    ///  ERC-165 (obviously!) and ERC-721.\r\n    function supportsInterface(bytes4 _interfaceID) override external view returns (bool)\r\n    {\r\n        // DEBUG ONLY\r\n        //require((InterfaceSignature_ERC165 == 0x01ffc9a7) && (InterfaceSignature_ERC721 == 0x9a20483d));\r\n\r\n        return ((_interfaceID == InterfaceSignature_ERC165) || (_interfaceID == InterfaceSignature_ERC721));\r\n    }\r\n\r\n    /// @dev Set the address of the sibling contract that tracks metadata.\r\n    ///  CEO only.\r\n    function setMetadataAddress(address _contractAddress) public onlyCEO {\r\n        erc721Metadata = ERC721Metadata(_contractAddress);\r\n    }\r\n\r\n    // Internal utility functions: These functions all assume that their input arguments\r\n    // are valid. We leave it to public methods to sanitize their inputs and follow\r\n    // the required logic.\r\n\r\n    /// @dev Checks if a given address is the current owner of a particular Kitty.\r\n\r\n    modifier onlyTrader(address _claimant, uint256 _champId){\r\n        require(_isTrader(_claimant, _champId));\r\n        _;\r\n    }\r\n\r\n\r\n    function _owns(address _claimant, uint256 _tokenId) internal view returns (bool) {\r\n        return champIndexToOwner[_tokenId] == _claimant;\r\n    }\r\n\r\n    function _isTrader(address _claimant, uint256 _champId) internal view returns (bool) {\r\n        return champIndexToTrader[_champId] == _claimant;\r\n    }\r\n\r\n    function _isTraderorOwner(address _claimant, uint256 _champId) internal view returns (bool) {\r\n        bool result = false;\r\n        if(_isTrader(_claimant, _champId) || _owns(_claimant, _champId)){\r\n            result = true;\r\n        }\r\n        return result;\r\n    }\r\n    /// @dev Checks if a given address currently has transferApproval for a particular Kitty.\r\n    /// @param _claimant the address we are confirming kitten is approved for.\r\n\r\n    function _approvedFor(address _claimant, uint256 _tokenId) internal view returns (bool) {\r\n        return champIndexToApproved[_tokenId] == _claimant;\r\n    }\r\n\r\n    /// @dev Marks an address as being approved for transferFrom(), overwriting any previous\r\n    ///  approval. Setting _approved to address(0) clears all transfer approval.\r\n    ///  NOTE: _approve() does NOT send the Approval event. This is intentional because\r\n    ///  _approve() and transferFrom() are used together for putting Kitties on auction, and\r\n    ///  there is no value in spamming the log with Approval events in that case.\r\n    function _approve(uint256 _tokenId, address _approved) internal {\r\n        champIndexToApproved[_tokenId] = _approved;\r\n    }\r\n\r\n    /// @notice Returns the number of Kitties owned by a specific address.\r\n    /// @param _owner The owner address to check.\r\n    /// @dev Required for ERC-721 compliance\r\n    function balanceOf(address _owner) override public view returns (uint256 count) {\r\n        return ownershipTokenCount[_owner];\r\n    }\r\n\r\n    /// @notice Transfers a Kitty to another address. If transferring to a smart\r\n    ///  contract be VERY CAREFUL to ensure that it is aware of ERC-721 (or\r\n    ///  CryptoKitties specifically) or your Kitty may be lost forever. Seriously.\r\n    /// @param _to The address of the recipient, can be a user or contract.\r\n    /// @param _tokenId The ID of the Kitty to transfer.\r\n    /// @dev Required for ERC-721 compliance.\r\n    function transfer(address _to,uint256 _tokenId) override external whenNotPaused\r\n    {\r\n        // Safety check to prevent against an unexpected 0x0 default.\r\n        require(_to != address(0));\r\n        // Disallow transfers to this contract to prevent accidental misuse.\r\n        // The contract should never own any kitties (except very briefly\r\n        // after a gen0 cat is created and before it goes on auction).\r\n        require(_to != address(this));\r\n        // Disallow transfers to the auction contracts to prevent accidental\r\n        // misuse. Auction contracts should only take ownership of kitties\r\n        // through the allow + transferFrom flow.\r\n        require(_to != address(saleAuctionContract));\r\n\r\n        // You can only send your own cat.\r\n        require(_owns(msg.sender, _tokenId));\r\n\r\n        // Reassign ownership, clear pending approvals, emit Transfer event.\r\n        _transfer(msg.sender, _to, _tokenId);\r\n\r\n        // Emit the transfer event.\r\n        emit Transfer(msg.sender, _to, _tokenId);\r\n    }\r\n\r\n    /// @notice Grant another address the right to transfer a specific Kitty via\r\n    ///  transferFrom(). This is the preferred flow for transfering NFTs to contracts.\r\n    /// @param _to The address to be granted transfer approval. Pass address(0) to\r\n    ///  clear all approvals.\r\n    /// @param _tokenId The ID of the Kitty that can be transferred if this call succeeds.\r\n    /// @dev Required for ERC-721 compliance.\r\n    function approve(address _to,uint256 _tokenId) override external whenNotPaused\r\n    {\r\n        // Only an owner can grant transfer approval.\r\n        require(_owns(msg.sender, _tokenId));\r\n\r\n        // Register the approval (replacing any previous approval).\r\n        _approve(_tokenId, _to);\r\n\r\n        // Emit approval event.\r\n        emit Approval(msg.sender, _to, _tokenId);\r\n    }\r\n\r\n    /// @notice Transfer a Kitty owned by another address, for which the calling address\r\n    ///  has previously been granted transfer approval by the owner.\r\n    /// @param _from The address that owns the Kitty to be transfered.\r\n    /// @param _to The address that should take ownership of the Kitty. Can be any address,\r\n    ///  including the caller.\r\n    /// @param _tokenId The ID of the Kitty to be transferred.\r\n    /// @dev Required for ERC-721 compliance.\r\n    function transferFrom(address _from,address _to,uint256 _tokenId) override external whenNotPaused{\r\n        // Safety check to prevent against an unexpected 0x0 default.\r\n        require(_to != address(0));\r\n        // Disallow transfers to this contract to prevent accidental misuse.\r\n        // The contract should never own any kitties (except very briefly\r\n        // after a gen0 cat is created and before it goes on auction).\r\n        require(_to != address(this));\r\n        // Check for approval and valid ownership\r\n        require(_approvedFor(msg.sender, _tokenId));\r\n        require(_owns(_from, _tokenId));\r\n\r\n        // Reassign ownership (also clears pending approvals and emits Transfer event).\r\n        _transfer(_from, _to, _tokenId);\r\n    }\r\n\r\n    /// @notice Returns the total number of Kitties currently in existence.\r\n    /// @dev Required for ERC-721 compliance.\r\n    function totalSupply() override public view returns (uint) {\r\n        return champTraders.length - 1;\r\n    }\r\n\r\n    /// @notice Returns the address currently assigned ownership of a given Kitty.\r\n    /// @dev Required for ERC-721 compliance.\r\n    function ownerOf(uint256 _tokenId)override external view returns (address owner){\r\n        owner = champIndexToOwner[_tokenId];\r\n        require(owner != address(0));\r\n    }\r\n\r\n    /// @notice Returns a list of all Kitty IDs assigned to an address.\r\n    /// @param _owner The owner whose Kitties we are interested in.\r\n    /// @dev This method MUST NEVER be called by smart contract code. First, it's fairly\r\n    ///  expensive (it walks the entire Kitty array looking for cats belonging to owner),\r\n    ///  but it also returns a dynamic array, which is only supported for web3 calls, and\r\n    ///  not contract-to-contract calls.\r\n    function tokensOfOwner(address _owner) override external view returns(uint256[] memory ownerTokens) {\r\n        uint256 tokenCount = balanceOf(_owner);\r\n\r\n        if (tokenCount == 0) {\r\n            // Return an empty array\r\n            return new uint256[](0);\r\n        } else {\r\n            uint256[] memory result = new uint256[](tokenCount);\r\n            uint256 totalChamps = totalSupply();\r\n            uint256 resultIndex = 0;\r\n\r\n            // We count on the fact that all cats have IDs starting at 1 and increasing\r\n            // sequentially up to the totalCat count.\r\n            uint256 champId;\r\n\r\n            for (champId = 1; champId <= totalChamps; champId++) {\r\n                if (champIndexToOwner[champId] == _owner) {\r\n                    result[resultIndex] = champId;\r\n                    resultIndex++;\r\n                }\r\n            }\r\n\r\n            return result;\r\n        }\r\n    }\r\n\r\n    /// @dev Adapted from memcpy() by @arachnid (Nick Johnson <arachnid@notdot.net>)\r\n    ///  This method is licenced under the Apache License.\r\n    ///  Ref: https://github.com/Arachnid/solidity-stringutils/blob/2f6ca9accb48ae14c66f1437ec50ed19a0616f78/strings.sol\r\n    function _memcpy(uint _dest, uint _src, uint _len) private view {\r\n        // Copy word-length chunks while possible\r\n        for(; _len >= 32; _len -= 32) {\r\n            assembly {\r\n                mstore(_dest, mload(_src))\r\n            }\r\n            _dest += 32;\r\n            _src += 32;\r\n        }\r\n\r\n        // Copy remaining bytes\r\n        uint256 mask = 256 ** (32 - _len) - 1;\r\n        assembly {\r\n            let srcpart := and(mload(_src), not(mask))\r\n            let destpart := and(mload(_dest), mask)\r\n            mstore(_dest, or(destpart, srcpart))\r\n        }\r\n    }\r\n\r\n    /// @dev Adapted from toString(slice) by @arachnid (Nick Johnson <arachnid@notdot.net>)\r\n    ///  This method is licenced under the Apache License.\r\n    ///  Ref: https://github.com/Arachnid/solidity-stringutils/blob/2f6ca9accb48ae14c66f1437ec50ed19a0616f78/strings.sol\r\n    function _toString(bytes32[4] memory _rawBytes, uint256 _stringLength) private view returns (string memory) {\r\n        string memory outputString = new string(_stringLength);\r\n        uint256 outputPtr;\r\n        uint256 bytesPtr;\r\n\r\n        assembly {\r\n            outputPtr := add(outputString, 32)\r\n            bytesPtr := _rawBytes\r\n        }\r\n\r\n        _memcpy(outputPtr, bytesPtr, _stringLength);\r\n\r\n        return outputString;\r\n    }\r\n\r\n    /// @notice Returns a URI pointing to a metadata package for this token conforming to\r\n    ///  ERC-721 (https://github.com/ethereum/EIPs/issues/721)\r\n    /// @param _tokenId The ID number of the Kitty whose metadata should be returned.\r\n    function tokenMetadata(uint256 _tokenId, string memory _preferredTransport) override public view returns (string memory infoUrl) {\r\n//        require(erc721Metadata != address(0));\r\n        bytes32[4] memory buffer;\r\n        uint256 count;\r\n        (buffer, count) = erc721Metadata.getMetadata(_tokenId);\r\n\r\n        return _toString(buffer, count);\r\n    }\r\n}\r\n\r\n\r\n",
  "sourcePath": "C:\\Users\\lam\\Documents\\GitHub\\dynamodb_related\\pythonProject\\smart_contract\\contracts\\ChampOwnership.sol",
  "compiler": {
    "name": "solc",
    "version": "0.8.13+commit.abaa5c0e.Emscripten.clang"
  },
  "schemaVersion": "3.4.7",
  "updatedAt": "2022-05-02T01:57:46.543Z",
  "devdoc": {
    "kind": "dev",
    "methods": {
      "approve(address,uint256)": {
        "details": "Required for ERC-721 compliance.",
        "params": {
          "_to": "The address to be granted transfer approval. Pass address(0) to  clear all approvals.",
          "_tokenId": "The ID of the Kitty that can be transferred if this call succeeds."
        }
      },
      "balanceOf(address)": {
        "details": "Required for ERC-721 compliance",
        "params": {
          "_owner": "The owner address to check."
        }
      },
      "ownerOf(uint256)": {
        "details": "Required for ERC-721 compliance."
      },
      "pause()": {
        "details": "Called by any \"C-level\" role to pause the contract. Used only when  a bug or exploit is detected and we need to limit damage."
      },
      "setCEO(address)": {
        "details": "Assigns a new address to act as the CEO. Only available to the current CEO.",
        "params": {
          "_newCEO": "The address of the new CEO"
        }
      },
      "setCFO(address)": {
        "details": "Assigns a new address to act as the CFO. Only available to the current CEO.",
        "params": {
          "_newCFO": "The address of the new CFO"
        }
      },
      "setCOO(address)": {
        "details": "Assigns a new address to act as the COO. Only available to the current CEO.",
        "params": {
          "_newCOO": "The address of the new COO"
        }
      },
      "setMetadataAddress(address)": {
        "details": "Set the address of the sibling contract that tracks metadata.  CEO only."
      },
      "tokenMetadata(uint256,string)": {
        "params": {
          "_tokenId": "The ID number of the Kitty whose metadata should be returned."
        }
      },
      "tokensOfOwner(address)": {
        "details": "This method MUST NEVER be called by smart contract code. First, it's fairly  expensive (it walks the entire Kitty array looking for cats belonging to owner),  but it also returns a dynamic array, which is only supported for web3 calls, and  not contract-to-contract calls.",
        "params": {
          "_owner": "The owner whose Kitties we are interested in."
        }
      },
      "totalSupply()": {
        "details": "Required for ERC-721 compliance."
      },
      "transfer(address,uint256)": {
        "details": "Required for ERC-721 compliance.",
        "params": {
          "_to": "The address of the recipient, can be a user or contract.",
          "_tokenId": "The ID of the Kitty to transfer."
        }
      },
      "transferFrom(address,address,uint256)": {
        "details": "Required for ERC-721 compliance.",
        "params": {
          "_from": "The address that owns the Kitty to be transfered.",
          "_to": "The address that should take ownership of the Kitty. Can be any address,  including the caller.",
          "_tokenId": "The ID of the Kitty to be transferred."
        }
      },
      "unpause()": {
        "details": "Unpauses the smart contract. Can only be called by the CEO, since  one reason we may pause the contract is when CFO or COO accounts are  compromised."
      }
    },
    "version": 1
  },
  "userdoc": {
    "kind": "user",
    "methods": {
      "approve(address,uint256)": {
        "notice": "Grant another address the right to transfer a specific Kitty via  transferFrom(). This is the preferred flow for transfering NFTs to contracts."
      },
      "balanceOf(address)": {
        "notice": "Returns the number of Kitties owned by a specific address."
      },
      "name()": {
        "notice": "Name and symbol of the non fungible token, as defined in ERC721."
      },
      "ownerOf(uint256)": {
        "notice": "Returns the address currently assigned ownership of a given Kitty."
      },
      "supportsInterface(bytes4)": {
        "notice": "Introspection interface as per ERC-165 (https://github.com/ethereum/EIPs/issues/165).  Returns true for any standardized interfaces implemented by this contract. We implement  ERC-165 (obviously!) and ERC-721."
      },
      "tokenMetadata(uint256,string)": {
        "notice": "Returns a URI pointing to a metadata package for this token conforming to  ERC-721 (https://github.com/ethereum/EIPs/issues/721)"
      },
      "tokensOfOwner(address)": {
        "notice": "Returns a list of all Kitty IDs assigned to an address."
      },
      "totalSupply()": {
        "notice": "Returns the total number of Kitties currently in existence."
      },
      "transfer(address,uint256)": {
        "notice": "Transfers a Kitty to another address. If transferring to a smart  contract be VERY CAREFUL to ensure that it is aware of ERC-721 (or  CryptoKitties specifically) or your Kitty may be lost forever. Seriously."
      },
      "transferFrom(address,address,uint256)": {
        "notice": "Transfer a Kitty owned by another address, for which the calling address  has previously been granted transfer approval by the owner."
      },
      "unpause()": {
        "notice": "This is public rather than external so it can be called by  derived contracts."
      }
    },
    "version": 1
  }
}