{
  "contractName": "ChampTraderBase",
  "abi": [
    {
      "anonymous": false,
      "inputs": [
        {
          "indexed": true,
          "internalType": "address",
          "name": "owner",
          "type": "address"
        },
        {
          "indexed": true,
          "internalType": "address",
          "name": "trader",
          "type": "address"
        },
        {
          "indexed": false,
          "internalType": "uint256",
          "name": "champId",
          "type": "uint256"
        },
        {
          "indexed": false,
          "internalType": "string",
          "name": "philosophyIpfsHash",
          "type": "string"
        }
      ],
      "name": "Birth",
      "type": "event"
    },
    {
      "anonymous": false,
      "inputs": [
        {
          "indexed": false,
          "internalType": "address",
          "name": "newContract",
          "type": "address"
        }
      ],
      "name": "ContractUpgrade",
      "type": "event"
    },
    {
      "inputs": [],
      "name": "ceoAddress",
      "outputs": [
        {
          "internalType": "address",
          "name": "",
          "type": "address"
        }
      ],
      "stateMutability": "view",
      "type": "function"
    },
    {
      "inputs": [],
      "name": "cfoAddress",
      "outputs": [
        {
          "internalType": "address payable",
          "name": "",
          "type": "address"
        }
      ],
      "stateMutability": "view",
      "type": "function"
    },
    {
      "inputs": [
        {
          "internalType": "uint256",
          "name": "",
          "type": "uint256"
        }
      ],
      "name": "champIndexToApproved",
      "outputs": [
        {
          "internalType": "address",
          "name": "",
          "type": "address"
        }
      ],
      "stateMutability": "view",
      "type": "function"
    },
    {
      "inputs": [
        {
          "internalType": "uint256",
          "name": "",
          "type": "uint256"
        }
      ],
      "name": "champIndexToOwner",
      "outputs": [
        {
          "internalType": "address",
          "name": "",
          "type": "address"
        }
      ],
      "stateMutability": "view",
      "type": "function"
    },
    {
      "inputs": [
        {
          "internalType": "uint256",
          "name": "",
          "type": "uint256"
        }
      ],
      "name": "champIndexToTrader",
      "outputs": [
        {
          "internalType": "address",
          "name": "",
          "type": "address"
        }
      ],
      "stateMutability": "view",
      "type": "function"
    },
    {
      "inputs": [],
      "name": "cooAddress",
      "outputs": [
        {
          "internalType": "address",
          "name": "",
          "type": "address"
        }
      ],
      "stateMutability": "view",
      "type": "function"
    },
    {
      "inputs": [],
      "name": "pause",
      "outputs": [],
      "stateMutability": "nonpayable",
      "type": "function"
    },
    {
      "inputs": [],
      "name": "paused",
      "outputs": [
        {
          "internalType": "bool",
          "name": "",
          "type": "bool"
        }
      ],
      "stateMutability": "view",
      "type": "function"
    },
    {
      "inputs": [],
      "name": "saleAuctionContract",
      "outputs": [
        {
          "internalType": "contract SaleClockAuction",
          "name": "",
          "type": "address"
        }
      ],
      "stateMutability": "view",
      "type": "function"
    },
    {
      "inputs": [
        {
          "internalType": "address",
          "name": "_newCEO",
          "type": "address"
        }
      ],
      "name": "setCEO",
      "outputs": [],
      "stateMutability": "nonpayable",
      "type": "function"
    },
    {
      "inputs": [
        {
          "internalType": "address",
          "name": "_newCFO",
          "type": "address"
        }
      ],
      "name": "setCFO",
      "outputs": [],
      "stateMutability": "nonpayable",
      "type": "function"
    },
    {
      "inputs": [
        {
          "internalType": "address",
          "name": "_newCOO",
          "type": "address"
        }
      ],
      "name": "setCOO",
      "outputs": [],
      "stateMutability": "nonpayable",
      "type": "function"
    },
    {
      "inputs": [
        {
          "internalType": "uint256",
          "name": "",
          "type": "uint256"
        }
      ],
      "name": "traderAddress",
      "outputs": [
        {
          "internalType": "address",
          "name": "",
          "type": "address"
        }
      ],
      "stateMutability": "view",
      "type": "function"
    },
    {
      "inputs": [],
      "name": "unpause",
      "outputs": [],
      "stateMutability": "nonpayable",
      "type": "function"
    }
  ],
  "bytecode": "0x60806040526000600460006101000a81548160ff02191690831515021790555034801561002b57600080fd5b50610aac8061003b6000396000f3fe608060405234801561001057600080fd5b50600436106100ea5760003560e01c80634bc464b21161008c5780635c975abb116100665780635c975abb146102375780638456cb5914610255578063b047fb501461025f578063b5bb78fc1461027d576100ea565b80634bc464b2146101bb5780634e0a3379146101eb578063592f555914610207576100ea565b806327d7874c116100c857806327d7874c146101495780632ba73c15146101655780633e444f8b146101815780633f4ba83a146101b1576100ea565b806303850848146100ef5780630519ce791461010d5780630a0f81681461012b575b600080fd5b6100f76102ad565b60405161010491906108ec565b60405180910390f35b6101156102d3565b6040516101229190610928565b60405180910390f35b6101336102f9565b6040516101409190610964565b60405180910390f35b610163600480360381019061015e91906109b0565b61031d565b005b61017f600480360381019061017a91906109b0565b6103f1565b005b61019b60048036038101906101969190610a13565b6104c6565b6040516101a89190610964565b60405180910390f35b6101b96104f9565b005b6101d560048036038101906101d09190610a13565b610587565b6040516101e29190610964565b60405180910390f35b610205600480360381019061020091906109b0565b6105ba565b005b610221600480360381019061021c9190610a13565b61068f565b60405161022e9190610964565b60405180910390f35b61023f6106c2565b60405161024c9190610a5b565b60405180910390f35b61025d6106d5565b005b610267610814565b6040516102749190610964565b60405180910390f35b61029760048036038101906102929190610a13565b61083a565b6040516102a49190610964565b60405180910390f35b600a60009054906101000a900473ffffffffffffffffffffffffffffffffffffffff1681565b600160009054906101000a900473ffffffffffffffffffffffffffffffffffffffff1681565b60008054906101000a900473ffffffffffffffffffffffffffffffffffffffff1681565b60008054906101000a900473ffffffffffffffffffffffffffffffffffffffff1673ffffffffffffffffffffffffffffffffffffffff163373ffffffffffffffffffffffffffffffffffffffff161461037557600080fd5b600073ffffffffffffffffffffffffffffffffffffffff168173ffffffffffffffffffffffffffffffffffffffff16036103ae57600080fd5b806000806101000a81548173ffffffffffffffffffffffffffffffffffffffff021916908373ffffffffffffffffffffffffffffffffffffffff16021790555050565b60008054906101000a900473ffffffffffffffffffffffffffffffffffffffff1673ffffffffffffffffffffffffffffffffffffffff163373ffffffffffffffffffffffffffffffffffffffff161461044957600080fd5b600073ffffffffffffffffffffffffffffffffffffffff168173ffffffffffffffffffffffffffffffffffffffff160361048257600080fd5b80600260006101000a81548173ffffffffffffffffffffffffffffffffffffffff021916908373ffffffffffffffffffffffffffffffffffffffff16021790555050565b60066020528060005260406000206000915054906101000a900473ffffffffffffffffffffffffffffffffffffffff1681565b60008054906101000a900473ffffffffffffffffffffffffffffffffffffffff1673ffffffffffffffffffffffffffffffffffffffff163373ffffffffffffffffffffffffffffffffffffffff161461055157600080fd5b600460009054906101000a900460ff1661056a57600080fd5b6000600460006101000a81548160ff021916908315150217905550565b60036020528060005260406000206000915054906101000a900473ffffffffffffffffffffffffffffffffffffffff1681565b60008054906101000a900473ffffffffffffffffffffffffffffffffffffffff1673ffffffffffffffffffffffffffffffffffffffff163373ffffffffffffffffffffffffffffffffffffffff161461061257600080fd5b600073ffffffffffffffffffffffffffffffffffffffff168173ffffffffffffffffffffffffffffffffffffffff160361064b57600080fd5b80600160006101000a81548173ffffffffffffffffffffffffffffffffffffffff021916908373ffffffffffffffffffffffffffffffffffffffff16021790555050565b60086020528060005260406000206000915054906101000a900473ffffffffffffffffffffffffffffffffffffffff1681565b600460009054906101000a900460ff1681565b600260009054906101000a900473ffffffffffffffffffffffffffffffffffffffff1673ffffffffffffffffffffffffffffffffffffffff163373ffffffffffffffffffffffffffffffffffffffff16148061077c575060008054906101000a900473ffffffffffffffffffffffffffffffffffffffff1673ffffffffffffffffffffffffffffffffffffffff163373ffffffffffffffffffffffffffffffffffffffff16145b806107d45750600160009054906101000a900473ffffffffffffffffffffffffffffffffffffffff1673ffffffffffffffffffffffffffffffffffffffff163373ffffffffffffffffffffffffffffffffffffffff16145b6107dd57600080fd5b600460009054906101000a900460ff16156107f757600080fd5b6001600460006101000a81548160ff021916908315150217905550565b600260009054906101000a900473ffffffffffffffffffffffffffffffffffffffff1681565b60096020528060005260406000206000915054906101000a900473ffffffffffffffffffffffffffffffffffffffff1681565b600073ffffffffffffffffffffffffffffffffffffffff82169050919050565b6000819050919050565b60006108b26108ad6108a88461086d565b61088d565b61086d565b9050919050565b60006108c482610897565b9050919050565b60006108d6826108b9565b9050919050565b6108e6816108cb565b82525050565b600060208201905061090160008301846108dd565b92915050565b60006109128261086d565b9050919050565b61092281610907565b82525050565b600060208201905061093d6000830184610919565b92915050565b600061094e8261086d565b9050919050565b61095e81610943565b82525050565b60006020820190506109796000830184610955565b92915050565b600080fd5b61098d81610943565b811461099857600080fd5b50565b6000813590506109aa81610984565b92915050565b6000602082840312156109c6576109c561097f565b5b60006109d48482850161099b565b91505092915050565b6000819050919050565b6109f0816109dd565b81146109fb57600080fd5b50565b600081359050610a0d816109e7565b92915050565b600060208284031215610a2957610a2861097f565b5b6000610a37848285016109fe565b91505092915050565b60008115159050919050565b610a5581610a40565b82525050565b6000602082019050610a706000830184610a4c565b9291505056fea2646970667358221220bc206d87cfac1a95527e2b259d053d92d4f1961686001a137c19fad93810262264736f6c634300080d0033",
  "immutableReferences": {},
  "source": "pragma solidity ^0.8.0;\r\nimport \"./ChampTraderAccessControl.sol\";\r\nimport \"./SaleClockAuction.sol\";\r\n\r\ncontract ChampTraderBase is ChampTraderAccessControl {\r\n    /// @dev Transfer event as defined in current draft of ERC721. Emitted every time a kitten\r\n    ///  ownership is assigned, including births.\r\n    event Birth(address indexed owner, address indexed trader, uint256 champId, string philosophyIpfsHash);\r\n    struct ChampTrader {\r\n        string tradeLog;\r\n        string philosophyIpfsHash;\r\n        uint64 birthTime;\r\n        uint256 champId;\r\n        uint32 totalTransactionQty;\r\n        address trader;\r\n    }\r\n\r\n    /*** STORAGE ***/\r\n\r\n    ChampTrader[] champTraders;\r\n\r\n\r\n    /// @dev A mapping from cat IDs to the address that owns them. All cats have\r\n    ///  some valid owner address, even gen0 cats are created with a non-zero owner.\r\n    mapping (uint256 => address) public champIndexToOwner;\r\n\r\n    // @dev A mapping from owner address to count of tokens that address owns.\r\n    //  Used internally inside balanceOf() to resolve ownership count.\r\n    mapping (address => uint256) ownershipTokenCount;\r\n\r\n    /// @dev A mapping from KittyIDs to an address that has been approved to call\r\n    ///  transferFrom(). Each Kitty can only have one approved address for transfer\r\n    ///  at any time. A zero value means no approval is outstanding.\r\n    mapping (uint256 => address) public champIndexToApproved;\r\n\r\n    mapping (uint256 => address) public champIndexToTrader;\r\n\r\n    /// @dev The address of the ClockAuction contract that handles sales of Kitties. This\r\n    ///  same contract handles both peer-to-peer sales as well as the gen0 sales which are\r\n    ///  initiated every 15 minutes.\r\n    SaleClockAuction public saleAuctionContract;\r\n\r\n    /// @dev Assigns ownership of a specific Kitty to an address.\r\n    function _transfer(address _from, address _to, uint256 _tokenId) internal {\r\n        // Since the number of kittens is capped to 2^32 we can't overflow this\r\n        ownershipTokenCount[_to]++;\r\n        // transfer ownership\r\n        champIndexToOwner[_tokenId] = _to;\r\n        // When creating new kittens _from is 0x0, but we can't account that address.\r\n        if (_from != address(0)) {\r\n            ownershipTokenCount[_from]--;\r\n            // clear any previously approved ownership exchange\r\n            delete champIndexToApproved[_tokenId];\r\n        }\r\n\r\n    }\r\n\r\n    /// @dev An internal method that creates a new kitty and stores it. This\r\n    ///  method doesn't do any checking and should only be called when the\r\n    ///  input data is known to be valid. Will generate both a Birth event\r\n    ///  and a Transfer event.\r\n    /// @param _owner The inital owner of this cat, must be non-zero (except for the unKitty, ID 0)\r\n    function _createChamp(string memory _philosophyIpfsHash,address _owner, address _trader) internal returns (uint256)\r\n    {\r\n        uint256 newChampId = champTraders.length;\r\n\r\n        ChampTrader memory _champ = ChampTrader({\r\n            champId:newChampId,\r\n            tradeLog:\"\",\r\n            philosophyIpfsHash: _philosophyIpfsHash,\r\n            birthTime: uint64(block.timestamp),\r\n            trader: _trader,\r\n            totalTransactionQty:0\r\n        });\r\n        champTraders.push(_champ);\r\n\r\n        // emit the birth event\r\n        emit Birth(_owner,_trader, newChampId,_champ.philosophyIpfsHash);\r\n\r\n        // This will assign ownership, and also emit the Transfer event as\r\n        // per ERC721 draft\r\n        _transfer(address(0), _owner, newChampId);\r\n\r\n        return newChampId;\r\n    }\r\n\r\n}\r\n",
  "sourcePath": "C:\\Users\\lam\\Documents\\GitHub\\dynamodb_related\\pythonProject\\smart_contract\\contracts\\ChampTraderBase.sol",
  "compiler": {
    "name": "solc",
    "version": "0.8.13+commit.abaa5c0e.Emscripten.clang"
  },
  "schemaVersion": "3.4.7",
  "updatedAt": "2022-05-02T01:57:46.560Z",
  "devdoc": {
    "events": {
      "Birth(address,address,uint256,string)": {
        "details": "Transfer event as defined in current draft of ERC721. Emitted every time a kitten  ownership is assigned, including births."
      }
    },
    "kind": "dev",
    "methods": {
      "pause()": {
        "details": "Called by any \"C-level\" role to pause the contract. Used only when  a bug or exploit is detected and we need to limit damage."
      },
      "setCEO(address)": {
        "details": "Assigns a new address to act as the CEO. Only available to the current CEO.",
        "params": {
          "_newCEO": "The address of the new CEO"
        }
      },
      "setCFO(address)": {
        "details": "Assigns a new address to act as the CFO. Only available to the current CEO.",
        "params": {
          "_newCFO": "The address of the new CFO"
        }
      },
      "setCOO(address)": {
        "details": "Assigns a new address to act as the COO. Only available to the current CEO.",
        "params": {
          "_newCOO": "The address of the new COO"
        }
      },
      "unpause()": {
        "details": "Unpauses the smart contract. Can only be called by the CEO, since  one reason we may pause the contract is when CFO or COO accounts are  compromised."
      }
    },
    "stateVariables": {
      "champIndexToApproved": {
        "details": "A mapping from KittyIDs to an address that has been approved to call  transferFrom(). Each Kitty can only have one approved address for transfer  at any time. A zero value means no approval is outstanding."
      },
      "champIndexToOwner": {
        "details": "A mapping from cat IDs to the address that owns them. All cats have  some valid owner address, even gen0 cats are created with a non-zero owner."
      },
      "saleAuctionContract": {
        "details": "The address of the ClockAuction contract that handles sales of Kitties. This  same contract handles both peer-to-peer sales as well as the gen0 sales which are  initiated every 15 minutes."
      }
    },
    "version": 1
  },
  "userdoc": {
    "kind": "user",
    "methods": {
      "unpause()": {
        "notice": "This is public rather than external so it can be called by  derived contracts."
      }
    },
    "version": 1
  }
}