{
  "contractName": "ChampAuction",
  "abi": [
    {
      "anonymous": false,
      "inputs": [
        {
          "indexed": false,
          "internalType": "address",
          "name": "owner",
          "type": "address"
        },
        {
          "indexed": false,
          "internalType": "address",
          "name": "approved",
          "type": "address"
        },
        {
          "indexed": false,
          "internalType": "uint256",
          "name": "tokenId",
          "type": "uint256"
        }
      ],
      "name": "Approval",
      "type": "event"
    },
    {
      "anonymous": false,
      "inputs": [
        {
          "indexed": true,
          "internalType": "address",
          "name": "owner",
          "type": "address"
        },
        {
          "indexed": true,
          "internalType": "address",
          "name": "trader",
          "type": "address"
        },
        {
          "indexed": false,
          "internalType": "uint256",
          "name": "champId",
          "type": "uint256"
        },
        {
          "indexed": false,
          "internalType": "string",
          "name": "philosophyIpfsHash",
          "type": "string"
        }
      ],
      "name": "Birth",
      "type": "event"
    },
    {
      "anonymous": false,
      "inputs": [
        {
          "indexed": false,
          "internalType": "address",
          "name": "newContract",
          "type": "address"
        }
      ],
      "name": "ContractUpgrade",
      "type": "event"
    },
    {
      "anonymous": false,
      "inputs": [
        {
          "indexed": false,
          "internalType": "address",
          "name": "owner",
          "type": "address"
        }
      ],
      "name": "LogTrade",
      "type": "event"
    },
    {
      "anonymous": false,
      "inputs": [
        {
          "indexed": false,
          "internalType": "address",
          "name": "from",
          "type": "address"
        },
        {
          "indexed": false,
          "internalType": "address",
          "name": "to",
          "type": "address"
        },
        {
          "indexed": false,
          "internalType": "uint256",
          "name": "tokenId",
          "type": "uint256"
        }
      ],
      "name": "Transfer",
      "type": "event"
    },
    {
      "inputs": [],
      "name": "activeChamps",
      "outputs": [
        {
          "internalType": "uint256",
          "name": "",
          "type": "uint256"
        }
      ],
      "stateMutability": "view",
      "type": "function"
    },
    {
      "inputs": [
        {
          "internalType": "address",
          "name": "_to",
          "type": "address"
        },
        {
          "internalType": "uint256",
          "name": "_tokenId",
          "type": "uint256"
        }
      ],
      "name": "approve",
      "outputs": [],
      "stateMutability": "nonpayable",
      "type": "function"
    },
    {
      "inputs": [],
      "name": "autoLogFee",
      "outputs": [
        {
          "internalType": "uint256",
          "name": "",
          "type": "uint256"
        }
      ],
      "stateMutability": "view",
      "type": "function"
    },
    {
      "inputs": [
        {
          "internalType": "address",
          "name": "_owner",
          "type": "address"
        }
      ],
      "name": "balanceOf",
      "outputs": [
        {
          "internalType": "uint256",
          "name": "count",
          "type": "uint256"
        }
      ],
      "stateMutability": "view",
      "type": "function"
    },
    {
      "inputs": [],
      "name": "ceoAddress",
      "outputs": [
        {
          "internalType": "address",
          "name": "",
          "type": "address"
        }
      ],
      "stateMutability": "view",
      "type": "function"
    },
    {
      "inputs": [],
      "name": "cfoAddress",
      "outputs": [
        {
          "internalType": "address payable",
          "name": "",
          "type": "address"
        }
      ],
      "stateMutability": "view",
      "type": "function"
    },
    {
      "inputs": [
        {
          "internalType": "uint256",
          "name": "",
          "type": "uint256"
        }
      ],
      "name": "champIndexToApproved",
      "outputs": [
        {
          "internalType": "address",
          "name": "",
          "type": "address"
        }
      ],
      "stateMutability": "view",
      "type": "function"
    },
    {
      "inputs": [
        {
          "internalType": "uint256",
          "name": "",
          "type": "uint256"
        }
      ],
      "name": "champIndexToOwner",
      "outputs": [
        {
          "internalType": "address",
          "name": "",
          "type": "address"
        }
      ],
      "stateMutability": "view",
      "type": "function"
    },
    {
      "inputs": [
        {
          "internalType": "uint256",
          "name": "",
          "type": "uint256"
        }
      ],
      "name": "champIndexToTrader",
      "outputs": [
        {
          "internalType": "address",
          "name": "",
          "type": "address"
        }
      ],
      "stateMutability": "view",
      "type": "function"
    },
    {
      "inputs": [],
      "name": "cooAddress",
      "outputs": [
        {
          "internalType": "address",
          "name": "",
          "type": "address"
        }
      ],
      "stateMutability": "view",
      "type": "function"
    },
    {
      "inputs": [],
      "name": "erc721Metadata",
      "outputs": [
        {
          "internalType": "contract ERC721Metadata",
          "name": "",
          "type": "address"
        }
      ],
      "stateMutability": "view",
      "type": "function"
    },
    {
      "inputs": [
        {
          "internalType": "uint256",
          "name": "_champId",
          "type": "uint256"
        }
      ],
      "name": "get_trade_log",
      "outputs": [
        {
          "internalType": "string",
          "name": "",
          "type": "string"
        }
      ],
      "stateMutability": "view",
      "type": "function"
    },
    {
      "inputs": [
        {
          "internalType": "uint256",
          "name": "_champId",
          "type": "uint256"
        }
      ],
      "name": "init",
      "outputs": [],
      "stateMutability": "nonpayable",
      "type": "function"
    },
    {
      "inputs": [
        {
          "internalType": "uint256",
          "name": "_champId",
          "type": "uint256"
        }
      ],
      "name": "isActive",
      "outputs": [
        {
          "internalType": "bool",
          "name": "",
          "type": "bool"
        }
      ],
      "stateMutability": "view",
      "type": "function"
    },
    {
      "inputs": [],
      "name": "name",
      "outputs": [
        {
          "internalType": "string",
          "name": "",
          "type": "string"
        }
      ],
      "stateMutability": "view",
      "type": "function"
    },
    {
      "inputs": [
        {
          "internalType": "uint256",
          "name": "_tokenId",
          "type": "uint256"
        }
      ],
      "name": "ownerOf",
      "outputs": [
        {
          "internalType": "address",
          "name": "owner",
          "type": "address"
        }
      ],
      "stateMutability": "view",
      "type": "function"
    },
    {
      "inputs": [],
      "name": "pause",
      "outputs": [],
      "stateMutability": "nonpayable",
      "type": "function"
    },
    {
      "inputs": [],
      "name": "paused",
      "outputs": [
        {
          "internalType": "bool",
          "name": "",
          "type": "bool"
        }
      ],
      "stateMutability": "view",
      "type": "function"
    },
    {
      "inputs": [],
      "name": "saleAuctionContract",
      "outputs": [
        {
          "internalType": "contract SaleClockAuction",
          "name": "",
          "type": "address"
        }
      ],
      "stateMutability": "view",
      "type": "function"
    },
    {
      "inputs": [
        {
          "internalType": "uint256",
          "name": "val",
          "type": "uint256"
        }
      ],
      "name": "setAutoLogFee",
      "outputs": [],
      "stateMutability": "nonpayable",
      "type": "function"
    },
    {
      "inputs": [
        {
          "internalType": "address",
          "name": "_newCEO",
          "type": "address"
        }
      ],
      "name": "setCEO",
      "outputs": [],
      "stateMutability": "nonpayable",
      "type": "function"
    },
    {
      "inputs": [
        {
          "internalType": "address",
          "name": "_newCFO",
          "type": "address"
        }
      ],
      "name": "setCFO",
      "outputs": [],
      "stateMutability": "nonpayable",
      "type": "function"
    },
    {
      "inputs": [
        {
          "internalType": "address",
          "name": "_newCOO",
          "type": "address"
        }
      ],
      "name": "setCOO",
      "outputs": [],
      "stateMutability": "nonpayable",
      "type": "function"
    },
    {
      "inputs": [
        {
          "internalType": "address",
          "name": "_contractAddress",
          "type": "address"
        }
      ],
      "name": "setMetadataAddress",
      "outputs": [],
      "stateMutability": "nonpayable",
      "type": "function"
    },
    {
      "inputs": [
        {
          "internalType": "uint256",
          "name": "_champId",
          "type": "uint256"
        },
        {
          "internalType": "string",
          "name": "_ticker",
          "type": "string"
        },
        {
          "internalType": "string",
          "name": "_avgPrice",
          "type": "string"
        },
        {
          "internalType": "string",
          "name": "_transactQty",
          "type": "string"
        }
      ],
      "name": "setlogTrade",
      "outputs": [],
      "stateMutability": "nonpayable",
      "type": "function"
    },
    {
      "inputs": [
        {
          "internalType": "bytes4",
          "name": "_interfaceID",
          "type": "bytes4"
        }
      ],
      "name": "supportsInterface",
      "outputs": [
        {
          "internalType": "bool",
          "name": "",
          "type": "bool"
        }
      ],
      "stateMutability": "view",
      "type": "function"
    },
    {
      "inputs": [],
      "name": "symbol",
      "outputs": [
        {
          "internalType": "string",
          "name": "",
          "type": "string"
        }
      ],
      "stateMutability": "view",
      "type": "function"
    },
    {
      "inputs": [
        {
          "internalType": "uint256",
          "name": "_tokenId",
          "type": "uint256"
        },
        {
          "internalType": "string",
          "name": "_preferredTransport",
          "type": "string"
        }
      ],
      "name": "tokenMetadata",
      "outputs": [
        {
          "internalType": "string",
          "name": "infoUrl",
          "type": "string"
        }
      ],
      "stateMutability": "view",
      "type": "function"
    },
    {
      "inputs": [
        {
          "internalType": "address",
          "name": "_owner",
          "type": "address"
        }
      ],
      "name": "tokensOfOwner",
      "outputs": [
        {
          "internalType": "uint256[]",
          "name": "ownerTokens",
          "type": "uint256[]"
        }
      ],
      "stateMutability": "view",
      "type": "function"
    },
    {
      "inputs": [],
      "name": "totalSupply",
      "outputs": [
        {
          "internalType": "uint256",
          "name": "",
          "type": "uint256"
        }
      ],
      "stateMutability": "view",
      "type": "function"
    },
    {
      "inputs": [
        {
          "internalType": "uint256",
          "name": "",
          "type": "uint256"
        }
      ],
      "name": "traderAddress",
      "outputs": [
        {
          "internalType": "address",
          "name": "",
          "type": "address"
        }
      ],
      "stateMutability": "view",
      "type": "function"
    },
    {
      "inputs": [
        {
          "internalType": "address",
          "name": "_to",
          "type": "address"
        },
        {
          "internalType": "uint256",
          "name": "_tokenId",
          "type": "uint256"
        }
      ],
      "name": "transfer",
      "outputs": [],
      "stateMutability": "nonpayable",
      "type": "function"
    },
    {
      "inputs": [
        {
          "internalType": "address",
          "name": "_from",
          "type": "address"
        },
        {
          "internalType": "address",
          "name": "_to",
          "type": "address"
        },
        {
          "internalType": "uint256",
          "name": "_tokenId",
          "type": "uint256"
        }
      ],
      "name": "transferFrom",
      "outputs": [],
      "stateMutability": "nonpayable",
      "type": "function"
    },
    {
      "inputs": [],
      "name": "unpause",
      "outputs": [],
      "stateMutability": "nonpayable",
      "type": "function"
    },
    {
      "inputs": [
        {
          "internalType": "address",
          "name": "_address",
          "type": "address"
        }
      ],
      "name": "setSaleAuctionAddress",
      "outputs": [],
      "stateMutability": "nonpayable",
      "type": "function"
    },
    {
      "inputs": [
        {
          "internalType": "uint256",
          "name": "_champId",
          "type": "uint256"
        },
        {
          "internalType": "uint256",
          "name": "_startingPrice",
          "type": "uint256"
        },
        {
          "internalType": "uint256",
          "name": "_endingPrice",
          "type": "uint256"
        },
        {
          "internalType": "uint256",
          "name": "_duration",
          "type": "uint256"
        }
      ],
      "name": "createSaleAuction",
      "outputs": [],
      "stateMutability": "nonpayable",
      "type": "function"
    },
    {
      "inputs": [],
      "name": "withdrawAuctionBalances",
      "outputs": [],
      "stateMutability": "nonpayable",
      "type": "function"
    }
  ],
  "bytecode": "0x60806040526000600460006101000a81548160ff02191690831515021790555066071afd498d0000600c556000600d5534801561003b57600080fd5b5061355b8061004b6000396000f3fe608060405234801561001057600080fd5b50600436106102275760003560e01c8063592f55591161013057806391876e57116100b8578063b5bb78fc1161007c578063b5bb78fc14610652578063b7b0422d14610682578063bc4006f51461069e578063bf1ca719146106bc578063e17b25af146106d857610227565b806391876e57146105d257806395d89b41146105dc578063a117251b146105fa578063a9059cbb14610618578063b047fb501461063457610227565b806370a08231116100ff57806370a082311461051a57806379ee23f01461054a57806382afd23b146105685780638456cb59146105985780638462151c146105a257610227565b8063592f5559146104805780635c975abb146104b05780636352211e146104ce5780636fbde40d146104fe57610227565b806323b872dd116101b35780633d7d3f5a116101825780633d7d3f5a146103de5780633e444f8b146103fa5780633f4ba83a1461042a5780634bc464b2146104345780634e0a33791461046457610227565b806323b872dd1461035a57806327d7874c146103765780632ba73c15146103925780632ed59d29146103ae57610227565b806306fdde03116101fa57806306fdde03146102c8578063095ea7b3146102e65780630a0f81681461030257806318160ddd146103205780631e01446c1461033e57610227565b806301ffc9a71461022c578063038508481461025c5780630519ce791461027a5780630560ff4414610298575b600080fd5b6102466004803603810190610241919061254a565b6106f4565b6040516102539190612592565b60405180910390f35b6102646108f8565b604051610271919061262c565b60405180910390f35b61028261091e565b60405161028f9190612668565b60405180910390f35b6102b260048036038101906102ad91906127ff565b610944565b6040516102bf91906128e3565b60405180910390f35b6102d0610a08565b6040516102dd91906128e3565b60405180910390f35b61030060048036038101906102fb9190612943565b610a41565b005b61030a610ab7565b6040516103179190612992565b60405180910390f35b610328610adb565b60405161033591906129bc565b60405180910390f35b610358600480360381019061035391906129d7565b610af4565b005b610374600480360381019061036f9190612a04565b610b58565b005b610390600480360381019061038b9190612a57565b610c19565b005b6103ac60048036038101906103a79190612a57565b610ced565b005b6103c860048036038101906103c391906129d7565b610dc2565b6040516103d591906128e3565b60405180910390f35b6103f860048036038101906103f39190612a84565b610e92565b005b610414600480360381019061040f91906129d7565b610f98565b6040516104219190612992565b60405180910390f35b610432610fcb565b005b61044e600480360381019061044991906129d7565b611059565b60405161045b9190612992565b60405180910390f35b61047e60048036038101906104799190612a57565b61108c565b005b61049a600480360381019061049591906129d7565b611161565b6040516104a79190612992565b60405180910390f35b6104b8611194565b6040516104c59190612592565b60405180910390f35b6104e860048036038101906104e391906129d7565b6111a7565b6040516104f59190612992565b60405180910390f35b61051860048036038101906105139190612a57565b61121d565b005b610534600480360381019061052f9190612a57565b611337565b60405161054191906129bc565b60405180910390f35b610552611380565b60405161055f91906129bc565b60405180910390f35b610582600480360381019061057d91906129d7565b611386565b60405161058f9190612592565b60405180910390f35b6105a06113ce565b005b6105bc60048036038101906105b79190612a57565b61150d565b6040516105c99190612ba9565b60405180910390f35b6105da611694565b005b6105e4611820565b6040516105f191906128e3565b60405180910390f35b610602611859565b60405161060f91906129bc565b60405180910390f35b610632600480360381019061062d9190612943565b61185f565b005b61063c6119a1565b6040516106499190612992565b60405180910390f35b61066c600480360381019061066791906129d7565b6119c7565b6040516106799190612992565b60405180910390f35b61069c600480360381019061069791906129d7565b6119fa565b005b6106a6611a83565b6040516106b39190612bec565b60405180910390f35b6106d660048036038101906106d19190612c07565b611aa9565b005b6106f260048036038101906106ed9190612a57565b611dc4565b005b60007f01ffc9a7a5cef8baa21ed3c5c0d7e23accb804b619e9333b597f47a0d84076e27bffffffffffffffffffffffffffffffffffffffffffffffffffffffff1916827bffffffffffffffffffffffffffffffffffffffffffffffffffffffff191614806108f157507f0560ff44c470b66135b184f41c47840de0a42f8d70ee772ca647210e9eb3c8fd7f8462151cfcc0f257319f78db464014651918f3905b3d4bdab48d3f4618c542c17f23b872dd7302113369cda2901243429419bec145408fa8b352b3dd92b66c680b7fa9059cbb2ab09eb219583f4a59a5d0623ade346d962bcd4e46b11da047c9049b7f095ea7b334ae44009aa867bfb386f5c3b4b443ac6f0ee573fa91c4608fbadfba7f6352211e6566aa027e75ac9dbf2423197fbd9b82b9d981a3ab367d355866aa1c7f70a08231b98ef4ca268c9cc3f6b4590e4bfec28280db06bb5d45e689f2a360be7f18160ddd7f15c72528c2f94fd8dfe3c8d5aa26e2c50c7d81f4bc7bee8d4b79327f95d89b41e2f5f391a79ec54e9d87c79d6e777c63e32c28da95b4e9e4a79250ec7f06fdde0383f15d582d1a74511486c9ddf862a882fb7904b3d9fe9b8b8e58a7961818181818181818187bffffffffffffffffffffffffffffffffffffffffffffffffffffffff1916827bffffffffffffffffffffffffffffffffffffffffffffffffffffffff1916145b9050919050565b600a60009054906101000a900473ffffffffffffffffffffffffffffffffffffffff1681565b600160009054906101000a900473ffffffffffffffffffffffffffffffffffffffff1681565b606061094e612419565b6000600b60009054906101000a900473ffffffffffffffffffffffffffffffffffffffff1673ffffffffffffffffffffffffffffffffffffffff1663a574cea4866040518263ffffffff1660e01b81526004016109ab91906129bc565b60a060405180830381865afa1580156109c8573d6000803e3d6000fd5b505050506040513d601f19601f820116820180604052508101906109ec9190612dc3565b80925081935050506109fe8282611e60565b9250505092915050565b6040518060400160405280600b81526020017f4368616d7054726164657200000000000000000000000000000000000000000081525081565b600460009054906101000a900460ff1615610a5b57600080fd5b610a653382611ed6565b610a6e57600080fd5b610a788183611f42565b7f8c5be1e5ebec7d5bd14f71427d1e84f3dd0314c0f7b2291e5b200ac8c7c3b925338383604051610aab93929190612e03565b60405180910390a15050565b60008054906101000a900473ffffffffffffffffffffffffffffffffffffffff1681565b60006001600580549050610aef9190612e69565b905090565b600260009054906101000a900473ffffffffffffffffffffffffffffffffffffffff1673ffffffffffffffffffffffffffffffffffffffff163373ffffffffffffffffffffffffffffffffffffffff1614610b4e57600080fd5b80600c8190555050565b600460009054906101000a900460ff1615610b7257600080fd5b600073ffffffffffffffffffffffffffffffffffffffff168273ffffffffffffffffffffffffffffffffffffffff1603610bab57600080fd5b3073ffffffffffffffffffffffffffffffffffffffff168273ffffffffffffffffffffffffffffffffffffffff1603610be357600080fd5b610bed3382611f98565b610bf657600080fd5b610c008382611ed6565b610c0957600080fd5b610c14838383612004565b505050565b60008054906101000a900473ffffffffffffffffffffffffffffffffffffffff1673ffffffffffffffffffffffffffffffffffffffff163373ffffffffffffffffffffffffffffffffffffffff1614610c7157600080fd5b600073ffffffffffffffffffffffffffffffffffffffff168173ffffffffffffffffffffffffffffffffffffffff1603610caa57600080fd5b806000806101000a81548173ffffffffffffffffffffffffffffffffffffffff021916908373ffffffffffffffffffffffffffffffffffffffff16021790555050565b60008054906101000a900473ffffffffffffffffffffffffffffffffffffffff1673ffffffffffffffffffffffffffffffffffffffff163373ffffffffffffffffffffffffffffffffffffffff1614610d4557600080fd5b600073ffffffffffffffffffffffffffffffffffffffff168173ffffffffffffffffffffffffffffffffffffffff1603610d7e57600080fd5b80600260006101000a81548173ffffffffffffffffffffffffffffffffffffffff021916908373ffffffffffffffffffffffffffffffffffffffff16021790555050565b6060610dce3383612170565b610dd757600080fd5b600060058381548110610ded57610dec612e9d565b5b90600052602060002090600502019050806000018054610e0c90612efb565b80601f0160208091040260200160405190810160405280929190818152602001828054610e3890612efb565b8015610e855780601f10610e5a57610100808354040283529160200191610e85565b820191906000526020600020905b815481529060010190602001808311610e6857829003601f168201915b5050505050915050919050565b600460009054906101000a900460ff1615610eac57600080fd5b610eb63385611ed6565b610ebf57600080fd5b610ec884611386565b610ed157600080fd5b610efd84600a60009054906101000a900473ffffffffffffffffffffffffffffffffffffffff16611f42565b600a60009054906101000a900473ffffffffffffffffffffffffffffffffffffffff1673ffffffffffffffffffffffffffffffffffffffff166327ebe40a85858585336040518663ffffffff1660e01b8152600401610f60959493929190612f2c565b600060405180830381600087803b158015610f7a57600080fd5b505af1158015610f8e573d6000803e3d6000fd5b5050505050505050565b60066020528060005260406000206000915054906101000a900473ffffffffffffffffffffffffffffffffffffffff1681565b60008054906101000a900473ffffffffffffffffffffffffffffffffffffffff1673ffffffffffffffffffffffffffffffffffffffff163373ffffffffffffffffffffffffffffffffffffffff161461102357600080fd5b600460009054906101000a900460ff1661103c57600080fd5b6000600460006101000a81548160ff021916908315150217905550565b60036020528060005260406000206000915054906101000a900473ffffffffffffffffffffffffffffffffffffffff1681565b60008054906101000a900473ffffffffffffffffffffffffffffffffffffffff1673ffffffffffffffffffffffffffffffffffffffff163373ffffffffffffffffffffffffffffffffffffffff16146110e457600080fd5b600073ffffffffffffffffffffffffffffffffffffffff168173ffffffffffffffffffffffffffffffffffffffff160361111d57600080fd5b80600160006101000a81548173ffffffffffffffffffffffffffffffffffffffff021916908373ffffffffffffffffffffffffffffffffffffffff16021790555050565b60086020528060005260406000206000915054906101000a900473ffffffffffffffffffffffffffffffffffffffff1681565b600460009054906101000a900460ff1681565b60006006600083815260200190815260200160002060009054906101000a900473ffffffffffffffffffffffffffffffffffffffff169050600073ffffffffffffffffffffffffffffffffffffffff168173ffffffffffffffffffffffffffffffffffffffff160361121857600080fd5b919050565b60008054906101000a900473ffffffffffffffffffffffffffffffffffffffff1673ffffffffffffffffffffffffffffffffffffffff163373ffffffffffffffffffffffffffffffffffffffff161461127557600080fd5b60008190508073ffffffffffffffffffffffffffffffffffffffff166385b861886040518163ffffffff1660e01b8152600401602060405180830381865afa1580156112c5573d6000803e3d6000fd5b505050506040513d601f19601f820116820180604052508101906112e99190612fab565b6112f257600080fd5b80600a60006101000a81548173ffffffffffffffffffffffffffffffffffffffff021916908373ffffffffffffffffffffffffffffffffffffffff1602179055505050565b6000600760008373ffffffffffffffffffffffffffffffffffffffff1673ffffffffffffffffffffffffffffffffffffffff168152602001908152602001600020549050919050565b600d5481565b6000806005838154811061139d5761139c612e9d565b5b906000526020600020906005020160040160009054906101000a900463ffffffff1663ffffffff1614159050919050565b600260009054906101000a900473ffffffffffffffffffffffffffffffffffffffff1673ffffffffffffffffffffffffffffffffffffffff163373ffffffffffffffffffffffffffffffffffffffff161480611475575060008054906101000a900473ffffffffffffffffffffffffffffffffffffffff1673ffffffffffffffffffffffffffffffffffffffff163373ffffffffffffffffffffffffffffffffffffffff16145b806114cd5750600160009054906101000a900473ffffffffffffffffffffffffffffffffffffffff1673ffffffffffffffffffffffffffffffffffffffff163373ffffffffffffffffffffffffffffffffffffffff16145b6114d657600080fd5b600460009054906101000a900460ff16156114f057600080fd5b6001600460006101000a81548160ff021916908315150217905550565b6060600061151a83611337565b90506000810361157657600067ffffffffffffffff81111561153f5761153e6126d4565b5b60405190808252806020026020018201604052801561156d5781602001602082028036833780820191505090505b5091505061168f565b60008167ffffffffffffffff811115611592576115916126d4565b5b6040519080825280602002602001820160405280156115c05781602001602082028036833780820191505090505b50905060006115cd610adb565b9050600080600190505b828111611686578673ffffffffffffffffffffffffffffffffffffffff166006600083815260200190815260200160002060009054906101000a900473ffffffffffffffffffffffffffffffffffffffff1673ffffffffffffffffffffffffffffffffffffffff1603611673578084838151811061165857611657612e9d565b5b602002602001018181525050818061166f90612fd8565b9250505b808061167e90612fd8565b9150506115d7565b83955050505050505b919050565b600260009054906101000a900473ffffffffffffffffffffffffffffffffffffffff1673ffffffffffffffffffffffffffffffffffffffff163373ffffffffffffffffffffffffffffffffffffffff16148061173b575060008054906101000a900473ffffffffffffffffffffffffffffffffffffffff1673ffffffffffffffffffffffffffffffffffffffff163373ffffffffffffffffffffffffffffffffffffffff16145b806117935750600160009054906101000a900473ffffffffffffffffffffffffffffffffffffffff1673ffffffffffffffffffffffffffffffffffffffff163373ffffffffffffffffffffffffffffffffffffffff16145b61179c57600080fd5b600a60009054906101000a900473ffffffffffffffffffffffffffffffffffffffff1673ffffffffffffffffffffffffffffffffffffffff16635fd8c7106040518163ffffffff1660e01b8152600401600060405180830381600087803b15801561180657600080fd5b505af115801561181a573d6000803e3d6000fd5b50505050565b6040518060400160405280600281526020017f435400000000000000000000000000000000000000000000000000000000000081525081565b600c5481565b600460009054906101000a900460ff161561187957600080fd5b600073ffffffffffffffffffffffffffffffffffffffff168273ffffffffffffffffffffffffffffffffffffffff16036118b257600080fd5b3073ffffffffffffffffffffffffffffffffffffffff168273ffffffffffffffffffffffffffffffffffffffff16036118ea57600080fd5b600a60009054906101000a900473ffffffffffffffffffffffffffffffffffffffff1673ffffffffffffffffffffffffffffffffffffffff168273ffffffffffffffffffffffffffffffffffffffff160361194457600080fd5b61194e3382611ed6565b61195757600080fd5b611962338383612004565b7fddf252ad1be2c89b69c2b068fc378daa952ba7f163c4a11628f55a4df523b3ef33838360405161199593929190612e03565b60405180910390a15050565b600260009054906101000a900473ffffffffffffffffffffffffffffffffffffffff1681565b60096020528060005260406000206000915054906101000a900473ffffffffffffffffffffffffffffffffffffffff1681565b611a0433826121a6565b611a0d57600080fd5b600060058281548110611a2357611a22612e9d565b5b9060005260206000209060050201905060405180602001604052806000815250816000019080519060200190611a5a92919061243b565b5060008160040160006101000a81548163ffffffff021916908363ffffffff1602179055505050565b600b60009054906101000a900473ffffffffffffffffffffffffffffffffffffffff1681565b600460009054906101000a900460ff1615611ac357600080fd5b611acd33856121a6565b611ad657600080fd5b600060058581548110611aec57611aeb612e9d565b5b9060005260206000209060050201905060008160020160009054906101000a900467ffffffffffffffff1667ffffffffffffffff1603611b2b57600080fd5b60006040518060400160405280600181526020017f7b000000000000000000000000000000000000000000000000000000000000008152506040518060400160405280600781526020017f7469636b65723a00000000000000000000000000000000000000000000000000815250866040518060400160405280600b81526020017f2c6176675f70726963653a000000000000000000000000000000000000000000815250876040518060400160405280600e81526020017f2c7472616e736163745f7174793a000000000000000000000000000000000000815250886040518060400160405280600b81526020017f2c74696d657374616d703a000000000000000000000000000000000000000000815250611c4742612212565b6040518060400160405280600181526020017f7d00000000000000000000000000000000000000000000000000000000000000815250604051602001611c969a99989796959493929190613067565b60405160208183030381529060405290506000611cb287611386565b90508015611cfc578260000182604051602001611cd09291906131ad565b604051602081830303815290604052836000019080519060200190611cf692919061243b565b50611d30565b81836000019080519060200190611d1492919061243b565b506001600d6000828254611d2891906131e0565b925050819055505b60018360040160008282829054906101000a900463ffffffff16611d549190613246565b92506101000a81548163ffffffff021916908363ffffffff1602179055503373ffffffffffffffffffffffffffffffffffffffff166108fc600c549081150290604051600060405180830381858888f19350505050158015611dba573d6000803e3d6000fd5b5050505050505050565b60008054906101000a900473ffffffffffffffffffffffffffffffffffffffff1673ffffffffffffffffffffffffffffffffffffffff163373ffffffffffffffffffffffffffffffffffffffff1614611e1c57600080fd5b80600b60006101000a81548173ffffffffffffffffffffffffffffffffffffffff021916908373ffffffffffffffffffffffffffffffffffffffff16021790555050565b606060008267ffffffffffffffff811115611e7e57611e7d6126d4565b5b6040519080825280601f01601f191660200182016040528015611eb05781602001600182028036833780820191505090505b509050600080602083019150859050611eca82828761239a565b82935050505092915050565b60008273ffffffffffffffffffffffffffffffffffffffff166006600084815260200190815260200160002060009054906101000a900473ffffffffffffffffffffffffffffffffffffffff1673ffffffffffffffffffffffffffffffffffffffff1614905092915050565b806008600084815260200190815260200160002060006101000a81548173ffffffffffffffffffffffffffffffffffffffff021916908373ffffffffffffffffffffffffffffffffffffffff1602179055505050565b60008273ffffffffffffffffffffffffffffffffffffffff166008600084815260200190815260200160002060009054906101000a900473ffffffffffffffffffffffffffffffffffffffff1673ffffffffffffffffffffffffffffffffffffffff1614905092915050565b600760008373ffffffffffffffffffffffffffffffffffffffff1673ffffffffffffffffffffffffffffffffffffffff168152602001908152602001600020600081548092919061205490612fd8565b9190505550816006600083815260200190815260200160002060006101000a81548173ffffffffffffffffffffffffffffffffffffffff021916908373ffffffffffffffffffffffffffffffffffffffff160217905550600073ffffffffffffffffffffffffffffffffffffffff168373ffffffffffffffffffffffffffffffffffffffff161461216b57600760008473ffffffffffffffffffffffffffffffffffffffff1673ffffffffffffffffffffffffffffffffffffffff168152602001908152602001600020600081548092919061212f90613280565b91905055506008600082815260200190815260200160002060006101000a81549073ffffffffffffffffffffffffffffffffffffffff02191690555b505050565b6000806000905061218184846121a6565b8061219257506121918484611ed6565b5b1561219c57600190505b8091505092915050565b60008273ffffffffffffffffffffffffffffffffffffffff166009600084815260200190815260200160002060009054906101000a900473ffffffffffffffffffffffffffffffffffffffff1673ffffffffffffffffffffffffffffffffffffffff1614905092915050565b606060008203612259576040518060400160405280600181526020017f30000000000000000000000000000000000000000000000000000000000000008152509050612395565b600082905060005b6000821461228b57808061227490612fd8565b915050600a8261228491906132d8565b9150612261565b60008167ffffffffffffffff8111156122a7576122a66126d4565b5b6040519080825280601f01601f1916602001820160405280156122d95781602001600182028036833780820191505090505b50905060008290505b6000861461238d576001816122f79190612e69565b90506000600a808861230991906132d8565b6123139190613309565b8761231e9190612e69565b603061232a9190613370565b905060008160f81b90508084848151811061234857612347612e9d565b5b60200101907effffffffffffffffffffffffffffffffffffffffffffffffffffffffffffff1916908160001a905350600a8861238491906132d8565b975050506122e2565b819450505050505b919050565b5b602081106123d957815183526020836123b491906131e0565b92506020826123c391906131e0565b91506020816123d29190612e69565b905061239b565b600060018260206123ea9190612e69565b6101006123f791906134da565b6124019190612e69565b90508019835116818551168181178652505050505050565b6040518060800160405280600490602082028036833780820191505090505090565b82805461244790612efb565b90600052602060002090601f01602090048101928261246957600085556124b0565b82601f1061248257805160ff19168380011785556124b0565b828001600101855582156124b0579182015b828111156124af578251825591602001919060010190612494565b5b5090506124bd91906124c1565b5090565b5b808211156124da5760008160009055506001016124c2565b5090565b6000604051905090565b600080fd5b600080fd5b60007fffffffff0000000000000000000000000000000000000000000000000000000082169050919050565b612527816124f2565b811461253257600080fd5b50565b6000813590506125448161251e565b92915050565b6000602082840312156125605761255f6124e8565b5b600061256e84828501612535565b91505092915050565b60008115159050919050565b61258c81612577565b82525050565b60006020820190506125a76000830184612583565b92915050565b600073ffffffffffffffffffffffffffffffffffffffff82169050919050565b6000819050919050565b60006125f26125ed6125e8846125ad565b6125cd565b6125ad565b9050919050565b6000612604826125d7565b9050919050565b6000612616826125f9565b9050919050565b6126268161260b565b82525050565b6000602082019050612641600083018461261d565b92915050565b6000612652826125ad565b9050919050565b61266281612647565b82525050565b600060208201905061267d6000830184612659565b92915050565b6000819050919050565b61269681612683565b81146126a157600080fd5b50565b6000813590506126b38161268d565b92915050565b600080fd5b600080fd5b6000601f19601f8301169050919050565b7f4e487b7100000000000000000000000000000000000000000000000000000000600052604160045260246000fd5b61270c826126c3565b810181811067ffffffffffffffff8211171561272b5761272a6126d4565b5b80604052505050565b600061273e6124de565b905061274a8282612703565b919050565b600067ffffffffffffffff82111561276a576127696126d4565b5b612773826126c3565b9050602081019050919050565b82818337600083830152505050565b60006127a261279d8461274f565b612734565b9050828152602081018484840111156127be576127bd6126be565b5b6127c9848285612780565b509392505050565b600082601f8301126127e6576127e56126b9565b5b81356127f684826020860161278f565b91505092915050565b60008060408385031215612816576128156124e8565b5b6000612824858286016126a4565b925050602083013567ffffffffffffffff811115612845576128446124ed565b5b612851858286016127d1565b9150509250929050565b600081519050919050565b600082825260208201905092915050565b60005b8381101561289557808201518184015260208101905061287a565b838111156128a4576000848401525b50505050565b60006128b58261285b565b6128bf8185612866565b93506128cf818560208601612877565b6128d8816126c3565b840191505092915050565b600060208201905081810360008301526128fd81846128aa565b905092915050565b6000612910826125ad565b9050919050565b61292081612905565b811461292b57600080fd5b50565b60008135905061293d81612917565b92915050565b6000806040838503121561295a576129596124e8565b5b60006129688582860161292e565b9250506020612979858286016126a4565b9150509250929050565b61298c81612905565b82525050565b60006020820190506129a76000830184612983565b92915050565b6129b681612683565b82525050565b60006020820190506129d160008301846129ad565b92915050565b6000602082840312156129ed576129ec6124e8565b5b60006129fb848285016126a4565b91505092915050565b600080600060608486031215612a1d57612a1c6124e8565b5b6000612a2b8682870161292e565b9350506020612a3c8682870161292e565b9250506040612a4d868287016126a4565b9150509250925092565b600060208284031215612a6d57612a6c6124e8565b5b6000612a7b8482850161292e565b91505092915050565b60008060008060808587031215612a9e57612a9d6124e8565b5b6000612aac878288016126a4565b9450506020612abd878288016126a4565b9350506040612ace878288016126a4565b9250506060612adf878288016126a4565b91505092959194509250565b600081519050919050565b600082825260208201905092915050565b6000819050602082019050919050565b612b2081612683565b82525050565b6000612b328383612b17565b60208301905092915050565b6000602082019050919050565b6000612b5682612aeb565b612b608185612af6565b9350612b6b83612b07565b8060005b83811015612b9c578151612b838882612b26565b9750612b8e83612b3e565b925050600181019050612b6f565b5085935050505092915050565b60006020820190508181036000830152612bc38184612b4b565b905092915050565b6000612bd6826125f9565b9050919050565b612be681612bcb565b82525050565b6000602082019050612c016000830184612bdd565b92915050565b60008060008060808587031215612c2157612c206124e8565b5b6000612c2f878288016126a4565b945050602085013567ffffffffffffffff811115612c5057612c4f6124ed565b5b612c5c878288016127d1565b935050604085013567ffffffffffffffff811115612c7d57612c7c6124ed565b5b612c89878288016127d1565b925050606085013567ffffffffffffffff811115612caa57612ca96124ed565b5b612cb6878288016127d1565b91505092959194509250565b600067ffffffffffffffff821115612cdd57612cdc6126d4565b5b602082029050919050565b600080fd5b6000819050919050565b612d0081612ced565b8114612d0b57600080fd5b50565b600081519050612d1d81612cf7565b92915050565b6000612d36612d3184612cc2565b612734565b90508060208402830185811115612d5057612d4f612ce8565b5b835b81811015612d795780612d658882612d0e565b845260208401935050602081019050612d52565b5050509392505050565b600082601f830112612d9857612d976126b9565b5b6004612da5848285612d23565b91505092915050565b600081519050612dbd8161268d565b92915050565b60008060a08385031215612dda57612dd96124e8565b5b6000612de885828601612d83565b9250506080612df985828601612dae565b9150509250929050565b6000606082019050612e186000830186612983565b612e256020830185612983565b612e3260408301846129ad565b949350505050565b7f4e487b7100000000000000000000000000000000000000000000000000000000600052601160045260246000fd5b6000612e7482612683565b9150612e7f83612683565b925082821015612e9257612e91612e3a565b5b828203905092915050565b7f4e487b7100000000000000000000000000000000000000000000000000000000600052603260045260246000fd5b7f4e487b7100000000000000000000000000000000000000000000000000000000600052602260045260246000fd5b60006002820490506001821680612f1357607f821691505b602082108103612f2657612f25612ecc565b5b50919050565b600060a082019050612f4160008301886129ad565b612f4e60208301876129ad565b612f5b60408301866129ad565b612f6860608301856129ad565b612f756080830184612983565b9695505050505050565b612f8881612577565b8114612f9357600080fd5b50565b600081519050612fa581612f7f565b92915050565b600060208284031215612fc157612fc06124e8565b5b6000612fcf84828501612f96565b91505092915050565b6000612fe382612683565b91507fffffffffffffffffffffffffffffffffffffffffffffffffffffffffffffffff820361301557613014612e3a565b5b600182019050919050565b600081519050919050565b600081905092915050565b600061304182613020565b61304b818561302b565b935061305b818560208601612877565b80840191505092915050565b6000613073828d613036565b915061307f828c613036565b915061308b828b613036565b9150613097828a613036565b91506130a38289613036565b91506130af8288613036565b91506130bb8287613036565b91506130c78286613036565b91506130d38285613036565b91506130df8284613036565b91508190509b9a5050505050505050505050565b60008190508160005260206000209050919050565b6000815461311581612efb565b61311f818661302b565b9450600182166000811461313a576001811461314b5761317e565b60ff1983168652818601935061317e565b613154856130f3565b60005b8381101561317657815481890152600182019150602081019050613157565b838801955050505b50505092915050565b7f2c00000000000000000000000000000000000000000000000000000000000000815250565b60006131b98285613108565b91506131c482613187565b6001820191506131d48284613036565b91508190509392505050565b60006131eb82612683565b91506131f683612683565b9250827fffffffffffffffffffffffffffffffffffffffffffffffffffffffffffffffff0382111561322b5761322a612e3a565b5b828201905092915050565b600063ffffffff82169050919050565b600061325182613236565b915061325c83613236565b92508263ffffffff0382111561327557613274612e3a565b5b828201905092915050565b600061328b82612683565b91506000820361329e5761329d612e3a565b5b600182039050919050565b7f4e487b7100000000000000000000000000000000000000000000000000000000600052601260045260246000fd5b60006132e382612683565b91506132ee83612683565b9250826132fe576132fd6132a9565b5b828204905092915050565b600061331482612683565b915061331f83612683565b9250817fffffffffffffffffffffffffffffffffffffffffffffffffffffffffffffffff048311821515161561335857613357612e3a565b5b828202905092915050565b600060ff82169050919050565b600061337b82613363565b915061338683613363565b92508260ff0382111561339c5761339b612e3a565b5b828201905092915050565b60008160011c9050919050565b6000808291508390505b60018511156133fe578086048111156133da576133d9612e3a565b5b60018516156133e95780820291505b80810290506133f7856133a7565b94506133be565b94509492505050565b60008261341757600190506134d3565b8161342557600090506134d3565b816001811461343b576002811461344557613474565b60019150506134d3565b60ff84111561345757613456612e3a565b5b8360020a91508482111561346e5761346d612e3a565b5b506134d3565b5060208310610133831016604e8410600b84101617156134a95782820a9050838111156134a4576134a3612e3a565b5b6134d3565b6134b684848460016133b4565b925090508184048111156134cd576134cc612e3a565b5b81810290505b9392505050565b60006134e582612683565b91506134f083612683565b925061351d7fffffffffffffffffffffffffffffffffffffffffffffffffffffffffffffffff8484613407565b90509291505056fea26469706673582212206435eb9ab26e7a5355267a59eeb1dcb7c469536dbff50581ac0d303c35a08bc964736f6c634300080d0033",
  "immutableReferences": {},
  "source": "pragma solidity ^0.8.0;\r\n\r\nimport \"./ChampLogging.sol\";\r\nimport \"./SaleClockAuction.sol\";\r\n/// @title Handles creating auctions for sale and siring of kitties.\r\n///  This wrapper of ReverseAuction exists only so that users can create\r\n///  auctions with only one transaction.\r\ncontract ChampAuction is ChampLogging {\r\n\r\n    // @notice The auction contract variables are defined in KittyBase to allow\r\n    //  us to refer to them in KittyOwnership to prevent accidental transfers.\r\n    // `saleAuction` refers to the auction for gen0 and p2p sale of kitties.\r\n    // `siringAuction` refers to the auction for siring rights of kitties.\r\n\r\n    /// @dev Sets the reference to the sale auction.\r\n    /// @param _address - Address of sale contract.\r\n    function setSaleAuctionAddress(address _address) external onlyCEO {\r\n        SaleClockAuction candidateContract = SaleClockAuction(_address);\r\n\r\n        // NOTE: verify that a contract is what we expect - https://github.com/Lunyr/crowdsale-contracts/blob/cfadd15986c30521d8ba7d5b6f57b4fefcc7ac38/contracts/LunyrToken.sol#L117\r\n        require(candidateContract.isSaleClockAuction());\r\n\r\n        // Set the new contract address\r\n        saleAuctionContract = candidateContract;\r\n    }\r\n\r\n\r\n    /// @dev Put a kitty up for auction.\r\n    ///  Does some ownership trickery to create auctions in one tx.\r\n    function createSaleAuction(uint256 _champId,uint256 _startingPrice,uint256 _endingPrice,uint256 _duration) external whenNotPaused{\r\n        // Auction contract checks input sizes\r\n        // If kitty is already on any auction, this will throw\r\n        // because it will be owned by the auction contract.\r\n        require(_owns(msg.sender, _champId));\r\n        // Ensure the kitty is not pregnant to prevent the auction\r\n        // contract accidentally receiving ownership of the child.\r\n        // NOTE: the kitty IS allowed to be in a cooldown.\r\n        require(isActive(_champId));\r\n        _approve(_champId, address(saleAuctionContract));\r\n        // Sale auction throws if inputs are invalid and clears\r\n        // transfer and sire approval after escrowing the kitty.\r\n        saleAuctionContract.createAuction(\r\n            _champId,\r\n            _startingPrice,\r\n            _endingPrice,\r\n            _duration,\r\n            msg.sender\r\n        );\r\n    }\r\n\r\n    /// @dev Transfers the balance of the sale auction contract\r\n    /// to the KittyCore contract. We use two-step withdrawal to\r\n    /// prevent two transfer calls in the auction bid function.\r\n    function withdrawAuctionBalances() external onlyCLevel {\r\n        saleAuctionContract.withdrawBalance();\r\n    }\r\n}\r\n",
  "sourcePath": "C:\\Users\\lam\\Documents\\GitHub\\dynamodb_related\\pythonProject\\smart_contract\\contracts\\ChampAuction.sol",
  "compiler": {
    "name": "solc",
    "version": "0.8.13+commit.abaa5c0e.Emscripten.clang"
  },
  "schemaVersion": "3.4.7",
  "updatedAt": "2022-05-02T01:57:46.487Z",
  "devdoc": {
    "kind": "dev",
    "methods": {
      "approve(address,uint256)": {
        "details": "Required for ERC-721 compliance.",
        "params": {
          "_to": "The address to be granted transfer approval. Pass address(0) to  clear all approvals.",
          "_tokenId": "The ID of the Kitty that can be transferred if this call succeeds."
        }
      },
      "balanceOf(address)": {
        "details": "Required for ERC-721 compliance",
        "params": {
          "_owner": "The owner address to check."
        }
      },
      "createSaleAuction(uint256,uint256,uint256,uint256)": {
        "details": "Put a kitty up for auction.  Does some ownership trickery to create auctions in one tx."
      },
      "ownerOf(uint256)": {
        "details": "Required for ERC-721 compliance."
      },
      "pause()": {
        "details": "Called by any \"C-level\" role to pause the contract. Used only when  a bug or exploit is detected and we need to limit damage."
      },
      "setCEO(address)": {
        "details": "Assigns a new address to act as the CEO. Only available to the current CEO.",
        "params": {
          "_newCEO": "The address of the new CEO"
        }
      },
      "setCFO(address)": {
        "details": "Assigns a new address to act as the CFO. Only available to the current CEO.",
        "params": {
          "_newCFO": "The address of the new CFO"
        }
      },
      "setCOO(address)": {
        "details": "Assigns a new address to act as the COO. Only available to the current CEO.",
        "params": {
          "_newCOO": "The address of the new COO"
        }
      },
      "setMetadataAddress(address)": {
        "details": "Set the address of the sibling contract that tracks metadata.  CEO only."
      },
      "setSaleAuctionAddress(address)": {
        "details": "Sets the reference to the sale auction.",
        "params": {
          "_address": "- Address of sale contract."
        }
      },
      "tokenMetadata(uint256,string)": {
        "params": {
          "_tokenId": "The ID number of the Kitty whose metadata should be returned."
        }
      },
      "tokensOfOwner(address)": {
        "details": "This method MUST NEVER be called by smart contract code. First, it's fairly  expensive (it walks the entire Kitty array looking for cats belonging to owner),  but it also returns a dynamic array, which is only supported for web3 calls, and  not contract-to-contract calls.",
        "params": {
          "_owner": "The owner whose Kitties we are interested in."
        }
      },
      "totalSupply()": {
        "details": "Required for ERC-721 compliance."
      },
      "transfer(address,uint256)": {
        "details": "Required for ERC-721 compliance.",
        "params": {
          "_to": "The address of the recipient, can be a user or contract.",
          "_tokenId": "The ID of the Kitty to transfer."
        }
      },
      "transferFrom(address,address,uint256)": {
        "details": "Required for ERC-721 compliance.",
        "params": {
          "_from": "The address that owns the Kitty to be transfered.",
          "_to": "The address that should take ownership of the Kitty. Can be any address,  including the caller.",
          "_tokenId": "The ID of the Kitty to be transferred."
        }
      },
      "unpause()": {
        "details": "Unpauses the smart contract. Can only be called by the CEO, since  one reason we may pause the contract is when CFO or COO accounts are  compromised."
      },
      "withdrawAuctionBalances()": {
        "details": "Transfers the balance of the sale auction contract to the KittyCore contract. We use two-step withdrawal to prevent two transfer calls in the auction bid function."
      }
    },
    "title": "Handles creating auctions for sale and siring of kitties.  This wrapper of ReverseAuction exists only so that users can create  auctions with only one transaction.",
    "version": 1
  },
  "userdoc": {
    "kind": "user",
    "methods": {
      "approve(address,uint256)": {
        "notice": "Grant another address the right to transfer a specific Kitty via  transferFrom(). This is the preferred flow for transfering NFTs to contracts."
      },
      "balanceOf(address)": {
        "notice": "Returns the number of Kitties owned by a specific address."
      },
      "name()": {
        "notice": "Name and symbol of the non fungible token, as defined in ERC721."
      },
      "ownerOf(uint256)": {
        "notice": "Returns the address currently assigned ownership of a given Kitty."
      },
      "supportsInterface(bytes4)": {
        "notice": "Introspection interface as per ERC-165 (https://github.com/ethereum/EIPs/issues/165).  Returns true for any standardized interfaces implemented by this contract. We implement  ERC-165 (obviously!) and ERC-721."
      },
      "tokenMetadata(uint256,string)": {
        "notice": "Returns a URI pointing to a metadata package for this token conforming to  ERC-721 (https://github.com/ethereum/EIPs/issues/721)"
      },
      "tokensOfOwner(address)": {
        "notice": "Returns a list of all Kitty IDs assigned to an address."
      },
      "totalSupply()": {
        "notice": "Returns the total number of Kitties currently in existence."
      },
      "transfer(address,uint256)": {
        "notice": "Transfers a Kitty to another address. If transferring to a smart  contract be VERY CAREFUL to ensure that it is aware of ERC-721 (or  CryptoKitties specifically) or your Kitty may be lost forever. Seriously."
      },
      "transferFrom(address,address,uint256)": {
        "notice": "Transfer a Kitty owned by another address, for which the calling address  has previously been granted transfer approval by the owner."
      },
      "unpause()": {
        "notice": "This is public rather than external so it can be called by  derived contracts."
      }
    },
    "version": 1
  }
}