{
  "contractName": "ChampCore",
  "abi": [
    {
      "inputs": [],
      "stateMutability": "nonpayable",
      "type": "constructor"
    },
    {
      "anonymous": false,
      "inputs": [
        {
          "indexed": false,
          "internalType": "address",
          "name": "owner",
          "type": "address"
        },
        {
          "indexed": false,
          "internalType": "address",
          "name": "approved",
          "type": "address"
        },
        {
          "indexed": false,
          "internalType": "uint256",
          "name": "tokenId",
          "type": "uint256"
        }
      ],
      "name": "Approval",
      "type": "event"
    },
    {
      "anonymous": false,
      "inputs": [
        {
          "indexed": true,
          "internalType": "address",
          "name": "owner",
          "type": "address"
        },
        {
          "indexed": true,
          "internalType": "address",
          "name": "trader",
          "type": "address"
        },
        {
          "indexed": false,
          "internalType": "uint256",
          "name": "champId",
          "type": "uint256"
        },
        {
          "indexed": false,
          "internalType": "string",
          "name": "philosophyIpfsHash",
          "type": "string"
        }
      ],
      "name": "Birth",
      "type": "event"
    },
    {
      "anonymous": false,
      "inputs": [
        {
          "indexed": false,
          "internalType": "address",
          "name": "newContract",
          "type": "address"
        }
      ],
      "name": "ContractUpgrade",
      "type": "event"
    },
    {
      "anonymous": false,
      "inputs": [
        {
          "indexed": false,
          "internalType": "address",
          "name": "owner",
          "type": "address"
        }
      ],
      "name": "LogTrade",
      "type": "event"
    },
    {
      "anonymous": false,
      "inputs": [
        {
          "indexed": false,
          "internalType": "address",
          "name": "from",
          "type": "address"
        },
        {
          "indexed": false,
          "internalType": "address",
          "name": "to",
          "type": "address"
        },
        {
          "indexed": false,
          "internalType": "uint256",
          "name": "tokenId",
          "type": "uint256"
        }
      ],
      "name": "Transfer",
      "type": "event"
    },
    {
      "stateMutability": "payable",
      "type": "fallback"
    },
    {
      "inputs": [],
      "name": "GEN0_AUCTION_DURATION",
      "outputs": [
        {
          "internalType": "uint256",
          "name": "",
          "type": "uint256"
        }
      ],
      "stateMutability": "view",
      "type": "function"
    },
    {
      "inputs": [],
      "name": "GEN0_CREATION_LIMIT",
      "outputs": [
        {
          "internalType": "uint256",
          "name": "",
          "type": "uint256"
        }
      ],
      "stateMutability": "view",
      "type": "function"
    },
    {
      "inputs": [],
      "name": "GEN0_STARTING_PRICE",
      "outputs": [
        {
          "internalType": "uint256",
          "name": "",
          "type": "uint256"
        }
      ],
      "stateMutability": "view",
      "type": "function"
    },
    {
      "inputs": [],
      "name": "activeChamps",
      "outputs": [
        {
          "internalType": "uint256",
          "name": "",
          "type": "uint256"
        }
      ],
      "stateMutability": "view",
      "type": "function"
    },
    {
      "inputs": [
        {
          "internalType": "address",
          "name": "_to",
          "type": "address"
        },
        {
          "internalType": "uint256",
          "name": "_tokenId",
          "type": "uint256"
        }
      ],
      "name": "approve",
      "outputs": [],
      "stateMutability": "nonpayable",
      "type": "function"
    },
    {
      "inputs": [],
      "name": "autoLogFee",
      "outputs": [
        {
          "internalType": "uint256",
          "name": "",
          "type": "uint256"
        }
      ],
      "stateMutability": "view",
      "type": "function"
    },
    {
      "inputs": [
        {
          "internalType": "address",
          "name": "_owner",
          "type": "address"
        }
      ],
      "name": "balanceOf",
      "outputs": [
        {
          "internalType": "uint256",
          "name": "count",
          "type": "uint256"
        }
      ],
      "stateMutability": "view",
      "type": "function"
    },
    {
      "inputs": [],
      "name": "ceoAddress",
      "outputs": [
        {
          "internalType": "address",
          "name": "",
          "type": "address"
        }
      ],
      "stateMutability": "view",
      "type": "function"
    },
    {
      "inputs": [],
      "name": "cfoAddress",
      "outputs": [
        {
          "internalType": "address payable",
          "name": "",
          "type": "address"
        }
      ],
      "stateMutability": "view",
      "type": "function"
    },
    {
      "inputs": [
        {
          "internalType": "uint256",
          "name": "",
          "type": "uint256"
        }
      ],
      "name": "champIndexToApproved",
      "outputs": [
        {
          "internalType": "address",
          "name": "",
          "type": "address"
        }
      ],
      "stateMutability": "view",
      "type": "function"
    },
    {
      "inputs": [
        {
          "internalType": "uint256",
          "name": "",
          "type": "uint256"
        }
      ],
      "name": "champIndexToOwner",
      "outputs": [
        {
          "internalType": "address",
          "name": "",
          "type": "address"
        }
      ],
      "stateMutability": "view",
      "type": "function"
    },
    {
      "inputs": [
        {
          "internalType": "uint256",
          "name": "",
          "type": "uint256"
        }
      ],
      "name": "champIndexToTrader",
      "outputs": [
        {
          "internalType": "address",
          "name": "",
          "type": "address"
        }
      ],
      "stateMutability": "view",
      "type": "function"
    },
    {
      "inputs": [],
      "name": "cooAddress",
      "outputs": [
        {
          "internalType": "address",
          "name": "",
          "type": "address"
        }
      ],
      "stateMutability": "view",
      "type": "function"
    },
    {
      "inputs": [
        {
          "internalType": "string",
          "name": "_philosophyIpfsHash",
          "type": "string"
        },
        {
          "internalType": "address",
          "name": "_trader",
          "type": "address"
        }
      ],
      "name": "createGen0Auction",
      "outputs": [],
      "stateMutability": "nonpayable",
      "type": "function"
    },
    {
      "inputs": [
        {
          "internalType": "uint256",
          "name": "_champId",
          "type": "uint256"
        },
        {
          "internalType": "uint256",
          "name": "_startingPrice",
          "type": "uint256"
        },
        {
          "internalType": "uint256",
          "name": "_endingPrice",
          "type": "uint256"
        },
        {
          "internalType": "uint256",
          "name": "_duration",
          "type": "uint256"
        }
      ],
      "name": "createSaleAuction",
      "outputs": [],
      "stateMutability": "nonpayable",
      "type": "function"
    },
    {
      "inputs": [],
      "name": "erc721Metadata",
      "outputs": [
        {
          "internalType": "contract ERC721Metadata",
          "name": "",
          "type": "address"
        }
      ],
      "stateMutability": "view",
      "type": "function"
    },
    {
      "inputs": [],
      "name": "gen0CreatedCount",
      "outputs": [
        {
          "internalType": "uint256",
          "name": "",
          "type": "uint256"
        }
      ],
      "stateMutability": "view",
      "type": "function"
    },
    {
      "inputs": [
        {
          "internalType": "uint256",
          "name": "_champId",
          "type": "uint256"
        }
      ],
      "name": "get_trade_log",
      "outputs": [
        {
          "internalType": "string",
          "name": "",
          "type": "string"
        }
      ],
      "stateMutability": "view",
      "type": "function"
    },
    {
      "inputs": [
        {
          "internalType": "uint256",
          "name": "_champId",
          "type": "uint256"
        }
      ],
      "name": "init",
      "outputs": [],
      "stateMutability": "nonpayable",
      "type": "function"
    },
    {
      "inputs": [
        {
          "internalType": "uint256",
          "name": "_champId",
          "type": "uint256"
        }
      ],
      "name": "isActive",
      "outputs": [
        {
          "internalType": "bool",
          "name": "",
          "type": "bool"
        }
      ],
      "stateMutability": "view",
      "type": "function"
    },
    {
      "inputs": [],
      "name": "name",
      "outputs": [
        {
          "internalType": "string",
          "name": "",
          "type": "string"
        }
      ],
      "stateMutability": "view",
      "type": "function"
    },
    {
      "inputs": [],
      "name": "newContractAddress",
      "outputs": [
        {
          "internalType": "address",
          "name": "",
          "type": "address"
        }
      ],
      "stateMutability": "view",
      "type": "function"
    },
    {
      "inputs": [
        {
          "internalType": "uint256",
          "name": "_tokenId",
          "type": "uint256"
        }
      ],
      "name": "ownerOf",
      "outputs": [
        {
          "internalType": "address",
          "name": "owner",
          "type": "address"
        }
      ],
      "stateMutability": "view",
      "type": "function"
    },
    {
      "inputs": [],
      "name": "pause",
      "outputs": [],
      "stateMutability": "nonpayable",
      "type": "function"
    },
    {
      "inputs": [],
      "name": "paused",
      "outputs": [
        {
          "internalType": "bool",
          "name": "",
          "type": "bool"
        }
      ],
      "stateMutability": "view",
      "type": "function"
    },
    {
      "inputs": [],
      "name": "saleAuctionContract",
      "outputs": [
        {
          "internalType": "contract SaleClockAuction",
          "name": "",
          "type": "address"
        }
      ],
      "stateMutability": "view",
      "type": "function"
    },
    {
      "inputs": [
        {
          "internalType": "uint256",
          "name": "val",
          "type": "uint256"
        }
      ],
      "name": "setAutoLogFee",
      "outputs": [],
      "stateMutability": "nonpayable",
      "type": "function"
    },
    {
      "inputs": [
        {
          "internalType": "address",
          "name": "_newCEO",
          "type": "address"
        }
      ],
      "name": "setCEO",
      "outputs": [],
      "stateMutability": "nonpayable",
      "type": "function"
    },
    {
      "inputs": [
        {
          "internalType": "address",
          "name": "_newCFO",
          "type": "address"
        }
      ],
      "name": "setCFO",
      "outputs": [],
      "stateMutability": "nonpayable",
      "type": "function"
    },
    {
      "inputs": [
        {
          "internalType": "address",
          "name": "_newCOO",
          "type": "address"
        }
      ],
      "name": "setCOO",
      "outputs": [],
      "stateMutability": "nonpayable",
      "type": "function"
    },
    {
      "inputs": [
        {
          "internalType": "address",
          "name": "_contractAddress",
          "type": "address"
        }
      ],
      "name": "setMetadataAddress",
      "outputs": [],
      "stateMutability": "nonpayable",
      "type": "function"
    },
    {
      "inputs": [
        {
          "internalType": "address",
          "name": "_address",
          "type": "address"
        }
      ],
      "name": "setSaleAuctionAddress",
      "outputs": [],
      "stateMutability": "nonpayable",
      "type": "function"
    },
    {
      "inputs": [
        {
          "internalType": "uint256",
          "name": "_champId",
          "type": "uint256"
        },
        {
          "internalType": "string",
          "name": "_ticker",
          "type": "string"
        },
        {
          "internalType": "string",
          "name": "_avgPrice",
          "type": "string"
        },
        {
          "internalType": "string",
          "name": "_transactQty",
          "type": "string"
        }
      ],
      "name": "setlogTrade",
      "outputs": [],
      "stateMutability": "nonpayable",
      "type": "function"
    },
    {
      "inputs": [
        {
          "internalType": "bytes4",
          "name": "_interfaceID",
          "type": "bytes4"
        }
      ],
      "name": "supportsInterface",
      "outputs": [
        {
          "internalType": "bool",
          "name": "",
          "type": "bool"
        }
      ],
      "stateMutability": "view",
      "type": "function"
    },
    {
      "inputs": [],
      "name": "symbol",
      "outputs": [
        {
          "internalType": "string",
          "name": "",
          "type": "string"
        }
      ],
      "stateMutability": "view",
      "type": "function"
    },
    {
      "inputs": [
        {
          "internalType": "uint256",
          "name": "_tokenId",
          "type": "uint256"
        },
        {
          "internalType": "string",
          "name": "_preferredTransport",
          "type": "string"
        }
      ],
      "name": "tokenMetadata",
      "outputs": [
        {
          "internalType": "string",
          "name": "infoUrl",
          "type": "string"
        }
      ],
      "stateMutability": "view",
      "type": "function"
    },
    {
      "inputs": [
        {
          "internalType": "address",
          "name": "_owner",
          "type": "address"
        }
      ],
      "name": "tokensOfOwner",
      "outputs": [
        {
          "internalType": "uint256[]",
          "name": "ownerTokens",
          "type": "uint256[]"
        }
      ],
      "stateMutability": "view",
      "type": "function"
    },
    {
      "inputs": [],
      "name": "totalSupply",
      "outputs": [
        {
          "internalType": "uint256",
          "name": "",
          "type": "uint256"
        }
      ],
      "stateMutability": "view",
      "type": "function"
    },
    {
      "inputs": [
        {
          "internalType": "uint256",
          "name": "",
          "type": "uint256"
        }
      ],
      "name": "traderAddress",
      "outputs": [
        {
          "internalType": "address",
          "name": "",
          "type": "address"
        }
      ],
      "stateMutability": "view",
      "type": "function"
    },
    {
      "inputs": [
        {
          "internalType": "address",
          "name": "_to",
          "type": "address"
        },
        {
          "internalType": "uint256",
          "name": "_tokenId",
          "type": "uint256"
        }
      ],
      "name": "transfer",
      "outputs": [],
      "stateMutability": "nonpayable",
      "type": "function"
    },
    {
      "inputs": [
        {
          "internalType": "address",
          "name": "_from",
          "type": "address"
        },
        {
          "internalType": "address",
          "name": "_to",
          "type": "address"
        },
        {
          "internalType": "uint256",
          "name": "_tokenId",
          "type": "uint256"
        }
      ],
      "name": "transferFrom",
      "outputs": [],
      "stateMutability": "nonpayable",
      "type": "function"
    },
    {
      "inputs": [],
      "name": "withdrawAuctionBalances",
      "outputs": [],
      "stateMutability": "nonpayable",
      "type": "function"
    },
    {
      "inputs": [
        {
          "internalType": "address",
          "name": "_v2Address",
          "type": "address"
        }
      ],
      "name": "setNewAddress",
      "outputs": [],
      "stateMutability": "nonpayable",
      "type": "function"
    },
    {
      "inputs": [
        {
          "internalType": "uint32",
          "name": "_champId",
          "type": "uint32"
        }
      ],
      "name": "getChamp",
      "outputs": [
        {
          "internalType": "string",
          "name": "tradeLog",
          "type": "string"
        },
        {
          "internalType": "uint64",
          "name": "birthTime",
          "type": "uint64"
        },
        {
          "internalType": "string",
          "name": "philosophy",
          "type": "string"
        },
        {
          "internalType": "uint32",
          "name": "totalTransactionQty",
          "type": "uint32"
        },
        {
          "internalType": "address",
          "name": "trader",
          "type": "address"
        }
      ],
      "stateMutability": "view",
      "type": "function"
    },
    {
      "inputs": [],
      "name": "unpause",
      "outputs": [],
      "stateMutability": "nonpayable",
      "type": "function"
    },
    {
      "inputs": [],
      "name": "withdrawBalance",
      "outputs": [],
      "stateMutability": "nonpayable",
      "type": "function"
    }
  ],
  "bytecode": "0x60806040526000600460006101000a81548160ff02191690831515021790555066071afd498d0000600c556000600d553480156200003c57600080fd5b506001600460006101000a81548160ff021916908315150217905550336000806101000a81548173ffffffffffffffffffffffffffffffffffffffff021916908373ffffffffffffffffffffffffffffffffffffffff16021790555033600260006101000a81548173ffffffffffffffffffffffffffffffffffffffff021916908373ffffffffffffffffffffffffffffffffffffffff160217905550620000fc604051806020016040528060008152506000806200010360201b60201c565b5062000737565b600080600580549050905060006040518060c001604052806040518060200160405280600081525081526020018781526020014267ffffffffffffffff168152602001838152602001600063ffffffff1681526020018573ffffffffffffffffffffffffffffffffffffffff16815250905060058190806001815401808255809150506001900390600052602060002090600502016000909190919091506000820151816000019080519060200190620001bf92919062000486565b506020820151816001019080519060200190620001de92919062000486565b5060408201518160020160006101000a81548167ffffffffffffffff021916908367ffffffffffffffff1602179055506060820151816003015560808201518160040160006101000a81548163ffffffff021916908363ffffffff16021790555060a08201518160040160046101000a81548173ffffffffffffffffffffffffffffffffffffffff021916908373ffffffffffffffffffffffffffffffffffffffff16021790555050508373ffffffffffffffffffffffffffffffffffffffff168573ffffffffffffffffffffffffffffffffffffffff167f722aea23a553d0c4b25addc860f95b66b7b85367e7b3df20dafaf05eb22926ab848460200151604051620002ed929190620005f5565b60405180910390a362000309600086846200031560201b60201c565b81925050509392505050565b600760008373ffffffffffffffffffffffffffffffffffffffff1673ffffffffffffffffffffffffffffffffffffffff1681526020019081526020016000206000815480929190620003679062000658565b9190505550816006600083815260200190815260200160002060006101000a81548173ffffffffffffffffffffffffffffffffffffffff021916908373ffffffffffffffffffffffffffffffffffffffff160217905550600073ffffffffffffffffffffffffffffffffffffffff168373ffffffffffffffffffffffffffffffffffffffff16146200048157600760008473ffffffffffffffffffffffffffffffffffffffff1673ffffffffffffffffffffffffffffffffffffffff16815260200190815260200160002060008154809291906200044590620006a5565b91905055506008600082815260200190815260200160002060006101000a81549073ffffffffffffffffffffffffffffffffffffffff02191690555b505050565b828054620004949062000702565b90600052602060002090601f016020900481019282620004b8576000855562000504565b82601f10620004d357805160ff191683800117855562000504565b8280016001018555821562000504579182015b8281111562000503578251825591602001919060010190620004e6565b5b50905062000513919062000517565b5090565b5b808211156200053257600081600090555060010162000518565b5090565b6000819050919050565b6200054b8162000536565b82525050565b600081519050919050565b600082825260208201905092915050565b60005b838110156200058d57808201518184015260208101905062000570565b838111156200059d576000848401525b50505050565b6000601f19601f8301169050919050565b6000620005c18262000551565b620005cd81856200055c565b9350620005df8185602086016200056d565b620005ea81620005a3565b840191505092915050565b60006040820190506200060c600083018562000540565b8181036020830152620006208184620005b4565b90509392505050565b7f4e487b7100000000000000000000000000000000000000000000000000000000600052601160045260246000fd5b6000620006658262000536565b91507fffffffffffffffffffffffffffffffffffffffffffffffffffffffffffffffff82036200069a576200069962000629565b5b600182019050919050565b6000620006b28262000536565b915060008203620006c857620006c762000629565b5b600182039050919050565b7f4e487b7100000000000000000000000000000000000000000000000000000000600052602260045260246000fd5b600060028204905060018216806200071b57607f821691505b602082108103620007315762000730620006d3565b5b50919050565b61451180620007476000396000f3fe6080604052600436106102815760003560e01c80635c975abb1161014f5780638462151c116100c1578063b5bb78fc1161007a578063b5bb78fc146109fa578063b7b0422d14610a37578063bc4006f514610a60578063bf1ca71914610a8b578063e17b25af14610ab4578063f1ca941014610add57610282565b80638462151c146108fc57806391876e571461093957806395d89b4114610950578063a117251b1461097b578063a9059cbb146109a6578063b047fb50146109cf57610282565b80636fbde40d116101135780636fbde40d146107ee57806370a0823114610817578063715879881461085457806379ee23f01461087d57806382afd23b146108a85780638456cb59146108e557610282565b80635c975abb146107195780635fd8c710146107445780636352211e1461075b578063680eba27146107985780636af04a57146107c357610282565b806323b872dd116101f35780633e444f8b116101ac5780633e444f8b146105f95780633f4ba83a1461063657806343490e601461064d5780634bc464b2146106765780634e0a3379146106b3578063592f5559146106dc57610282565b806323b872dd146104d757806327d7874c146105005780632ba73c15146105295780632ed59d291461055257806336929a131461058f5780633d7d3f5a146105d057610282565b8063095ea7b311610245578063095ea7b3146103d95780630a0f8168146104025780630e583df01461042d57806318160ddd1461045857806319c2f201146104835780631e01446c146104ae57610282565b806301ffc9a7146102de578063038508481461031b5780630519ce79146103465780630560ff441461037157806306fdde03146103ae57610282565b5b600a60009054906101000a900473ffffffffffffffffffffffffffffffffffffffff1673ffffffffffffffffffffffffffffffffffffffff163373ffffffffffffffffffffffffffffffffffffffff16146102dc57600080fd5b005b3480156102ea57600080fd5b50610305600480360381019061030091906132cd565b610b08565b6040516103129190613315565b60405180910390f35b34801561032757600080fd5b50610330610d0c565b60405161033d91906133af565b60405180910390f35b34801561035257600080fd5b5061035b610d32565b60405161036891906133eb565b60405180910390f35b34801561037d57600080fd5b5061039860048036038101906103939190613582565b610d58565b6040516103a59190613666565b60405180910390f35b3480156103ba57600080fd5b506103c3610e1c565b6040516103d09190613666565b60405180910390f35b3480156103e557600080fd5b5061040060048036038101906103fb91906136c6565b610e55565b005b34801561040e57600080fd5b50610417610ecb565b6040516104249190613715565b60405180910390f35b34801561043957600080fd5b50610442610eef565b60405161044f919061373f565b60405180910390f35b34801561046457600080fd5b5061046d610efa565b60405161047a919061373f565b60405180910390f35b34801561048f57600080fd5b50610498610f13565b6040516104a5919061373f565b60405180910390f35b3480156104ba57600080fd5b506104d560048036038101906104d0919061375a565b610f1a565b005b3480156104e357600080fd5b506104fe60048036038101906104f99190613787565b610f7e565b005b34801561050c57600080fd5b50610527600480360381019061052291906137da565b61103f565b005b34801561053557600080fd5b50610550600480360381019061054b91906137da565b611113565b005b34801561055e57600080fd5b506105796004803603810190610574919061375a565b6111e8565b6040516105869190613666565b60405180910390f35b34801561059b57600080fd5b506105b660048036038101906105b19190613843565b6112b8565b6040516105c79594939291906138a2565b60405180910390f35b3480156105dc57600080fd5b506105f760048036038101906105f29190613903565b61146e565b005b34801561060557600080fd5b50610620600480360381019061061b919061375a565b611574565b60405161062d9190613715565b60405180910390f35b34801561064257600080fd5b5061064b6115a7565b005b34801561065957600080fd5b50610674600480360381019061066f919061396a565b6116d8565b005b34801561068257600080fd5b5061069d6004803603810190610698919061375a565b61183a565b6040516106aa9190613715565b60405180910390f35b3480156106bf57600080fd5b506106da60048036038101906106d591906137da565b61186d565b005b3480156106e857600080fd5b5061070360048036038101906106fe919061375a565b611942565b6040516107109190613715565b60405180910390f35b34801561072557600080fd5b5061072e611975565b60405161073b9190613315565b60405180910390f35b34801561075057600080fd5b50610759611988565b005b34801561076757600080fd5b50610782600480360381019061077d919061375a565b611a88565b60405161078f9190613715565b60405180910390f35b3480156107a457600080fd5b506107ad611afe565b6040516107ba919061373f565b60405180910390f35b3480156107cf57600080fd5b506107d8611b04565b6040516107e59190613715565b60405180910390f35b3480156107fa57600080fd5b50610815600480360381019061081091906137da565b611b2a565b005b34801561082357600080fd5b5061083e600480360381019061083991906137da565b611c44565b60405161084b919061373f565b60405180910390f35b34801561086057600080fd5b5061087b600480360381019061087691906137da565b611c8d565b005b34801561088957600080fd5b50610892611d79565b60405161089f919061373f565b60405180910390f35b3480156108b457600080fd5b506108cf60048036038101906108ca919061375a565b611d7f565b6040516108dc9190613315565b60405180910390f35b3480156108f157600080fd5b506108fa611dc7565b005b34801561090857600080fd5b50610923600480360381019061091e91906137da565b611f06565b6040516109309190613a84565b60405180910390f35b34801561094557600080fd5b5061094e61208d565b005b34801561095c57600080fd5b50610965612219565b6040516109729190613666565b60405180910390f35b34801561098757600080fd5b50610990612252565b60405161099d919061373f565b60405180910390f35b3480156109b257600080fd5b506109cd60048036038101906109c891906136c6565b612258565b005b3480156109db57600080fd5b506109e461239a565b6040516109f19190613715565b60405180910390f35b348015610a0657600080fd5b50610a216004803603810190610a1c919061375a565b6123c0565b604051610a2e9190613715565b60405180910390f35b348015610a4357600080fd5b50610a5e6004803603810190610a59919061375a565b6123f3565b005b348015610a6c57600080fd5b50610a7561247c565b604051610a829190613ac7565b60405180910390f35b348015610a9757600080fd5b50610ab26004803603810190610aad9190613ae2565b6124a2565b005b348015610ac057600080fd5b50610adb6004803603810190610ad691906137da565b6127bd565b005b348015610ae957600080fd5b50610af2612859565b604051610aff919061373f565b60405180910390f35b60007f01ffc9a7a5cef8baa21ed3c5c0d7e23accb804b619e9333b597f47a0d84076e27bffffffffffffffffffffffffffffffffffffffffffffffffffffffff1916827bffffffffffffffffffffffffffffffffffffffffffffffffffffffff19161480610d0557507f0560ff44c470b66135b184f41c47840de0a42f8d70ee772ca647210e9eb3c8fd7f8462151cfcc0f257319f78db464014651918f3905b3d4bdab48d3f4618c542c17f23b872dd7302113369cda2901243429419bec145408fa8b352b3dd92b66c680b7fa9059cbb2ab09eb219583f4a59a5d0623ade346d962bcd4e46b11da047c9049b7f095ea7b334ae44009aa867bfb386f5c3b4b443ac6f0ee573fa91c4608fbadfba7f6352211e6566aa027e75ac9dbf2423197fbd9b82b9d981a3ab367d355866aa1c7f70a08231b98ef4ca268c9cc3f6b4590e4bfec28280db06bb5d45e689f2a360be7f18160ddd7f15c72528c2f94fd8dfe3c8d5aa26e2c50c7d81f4bc7bee8d4b79327f95d89b41e2f5f391a79ec54e9d87c79d6e777c63e32c28da95b4e9e4a79250ec7f06fdde0383f15d582d1a74511486c9ddf862a882fb7904b3d9fe9b8b8e58a7961818181818181818187bffffffffffffffffffffffffffffffffffffffffffffffffffffffff1916827bffffffffffffffffffffffffffffffffffffffffffffffffffffffff1916145b9050919050565b600a60009054906101000a900473ffffffffffffffffffffffffffffffffffffffff1681565b600160009054906101000a900473ffffffffffffffffffffffffffffffffffffffff1681565b6060610d6261319c565b6000600b60009054906101000a900473ffffffffffffffffffffffffffffffffffffffff1673ffffffffffffffffffffffffffffffffffffffff1663a574cea4866040518263ffffffff1660e01b8152600401610dbf919061373f565b60a060405180830381865afa158015610ddc573d6000803e3d6000fd5b505050506040513d601f19601f82011682018060405250810190610e009190613c9e565b8092508193505050610e12828261285f565b9250505092915050565b6040518060400160405280600b81526020017f4368616d7054726164657200000000000000000000000000000000000000000081525081565b600460009054906101000a900460ff1615610e6f57600080fd5b610e7933826128d5565b610e8257600080fd5b610e8c8183612941565b7f8c5be1e5ebec7d5bd14f71427d1e84f3dd0314c0f7b2291e5b200ac8c7c3b925338383604051610ebf93929190613cde565b60405180910390a15050565b60008054906101000a900473ffffffffffffffffffffffffffffffffffffffff1681565b662386f26fc1000081565b60006001600580549050610f0e9190613d44565b905090565b6201518081565b600260009054906101000a900473ffffffffffffffffffffffffffffffffffffffff1673ffffffffffffffffffffffffffffffffffffffff163373ffffffffffffffffffffffffffffffffffffffff1614610f7457600080fd5b80600c8190555050565b600460009054906101000a900460ff1615610f9857600080fd5b600073ffffffffffffffffffffffffffffffffffffffff168273ffffffffffffffffffffffffffffffffffffffff1603610fd157600080fd5b3073ffffffffffffffffffffffffffffffffffffffff168273ffffffffffffffffffffffffffffffffffffffff160361100957600080fd5b6110133382612997565b61101c57600080fd5b61102683826128d5565b61102f57600080fd5b61103a838383612a03565b505050565b60008054906101000a900473ffffffffffffffffffffffffffffffffffffffff1673ffffffffffffffffffffffffffffffffffffffff163373ffffffffffffffffffffffffffffffffffffffff161461109757600080fd5b600073ffffffffffffffffffffffffffffffffffffffff168173ffffffffffffffffffffffffffffffffffffffff16036110d057600080fd5b806000806101000a81548173ffffffffffffffffffffffffffffffffffffffff021916908373ffffffffffffffffffffffffffffffffffffffff16021790555050565b60008054906101000a900473ffffffffffffffffffffffffffffffffffffffff1673ffffffffffffffffffffffffffffffffffffffff163373ffffffffffffffffffffffffffffffffffffffff161461116b57600080fd5b600073ffffffffffffffffffffffffffffffffffffffff168173ffffffffffffffffffffffffffffffffffffffff16036111a457600080fd5b80600260006101000a81548173ffffffffffffffffffffffffffffffffffffffff021916908373ffffffffffffffffffffffffffffffffffffffff16021790555050565b60606111f43383612b6f565b6111fd57600080fd5b60006005838154811061121357611212613d78565b5b9060005260206000209060050201905080600001805461123290613dd6565b80601f016020809104026020016040519081016040528092919081815260200182805461125e90613dd6565b80156112ab5780601f10611280576101008083540402835291602001916112ab565b820191906000526020600020905b81548152906001019060200180831161128e57829003601f168201915b5050505050915050919050565b606060006060600080600060058763ffffffff16815481106112dd576112dc613d78565b5b906000526020600020906005020190508060000180546112fc90613dd6565b80601f016020809104026020016040519081016040528092919081815260200182805461132890613dd6565b80156113755780601f1061134a57610100808354040283529160200191611375565b820191906000526020600020905b81548152906001019060200180831161135857829003601f168201915b505050505095508060020160009054906101000a900467ffffffffffffffff1694508060010180546113a690613dd6565b80601f01602080910402602001604051908101604052809291908181526020018280546113d290613dd6565b801561141f5780601f106113f45761010080835404028352916020019161141f565b820191906000526020600020905b81548152906001019060200180831161140257829003601f168201915b505050505093508060040160009054906101000a900463ffffffff1692508060040160049054906101000a900473ffffffffffffffffffffffffffffffffffffffff1691505091939590929450565b600460009054906101000a900460ff161561148857600080fd5b61149233856128d5565b61149b57600080fd5b6114a484611d7f565b6114ad57600080fd5b6114d984600a60009054906101000a900473ffffffffffffffffffffffffffffffffffffffff16612941565b600a60009054906101000a900473ffffffffffffffffffffffffffffffffffffffff1673ffffffffffffffffffffffffffffffffffffffff166327ebe40a85858585336040518663ffffffff1660e01b815260040161153c959493929190613e07565b600060405180830381600087803b15801561155657600080fd5b505af115801561156a573d6000803e3d6000fd5b5050505050505050565b60066020528060005260406000206000915054906101000a900473ffffffffffffffffffffffffffffffffffffffff1681565b60008054906101000a900473ffffffffffffffffffffffffffffffffffffffff1673ffffffffffffffffffffffffffffffffffffffff163373ffffffffffffffffffffffffffffffffffffffff16146115ff57600080fd5b600460009054906101000a900460ff1661161857600080fd5b600073ffffffffffffffffffffffffffffffffffffffff16600a60009054906101000a900473ffffffffffffffffffffffffffffffffffffffff1673ffffffffffffffffffffffffffffffffffffffff160361167357600080fd5b600073ffffffffffffffffffffffffffffffffffffffff16600f60009054906101000a900473ffffffffffffffffffffffffffffffffffffffff1673ffffffffffffffffffffffffffffffffffffffff16146116ce57600080fd5b6116d6612ba5565b565b600260009054906101000a900473ffffffffffffffffffffffffffffffffffffffff1673ffffffffffffffffffffffffffffffffffffffff163373ffffffffffffffffffffffffffffffffffffffff161461173257600080fd5b61afc8600e541061174257600080fd5b600061174f833084612c33565b905061177d81600a60009054906101000a900473ffffffffffffffffffffffffffffffffffffffff16612941565b600a60009054906101000a900473ffffffffffffffffffffffffffffffffffffffff1673ffffffffffffffffffffffffffffffffffffffff166327ebe40a826117c4612e37565b600062015180306040518663ffffffff1660e01b81526004016117eb959493929190613e95565b600060405180830381600087803b15801561180557600080fd5b505af1158015611819573d6000803e3d6000fd5b50505050600e600081548092919061183090613ee8565b9190505550505050565b60036020528060005260406000206000915054906101000a900473ffffffffffffffffffffffffffffffffffffffff1681565b60008054906101000a900473ffffffffffffffffffffffffffffffffffffffff1673ffffffffffffffffffffffffffffffffffffffff163373ffffffffffffffffffffffffffffffffffffffff16146118c557600080fd5b600073ffffffffffffffffffffffffffffffffffffffff168173ffffffffffffffffffffffffffffffffffffffff16036118fe57600080fd5b80600160006101000a81548173ffffffffffffffffffffffffffffffffffffffff021916908373ffffffffffffffffffffffffffffffffffffffff16021790555050565b60086020528060005260406000206000915054906101000a900473ffffffffffffffffffffffffffffffffffffffff1681565b600460009054906101000a900460ff1681565b600160009054906101000a900473ffffffffffffffffffffffffffffffffffffffff1673ffffffffffffffffffffffffffffffffffffffff163373ffffffffffffffffffffffffffffffffffffffff16146119e257600080fd5b60004790506000600c546001600d546119fb9190613f30565b611a059190613f86565b905080821115611a8457600160009054906101000a900473ffffffffffffffffffffffffffffffffffffffff1673ffffffffffffffffffffffffffffffffffffffff166108fc8284611a579190613d44565b9081150290604051600060405180830381858888f19350505050158015611a82573d6000803e3d6000fd5b505b5050565b60006006600083815260200190815260200160002060009054906101000a900473ffffffffffffffffffffffffffffffffffffffff169050600073ffffffffffffffffffffffffffffffffffffffff168173ffffffffffffffffffffffffffffffffffffffff1603611af957600080fd5b919050565b61afc881565b600f60009054906101000a900473ffffffffffffffffffffffffffffffffffffffff1681565b60008054906101000a900473ffffffffffffffffffffffffffffffffffffffff1673ffffffffffffffffffffffffffffffffffffffff163373ffffffffffffffffffffffffffffffffffffffff1614611b8257600080fd5b60008190508073ffffffffffffffffffffffffffffffffffffffff166385b861886040518163ffffffff1660e01b8152600401602060405180830381865afa158015611bd2573d6000803e3d6000fd5b505050506040513d601f19601f82011682018060405250810190611bf6919061400c565b611bff57600080fd5b80600a60006101000a81548173ffffffffffffffffffffffffffffffffffffffff021916908373ffffffffffffffffffffffffffffffffffffffff1602179055505050565b6000600760008373ffffffffffffffffffffffffffffffffffffffff1673ffffffffffffffffffffffffffffffffffffffff168152602001908152602001600020549050919050565b60008054906101000a900473ffffffffffffffffffffffffffffffffffffffff1673ffffffffffffffffffffffffffffffffffffffff163373ffffffffffffffffffffffffffffffffffffffff1614611ce557600080fd5b600460009054906101000a900460ff16611cfe57600080fd5b80600f60006101000a81548173ffffffffffffffffffffffffffffffffffffffff021916908373ffffffffffffffffffffffffffffffffffffffff1602179055507f450db8da6efbe9c22f2347f7c2021231df1fc58d3ae9a2fa75d39fa44619930581604051611d6e9190613715565b60405180910390a150565b600d5481565b60008060058381548110611d9657611d95613d78565b5b906000526020600020906005020160040160009054906101000a900463ffffffff1663ffffffff1614159050919050565b600260009054906101000a900473ffffffffffffffffffffffffffffffffffffffff1673ffffffffffffffffffffffffffffffffffffffff163373ffffffffffffffffffffffffffffffffffffffff161480611e6e575060008054906101000a900473ffffffffffffffffffffffffffffffffffffffff1673ffffffffffffffffffffffffffffffffffffffff163373ffffffffffffffffffffffffffffffffffffffff16145b80611ec65750600160009054906101000a900473ffffffffffffffffffffffffffffffffffffffff1673ffffffffffffffffffffffffffffffffffffffff163373ffffffffffffffffffffffffffffffffffffffff16145b611ecf57600080fd5b600460009054906101000a900460ff1615611ee957600080fd5b6001600460006101000a81548160ff021916908315150217905550565b60606000611f1383611c44565b905060008103611f6f57600067ffffffffffffffff811115611f3857611f37613457565b5b604051908082528060200260200182016040528015611f665781602001602082028036833780820191505090505b50915050612088565b60008167ffffffffffffffff811115611f8b57611f8a613457565b5b604051908082528060200260200182016040528015611fb95781602001602082028036833780820191505090505b5090506000611fc6610efa565b9050600080600190505b82811161207f578673ffffffffffffffffffffffffffffffffffffffff166006600083815260200190815260200160002060009054906101000a900473ffffffffffffffffffffffffffffffffffffffff1673ffffffffffffffffffffffffffffffffffffffff160361206c578084838151811061205157612050613d78565b5b602002602001018181525050818061206890613ee8565b9250505b808061207790613ee8565b915050611fd0565b83955050505050505b919050565b600260009054906101000a900473ffffffffffffffffffffffffffffffffffffffff1673ffffffffffffffffffffffffffffffffffffffff163373ffffffffffffffffffffffffffffffffffffffff161480612134575060008054906101000a900473ffffffffffffffffffffffffffffffffffffffff1673ffffffffffffffffffffffffffffffffffffffff163373ffffffffffffffffffffffffffffffffffffffff16145b8061218c5750600160009054906101000a900473ffffffffffffffffffffffffffffffffffffffff1673ffffffffffffffffffffffffffffffffffffffff163373ffffffffffffffffffffffffffffffffffffffff16145b61219557600080fd5b600a60009054906101000a900473ffffffffffffffffffffffffffffffffffffffff1673ffffffffffffffffffffffffffffffffffffffff16635fd8c7106040518163ffffffff1660e01b8152600401600060405180830381600087803b1580156121ff57600080fd5b505af1158015612213573d6000803e3d6000fd5b50505050565b6040518060400160405280600281526020017f435400000000000000000000000000000000000000000000000000000000000081525081565b600c5481565b600460009054906101000a900460ff161561227257600080fd5b600073ffffffffffffffffffffffffffffffffffffffff168273ffffffffffffffffffffffffffffffffffffffff16036122ab57600080fd5b3073ffffffffffffffffffffffffffffffffffffffff168273ffffffffffffffffffffffffffffffffffffffff16036122e357600080fd5b600a60009054906101000a900473ffffffffffffffffffffffffffffffffffffffff1673ffffffffffffffffffffffffffffffffffffffff168273ffffffffffffffffffffffffffffffffffffffff160361233d57600080fd5b61234733826128d5565b61235057600080fd5b61235b338383612a03565b7fddf252ad1be2c89b69c2b068fc378daa952ba7f163c4a11628f55a4df523b3ef33838360405161238e93929190613cde565b60405180910390a15050565b600260009054906101000a900473ffffffffffffffffffffffffffffffffffffffff1681565b60096020528060005260406000206000915054906101000a900473ffffffffffffffffffffffffffffffffffffffff1681565b6123fd3382612f29565b61240657600080fd5b60006005828154811061241c5761241b613d78565b5b90600052602060002090600502019050604051806020016040528060008152508160000190805190602001906124539291906131be565b5060008160040160006101000a81548163ffffffff021916908363ffffffff1602179055505050565b600b60009054906101000a900473ffffffffffffffffffffffffffffffffffffffff1681565b600460009054906101000a900460ff16156124bc57600080fd5b6124c63385612f29565b6124cf57600080fd5b6000600585815481106124e5576124e4613d78565b5b9060005260206000209060050201905060008160020160009054906101000a900467ffffffffffffffff1667ffffffffffffffff160361252457600080fd5b60006040518060400160405280600181526020017f7b000000000000000000000000000000000000000000000000000000000000008152506040518060400160405280600781526020017f7469636b65723a00000000000000000000000000000000000000000000000000815250866040518060400160405280600b81526020017f2c6176675f70726963653a000000000000000000000000000000000000000000815250876040518060400160405280600e81526020017f2c7472616e736163745f7174793a000000000000000000000000000000000000815250886040518060400160405280600b81526020017f2c74696d657374616d703a00000000000000000000000000000000000000000081525061264042612f95565b6040518060400160405280600181526020017f7d0000000000000000000000000000000000000000000000000000000000000081525060405160200161268f9a99989796959493929190614080565b604051602081830303815290604052905060006126ab87611d7f565b905080156126f55782600001826040516020016126c99291906141c6565b6040516020818303038152906040528360000190805190602001906126ef9291906131be565b50612729565b8183600001908051906020019061270d9291906131be565b506001600d60008282546127219190613f30565b925050819055505b60018360040160008282829054906101000a900463ffffffff1661274d91906141f9565b92506101000a81548163ffffffff021916908363ffffffff1602179055503373ffffffffffffffffffffffffffffffffffffffff166108fc600c549081150290604051600060405180830381858888f193505050501580156127b3573d6000803e3d6000fd5b5050505050505050565b60008054906101000a900473ffffffffffffffffffffffffffffffffffffffff1673ffffffffffffffffffffffffffffffffffffffff163373ffffffffffffffffffffffffffffffffffffffff161461281557600080fd5b80600b60006101000a81548173ffffffffffffffffffffffffffffffffffffffff021916908373ffffffffffffffffffffffffffffffffffffffff16021790555050565b600e5481565b606060008267ffffffffffffffff81111561287d5761287c613457565b5b6040519080825280601f01601f1916602001820160405280156128af5781602001600182028036833780820191505090505b5090506000806020830191508590506128c982828761311d565b82935050505092915050565b60008273ffffffffffffffffffffffffffffffffffffffff166006600084815260200190815260200160002060009054906101000a900473ffffffffffffffffffffffffffffffffffffffff1673ffffffffffffffffffffffffffffffffffffffff1614905092915050565b806008600084815260200190815260200160002060006101000a81548173ffffffffffffffffffffffffffffffffffffffff021916908373ffffffffffffffffffffffffffffffffffffffff1602179055505050565b60008273ffffffffffffffffffffffffffffffffffffffff166008600084815260200190815260200160002060009054906101000a900473ffffffffffffffffffffffffffffffffffffffff1673ffffffffffffffffffffffffffffffffffffffff1614905092915050565b600760008373ffffffffffffffffffffffffffffffffffffffff1673ffffffffffffffffffffffffffffffffffffffff1681526020019081526020016000206000815480929190612a5390613ee8565b9190505550816006600083815260200190815260200160002060006101000a81548173ffffffffffffffffffffffffffffffffffffffff021916908373ffffffffffffffffffffffffffffffffffffffff160217905550600073ffffffffffffffffffffffffffffffffffffffff168373ffffffffffffffffffffffffffffffffffffffff1614612b6a57600760008473ffffffffffffffffffffffffffffffffffffffff1673ffffffffffffffffffffffffffffffffffffffff1681526020019081526020016000206000815480929190612b2e90614233565b91905055506008600082815260200190815260200160002060006101000a81549073ffffffffffffffffffffffffffffffffffffffff02191690555b505050565b60008060009050612b808484612f29565b80612b915750612b9084846128d5565b5b15612b9b57600190505b8091505092915050565b60008054906101000a900473ffffffffffffffffffffffffffffffffffffffff1673ffffffffffffffffffffffffffffffffffffffff163373ffffffffffffffffffffffffffffffffffffffff1614612bfd57600080fd5b600460009054906101000a900460ff16612c1657600080fd5b6000600460006101000a81548160ff021916908315150217905550565b600080600580549050905060006040518060c001604052806040518060200160405280600081525081526020018781526020014267ffffffffffffffff168152602001838152602001600063ffffffff1681526020018573ffffffffffffffffffffffffffffffffffffffff16815250905060058190806001815401808255809150506001900390600052602060002090600502016000909190919091506000820151816000019080519060200190612ced9291906131be565b506020820151816001019080519060200190612d0a9291906131be565b5060408201518160020160006101000a81548167ffffffffffffffff021916908367ffffffffffffffff1602179055506060820151816003015560808201518160040160006101000a81548163ffffffff021916908363ffffffff16021790555060a08201518160040160046101000a81548173ffffffffffffffffffffffffffffffffffffffff021916908373ffffffffffffffffffffffffffffffffffffffff16021790555050508373ffffffffffffffffffffffffffffffffffffffff168573ffffffffffffffffffffffffffffffffffffffff167f722aea23a553d0c4b25addc860f95b66b7b85367e7b3df20dafaf05eb22926ab848460200151604051612e1792919061425c565b60405180910390a3612e2b60008684612a03565b81925050509392505050565b600080600a60009054906101000a900473ffffffffffffffffffffffffffffffffffffffff1673ffffffffffffffffffffffffffffffffffffffff1663eac9d94c6040518163ffffffff1660e01b8152600401602060405180830381865afa158015612ea7573d6000803e3d6000fd5b505050506040513d601f19601f82011682018060405250810190612ecb919061428c565b9050806fffffffffffffffffffffffffffffffff168114612eeb57600080fd5b6000600282612efa91906142e8565b82612f059190613f30565b9050662386f26fc10000811015612f2157662386f26fc1000090505b809250505090565b60008273ffffffffffffffffffffffffffffffffffffffff166009600084815260200190815260200160002060009054906101000a900473ffffffffffffffffffffffffffffffffffffffff1673ffffffffffffffffffffffffffffffffffffffff1614905092915050565b606060008203612fdc576040518060400160405280600181526020017f30000000000000000000000000000000000000000000000000000000000000008152509050613118565b600082905060005b6000821461300e578080612ff790613ee8565b915050600a8261300791906142e8565b9150612fe4565b60008167ffffffffffffffff81111561302a57613029613457565b5b6040519080825280601f01601f19166020018201604052801561305c5781602001600182028036833780820191505090505b50905060008290505b600086146131105760018161307a9190613d44565b90506000600a808861308c91906142e8565b6130969190613f86565b876130a19190613d44565b60306130ad9190614326565b905060008160f81b9050808484815181106130cb576130ca613d78565b5b60200101907effffffffffffffffffffffffffffffffffffffffffffffffffffffffffffff1916908160001a905350600a8861310791906142e8565b97505050613065565b819450505050505b919050565b5b6020811061315c57815183526020836131379190613f30565b92506020826131469190613f30565b91506020816131559190613d44565b905061311e565b6000600182602061316d9190613d44565b61010061317a9190614490565b6131849190613d44565b90508019835116818551168181178652505050505050565b6040518060800160405280600490602082028036833780820191505090505090565b8280546131ca90613dd6565b90600052602060002090601f0160209004810192826131ec5760008555613233565b82601f1061320557805160ff1916838001178555613233565b82800160010185558215613233579182015b82811115613232578251825591602001919060010190613217565b5b5090506132409190613244565b5090565b5b8082111561325d576000816000905550600101613245565b5090565b6000604051905090565b600080fd5b600080fd5b60007fffffffff0000000000000000000000000000000000000000000000000000000082169050919050565b6132aa81613275565b81146132b557600080fd5b50565b6000813590506132c7816132a1565b92915050565b6000602082840312156132e3576132e261326b565b5b60006132f1848285016132b8565b91505092915050565b60008115159050919050565b61330f816132fa565b82525050565b600060208201905061332a6000830184613306565b92915050565b600073ffffffffffffffffffffffffffffffffffffffff82169050919050565b6000819050919050565b600061337561337061336b84613330565b613350565b613330565b9050919050565b60006133878261335a565b9050919050565b60006133998261337c565b9050919050565b6133a98161338e565b82525050565b60006020820190506133c460008301846133a0565b92915050565b60006133d582613330565b9050919050565b6133e5816133ca565b82525050565b600060208201905061340060008301846133dc565b92915050565b6000819050919050565b61341981613406565b811461342457600080fd5b50565b60008135905061343681613410565b92915050565b600080fd5b600080fd5b6000601f19601f8301169050919050565b7f4e487b7100000000000000000000000000000000000000000000000000000000600052604160045260246000fd5b61348f82613446565b810181811067ffffffffffffffff821117156134ae576134ad613457565b5b80604052505050565b60006134c1613261565b90506134cd8282613486565b919050565b600067ffffffffffffffff8211156134ed576134ec613457565b5b6134f682613446565b9050602081019050919050565b82818337600083830152505050565b6000613525613520846134d2565b6134b7565b90508281526020810184848401111561354157613540613441565b5b61354c848285613503565b509392505050565b600082601f8301126135695761356861343c565b5b8135613579848260208601613512565b91505092915050565b600080604083850312156135995761359861326b565b5b60006135a785828601613427565b925050602083013567ffffffffffffffff8111156135c8576135c7613270565b5b6135d485828601613554565b9150509250929050565b600081519050919050565b600082825260208201905092915050565b60005b838110156136185780820151818401526020810190506135fd565b83811115613627576000848401525b50505050565b6000613638826135de565b61364281856135e9565b93506136528185602086016135fa565b61365b81613446565b840191505092915050565b60006020820190508181036000830152613680818461362d565b905092915050565b600061369382613330565b9050919050565b6136a381613688565b81146136ae57600080fd5b50565b6000813590506136c08161369a565b92915050565b600080604083850312156136dd576136dc61326b565b5b60006136eb858286016136b1565b92505060206136fc85828601613427565b9150509250929050565b61370f81613688565b82525050565b600060208201905061372a6000830184613706565b92915050565b61373981613406565b82525050565b60006020820190506137546000830184613730565b92915050565b6000602082840312156137705761376f61326b565b5b600061377e84828501613427565b91505092915050565b6000806000606084860312156137a05761379f61326b565b5b60006137ae868287016136b1565b93505060206137bf868287016136b1565b92505060406137d086828701613427565b9150509250925092565b6000602082840312156137f0576137ef61326b565b5b60006137fe848285016136b1565b91505092915050565b600063ffffffff82169050919050565b61382081613807565b811461382b57600080fd5b50565b60008135905061383d81613817565b92915050565b6000602082840312156138595761385861326b565b5b60006138678482850161382e565b91505092915050565b600067ffffffffffffffff82169050919050565b61388d81613870565b82525050565b61389c81613807565b82525050565b600060a08201905081810360008301526138bc818861362d565b90506138cb6020830187613884565b81810360408301526138dd818661362d565b90506138ec6060830185613893565b6138f96080830184613706565b9695505050505050565b6000806000806080858703121561391d5761391c61326b565b5b600061392b87828801613427565b945050602061393c87828801613427565b935050604061394d87828801613427565b925050606061395e87828801613427565b91505092959194509250565b600080604083850312156139815761398061326b565b5b600083013567ffffffffffffffff81111561399f5761399e613270565b5b6139ab85828601613554565b92505060206139bc858286016136b1565b9150509250929050565b600081519050919050565b600082825260208201905092915050565b6000819050602082019050919050565b6139fb81613406565b82525050565b6000613a0d83836139f2565b60208301905092915050565b6000602082019050919050565b6000613a31826139c6565b613a3b81856139d1565b9350613a46836139e2565b8060005b83811015613a77578151613a5e8882613a01565b9750613a6983613a19565b925050600181019050613a4a565b5085935050505092915050565b60006020820190508181036000830152613a9e8184613a26565b905092915050565b6000613ab18261337c565b9050919050565b613ac181613aa6565b82525050565b6000602082019050613adc6000830184613ab8565b92915050565b60008060008060808587031215613afc57613afb61326b565b5b6000613b0a87828801613427565b945050602085013567ffffffffffffffff811115613b2b57613b2a613270565b5b613b3787828801613554565b935050604085013567ffffffffffffffff811115613b5857613b57613270565b5b613b6487828801613554565b925050606085013567ffffffffffffffff811115613b8557613b84613270565b5b613b9187828801613554565b91505092959194509250565b600067ffffffffffffffff821115613bb857613bb7613457565b5b602082029050919050565b600080fd5b6000819050919050565b613bdb81613bc8565b8114613be657600080fd5b50565b600081519050613bf881613bd2565b92915050565b6000613c11613c0c84613b9d565b6134b7565b90508060208402830185811115613c2b57613c2a613bc3565b5b835b81811015613c545780613c408882613be9565b845260208401935050602081019050613c2d565b5050509392505050565b600082601f830112613c7357613c7261343c565b5b6004613c80848285613bfe565b91505092915050565b600081519050613c9881613410565b92915050565b60008060a08385031215613cb557613cb461326b565b5b6000613cc385828601613c5e565b9250506080613cd485828601613c89565b9150509250929050565b6000606082019050613cf36000830186613706565b613d006020830185613706565b613d0d6040830184613730565b949350505050565b7f4e487b7100000000000000000000000000000000000000000000000000000000600052601160045260246000fd5b6000613d4f82613406565b9150613d5a83613406565b925082821015613d6d57613d6c613d15565b5b828203905092915050565b7f4e487b7100000000000000000000000000000000000000000000000000000000600052603260045260246000fd5b7f4e487b7100000000000000000000000000000000000000000000000000000000600052602260045260246000fd5b60006002820490506001821680613dee57607f821691505b602082108103613e0157613e00613da7565b5b50919050565b600060a082019050613e1c6000830188613730565b613e296020830187613730565b613e366040830186613730565b613e436060830185613730565b613e506080830184613706565b9695505050505050565b6000819050919050565b6000613e7f613e7a613e7584613e5a565b613350565b613406565b9050919050565b613e8f81613e64565b82525050565b600060a082019050613eaa6000830188613730565b613eb76020830187613730565b613ec46040830186613e86565b613ed16060830185613730565b613ede6080830184613706565b9695505050505050565b6000613ef382613406565b91507fffffffffffffffffffffffffffffffffffffffffffffffffffffffffffffffff8203613f2557613f24613d15565b5b600182019050919050565b6000613f3b82613406565b9150613f4683613406565b9250827fffffffffffffffffffffffffffffffffffffffffffffffffffffffffffffffff03821115613f7b57613f7a613d15565b5b828201905092915050565b6000613f9182613406565b9150613f9c83613406565b9250817fffffffffffffffffffffffffffffffffffffffffffffffffffffffffffffffff0483118215151615613fd557613fd4613d15565b5b828202905092915050565b613fe9816132fa565b8114613ff457600080fd5b50565b60008151905061400681613fe0565b92915050565b6000602082840312156140225761402161326b565b5b600061403084828501613ff7565b91505092915050565b600081519050919050565b600081905092915050565b600061405a82614039565b6140648185614044565b93506140748185602086016135fa565b80840191505092915050565b600061408c828d61404f565b9150614098828c61404f565b91506140a4828b61404f565b91506140b0828a61404f565b91506140bc828961404f565b91506140c8828861404f565b91506140d4828761404f565b91506140e0828661404f565b91506140ec828561404f565b91506140f8828461404f565b91508190509b9a5050505050505050505050565b60008190508160005260206000209050919050565b6000815461412e81613dd6565b6141388186614044565b94506001821660008114614153576001811461416457614197565b60ff19831686528186019350614197565b61416d8561410c565b60005b8381101561418f57815481890152600182019150602081019050614170565b838801955050505b50505092915050565b7f2c00000000000000000000000000000000000000000000000000000000000000815250565b60006141d28285614121565b91506141dd826141a0565b6001820191506141ed828461404f565b91508190509392505050565b600061420482613807565b915061420f83613807565b92508263ffffffff0382111561422857614227613d15565b5b828201905092915050565b600061423e82613406565b91506000820361425157614250613d15565b5b600182039050919050565b60006040820190506142716000830185613730565b8181036020830152614283818461362d565b90509392505050565b6000602082840312156142a2576142a161326b565b5b60006142b084828501613c89565b91505092915050565b7f4e487b7100000000000000000000000000000000000000000000000000000000600052601260045260246000fd5b60006142f382613406565b91506142fe83613406565b92508261430e5761430d6142b9565b5b828204905092915050565b600060ff82169050919050565b600061433182614319565b915061433c83614319565b92508260ff0382111561435257614351613d15565b5b828201905092915050565b60008160011c9050919050565b6000808291508390505b60018511156143b4578086048111156143905761438f613d15565b5b600185161561439f5780820291505b80810290506143ad8561435d565b9450614374565b94509492505050565b6000826143cd5760019050614489565b816143db5760009050614489565b81600181146143f157600281146143fb5761442a565b6001915050614489565b60ff84111561440d5761440c613d15565b5b8360020a91508482111561442457614423613d15565b5b50614489565b5060208310610133831016604e8410600b841016171561445f5782820a90508381111561445a57614459613d15565b5b614489565b61446c848484600161436a565b9250905081840481111561448357614482613d15565b5b81810290505b9392505050565b600061449b82613406565b91506144a683613406565b92506144d37fffffffffffffffffffffffffffffffffffffffffffffffffffffffffffffffff84846143bd565b90509291505056fea2646970667358221220b3dad4dc454f3b97041fe6752e7e90dc44888f5cf7b291a1184b4c67b36d2fab64736f6c634300080d0033",
  "immutableReferences": {},
  "source": "pragma solidity ^0.8.0;\r\n\r\nimport \"./ChampMinting.sol\";\r\n\r\n/// @title CryptoKitties: Collectible, breedable, and oh-so-adorable cats on the Ethereum blockchain.\r\n/// @author Axiom Zen (https://www.axiomzen.co)\r\n/// @dev The main CryptoKitties contract, keeps track of kittens so they don't wander around and get lost.\r\ncontract ChampCore is ChampMinting {\r\n\r\n    // Set in case the core contract is broken and an upgrade is required\r\n    address public newContractAddress;\r\n\r\n//    /// @notice Creates the main CryptoKitties smart contract instance.\r\n//    function ChampCore() public {\r\n//        // Starts paused.\r\n//        paused = true;\r\n//\r\n//        // the creator of the contract is the initial CEO\r\n//        ceoAddress = msg.sender;\r\n//\r\n//        // the creator of the contract is also the initial COO\r\n//        cooAddress = msg.sender;\r\n//\r\n//        // start with the mythical kitten 0 - so we don't have generation-0 parent issues\r\n////        _createChamp(0, 0, 0, uint256(-1), address(0));\r\n//        _createChamp(\"\", address(0), address(0));\r\n//    }\r\n    constructor() public {\r\n        // Starts paused.\r\n        paused = true;\r\n\r\n        // the creator of the contract is the initial CEO\r\n        ceoAddress = msg.sender;\r\n\r\n        // the creator of the contract is also the initial COO\r\n        cooAddress = msg.sender;\r\n\r\n        // start with the mythical kitten 0 - so we don't have generation-0 parent issues\r\n//        _createChamp(0, 0, 0, uint256(-1), address(0));\r\n        _createChamp(\"\", address(0), address(0));\r\n    }\r\n\r\n    /// @dev Used to mark the smart contract as upgraded, in case there is a serious\r\n    ///  breaking bug. This method does nothing but keep track of the new contract and\r\n    ///  emit a message indicating that the new address is set. It's up to clients of this\r\n    ///  contract to update to the new contract address in that case. (This contract will\r\n    ///  be paused indefinitely if such an upgrade takes place.)\r\n    /// @param _v2Address new address\r\n    function setNewAddress(address _v2Address) external onlyCEO whenPaused {\r\n        // See README.md for updgrade plan\r\n        newContractAddress = _v2Address;\r\n        emit ContractUpgrade(_v2Address);\r\n    }\r\n\r\n    /// @notice No tipping!\r\n    /// @dev Reject all Ether from being sent here, unless it's from one of the\r\n    ///  two auction contracts. (Hopefully, we can prevent user accidents.)\r\n    fallback() external payable {\r\n        require(msg.sender == address(saleAuctionContract));\r\n    }\r\n\r\n    /// @notice Returns all the relevant information about a specific kitty.\r\n    function getChamp(uint32 _champId) external view returns (string memory tradeLog, uint64 birthTime, string memory philosophy, uint32 totalTransactionQty, address trader){\r\n\r\n        ChampTrader storage champ = champTraders[_champId];\r\n        tradeLog = string(champ.tradeLog);\r\n        birthTime = uint64(champ.birthTime);\r\n        philosophy = string(champ.philosophyIpfsHash);\r\n        totalTransactionQty = uint32(champ.totalTransactionQty);\r\n        trader = address(champ.trader);\r\n    }\r\n\r\n    /// @dev Override unpause so it requires all external contract addresses\r\n    ///  to be set before contract can be unpaused. Also, we can't have\r\n    ///  newContractAddress set either, because then the contract was upgraded.\r\n    /// @notice This is public rather than external so we can call super.unpause\r\n    ///  without using an expensive CALL.\r\n    function unpause() public override onlyCEO whenPaused {\r\n        require(address(saleAuctionContract) != address(0));\r\n        require(newContractAddress == address(0));\r\n\r\n        // Actually unpause the contract.\r\n        super.unpause();\r\n    }\r\n\r\n    // @dev Allows the CFO to capture the balance available to the contract.\r\n    function withdrawBalance() external onlyCFO{\r\n        uint256 balance = address(this).balance;\r\n        // Subtract all the currently pregnant kittens we have, plus 1 of margin.\r\n//        uint256 subtractFees = (pregnantKitties + 1) * autoLogFee;\r\n        uint256 subtractFees = (activeChamps + 1) * autoLogFee;\r\n\r\n        if (balance > subtractFees) {\r\n            cfoAddress.transfer(balance - subtractFees);\r\n        }\r\n    }\r\n}",
  "sourcePath": "C:\\Users\\lam\\Documents\\GitHub\\dynamodb_related\\pythonProject\\smart_contract\\contracts\\ChampCore.sol",
  "compiler": {
    "name": "solc",
    "version": "0.8.13+commit.abaa5c0e.Emscripten.clang"
  },
  "schemaVersion": "3.4.7",
  "updatedAt": "2022-05-02T01:57:46.500Z",
  "devdoc": {
    "author": "Axiom Zen (https://www.axiomzen.co)",
    "details": "The main CryptoKitties contract, keeps track of kittens so they don't wander around and get lost.",
    "kind": "dev",
    "methods": {
      "approve(address,uint256)": {
        "details": "Required for ERC-721 compliance.",
        "params": {
          "_to": "The address to be granted transfer approval. Pass address(0) to  clear all approvals.",
          "_tokenId": "The ID of the Kitty that can be transferred if this call succeeds."
        }
      },
      "balanceOf(address)": {
        "details": "Required for ERC-721 compliance",
        "params": {
          "_owner": "The owner address to check."
        }
      },
      "createGen0Auction(string,address)": {
        "details": "Creates a new gen0 kitty with the given genes and  creates an auction for it."
      },
      "createSaleAuction(uint256,uint256,uint256,uint256)": {
        "details": "Put a kitty up for auction.  Does some ownership trickery to create auctions in one tx."
      },
      "ownerOf(uint256)": {
        "details": "Required for ERC-721 compliance."
      },
      "pause()": {
        "details": "Called by any \"C-level\" role to pause the contract. Used only when  a bug or exploit is detected and we need to limit damage."
      },
      "setCEO(address)": {
        "details": "Assigns a new address to act as the CEO. Only available to the current CEO.",
        "params": {
          "_newCEO": "The address of the new CEO"
        }
      },
      "setCFO(address)": {
        "details": "Assigns a new address to act as the CFO. Only available to the current CEO.",
        "params": {
          "_newCFO": "The address of the new CFO"
        }
      },
      "setCOO(address)": {
        "details": "Assigns a new address to act as the COO. Only available to the current CEO.",
        "params": {
          "_newCOO": "The address of the new COO"
        }
      },
      "setMetadataAddress(address)": {
        "details": "Set the address of the sibling contract that tracks metadata.  CEO only."
      },
      "setNewAddress(address)": {
        "details": "Used to mark the smart contract as upgraded, in case there is a serious  breaking bug. This method does nothing but keep track of the new contract and  emit a message indicating that the new address is set. It's up to clients of this  contract to update to the new contract address in that case. (This contract will  be paused indefinitely if such an upgrade takes place.)",
        "params": {
          "_v2Address": "new address"
        }
      },
      "setSaleAuctionAddress(address)": {
        "details": "Sets the reference to the sale auction.",
        "params": {
          "_address": "- Address of sale contract."
        }
      },
      "tokenMetadata(uint256,string)": {
        "params": {
          "_tokenId": "The ID number of the Kitty whose metadata should be returned."
        }
      },
      "tokensOfOwner(address)": {
        "details": "This method MUST NEVER be called by smart contract code. First, it's fairly  expensive (it walks the entire Kitty array looking for cats belonging to owner),  but it also returns a dynamic array, which is only supported for web3 calls, and  not contract-to-contract calls.",
        "params": {
          "_owner": "The owner whose Kitties we are interested in."
        }
      },
      "totalSupply()": {
        "details": "Required for ERC-721 compliance."
      },
      "transfer(address,uint256)": {
        "details": "Required for ERC-721 compliance.",
        "params": {
          "_to": "The address of the recipient, can be a user or contract.",
          "_tokenId": "The ID of the Kitty to transfer."
        }
      },
      "transferFrom(address,address,uint256)": {
        "details": "Required for ERC-721 compliance.",
        "params": {
          "_from": "The address that owns the Kitty to be transfered.",
          "_to": "The address that should take ownership of the Kitty. Can be any address,  including the caller.",
          "_tokenId": "The ID of the Kitty to be transferred."
        }
      },
      "unpause()": {
        "details": "Override unpause so it requires all external contract addresses  to be set before contract can be unpaused. Also, we can't have  newContractAddress set either, because then the contract was upgraded."
      },
      "withdrawAuctionBalances()": {
        "details": "Transfers the balance of the sale auction contract to the KittyCore contract. We use two-step withdrawal to prevent two transfer calls in the auction bid function."
      }
    },
    "title": "CryptoKitties: Collectible, breedable, and oh-so-adorable cats on the Ethereum blockchain.",
    "version": 1
  },
  "userdoc": {
    "kind": "user",
    "methods": {
      "approve(address,uint256)": {
        "notice": "Grant another address the right to transfer a specific Kitty via  transferFrom(). This is the preferred flow for transfering NFTs to contracts."
      },
      "balanceOf(address)": {
        "notice": "Returns the number of Kitties owned by a specific address."
      },
      "getChamp(uint32)": {
        "notice": "Returns all the relevant information about a specific kitty."
      },
      "name()": {
        "notice": "Name and symbol of the non fungible token, as defined in ERC721."
      },
      "ownerOf(uint256)": {
        "notice": "Returns the address currently assigned ownership of a given Kitty."
      },
      "supportsInterface(bytes4)": {
        "notice": "Introspection interface as per ERC-165 (https://github.com/ethereum/EIPs/issues/165).  Returns true for any standardized interfaces implemented by this contract. We implement  ERC-165 (obviously!) and ERC-721."
      },
      "tokenMetadata(uint256,string)": {
        "notice": "Returns a URI pointing to a metadata package for this token conforming to  ERC-721 (https://github.com/ethereum/EIPs/issues/721)"
      },
      "tokensOfOwner(address)": {
        "notice": "Returns a list of all Kitty IDs assigned to an address."
      },
      "totalSupply()": {
        "notice": "Returns the total number of Kitties currently in existence."
      },
      "transfer(address,uint256)": {
        "notice": "Transfers a Kitty to another address. If transferring to a smart  contract be VERY CAREFUL to ensure that it is aware of ERC-721 (or  CryptoKitties specifically) or your Kitty may be lost forever. Seriously."
      },
      "transferFrom(address,address,uint256)": {
        "notice": "Transfer a Kitty owned by another address, for which the calling address  has previously been granted transfer approval by the owner."
      },
      "unpause()": {
        "notice": "This is public rather than external so we can call super.unpause  without using an expensive CALL."
      }
    },
    "version": 1
  }
}