{
  "contractName": "ERC721Metadata",
  "abi": [
    {
      "inputs": [
        {
          "internalType": "uint256",
          "name": "_tokenId",
          "type": "uint256"
        }
      ],
      "name": "getMetadata",
      "outputs": [
        {
          "internalType": "bytes32[4]",
          "name": "buffer",
          "type": "bytes32[4]"
        },
        {
          "internalType": "uint256",
          "name": "count",
          "type": "uint256"
        }
      ],
      "stateMutability": "view",
      "type": "function"
    }
  ],
  "bytecode": "0x608060405234801561001057600080fd5b5061042f806100206000396000f3fe608060405234801561001057600080fd5b506004361061002b5760003560e01c8063a574cea414610030575b600080fd5b61004a600480360381019061004591906102b0565b610061565b6040516100589291906103a1565b60405180910390f35b610069610253565b6000600183036100ba577f48656c6c6f20576f726c6421203a440000000000000000000000000000000000826000600481106100a8576100a76103ca565b5b602002018181525050600f905061024e565b60028303610147577f4920776f756c6420646566696e6974656c792063686f6f73652061206d656469826000600481106100f7576100f66103ca565b5b6020020181815250507f756d206c656e67746820737472696e672e00000000000000000000000000000082600160048110610135576101346103ca565b5b6020020181815250506031905061024d565b6003830361024c577f4c6f72656d20697073756d20646f6c6f722073697420616d65742c206d69206582600060048110610184576101836103ca565b5b6020020181815250507f737420616363756d73616e2064617069627573206175677565206c6f72656d2c826001600481106101c2576101c16103ca565b5b6020020181815250507f2074726973746971756520766573746962756c756d2069642c206c696265726f82600260048110610200576101ff6103ca565b5b6020020181815250507f207375736369706974207661726975732073617069656e20616c697175616d2e8260036004811061023e5761023d6103ca565b5b602002018181525050608090505b5b5b915091565b6040518060800160405280600490602082028036833780820191505090505090565b600080fd5b6000819050919050565b61028d8161027a565b811461029857600080fd5b50565b6000813590506102aa81610284565b92915050565b6000602082840312156102c6576102c5610275565b5b60006102d48482850161029b565b91505092915050565b600060049050919050565b600081905092915050565b6000819050919050565b6000819050919050565b610310816102fd565b82525050565b60006103228383610307565b60208301905092915050565b6000602082019050919050565b610344816102dd565b61034e81846102e8565b9250610359826102f3565b8060005b8381101561038a5781516103718782610316565b965061037c8361032e565b92505060018101905061035d565b505050505050565b61039b8161027a565b82525050565b600060a0820190506103b6600083018561033b565b6103c36080830184610392565b9392505050565b7f4e487b7100000000000000000000000000000000000000000000000000000000600052603260045260246000fdfea2646970667358221220b133ff89c86a2048ab958994ebfb61d33a116ff970483d06fe9fabab1c67a1ab64736f6c634300080d0033",
  "immutableReferences": {},
  "source": "pragma solidity ^0.8.0;\r\n\r\n\r\n/// @title The external contract that is responsible for generating metadata for the kitties,\r\n///  it has one function that will return the data as bytes.\r\ncontract ERC721Metadata {\r\n    /// @dev Given a token Id, returns a byte array that is supposed to be converted into string.\r\n    function getMetadata(uint256 _tokenId) public view returns (bytes32[4] memory buffer, uint256 count) {\r\n        if (_tokenId == 1) {\r\n            buffer[0] = \"Hello World! :D\";\r\n            count = 15;\r\n        } else if (_tokenId == 2) {\r\n            buffer[0] = \"I would definitely choose a medi\";\r\n            buffer[1] = \"um length string.\";\r\n            count = 49;\r\n        } else if (_tokenId == 3) {\r\n            buffer[0] = \"Lorem ipsum dolor sit amet, mi e\";\r\n            buffer[1] = \"st accumsan dapibus augue lorem,\";\r\n            buffer[2] = \" tristique vestibulum id, libero\";\r\n            buffer[3] = \" suscipit varius sapien aliquam.\";\r\n            count = 128;\r\n        }\r\n    }\r\n}\r\n",
  "sourcePath": "C:\\Users\\lam\\Documents\\GitHub\\dynamodb_related\\pythonProject\\smart_contract\\contracts\\ERC721Metadata.sol",
  "compiler": {
    "name": "solc",
    "version": "0.8.13+commit.abaa5c0e.Emscripten.clang"
  },
  "schemaVersion": "3.4.7",
  "updatedAt": "2022-05-02T01:57:46.583Z",
  "devdoc": {
    "kind": "dev",
    "methods": {
      "getMetadata(uint256)": {
        "details": "Given a token Id, returns a byte array that is supposed to be converted into string."
      }
    },
    "title": "The external contract that is responsible for generating metadata for the kitties,  it has one function that will return the data as bytes.",
    "version": 1
  },
  "userdoc": {
    "kind": "user",
    "methods": {},
    "version": 1
  }
}