{
  "contractName": "SaleClockAuction",
  "abi": [
    {
      "inputs": [
        {
          "internalType": "address",
          "name": "_nftAddress",
          "type": "address"
        },
        {
          "internalType": "uint256",
          "name": "_cut",
          "type": "uint256"
        }
      ],
      "stateMutability": "nonpayable",
      "type": "constructor"
    },
    {
      "anonymous": false,
      "inputs": [
        {
          "indexed": false,
          "internalType": "uint256",
          "name": "tokenId",
          "type": "uint256"
        }
      ],
      "name": "AuctionCancelled",
      "type": "event"
    },
    {
      "anonymous": false,
      "inputs": [
        {
          "indexed": false,
          "internalType": "uint256",
          "name": "tokenId",
          "type": "uint256"
        },
        {
          "indexed": false,
          "internalType": "uint256",
          "name": "startingPrice",
          "type": "uint256"
        },
        {
          "indexed": false,
          "internalType": "uint256",
          "name": "endingPrice",
          "type": "uint256"
        },
        {
          "indexed": false,
          "internalType": "uint256",
          "name": "duration",
          "type": "uint256"
        }
      ],
      "name": "AuctionCreated",
      "type": "event"
    },
    {
      "anonymous": false,
      "inputs": [
        {
          "indexed": false,
          "internalType": "uint256",
          "name": "tokenId",
          "type": "uint256"
        },
        {
          "indexed": false,
          "internalType": "uint256",
          "name": "totalPrice",
          "type": "uint256"
        },
        {
          "indexed": false,
          "internalType": "address",
          "name": "winner",
          "type": "address"
        }
      ],
      "name": "AuctionSuccessful",
      "type": "event"
    },
    {
      "anonymous": false,
      "inputs": [],
      "name": "Pause",
      "type": "event"
    },
    {
      "anonymous": false,
      "inputs": [],
      "name": "Unpause",
      "type": "event"
    },
    {
      "inputs": [
        {
          "internalType": "uint256",
          "name": "_tokenId",
          "type": "uint256"
        }
      ],
      "name": "cancelAuction",
      "outputs": [],
      "stateMutability": "nonpayable",
      "type": "function"
    },
    {
      "inputs": [
        {
          "internalType": "uint256",
          "name": "_tokenId",
          "type": "uint256"
        }
      ],
      "name": "cancelAuctionWhenPaused",
      "outputs": [],
      "stateMutability": "nonpayable",
      "type": "function"
    },
    {
      "inputs": [],
      "name": "gen0SaleCount",
      "outputs": [
        {
          "internalType": "uint256",
          "name": "",
          "type": "uint256"
        }
      ],
      "stateMutability": "view",
      "type": "function"
    },
    {
      "inputs": [
        {
          "internalType": "uint256",
          "name": "_tokenId",
          "type": "uint256"
        }
      ],
      "name": "getAuction",
      "outputs": [
        {
          "internalType": "address",
          "name": "seller",
          "type": "address"
        },
        {
          "internalType": "uint256",
          "name": "startingPrice",
          "type": "uint256"
        },
        {
          "internalType": "uint256",
          "name": "endingPrice",
          "type": "uint256"
        },
        {
          "internalType": "uint256",
          "name": "duration",
          "type": "uint256"
        },
        {
          "internalType": "uint256",
          "name": "startedAt",
          "type": "uint256"
        }
      ],
      "stateMutability": "view",
      "type": "function"
    },
    {
      "inputs": [
        {
          "internalType": "uint256",
          "name": "_tokenId",
          "type": "uint256"
        }
      ],
      "name": "getCurrentPrice",
      "outputs": [
        {
          "internalType": "uint256",
          "name": "",
          "type": "uint256"
        }
      ],
      "stateMutability": "view",
      "type": "function"
    },
    {
      "inputs": [],
      "name": "isSaleClockAuction",
      "outputs": [
        {
          "internalType": "bool",
          "name": "",
          "type": "bool"
        }
      ],
      "stateMutability": "view",
      "type": "function"
    },
    {
      "inputs": [
        {
          "internalType": "uint256",
          "name": "",
          "type": "uint256"
        }
      ],
      "name": "lastGen0SalePrices",
      "outputs": [
        {
          "internalType": "uint256",
          "name": "",
          "type": "uint256"
        }
      ],
      "stateMutability": "view",
      "type": "function"
    },
    {
      "inputs": [],
      "name": "nonFungibleContract",
      "outputs": [
        {
          "internalType": "contract ERC721",
          "name": "",
          "type": "address"
        }
      ],
      "stateMutability": "view",
      "type": "function"
    },
    {
      "inputs": [],
      "name": "owner",
      "outputs": [
        {
          "internalType": "address",
          "name": "",
          "type": "address"
        }
      ],
      "stateMutability": "view",
      "type": "function"
    },
    {
      "inputs": [],
      "name": "ownerCut",
      "outputs": [
        {
          "internalType": "uint256",
          "name": "",
          "type": "uint256"
        }
      ],
      "stateMutability": "view",
      "type": "function"
    },
    {
      "inputs": [],
      "name": "pause",
      "outputs": [
        {
          "internalType": "bool",
          "name": "",
          "type": "bool"
        }
      ],
      "stateMutability": "nonpayable",
      "type": "function"
    },
    {
      "inputs": [],
      "name": "paused",
      "outputs": [
        {
          "internalType": "bool",
          "name": "",
          "type": "bool"
        }
      ],
      "stateMutability": "view",
      "type": "function"
    },
    {
      "inputs": [
        {
          "internalType": "address",
          "name": "newOwner",
          "type": "address"
        }
      ],
      "name": "transferOwnership",
      "outputs": [],
      "stateMutability": "nonpayable",
      "type": "function"
    },
    {
      "inputs": [],
      "name": "unpause",
      "outputs": [
        {
          "internalType": "bool",
          "name": "",
          "type": "bool"
        }
      ],
      "stateMutability": "nonpayable",
      "type": "function"
    },
    {
      "inputs": [],
      "name": "withdrawBalance",
      "outputs": [],
      "stateMutability": "nonpayable",
      "type": "function"
    },
    {
      "inputs": [
        {
          "internalType": "uint256",
          "name": "_tokenId",
          "type": "uint256"
        },
        {
          "internalType": "uint256",
          "name": "_startingPrice",
          "type": "uint256"
        },
        {
          "internalType": "uint256",
          "name": "_endingPrice",
          "type": "uint256"
        },
        {
          "internalType": "uint256",
          "name": "_duration",
          "type": "uint256"
        },
        {
          "internalType": "address",
          "name": "_seller",
          "type": "address"
        }
      ],
      "name": "createAuction",
      "outputs": [],
      "stateMutability": "nonpayable",
      "type": "function"
    },
    {
      "inputs": [
        {
          "internalType": "uint256",
          "name": "_tokenId",
          "type": "uint256"
        }
      ],
      "name": "bid",
      "outputs": [],
      "stateMutability": "payable",
      "type": "function"
    },
    {
      "inputs": [],
      "name": "averageGen0SalePrice",
      "outputs": [
        {
          "internalType": "uint256",
          "name": "",
          "type": "uint256"
        }
      ],
      "stateMutability": "view",
      "type": "function"
    }
  ],
  "bytecode": "0x608060405260008060146101000a81548160ff0219169083151502179055506001600460006101000a81548160ff0219169083151502179055503480156200004657600080fd5b506040516200208d3803806200208d83398181016040528101906200006c91906200024b565b8181336000806101000a81548173ffffffffffffffffffffffffffffffffffffffff021916908373ffffffffffffffffffffffffffffffffffffffff160217905550612710811115620000be57600080fd5b8060028190555060008290508073ffffffffffffffffffffffffffffffffffffffff166301ffc9a7639a20483d60e01b6040518263ffffffff1660e01b81526004016200010c9190620002cf565b602060405180830381865afa1580156200012a573d6000803e3d6000fd5b505050506040513d601f19601f8201168201806040525081019062000150919062000329565b6200015a57600080fd5b80600160006101000a81548173ffffffffffffffffffffffffffffffffffffffff021916908373ffffffffffffffffffffffffffffffffffffffff16021790555050505050506200035b565b600080fd5b600073ffffffffffffffffffffffffffffffffffffffff82169050919050565b6000620001d882620001ab565b9050919050565b620001ea81620001cb565b8114620001f657600080fd5b50565b6000815190506200020a81620001df565b92915050565b6000819050919050565b620002258162000210565b81146200023157600080fd5b50565b60008151905062000245816200021a565b92915050565b60008060408385031215620002655762000264620001a6565b5b60006200027585828601620001f9565b9250506020620002888582860162000234565b9150509250929050565b60007fffffffff0000000000000000000000000000000000000000000000000000000082169050919050565b620002c98162000292565b82525050565b6000602082019050620002e66000830184620002be565b92915050565b60008115159050919050565b6200030381620002ec565b81146200030f57600080fd5b50565b6000815190506200032381620002f8565b92915050565b600060208284031215620003425762000341620001a6565b5b6000620003528482850162000312565b91505092915050565b611d22806200036b6000396000f3fe6080604052600436106101095760003560e01c806385b861881161009557806396b5a7551161006457806396b5a7551461033e578063c55d0f5614610367578063dd1b7a0f146103a4578063eac9d94c146103cf578063f2fde38b146103fa57610109565b806385b8618814610294578063878eb368146102bf5780638a98a9cc146102e85780638da5cb5b1461031357610109565b80635c975abb116100dc5780635c975abb146101bb5780635fd8c710146101e657806378bd7935146101fd57806383b5ff8b1461023e5780638456cb591461026957610109565b806327ebe40a1461010e5780633f4ba83a14610137578063454a2ab314610162578063484eccb41461017e575b600080fd5b34801561011a57600080fd5b5061013560048036038101906101309190611516565b610423565b005b34801561014357600080fd5b5061014c610564565b60405161015991906115ac565b60405180910390f35b61017c600480360381019061017791906115c7565b610625565b005b34801561018a57600080fd5b506101a560048036038101906101a091906115c7565b610712565b6040516101b29190611603565b60405180910390f35b3480156101c757600080fd5b506101d061072d565b6040516101dd91906115ac565b60405180910390f35b3480156101f257600080fd5b506101fb610740565b005b34801561020957600080fd5b50610224600480360381019061021f91906115c7565b610832565b60405161023595949392919061162d565b60405180910390f35b34801561024a57600080fd5b50610253610953565b6040516102609190611603565b60405180910390f35b34801561027557600080fd5b5061027e610959565b60405161028b91906115ac565b60405180910390f35b3480156102a057600080fd5b506102a9610a1c565b6040516102b691906115ac565b60405180910390f35b3480156102cb57600080fd5b506102e660048036038101906102e191906115c7565b610a2f565b005b3480156102f457600080fd5b506102fd610afb565b60405161030a9190611603565b60405180910390f35b34801561031f57600080fd5b50610328610b01565b6040516103359190611680565b60405180910390f35b34801561034a57600080fd5b50610365600480360381019061036091906115c7565b610b25565b005b34801561037357600080fd5b5061038e600480360381019061038991906115c7565b610bbe565b60405161039b9190611603565b60405180910390f35b3480156103b057600080fd5b506103b9610bf9565b6040516103c691906116fa565b60405180910390f35b3480156103db57600080fd5b506103e4610c1f565b6040516103f19190611603565b60405180910390f35b34801561040657600080fd5b50610421600480360381019061041c9190611715565b610c7c565b005b836fffffffffffffffffffffffffffffffff16841461044157600080fd5b826fffffffffffffffffffffffffffffffff16831461045f57600080fd5b8167ffffffffffffffff16821461047557600080fd5b600160009054906101000a900473ffffffffffffffffffffffffffffffffffffffff1673ffffffffffffffffffffffffffffffffffffffff163373ffffffffffffffffffffffffffffffffffffffff16146104cf57600080fd5b6104d98186610d4c565b60006040518060a001604052808373ffffffffffffffffffffffffffffffffffffffff168152602001866fffffffffffffffffffffffffffffffff168152602001856fffffffffffffffffffffffffffffffff1681526020018467ffffffffffffffff1681526020014267ffffffffffffffff16815250905061055c8682610de1565b505050505050565b60008060009054906101000a900473ffffffffffffffffffffffffffffffffffffffff1673ffffffffffffffffffffffffffffffffffffffff163373ffffffffffffffffffffffffffffffffffffffff16146105bf57600080fd5b600060149054906101000a900460ff166105d857600080fd5b60008060146101000a81548160ff0219169083151502179055507f7805862f689e2f13df9f062ff482ad3ad112aca9e0847911ed832e158c525b3360405160405180910390a16001905090565b60006003600083815260200190815260200160002060000160009054906101000a900473ffffffffffffffffffffffffffffffffffffffff169050600061066c8334610fb2565b90506106783384611137565b600160009054906101000a900473ffffffffffffffffffffffffffffffffffffffff1673ffffffffffffffffffffffffffffffffffffffff168273ffffffffffffffffffffffffffffffffffffffff160361070d57806006600580546106de9190611771565b600581106106ef576106ee6117a2565b5b01819055506005600081548092919061070790611800565b91905055505b505050565b6006816005811061072257600080fd5b016000915090505481565b600060149054906101000a900460ff1681565b6000600160009054906101000a900473ffffffffffffffffffffffffffffffffffffffff16905060008054906101000a900473ffffffffffffffffffffffffffffffffffffffff1673ffffffffffffffffffffffffffffffffffffffff163373ffffffffffffffffffffffffffffffffffffffff1614806107ec57508073ffffffffffffffffffffffffffffffffffffffff163373ffffffffffffffffffffffffffffffffffffffff16145b6107f557600080fd5b60008173ffffffffffffffffffffffffffffffffffffffff166108fc479081150290604051600060405180830381858888f1935050505090505050565b600080600080600080600360008881526020019081526020016000209050610859816111ca565b61086257600080fd5b8060000160009054906101000a900473ffffffffffffffffffffffffffffffffffffffff168160010160009054906101000a90046fffffffffffffffffffffffffffffffff168260010160109054906101000a90046fffffffffffffffffffffffffffffffff168360020160009054906101000a900467ffffffffffffffff168460020160089054906101000a900467ffffffffffffffff16836fffffffffffffffffffffffffffffffff169350826fffffffffffffffffffffffffffffffff1692508167ffffffffffffffff1691508067ffffffffffffffff169050955095509550955095505091939590929450565b60025481565b60008060009054906101000a900473ffffffffffffffffffffffffffffffffffffffff1673ffffffffffffffffffffffffffffffffffffffff163373ffffffffffffffffffffffffffffffffffffffff16146109b457600080fd5b600060149054906101000a900460ff16156109ce57600080fd5b6001600060146101000a81548160ff0219169083151502179055507f6985a02210a168e66602d3235cb6db0e70f92b3ba4d376a33c0f3d9434bff62560405160405180910390a16001905090565b600460009054906101000a900460ff1681565b600060149054906101000a900460ff16610a4857600080fd5b60008054906101000a900473ffffffffffffffffffffffffffffffffffffffff1673ffffffffffffffffffffffffffffffffffffffff163373ffffffffffffffffffffffffffffffffffffffff1614610aa057600080fd5b6000600360008381526020019081526020016000209050610ac0816111ca565b610ac957600080fd5b610af7828260000160009054906101000a900473ffffffffffffffffffffffffffffffffffffffff166111f8565b5050565b60055481565b60008054906101000a900473ffffffffffffffffffffffffffffffffffffffff1681565b6000600360008381526020019081526020016000209050610b45816111ca565b610b4e57600080fd5b60008160000160009054906101000a900473ffffffffffffffffffffffffffffffffffffffff1690508073ffffffffffffffffffffffffffffffffffffffff163373ffffffffffffffffffffffffffffffffffffffff1614610baf57600080fd5b610bb983826111f8565b505050565b600080600360008481526020019081526020016000209050610bdf816111ca565b610be857600080fd5b610bf181611246565b915050919050565b600160009054906101000a900473ffffffffffffffffffffffffffffffffffffffff1681565b6000806000905060005b6005811015610c685760068160058110610c4657610c456117a2565b5b015482610c539190611848565b91508080610c6090611800565b915050610c29565b50600581610c76919061189e565b91505090565b60008054906101000a900473ffffffffffffffffffffffffffffffffffffffff1673ffffffffffffffffffffffffffffffffffffffff163373ffffffffffffffffffffffffffffffffffffffff1614610cd457600080fd5b600073ffffffffffffffffffffffffffffffffffffffff168173ffffffffffffffffffffffffffffffffffffffff1614610d4957806000806101000a81548173ffffffffffffffffffffffffffffffffffffffff021916908373ffffffffffffffffffffffffffffffffffffffff1602179055505b50565b600160009054906101000a900473ffffffffffffffffffffffffffffffffffffffff1673ffffffffffffffffffffffffffffffffffffffff166323b872dd8330846040518463ffffffff1660e01b8152600401610dab939291906118cf565b600060405180830381600087803b158015610dc557600080fd5b505af1158015610dd9573d6000803e3d6000fd5b505050505050565b603c816060015167ffffffffffffffff161015610dfd57600080fd5b806003600084815260200190815260200160002060008201518160000160006101000a81548173ffffffffffffffffffffffffffffffffffffffff021916908373ffffffffffffffffffffffffffffffffffffffff16021790555060208201518160010160006101000a8154816fffffffffffffffffffffffffffffffff02191690836fffffffffffffffffffffffffffffffff16021790555060408201518160010160106101000a8154816fffffffffffffffffffffffffffffffff02191690836fffffffffffffffffffffffffffffffff16021790555060608201518160020160006101000a81548167ffffffffffffffff021916908367ffffffffffffffff16021790555060808201518160020160086101000a81548167ffffffffffffffff021916908367ffffffffffffffff1602179055509050507fa9c8dfcda5664a5a124c713e386da27de87432d5b668e79458501eb296389ba78282602001516fffffffffffffffffffffffffffffffff1683604001516fffffffffffffffffffffffffffffffff16846060015167ffffffffffffffff16604051610fa69493929190611906565b60405180910390a15050565b600080600360008581526020019081526020016000209050610fd3816111ca565b610fdc57600080fd5b6000610fe782611246565b905080841015610ff657600080fd5b60008260000160009054906101000a900473ffffffffffffffffffffffffffffffffffffffff16905061102886611342565b600082111561109857600061103c836113fe565b90506000818461104c919061194b565b90508273ffffffffffffffffffffffffffffffffffffffff166108fc829081150290604051600060405180830381858888f19350505050158015611094573d6000803e3d6000fd5b5050505b600082866110a6919061194b565b90503373ffffffffffffffffffffffffffffffffffffffff166108fc829081150290604051600060405180830381858888f193505050501580156110ee573d6000803e3d6000fd5b507f4fcc30d90a842164dd58501ab874a101a3749c3d4747139cefe7c876f4ccebd28784336040516111229392919061197f565b60405180910390a18294505050505092915050565b600160009054906101000a900473ffffffffffffffffffffffffffffffffffffffff1673ffffffffffffffffffffffffffffffffffffffff1663a9059cbb83836040518363ffffffff1660e01b81526004016111949291906119b6565b600060405180830381600087803b1580156111ae57600080fd5b505af11580156111c2573d6000803e3d6000fd5b505050505050565b6000808260020160089054906101000a900467ffffffffffffffff1667ffffffffffffffff16119050919050565b61120182611342565b61120b8183611137565b7f2809c7e17bf978fbc7194c0a694b638c4215e9140cacc6c38ca36010b45697df8260405161123a9190611603565b60405180910390a15050565b600080600090508260020160089054906101000a900467ffffffffffffffff1667ffffffffffffffff164211156112a8578260020160089054906101000a900467ffffffffffffffff1667ffffffffffffffff16426112a5919061194b565b90505b61133a8360010160009054906101000a90046fffffffffffffffffffffffffffffffff166fffffffffffffffffffffffffffffffff168460010160109054906101000a90046fffffffffffffffffffffffffffffffff166fffffffffffffffffffffffffffffffff168560020160009054906101000a900467ffffffffffffffff1667ffffffffffffffff1684611422565b915050919050565b60036000828152602001908152602001600020600080820160006101000a81549073ffffffffffffffffffffffffffffffffffffffff02191690556001820160006101000a8154906fffffffffffffffffffffffffffffffff02191690556001820160106101000a8154906fffffffffffffffffffffffffffffffff02191690556002820160006101000a81549067ffffffffffffffff02191690556002820160086101000a81549067ffffffffffffffff0219169055505050565b60006127106002548361141191906119df565b61141b919061189e565b9050919050565b600082821061143357839050611475565b600085856114419190611a43565b905060008484836114529190611ad7565b61145c9190611bee565b90506000818861146c9190611c58565b90508093505050505b949350505050565b600080fd5b6000819050919050565b61149581611482565b81146114a057600080fd5b50565b6000813590506114b28161148c565b92915050565b600073ffffffffffffffffffffffffffffffffffffffff82169050919050565b60006114e3826114b8565b9050919050565b6114f3816114d8565b81146114fe57600080fd5b50565b600081359050611510816114ea565b92915050565b600080600080600060a086880312156115325761153161147d565b5b6000611540888289016114a3565b9550506020611551888289016114a3565b9450506040611562888289016114a3565b9350506060611573888289016114a3565b925050608061158488828901611501565b9150509295509295909350565b60008115159050919050565b6115a681611591565b82525050565b60006020820190506115c1600083018461159d565b92915050565b6000602082840312156115dd576115dc61147d565b5b60006115eb848285016114a3565b91505092915050565b6115fd81611482565b82525050565b600060208201905061161860008301846115f4565b92915050565b611627816114d8565b82525050565b600060a082019050611642600083018861161e565b61164f60208301876115f4565b61165c60408301866115f4565b61166960608301856115f4565b61167660808301846115f4565b9695505050505050565b6000602082019050611695600083018461161e565b92915050565b6000819050919050565b60006116c06116bb6116b6846114b8565b61169b565b6114b8565b9050919050565b60006116d2826116a5565b9050919050565b60006116e4826116c7565b9050919050565b6116f4816116d9565b82525050565b600060208201905061170f60008301846116eb565b92915050565b60006020828403121561172b5761172a61147d565b5b600061173984828501611501565b91505092915050565b7f4e487b7100000000000000000000000000000000000000000000000000000000600052601260045260246000fd5b600061177c82611482565b915061178783611482565b92508261179757611796611742565b5b828206905092915050565b7f4e487b7100000000000000000000000000000000000000000000000000000000600052603260045260246000fd5b7f4e487b7100000000000000000000000000000000000000000000000000000000600052601160045260246000fd5b600061180b82611482565b91507fffffffffffffffffffffffffffffffffffffffffffffffffffffffffffffffff820361183d5761183c6117d1565b5b600182019050919050565b600061185382611482565b915061185e83611482565b9250827fffffffffffffffffffffffffffffffffffffffffffffffffffffffffffffffff03821115611893576118926117d1565b5b828201905092915050565b60006118a982611482565b91506118b483611482565b9250826118c4576118c3611742565b5b828204905092915050565b60006060820190506118e4600083018661161e565b6118f1602083018561161e565b6118fe60408301846115f4565b949350505050565b600060808201905061191b60008301876115f4565b61192860208301866115f4565b61193560408301856115f4565b61194260608301846115f4565b95945050505050565b600061195682611482565b915061196183611482565b925082821015611974576119736117d1565b5b828203905092915050565b600060608201905061199460008301866115f4565b6119a160208301856115f4565b6119ae604083018461161e565b949350505050565b60006040820190506119cb600083018561161e565b6119d860208301846115f4565b9392505050565b60006119ea82611482565b91506119f583611482565b9250817fffffffffffffffffffffffffffffffffffffffffffffffffffffffffffffffff0483118215151615611a2e57611a2d6117d1565b5b828202905092915050565b6000819050919050565b6000611a4e82611a39565b9150611a5983611a39565b9250827f800000000000000000000000000000000000000000000000000000000000000001821260008412151615611a9457611a936117d1565b5b827f7fffffffffffffffffffffffffffffffffffffffffffffffffffffffffffffff018213600084121615611acc57611acb6117d1565b5b828203905092915050565b6000611ae282611a39565b9150611aed83611a39565b9250827f7fffffffffffffffffffffffffffffffffffffffffffffffffffffffffffffff0482116000841360008413161615611b2c57611b2b6117d1565b5b817f80000000000000000000000000000000000000000000000000000000000000000583126000841260008413161615611b6957611b686117d1565b5b827f80000000000000000000000000000000000000000000000000000000000000000582126000841360008412161615611ba657611ba56117d1565b5b827f7fffffffffffffffffffffffffffffffffffffffffffffffffffffffffffffff0582126000841260008412161615611be357611be26117d1565b5b828202905092915050565b6000611bf982611a39565b9150611c0483611a39565b925082611c1457611c13611742565b5b600160000383147f800000000000000000000000000000000000000000000000000000000000000083141615611c4d57611c4c6117d1565b5b828205905092915050565b6000611c6382611a39565b9150611c6e83611a39565b9250817f7fffffffffffffffffffffffffffffffffffffffffffffffffffffffffffffff03831360008312151615611ca957611ca86117d1565b5b817f8000000000000000000000000000000000000000000000000000000000000000038312600083121615611ce157611ce06117d1565b5b82820190509291505056fea26469706673582212209bdcfc84791e6052388155c960545a800408a1e078486f797eec71866efea10e64736f6c634300080d0033",
  "immutableReferences": {},
  "source": "pragma solidity ^0.8.0;\r\n\r\nimport \"./ClockAuction.sol\";\r\n\r\n/// @title Clock auction modified for sale of kitties\r\n/// @notice We omit a fallback function to prevent accidental sends to this contract.\r\ncontract SaleClockAuction is ClockAuction {\r\n\r\n    // @dev Sanity check that allows us to ensure that we are pointing to the\r\n    //  right auction in our setSaleAuctionAddress() call.\r\n    bool public isSaleClockAuction = true;\r\n\r\n    // Tracks last 5 sale price of gen0 kitty sales\r\n    uint256 public gen0SaleCount;\r\n    uint256[5] public lastGen0SalePrices;\r\n\r\n    // Delegate constructor\r\n//    function SaleClockAuction(address _nftAddr, uint256 _cut) public\r\n//        ClockAuction(_nftAddr, _cut) {}\r\n    constructor(address _nftAddress, uint256 _cut) ClockAuction(_nftAddress, _cut) public {\r\n\r\n    }\r\n\r\n    /// @dev Creates and begins a new auction.\r\n    /// @param _tokenId - ID of token to auction, sender must be owner.\r\n    /// @param _startingPrice - Price of item (in wei) at beginning of auction.\r\n    /// @param _endingPrice - Price of item (in wei) at end of auction.\r\n    /// @param _duration - Length of auction (in seconds).\r\n    /// @param _seller - Seller, if not the message sender\r\n    function createAuction(uint256 _tokenId,uint256 _startingPrice,uint256 _endingPrice,uint256 _duration,address _seller) override external{\r\n        // Sanity check that no inputs overflow how many bits we've allocated\r\n        // to store them in the auction struct.\r\n        require(_startingPrice == uint256(uint128(_startingPrice)));\r\n        require(_endingPrice == uint256(uint128(_endingPrice)));\r\n        require(_duration == uint256(uint64(_duration)));\r\n\r\n        require(msg.sender == address(nonFungibleContract));\r\n        _escrow(payable(_seller), _tokenId);\r\n        Auction memory auction = Auction(\r\n            payable(_seller),\r\n            uint128(_startingPrice),\r\n            uint128(_endingPrice),\r\n            uint64(_duration),\r\n            uint64(block.timestamp)\r\n        );\r\n        _addAuction(_tokenId, auction);\r\n    }\r\n\r\n    /// @dev Updates lastSalePrice if seller is the nft contract\r\n    /// Otherwise, works the same as default bid method.\r\n    function bid(uint256 _tokenId) override external payable{\r\n        // _bid verifies token ID size\r\n        address seller = tokenIdToAuction[_tokenId].seller;\r\n        uint256 price = _bid(_tokenId, msg.value);\r\n        _transfer(msg.sender, _tokenId);\r\n\r\n        // If not a gen0 auction, exit\r\n        if (seller == address(nonFungibleContract)) {\r\n            // Track gen0 sale prices\r\n            lastGen0SalePrices[gen0SaleCount % 5] = price;\r\n            gen0SaleCount++;\r\n        }\r\n    }\r\n\r\n    function averageGen0SalePrice() external view returns (uint256) {\r\n        uint256 sum = 0;\r\n        for (uint256 i = 0; i < 5; i++) {\r\n            sum += lastGen0SalePrices[i];\r\n        }\r\n        return sum / 5;\r\n    }\r\n\r\n}\r\n",
  "sourcePath": "C:\\Users\\lam\\Documents\\GitHub\\dynamodb_related\\pythonProject\\smart_contract\\contracts\\SaleClockAuction.sol",
  "compiler": {
    "name": "solc",
    "version": "0.8.13+commit.abaa5c0e.Emscripten.clang"
  },
  "schemaVersion": "3.4.7",
  "updatedAt": "2022-05-02T01:57:46.598Z",
  "devdoc": {
    "kind": "dev",
    "methods": {
      "bid(uint256)": {
        "details": "Updates lastSalePrice if seller is the nft contract Otherwise, works the same as default bid method."
      },
      "cancelAuction(uint256)": {
        "details": "Cancels an auction that hasn't been won yet.  Returns the NFT to original owner.",
        "params": {
          "_tokenId": "- ID of token on auction"
        }
      },
      "cancelAuctionWhenPaused(uint256)": {
        "details": "Cancels an auction when the contract is paused.  Only the owner may do this, and NFTs are returned to  the seller. This should only be used in emergencies.",
        "params": {
          "_tokenId": "- ID of the NFT on auction to cancel."
        }
      },
      "createAuction(uint256,uint256,uint256,uint256,address)": {
        "details": "Creates and begins a new auction.",
        "params": {
          "_duration": "- Length of auction (in seconds).",
          "_endingPrice": "- Price of item (in wei) at end of auction.",
          "_seller": "- Seller, if not the message sender",
          "_startingPrice": "- Price of item (in wei) at beginning of auction.",
          "_tokenId": "- ID of token to auction, sender must be owner."
        }
      },
      "getAuction(uint256)": {
        "details": "Returns auction info for an NFT on auction.",
        "params": {
          "_tokenId": "- ID of NFT on auction."
        }
      },
      "getCurrentPrice(uint256)": {
        "details": "Returns the current price of an auction.",
        "params": {
          "_tokenId": "- ID of the token price we are checking."
        }
      },
      "pause()": {
        "details": "called by the owner to pause, triggers stopped state"
      },
      "transferOwnership(address)": {
        "details": "Allows the current owner to transfer control of the contract to a newOwner.",
        "params": {
          "newOwner": "The address to transfer ownership to."
        }
      },
      "unpause()": {
        "details": "called by the owner to unpause, returns to normal state"
      },
      "withdrawBalance()": {
        "details": "Remove all Ether from the contract, which is the owner's cuts  as well as any Ether sent directly to the contract address.  Always transfers to the NFT contract, but can be called either by  the owner or the NFT contract."
      }
    },
    "title": "Clock auction modified for sale of kitties",
    "version": 1
  },
  "userdoc": {
    "kind": "user",
    "methods": {
      "cancelAuction(uint256)": {
        "notice": "This is a state-modifying function that can  be called while the contract is paused."
      }
    },
    "notice": "We omit a fallback function to prevent accidental sends to this contract.",
    "version": 1
  }
}