{
  "contractName": "Trade_log",
  "abi": [
    {
      "inputs": [
        {
          "internalType": "string",
          "name": "_ticker",
          "type": "string"
        },
        {
          "internalType": "string",
          "name": "_avg_price",
          "type": "string"
        },
        {
          "internalType": "string",
          "name": "_transact_qty",
          "type": "string"
        }
      ],
      "name": "set_trade_log",
      "outputs": [],
      "stateMutability": "nonpayable",
      "type": "function"
    },
    {
      "inputs": [],
      "name": "get_trade_log",
      "outputs": [
        {
          "internalType": "string",
          "name": "",
          "type": "string"
        }
      ],
      "stateMutability": "view",
      "type": "function",
      "constant": true
    },
    {
      "inputs": [],
      "name": "init",
      "outputs": [],
      "stateMutability": "nonpayable",
      "type": "function"
    }
  ],
  "bytecode": "0x608060405234801561001057600080fd5b50610d4d806100206000396000f3fe608060405234801561001057600080fd5b50600436106100415760003560e01c806345bda44514610046578063d2e8635814610064578063e1c7392a14610080575b600080fd5b61004e61008a565b60405161005b91906106ad565b60405180910390f35b61007e60048036038101906100799190610818565b61011c565b005b61008861032d565b005b606060018054610099906108ee565b80601f01602080910402602001604051908101604052809291908181526020018280546100c5906108ee565b80156101125780601f106100e757610100808354040283529160200191610112565b820191906000526020600020905b8154815290600101906020018083116100f557829003601f168201915b5050505050905090565b6040518060400160405280600181526020017f7b000000000000000000000000000000000000000000000000000000000000008152506040518060400160405280600781526020017f7469636b65723a00000000000000000000000000000000000000000000000000815250846040518060400160405280600b81526020017f2c6176675f70726963653a000000000000000000000000000000000000000000815250856040518060400160405280600e81526020017f2c7472616e736163745f7174793a000000000000000000000000000000000000815250866040518060400160405280600b81526020017f2c74696d657374616d703a0000000000000000000000000000000000000000008152506102364261035c565b6040518060400160405280600181526020017f7d000000000000000000000000000000000000000000000000000000000000008152506040516020016102859a99989796959493929190610966565b604051602081830303815290604052600290805190602001906102a99291906104e4565b5060008054036102d457600260019080546102c3906108ee565b6102ce92919061056a565b5061030f565b600160026040516020016102e9929190610aac565b6040516020818303038152906040526001908051906020019061030d9291906104e4565b505b60016000808282546103219190610b18565b92505081905550505050565b60405180602001604052806000815250600190805190602001906103529291906104e4565b5060008081905550565b6060600082036103a3576040518060400160405280600181526020017f300000000000000000000000000000000000000000000000000000000000000081525090506104df565b600082905060005b600082146103d55780806103be90610b6e565b915050600a826103ce9190610be5565b91506103ab565b60008167ffffffffffffffff8111156103f1576103f06106ed565b5b6040519080825280601f01601f1916602001820160405280156104235781602001600182028036833780820191505090505b50905060008290505b600086146104d7576001816104419190610c16565b90506000600a80886104539190610be5565b61045d9190610c4a565b876104689190610c16565b60306104749190610cb1565b905060008160f81b90508084848151811061049257610491610ce8565b5b60200101907effffffffffffffffffffffffffffffffffffffffffffffffffffffffffffff1916908160001a905350600a886104ce9190610be5565b9750505061042c565b819450505050505b919050565b8280546104f0906108ee565b90600052602060002090601f0160209004810192826105125760008555610559565b82601f1061052b57805160ff1916838001178555610559565b82800160010185558215610559579182015b8281111561055857825182559160200191906001019061053d565b5b50905061056691906105f7565b5090565b828054610576906108ee565b90600052602060002090601f01602090048101928261059857600085556105e6565b82601f106105a957805485556105e6565b828001600101855582156105e657600052602060002091601f016020900482015b828111156105e55782548255916001019190600101906105ca565b5b5090506105f391906105f7565b5090565b5b808211156106105760008160009055506001016105f8565b5090565b600081519050919050565b600082825260208201905092915050565b60005b8381101561064e578082015181840152602081019050610633565b8381111561065d576000848401525b50505050565b6000601f19601f8301169050919050565b600061067f82610614565b610689818561061f565b9350610699818560208601610630565b6106a281610663565b840191505092915050565b600060208201905081810360008301526106c78184610674565b905092915050565b6000604051905090565b600080fd5b600080fd5b600080fd5b600080fd5b7f4e487b7100000000000000000000000000000000000000000000000000000000600052604160045260246000fd5b61072582610663565b810181811067ffffffffffffffff82111715610744576107436106ed565b5b80604052505050565b60006107576106cf565b9050610763828261071c565b919050565b600067ffffffffffffffff821115610783576107826106ed565b5b61078c82610663565b9050602081019050919050565b82818337600083830152505050565b60006107bb6107b684610768565b61074d565b9050828152602081018484840111156107d7576107d66106e8565b5b6107e2848285610799565b509392505050565b600082601f8301126107ff576107fe6106e3565b5b813561080f8482602086016107a8565b91505092915050565b600080600060608486031215610831576108306106d9565b5b600084013567ffffffffffffffff81111561084f5761084e6106de565b5b61085b868287016107ea565b935050602084013567ffffffffffffffff81111561087c5761087b6106de565b5b610888868287016107ea565b925050604084013567ffffffffffffffff8111156108a9576108a86106de565b5b6108b5868287016107ea565b9150509250925092565b7f4e487b7100000000000000000000000000000000000000000000000000000000600052602260045260246000fd5b6000600282049050600182168061090657607f821691505b602082108103610919576109186108bf565b5b50919050565b600081519050919050565b600081905092915050565b60006109408261091f565b61094a818561092a565b935061095a818560208601610630565b80840191505092915050565b6000610972828d610935565b915061097e828c610935565b915061098a828b610935565b9150610996828a610935565b91506109a28289610935565b91506109ae8288610935565b91506109ba8287610935565b91506109c68286610935565b91506109d28285610935565b91506109de8284610935565b91508190509b9a5050505050505050505050565b60008190508160005260206000209050919050565b60008154610a14816108ee565b610a1e818661092a565b94506001821660008114610a395760018114610a4a57610a7d565b60ff19831686528186019350610a7d565b610a53856109f2565b60005b83811015610a7557815481890152600182019150602081019050610a56565b838801955050505b50505092915050565b7f2c00000000000000000000000000000000000000000000000000000000000000815250565b6000610ab88285610a07565b9150610ac382610a86565b600182019150610ad38284610a07565b91508190509392505050565b6000819050919050565b7f4e487b7100000000000000000000000000000000000000000000000000000000600052601160045260246000fd5b6000610b2382610adf565b9150610b2e83610adf565b9250827fffffffffffffffffffffffffffffffffffffffffffffffffffffffffffffffff03821115610b6357610b62610ae9565b5b828201905092915050565b6000610b7982610adf565b91507fffffffffffffffffffffffffffffffffffffffffffffffffffffffffffffffff8203610bab57610baa610ae9565b5b600182019050919050565b7f4e487b7100000000000000000000000000000000000000000000000000000000600052601260045260246000fd5b6000610bf082610adf565b9150610bfb83610adf565b925082610c0b57610c0a610bb6565b5b828204905092915050565b6000610c2182610adf565b9150610c2c83610adf565b925082821015610c3f57610c3e610ae9565b5b828203905092915050565b6000610c5582610adf565b9150610c6083610adf565b9250817fffffffffffffffffffffffffffffffffffffffffffffffffffffffffffffffff0483118215151615610c9957610c98610ae9565b5b828202905092915050565b600060ff82169050919050565b6000610cbc82610ca4565b9150610cc783610ca4565b92508260ff03821115610cdd57610cdc610ae9565b5b828201905092915050565b7f4e487b7100000000000000000000000000000000000000000000000000000000600052603260045260246000fdfea2646970667358221220d2c4484ad95d263bc983dc7a3909ec5e782db8877a3b5d4c33a5d3ca60de88f864736f6c634300080d0033",
  "immutableReferences": {},
  "source": "pragma solidity ^0.8.0;\r\n\r\ncontract Trade_log {\r\n    uint total_transaction_qty;\r\n    string trade_log;\r\n    string _latest_trade_log;\r\n    string timestamp;\r\n\r\n    function set_trade_log(string memory _ticker, string memory _avg_price, string memory _transact_qty) external {\r\n        _latest_trade_log = string(bytes.concat(\r\n                bytes(\"{\"),\r\n                bytes(\"ticker:\"),\r\n                bytes(_ticker),\r\n                bytes(\",avg_price:\"),\r\n                bytes(_avg_price),\r\n                bytes(\",transact_qty:\"),\r\n                bytes(_transact_qty),\r\n                bytes(\",timestamp:\"),\r\n                bytes(uint2str(block.timestamp)),\r\n                bytes(\"}\")\r\n            ));\r\n\r\n        if (total_transaction_qty == 0){\r\n            trade_log = _latest_trade_log;\r\n        }else{\r\n            trade_log = string(bytes.concat(bytes(trade_log), \",\", bytes(_latest_trade_log)));\r\n        }\r\n        total_transaction_qty += 1;\r\n    }\r\n\r\n    function get_trade_log() external view returns(string memory){\r\n        return trade_log;\r\n    }\r\n\r\n    function init() external{\r\n        trade_log = \"\";\r\n        total_transaction_qty = 0;\r\n    }\r\n\r\n    function uint2str(uint _i) internal pure returns (string memory _uintAsString) {\r\n            if (_i == 0) {\r\n                return \"0\";\r\n            }\r\n            uint j = _i;\r\n            uint len;\r\n            while (j != 0) {\r\n                len++;\r\n                j /= 10;\r\n            }\r\n            bytes memory bstr = new bytes(len);\r\n            uint k = len;\r\n            while (_i != 0) {\r\n                k = k-1;\r\n                uint8 temp = (48 + uint8(_i - _i / 10 * 10));\r\n                bytes1 b1 = bytes1(temp);\r\n                bstr[k] = b1;\r\n                _i /= 10;\r\n            }\r\n            return string(bstr);\r\n        }\r\n}\r\n",
  "sourcePath": "C:\\Users\\lam\\Documents\\GitHub\\dynamodb_related\\pythonProject\\smart_contract\\contracts\\Trade_log.sol",
  "compiler": {
    "name": "solc",
    "version": "0.8.13+commit.abaa5c0e.Emscripten.clang"
  },
  "schemaVersion": "3.4.7",
  "updatedAt": "2022-04-15T03:57:31.516Z",
  "networkType": "ethereum",
  "devdoc": {
    "kind": "dev",
    "methods": {},
    "version": 1
  },
  "userdoc": {
    "kind": "user",
    "methods": {},
    "version": 1
  }
}