{
  "contractName": "RebalanceMarginWifMaxDrawdownControl",
  "abi": [
    {
      "inputs": [],
      "stateMutability": "nonpayable",
      "type": "constructor"
    },
    {
      "anonymous": false,
      "inputs": [
        {
          "indexed": false,
          "internalType": "string",
          "name": "actionMsgs",
          "type": "string"
        }
      ],
      "name": "LogActionMsg",
      "type": "event"
    },
    {
      "inputs": [
        {
          "internalType": "string",
          "name": "_tickerName",
          "type": "string"
        },
        {
          "internalType": "int256",
          "name": "_targetSharePurchase",
          "type": "int256"
        },
        {
          "internalType": "int256",
          "name": "_transactionTickerPrice",
          "type": "int256"
        },
        {
          "internalType": "uint256",
          "name": "_timestamp",
          "type": "uint256"
        }
      ],
      "name": "placeBuyStockLimitOrderMsg",
      "outputs": [
        {
          "components": [
            {
              "internalType": "string",
              "name": "tickerName",
              "type": "string"
            },
            {
              "internalType": "uint256",
              "name": "timestamp",
              "type": "uint256"
            },
            {
              "internalType": "string",
              "name": "transactionType",
              "type": "string"
            },
            {
              "internalType": "int256",
              "name": "positionAction",
              "type": "int256"
            },
            {
              "internalType": "int256",
              "name": "transactionTickerPrice",
              "type": "int256"
            },
            {
              "internalType": "int256",
              "name": "transactionAmount",
              "type": "int256"
            }
          ],
          "internalType": "struct Object.ActionMsg",
          "name": "",
          "type": "tuple"
        }
      ],
      "stateMutability": "nonpayable",
      "type": "function"
    },
    {
      "inputs": [
        {
          "internalType": "string",
          "name": "_tickerName",
          "type": "string"
        },
        {
          "internalType": "int256",
          "name": "_targetShareSell",
          "type": "int256"
        },
        {
          "internalType": "int256",
          "name": "_transactionTickerPrice",
          "type": "int256"
        },
        {
          "internalType": "uint256",
          "name": "_timestamp",
          "type": "uint256"
        }
      ],
      "name": "placeSellStockLimitOrderMsg",
      "outputs": [
        {
          "components": [
            {
              "internalType": "string",
              "name": "tickerName",
              "type": "string"
            },
            {
              "internalType": "uint256",
              "name": "timestamp",
              "type": "uint256"
            },
            {
              "internalType": "string",
              "name": "transactionType",
              "type": "string"
            },
            {
              "internalType": "int256",
              "name": "positionAction",
              "type": "int256"
            },
            {
              "internalType": "int256",
              "name": "transactionTickerPrice",
              "type": "int256"
            },
            {
              "internalType": "int256",
              "name": "transactionAmount",
              "type": "int256"
            }
          ],
          "internalType": "struct Object.ActionMsg",
          "name": "",
          "type": "tuple"
        }
      ],
      "stateMutability": "nonpayable",
      "type": "function"
    },
    {
      "inputs": [
        {
          "internalType": "string",
          "name": "_tickerName",
          "type": "string"
        },
        {
          "internalType": "int256",
          "name": "bidPrice",
          "type": "int256"
        },
        {
          "internalType": "int256",
          "name": "last",
          "type": "int256"
        },
        {
          "internalType": "uint256",
          "name": "_timestamp",
          "type": "uint256"
        }
      ],
      "name": "inputRealTimeTickerData",
      "outputs": [],
      "stateMutability": "nonpayable",
      "type": "function"
    },
    {
      "inputs": [
        {
          "internalType": "string",
          "name": "_tickerName",
          "type": "string"
        },
        {
          "internalType": "uint256",
          "name": "_timeStamp",
          "type": "uint256"
        }
      ],
      "name": "getRealTimeTickerData",
      "outputs": [
        {
          "internalType": "string",
          "name": "",
          "type": "string"
        },
        {
          "internalType": "int256",
          "name": "",
          "type": "int256"
        },
        {
          "internalType": "int256",
          "name": "",
          "type": "int256"
        }
      ],
      "stateMutability": "nonpayable",
      "type": "function"
    },
    {
      "inputs": [
        {
          "internalType": "uint256",
          "name": "_timestamp",
          "type": "uint256"
        },
        {
          "internalType": "int256",
          "name": "FullInitMarginReq",
          "type": "int256"
        },
        {
          "internalType": "int256",
          "name": "FullMainMarginReq",
          "type": "int256"
        }
      ],
      "name": "inputMarginAccount",
      "outputs": [],
      "stateMutability": "nonpayable",
      "type": "function"
    },
    {
      "inputs": [
        {
          "internalType": "uint256",
          "name": "timestamp",
          "type": "uint256"
        }
      ],
      "name": "getMarginAccount",
      "outputs": [
        {
          "internalType": "int256",
          "name": "",
          "type": "int256"
        },
        {
          "internalType": "int256",
          "name": "",
          "type": "int256"
        }
      ],
      "stateMutability": "view",
      "type": "function",
      "constant": true
    },
    {
      "inputs": [
        {
          "internalType": "uint256",
          "name": "_timestamp",
          "type": "uint256"
        },
        {
          "internalType": "int256",
          "name": "AvailableFunds",
          "type": "int256"
        },
        {
          "internalType": "int256",
          "name": "ExcessLiquidity",
          "type": "int256"
        },
        {
          "internalType": "int256",
          "name": "BuyingPower",
          "type": "int256"
        },
        {
          "internalType": "int256",
          "name": "Leverage",
          "type": "int256"
        },
        {
          "internalType": "int256",
          "name": "EquityWithLoanValue",
          "type": "int256"
        }
      ],
      "name": "inputTradingFunds",
      "outputs": [],
      "stateMutability": "nonpayable",
      "type": "function"
    },
    {
      "inputs": [
        {
          "internalType": "uint256",
          "name": "timestamp",
          "type": "uint256"
        }
      ],
      "name": "getTradingFunds",
      "outputs": [
        {
          "internalType": "int256",
          "name": "",
          "type": "int256"
        },
        {
          "internalType": "int256",
          "name": "",
          "type": "int256"
        },
        {
          "internalType": "int256",
          "name": "",
          "type": "int256"
        },
        {
          "internalType": "int256",
          "name": "",
          "type": "int256"
        },
        {
          "internalType": "int256",
          "name": "",
          "type": "int256"
        }
      ],
      "stateMutability": "view",
      "type": "function",
      "constant": true
    },
    {
      "inputs": [
        {
          "internalType": "uint256",
          "name": "_timestamp",
          "type": "uint256"
        },
        {
          "internalType": "int256",
          "name": "TotalCashValue",
          "type": "int256"
        },
        {
          "internalType": "int256",
          "name": "NetDividend",
          "type": "int256"
        },
        {
          "internalType": "int256",
          "name": "NetLiquidation",
          "type": "int256"
        },
        {
          "internalType": "int256",
          "name": "UnrealizedPnL",
          "type": "int256"
        },
        {
          "internalType": "int256",
          "name": "RealizedPnL",
          "type": "int256"
        },
        {
          "internalType": "int256",
          "name": "GrossPositionValue",
          "type": "int256"
        }
      ],
      "name": "inputMktValue",
      "outputs": [],
      "stateMutability": "nonpayable",
      "type": "function"
    },
    {
      "inputs": [
        {
          "internalType": "uint256",
          "name": "_timestamp",
          "type": "uint256"
        }
      ],
      "name": "getMktValue",
      "outputs": [
        {
          "internalType": "int256",
          "name": "",
          "type": "int256"
        },
        {
          "internalType": "int256",
          "name": "",
          "type": "int256"
        },
        {
          "internalType": "int256",
          "name": "",
          "type": "int256"
        },
        {
          "internalType": "int256",
          "name": "",
          "type": "int256"
        },
        {
          "internalType": "int256",
          "name": "",
          "type": "int256"
        },
        {
          "internalType": "int256",
          "name": "",
          "type": "int256"
        }
      ],
      "stateMutability": "view",
      "type": "function",
      "constant": true
    },
    {
      "inputs": [
        {
          "internalType": "uint256",
          "name": "timestamp",
          "type": "uint256"
        },
        {
          "internalType": "string",
          "name": "_tickerName",
          "type": "string"
        },
        {
          "internalType": "int256",
          "name": "position",
          "type": "int256"
        },
        {
          "internalType": "int256",
          "name": "marketPrice",
          "type": "int256"
        },
        {
          "internalType": "int256",
          "name": "averageCost",
          "type": "int256"
        },
        {
          "internalType": "int256",
          "name": "marketValue",
          "type": "int256"
        },
        {
          "internalType": "int256",
          "name": "realizedPNL",
          "type": "int256"
        },
        {
          "internalType": "int256",
          "name": "unrealizedPNL",
          "type": "int256"
        },
        {
          "internalType": "int256",
          "name": "initMarginReq",
          "type": "int256"
        },
        {
          "internalType": "int256",
          "name": "maintMarginReq",
          "type": "int256"
        },
        {
          "internalType": "int256",
          "name": "costBasis",
          "type": "int256"
        }
      ],
      "name": "updatePortfolioHoldingsData",
      "outputs": [],
      "stateMutability": "nonpayable",
      "type": "function"
    },
    {
      "inputs": [
        {
          "internalType": "string",
          "name": "_tickerName",
          "type": "string"
        },
        {
          "internalType": "uint256",
          "name": "_timestamp",
          "type": "uint256"
        }
      ],
      "name": "getPortfolioHolding",
      "outputs": [
        {
          "internalType": "string",
          "name": "",
          "type": "string"
        },
        {
          "internalType": "int256",
          "name": "",
          "type": "int256"
        },
        {
          "internalType": "int256",
          "name": "",
          "type": "int256"
        },
        {
          "internalType": "int256",
          "name": "",
          "type": "int256"
        },
        {
          "internalType": "int256",
          "name": "",
          "type": "int256"
        },
        {
          "internalType": "int256",
          "name": "",
          "type": "int256"
        },
        {
          "internalType": "int256",
          "name": "",
          "type": "int256"
        },
        {
          "internalType": "int256",
          "name": "",
          "type": "int256"
        },
        {
          "internalType": "int256",
          "name": "",
          "type": "int256"
        },
        {
          "internalType": "int256",
          "name": "",
          "type": "int256"
        }
      ],
      "stateMutability": "nonpayable",
      "type": "function"
    },
    {
      "inputs": [
        {
          "internalType": "string",
          "name": "tickerName",
          "type": "string"
        },
        {
          "internalType": "uint256",
          "name": "_timestamp",
          "type": "uint256"
        }
      ],
      "name": "getTickerActionMsg",
      "outputs": [
        {
          "internalType": "string",
          "name": "",
          "type": "string"
        },
        {
          "internalType": "uint256",
          "name": "",
          "type": "uint256"
        },
        {
          "internalType": "string",
          "name": "",
          "type": "string"
        },
        {
          "internalType": "int256",
          "name": "",
          "type": "int256"
        },
        {
          "internalType": "int256",
          "name": "",
          "type": "int256"
        },
        {
          "internalType": "int256",
          "name": "",
          "type": "int256"
        }
      ],
      "stateMutability": "nonpayable",
      "type": "function"
    },
    {
      "inputs": [
        {
          "internalType": "uint256",
          "name": "_loop",
          "type": "uint256"
        },
        {
          "internalType": "uint256",
          "name": "_lastExecutedTimestamp",
          "type": "uint256"
        }
      ],
      "name": "inputLoopWithTimestamps",
      "outputs": [],
      "stateMutability": "nonpayable",
      "type": "function"
    },
    {
      "inputs": [],
      "name": "reinitializeContractState",
      "outputs": [
        {
          "internalType": "string",
          "name": "",
          "type": "string"
        }
      ],
      "stateMutability": "nonpayable",
      "type": "function"
    },
    {
      "inputs": [
        {
          "internalType": "uint256",
          "name": "_timestamp",
          "type": "uint256"
        }
      ],
      "name": "run",
      "outputs": [],
      "stateMutability": "nonpayable",
      "type": "function"
    }
  ],
  "bytecode": "0x60806040526000600f55606473__FixidityLib___________________________632179bb6c6040518163ffffffff1660e01b8152600401602060405180830381865af415801562000055573d6000803e3d6000fd5b505050506040513d601f19601f820116820180604052508101906200007b919062000408565b600562000089919062000469565b620000959190620005bf565b6010556103e873__FixidityLib___________________________632179bb6c6040518163ffffffff1660e01b8152600401602060405180830381865af4158015620000e5573d6000803e3d6000fd5b505050506040513d601f19601f820116820180604052508101906200010b919062000408565b600562000119919062000469565b620001259190620005bf565b6011553480156200013557600080fd5b5060405180604001604052806040518060400160405280600381526020017f515151000000000000000000000000000000000000000000000000000000000081525081526020016040518060400160405280600381526020017f53505900000000000000000000000000000000000000000000000000000000008152508152506001906002620001c792919062000243565b5060016003604051620001da906200068e565b908152602001604051809103902060006101000a81548160ff021916908315150217905550600160036040516200021190620006f5565b908152602001604051809103902060006101000a81548160ff0219169083151502179055506000808190555062000770565b82805482825590600052602060002090810192821562000297579160200282015b828111156200029657825182908051906020019062000285929190620002aa565b509160200191906001019062000264565b5b509050620002a691906200033b565b5090565b828054620002b8906200073b565b90600052602060002090601f016020900481019282620002dc576000855562000328565b82601f10620002f757805160ff191683800117855562000328565b8280016001018555821562000328579182015b82811115620003275782518255916020019190600101906200030a565b5b50905062000337919062000363565b5090565b5b808211156200035f576000818162000355919062000382565b506001016200033c565b5090565b5b808211156200037e57600081600090555060010162000364565b5090565b50805462000390906200073b565b6000825580601f10620003a45750620003c5565b601f016020900490600052602060002090810190620003c4919062000363565b5b50565b600080fd5b6000819050919050565b620003e281620003cd565b8114620003ee57600080fd5b50565b6000815190506200040281620003d7565b92915050565b600060208284031215620004215762000420620003c8565b5b60006200043184828501620003f1565b91505092915050565b7f4e487b7100000000000000000000000000000000000000000000000000000000600052601160045260246000fd5b60006200047682620003cd565b91506200048383620003cd565b9250827f7fffffffffffffffffffffffffffffffffffffffffffffffffffffffffffffff0482116000841360008413161615620004c557620004c46200043a565b5b817f800000000000000000000000000000000000000000000000000000000000000005831260008412600084131616156200050557620005046200043a565b5b827f800000000000000000000000000000000000000000000000000000000000000005821260008413600084121616156200054557620005446200043a565b5b827f7fffffffffffffffffffffffffffffffffffffffffffffffffffffffffffffff05821260008412600084121616156200058557620005846200043a565b5b828202905092915050565b7f4e487b7100000000000000000000000000000000000000000000000000000000600052601260045260246000fd5b6000620005cc82620003cd565b9150620005d983620003cd565b925082620005ec57620005eb62000590565b5b600160000383147f8000000000000000000000000000000000000000000000000000000000000000831416156200062857620006276200043a565b5b828205905092915050565b600081905092915050565b7f5151510000000000000000000000000000000000000000000000000000000000600082015250565b60006200067660038362000633565b915062000683826200063e565b600382019050919050565b60006200069b8262000667565b9150819050919050565b7f5350590000000000000000000000000000000000000000000000000000000000600082015250565b6000620006dd60038362000633565b9150620006ea82620006a5565b600382019050919050565b60006200070282620006ce565b9150819050919050565b7f4e487b7100000000000000000000000000000000000000000000000000000000600052602260045260246000fd5b600060028204905060018216806200075457607f821691505b6020821081036200076a57620007696200070c565b5b50919050565b6147ab80620007806000396000f3fe608060405234801561001057600080fd5b50600436106101005760003560e01c8063a444f5e911610097578063ceb224cf11610066578063ceb224cf146102c5578063d6171b70146102e1578063ea62e08114610316578063f2027c251461034857610100565b8063a444f5e91461023c578063a5f86e9b14610258578063c4f5a5a914610274578063c4fa8bcc146102a957610100565b806338f18f0b116100d357806338f18f0b146101b65780634395f558146101d25780634571236b146101ee5780634f8ac98d1461020c57610100565b806314ea6c19146101055780631eed50501461013557806322bc88f714610166578063384f4a6214610182575b600080fd5b61011f600480360381019061011a91906137ee565b610381565b60405161012c91906139a7565b60405180910390f35b61014f600480360381019061014a91906139c9565b61047a565b60405161015d929190613a05565b60405180910390f35b610180600480360381019061017b9190613a2e565b6104c7565b005b61019c600480360381019061019791906139c9565b610555565b6040516101ad959493929190613ad0565b60405180910390f35b6101d060048036038101906101cb9190613b23565b6105dd565b005b6101ec60048036038101906101e79190613b63565b610611565b005b6101f661068e565b6040516102039190613c3a565b60405180910390f35b610226600480360381019061022191906137ee565b610c2e565b60405161023391906139a7565b60405180910390f35b610256600480360381019061025191906139c9565b610d27565b005b610272600480360381019061026d91906137ee565b61179c565b005b61028e60048036038101906102899190613c5c565b611a63565b6040516102a096959493929190613cc7565b60405180910390f35b6102c360048036038101906102be9190613d36565b611c2c565b005b6102df60048036038101906102da9190613d89565b611c76565b005b6102fb60048036038101906102f691906139c9565b611d7a565b60405161030d96959493929190613e99565b60405180910390f35b610330600480360381019061032b9190613c5c565b611e15565b60405161033f93929190613efa565b60405180910390f35b610362600480360381019061035d9190613c5c565b611f1b565b6040516103789a99989796959493929190613f38565b60405180910390f35b610389613484565b600073__FixidityLib___________________________633c4308a886866040518363ffffffff1660e01b81526004016103c4929190613fea565b602060405180830381865af41580156103e1573d6000803e3d6000fd5b505050506040513d601f19601f820116820180604052508101906104059190614028565b905060006040518060c001604052808881526020018581526020016040518060400160405280600481526020017f53656c6c0000000000000000000000000000000000000000000000000000000081525081526020018781526020018681526020018381525090508092505050949350505050565b6000806000600a6000858152602001908152602001600020604051806040016040529081600082015481526020016001820154815250509050806000015181602001519250925050915091565b60006040518060c0016040528088815260200187815260200186815260200185815260200184815260200183815250905080600c60008a8152602001908152602001600020600082015181600001556020820151816001015560408201518160020155606082015181600301556080820151816004015560a082015181600501559050505050505050505050565b600080600080600080600b60008881526020019081526020016000206040518060a001604052908160008201548152602001600182015481526020016002820154815260200160038201548152602001600482015481525050905080600001518160200151826040015183606001518460800151955095509550955095505091939590929450565b81600f8190555060028190806001815401808255809150506001900390600052602060002001600090919091909150555050565b60006040518060a0016040528087815260200186815260200185815260200184815260200183815250905080600b6000898152602001908152602001600020600082015181600001556020820151816001015560408201518160020155606082015181600301556080820151816004015590505050505050505050565b606060006040518060200160405280600081525090506000600280549050036106d1576040518060600160405280602b8152602001614726602b91399050610c27565b60005b600180549050811015610886576003600182815481106106f7576106f6614055565b5b9060005260206000200160405161070e9190614183565b908152602001604051809103902060006101000a81549060ff021916905560046001828154811061074257610741614055565b5b906000526020600020016040516107599190614183565b908152602001604051809103902060006101000a81549060ff021916905560056001828154811061078d5761078c614055565b5b906000526020600020016040516107a49190614183565b9081526020016040518091039020600090556006600182815481106107cc576107cb614055565b5b906000526020600020016040516107e39190614183565b90815260200160405180910390206000905560076001828154811061080b5761080a614055565b5b906000526020600020016040516108229190614183565b90815260200160405180910390206000905560086001828154811061084a57610849614055565b5b906000526020600020016040516108619190614183565b908152602001604051809103902060009055808061087e906141c9565b9150506106d4565b5060005b600280549050811015610bf55760005b600180549050811015610ab95760096000600284815481106108bf576108be614055565b5b90600052602060002001548152602001908152602001600020600182815481106108ec576108eb614055565b5b906000526020600020016040516109039190614183565b90815260200160405180910390206000808201600061092291906134ba565b600182016000905560028201600090555050600e60006002848154811061094c5761094b614055565b5b906000526020600020015481526020019081526020016000206001828154811061097957610978614055565b5b906000526020600020016040516109909190614183565b9081526020016040518091039020600080820160006109af91906134ba565b6001820160009055600282016000905560038201600090556004820160009055600582016000905560068201600090556007820160009055600882016000905560098201600090555050600d600060028481548110610a1157610a10614055565b5b9060005260206000200154815260200190815260200160002060018281548110610a3e57610a3d614055565b5b90600052602060002001604051610a559190614183565b908152602001604051809103902060008082016000610a7491906134ba565b6001820160009055600282016000610a8c91906134ba565b60038201600090556004820160009055600582016000905550508080610ab1906141c9565b91505061089a565b50600a600060028381548110610ad257610ad1614055565b5b9060005260206000200154815260200190815260200160002060008082016000905560018201600090555050600b600060028381548110610b1657610b15614055565b5b9060005260206000200154815260200190815260200160002060008082016000905560018201600090556002820160009055600382016000905560048201600090555050600c600060028381548110610b7257610b71614055565b5b90600052602060002001548152602001908152602001600020600080820160009055600182016000905560028201600090556003820160009055600482016000905560058201600090555050600060028281548110610bd457610bd3614055565b5b90600052602060002001819055508080610bed906141c9565b91505061088a565b506000808190555060016000610c0b91906134fa565b6040518060600160405280602581526020016147516025913990505b8091505090565b610c36613484565b600073__FixidityLib___________________________633c4308a886866040518363ffffffff1660e01b8152600401610c71929190613fea565b602060405180830381865af4158015610c8e573d6000803e3d6000fd5b505050506040513d601f19601f82011682018060405250810190610cb29190614028565b905060006040518060c001604052808881526020018581526020016040518060400160405280600381526020017f427579000000000000000000000000000000000000000000000000000000000081525081526020018781526020018681526020018381525090508092505050949350505050565b610d30816120ad565b610d6f576040517f08c379a0000000000000000000000000000000000000000000000000000000008152600401610d6690614283565b60405180910390fd5b6002819080600181540180825580915050600190039060005260206000200160009091909190915055600f6000815480929190610dab906141c9565b91905055506000600f540361113f57600073__FixidityLib___________________________63f5984236600c60008581526020019081526020016000206000015473__FixidityLib___________________________632179bb6c6040518163ffffffff1660e01b8152600401602060405180830381865af4158015610e36573d6000803e3d6000fd5b505050506040513d601f19601f82011682018060405250810190610e5a9190614028565b600180549050610e6a91906142a3565b6040518363ffffffff1660e01b8152600401610e87929190613fea565b602060405180830381865af4158015610ea4573d6000803e3d6000fd5b505050506040513d601f19601f82011682018060405250810190610ec89190614028565b905060005b6001805490508110156111385760006009600085815260200190815260200160002060018381548110610f0357610f02614055565b5b90600052602060002001604051610f1a9190614183565b9081526020016040518091039020604051806060016040529081600082018054610f43906140b3565b80601f0160208091040260200160405190810160405280929190818152602001828054610f6f906140b3565b8015610fbc5780601f10610f9157610100808354040283529160200191610fbc565b820191906000526020600020905b815481529060010190602001808311610f9f57829003601f168201915b505050505081526020016001820154815260200160028201548152505090506000816000015190506000826040015190506000600373__FixidityLib___________________________63f59842368887604001516040518363ffffffff1660e01b815260040161102e929190613fea565b602060405180830381865af415801561104b573d6000803e3d6000fd5b505050506040513d601f19601f8201168201806040525081019061106f9190614028565b61107991906142a3565b905060006110898483858b610c2e565b905080600d60008a8152602001908152602001600020856040516110ad91906143eb565b908152602001604051809103902060008201518160000190805190602001906110d792919061351b565b506020820151816001015560408201518160020190805190602001906110fe92919061351b565b50606082015181600301556080820151816004015560a0820151816005015590505050505050508080611130906141c9565b915050610ecd565b505061177d565b600073__FixidityLib___________________________633c4308a8601054600c6000868152602001908152602001600020600501546040518363ffffffff1660e01b8152600401611192929190613fea565b602060405180830381865af41580156111af573d6000803e3d6000fd5b505050506040513d601f19601f820116820180604052508101906111d39190614028565b905060005b60018054905081101561160a576000600960008581526020019081526020016000206001838154811061120e5761120d614055565b5b906000526020600020016040516112259190614183565b908152602001604051809103902060020154905060006001838154811061124f5761124e614055565b5b906000526020600020018054611264906140b3565b80601f0160208091040260200160405190810160405280929190818152602001828054611290906140b3565b80156112dd5780601f106112b2576101008083540402835291602001916112dd565b820191906000526020600020905b8154815290600101906020018083116112c057829003601f168201915b505050505090506004600184815481106112fa576112f9614055565b5b906000526020600020016040516113119190614183565b908152602001604051809103902060009054906101000a900460ff16156113ec5761133c8183612111565b156113e757600061134e828488612159565b905080600d60008881526020019081526020016000208360405161137291906143eb565b9081526020016040518091039020600082015181600001908051906020019061139c92919061351b565b506020820151816001015560408201518160020190805190602001906113c392919061351b565b50606082015181600301556080820151816004015560a08201518160050155905050505b6115f5565b6113f681836122d4565b156114105760006114088284886122ff565b9050506115f4565b83600b60008781526020019081526020016000206001015413156115f357600073__FixidityLib___________________________63b93ea812600b600089815260200190815260200160002060010154876040518363ffffffff1660e01b815260040161147f929190613fea565b602060405180830381865af415801561149c573d6000803e3d6000fd5b505050506040513d601f19601f820116820180604052508101906114c09190614028565b9050600073__FixidityLib___________________________63f598423683866040518363ffffffff1660e01b81526004016114fd929190613fea565b602060405180830381865af415801561151a573d6000803e3d6000fd5b505050506040513d601f19601f8201168201806040525081019061153e9190614028565b905060008113156115f05760006115578483878b610c2e565b905080600d60008a81526020019081526020016000208560405161157b91906143eb565b908152602001604051809103902060008201518160000190805190602001906115a592919061351b565b506020820151816001015560408201518160020190805190602001906115cc92919061351b565b50606082015181600301556080820151816004015560a08201518160050155905050505b50505b5b5b50508080611602906141c9565b9150506111d8565b5060005b60018054905081101561177a576000600960008581526020019081526020016000206001838154811061164457611643614055565b5b9060005260206000200160405161165b9190614183565b908152602001604051809103902060020154905060006001838154811061168557611684614055565b5b90600052602060002001805461169a906140b3565b80601f01602080910402602001604051908101604052809291908181526020018280546116c6906140b3565b80156117135780601f106116e857610100808354040283529160200191611713565b820191906000526020600020905b8154815290600101906020018083116116f657829003601f168201915b5050505050905060048160405161172a91906143eb565b908152602001604051809103902060009054906101000a900460ff161561175a5761175581836126bb565b611765565b6117648183612967565b5b50508080611772906141c9565b91505061160e565b50505b806000819055506001600f546117939190614402565b600f8190555050565b600060405180606001604052808681526020018581526020018481525090508060096000848152602001908152602001600020866040516117dd91906143eb565b9081526020016040518091039020600082015181600001908051906020019061180792919061351b565b5060208201518160010155604082015181600201559050506000600f54036118f157600060048660405161183b91906143eb565b908152602001604051809103902060006101000a81548160ff021916908315150217905550600060058660405161187291906143eb565b908152602001604051809103902081905550600060068660405161189691906143eb565b90815260200160405180910390208190555060006007866040516118ba91906143eb565b90815260200160405180910390208190555060006008866040516118de91906143eb565b9081526020016040518091039020819055505b60038560405161190191906143eb565b908152602001604051809103902060009054906101000a900460ff16611a5c5760018590806001815401808255809150506001900390600052602060002001600090919091909150908051906020019061195c92919061351b565b50600160038660405161196f91906143eb565b908152602001604051809103902060006101000a81548160ff02191690831515021790555060006004866040516119a691906143eb565b908152602001604051809103902060006101000a81548160ff02191690831515021790555060006005866040516119dd91906143eb565b9081526020016040518091039020819055506000600686604051611a0191906143eb565b9081526020016040518091039020819055506000600786604051611a2591906143eb565b9081526020016040518091039020819055506000600886604051611a4991906143eb565b9081526020016040518091039020819055505b5050505050565b606060006060600080600080600d600089815260200190815260200160002089604051611a9091906143eb565b90815260200160405180910390206040518060c0016040529081600082018054611ab9906140b3565b80601f0160208091040260200160405190810160405280929190818152602001828054611ae5906140b3565b8015611b325780601f10611b0757610100808354040283529160200191611b32565b820191906000526020600020905b815481529060010190602001808311611b1557829003601f168201915b5050505050815260200160018201548152602001600282018054611b55906140b3565b80601f0160208091040260200160405190810160405280929190818152602001828054611b81906140b3565b8015611bce5780601f10611ba357610100808354040283529160200191611bce565b820191906000526020600020905b815481529060010190602001808311611bb157829003601f168201915b5050505050815260200160038201548152602001600482015481526020016005820154815250509050806000015181602001518260400151836060015184608001518560a00151965096509650965096509650509295509295509295565b6000604051806040016040528084815260200183815250905080600a6000868152602001908152602001600020600082015181600001556020820151816001015590505050505050565b60006040518061014001604052808c81526020018b81526020018a815260200189815260200188815260200187815260200186815260200185815260200184815260200183815250905080600e60008e81526020019081526020016000208c604051611ce291906143eb565b90815260200160405180910390206000820151816000019080519060200190611d0c92919061351b565b506020820151816001015560408201518160020155606082015181600301556080820151816004015560a0820151816005015560c0820151816006015560e0820151816007015561010082015181600801556101208201518160090155905050505050505050505050505050565b6000806000806000806000600c60008981526020019081526020016000206040518060c001604052908160008201548152602001600182015481526020016002820154815260200160038201548152602001600482015481526020016005820154815250509050806000015181602001518260400151836060015184608001518560a001519650965096509650965096505091939550919395565b606060008060006009600086815260200190815260200160002086604051611e3d91906143eb565b9081526020016040518091039020604051806060016040529081600082018054611e66906140b3565b80601f0160208091040260200160405190810160405280929190818152602001828054611e92906140b3565b8015611edf5780601f10611eb457610100808354040283529160200191611edf565b820191906000526020600020905b815481529060010190602001808311611ec257829003601f168201915b50505050508152602001600182015481526020016002820154815250509050806000015181602001518260400151935093509350509250925092565b6060600080600080600080600080600080600e60008d81526020019081526020016000208d604051611f4d91906143eb565b908152602001604051809103902060405180610140016040529081600082018054611f77906140b3565b80601f0160208091040260200160405190810160405280929190818152602001828054611fa3906140b3565b8015611ff05780601f10611fc557610100808354040283529160200191611ff0565b820191906000526020600020905b815481529060010190602001808311611fd357829003601f168201915b5050505050815260200160018201548152602001600282015481526020016003820154815260200160048201548152602001600582015481526020016006820154815260200160078201548152602001600882015481526020016009820154815250509050806000015181602001518260400151836060015184608001518560a001518660c001518760e001518861010001518961012001519a509a509a509a509a509a509a509a509a509a50509295989b9194979a5092959850565b600080600090506000806000806000806120c689612d5e565b8096508197508298505050506120dd600054612d5e565b8093508194508295505050508160ff168560ff16146121025760019650886000819055505b86975050505050505050919050565b6000806065606460058660405161212891906143eb565b9081526020016040518091039020546121419190614487565b61214b91906142a3565b905080831391505092915050565b612161613484565b612169613484565b600060068660405161217b91906143eb565b9081526020016040518091039020549050600073__FixidityLib___________________________633c4308a883886040518363ffffffff1660e01b81526004016121c7929190613fea565b602060405180830381865af41580156121e4573d6000803e3d6000fd5b505050506040513d601f19601f820116820180604052508101906122089190614028565b905080600b6000878152602001908152602001600020600201541261223a5761223387838888610c2e565b925061226d565b85600b60008781526020019081526020016000206002015461225c9190614487565b915061226a87838888610c2e565b92505b600060048860405161227f91906143eb565b908152602001604051809103902060006101000a81548160ff021916908315150217905550856007886040516122b591906143eb565b9081526020016040518091039020819055508293505050509392505050565b60006005836040516122e691906143eb565b9081526020016040518091039020548212905092915050565b612307613484565b6000600e60008481526020019081526020016000208560405161232a91906143eb565b908152602001604051809103902060405180610140016040529081600082018054612354906140b3565b80601f0160208091040260200160405190810160405280929190818152602001828054612380906140b3565b80156123cd5780601f106123a2576101008083540402835291602001916123cd565b820191906000526020600020905b8154815290600101906020018083116123b057829003601f168201915b50505050508152602001600182015481526020016002820154815260200160038201548152602001600482015481526020016005820154815260200160068201548152602001600782015481526020016008820154815260200160098201548152505090506000600960008581526020019081526020016000208660405161245591906143eb565b908152602001604051809103902060405180606001604052908160008201805461247e906140b3565b80601f01602080910402602001604051908101604052809291908181526020018280546124aa906140b3565b80156124f75780601f106124cc576101008083540402835291602001916124f7565b820191906000526020600020905b8154815290600101906020018083116124da57829003601f168201915b505050505081526020016001820154815260200160028201548152505090506000826020015190506000600180549050600b6000888152602001908152602001600020600401546125489190614487565b9050600073__FixidityLib___________________________63f59842368386604001516040518363ffffffff1660e01b8152600401612589929190613fea565b602060405180830381865af41580156125a6573d6000803e3d6000fd5b505050506040513d601f19601f820116820180604052508101906125ca9190614028565b90506000600a600c836125dd91906142a3565b6125e79190614487565b9050600081856125f791906144f1565b905060006126078c838d8d610381565b90508a60058d60405161261a91906143eb565b9081526020016040518091039020819055508160068d60405161263d91906143eb565b9081526020016040518091039020819055508a60088d60405161266091906143eb565b908152602001604051809103902081905550600160048d60405161268491906143eb565b908152602001604051809103902060006101000a81548160ff02191690831515021790555080985050505050505050509392505050565b6000606473__FixidityLib___________________________632179bb6c6040518163ffffffff1660e01b8152600401602060405180830381865af4158015612708573d6000803e3d6000fd5b505050506040513d601f19601f8201168201806040525081019061272c9190614028565b604661273891906142a3565b6127429190614487565b905073__FixidityLib___________________________633c4308a860058560405161276e91906143eb565b908152602001604051809103902054836040518363ffffffff1660e01b815260040161279b929190613fea565b602060405180830381865af41580156127b8573d6000803e3d6000fd5b505050506040513d601f19601f820116820180604052508101906127dc9190614028565b82121561296257600073__FixidityLib___________________________63b93ea81260088660405161280f91906143eb565b908152602001604051809103902054856040518363ffffffff1660e01b815260040161283c929190613fea565b602060405180830381865af4158015612859573d6000803e3d6000fd5b505050506040513d601f19601f8201168201806040525081019061287d9190614028565b905060006064603273__FixidityLib___________________________63a5f3c23b87866040518363ffffffff1660e01b81526004016128be929190613fea565b602060405180830381865af41580156128db573d6000803e3d6000fd5b505050506040513d601f19601f820116820180604052508101906128ff9190614028565b61290991906142a3565b6129139190614487565b905060058560405161292591906143eb565b90815260200160405180910390205481121561295f578060058660405161294c91906143eb565b9081526020016040518091039020819055505b50505b505050565b600060078360405161297991906143eb565b90815260200160405180910390205403612b62578060078360405161299e91906143eb565b908152602001604051809103902081905550600073__FixidityLib___________________________63b93ea81273__FixidityLib___________________________632179bb6c6040518163ffffffff1660e01b8152600401602060405180830381865af4158015612a15573d6000803e3d6000fd5b505050506040513d601f19601f82011682018060405250810190612a399190614028565b6011546040518363ffffffff1660e01b8152600401612a59929190613fea565b602060405180830381865af4158015612a76573d6000803e3d6000fd5b505050506040513d601f19601f82011682018060405250810190612a9a9190614028565b9050600073__FixidityLib___________________________633c4308a8600786604051612ac891906143eb565b908152602001604051809103902054846040518363ffffffff1660e01b8152600401612af5929190613fea565b602060405180830381865af4158015612b12573d6000803e3d6000fd5b505050506040513d601f19601f82011682018060405250810190612b369190614028565b905080600585604051612b4991906143eb565b9081526020016040518091039020819055505050612d5a565b600782604051612b7291906143eb565b908152602001604051809103902054811315612d595780600783604051612b9991906143eb565b908152602001604051809103902081905550600073__FixidityLib___________________________63b93ea81273__FixidityLib___________________________632179bb6c6040518163ffffffff1660e01b8152600401602060405180830381865af4158015612c10573d6000803e3d6000fd5b505050506040513d601f19601f82011682018060405250810190612c349190614028565b6011546040518363ffffffff1660e01b8152600401612c54929190613fea565b602060405180830381865af4158015612c71573d6000803e3d6000fd5b505050506040513d601f19601f82011682018060405250810190612c959190614028565b9050600073__FixidityLib___________________________633c4308a8600786604051612cc391906143eb565b908152602001604051809103902054846040518363ffffffff1660e01b8152600401612cf0929190613fea565b602060405180830381865af4158015612d0d573d6000803e3d6000fd5b505050506040513d601f19601f82011682018060405250810190612d319190614028565b905080600585604051612d4491906143eb565b90815260200160405180910390208190555050505b5b5050565b600080600080849050612d7081612da3565b8095508192505050612d828185613012565b8094508192505050612d9381613398565b8093508192505050509193909250565b6000806000808493506107b292506301e133806002612dc29190614585565b841015612e0b576301e1338084612dd991906145df565b91506301e1338082612deb9190614585565b84612df69190614610565b93508183612e049190614652565b925061300b565b6301e133806002612e1c9190614585565b84612e279190614610565b93506107b492506334aadc808410612f3a576334aadc8084612e499190614610565b9350601c83612e589190614652565b92506402f060598084612e6b91906145df565b91506402f060598082612e7e9190614585565b84612e899190614610565b935061019082612e999190614585565b83612ea49190614652565b9250612eaf836133e2565b90508063ffffffff168410612ee2578063ffffffff1684612ed09190614610565b9350600183612edf9190614652565b92505b612eeb83613419565b612f395763bc17c20084612eff91906145df565b915063bc17c20082612f119190614585565b84612f1c9190614610565b9350606482612f2b9190614585565b83612f369190614652565b92505b5b6307861f8084612f4a91906145df565b91506307861f8082612f5c9190614585565b84612f679190614610565b9350600482612f769190614585565b83612f819190614652565b9250612f8c836133e2565b90508063ffffffff168410612fbf578063ffffffff1684612fad9190614610565b9350600183612fbc9190614652565b92505b612fc883613419565b61300a576301e1338084612fdc91906145df565b91506301e1338082612fee9190614585565b84612ff99190614610565b935081836130079190614652565b92505b5b5050915091565b60008061301d6135a1565b6130256135c4565b85935061303185613419565b1561319c57604051806101a00160405280600060ff168152602001601f60ff168152602001601d60ff168152602001601f60ff168152602001601e60ff168152602001601f60ff168152602001601e60ff168152602001601f60ff168152602001601f60ff168152602001601e60ff168152602001601f60ff168152602001601e60ff168152602001601f60ff168152509150604051806101a00160405280600063ffffffff1681526020016228de8063ffffffff168152602001624f1a0063ffffffff1681526020016277f88063ffffffff168152602001629f858063ffffffff16815260200162c8640063ffffffff16815260200162eff10063ffffffff168152602001630118cf8063ffffffff168152602001630141ae0063ffffffff1681526020016301693b0063ffffffff168152602001630192198063ffffffff1681526020016301b9a68063ffffffff1681526020016301e2850063ffffffff1681525090506132fe565b604051806101a00160405280600060ff168152602001601f60ff168152602001601c60ff168152602001601f60ff168152602001601e60ff168152602001601f60ff168152602001601e60ff168152602001601f60ff168152602001601f60ff168152602001601e60ff168152602001601f60ff168152602001601e60ff168152602001601f60ff168152509150604051806101a00160405280600063ffffffff1681526020016228de8063ffffffff168152602001624dc88063ffffffff1681526020016276a70063ffffffff168152602001629e340063ffffffff16815260200162c7128063ffffffff16815260200162ee9f8063ffffffff1681526020016301177e0063ffffffff1681526020016301405c8063ffffffff168152602001630167e98063ffffffff168152602001630190c80063ffffffff1681526020016301b8550063ffffffff1681526020016301e1338063ffffffff1681525090505b6000600190505b600d8160ff16101561338e57818160ff16600d811061332757613326614055565b5b602002015163ffffffff1685101561337b578093508160018261334a9190614697565b60ff16600d811061335e5761335d614055565b5b602002015163ffffffff16856133749190614610565b945061338e565b8080613386906146cb565b915050613305565b5050509250929050565b600080600083925062015180836133af91906145df565b905062015180816133c09190614585565b836133cb9190614610565b92506001816133da9190614402565b915050915091565b60006133ed82613419565b1561340c57620151806301e133806134059190614402565b9050613414565b6301e1338090505b919050565b60008060048361342991906146f4565b61ffff161461343b576000905061347f565b60006101908361344b91906146f4565b61ffff16148061346c5750600060648361346591906146f4565b61ffff1614155b1561347a576001905061347f565b600090505b919050565b6040518060c001604052806060815260200160008152602001606081526020016000815260200160008152602001600081525090565b5080546134c6906140b3565b6000825580601f106134d857506134f7565b601f0160209004906000526020600020908101906134f691906135e7565b5b50565b50805460008255906000526020600020908101906135189190613604565b50565b828054613527906140b3565b90600052602060002090601f0160209004810192826135495760008555613590565b82601f1061356257805160ff1916838001178555613590565b82800160010185558215613590579182015b8281111561358f578251825591602001919060010190613574565b5b50905061359d91906135e7565b5090565b604051806101a00160405280600d90602082028036833780820191505090505090565b604051806101a00160405280600d90602082028036833780820191505090505090565b5b808211156136005760008160009055506001016135e8565b5090565b5b80821115613624576000818161361b91906134ba565b50600101613605565b5090565b6000604051905090565b600080fd5b600080fd5b600080fd5b600080fd5b6000601f19601f8301169050919050565b7f4e487b7100000000000000000000000000000000000000000000000000000000600052604160045260246000fd5b61368f82613646565b810181811067ffffffffffffffff821117156136ae576136ad613657565b5b80604052505050565b60006136c1613628565b90506136cd8282613686565b919050565b600067ffffffffffffffff8211156136ed576136ec613657565b5b6136f682613646565b9050602081019050919050565b82818337600083830152505050565b6000613725613720846136d2565b6136b7565b90508281526020810184848401111561374157613740613641565b5b61374c848285613703565b509392505050565b600082601f8301126137695761376861363c565b5b8135613779848260208601613712565b91505092915050565b6000819050919050565b61379581613782565b81146137a057600080fd5b50565b6000813590506137b28161378c565b92915050565b6000819050919050565b6137cb816137b8565b81146137d657600080fd5b50565b6000813590506137e8816137c2565b92915050565b6000806000806080858703121561380857613807613632565b5b600085013567ffffffffffffffff81111561382657613825613637565b5b61383287828801613754565b9450506020613843878288016137a3565b9350506040613854878288016137a3565b9250506060613865878288016137d9565b91505092959194509250565b600081519050919050565b600082825260208201905092915050565b60005b838110156138ab578082015181840152602081019050613890565b838111156138ba576000848401525b50505050565b60006138cb82613871565b6138d5818561387c565b93506138e581856020860161388d565b6138ee81613646565b840191505092915050565b613902816137b8565b82525050565b61391181613782565b82525050565b600060c083016000830151848203600086015261393482826138c0565b915050602083015161394960208601826138f9565b506040830151848203604086015261396182826138c0565b91505060608301516139766060860182613908565b5060808301516139896080860182613908565b5060a083015161399c60a0860182613908565b508091505092915050565b600060208201905081810360008301526139c18184613917565b905092915050565b6000602082840312156139df576139de613632565b5b60006139ed848285016137d9565b91505092915050565b6139ff81613782565b82525050565b6000604082019050613a1a60008301856139f6565b613a2760208301846139f6565b9392505050565b600080600080600080600060e0888a031215613a4d57613a4c613632565b5b6000613a5b8a828b016137d9565b9750506020613a6c8a828b016137a3565b9650506040613a7d8a828b016137a3565b9550506060613a8e8a828b016137a3565b9450506080613a9f8a828b016137a3565b93505060a0613ab08a828b016137a3565b92505060c0613ac18a828b016137a3565b91505092959891949750929550565b600060a082019050613ae560008301886139f6565b613af260208301876139f6565b613aff60408301866139f6565b613b0c60608301856139f6565b613b1960808301846139f6565b9695505050505050565b60008060408385031215613b3a57613b39613632565b5b6000613b48858286016137d9565b9250506020613b59858286016137d9565b9150509250929050565b60008060008060008060c08789031215613b8057613b7f613632565b5b6000613b8e89828a016137d9565b9650506020613b9f89828a016137a3565b9550506040613bb089828a016137a3565b9450506060613bc189828a016137a3565b9350506080613bd289828a016137a3565b92505060a0613be389828a016137a3565b9150509295509295509295565b600082825260208201905092915050565b6000613c0c82613871565b613c168185613bf0565b9350613c2681856020860161388d565b613c2f81613646565b840191505092915050565b60006020820190508181036000830152613c548184613c01565b905092915050565b60008060408385031215613c7357613c72613632565b5b600083013567ffffffffffffffff811115613c9157613c90613637565b5b613c9d85828601613754565b9250506020613cae858286016137d9565b9150509250929050565b613cc1816137b8565b82525050565b600060c0820190508181036000830152613ce18189613c01565b9050613cf06020830188613cb8565b8181036040830152613d028187613c01565b9050613d1160608301866139f6565b613d1e60808301856139f6565b613d2b60a08301846139f6565b979650505050505050565b600080600060608486031215613d4f57613d4e613632565b5b6000613d5d868287016137d9565b9350506020613d6e868287016137a3565b9250506040613d7f868287016137a3565b9150509250925092565b60008060008060008060008060008060006101608c8e031215613daf57613dae613632565b5b6000613dbd8e828f016137d9565b9b505060208c013567ffffffffffffffff811115613dde57613ddd613637565b5b613dea8e828f01613754565b9a50506040613dfb8e828f016137a3565b9950506060613e0c8e828f016137a3565b9850506080613e1d8e828f016137a3565b97505060a0613e2e8e828f016137a3565b96505060c0613e3f8e828f016137a3565b95505060e0613e508e828f016137a3565b945050610100613e628e828f016137a3565b935050610120613e748e828f016137a3565b925050610140613e868e828f016137a3565b9150509295989b509295989b9093969950565b600060c082019050613eae60008301896139f6565b613ebb60208301886139f6565b613ec860408301876139f6565b613ed560608301866139f6565b613ee260808301856139f6565b613eef60a08301846139f6565b979650505050505050565b60006060820190508181036000830152613f148186613c01565b9050613f2360208301856139f6565b613f3060408301846139f6565b949350505050565b6000610140820190508181036000830152613f53818d613c01565b9050613f62602083018c6139f6565b613f6f604083018b6139f6565b613f7c606083018a6139f6565b613f8960808301896139f6565b613f9660a08301886139f6565b613fa360c08301876139f6565b613fb060e08301866139f6565b613fbe6101008301856139f6565b613fcc6101208301846139f6565b9b9a5050505050505050505050565b613fe481613782565b82525050565b6000604082019050613fff6000830185613fdb565b61400c6020830184613fdb565b9392505050565b6000815190506140228161378c565b92915050565b60006020828403121561403e5761403d613632565b5b600061404c84828501614013565b91505092915050565b7f4e487b7100000000000000000000000000000000000000000000000000000000600052603260045260246000fd5b7f4e487b7100000000000000000000000000000000000000000000000000000000600052602260045260246000fd5b600060028204905060018216806140cb57607f821691505b6020821081036140de576140dd614084565b5b50919050565b600081905092915050565b60008190508160005260206000209050919050565b60008154614111816140b3565b61411b81866140e4565b9450600182166000811461413657600181146141475761417a565b60ff1983168652818601935061417a565b614150856140ef565b60005b8381101561417257815481890152600182019150602081019050614153565b838801955050505b50505092915050565b600061418f8284614104565b915081905092915050565b7f4e487b7100000000000000000000000000000000000000000000000000000000600052601160045260246000fd5b60006141d4826137b8565b91507fffffffffffffffffffffffffffffffffffffffffffffffffffffffffffffffff82036142065761420561419a565b5b600182019050919050565b7f53616d65206d6f6e74682e202054696d65206e6f74207965742072656163686560008201527f6400000000000000000000000000000000000000000000000000000000000000602082015250565b600061426d602183613bf0565b915061427882614211565b604082019050919050565b6000602082019050818103600083015261429c81614260565b9050919050565b60006142ae82613782565b91506142b983613782565b9250827f7fffffffffffffffffffffffffffffffffffffffffffffffffffffffffffffff04821160008413600084131616156142f8576142f761419a565b5b817f800000000000000000000000000000000000000000000000000000000000000005831260008412600084131616156143355761433461419a565b5b827f800000000000000000000000000000000000000000000000000000000000000005821260008413600084121616156143725761437161419a565b5b827f7fffffffffffffffffffffffffffffffffffffffffffffffffffffffffffffff05821260008412600084121616156143af576143ae61419a565b5b828202905092915050565b60006143c582613871565b6143cf81856140e4565b93506143df81856020860161388d565b80840191505092915050565b60006143f782846143ba565b915081905092915050565b600061440d826137b8565b9150614418836137b8565b9250827fffffffffffffffffffffffffffffffffffffffffffffffffffffffffffffffff0382111561444d5761444c61419a565b5b828201905092915050565b7f4e487b7100000000000000000000000000000000000000000000000000000000600052601260045260246000fd5b600061449282613782565b915061449d83613782565b9250826144ad576144ac614458565b5b600160000383147f8000000000000000000000000000000000000000000000000000000000000000831416156144e6576144e561419a565b5b828205905092915050565b60006144fc82613782565b915061450783613782565b9250827f8000000000000000000000000000000000000000000000000000000000000000018212600084121516156145425761454161419a565b5b827f7fffffffffffffffffffffffffffffffffffffffffffffffffffffffffffffff01821360008412161561457a5761457961419a565b5b828203905092915050565b6000614590826137b8565b915061459b836137b8565b9250817fffffffffffffffffffffffffffffffffffffffffffffffffffffffffffffffff04831182151516156145d4576145d361419a565b5b828202905092915050565b60006145ea826137b8565b91506145f5836137b8565b92508261460557614604614458565b5b828204905092915050565b600061461b826137b8565b9150614626836137b8565b9250828210156146395761463861419a565b5b828203905092915050565b600061ffff82169050919050565b600061465d82614644565b915061466883614644565b92508261ffff0382111561467f5761467e61419a565b5b828201905092915050565b600060ff82169050919050565b60006146a28261468a565b91506146ad8361468a565b9250828210156146c0576146bf61419a565b5b828203905092915050565b60006146d68261468a565b915060ff82036146e9576146e861419a565b5b600182019050919050565b60006146ff82614644565b915061470a83614644565b92508261471a57614719614458565b5b82820690509291505056fe436f6e747261637420737461746520686173206e6f74206265656e20696e697469616c697a656420796574436f6e747261637420737461746520686173206265656e207265696e697469616c697a6564a2646970667358221220feb5082290dfab0cea64aacb28a895d36730ea474a2d17d16da07fc14dfb8d3064736f6c634300080d0033",
  "deployedBytecode": "0x608060405234801561001057600080fd5b50600436106101005760003560e01c8063a444f5e911610097578063ceb224cf11610066578063ceb224cf146102c5578063d6171b70146102e1578063ea62e08114610316578063f2027c251461034857610100565b8063a444f5e91461023c578063a5f86e9b14610258578063c4f5a5a914610274578063c4fa8bcc146102a957610100565b806338f18f0b116100d357806338f18f0b146101b65780634395f558146101d25780634571236b146101ee5780634f8ac98d1461020c57610100565b806314ea6c19146101055780631eed50501461013557806322bc88f714610166578063384f4a6214610182575b600080fd5b61011f600480360381019061011a91906137ee565b610381565b60405161012c91906139a7565b60405180910390f35b61014f600480360381019061014a91906139c9565b61047a565b60405161015d929190613a05565b60405180910390f35b610180600480360381019061017b9190613a2e565b6104c7565b005b61019c600480360381019061019791906139c9565b610555565b6040516101ad959493929190613ad0565b60405180910390f35b6101d060048036038101906101cb9190613b23565b6105dd565b005b6101ec60048036038101906101e79190613b63565b610611565b005b6101f661068e565b6040516102039190613c3a565b60405180910390f35b610226600480360381019061022191906137ee565b610c2e565b60405161023391906139a7565b60405180910390f35b610256600480360381019061025191906139c9565b610d27565b005b610272600480360381019061026d91906137ee565b61179c565b005b61028e60048036038101906102899190613c5c565b611a63565b6040516102a096959493929190613cc7565b60405180910390f35b6102c360048036038101906102be9190613d36565b611c2c565b005b6102df60048036038101906102da9190613d89565b611c76565b005b6102fb60048036038101906102f691906139c9565b611d7a565b60405161030d96959493929190613e99565b60405180910390f35b610330600480360381019061032b9190613c5c565b611e15565b60405161033f93929190613efa565b60405180910390f35b610362600480360381019061035d9190613c5c565b611f1b565b6040516103789a99989796959493929190613f38565b60405180910390f35b610389613484565b600073__FixidityLib___________________________633c4308a886866040518363ffffffff1660e01b81526004016103c4929190613fea565b602060405180830381865af41580156103e1573d6000803e3d6000fd5b505050506040513d601f19601f820116820180604052508101906104059190614028565b905060006040518060c001604052808881526020018581526020016040518060400160405280600481526020017f53656c6c0000000000000000000000000000000000000000000000000000000081525081526020018781526020018681526020018381525090508092505050949350505050565b6000806000600a6000858152602001908152602001600020604051806040016040529081600082015481526020016001820154815250509050806000015181602001519250925050915091565b60006040518060c0016040528088815260200187815260200186815260200185815260200184815260200183815250905080600c60008a8152602001908152602001600020600082015181600001556020820151816001015560408201518160020155606082015181600301556080820151816004015560a082015181600501559050505050505050505050565b600080600080600080600b60008881526020019081526020016000206040518060a001604052908160008201548152602001600182015481526020016002820154815260200160038201548152602001600482015481525050905080600001518160200151826040015183606001518460800151955095509550955095505091939590929450565b81600f8190555060028190806001815401808255809150506001900390600052602060002001600090919091909150555050565b60006040518060a0016040528087815260200186815260200185815260200184815260200183815250905080600b6000898152602001908152602001600020600082015181600001556020820151816001015560408201518160020155606082015181600301556080820151816004015590505050505050505050565b606060006040518060200160405280600081525090506000600280549050036106d1576040518060600160405280602b8152602001614726602b91399050610c27565b60005b600180549050811015610886576003600182815481106106f7576106f6614055565b5b9060005260206000200160405161070e9190614183565b908152602001604051809103902060006101000a81549060ff021916905560046001828154811061074257610741614055565b5b906000526020600020016040516107599190614183565b908152602001604051809103902060006101000a81549060ff021916905560056001828154811061078d5761078c614055565b5b906000526020600020016040516107a49190614183565b9081526020016040518091039020600090556006600182815481106107cc576107cb614055565b5b906000526020600020016040516107e39190614183565b90815260200160405180910390206000905560076001828154811061080b5761080a614055565b5b906000526020600020016040516108229190614183565b90815260200160405180910390206000905560086001828154811061084a57610849614055565b5b906000526020600020016040516108619190614183565b908152602001604051809103902060009055808061087e906141c9565b9150506106d4565b5060005b600280549050811015610bf55760005b600180549050811015610ab95760096000600284815481106108bf576108be614055565b5b90600052602060002001548152602001908152602001600020600182815481106108ec576108eb614055565b5b906000526020600020016040516109039190614183565b90815260200160405180910390206000808201600061092291906134ba565b600182016000905560028201600090555050600e60006002848154811061094c5761094b614055565b5b906000526020600020015481526020019081526020016000206001828154811061097957610978614055565b5b906000526020600020016040516109909190614183565b9081526020016040518091039020600080820160006109af91906134ba565b6001820160009055600282016000905560038201600090556004820160009055600582016000905560068201600090556007820160009055600882016000905560098201600090555050600d600060028481548110610a1157610a10614055565b5b9060005260206000200154815260200190815260200160002060018281548110610a3e57610a3d614055565b5b90600052602060002001604051610a559190614183565b908152602001604051809103902060008082016000610a7491906134ba565b6001820160009055600282016000610a8c91906134ba565b60038201600090556004820160009055600582016000905550508080610ab1906141c9565b91505061089a565b50600a600060028381548110610ad257610ad1614055565b5b9060005260206000200154815260200190815260200160002060008082016000905560018201600090555050600b600060028381548110610b1657610b15614055565b5b9060005260206000200154815260200190815260200160002060008082016000905560018201600090556002820160009055600382016000905560048201600090555050600c600060028381548110610b7257610b71614055565b5b90600052602060002001548152602001908152602001600020600080820160009055600182016000905560028201600090556003820160009055600482016000905560058201600090555050600060028281548110610bd457610bd3614055565b5b90600052602060002001819055508080610bed906141c9565b91505061088a565b506000808190555060016000610c0b91906134fa565b6040518060600160405280602581526020016147516025913990505b8091505090565b610c36613484565b600073__FixidityLib___________________________633c4308a886866040518363ffffffff1660e01b8152600401610c71929190613fea565b602060405180830381865af4158015610c8e573d6000803e3d6000fd5b505050506040513d601f19601f82011682018060405250810190610cb29190614028565b905060006040518060c001604052808881526020018581526020016040518060400160405280600381526020017f427579000000000000000000000000000000000000000000000000000000000081525081526020018781526020018681526020018381525090508092505050949350505050565b610d30816120ad565b610d6f576040517f08c379a0000000000000000000000000000000000000000000000000000000008152600401610d6690614283565b60405180910390fd5b6002819080600181540180825580915050600190039060005260206000200160009091909190915055600f6000815480929190610dab906141c9565b91905055506000600f540361113f57600073__FixidityLib___________________________63f5984236600c60008581526020019081526020016000206000015473__FixidityLib___________________________632179bb6c6040518163ffffffff1660e01b8152600401602060405180830381865af4158015610e36573d6000803e3d6000fd5b505050506040513d601f19601f82011682018060405250810190610e5a9190614028565b600180549050610e6a91906142a3565b6040518363ffffffff1660e01b8152600401610e87929190613fea565b602060405180830381865af4158015610ea4573d6000803e3d6000fd5b505050506040513d601f19601f82011682018060405250810190610ec89190614028565b905060005b6001805490508110156111385760006009600085815260200190815260200160002060018381548110610f0357610f02614055565b5b90600052602060002001604051610f1a9190614183565b9081526020016040518091039020604051806060016040529081600082018054610f43906140b3565b80601f0160208091040260200160405190810160405280929190818152602001828054610f6f906140b3565b8015610fbc5780601f10610f9157610100808354040283529160200191610fbc565b820191906000526020600020905b815481529060010190602001808311610f9f57829003601f168201915b505050505081526020016001820154815260200160028201548152505090506000816000015190506000826040015190506000600373__FixidityLib___________________________63f59842368887604001516040518363ffffffff1660e01b815260040161102e929190613fea565b602060405180830381865af415801561104b573d6000803e3d6000fd5b505050506040513d601f19601f8201168201806040525081019061106f9190614028565b61107991906142a3565b905060006110898483858b610c2e565b905080600d60008a8152602001908152602001600020856040516110ad91906143eb565b908152602001604051809103902060008201518160000190805190602001906110d792919061351b565b506020820151816001015560408201518160020190805190602001906110fe92919061351b565b50606082015181600301556080820151816004015560a0820151816005015590505050505050508080611130906141c9565b915050610ecd565b505061177d565b600073__FixidityLib___________________________633c4308a8601054600c6000868152602001908152602001600020600501546040518363ffffffff1660e01b8152600401611192929190613fea565b602060405180830381865af41580156111af573d6000803e3d6000fd5b505050506040513d601f19601f820116820180604052508101906111d39190614028565b905060005b60018054905081101561160a576000600960008581526020019081526020016000206001838154811061120e5761120d614055565b5b906000526020600020016040516112259190614183565b908152602001604051809103902060020154905060006001838154811061124f5761124e614055565b5b906000526020600020018054611264906140b3565b80601f0160208091040260200160405190810160405280929190818152602001828054611290906140b3565b80156112dd5780601f106112b2576101008083540402835291602001916112dd565b820191906000526020600020905b8154815290600101906020018083116112c057829003601f168201915b505050505090506004600184815481106112fa576112f9614055565b5b906000526020600020016040516113119190614183565b908152602001604051809103902060009054906101000a900460ff16156113ec5761133c8183612111565b156113e757600061134e828488612159565b905080600d60008881526020019081526020016000208360405161137291906143eb565b9081526020016040518091039020600082015181600001908051906020019061139c92919061351b565b506020820151816001015560408201518160020190805190602001906113c392919061351b565b50606082015181600301556080820151816004015560a08201518160050155905050505b6115f5565b6113f681836122d4565b156114105760006114088284886122ff565b9050506115f4565b83600b60008781526020019081526020016000206001015413156115f357600073__FixidityLib___________________________63b93ea812600b600089815260200190815260200160002060010154876040518363ffffffff1660e01b815260040161147f929190613fea565b602060405180830381865af415801561149c573d6000803e3d6000fd5b505050506040513d601f19601f820116820180604052508101906114c09190614028565b9050600073__FixidityLib___________________________63f598423683866040518363ffffffff1660e01b81526004016114fd929190613fea565b602060405180830381865af415801561151a573d6000803e3d6000fd5b505050506040513d601f19601f8201168201806040525081019061153e9190614028565b905060008113156115f05760006115578483878b610c2e565b905080600d60008a81526020019081526020016000208560405161157b91906143eb565b908152602001604051809103902060008201518160000190805190602001906115a592919061351b565b506020820151816001015560408201518160020190805190602001906115cc92919061351b565b50606082015181600301556080820151816004015560a08201518160050155905050505b50505b5b5b50508080611602906141c9565b9150506111d8565b5060005b60018054905081101561177a576000600960008581526020019081526020016000206001838154811061164457611643614055565b5b9060005260206000200160405161165b9190614183565b908152602001604051809103902060020154905060006001838154811061168557611684614055565b5b90600052602060002001805461169a906140b3565b80601f01602080910402602001604051908101604052809291908181526020018280546116c6906140b3565b80156117135780601f106116e857610100808354040283529160200191611713565b820191906000526020600020905b8154815290600101906020018083116116f657829003601f168201915b5050505050905060048160405161172a91906143eb565b908152602001604051809103902060009054906101000a900460ff161561175a5761175581836126bb565b611765565b6117648183612967565b5b50508080611772906141c9565b91505061160e565b50505b806000819055506001600f546117939190614402565b600f8190555050565b600060405180606001604052808681526020018581526020018481525090508060096000848152602001908152602001600020866040516117dd91906143eb565b9081526020016040518091039020600082015181600001908051906020019061180792919061351b565b5060208201518160010155604082015181600201559050506000600f54036118f157600060048660405161183b91906143eb565b908152602001604051809103902060006101000a81548160ff021916908315150217905550600060058660405161187291906143eb565b908152602001604051809103902081905550600060068660405161189691906143eb565b90815260200160405180910390208190555060006007866040516118ba91906143eb565b90815260200160405180910390208190555060006008866040516118de91906143eb565b9081526020016040518091039020819055505b60038560405161190191906143eb565b908152602001604051809103902060009054906101000a900460ff16611a5c5760018590806001815401808255809150506001900390600052602060002001600090919091909150908051906020019061195c92919061351b565b50600160038660405161196f91906143eb565b908152602001604051809103902060006101000a81548160ff02191690831515021790555060006004866040516119a691906143eb565b908152602001604051809103902060006101000a81548160ff02191690831515021790555060006005866040516119dd91906143eb565b9081526020016040518091039020819055506000600686604051611a0191906143eb565b9081526020016040518091039020819055506000600786604051611a2591906143eb565b9081526020016040518091039020819055506000600886604051611a4991906143eb565b9081526020016040518091039020819055505b5050505050565b606060006060600080600080600d600089815260200190815260200160002089604051611a9091906143eb565b90815260200160405180910390206040518060c0016040529081600082018054611ab9906140b3565b80601f0160208091040260200160405190810160405280929190818152602001828054611ae5906140b3565b8015611b325780601f10611b0757610100808354040283529160200191611b32565b820191906000526020600020905b815481529060010190602001808311611b1557829003601f168201915b5050505050815260200160018201548152602001600282018054611b55906140b3565b80601f0160208091040260200160405190810160405280929190818152602001828054611b81906140b3565b8015611bce5780601f10611ba357610100808354040283529160200191611bce565b820191906000526020600020905b815481529060010190602001808311611bb157829003601f168201915b5050505050815260200160038201548152602001600482015481526020016005820154815250509050806000015181602001518260400151836060015184608001518560a00151965096509650965096509650509295509295509295565b6000604051806040016040528084815260200183815250905080600a6000868152602001908152602001600020600082015181600001556020820151816001015590505050505050565b60006040518061014001604052808c81526020018b81526020018a815260200189815260200188815260200187815260200186815260200185815260200184815260200183815250905080600e60008e81526020019081526020016000208c604051611ce291906143eb565b90815260200160405180910390206000820151816000019080519060200190611d0c92919061351b565b506020820151816001015560408201518160020155606082015181600301556080820151816004015560a0820151816005015560c0820151816006015560e0820151816007015561010082015181600801556101208201518160090155905050505050505050505050505050565b6000806000806000806000600c60008981526020019081526020016000206040518060c001604052908160008201548152602001600182015481526020016002820154815260200160038201548152602001600482015481526020016005820154815250509050806000015181602001518260400151836060015184608001518560a001519650965096509650965096505091939550919395565b606060008060006009600086815260200190815260200160002086604051611e3d91906143eb565b9081526020016040518091039020604051806060016040529081600082018054611e66906140b3565b80601f0160208091040260200160405190810160405280929190818152602001828054611e92906140b3565b8015611edf5780601f10611eb457610100808354040283529160200191611edf565b820191906000526020600020905b815481529060010190602001808311611ec257829003601f168201915b50505050508152602001600182015481526020016002820154815250509050806000015181602001518260400151935093509350509250925092565b6060600080600080600080600080600080600e60008d81526020019081526020016000208d604051611f4d91906143eb565b908152602001604051809103902060405180610140016040529081600082018054611f77906140b3565b80601f0160208091040260200160405190810160405280929190818152602001828054611fa3906140b3565b8015611ff05780601f10611fc557610100808354040283529160200191611ff0565b820191906000526020600020905b815481529060010190602001808311611fd357829003601f168201915b5050505050815260200160018201548152602001600282015481526020016003820154815260200160048201548152602001600582015481526020016006820154815260200160078201548152602001600882015481526020016009820154815250509050806000015181602001518260400151836060015184608001518560a001518660c001518760e001518861010001518961012001519a509a509a509a509a509a509a509a509a509a50509295989b9194979a5092959850565b600080600090506000806000806000806120c689612d5e565b8096508197508298505050506120dd600054612d5e565b8093508194508295505050508160ff168560ff16146121025760019650886000819055505b86975050505050505050919050565b6000806065606460058660405161212891906143eb565b9081526020016040518091039020546121419190614487565b61214b91906142a3565b905080831391505092915050565b612161613484565b612169613484565b600060068660405161217b91906143eb565b9081526020016040518091039020549050600073__FixidityLib___________________________633c4308a883886040518363ffffffff1660e01b81526004016121c7929190613fea565b602060405180830381865af41580156121e4573d6000803e3d6000fd5b505050506040513d601f19601f820116820180604052508101906122089190614028565b905080600b6000878152602001908152602001600020600201541261223a5761223387838888610c2e565b925061226d565b85600b60008781526020019081526020016000206002015461225c9190614487565b915061226a87838888610c2e565b92505b600060048860405161227f91906143eb565b908152602001604051809103902060006101000a81548160ff021916908315150217905550856007886040516122b591906143eb565b9081526020016040518091039020819055508293505050509392505050565b60006005836040516122e691906143eb565b9081526020016040518091039020548212905092915050565b612307613484565b6000600e60008481526020019081526020016000208560405161232a91906143eb565b908152602001604051809103902060405180610140016040529081600082018054612354906140b3565b80601f0160208091040260200160405190810160405280929190818152602001828054612380906140b3565b80156123cd5780601f106123a2576101008083540402835291602001916123cd565b820191906000526020600020905b8154815290600101906020018083116123b057829003601f168201915b50505050508152602001600182015481526020016002820154815260200160038201548152602001600482015481526020016005820154815260200160068201548152602001600782015481526020016008820154815260200160098201548152505090506000600960008581526020019081526020016000208660405161245591906143eb565b908152602001604051809103902060405180606001604052908160008201805461247e906140b3565b80601f01602080910402602001604051908101604052809291908181526020018280546124aa906140b3565b80156124f75780601f106124cc576101008083540402835291602001916124f7565b820191906000526020600020905b8154815290600101906020018083116124da57829003601f168201915b505050505081526020016001820154815260200160028201548152505090506000826020015190506000600180549050600b6000888152602001908152602001600020600401546125489190614487565b9050600073__FixidityLib___________________________63f59842368386604001516040518363ffffffff1660e01b8152600401612589929190613fea565b602060405180830381865af41580156125a6573d6000803e3d6000fd5b505050506040513d601f19601f820116820180604052508101906125ca9190614028565b90506000600a600c836125dd91906142a3565b6125e79190614487565b9050600081856125f791906144f1565b905060006126078c838d8d610381565b90508a60058d60405161261a91906143eb565b9081526020016040518091039020819055508160068d60405161263d91906143eb565b9081526020016040518091039020819055508a60088d60405161266091906143eb565b908152602001604051809103902081905550600160048d60405161268491906143eb565b908152602001604051809103902060006101000a81548160ff02191690831515021790555080985050505050505050509392505050565b6000606473__FixidityLib___________________________632179bb6c6040518163ffffffff1660e01b8152600401602060405180830381865af4158015612708573d6000803e3d6000fd5b505050506040513d601f19601f8201168201806040525081019061272c9190614028565b604661273891906142a3565b6127429190614487565b905073__FixidityLib___________________________633c4308a860058560405161276e91906143eb565b908152602001604051809103902054836040518363ffffffff1660e01b815260040161279b929190613fea565b602060405180830381865af41580156127b8573d6000803e3d6000fd5b505050506040513d601f19601f820116820180604052508101906127dc9190614028565b82121561296257600073__FixidityLib___________________________63b93ea81260088660405161280f91906143eb565b908152602001604051809103902054856040518363ffffffff1660e01b815260040161283c929190613fea565b602060405180830381865af4158015612859573d6000803e3d6000fd5b505050506040513d601f19601f8201168201806040525081019061287d9190614028565b905060006064603273__FixidityLib___________________________63a5f3c23b87866040518363ffffffff1660e01b81526004016128be929190613fea565b602060405180830381865af41580156128db573d6000803e3d6000fd5b505050506040513d601f19601f820116820180604052508101906128ff9190614028565b61290991906142a3565b6129139190614487565b905060058560405161292591906143eb565b90815260200160405180910390205481121561295f578060058660405161294c91906143eb565b9081526020016040518091039020819055505b50505b505050565b600060078360405161297991906143eb565b90815260200160405180910390205403612b62578060078360405161299e91906143eb565b908152602001604051809103902081905550600073__FixidityLib___________________________63b93ea81273__FixidityLib___________________________632179bb6c6040518163ffffffff1660e01b8152600401602060405180830381865af4158015612a15573d6000803e3d6000fd5b505050506040513d601f19601f82011682018060405250810190612a399190614028565b6011546040518363ffffffff1660e01b8152600401612a59929190613fea565b602060405180830381865af4158015612a76573d6000803e3d6000fd5b505050506040513d601f19601f82011682018060405250810190612a9a9190614028565b9050600073__FixidityLib___________________________633c4308a8600786604051612ac891906143eb565b908152602001604051809103902054846040518363ffffffff1660e01b8152600401612af5929190613fea565b602060405180830381865af4158015612b12573d6000803e3d6000fd5b505050506040513d601f19601f82011682018060405250810190612b369190614028565b905080600585604051612b4991906143eb565b9081526020016040518091039020819055505050612d5a565b600782604051612b7291906143eb565b908152602001604051809103902054811315612d595780600783604051612b9991906143eb565b908152602001604051809103902081905550600073__FixidityLib___________________________63b93ea81273__FixidityLib___________________________632179bb6c6040518163ffffffff1660e01b8152600401602060405180830381865af4158015612c10573d6000803e3d6000fd5b505050506040513d601f19601f82011682018060405250810190612c349190614028565b6011546040518363ffffffff1660e01b8152600401612c54929190613fea565b602060405180830381865af4158015612c71573d6000803e3d6000fd5b505050506040513d601f19601f82011682018060405250810190612c959190614028565b9050600073__FixidityLib___________________________633c4308a8600786604051612cc391906143eb565b908152602001604051809103902054846040518363ffffffff1660e01b8152600401612cf0929190613fea565b602060405180830381865af4158015612d0d573d6000803e3d6000fd5b505050506040513d601f19601f82011682018060405250810190612d319190614028565b905080600585604051612d4491906143eb565b90815260200160405180910390208190555050505b5b5050565b600080600080849050612d7081612da3565b8095508192505050612d828185613012565b8094508192505050612d9381613398565b8093508192505050509193909250565b6000806000808493506107b292506301e133806002612dc29190614585565b841015612e0b576301e1338084612dd991906145df565b91506301e1338082612deb9190614585565b84612df69190614610565b93508183612e049190614652565b925061300b565b6301e133806002612e1c9190614585565b84612e279190614610565b93506107b492506334aadc808410612f3a576334aadc8084612e499190614610565b9350601c83612e589190614652565b92506402f060598084612e6b91906145df565b91506402f060598082612e7e9190614585565b84612e899190614610565b935061019082612e999190614585565b83612ea49190614652565b9250612eaf836133e2565b90508063ffffffff168410612ee2578063ffffffff1684612ed09190614610565b9350600183612edf9190614652565b92505b612eeb83613419565b612f395763bc17c20084612eff91906145df565b915063bc17c20082612f119190614585565b84612f1c9190614610565b9350606482612f2b9190614585565b83612f369190614652565b92505b5b6307861f8084612f4a91906145df565b91506307861f8082612f5c9190614585565b84612f679190614610565b9350600482612f769190614585565b83612f819190614652565b9250612f8c836133e2565b90508063ffffffff168410612fbf578063ffffffff1684612fad9190614610565b9350600183612fbc9190614652565b92505b612fc883613419565b61300a576301e1338084612fdc91906145df565b91506301e1338082612fee9190614585565b84612ff99190614610565b935081836130079190614652565b92505b5b5050915091565b60008061301d6135a1565b6130256135c4565b85935061303185613419565b1561319c57604051806101a00160405280600060ff168152602001601f60ff168152602001601d60ff168152602001601f60ff168152602001601e60ff168152602001601f60ff168152602001601e60ff168152602001601f60ff168152602001601f60ff168152602001601e60ff168152602001601f60ff168152602001601e60ff168152602001601f60ff168152509150604051806101a00160405280600063ffffffff1681526020016228de8063ffffffff168152602001624f1a0063ffffffff1681526020016277f88063ffffffff168152602001629f858063ffffffff16815260200162c8640063ffffffff16815260200162eff10063ffffffff168152602001630118cf8063ffffffff168152602001630141ae0063ffffffff1681526020016301693b0063ffffffff168152602001630192198063ffffffff1681526020016301b9a68063ffffffff1681526020016301e2850063ffffffff1681525090506132fe565b604051806101a00160405280600060ff168152602001601f60ff168152602001601c60ff168152602001601f60ff168152602001601e60ff168152602001601f60ff168152602001601e60ff168152602001601f60ff168152602001601f60ff168152602001601e60ff168152602001601f60ff168152602001601e60ff168152602001601f60ff168152509150604051806101a00160405280600063ffffffff1681526020016228de8063ffffffff168152602001624dc88063ffffffff1681526020016276a70063ffffffff168152602001629e340063ffffffff16815260200162c7128063ffffffff16815260200162ee9f8063ffffffff1681526020016301177e0063ffffffff1681526020016301405c8063ffffffff168152602001630167e98063ffffffff168152602001630190c80063ffffffff1681526020016301b8550063ffffffff1681526020016301e1338063ffffffff1681525090505b6000600190505b600d8160ff16101561338e57818160ff16600d811061332757613326614055565b5b602002015163ffffffff1685101561337b578093508160018261334a9190614697565b60ff16600d811061335e5761335d614055565b5b602002015163ffffffff16856133749190614610565b945061338e565b8080613386906146cb565b915050613305565b5050509250929050565b600080600083925062015180836133af91906145df565b905062015180816133c09190614585565b836133cb9190614610565b92506001816133da9190614402565b915050915091565b60006133ed82613419565b1561340c57620151806301e133806134059190614402565b9050613414565b6301e1338090505b919050565b60008060048361342991906146f4565b61ffff161461343b576000905061347f565b60006101908361344b91906146f4565b61ffff16148061346c5750600060648361346591906146f4565b61ffff1614155b1561347a576001905061347f565b600090505b919050565b6040518060c001604052806060815260200160008152602001606081526020016000815260200160008152602001600081525090565b5080546134c6906140b3565b6000825580601f106134d857506134f7565b601f0160209004906000526020600020908101906134f691906135e7565b5b50565b50805460008255906000526020600020908101906135189190613604565b50565b828054613527906140b3565b90600052602060002090601f0160209004810192826135495760008555613590565b82601f1061356257805160ff1916838001178555613590565b82800160010185558215613590579182015b8281111561358f578251825591602001919060010190613574565b5b50905061359d91906135e7565b5090565b604051806101a00160405280600d90602082028036833780820191505090505090565b604051806101a00160405280600d90602082028036833780820191505090505090565b5b808211156136005760008160009055506001016135e8565b5090565b5b80821115613624576000818161361b91906134ba565b50600101613605565b5090565b6000604051905090565b600080fd5b600080fd5b600080fd5b600080fd5b6000601f19601f8301169050919050565b7f4e487b7100000000000000000000000000000000000000000000000000000000600052604160045260246000fd5b61368f82613646565b810181811067ffffffffffffffff821117156136ae576136ad613657565b5b80604052505050565b60006136c1613628565b90506136cd8282613686565b919050565b600067ffffffffffffffff8211156136ed576136ec613657565b5b6136f682613646565b9050602081019050919050565b82818337600083830152505050565b6000613725613720846136d2565b6136b7565b90508281526020810184848401111561374157613740613641565b5b61374c848285613703565b509392505050565b600082601f8301126137695761376861363c565b5b8135613779848260208601613712565b91505092915050565b6000819050919050565b61379581613782565b81146137a057600080fd5b50565b6000813590506137b28161378c565b92915050565b6000819050919050565b6137cb816137b8565b81146137d657600080fd5b50565b6000813590506137e8816137c2565b92915050565b6000806000806080858703121561380857613807613632565b5b600085013567ffffffffffffffff81111561382657613825613637565b5b61383287828801613754565b9450506020613843878288016137a3565b9350506040613854878288016137a3565b9250506060613865878288016137d9565b91505092959194509250565b600081519050919050565b600082825260208201905092915050565b60005b838110156138ab578082015181840152602081019050613890565b838111156138ba576000848401525b50505050565b60006138cb82613871565b6138d5818561387c565b93506138e581856020860161388d565b6138ee81613646565b840191505092915050565b613902816137b8565b82525050565b61391181613782565b82525050565b600060c083016000830151848203600086015261393482826138c0565b915050602083015161394960208601826138f9565b506040830151848203604086015261396182826138c0565b91505060608301516139766060860182613908565b5060808301516139896080860182613908565b5060a083015161399c60a0860182613908565b508091505092915050565b600060208201905081810360008301526139c18184613917565b905092915050565b6000602082840312156139df576139de613632565b5b60006139ed848285016137d9565b91505092915050565b6139ff81613782565b82525050565b6000604082019050613a1a60008301856139f6565b613a2760208301846139f6565b9392505050565b600080600080600080600060e0888a031215613a4d57613a4c613632565b5b6000613a5b8a828b016137d9565b9750506020613a6c8a828b016137a3565b9650506040613a7d8a828b016137a3565b9550506060613a8e8a828b016137a3565b9450506080613a9f8a828b016137a3565b93505060a0613ab08a828b016137a3565b92505060c0613ac18a828b016137a3565b91505092959891949750929550565b600060a082019050613ae560008301886139f6565b613af260208301876139f6565b613aff60408301866139f6565b613b0c60608301856139f6565b613b1960808301846139f6565b9695505050505050565b60008060408385031215613b3a57613b39613632565b5b6000613b48858286016137d9565b9250506020613b59858286016137d9565b9150509250929050565b60008060008060008060c08789031215613b8057613b7f613632565b5b6000613b8e89828a016137d9565b9650506020613b9f89828a016137a3565b9550506040613bb089828a016137a3565b9450506060613bc189828a016137a3565b9350506080613bd289828a016137a3565b92505060a0613be389828a016137a3565b9150509295509295509295565b600082825260208201905092915050565b6000613c0c82613871565b613c168185613bf0565b9350613c2681856020860161388d565b613c2f81613646565b840191505092915050565b60006020820190508181036000830152613c548184613c01565b905092915050565b60008060408385031215613c7357613c72613632565b5b600083013567ffffffffffffffff811115613c9157613c90613637565b5b613c9d85828601613754565b9250506020613cae858286016137d9565b9150509250929050565b613cc1816137b8565b82525050565b600060c0820190508181036000830152613ce18189613c01565b9050613cf06020830188613cb8565b8181036040830152613d028187613c01565b9050613d1160608301866139f6565b613d1e60808301856139f6565b613d2b60a08301846139f6565b979650505050505050565b600080600060608486031215613d4f57613d4e613632565b5b6000613d5d868287016137d9565b9350506020613d6e868287016137a3565b9250506040613d7f868287016137a3565b9150509250925092565b60008060008060008060008060008060006101608c8e031215613daf57613dae613632565b5b6000613dbd8e828f016137d9565b9b505060208c013567ffffffffffffffff811115613dde57613ddd613637565b5b613dea8e828f01613754565b9a50506040613dfb8e828f016137a3565b9950506060613e0c8e828f016137a3565b9850506080613e1d8e828f016137a3565b97505060a0613e2e8e828f016137a3565b96505060c0613e3f8e828f016137a3565b95505060e0613e508e828f016137a3565b945050610100613e628e828f016137a3565b935050610120613e748e828f016137a3565b925050610140613e868e828f016137a3565b9150509295989b509295989b9093969950565b600060c082019050613eae60008301896139f6565b613ebb60208301886139f6565b613ec860408301876139f6565b613ed560608301866139f6565b613ee260808301856139f6565b613eef60a08301846139f6565b979650505050505050565b60006060820190508181036000830152613f148186613c01565b9050613f2360208301856139f6565b613f3060408301846139f6565b949350505050565b6000610140820190508181036000830152613f53818d613c01565b9050613f62602083018c6139f6565b613f6f604083018b6139f6565b613f7c606083018a6139f6565b613f8960808301896139f6565b613f9660a08301886139f6565b613fa360c08301876139f6565b613fb060e08301866139f6565b613fbe6101008301856139f6565b613fcc6101208301846139f6565b9b9a5050505050505050505050565b613fe481613782565b82525050565b6000604082019050613fff6000830185613fdb565b61400c6020830184613fdb565b9392505050565b6000815190506140228161378c565b92915050565b60006020828403121561403e5761403d613632565b5b600061404c84828501614013565b91505092915050565b7f4e487b7100000000000000000000000000000000000000000000000000000000600052603260045260246000fd5b7f4e487b7100000000000000000000000000000000000000000000000000000000600052602260045260246000fd5b600060028204905060018216806140cb57607f821691505b6020821081036140de576140dd614084565b5b50919050565b600081905092915050565b60008190508160005260206000209050919050565b60008154614111816140b3565b61411b81866140e4565b9450600182166000811461413657600181146141475761417a565b60ff1983168652818601935061417a565b614150856140ef565b60005b8381101561417257815481890152600182019150602081019050614153565b838801955050505b50505092915050565b600061418f8284614104565b915081905092915050565b7f4e487b7100000000000000000000000000000000000000000000000000000000600052601160045260246000fd5b60006141d4826137b8565b91507fffffffffffffffffffffffffffffffffffffffffffffffffffffffffffffffff82036142065761420561419a565b5b600182019050919050565b7f53616d65206d6f6e74682e202054696d65206e6f74207965742072656163686560008201527f6400000000000000000000000000000000000000000000000000000000000000602082015250565b600061426d602183613bf0565b915061427882614211565b604082019050919050565b6000602082019050818103600083015261429c81614260565b9050919050565b60006142ae82613782565b91506142b983613782565b9250827f7fffffffffffffffffffffffffffffffffffffffffffffffffffffffffffffff04821160008413600084131616156142f8576142f761419a565b5b817f800000000000000000000000000000000000000000000000000000000000000005831260008412600084131616156143355761433461419a565b5b827f800000000000000000000000000000000000000000000000000000000000000005821260008413600084121616156143725761437161419a565b5b827f7fffffffffffffffffffffffffffffffffffffffffffffffffffffffffffffff05821260008412600084121616156143af576143ae61419a565b5b828202905092915050565b60006143c582613871565b6143cf81856140e4565b93506143df81856020860161388d565b80840191505092915050565b60006143f782846143ba565b915081905092915050565b600061440d826137b8565b9150614418836137b8565b9250827fffffffffffffffffffffffffffffffffffffffffffffffffffffffffffffffff0382111561444d5761444c61419a565b5b828201905092915050565b7f4e487b7100000000000000000000000000000000000000000000000000000000600052601260045260246000fd5b600061449282613782565b915061449d83613782565b9250826144ad576144ac614458565b5b600160000383147f8000000000000000000000000000000000000000000000000000000000000000831416156144e6576144e561419a565b5b828205905092915050565b60006144fc82613782565b915061450783613782565b9250827f8000000000000000000000000000000000000000000000000000000000000000018212600084121516156145425761454161419a565b5b827f7fffffffffffffffffffffffffffffffffffffffffffffffffffffffffffffff01821360008412161561457a5761457961419a565b5b828203905092915050565b6000614590826137b8565b915061459b836137b8565b9250817fffffffffffffffffffffffffffffffffffffffffffffffffffffffffffffffff04831182151516156145d4576145d361419a565b5b828202905092915050565b60006145ea826137b8565b91506145f5836137b8565b92508261460557614604614458565b5b828204905092915050565b600061461b826137b8565b9150614626836137b8565b9250828210156146395761463861419a565b5b828203905092915050565b600061ffff82169050919050565b600061465d82614644565b915061466883614644565b92508261ffff0382111561467f5761467e61419a565b5b828201905092915050565b600060ff82169050919050565b60006146a28261468a565b91506146ad8361468a565b9250828210156146c0576146bf61419a565b5b828203905092915050565b60006146d68261468a565b915060ff82036146e9576146e861419a565b5b600182019050919050565b60006146ff82614644565b915061470a83614644565b92508261471a57614719614458565b5b82820690509291505056fe436f6e747261637420737461746520686173206e6f74206265656e20696e697469616c697a656420796574436f6e747261637420737461746520686173206265656e207265696e697469616c697a6564a2646970667358221220feb5082290dfab0cea64aacb28a895d36730ea474a2d17d16da07fc14dfb8d3064736f6c634300080d0033",
  "immutableReferences": {},
  "source": "pragma solidity ^0.8.13;\r\nimport \"./utils/DateUtils.sol\";\r\nimport \"./utils/FixidityLib.sol\";\r\nimport \"./agents/TradeAgent.sol\";\r\nimport \"./Object.sol\";\r\n\r\ncontract RebalanceMarginWifMaxDrawdownControl is Object, TradeAgent{\r\n    using DateUtils for *;\r\n    using StringUtils for string;\r\n    event LogActionMsg(string actionMsgs);\r\n\r\n    uint256 lastExecutedTimestamp;\r\n\r\n    string[] tickerNames;\r\n    uint256[] executionTimestamps;\r\n\r\n    mapping (string => bool) tickerExists;\r\n\r\n    mapping (string => bool) maxDrawdownDodge;\r\n    mapping (string => int256) benchmarkDrawdownPrice;\r\n    mapping (string => int256) liquidateTickerQty;\r\n    mapping (string => int256) maxStockPrice;\r\n    mapping (string => int256) liquidateTickerPrice;\r\n    mapping (uint256 => mapping(string => RealTimeTickerData)) realTimeTickersData;\r\n\r\n    mapping(uint256 => MarginAccount) marginAccountData;\r\n    mapping(uint256 => TradingFunds) tradingFundsData;\r\n    mapping(uint256 => MktValue) mktValueData;\r\n\r\n    mapping (uint256 => mapping(string => ActionMsg)) actionMsgs;\r\n    mapping (uint256 => mapping(string => PortfolioHolding)) portfolioHoldingsData;\r\n    uint256 loop = 0;\r\n    int256 rebalanceMargin = int256(5) * FixidityLib.fixed1() / int256(100);\r\n    int256 maxDrawdown = int256(5) * FixidityLib.fixed1() / int256(1000);\r\n\r\n    constructor(){\r\n        tickerNames = [\"QQQ\", \"SPY\"];\r\n        tickerExists[\"QQQ\"] = true;\r\n        tickerExists[\"SPY\"] = true;\r\n\r\n        lastExecutedTimestamp = 0;\r\n    }\r\n\r\n    function inputRealTimeTickerData(string memory _tickerName, int256 bidPrice, int256 last, uint256 _timestamp) public {\r\n        RealTimeTickerData memory tickerData = RealTimeTickerData(_tickerName, bidPrice, last);\r\n        realTimeTickersData[_timestamp][_tickerName] = tickerData;\r\n\r\n        if(loop == 0){\r\n            maxDrawdownDodge[_tickerName] = false;\r\n            benchmarkDrawdownPrice[_tickerName] = 0;\r\n            liquidateTickerQty[_tickerName] = 0;\r\n            maxStockPrice[_tickerName] = 0;\r\n            liquidateTickerPrice[_tickerName] = 0;\r\n        }\r\n\r\n        if (!tickerExists[_tickerName]){\r\n            tickerNames.push(_tickerName);\r\n            tickerExists[_tickerName] = true;\r\n            maxDrawdownDodge[_tickerName] = false;\r\n            benchmarkDrawdownPrice[_tickerName] = 0;\r\n            liquidateTickerQty[_tickerName] = 0;\r\n            maxStockPrice[_tickerName] = 0;\r\n            liquidateTickerPrice[_tickerName] = 0;\r\n        }\r\n    }\r\n\r\n    function getRealTimeTickerData(string memory _tickerName, uint256 _timeStamp) public returns (string memory, int256, int256){\r\n        RealTimeTickerData memory tickerData = realTimeTickersData[_timeStamp][_tickerName];\r\n        return (tickerData.tickerName, tickerData.bidPrice, tickerData.last);\r\n    }\r\n\r\n    function inputMarginAccount(uint256 _timestamp, int256 FullInitMarginReq, int256 FullMainMarginReq) public {\r\n        MarginAccount memory data = MarginAccount(FullInitMarginReq, FullMainMarginReq);\r\n        marginAccountData[_timestamp] = data;\r\n    }\r\n\r\n    function getMarginAccount(uint256 timestamp) public view returns (int256,int256){\r\n        MarginAccount memory data = marginAccountData[timestamp];\r\n        return (data.FullInitMarginReq, data.FullMainMarginReq);\r\n    }\r\n\r\n    function inputTradingFunds(uint256 _timestamp, int256 AvailableFunds, int256 ExcessLiquidity, int256 BuyingPower, int256 Leverage, int256 EquityWithLoanValue) public {\r\n        TradingFunds memory data = TradingFunds(AvailableFunds, ExcessLiquidity, BuyingPower, Leverage, EquityWithLoanValue);\r\n        tradingFundsData[_timestamp] = data;\r\n    }\r\n\r\n    function getTradingFunds(uint256 timestamp) public view returns (int256,int256,int256,int256,int256){\r\n        TradingFunds memory data = tradingFundsData[timestamp];\r\n        return (data.AvailableFunds, data.ExcessLiquidity, data.BuyingPower, data.Leverage, data.EquityWithLoanValue);\r\n    }\r\n\r\n    function inputMktValue(uint256 _timestamp, int256 TotalCashValue, int256 NetDividend, int256 NetLiquidation, int256 UnrealizedPnL, int256 RealizedPnL, int256 GrossPositionValue) public {\r\n        MktValue memory data = MktValue(TotalCashValue, NetDividend, NetLiquidation, UnrealizedPnL, RealizedPnL, GrossPositionValue);\r\n        mktValueData[_timestamp] = data;\r\n    }\r\n\r\n    function getMktValue(uint256 _timestamp) public view returns (int256,int256,int256,int256,int256,int256){\r\n        MktValue memory data = mktValueData[_timestamp];\r\n        return (data.TotalCashValue, data.NetDividend, data.NetLiquidation, data.UnrealizedPnL, data.RealizedPnL, data.GrossPositionValue);\r\n    }\r\n\r\n    function updatePortfolioHoldingsData(uint256 timestamp, string memory _tickerName, int256 position, int256 marketPrice, int256 averageCost, int256 marketValue, int256 realizedPNL, int256 unrealizedPNL, int256 initMarginReq, int256 maintMarginReq, int256 costBasis) public {\r\n        PortfolioHolding memory holding = PortfolioHolding(_tickerName, position, marketPrice, averageCost, marketValue, realizedPNL, unrealizedPNL, initMarginReq, maintMarginReq, costBasis);\r\n        portfolioHoldingsData[timestamp][_tickerName] = holding;\r\n    }\r\n\r\n    function getPortfolioHolding(string memory _tickerName, uint256 _timestamp) public returns (string memory,int256,int256,int256,int256,int256,int256,int256,int256,int256){\r\n        PortfolioHolding memory holding = portfolioHoldingsData[_timestamp][_tickerName];\r\n        return (holding.tickerName, holding.position, holding.marketPrice, holding.averageCost, holding.marketValue, holding.realizedPNL, holding.unrealizedPNL, holding.initMarginReq, holding.maintMarginReq, holding.costBasis);\r\n    }\r\n\r\n    function getTickerActionMsg(string memory tickerName, uint256 _timestamp) public returns (string memory, uint256, string memory, int256, int256, int256){\r\n        ActionMsg memory actionMsg = actionMsgs[_timestamp][tickerName];\r\n        return (actionMsg.tickerName, actionMsg.timestamp, actionMsg.transactionType, actionMsg.positionAction, actionMsg.transactionTickerPrice, actionMsg.transactionAmount);\r\n    }\r\n\r\n    function inputLoopWithTimestamps(uint256 _loop, uint256 _lastExecutedTimestamp) public {\r\n        loop = _loop;\r\n        executionTimestamps.push(_lastExecutedTimestamp);\r\n    }\r\n\r\n    function reinitializeContractState() public returns (string memory){\r\n        string memory msg = \"\";\r\n        if (executionTimestamps.length == 0){\r\n            msg = \"Contract state has not been initialized yet\";\r\n        }else{\r\n            for (uint i=0; i < tickerNames.length; i++){\r\n                delete tickerExists[tickerNames[i]];\r\n                delete maxDrawdownDodge[tickerNames[i]];\r\n                delete benchmarkDrawdownPrice[tickerNames[i]];\r\n                delete liquidateTickerQty[tickerNames[i]];\r\n                delete maxStockPrice[tickerNames[i]];\r\n                delete liquidateTickerPrice[tickerNames[i]];\r\n            }\r\n            for (uint i=0; i < executionTimestamps.length; i++){\r\n                for (uint j=0; j < tickerNames.length; j++){\r\n                    delete realTimeTickersData[executionTimestamps[i]][tickerNames[j]];\r\n                    delete portfolioHoldingsData[executionTimestamps[i]][tickerNames[j]];\r\n                    delete actionMsgs[executionTimestamps[i]][tickerNames[j]];\r\n                }\r\n\r\n                delete marginAccountData[executionTimestamps[i]];\r\n                delete tradingFundsData[executionTimestamps[i]];\r\n                delete mktValueData[executionTimestamps[i]];\r\n                executionTimestamps[i] = 0;\r\n            }\r\n            lastExecutedTimestamp = 0;\r\n            delete tickerNames;\r\n            msg = \"Contract state has been reinitialized\";\r\n        }\r\n        return msg;\r\n    }\r\n\r\n    function run(uint256 _timestamp) public{\r\n        require(checkExecution(_timestamp), \"Same month.  Time not yet reached\");\r\n        executionTimestamps.push(_timestamp);\r\n        loop++;\r\n        if(loop == 0){\r\n            int256 capitalForEachStock = FixidityLib.divide(mktValueData[_timestamp].TotalCashValue, int256(tickerNames.length) * FixidityLib.fixed1());\r\n            for (uint i=0; i < tickerNames.length; i++){\r\n                RealTimeTickerData memory tickerData = realTimeTickersData[_timestamp][tickerNames[i]];\r\n                string memory tickerName = tickerData.tickerName;\r\n                int256 tickerPrice = tickerData.last;\r\n                int256 sharePurchase = FixidityLib.divide(capitalForEachStock,tickerData.last) * 3;\r\n                ActionMsg memory actionMsg = TradeAgent.placeBuyStockLimitOrderMsg(tickerName,sharePurchase,tickerPrice,_timestamp);\r\n                actionMsgs[_timestamp][tickerName] = actionMsg;\r\n            }\r\n        }\r\n        else{\r\n            int256 targetExLiq = FixidityLib.multiply(rebalanceMargin, mktValueData[_timestamp].GrossPositionValue);\r\n            for (uint i=0; i < tickerNames.length; i++){\r\n                int256 tickerPrice = realTimeTickersData[_timestamp][tickerNames[i]].last;\r\n                string memory tickerName = tickerNames[i];\r\n                if (maxDrawdownDodge[tickerNames[i]]){\r\n                    if (checkBuyBack(tickerName, tickerPrice)){\r\n                        ActionMsg memory actionMsg = buyBackPosition(tickerName, tickerPrice,_timestamp);\r\n                        actionMsgs[_timestamp][tickerName] = actionMsg;\r\n                    }\r\n                }else{\r\n                    if(checkMaxDrawdownDodge(tickerName,tickerPrice)){\r\n                        ActionMsg memory actionMsg = liquidateTickerPosition(tickerName, tickerPrice ,_timestamp);\r\n                    }\r\n                    else{\r\n                        if (tradingFundsData[_timestamp].ExcessLiquidity > targetExLiq) {\r\n                            int256 exLiqDiff = FixidityLib.subtract(tradingFundsData[_timestamp].ExcessLiquidity, targetExLiq);\r\n                            int256 targetSharePurchase = FixidityLib.divide(exLiqDiff,tickerPrice);\r\n\r\n                            if (targetSharePurchase > 0){\r\n                                ActionMsg memory actionMsg = super.placeBuyStockLimitOrderMsg(tickerName,targetSharePurchase,tickerPrice,_timestamp);\r\n                                actionMsgs[_timestamp][tickerName] = actionMsg;\r\n                            }\r\n                        }\r\n                    }\r\n                }\r\n            }\r\n\r\n            for (uint i=0; i < tickerNames.length; i++){\r\n                int256 tickerPrice = realTimeTickersData[_timestamp][tickerNames[i]].last;\r\n                string memory tickerName = tickerNames[i];\r\n                if (maxDrawdownDodge[tickerName]){\r\n                    updateBenchmarkDrawdownPriceAfterDodge(tickerName, tickerPrice);\r\n                }\r\n                else{\r\n                    updateBenchmarkDrawdownPriceBeforeDodge(tickerName, tickerPrice);\r\n                }\r\n            }\r\n        }\r\n        lastExecutedTimestamp = _timestamp;\r\n        loop = loop + 1;\r\n\r\n    }\r\n\r\n    function checkExecution(uint256 _timestamp) internal returns (bool){\r\n\r\n        bool exec = false;\r\n        uint16 _year;\r\n        uint8 _month;\r\n        uint8 _day;\r\n\r\n        uint16 _lastYear;\r\n        uint8 _lastMonth;\r\n        uint8 _lastday;\r\n\r\n        (_year, _month, _day) = DateUtils.convertTimestampToYMD(_timestamp);\r\n        (_lastYear, _lastMonth, _lastday) = DateUtils.convertTimestampToYMD(lastExecutedTimestamp);\r\n        if (_month != _lastMonth){\r\n            exec = true;\r\n            lastExecutedTimestamp = _timestamp;\r\n            }\r\n        return exec;\r\n    }\r\n\r\n\r\n    function checkBuyBack(string memory _tickerName, int256 realTimeTickerPrice)internal returns (bool){\r\n//        range_price = self.benchmark_drawdown_price.get(ticker) * (1 + 0.01)\r\n//        return ticker_price > range_price\r\n        int256 rangePrice = benchmarkDrawdownPrice[_tickerName] /100*101;\r\n        return realTimeTickerPrice > rangePrice;\r\n    }\r\n\r\n    function buyBackPosition(string memory _tickerName, int256 _tickerPrice, uint256 _timestamp) internal returns (ActionMsg memory) {\r\n        ActionMsg memory actionMsg;\r\n        int256 targetSharePurchase = liquidateTickerQty[_tickerName];\r\n        int256 purchaseAmount =  FixidityLib.multiply(targetSharePurchase, _tickerPrice);\r\n        if (tradingFundsData[_timestamp].BuyingPower >= purchaseAmount){\r\n            actionMsg = super.placeBuyStockLimitOrderMsg(_tickerName,targetSharePurchase,_tickerPrice,_timestamp);\r\n        }else{\r\n            targetSharePurchase = tradingFundsData[_timestamp].BuyingPower / _tickerPrice;\r\n            actionMsg = super.placeBuyStockLimitOrderMsg(_tickerName,targetSharePurchase,_tickerPrice,_timestamp);\r\n        }\r\n\r\n        maxDrawdownDodge[_tickerName] = false;\r\n        maxStockPrice[_tickerName] = _tickerPrice;\r\n\r\n        return actionMsg;\r\n    }\r\n\r\n\r\n    function checkMaxDrawdownDodge(string memory tickerName, int256 tickerPrice) private returns (bool){\r\n        return tickerPrice < benchmarkDrawdownPrice[tickerName];\r\n    }\r\n\r\n    function updateBenchmarkDrawdownPriceAfterDodge(string memory _tickerName, int256 _tickerPrice) private{\r\n//        if real_time_ticker_price < self.benchmark_drawdown_price[ticker] * 0.7:\r\n//            target_update_benchmark_drawdown_price = real_time_ticker_price + (\r\n//                    (self.liq_sold_price_dict[ticker] - real_time_ticker_price) * 0.5)\r\n//            if target_update_benchmark_drawdown_price < self.benchmark_drawdown_price[ticker]:\r\n//                self.benchmark_drawdown_price[ticker] = target_update_benchmark_drawdown_price\r\n\r\n        int256 benchmarkDrawdownFactor = int256(70) * FixidityLib.fixed1() / int256(100);\r\n        if (_tickerPrice < FixidityLib.multiply(benchmarkDrawdownPrice[_tickerName] , benchmarkDrawdownFactor)){\r\n\r\n            int256 tickerDiff = FixidityLib.subtract(liquidateTickerPrice[_tickerName],_tickerPrice);\r\n            int256 targetUpdateBenchmarkDrawdownPrice = FixidityLib.add(_tickerPrice, tickerDiff) * 50 / 100;\r\n            if (targetUpdateBenchmarkDrawdownPrice < benchmarkDrawdownPrice[_tickerName]){\r\n                benchmarkDrawdownPrice[_tickerName] = targetUpdateBenchmarkDrawdownPrice;\r\n            }\r\n        }\r\n    }\r\n\r\n    function updateBenchmarkDrawdownPriceBeforeDodge(string memory _tickerName, int256 realTimeTickerPrice) private{\r\n//        if (self.max_stock_price.get(ticker) == 0):  # if there is no data for the max and benchmark price\r\n//            self.max_stock_price.update({ticker: real_time_ticker_price})\r\n//            benchmark_price = real_time_ticker_price * (1 - self.max_drawdown_ratio)\r\n//            self.benchmark_drawdown_price.update({ticker: benchmark_price})\r\n//        elif real_time_ticker_price > self.max_stock_price.get(ticker):\r\n//            self.max_stock_price.update({ticker: real_time_ticker_price})\r\n//            benchmark_price = real_time_ticker_price * (1 - self.max_drawdown_ratio)\r\n//            self.benchmark_drawdown_price.update({ticker: benchmark_price})\r\n\r\n        if (maxStockPrice[_tickerName] == 0){\r\n            maxStockPrice[_tickerName] = realTimeTickerPrice;\r\n            int256 drawDownFactor = FixidityLib.subtract(FixidityLib.fixed1(), maxDrawdown);\r\n            int256 tickerBenchmarkPrice = FixidityLib.multiply(maxStockPrice[_tickerName], drawDownFactor);\r\n            benchmarkDrawdownPrice[_tickerName] = tickerBenchmarkPrice;\r\n        }\r\n        else if (realTimeTickerPrice > maxStockPrice[_tickerName]){\r\n            maxStockPrice[_tickerName] = realTimeTickerPrice;\r\n            int256 drawDownFactor = FixidityLib.subtract(FixidityLib.fixed1(), maxDrawdown);\r\n            int256 tickerBenchmarkPrice = FixidityLib.multiply(maxStockPrice[_tickerName], drawDownFactor);\r\n            benchmarkDrawdownPrice[_tickerName] = tickerBenchmarkPrice;\r\n        }\r\n\r\n    }\r\n\r\n    function liquidateTickerPosition(string memory _tickerName, int256 tickerPrice, uint256 _timestamp) private returns (ActionMsg memory){\r\n        PortfolioHolding memory holding = portfolioHoldingsData[_timestamp][_tickerName];\r\n        RealTimeTickerData memory tickerData = realTimeTickersData[_timestamp][_tickerName];\r\n        int256 currentPosition = holding.position;\r\n        int256 noLeverageEquity = tradingFundsData[_timestamp].EquityWithLoanValue / int256(tickerNames.length);\r\n        int256 noLeveragePosition = FixidityLib.divide(noLeverageEquity,tickerData.last);\r\n        int256 targetLeveragePositionAtLiquidState = noLeveragePosition * 12 / 10;\r\n\r\n        int256 targetSoldPosition = currentPosition - targetLeveragePositionAtLiquidState;\r\n        ActionMsg memory actionMsg = super.placeSellStockLimitOrderMsg(_tickerName,targetSoldPosition,tickerPrice, _timestamp);\r\n\r\n        benchmarkDrawdownPrice[_tickerName] = tickerPrice;\r\n        liquidateTickerQty[_tickerName] = targetSoldPosition;\r\n        liquidateTickerPrice[_tickerName] = tickerPrice;\r\n        maxDrawdownDodge[_tickerName] = true;\r\n\r\n        return actionMsg;\r\n    }\r\n\r\n\r\n\r\n}\r\n",
  "sourcePath": "C:\\Users\\lam\\Documents\\GitHub\\IndexTradingApplication\\contract\\contracts\\RebalanceMarginWifMaxDrawdownControl.sol",
  "compiler": {
    "name": "solc",
    "version": "0.8.13+commit.abaa5c0e.Emscripten.clang"
  },
  "schemaVersion": "3.4.7",
  "updatedAt": "2022-07-13T07:39:42.370Z",
  "networkType": "ethereum",
  "devdoc": {
    "kind": "dev",
    "methods": {},
    "version": 1
  },
  "userdoc": {
    "kind": "user",
    "methods": {},
    "version": 1
  }
}